:020000040000FA
:0400000057EF00F0C6
:10000800DE10DE10DE10DE10DE10DE10DE10DE1078
:10001800B110DE104C0F950BDE10DE10DE10DE1076
:10002800B510BE10C410C110DE10DE10DE10DE10D8
:10003800DE10DE10DE10E50FDE10DE10DE10DE1042
:10004800DE10DE10DE10DE102B00DE10DE10DE10FB
:10005800100EDE10DE10DE10DE10DE10DE10DE10F8
:10006800DE10DE10F90FEF0FDE10DE108600DE1056
:10007800DE10DE102B00DE10DE10DE102B002B0051
:100088002B002B002B002B002B002B000D7CDE10EF
:100098000310DE10DE10DE102B002B002B002B00CF
:1000A800DE10DE10FF0013EECDF23EEF06F0E15059
:1000B800FC0FD96EE250DA6EFF0EDA22000EDE1463
:1000C800336E000EDE14346E800EDE14356E7F0E35
:1000D800DE14366E3350341035103610D8A408D0DC
:1000E800FC0EE36AFD0EE36AFE0EE36AFF0EE36AA6
:1000F800E150F80FD96EE250DA6EFF0EDA22000EE8
:10010800DE14336E000EDE14346E800EDE14356E8F
:100118007F0EDE14366E3350341035103610D8A4E6
:1001280008D0F80EE36AF90EE36AFA0EE36AFB0EEA
:10013800E36AFF0EE3AE24D0000E336E000E346E79
:10014800000E356E800E366EFC0EE350335EFD0EEB
:10015800E350345AFE0EE350355AFF0EE350365A38
:10016800FC0E6000CFF0E3FFFD0E6000D3F0E3FF6C
:10017800FE0E6000D7F0E3FFFF0E6000DBF0E3FF48
:10018800FB0EE3AE24D0000E336E000E346E000E6C
:10019800356E800E366EF80EE350335EF90EE3507E
:1001A800345AFA0EE350355AFB0EE350365AF80E1D
:1001B8006000CFF0E3FFF90E6000D3F0E3FFFA0E22
:1001C8006000D7F0E3FFFB0E6000DBF0E3FFFF0EFB
:1001D800E37EFB0EE37EE150FC0FD96EE250DA6E4F
:1001E800FF0EDA22F80EE350DE5CF90EE350DE581B
:1001F800FA0EE350DE58FB0EE350DE58D8B002D0BA
:100208002B9001D02B80F80EE126FF0EE22212007F
:100218006F0060FFD9F06F00D8FFDAF06F00DCFFE5
:10022800DBF06F00E0FFDCF06F00D4FFDDF0600072
:10023800ACF0DEF06000B0F0DFF06000B4F0E0F0A9
:100248006000B8F0E1F06000BCF0E2F06000C0F0DF
:10025800E3F06000C4F0E4F06000C8F0E5F060008E
:10026800CCF0E6F06000D0F0E7F06000D4F0E8F001
:100278006000D8F0E9F06000ECF0EAF06000F0F01F
:10028800EBF06000F4F0ECF06000F8F0EDF06000E6
:10029800FCF0EEF0600000F1EFF0600004F1F0F027
:1002A800600008F1F1F016EE45F23901A69D6000F4
:1002B800EBF2E6FF6000EFF2E6FF00EC1CF0000155
:1002C800B84BB92BB95104E1C50EB85DD8A005D01B
:1002D8003FEC1CF00001B86BB96B6000C4F342F04E
:1002E8006000C0F341F06000BCF340F06000B8F378
:1002F8003FF06000B4F33EF06000B0F33DF0600002
:10030800ACF33CF06000A8F33BF06000A4F336F0D7
:100318006000A0F335F060009CF334F0600098F3BF
:1003280033F0600094F332F0600090F331F0600035
:100338008CF330F0600088F32FF0600084F32EF027
:10034800600080F32DF060007CF32CF0600078F3FF
:100358002BF0600077F3F5FF600073F3F8FF60009F
:100368006FF3F7FF60006BF3F6FF600067F3D8FFE9
:100378001100FF0E6F008CFF2BF0030E2B16FF0EE3
:100388006000AFF0E3FF23EE7FF1DFA004D0FF0EA3
:10039800E350D8B49CD0FF0EE350A00D130EF32405
:1003A800D96E0B0EF420DA6E000EDF6EFF0EE350EE
:1003B800A00D3B0EF324D96E0B0EF420DA6E000E5E
:1003C800DF6EFF0EE350A00D630EF324D96E0B0E03
:1003D800F420DA6E000EDF6EFF0EE350A00D8B0ED8
:1003E800F324D96E0B0EF420DA6E000EDF6E4CEC9F
:1003F80021F0FF0EE350A00DFF0E356E0A0E366E8B
:10040800F3503526F45036226000D7F0E6FF60003E
:10041800DBF0E6FF000EE66E000EE66EEAEC12F088
:100428004CEC21F0FF0EE350A00DFF0E356E0A0EC6
:10043800366E280E3526000E3622F3503526F45037
:1004480036226000D7F0E6FF6000DBF0E6FF000E22
:10045800E66E010EE66EEAEC12F04CEC21F0FF0EAF
:10046800E350A00DFF0E356E0A0E366E500E35267F
:10047800000E3622F3503526F45036226000D7F0AD
:10048800E6FF6000DBF0E6FF000EE66E020EE66EA9
:10049800EAEC12F04CEC21F0FF0EE350A00DFF0E39
:1004A800356E0A0E366E780E3526000E3622F3505B
:1004B8003526F45036226000D7F0E6FF6000DBF006
:1004C800E6FF000EE66E030EE66EEAEC12F0E55269
:1004D8001200080EE126000EE222070E2B6EF80E1F
:1004E800E36AE82A2B06FCE2F00EE3A050D0F80EEF
:1004F800E3502B6EE80EE3502B26F80E6000AFF0A9
:10050800E3FFF90EE3502B6EE90EE3502B22F90EB0
:100518006000AFF0E3FFFA0EE3502B6EEA0EE350F3
:100528002B22FA0E6000AFF0E3FFFB0EE3502B6EB8
:10053800EB0EE3502B22FB0E6000AFF0E3FFFC0E46
:10054800E3502B6EEC0EE3502B22FC0E6000AFF054
:10055800E3FFFD0EE3502B6EED0EE3502B22FD0E54
:100568006000AFF0E3FFFE0EE3502B6EEE0EE3509B
:100578002B22FE0E6000AFF0E3FFFF0EE3502B6E60
:10058800EF0EE3502B22FF0E6000AFF0E3FFD89090
:10059800E80EE336E90EE336EA0EE336EB0EE33611
:1005A800EC0EE336ED0EE336EE0EE336EF0EE336F1
:1005B800D890F70EE332F60EE332F50EE332F40E7E
:1005C800E332F30EE332F20EE332F10EE332F00ED1
:1005D800E332F00EE35088E1F10EE35085E1F20ECC
:1005E800E35082E1F30EE3500CE1F40EE35009E12D
:1005F800F50EE35006E1F60EE35003E1F70EE35083
:10060800D8A472D7F80EE124D96EFF0EE220DA6E74
:10061800080E2B6EF00E6F007BFFE3FFE8282B2EF1
:10062800FAD7F80EE126FF0EE2221200070EE126A5
:10063800000EE222F90EE36AFA0EE36AA10E356EA5
:10064800000E366EFD0E6000D7F0E3FFFE0E600070
:10065800DBF0E3FF420E0201A76F020E2B6EFC0EC9
:100668006000AFF0E3FF070E2B6EFB0E6000AFF0EB
:10067800E3FF190EA66F570EA56FC5EC13F0A9EC92
:1006880021F0F90E6F008CFF35F0FA0E6F008CFF29
:1006980036F0FB0E6F008CFF33F0FC0E6F008CFF02
:1006A80034F035503324D96E36503420DA6EDF50AA
:1006B800E66EF80E6F008FFFE6FF6F008FFFE6FF14
:1006C8005FEC17F0F90E6F008CFF35F0FA0E6F0033
:1006D8008CFF36F0FB0E6F008CFF33F0FC0E6F00C2
:1006E8008CFF34F035503324D96E36503420DA6E0E
:1006F800DF50E66E0BEC21F02DEC21F02B50D8A446
:10070800FBD7FD0E6F008CFF35F0FE0E6F008CFFDF
:1007180036F0F90EE350010F2B6EF90E6000AFF0C2
:10072800E3FF2B6AFA0EE3502B202B6EFA0E6000C3
:10073800AFF0E3FFF90E6F008CFF33F0FA0E6F0095
:100748008CFF34F03550335C36503458D8A099D7E4
:10075800000EE66E000EE66E000EE66ECAECFCF0C9
:10076800FF0E6000AFF0E3FFFF0EE350E66EA00E51
:10077800E66E000EE66E5FEC17F0F90EE126FF0E4E
:10078800E2221200E652E652E652E652FE0EE36A12
:10079800F90EE3AE09D0F80EE36CF90EE31ED8B0FB
:1007A800E32AFE0EE36AE32AFB0EE3AE08D0FA0E54
:1007B800E36CFB0EE31ED8B0E32AFE0EE370FC0EDA
:1007C800E36AFD0EE36AF80E6F008CFF2BF0F90E5A
:1007D800E3502B10D8B466D0FF0EE36A12D0F80E9F
:1007E800E350D890E8342B6EF80E6000AFF0E3FFCA
:1007F800F90EE350E8342B6EF90E6000AFF0E3FF1A
:10080800FF0EE32AF90EE3AEEAD7FC0EE350D890C8
:10081800E8342B6EFC0E6000AFF0E3FFFD0EE350F2
:10082800E8342B6EFD0E6000AFF0E3FFF80E6F00AA
:100838008CFF35F0F90E6F008CFF36F0FA0E6F0062
:100848008CFF33F0FB0E6F008CFF34F03550335CB7
:1008580036503458D8A016D0FA0EE3502B6EF80E46
:10086800E3502B5EFA0E6000AFF0E3FFFB0EE3509F
:100878002B6EF90EE3502B5AFB0E6000AFF0E3FF2E
:10088800FC0EE380D890F90EE332F80EE332FF0E47
:10089800E3502B6E010E2B5EFF0E6000AFF0E3FFFE
:1008A800D8A4B3D7FE0EE350D8B406D0FC0EE36C40
:1008B800FD0EE31ED8B0E32AFC0E6F008CFF2BF070
:1008C800FD0E6F008CFF2CF0F80EE126FF0EE222E1
:1008D8001200E652EF0EE35016E1F00EE35013E17A
:1008E800F10EE35010E1F20EE3500DE1F30EE35088
:1008F8000AE1F40EE35007E1F50EE35004E1F60EC9
:10090800E350D8B475D0FF0EE36A12D0D890EF0E3A
:10091800E336F00EE336F10EE336F20EE336F30E6D
:10092800E336F40EE336F50EE336F60EE336FF0E45
:10093800E32AF60EE3AEEAD7E150F70FD96EE2509C
:10094800DA6EFF0EDA22EF0EE350DE5CF00EE350B3
:10095800DE58F10EE350DE58F20EE350DE58F30E87
:10096800E350DE58F40EE350DE58F50EE350DE583F
:10097800F60EE350DE58D8A01FD0E150F70FD96E1D
:10098800E250DA6EFF0EDA22EF0EE350DE5EF00E72
:10099800E350DE5AF10EE350DE5AF20EE350DE5A0F
:1009A800F30EE350DE5AF40EE350DE5AF50EE35030
:1009B800DE5AF60EE350DE5AD890F60EE332F50E04
:1009C800E332F40EE332F30EE332F20EE332F10EC9
:1009D800E332F00EE332EF0EE332FF0EE3502B6EFC
:1009E800010E2B5EFF0E6000AFF0E3FFD8A4A4D782
:1009F800F70EE124D96EFF0EE220DA6E080E2B6E98
:100A0800F70E6F007BFFE3FFE8282B2EFAD7E5529D
:100A18001200020EE66E0DEC1DF02B50D8B42DD04E
:100A2800FE0E6F008CFF35F0FF0E6F008CFF36F066
:100A3800020E3524D96E000E3620DA6E000EDF6EF7
:100A4800FE0E6F008CFF35F0FF0E6F008CFF36F046
:100A5800030E3524D96E000E3620DA6E020EE66ECD
:100A68000DEC1DF02B50D8B402D0010E01D0000EB1
:100A7800DF6E020EE66EFAEC19F0030EE66E0DEC70
:100A88001DF02B50D8B42DD0FE0E6F008CFF35F022
:100A9800FF0E6F008CFF36F0040E3524D96E000E61
:100AA8003620DA6E000EDF6EFE0E6F008CFF35F01A
:100AB800FF0E6F008CFF36F0050E3524D96E000E40
:100AC8003620DA6E030EE66E0DEC1DF02B50D8B40E
:100AD80002D0010E01D0000EDF6E030EE66EFAECB6
:100AE80019F0040EE66E0DEC1DF02B50D8B42DD085
:100AF800FE0E6F008CFF35F0FF0E6F008CFF36F096
:100B0800060E3524D96E000E3620DA6E000EDF6E22
:100B1800FE0E6F008CFF35F0FF0E6F008CFF36F075
:100B2800070E3524D96E000E3620DA6E040EE66EF6
:100B38000DEC1DF02B50D8B402D0010E01D0000EE0
:100B4800DF6E040EE66EFAEC19F0E552E55212007B
:100B5800FC0E6F008CFF2BF0FD0EE3502B10D8B469
:100B680009D0FC0E6F008CFF2BF0FD0EE3502B100C
:100B7800D8A406D0FE0EE350E66EB0EC20F075D097
:100B8800FC0E6F008CFF35F0FD0E6F008CFF36F009
:100B9800040E3524D96E000E3620DA6EDE50DE10D3
:100BA800D8B426D0FC0E6F008CFF35F0FD0E6F0018
:100BB8008CFF36F0040E3524D96E000E3620DA6E1E
:100BC800FC0E6F008CFF35F0FD0E6F008CFF36F0C9
:100BD800020E3524E96E000E3620EA6EDE50EE5C19
:100BE800EE50800A2B6EDE50800A2B58D8B03DD0CC
:100BF800FC0E6F008CFF35F0FD0E6F008CFF36F099
:100C0800020E3524D96E000E3620DA6E6F0078FF9A
:100C180035F06F0074FF36F0FC0E6F008FFFD9FFC0
:100C2800FD0E6F008FFFDAFF6F0078FF33F06F0063
:100C380074FF34F035503324D96E36503420DA6ED0
:100C4800FE0E6F008FFFDFFFFC0E6F008CFF35F08C
:100C5800FD0E6F008CFF36F0020E3524D96E000EA3
:100C68003620DA6EDE2A000EDD22E552E552E55224
:100C7800E5521200B60EF66E740EF76E010EF86E9F
:100C880001EEFFF221EECEF309006F00D7FFEEFF71
:100C9800DD50D950F9E1DA50F7E11E0EF66E220E5A
:100CA800F76E000EF86E00EE00F220EEA8F00900D4
:100CB8006F00D7FFEEFFDD50D950F9E1D80EF66E80
:100CC800180EF76E000EF86E00EE00F120EEE3F05D
:100CD80009006F00D7FFEEFFDD50D950F9E17E0E15
:100CE800F66E430EF76E000EF86E00EEF2F020EE90
:100CF80004F009006F00D7FFEEFFDD50D950F9E18D
:100D08008C0EF66E430EF76E000EF86E09006F003B
:100D1800D4FF5FF001EE00F220EEFFF0EE6ADD5046
:100D2800D950FCE1DA50FAE101EE00F1A10EEE6AC9
:100D3800E806FDE101EE00F0A30EEE6AE806FDE12B
:100D480000EE00F3FD0EEE6AE806FDE100EEA8F203
:100D5800540EEE6AE806FDE100EEE3F11D0EEE6AC0
:100D6800E806FDE100EE60F0790EEE6AE806FDE1C6
:100D780000EE4BF0140EEE6AE806FDE1080ED56EA3
:100D8800000ED66E000ED76E000100EF80F0FE0E4A
:100D98006F008FFFD9FFFF0E6F008FFFDAFFFB0E8A
:100DA8006F008FFFDFFF0A0EE66EFC0EE350E66E63
:100DB80004EC12F0300E2B26FE0E6F008CFF2CF088
:100DC800010E2C5EFE0E6000B3F0E3FFFF0E6F0015
:100DD8008CFF2CF0000E2C5AFF0E6000B3F0E3FFDE
:100DE800FE0E6F008FFFD9FFFF0E6F008FFFDAFF37
:100DF8006000AFF0DFFF0A0EE66E000EE66EFB0E37
:100E0800E350E66E000EE66EC6EC03F0FD0E6000E1
:100E1800AFF0E3FFFD0EE350D8B421D0FE0E6F0013
:100E28008CFF2BF0010E2B5EFE0E6000AFF0E3FF8F
:100E3800FF0E6F008CFF2BF0000E2B5AFF0E600088
:100E4800AFF0E3FFFE0E6F008FFFD9FFFF0E6F00BC
:100E58008FFFDAFFFD0EE350300FDF6E20D0FE0E5D
:100E68006F008CFF2BF0010E2B5EFE0E6000AFF0C2
:100E7800E3FFFF0E6F008CFF2BF0000E2B5AFF0EC6
:100E88006000AFF0E3FFFE0E6F008FFFD9FFFF0E8B
:100E98006F008FFFDAFFFC0E6F008FFFDFFFFB0E86
:100EA800E126FF0EE22212006F0EE66E120EE66ECB
:100EB800830EE66E3A0EE66EF80E6F008FFFE6FFC1
:100EC8006F008FFFE6FF6F008FFFE6FF6F008FFF59
:100ED800E6FF5BEC00F02BB018D06F0E336E120EED
:100EE800346E830E356E3A0E366EFC0E6000CFF00F
:100EF800E3FFFD0E6000D3F0E3FFFE0E6000D7F0C5
:100F0800E3FFFF0E6000DBF0E3FFFC0E6F008FFFD6
:100F1800E6FF6F008FFFE6FF6F008FFFE6FF6F00B1
:100F28008FFFE6FF000EE66E000EE66E200EE66E00
:100F3800410EE66E5BEC00F02BB018D0000E336E5D
:100F4800000E346E200E356E410E366EFC0E6000BB
:100F5800CFF0E3FFFD0E6000D3F0E3FFFE0E60006C
:100F6800D7F0E3FFFF0E6000DBF0E3FFF60EE66E5E
:100F7800090EE66E200EE66E3B0EE66EF80E6F006A
:100F88008FFFE6FF6F008FFFE6FF6F008FFFE6FF22
:100F98006F008FFFE6FF1CECC9F06000AFF0E6FFC2
:100FA8006000B3F0E6FF6000B7F0E6FF6000BBF05A
:100FB800E6FF83ECFDF0E552E552E552E5521200FA
:100FC800E652E652FE0EE36AFD0EE3AE09D0FC0ED1
:100FD800E36CFD0EE31ED8B0E32AFE0EE36AE32AB3
:100FE800FB0EE3AE06D0FA0EE36CFB0EE31ED8B0A0
:100FF800E32AFA0E6F008CFF2BF0FB0EE3502B1048
:10100800D8B453D0FF0EE36A12D0FA0EE350D8904A
:10101800E8342B6EFA0E6000AFF0E3FFFB0EE350EE
:10102800E8342B6EFB0E6000AFF0E3FFFF0EE32AFF
:10103800FB0EE3AEEAD7FA0E6F008CFF35F0FB0E1D
:101048006F008CFF36F0FC0E6F008CFF33F0FD0E46
:101058006F008CFF34F03550335C36503458D8A0CC
:1010680014D0FC0EE3502B6EFA0EE3502B5EFC0EF0
:101078006000AFF0E3FFFD0EE3502B6EFB0EE35074
:101088002B5AFD0E6000AFF0E3FFD890FB0EE33261
:10109800FA0EE332FF0EE3502B6E010E2B5EFF0EAD
:1010A8006000AFF0E3FFD8A4C6D7FE0EE350D8B473
:1010B80006D0FC0EE36CFD0EE31ED8B0E32AFC0E4E
:1010C8006F008CFF2BF0FD0E6F008CFF2CF0FA0EDA
:1010D800E126FF0EE2221200E652E652E652E652FE
:1010E8004FA010D0FA0E6F008FFFE6FF6F008FFF42
:1010F800E6FFF60E6F008FFFE6FF6F008FFFE6FF3B
:101108009EEC12F0F70EE3BE11D0F60E6F008CFFC6
:101118002BF0FC0E6000AFF0E3FFF70E6F008CFFC2
:101128002BF0FD0E6000AFF0E3FF04D0FC0EE36A85
:10113800FD0EE36AFE0EE36AFF0EE36A1ED0FA0EA6
:101148006F008FFFE6FF6F008FFFE6FF200EE66E51
:10115800000EE66EACEC05F0FE0EE350010F2B6EB0
:10116800FE0E6000AFF0E3FF2B6AFF0EE3502B206A
:101178002B6EFF0E6000AFF0E3FFE150FE0FD96E5B
:10118800E250DA6EFF0EDA22FC0EE350DE5CDE502F
:10119800800A2B6EFD0EE350800A2B58D8A0CFD7BB
:1011A8004FB010D0FA0E6F008FFFE6FF6F008FFF71
:1011B800E6FFF60E6F008FFFE6FF6F008FFFE6FF7A
:1011C8009EEC12F0F80E6F008FFFE6FF6F008FFFA6
:1011D800E6FF63EC11F0FC0EE3502B26FD0EE35006
:1011E8002C22F60EE126FF0EE2221200FB0EE3B6D9
:1011F80004D00101B851D8A411D0FC0E6F008CFFA7
:101208002BF0FD0E6F008CFF2CF0FE0E6F008CFF94
:101218002DF0FF0E6F008CFF2EF06CD0FB0EE3A0BC
:101228004AD0CD0EE66ECC0EE66E4C0EE66E3D0E46
:10123800E66EF80E6F008FFFE6FF6F008FFFE6FF88
:101248006F008FFFE6FF6F008FFFE6FF5BEC00F09B
:101258002BB031D0FC0E6F008FFFE6FF6F008FFFC1
:10126800E6FF6F008FFFE6FF6F008FFFE6FFCD0EF2
:10127800E66ECC0EE66E4C0EE66EBD0EE66E5BECD0
:1012880000F02BB018D0000E336E000E346E000E36
:10129800356E000E366EFC0E6000CFF0E3FFFD0EDB
:1012A8006000D3F0E3FFFE0E6000D7F0E3FFFF0E0F
:1012B8006000DBF0E3FFFB0EE3A29FD7FF0EE3AE77
:1012C8009CD7000E336E000E346E000E356E000E85
:1012D800366EFC0E6000CFF0E3FFFD0E6000D3F029
:1012E800E3FFFE0E6000D7F0E3FFFF0E6000DBF0C7
:1012F800E3FF83D7FB0EE126FF0EE2221200080E61
:10130800E126000EE222FE0E356EFF0E366EF50E59
:10131800E124336EFF0EE220346E3550332636500A
:101328003422FF0E6000D3F0E3FFFE0E6000CFF022
:10133800E3FFF50E6F008CFF35F0F60E6F008CFFA3
:1013480036F0F90E6000DBF0E3FFF80E6000D7F02E
:10135800E3FFFA0EE124D96EFF0EE220DA6E000EEA
:10136800DE6E000EDD6EFC0EE124D96EFF0EE2206B
:10137800DA6E000EDE6E000EDD6EFE0EE1242B6EC0
:10138800FF0EE2202C6E6000AFF0E6FF6000B3F0C5
:10139800E6FFF10E6F008FFFE6FF6F008FFFE6FF9D
:1013A800F40EE1242B6EFF0EE2202C6E6000AFF0ED
:1013B800E6FF6000B3F0E6FF64EC10F0FA0EE124FB
:1013C800D96EFF0EE220DA6E6F0078FF35F06F00FD
:1013D80074FF36F0F50E6F008CFF33F0F60E6F00D9
:1013E8008CFF34F035503324D96E36503420DA6E01
:1013F800000EDF6EF80EE126FF0EE222E552E750FE
:10140800E15E000EE25A1200E652FF0EE36A0101A5
:10141800B551D8B41BD0010EE66EFE0EE350E66E51
:10142800010EE66EFC0EE350E66E20ECC2F06000A2
:10143800AFF0E6FF6000B3F0E6FF6000B7F0E6FF4C
:101448006000BBF0E6FF3CECF7F03DD0FF0EE35048
:10145800D8B404D0FF0EE304D8A41BD0010EE66E66
:10146800FE0EE350E66E000EE66EFC0EE350E66EEE
:1014780020ECC2F06000AFF0E6FF6000B3F0E6FFDA
:101488006000B7F0E6FF6000BBF0E6FF3CECF7F069
:101498001AD0000EE66EFE0EE350E66E000EE66E03
:1014A800FC0EE350E66E20ECC2F06000AFF0E6FF01
:1014B8006000B3F0E6FF6000B7F0E6FF6000BBF045
:1014C800E6FF3CECF7F0FF0EE350040D810EF32429
:1014D800D96E0D0EF420DA6E6000AFF0DEFF60000A
:1014E800B3F0DEFF6000B7F0DEFF6000BBF0DEFFA8
:1014F800FF0EE32AFF0E6F008CFF2BF00F0E2B64FC
:1015080086D7E5521200FE0E6F008CFF35F0FF0EF5
:101518006F008CFF36F0020E3524D96E000E36208F
:10152800DA6EDF50366E6000D8F02FF0306A316A1C
:10153800326A6000C4F032F06000C0F031F0600040
:10154800BCF030F02F6AFE0E6F008CFF35F0FF0EF6
:101558006F008CFF36F0010E3524D96E000E362050
:10156800DA6EDF50366E6000D8F02BF02C6A2D6AE8
:101578002E6A6000B0F02EF06000ACF02DF02C6AFE
:101588002B6AFE0E6F008FFFD9FFFF0E6F008FFFD3
:10159800DAFFDF50336E346A356A366A6000CCF0A1
:1015A80036F0356A346A336A2B5033122C503412B1
:1015B8002D5035122E5036122F503312305034120F
:1015C8003150351232503612FE0E6F008CFF31F05A
:1015D800FF0E6F008CFF32F0030E3124D96E000E1F
:1015E8003220DA6EDF5033102B6E34502C6E3550AB
:1015F8002D6E36502E6EE552E5521200E652FE0E62
:101608006F008CFF2BF0050E2B6402D0FE0EE36AF0
:10161800FD0EE350D8B40CD0FE0EE350356E366A9A
:10162800E30E3524D96E010E3620DA6E000EDF6E19
:10163800FE0EE350140DB90E356EF70E366EF350EC
:101648003526F4503622FE0EE350336E346AE30E2C
:101658003324D96E010E3420DA6EDF503526000EA1
:1016680036226000D7F0F6FF6000DBF0F7FF000ECF
:10167800F86E0800FF0E6F00D7FFE3FFFE0EE35081
:10168800140DB90E356EF70E366EF3503526F4503C
:1016980036226000D7F0E6FF6000DBF0E6FF63EC7F
:1016A80011F0FE0EE350356E366AE30E3524D96E1E
:1016B800010E3620DA6EDF2ADF50356E366A2B507F
:1016C800355C2C503658D8A00CD0FE0EE350356E41
:1016D800366AE30E3524D96E010E3620DA6E000E16
:1016E800DF6EFF0E6F008CFF2BF0E552E552E552DE
:1016F8001200E652E652FE0EE36AFF0EE36A43D09A
:10170800D00E356EFF0E366EFE0E6F008CFF33F076
:10171800FF0E6F008CFF34F00A0E33026F00CCFF0F
:1017280031F06F00D0FF32F03402F3503226FC0E55
:101738006F008FFFD9FFFD0E6F008FFFDAFF6F007C
:101748007BFFF6FF6F0077FFF7FF000EF86E0800CB
:10175800F5503126000E32223550312636503222CD
:10176800FE0E6000C7F0E3FFFF0E6000CBF0E3FF62
:10177800FC0E6F008FFFD9FFFD0E6F008FFFDAFFA1
:10178800DE2A000EDD22D00E356EFF0E366EFC0E00
:101798006F008FFFD9FFFD0E6F008FFFDAFF6F001C
:1017A8007BFFF6FF6F0077FFF7FF000EF86E08006B
:1017B800F550336E346A355033263650342234505F
:1017C80004E10A0E335CD8A09BD7FE0E6F008CFF95
:1017D8002BF0FF0E6F008CFF2CF0E552E552E5521E
:1017E800E5521200E652E652E652E652FA0E6F0051
:1017F8008CFF35F0FB0E6F008CFF36F0D890353635
:101808003636D89035363636CD0E3524F66EF60E89
:101818003620F76EF86A000EF82209006F00D4FF30
:1018280033F009006F00D4FF34F009006F00D4FFD3
:1018380035F009006F00D4FF36F0FC0E6000CFF0E1
:10184800E3FFFD0E6000D3F0E3FFFE0E6000D7F06B
:10185800E3FFFF0E6000DBF0E3FFF80E6F008CFF84
:101868002BF0F90EE3502B10D8B41DD0FB0EE3BEBD
:101878001AD0FB0EE35008E1FA0E6F008CFF2BF034
:10188800020E2B5ED8A00FD0E150FC0FD96EE250AB
:10189800DA6EFF0EDA22800EDE26510EDE22010EEF
:1018A800DE22000EDE22FC0E6F008CFF2BF0FD0EF8
:1018B8006F008CFF2CF0FE0E6F008CFF2DF0FF0EDA
:1018C8006F008CFF2EF0F80EE126FF0EE2221200C8
:1018D8000000000000000000000000000000000000
:1018E80000000000000000000000000000000000F0
:1018F80000000000000000000000000000000000E0
:1019080000000000000000000000000000000000CF
:1019180000000000000000000000000000000000BF
:1019280000000000000000000000000000000000AF
:10193800000000000000000000000000000000009F
:10194800000000000000000000000000000000008F
:101958000094477D5E0000000000000000000000C9
:10196800000000000000000000000000000000006F
:10197800000000000000000000000000000000005F
:101988000000190000000000010000000000000035
:10199800000000000000000000000000000000003F
:1019A800000000000000000000000000010001002D
:0319B8000100002B
:1019BC00E652E652E652E652FC0EE36AFD0EE36A8C
:1019CC00FE0EE36AFF0EE36AF80EE3A028D0FC0ECD
:1019DC00E3502B6EF40EE3502B26FC0E6000AFF0A0
:1019EC00E3FFFD0EE3502B6EF50EE3502B22FD0EA4
:1019FC006000AFF0E3FFFE0EE3502B6EF60EE350EB
:101A0C002B22FE0E6000AFF0E3FFFF0EE3502B6EB7
:101A1C00F70EE3502B22FF0E6000AFF0E3FFD890DF
:101A2C00F40EE336F50EE336F60EE336F70EE33638
:101A3C00D890FB0EE332FA0EE332F90EE332F80ED5
:101A4C00E332F80EE350C0E1F90EE350BDE1FA0EBB
:101A5C00E350BAE1FB0EE350D8A4B6D7FC0E6F00EE
:101A6C008CFF2BF0FD0E6F008CFF2CF0FE0E6F0028
:101A7C008CFF2DF0FF0E6F008CFF2EF0F40EE12684
:101A8C00FF0EE2221200E652E652E652E652F80E41
:101A9C006F008CFF35F0F90E6F008CFF36F0FF0EE7
:101AAC006000DBF0E3FFFE0E6000D7F0E3FFFA0E00
:101ABC006F008CFF35F0FB0E6F008CFF36F0FD0EC7
:101ACC006000DBF0E3FFFC0E6000D7F0E3FFE150B9
:101ADC00FE0FD96EE250DA6EFF0EDA226F007CFF39
:101AEC0035F0010EDE266F007CFF36F0000EDD2295
:101AFC006000D7F0F6FF6000DBF0F7FF000EF86E29
:101B0C00E150FC0FD96EE250DA6EFF0EDA226F0054
:101B1C007CFF35F0010EDE266F007CFF36F0000EE8
:101B2C00DD226000D7F0D9FF6000DBF0DAFF1F0E7A
:101B3C00F76403D00800F55007D06F00DBFFE9FF16
:101B4C006F00DFFFEAFFEF50DF6EDF50D8A4BFD786
:101B5C00F80EE126FF0EE2221200400E0001666F25
:101B6C00040E676F60009BF1E6FF60009FF1E6FFDB
:101B7C00D9EC1EF03D01149F200E156F030E166F4D
:101B8C00040E196F020E1C6F830E146F148F300E1F
:101B9C00E66E570EE66E050EE66E000EE66E4DEC2A
:101BAC0019F0460EE66E60EC1BF0410EE66E80EC12
:101BBC001BF0500EE66E000EE66E000EE66E000E8A
:101BCC00E66E4DEC19F0530EE66E80EC1BF0020E37
:101BDC00E66E19EC20F0500EE66E000EE66E000E6E
:101BEC00E66E000EE66E4DEC19F0510EE66E60ECF2
:101BFC001BF03D01149F020E166F148F1A933F0EAB
:101C0C003B01FD17FD9BFD51F90B0209FD6FE70E22
:101C1C00FD17FD81400EF96F040EFA6F000EFB6F7D
:101C2C00FC9B3D011A831200E652E652E652E65244
:101C3C00010E356E000E366EFC0E6000D7F0E3FF21
:101C4C00FD0E6000DBF0E3FF60005CF336F0FF0E8E
:101C5C003626E150FC0FD96EE250DA6EFF0EDA2216
:101C6C00362803D0D890DE36DD36E82EFBD7FE0EB4
:101C7C00E36AFF0EE36A29D0FA0EE3A01CD0FC0E37
:101C8C006F008CFF35F0FD0E6F008CFF36F0FE0EF2
:101C9C006F008CFF2BF035502B12FE0E6000AFF056
:101CAC00E3FFFF0E6F008CFF2BF036502B12FF0E54
:101CBC006000AFF0E3FFD890FD0EE332FC0EE33290
:101CCC00D890FB0EE332FA0EE332FA0E6F008CFF63
:101CDC002BF0FB0EE3502B10D8A4CED7FE0E6F00CA
:101CEC008CFF2BF0FF0E6F008CFF2CF0FA0EE12610
:101CFC00FF0EE2221200AFEC21F0000EE66E600047
:101D0C009BF1E6FF60009FF1E6FF33EC13F0BC940F
:101D1C00FE0E6F008FFFE6FF6F008FFFE6FF63EC98
:101D2C0011F02C5004E1410E2B5CD8A010D0FE0E0B
:101D3C006F008CFF35F0FF0E6F008CFF36F0400EFD
:101D4C003524D96E000E3620DA6E000EDF6E3B01A4
:101D5C00FC9FFE0E6F008FFFE6FF6F008FFFE6FF0C
:101D6C0063EC11F06000AFF0F7FB6000B3F0F8FB30
:101D7C003B01FC8FFE0E6F008FFFE6FF6F008FFFA5
:101D8C00E6FFFC0EE66EFF0EE66E040EE66E5FECF2
:101D9C0018F0B2EC21F0FE0E6F008FFFE6FF6F0023
:101DAC008FFFE6FF63EC11F02B500101D2272C5072
:101DBC00D323000ED423000ED523E552E552120096
:101DCC00E652FF0EE36AFE0EE350D8B40CD00101CC
:101DDC00BB51D8B452D05F50D8B44FD05F6AFF0E0D
:101DEC00E36AE32A4AD00101BB51D8A446D05F5024
:101DFC00D8A443D0BB6B010E5F6E000EE66E000ED6
:101E0C00E66EF1EC18F0E5526F009CFF42F0E552E3
:101E1C006F009CFF41F0E5526F009CFF40F0E552D3
:101E2C006F009CFF3FF0E5526F009CFF3EF0E552C7
:101E3C006F009CFF3DF0E5526F009CFF3CF0E552BB
:101E4C006F009CFF3BF06000ECF033F06000F0F0B2
:101E5C0034F06000F4F035F06000F8F036F0580E15
:101E6C0033240101856F020E3420866F000E35205D
:101E7C00876F000E3620886FB2D7FF0E6F008CFF75
:101E8C002BF0E552E5521200E150FC0FD96EE250F6
:101E9C00DA6EFF0EDA22000EDE14336E000EDE1444
:101EAC00346E800EDE14356E7F0EDE14366E3350BB
:101EBC00341035103610D8A408D0FC0EE36AFD0E91
:101ECC00E36AFE0EE36AFF0EE36AE150F80FD96E87
:101EDC00E250DA6EFF0EDA22000EDE14336E000EC4
:101EEC00DE14346E800EDE14356E7F0EDE14366E0C
:101EFC003350341035103610D8A408D0F80EE36ADD
:101F0C00F90EE36AFA0EE36AFB0EE36AE150FC0F8A
:101F1C00D96EE250DA6EFF0EDA22F80EE350DE18BC
:101F2C000DE1F90EE350DE1809E1FA0EE350DE186C
:101F3C0005E1FB0EE350DE18D8B402D02B9001D093
:101F4C002B80F80EE126FF0EE2221200E652E6523A
:101F5C00E652FD0EE36AFE0EE36AFF0EE36AFF0E25
:101F6C00E350080DFD0EF324F66EF50EF420F76E1B
:101F7C00F86A000EF822F90EE3500900F55CFA0E2F
:101F8C00E3500900F558FB0EE3500900F558FC0E20
:101F9C00E3500900F558D8B020D0FF0EE350080DDF
:101FAC00040EF326000EF422FD0EF324F66EF50E4D
:101FBC00F420F76EF86A000EF82209006F00D4FFC7
:101FCC0035F009006F00D4FF36F0FD0E6000D7F03D
:101FDC00E3FFFE0E6000DBF0E3FFFF0EE32AFF0ED3
:101FEC006F008CFF2BF0190E2B64B9D7FD0E6F0010
:101FFC008CFF2BF0FE0E6F008CFF2CF0F90EE126FF
:10200C00FF0EE22212003D0117ABFDD7BC84BC8051
:10201C00010EE66E9CEC15F027C22BF220EE27F297
:10202C006F0078FF35F06F0074FF36F06000D8F069
:10203C0035F0366A0F0E351602012C513518F00B9F
:10204C0035182C6F2C510F0B40092C6FBF902C5155
:10205C00E66E6CEC1EF002012B51E66E6CEC1EF081
:10206C00BF8029C22BF220EE29F26F0078FF35F0E9
:10207C006F0074FF36F06000D8F035F0366A0F0E42
:10208C00351602012C513518F00B35182C6F2C51CC
:10209C000F0B50092C6FBF902C51E66E6CEC1EF0A0
:1020AC0002012B51E66E6CEC1EF03D0117ABFDD717
:1020BC00BF80000EE66E9CEC15F01200E652E65264
:1020CC00FA0E6F008CFF35F0FB0E6F008CFF36F0B4
:1020DC00FF0E6000DBF0E3FFFE0E6000D7F0E3FFC5
:1020EC000001B26BB36B21D0F80E6F008FFFE6FFCF
:1020FC006F008FFFE6FFFC0EE1242B6EFF0EE2203B
:10210C002C6E6000AFF0E6FF6000B3F0E6FFF80E57
:10211C006F008FFFE6FF6F008FFFE6FF21EC9EF054
:10212C002B500001B2272C50B323E150FE0FD96E77
:10213C00E250DA6EFF0EDA226F007BFFF6FF6F00C3
:10214C0077FFF7FF000EF86E0800F5500009D8A4D1
:10215C00CBD76000C8F22BF06000CCF22CF0F80E5C
:10216C00E126FF0EE2221200FE0E6F008CFF35F00E
:10217C00FF0E6F008CFF36F0420E3524D96E000E28
:10218C003620DA6E400EDF6040D0FE0E6F008CFF02
:10219C0035F0FF0E6F008CFF36F0400E3524D96EF3
:1021AC00000E3620DA6EDF50366EFE0E6F008CFF9E
:1021BC0033F0FF0E6F008CFF34F036503324D96EA1
:1021CC00000E3420DA6EFD0E6F008FFFDFFFFE0E67
:1021DC006F008CFF35F0FF0E6F008CFF36F0400E59
:1021EC003524D96E000E3620DA6EDF2AFE0E6F0013
:1021FC008CFF35F0FF0E6F008CFF36F0420E35244D
:10220C00D96E000E3620DA6EDF2AE552E552E55221
:10221C001200286E756C6C29000000000000000094
:10222C0000000000000000000000000000000000A2
:10223C000000000000000000000000000000006230
:10224C000FA40F9B0FA089B03DA4DE133DA4DE1399
:10225C003D00000000000000000000000000000035
:10226C000000000000000000000000000000000062
:10227C000000000000000000000000000000000052
:10228C000000000000000000000000000000000042
:10229C000000000000000000000000000000000032
:1022AC000000000000000000000000000000000022
:1022BC0000000000000000571942E652E652FC0EE6
:1022CC006F008CFF35F0FD0E6F008CFF36F0FF0EAB
:1022DC006000DBF0E3FFFE0E6000D7F0E3FF11D0EF
:1022EC00FC0EE350010F2B6EFC0E6000AFF0E3FF11
:1022FC002B6AFD0EE3502B202B6EFD0E6000AFF011
:10230C00E3FFFC0E6F008FFFF6FFFD0E6F008FFFDB
:10231C00F7FF000EF86E1F0EF76403D00800F5509F
:10232C0007D06F00DBFFE9FF6F00DFFFEAFFEF5024
:10233C000009D8A4D5D7FC0E6F008CFF2BF0FD0E36
:10234C006F008CFF2CF0FE0EE3502B5EFF0EE35063
:10235C002C5AE552E552E552E5521200E652FF0EB8
:10236C00E36AFF0EE350020D600EF324D96E030EE8
:10237C00F420DA6EDE50DE10D8B40CD0FF0EE35031
:10238C00020D600EF324D96E030EF420DA6EDE0615
:10239C00000EDD5AFF0EE32AFF0E6F008CFF2BF0B0
:1023AC000C0E2B64DED7A5EC21F02B50D8B424D026
:1023BC005EEC1CF0FF0E6000AFF0E3FFFF0E6F0051
:1023CC008CFF2BF0230E2B18D8A402D001018E8188
:1023DC00FF0E6F008CFF2BF0560E2B18D8A402D0DA
:1023EC0001018E83FF0E6F008CFF2BF0760E2B18E5
:1023FC00D8A402D001018E85E5521200E652E652B5
:10240C00FF0EE36AE386FE0EE36AFD0E6F008CFF9F
:10241C0036F0FE0E6F008CFF35F0D8903634353424
:10242C00366EFE0E6000DBF0E3FFE150FD0FD96E5F
:10243C00E250DA6EFF0EDA22D890DF36E150FE0F52
:10244C00D96EE250DA6EFF0EDA22FC0EE350DE5C3F
:10245C00D8A00DD0FC0E6F008CFF36F0E150FE0FB3
:10246C00D96EE250DA6EFF0EDA223650DF5EFF0EC6
:10247C00E3502B6E010E2B5EFF0E6000AFF0E3FFFE
:10248C00D8A4C3D7FE0E6F008CFF2BF0E552E5529B
:10249C00E552E5521200A00EE66E0F0EE66E640ECB
:1024AC00E66E000EE66EF90E6F008FFFE6FF6F0012
:1024BC008FFFE6FF1EEC15F02B50D8A402D0000EB7
:1024CC0019D0A00EE66E0F0EE66E640EE66E000ED0
:1024DC00E66EF70E6F008FFFE6FF6F008FFFE6FFD3
:1024EC001EEC15F02B50D8B4EAD7FF0EE350D8A44D
:1024FC0003D0010E2B6E17D0FD0E6F008CFF2DF24A
:10250C00FE0E6F008CFF2EF2FB0E6F008CFF2FF275
:10251C00FC0E6F008CFF30F20F0E0201326F9B0E1F
:10252C00316FA485E6D7FB0EE126FF0EE2221200E6
:10253C00E652E652E652FD0EE36AFE0EE36A1FD047
:10254C00F90E6F008FFFE6FF6F008FFFE6FFFD0EA9
:10255C00E350E66E000EE66EACEC05F0FD0EE350BB
:10256C00010F2B6EFD0E6000AFF0E3FF2B6AFE0E29
:10257C00E3502B202B6EFE0E6000AFF0E3FFFD0E40
:10258C006F008CFF35F0FE0E6F008CFF36F0FB0EEB
:10259C006F008CFF33F0FC0E6F008CFF34F0355065
:1025AC003324D96E36503420DA6EDF50366EFF0E7F
:1025BC006000DBF0E3FFFF0EE350D8A4C1D7F90EA7
:1025CC00E126FF0EE2221200E65213D0FF0EE36A60
:1025DC00E38C25D0FF0EE36AE384E38820D0540E0D
:1025EC00366EFF0E6000DBF0E3FF19D0FF0EE36ADE
:1025FC0016D0FE0EE350356E366A3650000AD8A45B
:10260C00E5D73550000AD8B4E1D7010AD8B4E2D7DF
:10261C00030AD8B4E4D7010AD8B4E8D7D7D7450E03
:10262C00E66E61EC20F0FD0E6F008CFF36F0FF0EB5
:10263C00E3503624E66EA7EC19F04CEC21F0FB0EBF
:10264C006F008FFFE6FF6F008FFFE6FF81EC0EF04F
:10265C00FB0EE126FF0EE2221200FE0E6F008CFF35
:10266C0035F0FF0E6F008CFF36F0420E3524D96E1C
:10267C00000E3620DA6E000EDF6EFE0E6F008CFF41
:10268C0035F0FF0E6F008CFF36F0400E3524D96EFE
:10269C00000E3620DA6E000EDF6EFE0E6F008CFF21
:1026AC0035F0FF0E6F008CFF36F0410E3524D96EDD
:1026BC00000E3620DA6E000EDF6EFD0EE350D8B43D
:1026CC0011D0400EE66E000EE66E000EE66E000EA9
:1026DC00E66EFA0E6F008FFFE6FF6F008FFFE6FFCE
:1026EC00B8ECE2F0E552E552E5521200070EBE6E70
:1026FC00BD6ABA6A230EBF6EBB6A070EBC6EC66A91
:10270C000C0EC76EC268BF0EC36E900EC46E0C0E5C
:10271C00C56E3A01706B606B3C0E506F806B906BAA
:10272C0040690C0E716F0C0E916F816B830E516FA3
:10273C00416B970E616F826B926B426B526B626B4B
:10274C00726B4369536963697369070E836F93698D
:10275C000F0EE86F130EDE6F160E0E6F1E0E136F3C
:10276C00080EC06F100E196F090EC16F1F0E156F7A
:10277C00130E166F170EE56F140EDF6F1200E65274
:10278C00E652E652E652800E3901686F070E696F09
:10279C00626B636B7C6B786B776B766B3F0E7B6FCE
:1027AC007A6979697D6BD50E356E000E366EFE0E2C
:1027BC006000D7F0E3FFFF0E6000DBF0E3FFFF0EDD
:1027CC00E124D96EFF0EE220DA6EDF50676FD50E72
:1027DC00666FFC0EE36AFD0EE36AFD0EE124D96E12
:1027EC00FF0EE220DA6EDF50636F626B69390F0BFC
:1027FC00366E36280001D66F390169510F0B366ED3
:10280C0036280001D76FE552E552E552E552120029
:10281C003E01E6516F009CFB2BF02C6A6000ACF083
:10282C002CF02B6A2B26000E2C2202013F51020D9C
:10283C00070EF324D96E020EF420DA6E6000AFF0AE
:10284C00DEFF6000B3F0DDFF02013F2B0D0E3F6594
:10285C0003D0010E426F12006000FCF836F020EE3F
:10286C0040F26F0078FF33F06F0074FF34F0362ABB
:10287C0003D0D89034323332362EFBD733A0E4D782
:10288C0091EC21F002013F510F0BE66E14EC21F09C
:10289C00010E0101CE27000ECF23D023D12312002D
:1028AC00E652E6524B504C10D8A409D0FE0E6000F4
:1028BC002FF1E3FFFF0E600033F1E3FF16D0FF0EA4
:1028CC00356EFF0E366E60002CF133F0600030F187
:1028DC0034F03550332636503422FE0E6000CFF0E3
:1028EC00E3FFFF0E6000D3F0E3FFFB0E6F008CFFE5
:1028FC007AF303017B6BFE0E6F008FFFE6FF6F0018
:10290C008FFFE6FF7A0EE66E030EE66EF80E6F0092
:10291C008FFFE6FF6F008FFFE6FF70EC08F0FB0EF9
:10292C00E126FF0EE2221200E652E652FC0EE350C4
:10293C009F0F356EFD0E6F008CFF36F0FF0E3622AA
:10294C00365006E11A0E355CD8B002D0010E01D01B
:10295C00000E356E366AFE0E6000D7F0E3FFFF0EF8
:10296C006000DBF0E3FFFE0E6F008CFF2BF0FF0E20
:10297C00E3502B10D8B40DD0FC0E6F008CFF2BF055
:10298C00FD0E6F008CFF2CF05F0E2B16000E2C161C
:10299C0008D0FC0E6F008CFF2BF0FD0E6F008CFF2F
:1029AC002CF0E552E552E552E5521200E652E652A1
:1029BC00FC0EE350BF0F356EFD0E6F008CFF36F032
:1029CC00FF0E3622365006E11A0E355CD8B002D016
:1029DC00010E01D0000E356E366AFE0E6000D7F087
:1029EC00E3FFFF0E6000DBF0E3FFFE0E6F008CFFD9
:1029FC002BF0FF0EE3502B10D8B40DD0FC0E6F0053
:102A0C008CFF2BF0FD0E6F008CFF2CF0200E2B1288
:102A1C00000E2C1208D0FC0E6F008CFF2BF0FD0E5C
:102A2C006F008CFF2CF0E552E552E552E552120096
:102A3C00FA0E6F008CFF35F0FB0E6F008CFF36F03A
:102A4C00FC0EE3503526FD0EE3503622FE0EE3500D
:102A5C00355C3650800A2B6EFF0EE350800A2B58E3
:102A6C00D8B002D0000E1ED0FA0E6F008CFF35F0DD
:102A7C00FB0E6F008CFF36F0FC0EE350355EFD0E46
:102A8C00E350365AFE0E6F008CFF2BF035502B5C4A
:102A9C00FF0EE350800A2B6E3650800A2B58D8A0BC
:102AAC00E1D7010E2B6EFA0EE126FF0EE222120088
:102ABC00FD0E6F008CFF2BF0FE0EE3502B10D8A4F4
:102ACC0002D0000E1AD0FF0EE350D8B418D0020179
:102ADC00A4A1F7D720EE43F2FD0E6F008FFFE9FFA4
:102AEC00FE0E6F008FFFEAFF600E6F006FFFEBFFB3
:102AFC00E806FBE2A4A3E5D7010E2B6E13D0FD0E66
:102B0C006F008FFFD9FFFE0E6F008FFFDAFF00EE14
:102B1C0043F2600E6F006FFFEBFFE806FBE2020171
:102B2C00A481CFD7E552E552E5521200FF0EE350D7
:102B3C00D8B422D03D01149F5750D8A411D0010E07
:102B4C00576E6F0050F456F06F0054F455F06F0050
:102B5C0058F454F06F0070F453F06F0064F4C1F04B
:102B6C00156B158D159B159F030E166F0F0E196F98
:102B7C001C6B830E146F14D05750D8B412D03D0177
:102B8C00149F600057F115FD600053F116FD6000B5
:102B9C004FF11CFD600007F319FD60005BF114FDA3
:102BAC00148FE5521200FA0E6F008FFFE6FF6F00D4
:102BBC008FFFE6FF6F008FFFE6FF6F008FFFE6FFD2
:102BCC00FA0E6F008FFFD9FFFB0E6F008FFFDAFF3D
:102BDC006F007BFFE6FF6F007BFFE6FF6F007BFF64
:102BEC00E6FF6F007BFFE6FF42ECBEF0FE0E6F00CF
:102BFC008FFFD9FFFF0E6F008FFFDAFF6000AFF081
:102C0C00DEFF6000B3F0DEFF6000B7F0DEFF6000B7
:102C1C00BBF0DEFFFA0EE126FF0EE2221200FE0EE2
:102C2C00E304FF0E6F008CFF2BF0040E2B5AD8A080
:102C3C000CD0000E356E040E366EFE0E6000D7F012
:102C4C00E3FFFF0E6000DBF0E3FF3B01DC9FFE0EB9
:102C5C006F008FFFD7FBFF0E6F008FFFD8FB000EAE
:102C6C00CF6F010ECE6FDC8FDC8DFE0E6F008CFFF4
:102C7C0035F0FF0E6F008CFF36F035500101C62782
:102C8C003650C723000EC823000EC923E552E55267
:102C9C001200FE0E6F008CFF35F0FF0E6F008CFFE4
:102CAC0036F0040E3524D96E000E3620DA6EDF5065
:102CBC00D8A423D0FE0E6F008CFF35F0FF0E6F00F2
:102CCC008CFF36F0050E3524D96E000E3620DA6EE8
:102CDC00DF50D8A412D0FE0E6F008CFF35F0FF0E23
:102CEC006F008CFF36F0040E3524D96E000E3620A2
:102CFC00DA6E010EDF6E010E01D0000E2B6EE55266
:102D0C00E552120021EE00F100EE07F2A00E6F006A
:102D1C007BFFEEFFE806FBE2A10ED95EE95E020145
:102D2C00A4B50CD00F0E2E6F620E2D6F0F0E306FE0
:102D3C00A40E2F6F0F0E326F9B0E316FA4B71200C3
:102D4C00A00E336F890E346FB00E356F3D0E366F9B
:102D5C00A40E376FDE0E386F130E396F3D0E3A6FBF
:102D6C00A40E3B6FDE0E3C6F130E3D6F3D0E3E6F9F
:102D7C001200000E3B01F96F100EFA6F000EFB6F84
:102D8C003D0EF16F110EF06F030EFD6F000EF86F1C
:102D9C00010EF76F000EEF6F010EEE6F150EFF6F49
:102DAC00FE6B3901A293A291A297A2959283928174
:102DBC0092879285F16B010EF26F040EF36F020E87
:102DCC00F46F030EF76FD29E3901550EEF6FAA0EFA
:102DDC00EF6FEF81D28E3B01FC6B12003E01DE6B7C
:102DEC00DF6BE06BE16BE46BE56BEA6B400EEC6F59
:102DFC00F16BF36B010EF46FF56BF66BF76BF96B14
:102E0C005B0EFA6F270EFB6FFC6B020EFD6FFE6BF9
:102E1C003F0EFF6F840EF86F3901A1959185880ED6
:102E2C00E66E430EE66E000EE66EB5EC1FF0390151
:102E3C00A1979187880EE66E430EE66E000EE66E45
:062E4C00A1EC1FF01200D2
:102E54006000ACF001F06000B0F002F06000CCF073
:102E640003F06000D0F004F06000D8F005F015EE37
:102E74008AF03901A197000199519A119B11D8B494
:102E84000CD001D80AD00500FA6E9951FD6E9A5102
:102E9400FE6E9B51FF6EFA501200600014F036F083
:102EA400600010F034F060000CF033F0600008F0C3
:102EB4002CF0600004F02BF01100E652D2AE03D0E7
:102EC400366A362A01D0366AFF0E6000DBF0E3FF73
:102ED400FE0EE124D96EFF0EE220DA6EDF50030B02
:102EE4003901E16FFD0E6F008FFFE0F9FC0E6F00FA
:102EF4008FFFE3F93F0EE517E585D29E550EE66F89
:102F0400AA0EE66FE583E5B3FED7E595FF0EE3B0C1
:102F140002D0D29E01D0D28EE552E552E552E5525E
:102F2400120002014251D8A412003F6B3A014051F1
:102F34006E0040F92BF02C6A6000ACF02CF02B6A88
:102F44002B26000E2C22770E2B140201406F3C0E10
:102F54002C14416F8A0EE66E430EE66E000EE66E8A
:102F6400B5EC1FF01C0EE66E280EE66E000EE66E43
:102F7400A1EC1FF091EC21F002013F510F0BE66E22
:102F840014EC21F0390191951200FE0E6F008CFFB4
:102F940035F0FF0E6F008CFF36F0030E3524D96E2A
:102FA400000E3620DA6E000EDF6EFE0E6F008CFF10
:102FB40035F0FF0E6F008CFF36F0050E3524D96E08
:102FC400000E3620DA6E000EDF6EFE0E6F008CFFF0
:102FD40035F0FF0E6F008CFF36F0070E3524D96EE6
:102FE400000E3620DA6E000EDF6EE552E552120056
:102FF400E652D28AD2AE03D0366A362A01D0366A75
:10300400FF0E6000DBF0E3FFD29E550ED46EAA0ED5
:10301400D46ED49038019F6B9E6B080E9D6F550E35
:10302400D46EAA0ED46ED480FF0EE3B002D0D29E2A
:1030340001D0D28E390182878283828182858687FC
:1030440086858387818185918981889D8185818712
:10305400869DE5521200FE0E6F008CFF2BF0020ECF
:103064002B180DE1FF0EE350D8A409D0FC0EE35059
:103074001C0F2B6EFD0E6F008CFF2CF017D0FF0E73
:10308400366EFE0EE3503624356ED50E2B6E0A0EC8
:103094002C6E352A03D02C342C322B32352EFBD710
:1030A400010E2B16000E2C161E0E2B26000E2C22A3
:1030B400E552E552E552E5521200E652E652FB0EA5
:1030C400E124356EFF0EE220366EFF0E6000DBF069
:1030D400E3FFFE0E6000D7F0E3FFFE0EE1242B6E4B
:1030E400FF0EE2202C6E6000AFF0E6FF6000B3F04C
:1030F400E6FFF90E6F008FFFE6FF6F008FFFE6FF1C
:10310400000EE66E000EE66E64EC10F0E552E55239
:10311400E552E750E15E000EE25A1200E652E65232
:10312400E652E652FF0E336EFF0E346EFF0E356E1E
:103134007F0E366EFC0E6000CFF0E3FFFD0E6000E4
:10314400D3F0E3FFFE0E6000D7F0E3FFFF0E600054
:10315400DBF0E3FFFC0E6F008CFF2BF0FD0E6F0025
:103164008CFF2CF0FE0E6F008CFF2DF0FF0E6F0015
:103174008CFF2EF0FA0EE126FF0EE2221200390136
:103184009695040EE66E410EE66E000EE66E15ECA4
:103194001FF0390196975C0EE66E3D0EE66E000E4A
:1031A400E66E01EC1FF03D01D46BD66BD86BB00E0C
:1031B400DA6F800EDB6FDC6B820EDD6F060EDE6F66
:1031C400DF6BE06BE16BE26B0001C56B5B6A400E89
:1031D4005A6E596AC46BC36B390196851200060E88
:1031E400E126000EE2223901989D0101815100017E
:1031F400C66F010182510001C76F010183510001B3
:10320400C86F010184510001C96FCA6BCB6BCC6BD1
:10321400CD6B3901988DF80E6F008CFF2BF0F90EF1
:10322400E3502B1020EEC6F0080E2B6EF80E6F0044
:103234007BFFE3FFE8282B2EFAD71200780E6F00ED
:10324400A0FF41FE000E6F00A0FF42FE640E6F005F
:10325400A0FF43FE000E6F00A0FF44FE23EE19F210
:103264006F0078FF1DFE6F0078FF1EFE6F0078FF71
:103274001FFE6F0074FF20FE23EE1DF26F0078FF27
:1032840029FE6F0078FF2AFE6F0078FF2BFE6F0087
:1032940074FF2CFE120000018C6B8D6B8E6B8F6B98
:1032A40000F00400010E00018C27000E8D238E23F4
:1032B4008F23FC0E6F008CFF2BF08C512B5CFD0ECA
:1032C4006F008CFF2BF08D512B58FE0E6F008CFF7E
:1032D4002BF08E512B58FF0E6F008CFF2BF08F516B
:1032E4002B58D8B0DDD7E552E552E552E55212002D
:1032F400000E3B01D96F100EDA6F000EDB6F3F0E2C
:10330400D16FBB0ED06F030EDD6F000ED86F010EB0
:10331400D76F000ECF6F010ECE6F1C0EDF6F3D0E08
:10332400DE6F3901A597A595A59BA59995979595C8
:10333400959B9599D29E3901550EEF6FAA0EEF6FAA
:10334400EF81D28E3B01DC6B1200AFEC21F0000E5A
:10335400E66E60009BF1E6FF60009FF1E6FF33EC50
:1033640013F0BC943B01FC9F000EF86F010EF76F45
:10337400FC8FFF0EE350E66E60009BF1E6FF6000F9
:103384009FF1E6FFBAEC10F0B2EC21F0010E01015E
:10339400D227000ED323D423D523E5521200E652BC
:1033A400FF0EE36AE32AFD0E6F008CFF2BF0200E64
:1033B4002B1804E1FE0EE350D8B412D0FD0EE350F6
:1033C400F70F356EFE0E6F008CFF36F0FF0E3622BF
:1033D400365004E1050E355CD8A002D0FF0EE36A36
:1033E400FF0EE3502B6E2C6AE552E552E5521200B3
:1033F400FF0E6F008CFF2BF0050E2B6401D01DD047
:10340400FF0EE350050DA90EF324D96E020EF4202D
:10341400DA6EDE6ADE6ADE6ADD6AFF0E6F008CFF3A
:1034240036F0010E356E362A02D0D8903536362E57
:10343400FCD73550FF0A0201D017E5521200FAEC0E
:1034440017F001EC21F07CEC13F0F6EC20F0A1EC89
:1034540021F0C5EC13F0F4EC16F0C9EC20F0EBEC21
:1034640020F0ABEC1DF0C4EC1EF090EC1AF06CEC08
:103474001AF0FAEC1AF0C1EC18F0E0EC20F07AEC57
:1034840019F0BFEC16F071EC21F01200FC0EE350C1
:103494000AE1FD0EE35007E1FE0EE35004E1FF0EE6
:1034A400E350D8B402D0FF0EE37EFC0E6F008CFF15
:1034B4002BF0FD0E6F008CFF2CF0FE0E6F008CFFC6
:1034C4002DF0FF0E6F008CFF2EF0E552E552E55211
:1034D400E55212009B6A9C6A010E9D6E630E996E02
:1034E400C00E986E98506F0064FE2BF02C6A60003A
:1034F400ACF02CF02B6A2B100001BE6F2C50BF6F68
:103504003901A89D988D360EE66E390EE66E000ED2
:10351400E66E51EC1FF0110E9A6E1200A76AA86AAB
:10352400010EA96E630EA56EC00EA46EA4506F00AA
:1035340094FE2BF02C6A6000ACF02CF02B6A2B105C
:103544000001BA6F2C50BB6F3901A69D968D840E75
:10355400E66E430EE66E000EE66E65EC1FF0110E8D
:10356400A66E1200FF0EE3BE07D0FF0EE35012E179
:10357400FE0EE304D8B00ED0FE0E6F008CFF2BF0CD
:103584002B1EFF0E6F008CFF2CF02C1E2B2AD8B4A0
:103594002C2A08D0FE0E6F008CFF2BF0FF0E6F005C
:1035A4008CFF2CF0E552E5521200FB0EE37EF80E80
:1035B4006F008FFFE6FF6F008FFFE6FF6F008FFF46
:1035C400E6FF6F008FFFE6FFF80E6F008FFFE6FF48
:1035D4006F008FFFE6FF6F008FFFE6FF6F008FFF26
:1035E400E6FF42ECBEF0F80EE126FF0EE2221200E6
:1035F40039019397AA0EE66E3C0EE66E000EE66E57
:1036040029EC1FF03D01EC6BED6BEE6BEF6BF06B97
:10361400F16BB00EF26F800EF36FF46B8A0EF56FE0
:10362400F66BF76BF86BF96BFA6B5E6A5D6A5C6A52
:103634003901938712009F0E356EFF0E366EFE0E13
:103644006F008CFF33F0FF0E6F008CFF34F0200E00
:103654003312000E3412355033263650342234508F
:1036640006E11A0E335CD8B002D0010E01D0000E70
:103674002B6E2C6AE552E5521200FE0E6F008CFF91
:1036840035F0FF0E6F008CFF36F0D89036323532AD
:10369400D890363235323550616EFE0E6F008CFF95
:1036A40036F0030E3616060E2B6ED89036362B2EB9
:1036B400FCD73650606EE552E5521200BC94FE0E03
:1036C400E66E6CEC1EF0080EE66E000EE66E000E62
:1036D400E66E000EE66E4DEC19F0FF0EE350E66E5A
:1036E4006CEC1EF0200EE66E030EE66E000EE66E27
:1036F400000EE66E4DEC19F0E5521200BC94FE0E7D
:10370400E66E6CEC1EF0080EE66E000EE66E000E21
:10371400E66E000EE66E4DEC19F0FF0EE350E66E19
:103724006CEC1EF0080EE66E000EE66E000EE66E01
:10373400000EE66E4DEC19F0E5521200FD0E6F001E
:103744008CFF35F0FE0E6F008CFF36F0D8903534C8
:10375400336E3634346EFF0EE350020D600EF324E4
:10376400D96E030EF420DA6E6000CFF0DEFF600045
:10377400D3F0DDFFE552E552E55212009AA40FD0D2
:103784009A90FF0EE124D96EFF0EE220DA6EDF502C
:10379400996EFE0E6F008FFF98FF9A800CD0FF0E7B
:1037A400E124D96EFF0EE220DA6EDF50996EFE0E30
:1037B4006F008FFF98FFE552E5521200BEA402D0BD
:1037C400010E01D0000EFF0A366E36463646BE5054
:1037D4003618FB0B3618BE6E0001935194119511E7
:1037E400D8B4120001D812000500FA6E9351FD6E90
:1037F4009451FE6E9551FF6EFA501200A6A40FD09C
:10380400A690FF0EE124D96EFF0EE220DA6EDF509F
:10381400A56EFE0E6F008FFFA4FFA6800CD0FF0ED6
:10382400E124D96EFF0EE220DA6EDF50A56EFE0EA3
:103834006F008FFFA4FFE552E55212006F0060FF96
:1038440008F06000ACF009F06000D4F00AF0600009
:10385400D8F00BF016EE45F23901A5912BEC20F0CF
:1038640060002CF036F0600028F035F0600024F0A1
:103874002BF0600023F0D8FF1100BEA202D0010E8D
:1038840001D0000EFF0A366E3646BE503618FD0BC8
:103894003618BE6E0001905191119211D8B41200E5
:1038A40001D812000500FA6E9051FD6E9151FE6E22
:1038B4009251FF6EFA501200E6525C50D8B4FDD714
:1038C400D10E5D24D96EDA6A020EDA22DF50366E2A
:1038D400FF0E6000DBF0E3FF5D2A070E5D6401D09C
:1038E4005D6A390193975C069387FF0E6F008CFF26
:1038F4002BF0E5521200F40E6F008CFF2BF0F50E46
:10390400E3502B10D8B40CD0F40E6F008FFFD9FF06
:10391400F50E6F008FFFDAFF000EDE6E000EDD6E17
:10392400000E2B6E000E2C6EF40EE126FF0EE2222A
:103934001200BEA002D0010E01D0000EFF0A366EA6
:10394400BE503618FE0B3618BE6E010E0101C2279A
:10395400000EC323C423C523010E8127000E822336
:103964008323842364ECCEF00101B26B12000201C4
:103974004251D8B41200ACEC21F093EC17F0C80E0D
:10398400E66E000EE66E010EE66EA0EC1BF0010E74
:10399400E66EEDEC1EF02B50D8A412008DEC21F055
:1039A4002B50D8A41200F3D7CBB00CD00101A385BF
:1039B400080EE66EEDEC1EF02B50D8B403D0010EC9
:1039C4002B6E12000101A3B508D02C0EE66E010E79
:1039D400E66E080EE66EA0EC1BF0000E2B6E1200D5
:1039E4003901989DE150F80FD96EE250DA6EFF0E5E
:1039F400DA226F0078FF81F16F0078FF82F16F00A7
:103A040078FF83F16F0078FF84F1988DF80EE1263A
:103A1400FF0EE2221200FF0E6F008CFF2BF0050E4A
:103A24002B6403D0000E2B6E0FD0FF0E6F008CFFA3
:103A340036F0600040FB2BF0362A02D0D8902B32AF
:103A4400362EFCD7010E2B16E5521200FE0E6F0027
:103A54008FFFE6FF6F008FFFE6FF000EE66EA0EC1F
:103A64001BF005D000F000F000F000F00400000EA0
:103A7400E66EEDEC1EF02B50D8B4F4D7E552E552C7
:103A84001200FE0EE350FF0F356EFF0E6F008CFF29
:103A940036F0FF0E36226000D4F0EDF26000D8F06C
:103AA400EEF20201EF6BF06BF16BF26BF36BF46B04
:103AB400E552E5521200FC0E6F008FFFE6FF6F0027
:103AC4008FFFE6FF6F008FFFE6FF6F008FFFE6FFBB
:103AD40058EC07F06000ACF029F26000B0F02AF274
:103AE400E552E552E552E5521200FC0E6F008FFFDD
:103AF400E6FF6F008FFFE6FF6F008FFFE6FF6F00AA
:103B04008FFFE6FF58EC07F06000ACF027F260008E
:103B1400B0F028F2E552E552E552E55212003901BF
:103B24009197FF0EE350020D070EF324D96E020E97
:103B3400F420DA6E6F0078FFB4F06F0074FFB5F014
:103B440091876000D0F22BF06000D4F22CF0E552A3
:103B540012003901A191D290860EE66E430EE66EF4
:103B6400000EE66E8DEC1FF039019181A591D29281
:103B7400820EE66E430EE66E000EE66E79EC1FF0E2
:103B8400390195811200FF0EE124D96EFF0EE22067
:103B9400DA6EDF50030B3901E16FFE0E6F008FFF09
:103BA400E0F93F0EE517E58100F000F06E008CF7B8
:103BB4002BF0E552E55212003F0E3B01DD17DD9B71
:103BC400DD51F90B0209DD6FE70EDD17DD81DC9DA8
:103BD4003D0ED16FEA0ED06FFF0ED96F060EDA6F6D
:103BE400000EDB6FDC9B1200FE0EE3509F0F356E60
:103BF400FF0E6F008CFF36F0FF0E3622365006E1C2
:103C04001A0E355CD8B002D0010E01D0000E2B6E16
:103C14002C6AE552E5521200FE0EE350BF0F356EDA
:103C2400FF0E6F008CFF36F0FF0E3622365006E191
:103C34001A0E355CD8B002D0010E01D0000E2B6EE6
:103C44002C6AE552E5521200FE0EE350D00F356E99
:103C5400FF0E6F008CFF36F0FF0E3622365006E161
:103C64000A0E355CD8B002D0010E01D0000E2B6EC6
:103C74002C6AE552E5521200FE0EE350030BA00D30
:103C8400FF0E2B6E0A0E2C6EF3502B26F4502C22B2
:103C9400FF0EE350030B280DF3502B26F4502C2277
:103CA400E552E5521200D10E5E24D96EDA6A020E94
:103CB400DA226F00A3F7DFFF5E2A070E5E6401D0ED
:103CC4005E6A5C2A010E0101CA27000ECB23CC23B5
:103CD400CD231200010E3D01126FFF0E6F008FFF06
:103CE40011FD3901A2A9FDD7010E0101D227000E51
:103CF400D323D423D5236F0040F42BF0E5521200D4
:103D0400FF0E6F008CFF2BF0050E2B6402D0000E0B
:103D14000AD0FF0EE350050DA80EF324D96E020E4F
:103D2400F420DA6EDF502B6EE552120015EE8AF0A5
:103D34003901A19500019C519D119E11D8B4110027
:103D440001D811000500FA6E9C51FD6E9D51FE6E66
:103D54009E51FF6EFA501200400E5A6010D0000EB1
:103D64005B24D96EDA6A040EDA22DF503D01D26F89
:103D74005B2A3F0E5B6401D05B6A5A2A1200390148
:103D840096971200010E966E956A976A7C0E936E52
:103D9400926A3901A9919981680EE66E230EE66E46
:103DA400000EE66E3DEC1FF0E00E946E1200430E22
:103DB400E66E000EE66E000EE66E000EE66EFA0E7D
:103DC4006F008FFFE6FF6F008FFFE6FFB8ECE2F0B5
:103DD400E552E55212000400FF0EE350020D600E9E
:103DE400F324D96E030EF420DA6EDE50DE10D8A46C
:103DF40002D0010E01D0000E2B6EE5521200E150EC
:103E0400FD0FD96EE250DA6EFF0EDA226F0078FFF2
:103E1400A2F06F0078FFA3F06F0074FFA4F0E552E6
:103E2400E552E5521200E150FD0FD96EE250DA6E10
:103E3400FF0EDA226F0078FFA5F06F0078FFA6F07E
:103E44006F0074FFA7F0E552E552E5521200E1500D
:103E5400FD0FD96EE250DA6EFF0EDA226F0078FFA2
:103E64009FF06F0078FFA0F06F0074FFA1F0E5529F
:103E7400E552E5521200E150FD0FD96EE250DA6EC0
:103E8400FF0EDA226F0078FF96F06F0078FF97F04C
:103E94006F0074FF98F0E552E552E5521200E150CC
:103EA400FD0FD96EE250DA6EFF0EDA226F0078FF52
:103EB40093F06F0078FF94F06F0074FF95F0E55273
:103EC400E552E5521200E150FD0FD96EE250DA6E70
:103ED400FF0EDA226F0078FF90F06F0078FF91F008
:103EE4006F0074FF92F0E552E552E5521200E15082
:103EF400FD0FD96EE250DA6EFF0EDA226F0078FF02
:103F0400A8F06F0078FFA9F06F0074FFAAF0E552E3
:103F1400E552E5521200E150FD0FD96EE250DA6E1F
:103F2400FF0EDA226F0078FFABF06F0078FFACF081
:103F34006F0074FFADF0E552E552E5521200E15016
:103F4400FD0FD96EE250DA6EFF0EDA226F0078FFB1
:103F540099F06F0078FF9AF06F0074FF9BF0E552C0
:103F6400E552E5521200E150FD0FD96EE250DA6ECF
:103F7400FF0EDA226F0078FF9CF06F0078FF9DF04F
:0E3F84006F0074FF9EF0E552E552E552120008
:103F940015EE8AF000019F51A011A111D8B41100AF
:103FA40001D811000500FA6E9F51FD6EA051FE6EFE
:103FB400A151FF6EFA50120015EE8AF00001A251D1
:103FC400A311A411D8B4110001D811000500FA6E90
:103FD400A251FD6EA351FE6EA451FF6EFA50120061
:103FE40015EE8AF00001A551A611A711D8B411004D
:103FF40001D811000500FA6EA551FD6EA651FE6EA2
:10400400A751FF6EFA5012006000ACF006F0600099
:10401400D8F007F015EE8AF03901A9914FEC20F0A1
:1040240060001CF036F0600018F02BF01100BC9416
:10403400FF0EE350E66E6CEC1EF0080EE66E000E0A
:10404400E66E000EE66E000EE66E4DEC19F0E552DB
:1040540012000001A851A911AA11D8B4120001D864
:1040640012000500FA6EA851FD6EA951FE6EAA5108
:10407400FF6EFA5012000001AB51AC11AD11D8B46F
:10408400120001D812000500FA6EAB51FD6EAC515E
:10409400FE6EAD51FF6EFA50120000019651971159
:1040A4009811D8B4120001D812000500FA6E965186
:1040B400FD6E9751FE6E9851FF6EFA5012004CEC53
:1040C40021F0FE0EE66EA7EC19F04CEC21F0FF0E89
:1040D400E350E66EA7EC19F04CEC21F0E552120027
:1040E40039019591780EE66EFC0EE66E010EE66ED1
:1040F40079EC1FF0020E0201CB6F39019581120099
:10410400000E5924D96EDA6A060EDA226F0043F7DC
:10411400DFFF592A5928D8B4596A0001C32B120069
:10412400FF0E6F008CFF36F0030E361623EE7FF180
:10413400DF503618FE0B3618DF6EE5521200070EFC
:10414400E66EEDEC1EF02B50D8B406D00101AC5154
:10415400FF0E6F008CFFACF1E5521200FF0EE3502E
:10416400E66E60009BF1E6FF60009FF1E6FFBAECAB
:1041740010F0E5521200FE0E6F008FFFE6FF6F0095
:104184008FFFE6FF3FEC1BF0E552E5521200010EF3
:10419400AE6EAD6AAF6A630EAB6EAA6A3901A495BE
:1041A400C00EAC6E1200E50EE66E030EE66EFD0E5A
:1041B400E350E66EE2ECEFF0E5521200400E3D01F2
:1041C400156F030E166F4F0E196F1C6B830E146F51
:1041D4001200800E626E616A400E606E3F015F5194
:1041E4003F0B40095F6F1200200E3901D96FDB6B62
:1041F400DD6B020EDF6FDE6BDCB11200FDD739011F
:10420400C06BC16BC26BC36BC46BC56BC66BC76B36
:104214001200390168B104D0FF0E6F008FFF60F9FE
:10422400E5521200FF0E6F008FFFF1FE3E01F88F82
:10423400F881E5521200FF0EE3B002D0BD9A01D01E
:10424400BD8AE5521200FF0EE3B002D0BD9801D042
:10425400BD88E5521200390168AB03D02B6A2B2AC2
:1042640012002B6A12000101AD51FF0E6F008CFF8A
:10427400ADF1E5521200FF0EE3B002D0BD9C01D0B7
:10428400BD8CE5521200FF0EE350E66E61EC20F0A7
:10429400E5521200000160B7FDD73D0117BB1200C3
:1042A400FCD72C0EE66E010EE66E3FEC1BF01200FE
:0E42B400BDAC03D02B6A2B2A12002B6A12001D
:0E42C40015EE8AF03901A1913DEC20F01100B9
:1042D40015EE8AF03901A2910001609711003C01AA
:1042E400E66B940EE56F1200FF0E2B6E060E2C6E1D
:0242F4001200B6
:0A42F80015EE8AF03901A2931100BF
:0A43040015EE8AF03901A2971100AE
:1043100015EE8AF03901A2951100600008F92BF022
:1043200012003B0E3E01F16F1200600040FB2BF0CB
:1043300012006000B0F62BF012006000B4F62BF013
:104340001200AF0E3E01C16F1200600070F12BF041
:1043500012003901688D12000201426B1200000147
:10436000608712003B01FC8D12003901969D1200FE
:064370003901968D1200D8
:1043780015EE8AF01100CCFFADFF120012001200FA
:0543880012001200010B
:10F5FC0000D859000005000000685B00000A0000FC
:10F60C0000305C000014000000385E00001900009F
:10F61C0000885E00001E000000785F0000280000DB
:10F62C0000DC5F00002D00000018600000320000BC
:10F63C000046600000350000007C600000370000D0
:10F64C0000AE60000039000000E06000003C0000EB
:10F65C0000126100003F0000005D610000430000EB
:10F66C0000A861000046000000BC610000480000DA
:10F67C0000D06100004B000000DA61000050000077
:10F68C0000E461000055000000F86100005A000021
:10F69C0000086200005C000000226200005D0000B7
:10F6AC0000346200005F000000486200006100004E
:10F6BC00005C6200006400000084670000620000CF
:10F6CC00000000000080DE280080C84D0000A776F6
:10F6DC000000349E008012C700809FEE00007E1751
:10F6EC0001805C400180E9670100C890010055B8B9
:10F6FC00011F1E1F1E1F1F1E1F1E1F1F1D636F6D50
:10F70C006D616E6473203100000000000000000089
:10F71C00000000646973706C617973203100000023
:10F72C00000000000000000000636F6D6D616E64EE
:10F73C007320320000000000000000000000006494
:10F74C006973706C61797320320000000000000056
:10F75C000000000000636F6D6D616E6473203300F8
:10F76C000000000000000000000000646973706C71
:10F77C0061797320330000000000000000000000DD
:10F78C0000636F6D6D616E647320340000000000C7
:10F79C0000000000000000646973706C61797320D4
:10F7AC00340000000000000000000000007C7C2FF2
:10F7BC002F2D2D00000000000000000000000000B4
:10F7CC00007C7C2F2F2D2D5C5C00000000000000C5
:10F7DC0000000000004F4F4F4F4F4F2D2D5F5F2DFE
:10F7EC0000000000000000000076763C3C5E5E3EAF
:10F7FC003E0000000000000000000000002E2E2A39
:10F80C002A7823782358587C7C2D2D00000000008A
:10F81C00002E2E6F6F4F4F6F6F0000000000000026
:10F82C00000000000020202020205045554B204196
:10F83C00482020202020204C4F20455352202020AF
:10F84C0020202048492045535220202020202020D1
:10F85C0050562041482020204241542057204F75BB
:10F86C007420202020424154205720494E20202033
:10F87C0020205245414C2041482020202046204346
:10F88C0059434C455320202042204359434C455367
:10F89C00002020204C4F5720436F756E7420202081
:10F8AC00544F4420436F756E7420202020545820F0
:10F8BC00436F756E7420202020525820436F756E54
:10F8CC007420202041444320436F756E7420202007
:10F8DC0053504920436F756E7420202044494F20AB
:10F8EC00436F756E74000000803F0000C03F474DB1
:10F8FC00540000AAB83FC623F6B80040763F202536
:10F90C00630D0A202563202C53797374656D205385
:10F91C0074617475733A2056657273696F6E202525
:10F92C0073204275696C64202573202573200D0AA1
:10F93C00202563202C25730D0A202563202C2531CE
:10F94C00306C752C202531306C752C202531306CA9
:10F95C00752C202531306C752C202531306C752C94
:10F96C00202531306C752C202531306C75200D0A1A
:10F97C00202563202C25730D0A202563202C25318E
:10F98C0030642C20253130642C20253130642C201F
:10F99C00253130642C20253130642C202531306405
:10F9AC002C20253130642C20253130642C2025313D
:10F9BC0030640D0A2025630D0A00202563202C25B8
:10F9CC006C752C25342E34662C25342E34662C255F
:10F9DC00342E34662C25342E34662C25342E336686
:10F9EC002C25342E33662C25342E33662C25342EC0
:10F9FC0033662C25342E33662C25342E33662C2579
:10FA0C00342E33662C25342E33662C25342E336657
:10FA1C002C25642C25642C25322E36662C25342E70
:10FA2C0033662C25642C25642C256C752C256C7563
:10FA3C002C25342E33662C25342E33662C25342E6F
:10FA4C0033662C25640D0A004A616E4665624D6171
:10FA5C00724170724D61794A756E4A756C41756769
:10FA6C005365704F63744E6F764465630053256322
:10FA7C00432025642052554E202564205625322ED5
:10FA8C0032662020202020202020002564202564A0
:10FA9C0020256420256420202020202020202020C8
:10FAAC00202020202020004C4F414420572025337B
:10FABC002E3266204C412025322E3266202020200A
:10FACC0020200052312025322E33662025332E344F
:10FADC0066202020202020202020202020005232B0
:10FAEC002025322E33662025332E3466202020200C
:10FAFC00202020202020202000204D657367202509
:10FB0C006420537461636B20256420202020202006
:10FB1C0020200042562025322E3466204343256493
:10FB2C002020202020202020202020200053205383
:10FB3C002563432025642025322E34662020202086
:10FB4C0020202020202000424154542057202533CF
:10FB5C002E32662020202020202020202020200053
:10FB6C00455352202025322E36662020202020207E
:10FB7C00202020202020200052312025322E3366D8
:10FB8C002025332E34662020202020202020200009
:10FB9C0052322025322E33662025332E3466202017
:10FBAC0020202020202020004241482025332E32C6
:10FBBC0066205025332E3266202020202020200065
:10FBCC002020202020202020202020202020202029
:10FBDC0020202020202000455352202025322E3674
:10FBEC00662020202020202020202020200053745C
:10FBFC006174696320534F4320256420202020200A
:10FC0C002020202000424154204957482025342EE2
:10FC1C00316620202020202020202000424154202A
:10FC2C004F57482025342E316620202020202020BC
:10FC3C00202000424154205457482025342E316650
:10FC4C0020202020202020202000494E5620205704
:10FC5C00482025332E3266202020202020202020F2
:10FC6C00004C4F41442057482025332E326620202B
:10FC7C00202020202020200050562025632057488B
:10FC8C002025332E32662020202020202020004DDD
:10FC9C0050505420572025332E32662025642020C6
:10FCAC002020202020004261747465727920416804
:10FCBC002025332E32662020202020200042562082
:10FCCC0025322E32662042412025322E32662020EB
:10FCDC002020200043562025322E3266204341201E
:10FCEC0025322E326620202020200050562025322E
:10FCFC002E32662050412025322E326620202020C4
:10FD0C00200053756E4D6F6E54756557656454685D
:10FD1C007546726953617400202564202564202087
:10FD2C0020202020202020202020202020002025E2
:10FD3C006C6420256C642020202020202020202092
:10FD4C0020202000546F20454550524F4D2020203C
:10FD5C002020202020202020200042617474657215
:10FD6C0079204553522020202020202020202000C4
:10FD7C0043616C63756C6174696F6E202020202068
:10FD8C0020202020200043616C6962726174696FCD
:10FD9C006E202020202020202020200053656E7310
:10FDAC006F72205A65726F20202020202020202086
:10FDBC0020005A65726F2043616C205365742020BB
:10FDCC00202020202020200042617474657279204C
:10FDDC00616E642050562020202020202000436893
:10FDEC0065636B696E6720256320256320202020C6
:10FDFC00202020002054696D6520256C752C202551
:10FE0C006C75202020202020200053656E736F72AB
:10FE1C002052656164696E677320202020202000C9
:10FE2C00436865636B203330207365636F6E647356
:10FE3C002020202020005A65726F204F7574204FAF
:10FE4C00662052616E6765202020200025642025E5
:10FE5C00322E34662C20256420205452494D20200B
:10FE6C00200053746162696C69747920636C6F63F0
:10FE7C006B20256420202000486973746F727920F0
:10FE8C0044617461202053617665642020004845EC
:10FE9C004C502025732020202020202020202020A2
:10FEAC00202000444953504C4159202573202020D8
:10FEBC002020202020202000204E534153504F4F13
:10FECC004B202020202020202020202000205665A0
:10FEDC007273696F6E202573202020202020202033
:10FEEC002000505620256320572025332E326620C3
:10FEFC0020202020202000204D424D4320534F4CE9
:10FF0C0041524D4F4E20202020202000526561642C
:10FF1C0020454550524F4D20444154412020202033
:10FF2C000052656C6561736520627574746F6E2028
:10FF3C00256320202000496E76616C69642045455C
:10FF4C0050524F4D2044415441200048454C5020C4
:10FF5C002573202020202020202020202000256414
:10FF6C002025322E34662020256420257820200080
:10FF7C0025642025322E34662C2025642020202355
:10FF8C00200025642025322E346620202564202074
:10FF9C002000767465726D2025783A257820202013
:10FFAC000041707220203120323032300025732015
:10FFBC002020202020200032323A31333A313200D6
:10FFCC0032323A31333A313100312E343000494E2D
:10FFDC0046004E414E00696E66006E616E006C58B4
:10FFEC00006C64006C66006C69006C75006C7800C9
:04FFFC002573000069
:020000040001F9
:10000000130EE126000EE222FA0EE36AFD0EE36A09
:10001000FC0EE36AE32AFB0EE36AE38221EC1AF0AA
:10002000D28ED28C0101006B2C0EE66E010EE66EB4
:1000300028EC1DF0CBA004D0FE0EE36AE32A04D026
:10004000FE0EE36AE380E382FE0EE304D8A407D049
:10005000BD80000E01019E6F460E9D6F04D0BD90C5
:1000600001019D6B9E6B600077F6E6FF60007BF6FA
:10007000E6FFBDEC20F01FEF85F0DEEC1DF0B3ECE9
:100080000DF00C0EE66E45EC21F009EC10F0010EBF
:10009000E66E25EC21F0010EE66E1DEC21F0FE0E61
:1000A0006F008CFF00F1A50EE66E070EE66E43ECC6
:1000B0001DF0000EE66E92EC20F0030EE66EFF0ED1
:1000C000E66E000EE66E000EE66E3EEC1EF0600080
:1000D000AFF0E6FF6000B3F0E6FF040EE66E83ECDF
:1000E00009F0D50EE66EFF0EE66ED90EE66EFE0E38
:1000F000E66E000EE66E010EE66E3EEC1EF060004F
:10010000AFF0E6FF6000B3F0E6FF060EE66E83ECAC
:1001100009F0C40EE66EFE0EE66E000EE66E020EEE
:10012000E66E3EEC1EF06000AFF0E6FF6000B3F05C
:10013000E6FF040EE66E83EC09F0CE0EE66EFB0ED3
:10014000E66E000EE66E030EE66E3EEC1EF06000FC
:10015000AFF0E6FF6000B3F0E6FF040EE66E83EC5E
:1001600009F0CE0EE66EFB0EE66E010EE66E000E98
:10017000E66E3EEC1EF06000AFF0E6FF6000B3F00C
:10018000E6FF040EE66E83EC09F0CE0EE66EFB0E83
:10019000E66E010EE66E010EE66E3EEC1EF06000AD
:1001A000AFF0E6FF6000B3F0E6FF040EE66E83EC0E
:1001B00009F0CE0EE66EFB0EE66E010EE66E020E46
:1001C000E66E3EEC1EF06000AFF0E6FF6000B3F0BC
:1001D000E6FF040EE66E83EC09F0CE0EE66EFB0E33
:1001E000E66E010EE66E030EE66E3EEC1EF060005B
:1001F000AFF0E6FF6000B3F0E6FF040EE66E83ECBE
:1002000009F0CE0EE66EFB0EE66E020EE66E000EF6
:10021000E66E3EEC1EF06000AFF0E6FF6000B3F06B
:10022000E6FF040EE66E83EC09F0CE0EE66EFB0EE2
:10023000E66E020EE66E010EE66E3EEC1EF060000B
:10024000AFF0E6FF6000B3F0E6FF040EE66E83EC6D
:1002500009F0CE0EE66EFB0EE66E020EE66E020EA4
:10026000E66E3EEC1EF06000AFF0E6FF6000B3F01B
:10027000E6FF040EE66E83EC09F0CE0EE66EFB0E92
:10028000E66E020EE66E030EE66E3EEC1EF06000B9
:10029000AFF0E6FF6000B3F0E6FF040EE66E83EC1D
:1002A00009F0000EE66EBDEC01F0E80EE66E030EFE
:1002B000E66E28EC1DF0FA0EE66E000EE66E0A0EF3
:1002C000E66EA0EC1BF0C80EE66E000EE66E010EA8
:1002D000E66EA0EC1BF0B80EE66E0B0EE66E070E97
:1002E000E66EA0EC1BF0DC0EE66E050EE66E0B0E65
:1002F000E66EA0EC1BF0B80EE66E0B0EE66E090E75
:10030000E66EA0EC1BF093EC17F072EC20F0E80E18
:10031000E66E030EE66E28EC1DF057ECF6F02B505F
:10032000D8B47CD088EC16F0460EE66E0E0EE66E63
:10033000010EE66E5EEC15F02B50D8B45AD0000ECC
:10034000E66E000EE66EF1EC18F0E5526F009CFFD1
:1003500042F0E5526F009CFF41F0E5526F009CFFB8
:1003600040F0E5526F009CFF3FF0E5526F009CFFAC
:100370003EF0E5526F009CFF3DF0E5526F009CFFA0
:100380003CF0E5526F009CFF3BF023EE56F2DE504E
:100390003B5CDE503C58DE503D58DE503E58DE504F
:1003A0003F58DE504058DE5041584250800A2B6E74
:1003B000DE50800A2B58D8B01CD023EE56F26F00C6
:1003C0007BFFE6FF6F007BFFE6FF6F007BFFE6FF32
:1003D0006F007BFFE6FF6F007BFFE6FF6F007BFF98
:1003E000E6FF6F007BFFE6FF6F007BFFE6FFF2ECAE
:1003F0001CF0180EE66EFF0EE66E000EE66E020EA4
:10040000E66E3EEC1EF06000AFF0E6FF6000B3F079
:10041000E6FF040EE66E83EC09F014D0420EE66EA1
:10042000FF0EE66E000EE66E020EE66E3EEC1EF06D
:100430006000AFF0E6FF6000B3F0E6FF040EE66E8A
:1004400083EC09F0000EE66EBDEC01F0ACEC21F09F
:1004500093EC17F0D00EE66E070EE66E28EC1DF05A
:10046000000EE66E060EE66E20ECC2F06000AFF005
:10047000E6FF6000B3F0E6FF6000B7F0E6FF600063
:10048000BBF0E6FF1BECDAF02B500101B36FB35168
:10049000D8B406D0B329D8B403D0010EB96F01D0B7
:1004A000B96BFF0EE36AE32A47ECFBF00101B3519D
:1004B000E66E000EE66E000EE66E040EE66E20ECB2
:1004C000C2F06000AFF0E6FF6000B3F0E6FF60004E
:1004D000B7F0E6FF6000BBF0E6FF1F0EE66EFB0E16
:1004E000E66E000EE66E010EE66E3EEC1EF060005B
:1004F000AFF0E6FF6000B3F0E6FF0A0EE66E83ECB5
:1005000009F023EEF5F16F007BFFE6FF6F007BFF44
:10051000E6FF6F007BFFE6FF6F007BFFE6FFFB0E51
:10052000E350E66E000EE66E000EE66E050EE66E19
:1005300002EC0BF02B50E66E000EE66E390EE66E06
:10054000FB0EE66E000EE66E020EE66E3EEC1EF050
:100550006000AFF0E6FF6000B3F0E6FF0C0EE66E61
:1005600083EC09F0000EE66EBDEC01F0ACEC21F07E
:1005700093EC17F0D00EE66E070EE66E28EC1DF039
:10058000FF0E6F008CFF36F0362A6000DBF0E3FFD1
:1005900036061E0E36601AD023EEF5F16F007BFF93
:1005A000E6FF6F007BFFE6FF6F007BFFE6FF6F005B
:1005B0007BFFE6FF420EE66E600EE66E650EE66EAF
:1005C0003C0EE66E5BEC00F02BA06ED720EC19F031
:1005D0006DECEDF0000EE66E25EC21F0000EE66EFF
:1005E0001DEC21F023EE43F26F0078FF35F06F0031
:1005F00074FF36F06000D7F0E6FF6000DBF0E6FF46
:10060000FA0EE66EFB0EE66E000EE66E000EE66E6D
:100610003EEC1EF06000AFF0E6FF6000B3F0E6FFD6
:10062000060EE66E83EC09F023EE1DF26F007BFFF1
:10063000E6FF6F007BFFE6FF6F007BFFE6FF6F00CA
:100640007BFFE6FFB20EE66EFC0EE66E000EE66E77
:10065000010EE66E3EEC1EF06000AFF0E6FF6000BB
:10066000B3F0E6FF080EE66E83EC09F0CC0EE66E02
:10067000FB0EE66E000EE66E020EE66E3EEC1EF01F
:100680006000AFF0E6FF6000B3F0E6FF040EE66E38
:1006900083EC09F0000EE66EBDEC01F0D00EE66EC4
:1006A000070EE66E28EC1DF0660EE66EFD0EE66E99
:1006B000000EE66E000EE66E3EEC1EF06000AFF03F
:1006C000E6FF6000B3F0E6FF040EE66E83EC09F08F
:1006D0007C0EE66EFD0EE66E000EE66E010EE66E18
:1006E0003EEC1EF06000AFF0E6FF6000B3F0E6FF06
:1006F000040EE66E83EC09F02C0EE66EFE0EE66E3E
:10070000000EE66E020EE66E3EEC1EF06000AFF0EC
:10071000E6FF6000B3F0E6FF040EE66E83EC09F03E
:10072000000EE66EBDEC01F0010E356E000E366E69
:10073000F70E6000D7F0E3FFF80E6000DBF0E3FF98
:10074000F90EE36A6DD06E0EE66E000EE66E28ECD2
:100750001DF0F30E6F008FFFE6FF6F008FFFE6FFC7
:100760006F008FFFE6FF6F008FFFE6FFA6ECFFF044
:100770006000AFF0E6FF6000B3F0E6FF6000B7F0A6
:10078000E6FF6000BBF0E6FF83ECFDF06000ACF03C
:1007900036F0F90E6000DBF0E3FF000EE66EF80EB7
:1007A000E350E66E02EC0BF02B50E66E000EE66EA8
:1007B000000EE66E000EE66E02EC0BF02B50E66EBD
:1007C000000EE66EEA0EE66EFD0EE66E000EE66EBA
:1007D000020EE66E3EEC1EF06000AFF0E6FF600039
:1007E000B3F0E6FF080EE66E83EC09F0000EE66E4D
:1007F000BDEC01F0E150F70FD96EE250DA6EFF0E5A
:10080000DA226F007CFF35F0010EDE266F007CFFE0
:1008100036F0000EDD223504020E3658D8B017D05F
:10082000000EE66E9BECE5F0F30E6000AFF0E3FF28
:10083000F40E6000B3F0E3FFF50E6000B7F0E3FFE5
:10084000F60E6000BBF0E3FFF60EE3BE7CD723EEAE
:1008500015F26F007BFFE6FF6F007BFFE6FF6F0086
:100860007BFFE6FF6F007BFFE6FFE30EE66EFB0E0D
:10087000E66E000EE66E000EE66E3EEC1EF06000C8
:10088000AFF0E6FF6000B3F0E6FF080EE66E83EC23
:1008900009F023EEA7F26F007BFFE6FF6F007BFFFE
:1008A000E6FF6F007BFFE6FF6F007BFFE6FF23EEB6
:1008B000B3F26F007BFFE6FF6F007BFFE6FF6F0088
:1008C0007BFFE6FF6F007BFFE6FFCF0EE66EFA0EC2
:1008D000E66E000EE66E010EE66E3EEC1EF0600067
:1008E000AFF0E6FF6000B3F0E6FF0C0EE66E83ECBF
:1008F00009F023EEABF26F007BFFE6FF6F007BFF9A
:10090000E6FF6F007BFFE6FF6F007BFFE6FF23EE55
:10091000B7F26F007BFFE6FF6F007BFFE6FF6F0023
:100920007BFFE6FF6F007BFFE6FFEA0EE66EFA0E46
:10093000E66E000EE66E020EE66E3EEC1EF0600005
:10094000AFF0E6FF6000B3F0E6FF0C0EE66E83EC5E
:1009500009F0000EE66EBDEC01F0A00EE66E0F0E83
:10096000E66E28EC1DF0040EE66E82EC1EF02B50B5
:10097000D8B402D0010E01D0000E0101B76FE80E0D
:10098000E66E030EE66E28EC1DF00101B751D8B4F7
:100990000FD0040EE66E82EC1EF02B50D8B408D0B7
:1009A000B3ECD5F0A00EE66E0F0EE66E28EC1DF04F
:1009B000000EE66E000EE66EF1EC18F0E5526F00E8
:1009C0009CFF42F0E5526F009CFF41F0E5526F0042
:1009D0009CFF40F0E5526F009CFF3FF0E5526F0036
:1009E0009CFF3EF0E5526F009CFF3DF0E5526F002A
:1009F0009CFF3CF0E5526F009CFF3BF06000ECF088
:100A000033F06000F0F034F06000F4F035F0600096
:100A1000F8F036F0580E33240101856F020E3420B1
:100A2000866F000E3520876F000E3620886FB76BFB
:100A3000010EBA6F1CD0F6811AD0006B18D00101DC
:100A40000051356E366A3650000AD8A4F6D73550B4
:100A5000000AD8B43DEF80F0010AD8B408D0020AE9
:100A6000D8B405D0070AD8B4E6D7010AE6D7010EF4
:100A7000E66EEDEC1EF02B50D8B413D08DEC21F0C7
:100A80002B50D8B40ED008EC0AF0ACEC21F093EC6B
:100A900017F0C80EE66E000EE66E010EE66EA0ECD4
:100AA0001BF00A0EE66EEDEC1EF02B50D8B40BEFE7
:100AB0008CF0090EE66EEDEC1EF02B50D8B404D08D
:100AC000000EE66EA1EC20F0000EE66E000EE66E63
:100AD000F1EC18F0E5526F009CFF42F0E5526F0018
:100AE0009CFF41F0E5526F009CFF40F0E5526F0023
:100AF0009CFF3FF0E5526F009CFF3EF0E5526F0017
:100B00009CFF3DF0E5526F009CFF3CF0E5526F000A
:100B10009CFF3BF06000ECF0CEF06000F0F0CFF016
:100B20006000F4F0D0F06000F8F0D1F06000FCF06C
:100B3000D2F0600000F1D3F0600004F1D4F0600066
:100B400008F1D5F0CE0EE66ED5EC20F06000ACF0EA
:100B5000B6F06000B0F0B7F06000DBF2E6FF6000D6
:100B6000DFF2E6FFD9ECCBF06000AFF0E6FF60000B
:100B7000B3F0E6FF5C0EE66EFF0EE66E000EE66E6C
:100B8000030EE66E3EEC1EF06000AFF0E6FF600084
:100B9000B3F0E6FF060EE66E83EC09F06000DBF2D0
:100BA000E6FF6000DFF2E6FFD9ECCBF06000AFF0CB
:100BB000E6FF6000B3F0E6FF5C0EE66EFF0EE66E49
:100BC000010EE66E030EE66E3EEC1EF06000AFF026
:100BD000E6FF6000B3F0E6FF060EE66E83EC09F078
:100BE000EEECD0F023EEF1F16F007BFFE6FF6F003B
:100BF0007BFFE6FF6F007BFFE6FF6F007BFFE6FFFA
:100C00001BECDAF02B500101B36FB351356E366A2D
:100C1000D89035363636D890353636366000D7F02F
:100C2000E6FF6000DBF0E6FFBDEC20F023EEBCF257
:100C3000DF50D8B4D7D0000E6F00A0FFBCFEFDEC93
:100C4000FFF0010E356E000E366EF10E6000D7F02B
:100C5000E3FFF20E6000DBF0E3FF010EE66E9BECBB
:100C6000E5F01CD06E0EE66E000EE66E28EC1DF070
:100C7000E150F10FD96EE250DA6EFF0EDA226F000A
:100C80007CFF35F0010EDE266F007CFF36F0000E93
:100C9000DD223504020E3658D8B006D0000EE66EBE
:100CA0009BECE5F02EBEDED7EDECD7F0460EE66EFF
:100CB0000E0EE66E000EE66E5EEC15F01AEC03F01A
:100CC000840EE66EFE0EE66E000EE66E000EE66E1A
:100CD0003EEC1EF06000AFF0E6FF6000B3F0E6FF10
:100CE000040EE66E83EC09F0500EE66EFD0EE66E25
:100CF000000EE66E010EE66E3EEC1EF06000AFF0F8
:100D0000E6FF6000B3F0E6FF040EE66E83EC09F048
:100D100023EE52F26F007BFFE6FF6F007BFFE6FFE2
:100D20006F007BFFE6FF6F007BFFE6FF000EE66EC5
:100D3000000EE66EF1EC18F0E5526F009CFF42F0F9
