:020000040000FA
:0400000057EF00F0C6
:100008001955195519551955195519551955195578
:10001800F75419556E531955195519551955195538
:10002800EF5405550B5508551955195519551955B6
:1000380019551955195544543A54195519551955FE
:1000480019551955195519552B001955195519557B
:10005800FB54195519551955195519551955195547
:100068001955195558544E541955195519551955A6
:10007800195519552B0019551955FF542B002B00EC
:100088002B002B002B002B002B002B004352195563
:10009800D2541955195519552B002B002B002B003C
:0E00A80019551955FF0011EE66F2DEEF9DF0BE
:10FE4200005225642025642C20542564202564203A
:10FE52004325642020464742404D434850202573A5
:10FE62002020202020202020202020202020202090
:10FE72002020202020202020202020202020202080
:10FE82002020202020202020202020202020202070
:10FE920020202020202020202020200020546572B5
:10FEA2006D696E616C202564202020202020202096
:10FEB2002020202020004C4F473A2055256420471F
:10FEC2002564202564202564202020202020230072
:10FED2005225642025642C20542564202564204367
:10FEE2002564202020202020230020434D4420256B
:10FEF20063202563204C656E20256420202020206D
:10FF0200202000484F53543A20256C642047256432
:10FF12002020202020202300205465726D696E610C
:10FF22006C20202020202020202020002053256427
:10FF32004625642023256C642020202020004525AE
:10FF42006420412564205425642047256420230031
:10FF520053617665642053314631202020202020D1
:10FF620000536176656420533246343120202020CC
:10FF7200200020483235342025642C2054256C641E
:10FF82002020002050696E672047256420205025DC
:10FF9200642023002052564920484F535420544590
:10FFA20053544552005325644625642045727220FD
:10FFB2002020200020464742404D434850204641E1
:10FFC200423400205325644625642023202020202B
:10FFD200002056657273696F6E20257300204F4BA7
:10FFE200202300204F4B512300312E303547004F44
:0DFFF2004B20006C64006C6900256300006A
:020000040001F9
:10000000E652B0ECA5F0D28ED28C000E6F00A0FFAD
:10001000F7F32C0EE66E010EE66E8BECA6F0CBA08D
:1000200004D0FF0EE36AE32A04D0FF0EE36AE38004
:10003000E382FF0EE304D8A404D0BD80BD8237EF75
:1000400084F0BD90BD9237EF84F059EC9EF00C0E19
:10005000E66EE6ECA9F0FF0E6F008CFF48F0600042
:1000600020F1F7F3000E6F00A0FFF6F3A50EE66E89
:10007000070EE66EC1ECA6F0960EE66EFF0EE66E7B
:10008000FC0EE66E030EE66E040EE66E59EC9DF075
:10009000FC0EE66E030EE66E000EE66E000EE66ED9
:1000A000AAEC9BF0EB0EE66EFF0EE66ED30EE66E4C
:1000B000FF0EE66EFC0EE66E030EE66E060EE66EB4
:1000C00059EC9DF0FC0EE66E030EE66E000EE66E39
:1000D000010EE66EAAEC9BF0B60EE66EFF0EE66E23
:1000E000FC0EE66E030EE66E040EE66E59EC9DF015
:1000F000FC0EE66E030EE66E000EE66E020EE66E77
:10010000AAEC9BF0B80EE66E0B0EE66E8BECA6F03A
:10011000C4D3000E6F00A0FFFAF3000E6F00A0FF23
:10012000FBF3010E6F00A0FFF6F36100ABF4E8FFF4
:100130000A0AD8A479D16100AFF4E8FF0A0AD8A46A
:1001400073D121EE39F1DFAC1FD021EE24F16F0025
:100150007BFFE6FF6F007BFFE6FF6F007BFFE6FFA4
:100160006F007BFFE6FF010EE66E010EE66E740E79
:10017000E66EFF0EE66EFC0EE66E030EE66E0A0EEF
:10018000E66E59EC9DF020D020EEF8F3DF50E66EDD
:10019000000EE66E21EE1CF16F007BFFE6FF6F00A4
:1001A0007BFFE6FF6F007BFFE6FF6F007BFFE6FF54
:1001B000050EE66EFF0EE66EFC0EE66E030EE66EB4
:1001C0000A0EE66E59EC9DF0000E6F00A0FF0CF4D5
:1001D000FC0EE66E030EE66E000EE66E020EE66E96
:1001E000AAEC9BF021D1FA0EE66E030EE66E60ECEF
:1001F0008AF0040E3D18D8A460D06100A3F4E8FF93
:10020000090AD8A41BD029C52CF521EE29F1DF500D
:10021000E66E000EE66E21EE28F1DF50E66E000E6F
:10022000E66EA70EE66EFF0EE66EFC0EE66E030EA1
:10023000E66E080EE66E59EC9DF01CD0000E6F00C5
:10024000A0FF2CF521EE29F1DF50E66E000EE66EE0
:1002500021EE28F1DF50E66E000EE66EC50EE66E6A
:10026000FF0EE66EFC0EE66E030EE66E080EE66E00
:1002700059EC9DF0000E6F00A0FF07F4FC0EE66E37
:10028000030EE66E000EE66E000EE66EAAEC9BF024
:1002900021EE38F1DFA20DD0020E6F00A0FFF6F3C1
:1002A00021EE38F1870EDF16000E6F00A0FFFBF382
:1002B00004D0030E6F00A0FFF6F36000EBFFE8FF31
:1002C00011D0FB0EE66E030EE66EAEEC90F0040E5F
:1002D0003D18D8A404D0030E6F00A0FFF6F3600011
:1002E000EFFFE8FF060AD8A49FD0060E39D021EE12
:1002F00039F1DFA819D0000E6F00A0FFFAF3000E4D
:100300006F00A0FFFBF3020E6F00A0FFF6F3E50EF7
:10031000E66EFF0EE66EFC0EE66E030EE66E040E53
:10032000E66E59EC9DF010D0050E6F00A0FFF6F3BD
:10033000DF0EE66EFF0EE66EFC0EE66E030EE66E58
:10034000040EE66E59EC9DF0FC0EE66E030EE66EB2
:100350000B0EE66E000EE66EAAEC9BF065D0000E6A
:100360006F00A0FFF6F360D0000E6F00A0FFF6F361
:1003700020EEF8F3DF50E66E000EE66E21EE34F16B
:100380006F0078FF47F06F0074FF48F060001FF1C6
:10039000E6FF600023F1E6FF21EE2BF1DF50E66E71
:1003A000000EE66E21EE2AF1DF50E66E000EE66EDC
:1003B000400EE66EFF0EE66EFC0EE66E030EE66E77
:1003C0000C0EE66E59EC9DF0000E6F00A0FF0CF4D1
:1003D000FC0EE66E030EE66E000EE66E020EE66E94
:1003E000AAEC9BF0D00EE66E070EE66E8BECA6F044
:1003F0001BD020EEF6F3DF50476E486A4850000AE3
:10040000D8A4B2D74750000AD8B483D6010AD8B4CA
:10041000EAD6030AD8B455D7010AD8B468D7060A71
:10042000D8B49DD7030AA0D76100ABF4E8FF0A0A4D
:10043000D8A433D26100AFF4E8FF0A0AD8A42DD2C1
:1004400021EE39F1DFAC1FD021EE24F16F007BFFEC
:10045000E6FF6F007BFFE6FF6F007BFFE6FF6F00AC
:100460007BFFE6FF010EE66E010EE66E740EE66E91
:10047000FF0EE66EFC0EE66E030EE66E0A0EE66EEC
:1004800059EC9DF020D020EEF8F3DF50E66E000E20
:10049000E66E21EE1CF16F007BFFE6FF6F007BFF35
:1004A000E6FF6F007BFFE6FF6F007BFFE6FF050EB8
:1004B000E66EFF0EE66EFC0EE66E030EE66E0A0EAC
:1004C000E66E59EC9DF0000E6F00A0FF0CF4FC0EE0
:1004D000E66E030EE66E000EE66E020EE66EAAEC07
:1004E0009BF06000E3FFE8FF040AD8A406D0600098
:1004F000DBFFE8FF010AD8B404D021EE39F1DFAA0E
:10050000CCD1060EE66EC3ECA8F03D50D8A404D0C2
:1005100021EE39F1DFAAC1D1300EE66E750EE66E1E
:10052000060EE66E6DECA6F0AFECA4F021EE39F10C
:10053000DFBA34D021EE36F16F0078FF47F06F005C
:1005400074FF48F060001FF1E6FF600023F1E6FF52
:1005500020EEF8F3DF50E66E000EE66E850EE66ED6
:10056000FF0EE66EFC0EE66E030EE66E080EE66EFD
:1005700059EC9DF0000E6F00A0FF0CF4FC0EE66E2F
:10058000030EE66E000EE66E000EE66EAAEC9BF021
:10059000E80EE66E030EE66E8BECA6F0000E6F0022
:1005A000A0FF2CF521EE39F1DF9A77D1000E6F0014
:1005B000A0FFF9F3010E6F00A0FFF6F321EE39F171
:1005C000DFAC1FD021EE24F16F007BFFE6FF6F0050
:1005D0007BFFE6FF6F007BFFE6FF6F007BFFE6FF20
:1005E000010EE66E010EE66E740EE66EFF0EE66E0E
:1005F000FC0EE66E030EE66E0A0EE66E59EC9DF0FA
:1006000034D021EE32F16F0078FF47F06F0074FFB5
:1006100048F060001FF1E6FF600023F1E6FF21EEE5
:1006200034F16F0078FF47F06F0074FF48F060000E
:100630001FF1E6FF600023F1E6FF20EEF8F3DF5044
:10064000E66E000EE66E21EE63F1DF50E66E000E00
:10065000E66EB80EE66EFE0EE66EFC0EE66E030E5D
:10066000E66E0C0EE66E59EC9DF0000E6F00A0FFDA
:100670000CF4FC0EE66E030EE66E000EE66E020E45
:10068000E66EAAEC9BF088D0F90EE66E030EE66EDD
:10069000CCEC84F0040E3D18D8A43BD021EE1CF124
:1006A0006F007BFFE6FF6F007BFFE6FF6F007BFFC5
:1006B000E6FF6F007BFFE6FF21EE29F1DF50E66EDB
:1006C000000EE66E21EE28F1DF50E66E000EE66EBB
:1006D0002E0EE66EFF0EE66EFC0EE66E030EE66E66
:1006E0000C0EE66E59EC9DF0000E6F00A0FF09F4B1
:1006F000FC0EE66E030EE66E000EE66E61008CF5F3
:1007000048F04804E66EAAEC9BF0030E6F00A0FFD1
:10071000F6F36000E7FFE8FF060AD8A43DD0060E16
:100720001FD0050E6F00A0FFF6F3F10EE66EFF0E70
:10073000E66EFC0EE66E030EE66E040EE66E59ECF7
:100740009DF0FC0EE66E030EE66E0D0EE66E610089
:100750008CF548F04804E66EAAEC9BF01DD0000E24
:100760006F00A0FFF6F318D020EEF6F3DF50476ECF
:10077000486A4850000AD8A4F2D74750000AD8B4B3
:1007800015D7010AD8B480D7020AD8B4CAD7060A46
:10079000D8B4E5D7030AE3D721EE39F1DFAC1FD097
:1007A00021EE24F16F007BFFE6FF6F007BFFE6FF89
:1007B0006F007BFFE6FF6F007BFFE6FF010EE66E3A
:1007C000010EE66E740EE66EFF0EE66EFC0EE66E31
:1007D000030EE66E0A0EE66E59EC9DF034D021EE63
:1007E00032F16F0078FF47F06F0074FF48F060004F
:1007F0001FF1E6FF600023F1E6FF21EE34F16F0008
:1008000078FF47F06F0074FF48F060001FF1E6FFCB
:10081000600023F1E6FF20EEF8F3DF50E66E000EF5
:10082000E66E21EE63F1DF50E66E000EE66EB80E66
:10083000E66EFE0EE66EFC0EE66E030EE66E0C0E27
:10084000E66E59EC9DF0000E6F00A0FF0CF4FC0E5C
:10085000E66E030EE66E000EE66E020EE66EAAEC83
:100860009BF01BD0000E6F00A0FFF7F316D020EE18
:10087000F7F3DF50476E486A4850000AD8A4F2D711
:100880004750000AD8B425EF80F0010AD8B4B1D59A
:10089000020AD8B469D7070AE5D721EE1CF1DE5069
:1008A000DE10DE10DE10D8B42AD021EE39F1DF5090
:1008B0000F0B0009D8B40BD0BD98BD8A6100ABF412
:1008C000E8FF0F0AD8A405D0BF98BF8A02D0BD8820
:1008D000BD9A21EE38F1DF30E832E8320F0B000923
:1008E000D8B40BD0BD9CBD8E6100ABF4E8FF0F0AFD
:1008F000D8A405D0BF9CBF8E02D0BD8CBD9E21EE7A
:1009000032F16F0078FF47F06F0074FF48F060002D
:100910001FF1E6FF600023F1E6FF21EE38F1DF3042
:10092000E832E8320F0BE66E000EE66E20EEFBF3C7
:10093000DF50E66E000EE66E21EE39F1DF500F0B50
:10094000E66E000EE66E20EEFAF3DF50E66E000E65
:10095000E66ED20EE66EFE0EE66EFC0EE66E030E40
:10096000E66E0E0EE66E59EC9DF0000E6F00A0FFD5
:100970000CF4FF0E6F008CFF3DF0030E3D18D8B451
:1009800076D7FC0EE66E030EE66E000EE66E010EE6
:10099000E66EAAEC9BF06BD7E652D9D227ECAAF010
:1009A0003D50D8B428D04EECA6F0FF0E6000F7F012
:1009B000E3FFFF0E6F008CFF3DF0050E3D18D8A43D
:1009C0001AD0010E6F00A0FF63F5D00EE66E070E81
:1009D000E66E020EE66E6DECA6F00A0E6F00A0FF4A
:1009E0002AF5FD0E6F008FFFD9FFFE0E6F008FFFFF
:1009F000DAFF010EDF6E23ECAAF03D50D8B4CCD262
:100A00002FECA6F0FF0E6000F7F0E3FFFF0E6F0083
:100A10008CFF3DF0050E3D18D8A4BED2020E6F002B
:100A2000A0FF63F5D00EE66E070EE66E020EE66ED0
:100A30006DECA6F00A0E6F00A0FF2AF5FD0E6F0008
:100A40008FFFD9FFFE0E6F008FFFDAFF010E7DD200
:100A50002F6A020EE66EC3ECA8F03D50D8B419D050
:100A60000C0E6F00A0FF2AF521EE34F1DE2A000EF5
:100A7000DD2221EE39F1DF50F00B0209DF6EFD0EB1
:100A80006F008FFFD9FFFE0E6F008FFFDAFF050E9C
:100A90005CD261008FF5E8FF020AD8A429D027ECC8
:100AA000AAF03D50D8B424D04EECA6F0FF0E600062
:100AB000F7F0E3FFFF0E6F008CFF3DF0040E3D18D2
:100AC000D8A416D0D00EE66E070EE66E020EE66EC5
:100AD0006DECA6F00A0E6F00A0FF2AF5FD0E6F0068
:100AE0008FFFD9FFFE0E6F008FFFDAFF020EDF6E61
:100AF00061008FF5E8FF010AD8A44ED223ECAAF0DA
:100B00003D50D8B449D22FECA6F0FF0E6000F7F0AC
:100B1000E3FFFF0E6F008CFF3DF0040E3D18D8A4DC
:100B20003BD2D00EE66E070EE66E020EE66E6DEC60
:100B3000A6F00A0E6F00A0FF2AF5FD0E6F008FFFD2
:100B4000D9FFFE0E6F008FFFDAFF020EFED1020EFC
:100B5000E66EC3ECA8F03D50D8A482D761008FF5B3
:100B6000E8FF010AD8A4BAD027ECAAF03D50D8B4C7
:100B7000B5D04EECA6F0FF0E6000F7F0E3FF2F506B
:100B8000D8A40CD0FF0E6F008CFFC6F0010EE66EED
:100B9000000EE66E48ECA7F02F2AA0D00B0E2F60B7
:100BA0000CD02F501908D96E000ED8A0E82A0108E1
:100BB000DA6EFF0E6F008FFFDFFF2F500001C65D62
:100BC000D8A00DD0000EE66EFE0EE350E66E48ECA7
:100BD000A7F06000F4F02EF56000F8F02FF52F502C
:100BE000476E486A0001C651456E466A010E4526A9
:100BF000000E46224750451809E148504618D8A42F
:100C000005D0FF0EE35001010E6F0D6B2F50476EA4
:100C1000486A0001C651456E466A020E4526000E1E
:100C20004622475045180AE148504618D8A406D035
:100C3000FF0EE35001010D27000E0E232F2A2F5027
:100C4000476E486A0001C651456E466A020E452647
:100C5000000E46224750455C4650800A3D6E485083
:100C6000800A3D58D8B03AD021EE2EF101010D5145
:100C7000DE1810E10E51DE18D8A40CD0FD0E6F0066
:100C80008FFFD9FFFE0E6F008FFFDAFF030E25D016
:100C90004EECA6F027ECAAF03D50D8A4F9D7F40EFC
:100CA000E66E010EE66E8BECA6F00F0E6F00A0FF55
:100CB0002AF521EE32F1DE2A000EDD2221EE39F195
:100CC000DF50F00B0309DF6EFD0E6F008FFFD9FFC1
:100CD000FE0E6F008FFFDAFF050EDF6E61008FF5ED
:100CE000E8FF020AD8A458D123ECAAF03D50D8B4AA
:100CF00053D12FECA6F0FF0E6000F7F0E3FF2F506A
:100D0000D8A40CD0FF0E6F008CFFC6F0010EE66E6B
:100D1000000EE66E48ECA7F02F2A3ED10B0E2F6096
:100D20000CD02F501908D96E000ED8A0E82A01085F
:100D3000DA6EFF0E6F008FFFDFFF2F500001C65DE0
:100D4000D8A00DD0000EE66EFE0EE350E66E48EC25
:100D5000A7F06000F4F02EF56000F8F02FF52F50AA
:100D6000476E486A0001C651456E466A010E452627
:100D7000000E46224750451809E148504618D8A4AD
:100D800005D0FF0EE35001010E6F0D6B2F50476E23
:100D9000486A0001C651456E466A020E4526000E9D
:100DA0004622475045180AE148504618D8A406D0B4
:100DB000FF0EE35001010D27000E0E232F2A2F50A6
:100DC000476E486A0001C651456E466A020E4526C6
:100DD000000E46224750455C4650800A3D6E485002
:100DE000800A3D58D8B0D8D021EE2EF101010D5126
:100DF000DE1810E10E51DE18D8A40CD0FD0E6F00E5
:100E00008FFFD9FFFE0E6F008FFFDAFF030E9DD01C
:100E10002FECA6F023ECAAF03D50D8A4F9D7F40E9D
:100E2000E66E010EE66E8BECA6F00F0E6F00A0FFD3
:100E30002AF521EE32F1DE2A000EDD2221EE39F113
:100E4000DF50F00B04091AD6010116517F0B486ED2
:100E5000600020F128F521EE29F1600057F4DFFF52
:100E600020EE0FF16F0078FF20F56F0078FF21F57D
:100E70006F0078FF22F56F0074FF23F521EE38F143
:100E800018BF02D0DF9001D0DF8021EE38F10101E0
:100E900016BF02D0DF9201D0DF8221EE38F10101CE
:100EA00014BF02D0DF9401D0DF8421EE39F1F00EBF
:100EB000DF1621EE29F1DF50E66E21EE28F1DF503A
:100EC000E66E37EC9FF06000F4F0F8F3FD0E6F0073
:100ED0008FFFD9FFFE0E6F008FFFDAFF040E35D0B3
:100EE000FD0E6F008FFFD9FFFE0E6F008FFFDAFF40
:100EF000060EDF6E02D04EECA6F03750D8B403D009
:100F0000FAD72FECA6F03150D8B446D0FAD721EE5C
:100F10001CF1DE2A000EDE22DE22DE2221EE39F175
:100F2000F00EDF1621EE29F1DF50E66E21EE28F1FA
:100F3000DF50E66EDCEC9AF0FD0E6F008FFFD9FFFC
:100F4000FE0E6F008FFFDAFF000EDF6E25D0FD0E64
:100F50006F008FFFD9FFFE0E6F008FFFDAFFDF50AB
:100F6000476E486A4850000AD8A4E6D74750000A9E
:100F7000D8B414D5010AD8B46BD5030AD8B4E7D5D0
:100F8000010AD8B461D7070AD8B4C1D7010AD8B4C6
:100F9000A7D7030AD8A4D0D7FD0E6F008FFFD9FFC3
:100FA000FE0E6F008FFFDAFFDF503D6EE552E55217
:100FB000E55212000B0EE126000EE222F10E6F0048
:100FC0008FFFD9FFF20E6F008FFFDAFF6F007BFFFC
:100FD000F6FF6F0077FFF7FF000EF86E0800F55080
:100FE000250AD8A43ED2F10E6F008FFFD9FFF20E72
:100FF0006F008FFFDAFFDE2A000EDD221D6A1E6AF7
:10100000216A226A1F682068F10E6F008FFFD9FFE6
:10101000F20E6F008FFFDAFF6F007BFFF6FF6F00AD
:1010200077FFF7FF000EF86E0800F550630AD8A4AA
:1010300036D0F10E6F008FFFD9FFF20E6F008FFFD9
:10104000DAFFDE2A000EDD22EF0E6F008FFFD9FFE0
:10105000F00E6F008FFFDAFF020EDE5E000EDD5A2B
:101060006F0078FF47F06F0074FF48F060001FF1D9
:10107000D9FF600023F1DAFFDF50486EFF0E6000F9
:1010800023F1E3FFFF0EE350E66EF20E6F008FFFD9
:10109000E6FF6F008FFFE6FF83ECA2F00CD2F10EAB
:1010A0006F008FFFD9FFF20E6F008FFFDAFF6F0026
:1010B0007BFFF6FF6F0077FFF7FF000EF86E08006A
:1010C000F550640AD8B415D0F10E6F008FFFD9FF28
:1010D000F20E6F008FFFDAFF6F007BFFF6FF6F00ED
:1010E00077FFF7FF000EF86E0800F550690AD8A4E4
:1010F00075D0F10E6F008FFFD9FFF20E6F008FFFDA
:10110000DAFFDE2A000EDD22EF0E6F008FFFD9FF1F
:10111000F00E6F008FFFDAFF020EDE5E000EDD5A6A
:101120006F0078FF47F06F0074FF48F060001FF118
:10113000D9FF600023F1DAFF6F0078FF47F06F00FE
:1011400074FF48F0F50E60001FF1E3FFF60E60003B
:1011500023F1E3FF3D6AE3BE3D68F70E6000F7F060
:10116000E3FFF80E6000F7F0E3FFF90E6000F7F020
:10117000E3FFFA0E6000F7F0E3FFFB0E6000F7F00C
:10118000E3FFFC0E6000F7F0E3FFE150F50FD96ECE
:10119000E250DA6EFF0EDA226F007BFFE6FF6F008F
:1011A0007BFFE6FF6F007BFFE6FF6F007BFFE6FF44
:1011B0006F007BFFE6FF6F007BFFE6FF6F007BFFAA
:1011C000E6FF6F007BFFE6FFEB0E6F008FFFE6FF91
:1011D0006F008FFFE6FFB8EC8CF06DD1020EE66E6B
:1011E000000EE66EF50EE66EFF0EE66EED0E6F007B
:1011F0008FFFD9FFEE0E6F008FFFDAFF6F0078FFD1
:1012000047F06F0074FF48F060001FF1E6FF6000D8
:1012100023F1E6FFDEEC99F03D503E10D8B422D029
:10122000020EE66E000EE66EF80EE66EFF0EE66E3D
:10123000ED0E6F008FFFD9FFEE0E6F008FFFDAFF0C
:101240006F0078FF47F06F0074FF48F060001FF1F7
:10125000E6FF600023F1E6FFDEEC99F03D503E1022
:10126000D8A469D0F10E6F008FFFD9FFF20E6F0086
:101270008FFFDAFF020EDE26000EDD22EF0E6F007A
:101280008FFFD9FFF00E6F008FFFDAFF040EDE5ED6
:10129000000EDD5A6F0078FF47F06F0074FF48F0D2
:1012A00060001FF1D9FF600023F1DAFF6F0078FFC3
:1012B00045F06F0078FF46F06F0078FF47F06F0051
:1012C00078FF48F0600014F14DF0600018F14EF026
:1012D00060001CF14FF0600020F150F0516A50BEE8
:1012E0005168600044F152F0600044F153F0600036
:1012F00044F154F0F50E600037F1E3FFF60E6000A4
:101300003BF1E3FFF70E60003FF1E3FFF80E6000F2
:1013100043F1E3FFF90E600047F1E3FFFA0E6000CE
:101320004BF1E3FFFB0E60004FF1E3FFFC0E6000AA
:1013300053F1E3FF2AD7F10E6F008FFFD9FFF20EB2
:101340006F008FFFDAFF6F007BFFF6FF6F0077FF04
:10135000F7FF000EF86E0800F550730AD8A442D0CB
:10136000F10E6F008FFFD9FFF20E6F008FFFDAFFD3
:10137000DE2A000EDD22EF0E6F008FFFD9FFF00E88
:101380006F008FFFDAFF020EDE5E000EDD5A6F0087
:1013900078FF47F06F0074FF48F060001FF1D9FF3D
:1013A000600023F1DAFF6F0078FF47F06F0074FFF1
:1013B00048F0FE0E600023F1E3FFFD0E60001FF118
:1013C000E3FFFD0E6F008FFFE6FF6F008FFFE6FF6C
:1013D000F10E6F008FFFE6FF6F008FFFE6FFA9ECB5
:1013E00093F069D0F10E6F008FFFD9FFF20E6F00FE
:1013F0008FFFDAFF6F007BFFF6FF6F0077FFF7FFCD
:10140000000EF86E0800F550250AD8A41AD0F10E87
:101410006F008FFFD9FFF20E6F008FFFDAFFDE2A19
:10142000000EDD22F30E6F008FFFE6FF6F008FFFCF
:10143000E6FF250EE66E000EE66E3DEC9CF0010E1A
:101440000CD0F10E6F008FFFD9FFF20E6F008FFFEF
:10145000DAFFDE2A000EDD22000E3D6E000E3E6E2B
:101460002AD0F30E6F008FFFE6FF6F008FFFE6FFBD
:10147000EF0E6F008FFFD9FFF00E6F008FFFDAFFC6
:101480006F007BFFF6FF6F0077FFF7FF000EF86E2F
:101490000800F550E66E000EE66E3DEC9CF0F10E95
:1014A0006F008FFFD9FFF20E6F008FFFDAFFDE2A89
:1014B000000EDD22C4D7EF0EE126FF0EE22212005D
:1014C000E65223D227ECAAF03D50D8B443D24EECDA
:1014D000A6F0FF0E6000F7F0E3FFFF0E6F008CFF39
:1014E0003DF0050E3D18D8A435D2BEA402D0010EA1
:1014F00001D0000EFF0A486E48464846BE504818C4
:10150000FB0B4818BE6E0A0E6F00A0FF2AF5FD0EF9
:101510006F008FFFD9FFFE0E6F008FFFDAFF010E05
:10152000D6D12E6A650E236E050E246E040EE66E6D
:1015300010ECA6F0D00EE66E070EE66E020EE66E1A
:101540006DECA6F0FD0E6F008FFFD9FFFE0E6F0051
:101550008FFFDAFF020EBBD1020EE66EC3ECA8F0DD
:101560003D50D8B427D021EE34F1DE2A000EDD2222
:101570005D065D28D8A414D00C0E6F00A0FF2AF5DC
:1015800021EE39F1DF50F00B0109DF6EFD0E6F0027
:101590008FFFD9FFFE0E6F008FFFDAFF050E97D188
:1015A000FD0E6F008FFFD9FFFE0E6F008FFFDAFF79
:1015B000000E8DD127ECAAF03D50D8B4CBD14EEC23
:1015C000A6F0FF0E6000F7F0E3FF2E50D8A41CD069
:1015D000FF0E6F008CFFC6F0010EE66E000EE66E89
:1015E00048ECA7F02E2A2E50235C476E000E24589C
:1015F000486E010E4724D96E010E4820DA6EFF0EA8
:101600006F008FFFDFFFA6D10B0E2E600CD02E5087
:101610001908D96E000ED8A0E82A0108DA6EFF0E6C
:101620006F008FFFDFFF0B0E2E18D8A407D0FF0E20
:101630006F008CFF48F0600020F13AF50C0E2E1878
:10164000D8A407D0FF0E6F008CFF48F0600020F197
:101650003BF50D0E2E18D8A407D0FF0E6F008CFF9F
:1016600048F0600020F13CF50E0E2E18D8A407D0EB
:10167000FF0E6F008CFF48F0600020F13DF50F0E6B
:101680002E18D8A407D0FF0E6F008CFF48F0600022
:1016900020F13EF5100E2E18D8A407D0FF0E6F00D3
:1016A0008CFF48F0600020F13FF5110E2E18D8A4F1
:1016B00007D0FF0E6F008CFF48F0600020F140F56E
:1016C000120E2E18D8A407D0FF0E6F008CFF48F022
:1016D000600020F141F5130E2E18D8A407D0FF0E9C
:1016E0006F008CFF48F0600020F142F5140E2E18B8
:1016F000D8A407D0FF0E6F008CFF48F0600020F1E7
:1017000043F52E500001C65DD8A00DD0000EE66E48
:10171000FE0EE350E66E48ECA7F06000F4F02EF504
:101720006000F8F02FF52E50476E486A0001C65150
:10173000456E466A010E4526000E46224750451862
:1017400009E148504618D8A405D0FF0EE350010126
:101750000E6F0D6B2E50476E486A0001C651456EE4
:10176000466A020E4526000E4622475045180AE1F9
:1017700048504618D8A406D0FF0EE35001010D27AB
:10178000000E0E232E2A2E50235C476E000E245886
:10179000486E010E4724D96E010E4820DA6EFF0E06
:1017A0006F008FFFDFFF2E50476E486A0001C65161
:1017B000456E466A020E4526000E46224750455C9D
:1017C0004650800A3D6E4850800A3D58D8B0C2D07D
:1017D00021EE2EF101010D51DE1810E10E51DE183F
:1017E000D8A40CD0FD0E6F008FFFD9FFFE0E6F0046
:1017F0008FFFDAFF030E6BD04EECA6F027ECAAF0B9
:101800003D50D8A4F9D7F40EE66E010EE66E8BECCF
:10181000A6F00F0E6F00A0FF2AF521EE32F1DE2AAE
:10182000000EDD2221EE39F1DF50F00B0209ADD6BA
:10183000010116517F0B486E600020F128F521EE62
:1018400029F1600057F4DFFF20EE0FF16F0078FF01
:1018500020F56F0078FF21F56F0078FF22F56F000B
:1018600074FF23F521EE38F118BF02D0DF9001D0CC
:10187000DF8021EE38F1010116BF02D0DF9201D0E6
:10188000DF8221EE38F1010114BF02D0DF9401D0D4
:10189000DF8421EE29F1DF50E66E21EE28F1DF50E2
:1018A000E66E37EC9FF06000F4F0F8F3060EE66E9B
:1018B00010ECA6F021EE39F1F00EDF16FD0E6F00F0
:1018C0008FFFD9FFFE0E6F008FFFDAFF040EDF6E71
:1018D00041D0150EE66E10ECA6F0FD0E6F008FFFE6
:1018E000D9FFFE0E6F008FFFDAFF060EDF6E02D00B
:1018F0004EECA6F03750D8A4FBD7030E5D6E2AD06D
:1019000021EE39F1F00EDF164BD6FD0E6F008FFF82
:10191000D9FFFE0E6F008FFFDAFFDF50476E486A77
:101920004850000AD8A43CD64750000AD8B4CAD5BB
:10193000010AD8B4F6D5030AD8B40ED6010AD8B431
:1019400077D7070AD8B4DCD7010AD8B4C2D7030ABC
:10195000D8A426D6FD0E6F008FFFD9FFFE0E6F00B4
:101960008FFFDAFFDF503D6EE552E552E55212007F
:10197000120EE126000EE222E40EE124D96EFF0EE3
:10198000E220DA6E080E3D6EF00E6F007BFFE3FF83
:10199000E8283D2EFAD7F70EE3AE02D0010E01D0B3
:1019A000000E476E486AFA0E60001FF1E3FFFB0E5F
:1019B000600023F1E3FFFA0E6F008CFF3DF0FB0E99
:1019C000E3503D10D8B425D0F00EE36CF10EE31EC9
:1019D000F20EE31EF30EE31EF40EE31EF50EE31EFD
:1019E000F60EE31EF70EE31E14E3F10EE32A11E3F5
:1019F000F20EE32A0EE3F30EE32A0BE3F40EE32ADE
:101A000008E3F50EE32A05E3F60EE32A02E3F70EF8
:101A1000E32A20AE219220BE05D0205010E11F0401
:101A2000D8B00DD0010E476E000E486EFE0E60005D
:101A30001FF1E3FFFF0E600023F1E3FF08D0FE0E6D
:101A400060007FF0E3FFFF0E600083F0E3FFFC0E19
:101A5000600077F0E3FFFD0E60007BF0E3FFFA0E1D
:101A60006F008CFF3DF0FB0EE3503D10D8A402D078
:101A700021A40AD0E150FC0FD96EE250DA6EFF0EBD
:101A8000DA22DE06000EDD5A1F0E476E000E486E8B
:101A9000F80E60001FF1E3FFF90E600023F1E3FF91
:101AA0000101D76B09D1E150F80FD96EE250DA6E1F
:101AB000FF0EDA22DE06000EDD5A0A0EE66E000E7A
:101AC000E66E000EE66E000EE66E000EE66E000E8E
:101AD000E66E000EE66E000EE66EE150E80FD96E7F
:101AE000E250DA6EFF0EDA226F007BFFE6FF6F0036
:101AF0007BFFE6FF6F007BFFE6FF6F007BFFE6FFEB
:101B00006F007BFFE6FF6F007BFFE6FF6F007BFF50
:101B1000E6FF6F007BFFE6FFBEEC98F0E5526F003A
:101B20009CFF54F0E5526F009CFF53F0E5526F00AC
:101B30009CFF52F0E5526F009CFF51F0E5526F00A0
:101B40009CFF50F0E5526F009CFF4FF0E5526F0094
:101B50009CFF4EF0E5526F009CFF4DF0F80EE12621
:101B6000FF0EE222600034F147F0600038F148F0E7
:101B700060001FF1E6FF600023F1E6FF6AECA5F0CC
:101B8000300E3D26F80E6F008CFF47F0F90E6F0007
:101B90008CFF48F0B80E4724D96E010E4820DA6E4B
:101BA0006000F7F0DFFFE150FE0FD96EE250DA6E11
:101BB000FF0EDA22DE06000EDD5AE150FC0FD96E70
:101BC000E250DA6EFF0EDA22DE06000EDD5A0A0E51
:101BD000E66E000EE66E000EE66E000EE66E000E7D
:101BE000E66E000EE66E000EE66E000EE66EE1504A
:101BF000E80FD96EE250DA6EFF0EDA226F007BFF3B
:101C0000E6FF6F007BFFE6FF6F007BFFE6FF6F00E4
:101C10007BFFE6FF6F007BFFE6FF6F007BFFE6FFC9
:101C20006F007BFFE6FF6F007BFFE6FF08EC95F09F
:101C3000E5526F009CFF54F0E5526F009CFF53F09B
:101C4000E5526F009CFF52F0E5526F009CFF51F08F
:101C5000E5526F009CFF50F0E5526F009CFF4FF083
:101C6000E5526F009CFF4EF0E5526F009CFF4DF077
:101C7000F80EE126FF0EE222F00E600037F1E3FFDE
:101C8000F10E60003BF1E3FFF20E60003FF1E3FF75
:101C9000F30E600043F1E3FFF40E600047F1E3FF51
:101CA000F50E60004BF1E3FFF60E60004FF1E3FF2D
:101CB000F70E600053F1E3FFF90EE3BE36D0F90EE4
:101CC000E35004E1F80EE304D8A02FD0F00EE35067
:101CD00015E1F10EE35012E1F20EE3500FE1F30EC5
:101CE000E3500CE1F40EE35009E1F50EE35006E198
:101CF000F60EE35003E1F70EE350D8A4D4D6FF0E5E
:101D0000E3BE07D0FF0EE35003E1FE0EE304D8B0BC
:101D1000CAD6FD0EE3BE09D0FD0EE35004E1FC0E71
:101D2000E304D8A002D021B2BED6FA0E6F008CFF19
:101D30003DF0FB0EE3503D10D8A402D021A433D0D7
:101D4000E150F80FD96EE250DA6EFF0EDA22DE06AD
:101D5000000EDD5AFA0E6F008CFF3DF0FB0EE350D3
:101D60003D10D8A402D02B0E01D02D0E476E000ED0
:101D7000486EEE0E60001FF1E3FFEF0E600023F1EE
:101D8000E3FFF80E6F008CFF47F0F90E6F008CFF39
:101D900048F0B80E4724D96E010E4820DA6EEE0ED8
:101DA0006F008FFFDFFFFC0E6F008FFFE6FF6F00FD
:101DB0008FFFE6FFB80E476E010E486EF60EE35039
:101DC0004726F70EE350482260001FF1E6FF60004F
:101DD00023F1E6FFE80E6F008FFFE6FF6F008FFF35
:101DE000E6FFCFEC9CF0E40EE126FF0EE2221200AB
:101DF000050EE126000EE2220A0E6F00A0FF2BF571
:101E000021EE39F1DF98079081D1670E016E026AE9
:101E10000F0E036E20C56BF021C56CF022C56DF06E
:101E200023C56EF020C502F121C503F122C504F1DE
:101E300023C505F10780000E046E010E056E0D0E20
:101E4000066E21EE39F1DF887DD1000E016E010EA4
:101E5000026E0D0E036E20C502F121C503F122C5ED
:101E600004F123C505F16ED1990E016E026A110EBF
:101E7000036E20C59FF021C5A0F022C5A1F023C5A7
:101E8000A2F060D1850E016E026A140E036E20C5A9
:101E90008EF021C58FF022C590F023C591F020C5AA
:101EA0007AF021C57BF022C57CF023C57DF0078048
:101EB000760E046E056A0F0EC3D7760E016E026AA7
:101EC0000F0E036E20C57AF021C57BF022C57CF091
:101ED00023C57DF037D11A0E016E010E026E0D0E74
:101EE000036E20C51CF121C51DF122C51EF123C5BD
:101EF0001FF1110E6F00A0FF2BF524D1F90EE35056
:101F0000476E486A4850000AD8A4E5D74750010AEE
:101F1000D8B47BD7030AD8B498D7010AD8B4A4D7C9
:101F20000E0AD8B4AFD7030AD8B4C7D7D4D79B0EFC
:101F3000016E010E026E1D0E036E20C5ADF121C5AE
:101F4000AEF122C5AFF123C5B0F1FCD08B0E016E0E
:101F5000010E026E100E036E20C590F121C591F1A5
:101F600022C592F123C593F1EDD0F90EE350476EEF
:101F7000486A4850000AD8A4AED74750110AD8B4CE
:101F8000D6D7080AD8B4E2D7A6D77B0E016E010EC9
:101F9000026E100E036E20C580F121C581F122C5AD
:101FA00082F123C583F1CED0F90EE350476E486A23
:101FB0004850000AD8A48FD74750010AD8B4E5D7B3
:101FC0008AD75B0E016E010E026E100E036E20C5E5
:101FD00060F121C561F122C562F123C563F1B2D080
:101FE000F90EE350476E486A4850000AD8A473D7E8
:101FF00047500B0AD8B4E5D76ED7F90EE350476EB9
:10200000486A4850000AD8A466D74750010AD8B495
:1020100099D0020AD8B496D0060AD8B493D0020A4E
:10202000D8B490D00E0AD8B48DD0020AD8B48AD0D1
:10203000060AD8B487D04FD76B0E016E010E026E20
:10204000100E036E20C570F121C571F122C572F129
:1020500023C573F120C5B3F321C5B4F322C5B5F38D
:1020600023C5B6F3B80EE66E0B0EE66E070EE66EEF
:102070006DECA6F021EE5EF1DF8027D00780BE0E6A
:10208000046E030E056E380E066E5AC5E6F3D9D6F9
:102090000780860E046E030E056E380E066E5AC556
:1020A000AEF3CFD621EE39F1DFBC03D0486A482A1F
:1020B00001D0486A21EE39F1483A48464846DF5097
:1020C0004818BF0B4818DF6E3DD0F4EC9FF03D5030
:1020D000476E486A4850000AD8A434D04750000AD6
:1020E000D8B4D6D7010AD8B4C9D7040AD8B4DAD735
:1020F00029D0F90EE350476E486A4850000AD8A428
:10210000EAD64750010AD8B497D7E5D6FA0EE3507D
:10211000476E486A4850000AD8A4DDD64750010AE5
:10212000D8B4ECD6030AD8B420D7070AD8B43CD721
:10213000030AD8B455D70F0AD8B45FD7030AD8B466
:10214000D8D7C9D620EE01F0070E3D6EF90E6F000C
:102150007BFFE3FFE8283D2EFAD71200E65250D16C
:102160000A0E6F00A0FF2AF5030E2D6E050EE66E17
:1021700010ECA6F0D00EE66E070EE66E020EE66ECE
:102180006DECA6F0FD0E6F008FFFD9FFFE0E6F0005
:102190008FFFDAFF010E32D1020EE66EC3ECA8F01B
:1021A0003D50D8B426D021EE34F1DE2A000EDD22D7
:1021B0002D062D28D8A414D00C0E6F00A0FF2AF5F0
:1021C00021EE38F1DF50870B0809DF6EFD0E6F003E
:1021D0008FFFD9FFFE0E6F008FFFDAFF050E0ED1C5
:1021E000D00EE66E070EE66E020EE66E6DECA6F001
:1021F0002CD127ECAAF03D50D8B427D14EECA6F054
:10220000FF0E6000F7F0E3FFFF0E6F008CFF3DF064
:10221000040E3D18D8A412D0880EE66E130EE66E9A
:10222000030EE66E6DECA6F0FD0E6F008FFFD9FF7A
:10223000FE0E6F008FFFDAFF020EDF6EFF0E6F00E3
:102240008CFF3DF0050E3D18D8A4FFD0040EE66EBD
:1022500033ECA7F0FD0E6F008FFFD9FFFE0E6F006D
:102260008FFFDAFF040ECAD02C50D8A413D021EE71
:1022700029F1DF50E66E21EE28F1DF50E66EF8EC32
:102280008EF020EED3F0060EE5526F009FFFDBFFCD
:10229000E806FAE26100AFF4E8FF110AD8A41FD003
:1022A000010EE66E000EE66E0001D551E66E60008E
:1022B0004FF3E6FF600053F3E6FF48EC96F021EEA3
:1022C00038F1DF50870B1009DF6EFD0E6F008FFFB6
:1022D000D9FFFE0E6F008FFFDAFF060E8FD02C5055
:1022E000D8A416D0010EE66E000EE66E0001D551A0
:1022F000E66E60004FF3E6FF600053F3E6FF48EC44
:1023000096F021EE39F1DFA816D0010E2C6E13D015
:102310002C6A21EE39F1DF98010EE66E000EE66EB2
:102320000001D851E66E60005BF3E6FF60005FF3EA
:10233000E6FF48EC96F06100ABF4E8FF0A0AD8A487
:102340000AD0FD0E6F008FFFD9FFFE0E6F008FFFCA
:10235000DAFF030E53D021EE38F1DF50870B180956
:10236000B3D7030EE66EC3ECA8F03D50D8B40FD03F
:1023700021EE34F1DE2A000EDD220D0E6F00A0FFEB
:102380002AF521EE38F1DF50870B20091ED727EC04
:10239000AAF03D50D8B459D04EECA6F0FF0E600024
:1023A000F7F0E3FFFF0E6F008CFF3DF0060E3D18C7
:1023B000D8A44BD021EE38F1870EDF164BD7FD0E97
:1023C0006F008FFFD9FFFE0E6F008FFFDAFF060E42
:1023D000DF6E02D04EECA6F03750D8B436D0FAD724
:1023E00021EE38F1870EDF1630D0FD0E6F008FFF23
:1023F000D9FFFE0E6F008FFFDAFF000EDF6E25D0D3
:10240000FD0E6F008FFFD9FFFE0E6F008FFFDAFF0A
:10241000DF50476E486A4850000AD8A4E6D74750B4
:10242000000AD8B49DD6010AD8B4B6D6030AD8B4E7
:102430001BD7010AD8B495D7070AD8B4D1D7010A57
:10244000D8B4BDD7030AD8A4D0D7FD0E6F008FFF34
:10245000D9FFFE0E6F008FFFDAFFDF503D6EE552B1
:10246000E552E5521200E652E652E652E652FA0E04
:102470006F008CFF47F0FB0E6F008CFF48F0FD0EE5
:10248000600023F1E3FFFC0E60001FF1E3FFF60E96
:102490006F008CFF3DF0F70EE3503D10D8B454D1DF
:1024A000FC0E6F008FFFD9FFFD0E6F008FFFDAFF6C
:1024B000F80E6F008FFFDFFFFC0E6F008CFF47F000
:1024C000FD0E6F008CFF48F0F60EE3504726F70E26
:1024D000E3504822FF0E4724D96EFF0E4820DA6EE3
:1024E000F80E6F008FFFDFFFF70EE35008E1F60EE6
:1024F0006F008CFF3DF0030E3D5ED8A025D1FC0E91
:102500006F008CFF47F0FD0E6F008CFF48F0010E4E
:102510004724D96E000E4820DA6EF80E6F008FFF48
:10252000DFFFFC0E6F008CFF47F0FD0E6F008CFF8D
:1025300048F0020E4724D96E000E4820DA6EF80EDD
:102540006F008FFFDFFFFC0E6F008CFF47F0FD0E6A
:102550006F008CFF48F0F60EE3504726F70EE3506D
:102560004822FE0E4724D96EFF0E4820DA6EF80E80
:102570006F008FFFDFFFFC0E6F008CFF47F0FD0E3A
:102580006F008CFF48F0F60EE3504726F70EE3503D
:102590004822FD0E4724D96EFF0E4820DA6EF80E51
:1025A0006F008FFFDFFFF70EE35008E1F60E6F00BC
:1025B0008CFF3DF0070E3D5ED8A0C6D0FC0E6F002C
:1025C0008CFF47F0FD0E6F008CFF48F0030E472490
:1025D000D96E000E4820DA6EF80E6F008FFFDFFF15
:1025E000FC0E6F008CFF47F0FD0E6F008CFF48F073
:1025F000F60EE3504726F70EE3504822FC0E472420
:10260000D96EFF0E4820DA6EF80E6F008FFFDFFFE5
:10261000F70EE35008E1F60E6F008CFF3DF0090E57
:102620003D5ED8A091D0FC0E6F008CFF47F0471E96
:10263000FD0E6F008CFF48F0481E472AD8B4482A88
:10264000030E4716000E4816FE0E60001FF1E3FF52
:10265000FF0E600023F1E3FFFC0EE3503D6EFE0E23
:10266000E3503D26FC0E6000F7F0E3FFFD0EE35063
:102670003D6EFF0EE3503D22FD0E6000F7F0E3FFDC
:10268000F60EE3503D6EFE0EE3503D5EF60E60002A
:10269000F7F0E3FFF70EE3503D6EFF0EE3503D5AB7
:1026A000F70E6000F7F0E3FFFC0E476EFF0E486E7A
:1026B000F60E6F008CFF3DF047503D16F60E6000A1
:1026C000F7F0E3FFF70E6F008CFF3DF048503D162A
:1026D000F70E2ED0FC0E6F008FFFD9FFFD0E6F009E
:1026E0008FFFDAFFF80E6F008FFFDFFFF60E6F002F
:1026F0008CFF3DF0010E3D5EF60E6000F7F0E3FF4B
:10270000F70E6F008CFF3DF0000E3D5AF70E600093
:10271000F7F0E3FFFC0EE350010F3D6EFC0E60008E
:10272000F7F0E3FF3D6AFD0EE3503D203D6EFD0EE8
:102730006000F7F0E3FFF60E6F008CFF3DF0F70E40
:10274000E3503D10D8A4C6D7F60EE126FF0EE222D4
:102750001200110EE126000EE22220EE60F0070EBC
:102760003D6EEF0E6F007BFFE3FFE8283D2EFAD7AA
:10277000EB0E6F008CFF47F0EC0E6F008CFF48F003
:10278000FB0E600023F1E3FFFA0E60001FF1E3FF90
:10279000FA0E6F008CFF3DF0FB0EE3503D10D8A405
:1027A0000ED0EF0EE124476EFF0EE220486EFB0EC6
:1027B000600023F1E3FFFA0E60001FF1E3FFFA0E61
:1027C0006F008FFFE6FF6F008FFFE6FF9DECA1F02B
:1027D000F60E6000F7F0E3FFF70E6000FBF0E3FF9A
:1027E000F80E60007FF0E3FFF90E600083F0E3FF76
:1027F000F90EE3BE23D0E150F80FD96EE250DA6E45
:10280000FF0EDA22F60EE350DE5CDE50800A3D6EEB
:10281000F70EE350800A3D58D8B010D0F80E6F0084
:102820008CFF3DF0F60E6000F7F0E3FFF90E6F004D
:102830008CFF3DF0F70E6000F7F0E3FFF60E6F003F
:102840008CFF3DF0F80E6000F7F0E3FFF70E6F002D
:102850008CFF3DF0F90E6000F7F0E3FFFC0E600026
:1028600077F0E3FFFD0E60007BF0E3FF21A01FD0B7
:1028700031D0ED0E6F008FFFE6FF6F008FFFE6FF98
:10288000200EE66E000EE66E3DEC9CF0F60EE35078
:10289000010F3D6EF60E6000F7F0E3FF3D6AF70EA4
:1028A000E3503D203D6EF70E6000F7F0E3FFE1508E
:1028B000F60FD96EE250DA6EFF0EDA22FC0EE3500C
:1028C000DE5CDE50800A3D6EFD0EE350800A3D580E
:1028D000D8A0CFD7FE0EE36AFF0EE36A45D0ED0E17
:1028E0006F008FFFE6FF6F008FFFE6FFF80E6F00AF
:1028F0008FFFF6FFF90E6F008FFFF7FF000EF86EE7
:102900001F0EF76403D00800F55007D06F00DBFFFF
:10291000E9FF6F00DFFFEAFFEF50E66E000EE66EA4
:102920003DEC9CF0FA0EE350010F3D6EFA0E600094
:10293000F7F0E3FF3D6AFB0EE3503D203D6EFB0EDA
:102940006000F7F0E3FFFE0EE350010F3D6EFE0E58
:102950006000F7F0E3FF3D6AFF0EE3503D203D6E5F
:10296000FF0E6000F7F0E3FFE150FE0FD96EE2507A
:10297000DA6EFF0EDA22F80EE350DE5CDE50800ADB
:102980003D6EF90EE350800A3D58D8A0A8D721B07B
:102990001FD031D0ED0E6F008FFFE6FF6F008FFF6D
:1029A000E6FF200EE66E000EE66E3DEC9CF0F60EA5
:1029B000E350010F3D6EF60E6000F7F0E3FF3D6A55
:1029C000F70EE3503D203D6EF70E6000F7F0E3FF99
:1029D000E150F60FD96EE250DA6EFF0EDA22FC0EED
:1029E000E350DE5CDE50800A3D6EFD0EE350800A4F
:1029F0003D58D8A0CFD7F60E6F008CFF3DF0F70EF4
:102A00006F008CFF3EF0EB0EE126FF0EE22212007B
:102A10000A0EE126000EE222FE0EE36AED0EE3AEA0
:102A200028D0E60EE36CE70EE31EE80EE31EE90E87
:102A3000E31EEA0EE31EEB0EE31EEC0EE31EED0EAC
:102A4000E31E14E3E70EE32A11E3E80EE32A0EE3A4
:102A5000E90EE32A0BE3EA0EE32A08E3EB0EE32A8E
:102A600005E3EC0EE32A02E3ED0EE32AFE0EE36A31
:102A7000E32AF50EE3AE27D0EE0EE36CEF0EE31E75
:102A8000F00EE31EF10EE31EF20EE31EF30EE31E44
:102A9000F40EE31EF50EE31E14E3EF0EE32A11E33A
:102AA000F00EE32A0EE3F10EE32A0BE3F20EE32A23
:102AB00008E3F30EE32A05E3F40EE32A02E3F50E3E
:102AC000E32AFE0EE370070E3D6EF60EE36AE82A77
:102AD0003D06FCE2E60EE35016E1E70EE35013E19B
:102AE000E80EE35010E1E90EE3500DE1EA0EE35089
:102AF0000AE1EB0EE35007E1EC0EE35004E1ED0ECA
:102B0000E350D8B488D0FF0EE36A12D0D890E60E16
:102B1000E336E70EE336E80EE336E90EE336EA0E77
:102B2000E336EB0EE336EC0EE336ED0EE336FF0E46
:102B3000E32AED0EE3AEEAD7D890F60EE336F70EB1
:102B4000E336F80EE336F90EE336FA0EE336FB0E03
:102B5000E336FC0EE336FD0EE336E150EE0FD96EA0
:102B6000E250DA6EFF0EDA22E60EE350DE5CE70E8C
:102B7000E350DE58E80EE350DE58E90EE350DE582D
:102B8000EA0EE350DE58EB0EE350DE58EC0EE35055
:102B9000DE58ED0EE350DE58D8A021D0E150EE0F04
:102BA000D96EE250DA6EFF0EDA22E60EE350DE5EF8
:102BB000E70EE350DE5AE80EE350DE5AE90EE3502A
:102BC000DE5AEA0EE350DE5AEB0EE350DE5AEC0E0C
:102BD000E350DE5AED0EE350DE5AF60EE380D89055
:102BE000ED0EE332EC0EE332EB0EE332EA0EE332AB
:102BF000E90EE332E80EE332E70EE332E60EE332AB
:102C0000FF0EE3503D6E010E3D5EFF0E6000F7F0DB
:102C1000E3FFD8A491D7FE0EE350D8B425D0F60E2A
:102C2000E36CF70EE31EF80EE31EF90EE31EFA0E38
:102C3000E31EFB0EE31EFC0EE31EFD0EE31E14E37B
:102C4000F70EE32A11E3F80EE32A0EE3F90EE32A66
:102C50000BE3FA0EE32A08E3FB0EE32A05E3FC0E7E
:102C6000E32A02E3FD0EE32AF60EE124D96EFF0EFD
:102C7000E220DA6E080E3D6EEE0E6F007BFFE3FF82
:102C8000E8283D2EFAD7F60EE126FF0EE2221200CA
:102C9000050EE126000EE222F90E6F008CFF47F0D0
:102CA000FA0E6F008CFF48F0FC0E600023F1E3FF8A
:102CB000FB0E60001FF1E3FF21EE1CF1DE2A000E87
:102CC000DE22DE22DE220A0E6F00A0FF2AF5F80EB9
:102CD000E350476E486AFB0EE3504726FC0EE35074
:102CE0004822FF0E4724D96EFF0E4820DA6EDF50CF
:102CF000476E486AFD0E456EFF0E466EF80EE350B5
:102D0000436E446A45504326465044224750431878
:102D100004E148504418D8B405D0120E6F00A0FF4B
:102D20002AF5EFD0FD0E476EFF0E486EF80EE35009
:102D3000456E466A4750452648504622600017F1C6
:102D4000E6FF60001BF1E6FFF90EE350020F476E4D
:102D5000FA0E6F008CFF48F0000E482260001FF151
:102D6000E6FF600023F1E6FFCEEC9EF0FD0E600072
:102D7000F7F0E3FFFE0E6000FBF0E3FFFB0E6F00D9
:102D80008FFFD9FFFC0E6F008FFFDAFFFD0E6F0083
:102D90008FFFDFFFFE0EE124D96EFF0EE220DA6E18
:102DA000FB0E6F008CFF47F0FC0E6F008CFF48F0AD
:102DB000010E4724E96E000E4820EA6E6F007FFF87
:102DC000EFFFE150FD0FD96EE250DA6EFF0EDA220E
:102DD0006F0078FF30F56F0074FF31F582D01BEC87
:102DE000AAF03F0E3D64FBD7F80E6F008CFF3DF05C
:102DF000FF0E6000F7F0E3FFFF0EE350D8B481D080
:102E0000F70EE350D8B415D0FF0EE350476E486A72
:102E1000FB0EE3504726FC0EE3504822FF0E4724EA
:102E2000D96EFF0E4820DA6EDF50E66E1EECA7F07A
:102E300014D0FF0EE350476E486AFB0EE35047265E
:102E4000FC0EE3504822FF0E4724D96EFF0E4820A7
:102E5000DA6EDF50E66EF1ECA5F0FF0EE306CCD79C
:102E60001FECAAF03F0E3D64FBD7F80E6F008CFFFD
:102E70003DF0FF0E6000F7F0E3FFFF0EE350D8B423
:102E800040D0F70EE350D8B415D0FF0EE350476E94
:102E9000486AFB0EE3504726FC0EE3504822FF0E23
:102EA0004724D96EFF0E4820DA6EDF50E66E33EC11
:102EB000A7F014D0FF0EE350476E486AFB0EE350B4
:102EC0004726FC0EE3504822FF0E4724D96EFF0E22
:102ED0004820DA6EDF50E66E10ECA6F0FF0EE30637
:102EE000CCD7F60EE350476E486A4850000AD8A483
:102EF000B7D74750010AD8B4B3D7030AD8B46FD7AD
:102F0000AFD7F60EE126FF0EE2221200000000000D
:102F100000000000000000000000000000000000B1
:102F200000000000000000000000000000000000A1
:102F30000000000000000000000000000000000091
:102F40000000000000000000000000000000000081
:102F50000000000000000000000000000000000071
:102F60000000000000000000000000000000000061
:102F70000000000000000000000000000000000051
:102F80000000000000000000000000000000000041
:102F90000000000000000000000000000000000031
:102FA0000000000000000000000000000000000021
:102FB0000000000000000000000000000000000011
:102FC0000000000000000000000000000000000001
:102FD00000000000000000000000000000000000F1
:102FE00000000000000000000000000000000000E1
:102FF00000000000000000000000000000000000D1
:1030000000000000000000000000000000000000C0
:1030100000000000000000000000000000000000B0
:1030200000000000000000000000000000000000A0
:103030000000000000000000000000000000000090
:103040000A00140000000000000000000000002042
:103050000000000000000000000000000000000070
:103060000000000000000000000000000000000060
:10307000000000000000000000012D000000000022
:103080000000000000000000000000000000000040
:103090000000000000000000000000000000000030
:1030A0000000000000000000000000000000000020
:1030B0000000000000000000000000000000000010
:1030C0000000000000000000000000000000000000
:1030D00000000000000000000000000000000000F0
:1030E00000000000000000000000000000000000E0
:1030F00000000000000000000000000000000000D0
:1031000000000000000000000000000000000000BF
:1031100000000000000000000000000000000000AF
:10312000000000000000000000000000000000009F
:10313000000000000000000000000000000000008F
:10314000000000000000000000000000000000007F
:10315000000000000000000000000000000000006F
:10316000000000000000000000000000000000005F
:1031700000010000000180038A0000FEE652E652D2
:10318000FE0EE36AFD0EE3AE28D0F60EE36CF70EFA
:10319000E31EF80EE31EF90EE31EFA0EE31EFB0E0D
:1031A000E31EFC0EE31EFD0EE31E14E3F70EE32AFE
:1031B00011E3F80EE32A0EE3F90EE32A0BE3FA0E0D
:1031C000E32A08E3FB0EE32A05E3FC0EE32A02E30D
:1031D000FD0EE32AFE0EE36AE32AF50EE3AE25D0E8
:1031E000EE0EE36CEF0EE31EF00EE31EF10EE31E97
:1031F000F20EE31EF30EE31EF40EE31EF50EE31EC5
:1032000014E3EF0EE32A11E3F00EE32A0EE3F10ECE
:10321000E32A0BE3F20EE32A08E3F30EE32A05E3C5
:10322000F40EE32A02E3F50EE32AEE0EE35016E174
:10323000EF0EE35013E1F00EE35010E1F10EE35016
:103240000DE1F20EE3500AE1F30EE35007E1F40E54
:10325000E35004E1F50EE350D8B475D0FF0EE36AF5
:1032600012D0D890EE0EE336EF0EE336F00EE336D2
:10327000F10EE336F20EE336F30EE336F40EE336E8
:10328000F50EE336FF0EE32AF50EE3AEEAD7E15082
:10329000F60FD96EE250DA6EFF0EDA22EE0EE35030
:1032A000DE5CEF0EE350DE58F00EE350DE58F10E18
:1032B000E350DE58F20EE350DE58F30EE350DE58D2
:1032C000F40EE350DE58F50EE350DE58D8A01FD0C0
:1032D000E150F60FD96EE250DA6EFF0EDA22EE0EF2
:1032E000E350DE5EEF0EE350DE5AF00EE350DE5A9E
:1032F000F10EE350DE5AF20EE350DE5AF30EE350C5
:10330000DE5AF40EE350DE5AF50EE350DE5AD89042
:10331000F50EE332F40EE332F30EE332F20EE33253
:10332000F10EE332F00EE332EF0EE332EE0EE33253
:10333000FF0EE3503D6E010E3D5EFF0E6000F7F0A4
:10334000E3FFD8A4A4D7FE0EE350D8B425D0F60EE0
:10335000E36CF70EE31EF80EE31EF90EE31EFA0E01
:10336000E31EFB0EE31EFC0EE31EFD0EE31E14E344
:10337000F70EE32A11E3F80EE32A0EE3F90EE32A2F
:103380000BE3FA0EE32A08E3FB0EE32A05E3FC0E47
:10339000E32A02E3FD0EE32AF60EE124D96EFF0EC6
:1033A000E220DA6E080E3D6EF60E6F007BFFE3FF43
:1033B000E8283D2EFAD7E552E5521200E652E652D1
:1033C000E652E652FA0E6F008CFF47F0FB0E6F00DC
:1033D0008CFF48F0FF0E600023F1E3FFFE0E60005B
:1033E0001FF1E3FFF80E6F008CFF47F0F90E6F003E
:1033F0008CFF48F0FD0E600023F1E3FFFC0E60003F
:103400001FF1E3FFF60E6F008CFF3DF0010E3D5EF5
:10341000F60E6000F7F0E3FFF70E6F008CFF3DF053
:10342000000E3D5AF70E6000F7F0E3FFF60EE328BA
:103430003FE1F70EE328D8A43BD0000E3D6E000E0E
:103440003E6EB5D0FE0EE350010F3D6EFE0E6000E5
:10345000F7F0E3FF3D6AFF0EE3503D203D6EFF0EA7
:103460006000F7F0E3FFFC0EE350010F3D6EFC0E31
:103470006000F7F0E3FF3D6AFD0EE3503D203D6E36
:10348000FD0E6000F7F0E3FFF60E6F008CFF3DF0DD
:10349000010E3D5EF60E6000F7F0E3FFF70E6F00E1
:1034A0008CFF3DF0000E3D5AF70E6000F7F0E3FF91
:1034B000E150FE0FD96EE250DA6EFF0EDA226F0095
:1034C0007BFFF6FF6F0077FFF7FF000EF86E080036
:1034D000F5500009D8B444D0E150FC0FD96EE25049
:1034E000DA6EFF0EDA226F007BFFF6FF6F0077FFC8
:1034F000F7FF000EF86E0800F5500009D8B430D080
:10350000F60E6F008CFF3DF0F70EE3503D10D8B47F
:1035100027D0E150FE0FD96EE250DA6EFF0EDA22AC
:103520006F007BFFF6FF6F0077FFF7FF000EF86E6E
:1035300008006F00D4FF48F0E150FC0FD96EE25054
:10354000DA6EFF0EDA226F007BFFF6FF6F0077FF67
:10355000F7FF000EF86E0800F5504818D8B472D77F
:10356000E150FE0FD96EE250DA6EFF0EDA226F00E4
:103570007BFFF6FF6F0077FFF7FF000EF86E080085
:10358000F5503D6E3E6AE150FC0FD96EE250DA6EA6
:10359000FF0EDA226F007BFFF6FF6F0077FFF7FF69
:1035A000000EF86E0800F5503D5E000E3E5AF60E15
:1035B000E126FF0EE2221200E652E652E652E65201
:1035C000FC0EE36AFD0EE36A050E3D6EFF0E600021
:1035D000F7F0E3FF650E3D6EFE0E6000F7F0E3FFCF
:1035E000A5D0FE0E6F008CFF47F0FF0E6F008CFF22
:1035F00048F0FC0EE350475EFD0EE350485AFF0EC4
:103600004724D96E000E4820DA6EDF50E66EFB0EBE
:103610006F008FFFE6FF6F008FFFE6FF34ECA3F033
:10362000FC0EE350010F3D6EFC0E6000F7F0E3FF6F
:103630003D6AFD0EE3503D203D6EFD0E6000F7F04B
:10364000E3FFFC0EE304CDE1FD0EE304D8A4C9D7EB
:10365000520EE66EFF0EE66EDC0EE66E040EE66EB1
:10366000040EE66E59EC9DF021EE5EF1DF806DD028
:10367000FA0EE350476E486A4850000AD8A465D055
:103680004750010AD8B4ADD760D0FE0E6F008CFF52
:1036900047F0FF0E6F008CFF48F0FC0EE350475ED2
:1036A000FD0EE350485AFF0E4724D96E000E482005
:1036B000DA6EDF50E66EFB0E6F008FFFE6FF6F00E5
:1036C0008FFFE6FF34ECA3F0FC0EE350010F3D6EDC
:1036D000FC0E6000F7F0E3FF3D6AFD0EE3503D2075
:1036E0003D6EFD0E6000F7F0E3FFFC0EE304CDE15C
:1036F000FD0EE304D8A4C9D7630EE66EFF0EE66E96
:10370000DC0EE66E040EE66E040EE66E59EC9DF0DD
:10371000ABD7FA0EE350476E486A4850000AD8A467
:1037200014D04750290AD8B4B0D70FD0FB0EE350BD
:10373000476E486A4850000AD8A407D04750010A8B
:10374000D8B496D7030AD8B4E4D7FA0EE126FF0E10
:10375000E222120088ECA9F021EE5EF1DFB010D079
:10376000FC0E6F008FFFE6FF6F008FFFE6FFFC0E81
:10377000E350E66EFC0EE350E66EA6ECA6F078D0C1
:1037800021EE5AF1DF50E66E000EE66E9E0EE66EFA
:10379000FE0EE66EFC0EE66E030EE66E060EE66E9E
:1037A00059EC9DF0000E6F00A0FF0CF4FC0EE66ECD
:1037B000030EE66E000EE66E000EE66EA6ECA6F0B8
:1037C00021EE5DF1DF50E66E000EE66E21EE5CF15B
:1037D000DF50E66E000EE66E21EE5BF1DF50E66E26
:1037E000000EE66EEC0EE66EFE0EE66EFC0EE66E6B
:1037F000030EE66E0A0EE66E59EC9DF0000E6F00A9
:10380000A0FF0CF488ECA9F0FC0EE66E030EE66E49
:10381000000EE66E010EE66EA6ECA6F0DC0EE66E7D
:10382000040EE66EDC0EE66EFF0EE66EFC0EE66E35
:10383000030EE66E060EE66E59EC9DF0000E6F006C
:10384000A0FF0CF488ECA9F0FC0EE66E030EE66E09
:10385000000EE66E020EE66EA6ECA6F0070EE66E11
:10386000C3ECA8F03D50D8B403D021EE5EF1DF9058
:10387000E552E552E552E5521200FC0E6F008CFF56
:103880003DF0FD0EE3503D10D8B409D0FC0E6F00A2
:103890008CFF3DF0FD0EE3503D10D8A406D0FE0E87
:1038A000E350E66E96ECA9F075D0FC0E6F008CFF2D
:1038B00047F0FD0E6F008CFF48F0040E4724D96ED0
:1038C000000E4820DA6EDE50DE10D8B426D0FC0E92
:1038D0006F008CFF47F0FD0E6F008CFF48F0040E68
:1038E0004724D96E000E4820DA6EFC0E6F008CFF64
:1038F00047F0FD0E6F008CFF48F0020E4724E96E82
:10390000000E4820EA6EDE50EE5CEE50800A3D6EFE
:10391000DE50800A3D58D8B03DD0FC0E6F008CFFC1
:1039200047F0FD0E6F008CFF48F0020E4724D96E61
:10393000000E4820DA6E6F0078FF47F06F0074FFCA
:1039400048F0FC0E6F008FFFD9FFFD0E6F008FFF58
:10395000DAFF6F0078FF45F06F0074FF46F04750C4
:103960004524D96E48504620DA6EFE0E6F008FFF58
:10397000DFFFFC0E6F008CFF47F0FD0E6F008CFF29
:1039800048F0020E4724D96E000E4820DA6EDE2A77
:10399000000EDD22E552E552E552E5521200E652F4
:1039A000E652E652E65221A010D0FA0E6F008FFFC9
:1039B000E6FF6F008FFFE6FFF60E6F008FFFE6FF5A
:1039C0006F008FFFE6FFEEECA1F0F70EE3BE11D023
:1039D000F60E6F008CFF3DF0FC0E6000F7F0E3FF89
:1039E000F70E6F008CFF3DF0FD0E6000F7F0E3FF77
:1039F00004D0FC0EE36AFD0EE36AFE0EE36AFF0EDE
:103A0000E36A1ED0FA0E6F008FFFE6FF6F008FFF94
:103A1000E6FF200EE66E000EE66E3DEC9CF0FE0E1C
:103A2000E350010F3D6EFE0E6000F7F0E3FF3D6ACC
:103A3000FF0EE3503D203D6EFF0E6000F7F0E3FF08
:103A4000E150FE0FD96EE250DA6EFF0EDA22FC0E64
:103A5000E350DE5CDE50800A3D6EFD0EE350800ACE
:103A60003D58D8A0CFD721B010D0FA0E6F008FFFED
:103A7000E6FF6F008FFFE6FFF60E6F008FFFE6FF99
:103A80006F008FFFE6FFEEECA1F0F80E6F008FFFE6
:103A9000E6FF6F008FFFE6FF9DECA1F0FC0EE35008
:103AA0003D26FD0EE3503E22F60EE126FF0EE222F9
:103AB0001200080EE126000EE222FE0E476EFF0EF7
:103AC000486EF50EE124456EFF0EE220466E47502B
:103AD000452648504622FF0E60001BF1E3FFFE0E14
:103AE000600017F1E3FFF50E6F008CFF47F0F60E54
:103AF0006F008CFF48F0F90E600023F1E3FFF80E31
:103B000060001FF1E3FFFA0EE124D96EFF0EE22000
:103B1000DA6E000EDE6E000EDD6EFC0EE124D96E54
:103B2000FF0EE220DA6E000EDE6E000EDD6EFE0E7F
:103B3000E1243D6EFF0EE2203E6E6000F7F0E6FFEE
:103B40006000FBF0E6FFF10E6F008FFFE6FF6F00F5
:103B50008FFFE6FFF40EE1243D6EFF0EE2203E6E85
:103B60006000F7F0E6FF6000FBF0E6FF4CECA0F031
:103B7000FA0EE124D96EFF0EE220DA6E6F0078FFB4
:103B800047F06F0074FF48F0F50E6F008CFF45F0B2
:103B9000F60E6F008CFF46F047504524D96E485012
:103BA0004620DA6E000EDF6EF80EE126FF0EE222EE
:103BB000E552E750E15E000EE25A12000C0EF66E7E
:103BC0002F0EF76E010EF86E00EEF6F320EE70F297
:103BD00009006F00D7FFEEFFDD50D950F9E1DA5050
:103BE000F7E18E0EF66E450EF76E010EF86E00EEE2
:103BF00086F320EE70F009006F00D7FFEEFFDD5076
:103C0000D950F9E1300EF66E3F0EF76E010EF86EE8
:103C100000EE00F120EEB8F009006F00D7FFEEFFD4
:103C2000DD50D950F9E1FA0EF66E490EF76E010E2D
:103C3000F86E00EE60F020EE4AF009006F00D7FF4A
:103C4000EEFFDD50D950F9E1720EF66E540EF76EAC
:103C5000010EF86E09006F00D4FF5DF000EE00F376
:103C6000860EEE6AE806FDE100EE00F220EE00F1BD
:103C7000EE6ADD50D950FCE1DA50FAE100EEB8F11D
:103C8000200EEE6AE806FDE100EEAAF0470EEE6AAD
:103C9000E806FDE100EE01F03C0EEE6AE806FDE10B
:103CA000080ED56E000ED66E000ED76E000100EF26
:103CB00080F0430E0001CD6F030ECE6F000ECB6F70
:103CC000030ECC6F600037F3E6FF60003BF3E6FFC6
:103CD00084ECA7F060002FF3E6FF600033F3E6FF0B
:103CE00084ECA7F0BE80BC84300EE66E570EE66E04
:103CF000050EE66E000EE66E2DECA4F0390EE66EB3
:103D000070ECA7F01D0EE66E70ECA7F0500EE66E9C
:103D100070ECA7F06C0EE66E70ECA7F0760EE66E17
:103D200070ECA7F0380EE66E5CECA7F00F0EE66EB6
:103D300070ECA7F0010EE66E5CECA7F0020EE66EEA
:103D400070ECA7F0060EE66E70ECA7F01E0EE66EA5
:103D5000000EE66E000EE66E000EE66E2DECA4F090
:103D6000020E3D01166F400E156F830E146F1A93ED
:103D70003F0E3B01FD17FD9BFD51F90B0209FD6F45
:103D8000E70EFD17FD81430EF96F030EFA6F000E6B
:103D9000FB6FFC9B3D011A83BE901200E652E65277
:103DA000E652E652FE0EE36AFF0EE36AFC0EE36A99
:103DB000FD0EE36A39D0FC0E6F008CFF47F0FD0E5C
:103DC0006F008CFF48F0FA0E6F008CFF45F0FB0E81
:103DD0006F008CFF46F047504524D96E485046206E
:103DE000DA6EDF50486EFE0EE35048243D6EFE0E44
:103DF0006000F7F0E3FF3D6AFF0EE3503D22FF0E47
:103E00006000F7F0E3FFFC0EE350010F3D6EFC0E87
:103E10006000F7F0E3FF3D6AFD0EE3503D203D6E8C
:103E2000FD0E6000F7F0E3FFF80E6F008CFF47F027
:103E3000F90E6F008CFF48F0FC0E6F008CFF45F010
:103E4000FD0E6F008CFF46F04750455C48504658C9
:103E5000D8A0B1D7FE0E6F008CFF3DF0FF0E6F00B3
:103E60008CFF3EF0F80EE126FF0EE222120047D052
:103E7000040E2B18D8B408D0300EE66E750EE66E20
:103E8000060EE66E6DECA6F0040E2B6E000E33D01F
:103E9000010E2B6E0F0E2FD0020EF7D7030EF5D7A3
:103EA0002B50D8B4F5D73ED0FE0EE350476E486A8B
:103EB0004850000AD8A4F4D74750020AD8B4D8D73B
:103EC0000C0AD8B4E5D71E0AD8B4E6D7020AD8B48B
:103ED000E5D7E6D7050E2B6E610093F5E8FF2D0AB6
:103EE000D8A4D8D71FD0060EF6D72B50D8A41AD0F6
:103EF000010E2B6E2D0E6F00A0FF64F513D0FF0E88
:103F0000E350476E486A4850000AD8A4EED747509D
:103F1000010AD8B4C9D7040AD8B4DCD70C0AD8B47B
:103F2000E2D7E3D76000ACF03DF0E552E552120075
:103F30000000010000000180018100000A00000073
:103F40000000000000000000000A00000100000066
:103F50000180000100000A00000100000001800152
:103F60008100800A00000100000001801182000031
:103F70000A00000100000001800F8100000A00001B
:103F8000010000000180118100000A0000000121F1
:103F90000100000001800C0600000D00000001215E
:103FA000010000000180020A00000D000000012154
:103FB000010000000180020500000D0000FF01214A
:103FC0000100000001801A0200000D0000303130B5
:103FD00039313130383436303030300E4101000064
:103FE000000180120200001A1A0EE66EFF0EE66E45
:103FF000DC0EE66E040EE66E040EE66E59EC9DF0E5
:1040000040C55DF53EC55AF541C55BF542C55CF559
:1040100021EE5DF1DF50D8A403D0070E3D6E1200F3
:1040200061006FF5E8FF530AD8B406D061006FF560
:10403000E8FF730AD8A403D0000E3D6E12006100A1
:104040006FF5E8FF4C0AD8B406D061006FF5E8FFC1
:104050006C0AD8A403D0060E3D6E120061006FF505
:10406000E8FF4D0AD8B406D061006FF5E8FF6D0A8D
:10407000D8A403D0010E3D6E120061006FF5E8FF79
:10408000440AD8B406D061006FF5E8FF640AD8A4EA
:10409000D3D7050E3D6E1200E652E652FA0E6F00BF
:1040A0008CFF47F0FB0E6F008CFF48F0FF0E6000A6
:1040B00023F1E3FFFE0E60001FF1E3FF0001E76B59
:1040C000E86B21D0F80E6F008FFFE6FF6F008FFFC7
:1040D000E6FFFC0EE1243D6EFF0EE2203E6E600026
:1040E000F7F0E6FF6000FBF0E6FFF80E6F008FFFD1
:1040F000E6FF6F008FFFE6FFDAEC87F03D5000012E
:10410000E7273E50E823E150FE0FD96EE250DA6E09
:10411000FF0EDA226F007BFFF6FF6F0077FFF7FFDD
:10412000000EF86E0800F5500009D8A4CBD7600047
:104130009CF33DF06000A0F33EF0F80EE126FF0E88
:10414000E2221200FE0E6F008CFF47F0FF0E6F00A0
:104150008CFF48F0420E4724D96E000E4820DA6EDC
:10416000400EDF6040D0FE0E6F008CFF47F0FF0E68
:104170006F008CFF48F0400E4724D96E000E482097
:10418000DA6EDF50486EFE0E6F008CFF45F0FF0EBA
:104190006F008CFF46F048504524D96E000E462033
:1041A000DA6EFD0E6F008FFFDFFFFE0E6F008CFFDB
:1041B00047F0FF0E6F008CFF48F0400E4724D96E89
:1041C000000E4820DA6EDF2AFE0E6F008CFF47F0EB
:1041D000FF0E6F008CFF48F0420E4724D96E000E90
:1041E0004820DA6EDF2AE552E552E5521200BE821F
:1041F0002BECAAF0000EE66E600037F3E6FF6000DD
:104200003BF3E6FF3AECA2F0BC94FE0E6F008FFF8A
:10421000E6FF6F008FFFE6FF9DECA1F03E5004E14A
:10422000410E3D5CD8A010D0FE0E6F008CFF47F011
:10423000FF0E6F008CFF48F0400E4724D96E000E31
:104240004820DA6E000EDF6E3B01FC9FFE0E6F0011
:104250008FFFE6FF6F008FFFE6FF9DECA1F060008F
:10426000F7F0F7FB6000FBF0F8FB3B01FC8FFE0E64
:104270006F008FFFE6FF6F008FFFE6FFDC0EE66E3C
:10428000FF0EE66E040EE66ECDECA3F02EECAAF067
:10429000E552E5521200070EBE6EBD6ABA6ABF6AE9
:1042A000BB6A060EBC6EC66A0F0EC76E8F0EC26E5C
:1042B000BF0EC36E910EC46E0C0EC56E3A01706BCC
:1042C000010E606F380E506F806B0F0E906F8F0E67
:1042D000406FFC0E716FF00E916F816B870E516F06
:1042E000416B900E616F826B926B426B526B626B93
:1042F000726B4369536963697369070E836F9369CE
:104300000F0EE86F160E0E6F1E0E136F080EC06FA5
:104310000A0EC26F090EC16F170EE56F130EDE6F26
:10432000010E046F260E056F280E066F1F0E156F07
:10433000130E166F140EDF6F1200E652E652FC0EDB
:104340006F008CFF47F0FD0E6F008CFF48F0FF0EF2
:10435000600023F1E3FFFE0E60001FF1E3FF11D0C8
:10436000FC0EE350010F3D6EFC0E6000F7F0E3FF22
:104370003D6AFD0EE3503D203D6EFD0E6000F7F0FE
:10438000E3FFFC0E6F008FFFF6FFFD0E6F008FFF47
:10439000F7FF000EF86E1F0EF76403D00800F5500B
:1043A00007D06F00DBFFE9FF6F00DFFFEAFFEF5090
:1043B0000009D8A4D5D7FC0E6F008CFF3DF0FD0E90
:1043C0006F008CFF3EF0FE0EE3503D5EFF0EE350AB
:1043D0003E5AE552E552E552E5521200E652E652E7
:1043E000E652FD0EE36AFE0EE36A1FD0F90E6F007F
:1043F0008FFFE6FF6F008FFFE6FFFD0EE350E66ED6
:10440000000EE66E3DEC9CF0FD0EE350010F3D6E9C
:10441000FD0E6000F7F0E3FF3D6AFE0EE3503D2025
:104420003D6EFE0E6000F7F0E3FFFD0E6F008CFFA7
:1044300047F0FE0E6F008CFF48F0FB0E6F008CFF04
:1044400045F0FC0E6F008CFF46F047504524D96EB6
:1044500048504620DA6EDF50486EFF0E600023F1B0
:10446000E3FFFF0EE350D8A4C1D7F90EE126FF0EFB
:10447000E2221200FE0E6F008CFF47F0FF0E6F006D
:104480008CFF48F0420E4724D96E000E4820DA6EA9
:10449000000EDF6EFE0E6F008CFF47F0FF0E6F0008
:1044A0008CFF48F0400E4724D96E000E4820DA6E8B
:1044B000000EDF6EFE0E6F008CFF47F0FF0E6F00E8
:1044C0008CFF48F0410E4724D96E000E4820DA6E6A
:1044D000000EDF6EFD0EE350D8B411D0400EE66E34
:1044E000000EE66E000EE66E000EE66EFA0E6F002F
:1044F0008FFFE6FF6F008FFFE6FF33EC92F0E5528F
:10450000E552E5521200E652E6521D501E10D8A4A4
:1045100009D0FE0E600077F0E3FFFF0E60007BF035
:10452000E3FF16D0FF0E476EFF0E486E600074F07A
:1045300045F0600078F046F0475045264850462246
:10454000FE0E600017F1E3FFFF0E60001BF1E3FFBA
:10455000FB0E6F008CFFB8F10101B96BFE0E6F000E
:104560008FFFE6FF6F008FFFE6FFB80EE66E010ECD
:10457000E66EF80E6F008FFFE6FF6F008FFFE6FF1D
:10458000CFEC9CF0FB0EE126FF0EE22212000000B1
:104590004B4F4F5242424242343332314445323122
:1045A000534B4F4F52424242423430303332314407
:1045B0004552462301410101210201010000000191
:1045C00080038A0000350000004F4B4F4F5242429B
:1045D00042423433323144453231534B5242180156
:1045E0004100333231444552460701410201010185
:1045F000210201010000000180058A000035000E43
:104600003B01F96F100EFA6F000EFB6F3D0EF16F5C
:10461000110EF06F030EFD6F000EF86F010EF76FB5
:10462000000EEF6F010EEE6F150EFF6FFE6B39017E
:10463000A293A291A297A29592839281928792854A
:10464000F16B010EF26F040EF36F020EF46F030EA6
:10465000F76FD29E3901550EEF6FAA0EEF6FEF8103
:10466000D28E3B01FC6B1200E652D2AE03D0486AF8
:10467000482A01D0486AFF0E600023F1E3FFFE0ED6
:10468000E124D96EFF0EE220DA6EDF50030B390110
:10469000E16FFD0E6F008FFFE0F9FC0E6F008FFFE2
:1046A000E3F93F0EE517E585D29E550EE66FAA0E9B
:1046B000E66FE583E5B3FED7E595FF0EE3B002D0E4
:1046C000D29E01D0D28EE552E552E552E55212005B
:1046D000E652D28AD2AE03D0486A482A01D0486A4C
:1046E000FF0E600023F1E3FFD29E550ED46EAA0E9A
:1046F000D46ED49038019F6B9E6B080E9D6F550E43
:10470000D46EAA0ED46ED480FF0EE3B002D0D29E37
:1047100001D0D28E39018287828382818285868709
:1047200086858389838781818581878B8981888D2F
:104730008185E5521200390193977A0EE66E520E8A
:10474000E66E010EE66ED4ECA7F039019399E40E03
:10475000E66E4D0EE66E010EE66EC0ECA7F03D0172
:10476000EC6BED6BEE6BEF6BF06BF16BB00EF26F11
:10477000800EF36FF46B820EF56F060EF66FF76B1B
:10478000F86BF96BFA6B3C6A3B6A400E3A6E396A19
:10479000386A376A390193871200E652E652FB0EF7
:1047A000E124476EFF0EE220486EFF0E600023F109
:1047B000E3FFFE0E60001FF1E3FFFE0EE1243D6EFD
:1047C000FF0EE2203E6E6000F7F0E6FF6000FBF0B7
:1047D000E6FFF90E6F008FFFE6FF6F008FFFE6FF29
:1047E000000EE66E000EE66E4CECA0F0E552E552CF
:1047F000E552E750E15E000EE25A1200390196954B
:104800009A0EE66E520EE66E010EE66EACECA7F066
:1048100039019697100EE66E4E0EE66E010EE66EAC
:1048200098ECA7F03D01D46BD66BD86BB00EDA6F65
:10483000800EDB6FDC6B820EDD6F060EDE6FDF6BD2
:10484000E06BE16BE26B366A356A400E346E336AB8
:10485000326A316A3901968512000001DA6BDB6B2E
:10486000DC6BDD6B09D000F00400010E0001DA27DB
:10487000000EDB23DC23DD23FC0E6F008CFF3DF0FC
:10488000DA513D5CFD0E6F008CFF3DF0DB513D5871
:10489000FE0E6F008CFF3DF0DC513D58FF0E6F00A7
:1048A0008CFF3DF0DD513D58D8B0DDD7E552E552E3
:1048B000E552E5521200BE822BECAAF0000EE66E25
:1048C000600037F3E6FF60003BF3E6FF3AECA2F04E
:1048D000BC92BC943B01FC9F000EF86F010EF76F79
:1048E000FC8FFF0EE350E66E000EE66EFB0EE66EEA
:1048F000FF0EE66E040EE66ECDECA3F02EECAAF0F1
:0A49000088ECA9F0BC82E552120019
:10490C00600020F1F3F013EEF0F23901A89D600085
:10491C00A7F0E6FF6000ABF0E6FFD1ECA5F021EECE
:10492C0064F1DF500001F16FF26B050EF127000E00
:10493C00F223274A282AF151275CF2512858D8A093
:10494C0004D0E7ECA8F0276A286A6000CCF348F0A2
:10495C00110021EE36F1DE2A000EDD22020E6F0070
:10496C00A0FFF6F321EE38F1870EDF16000E6F0074
:10497C00A0FFFBF321EE2CF1DF50D8A409D0010EDF
:10498C006F00A0FF28F5020E6F00A0FF29F51200A2
:10499C00010E6F00A0FF28F50E0E6F00A0FF29F589
:1049AC0012003901A191D2906A0EE66E540EE66E99
:1049BC00010EE66E4CECA8F039019181A591D292D2
:1049CC006C0EE66E540EE66E010EE66E38ECA8F038
:1049DC0039019581A79BD2946E0EE66E540EE66E4D
:1049EC00010EE66E24ECA8F03901978B1200286EAC
:1049FC00756C6C29000000000101000000018002B0
:104A0C000100000C000000010100000001800D817C
:104A1C0000000C0000000100012102010100000057
:104A2C0001800E0100001100000041110101000085
:104A3C00000180040100000E3E01DE6BDF6BE06BB9
:104A4C00E16BE46BE56BEA6BEC6BF16BF36BF46BAA
:104A5C00F56BF66BF76BF96BFA6BFB6BFC6B020E81
:104A6C00FD6FFE6BFF6B940EF86F3901A19591856C
:104A7C00700EE66E540EE66E010EE66E60ECA8F05B
:104A8C0012009B6A9C6A010E9D6E630E996EC00E9D
:104A9C00986E98506F0064FE3DF03E6A6000F4F032
:104AAC003EF03D6A3D10296E3E502A6E3901A89D9C
:104ABC00988D620EE66E530EE66E010EE66E10ECED
:104ACC00A8F0310E9A6E1200FF0EE3BE07D0FF0E57
:104ADC00E35012E1FE0EE304D8B00ED0FE0E6F00D0
:104AEC008CFF3DF03D1EFF0E6F008CFF3EF03E1E16
:104AFC003D2AD8B43E2A08D0FE0E6F008CFF3DF044
:104B0C00FF0E6F008CFF3EF0E552E5521200E652AC
:104B1C00FF0EE36AFF0EE350020DF350AA0FD96E9D
:104B2C00DA6ADE50DE10D8B40AD0FF0EE350020D64
:104B3C00F350AA0FD96EDA6ADE06000EDD5AFF0EAC
:104B4C00E32AFF0E6F008CFF3DF0070E3D64E2D7A9
:104B5C00E552120068ECA3F0D4ECA9F04BECA1F0F8
:104B6C00C9ECA9F022ECA5F06CECA9F0D7ECA4F000
:104B7C00E8ECA7F0F9ECA8F047ECA5F07AECA9F07A
:104B8C009BECA3F0FEECA3F0BEECA9F0FFECA2F0C2
:104B9C0005ECAAF012009AA40FD09A90FF0EE12413
:104BAC00D96EFF0EE220DA6EDF50996EFE0E6F00AA
:104BBC008FFF98FF9A800CD0FF0EE124D96EFF0E68
:104BCC00E220DA6EDF50996EFE0E6F008FFF98FFB9
:104BDC00E552E55212003450D8B4FDD7390196B7DE
:104BEC0005D0FF0E6F008FFFD2FD11D09697400EAF
:104BFC003624D96EDA6A020EDA22FF0E6F008FFFAE
:104C0C00DFFF362A3F0E366401D0366A34069687AB
:104C1C00E55212003A50D8B4FDD7390193B905D0FA
:104C2C00FF0E6F008FFFEAFD11D09399C00E3C244C
:104C3C00D96EDA6A020EDA22FF0E6F008FFFDFFFE9
:104C4C003C2A3F0E3C6401D03C6A3A069389E552FB
:104C5C001200E6523150D8B4FDD7000E3224D96E72
:104C6C00DA6A020EDA22DF50486EFF0E600023F182
:104C7C00E3FF322A3F0E326401D0326A3901969535
:104C8C0031069685FF0E6F008CFF3DF0E552120049
:104C9C00E6523750D8B4FDD7800E3824D96EDA6A74
:104CAC00020EDA22DF50486EFF0E600023F1E3FFA4
:104CBC00382A3F0E386401D0386A39019397370689
:104CCC009387FF0E6F008CFF3DF0E5521200FD0E36
:104CDC006F008CFF47F0FE0E6F008CFF48F0D890F1
:104CEC004734456E4834466EFF0EE350020DF350C8
:104CFC00AA0FD96EDA6A600017F1DEFF60001BF1B3
:104D0C00DDFFE552E552E5521200FE0E6F008FFFFB
:104D1C00E6FF6F008FFFE6FF000EE66E6DECA6F06F
:104D2C0005D000F000F000F000F00400000EE66E7C
:104D3C00C3ECA8F03D50D8B4F4D7E552E5521200BC
:104D4C00FE0E6F008CFF48F0FF0EE350100DF35079
:104D5C004824800FE66E5BECA4F0FC0E6F008FFF16
:104D6C00E6FF6F008FFFE6FFF7ECA0F0E552E5528F
:104D7C00E552E5521200FE0EE350FF0F476EFF0E98
:104D8C006F008CFF48F0FF0E482260001CF1E9F028
:104D9C00600020F1EAF00001EB6BEC6BED6BEE6B5D
:0A4DAC00EF6BF06BE552E5521200C8
:104DB80013EEF0F23901A1950001E451E511E61175
:104DC800D8B4110001D811000500FA6EE451FD6E47
:104DD800E551FE6EE651FF6EFA501200400E3A6041
:104DE80010D0C00E3B24D96EDA6A020EDA22DF50E8
:104DF8003D01EA6F3B2A3F0E3B6401D03B6A3A2AE9
:104E08001200390193991200400E346010D0400E00
:104E18003524D96EDA6A020EDA22DF503D01D26FEC
:104E2800352A3F0E356401D0356A342A120039011B
:104E38009697120039019695000E3324D96EDA6AD6
:104E4800020EDA22FF0E6F008FFFDFFF332A3F0EBC
:104E5800336401D0336A312A9685E552120039014C
:104E68009397800E3924D96EDA6A020EDA22FF0E81
:104E78006F008FFFDFFF392A3F0E396401D0396A8E
:104E8800372A9387E5521200FE0EE350D8B402D0B9
:104E9800256A266AFF0EE3502526000E26226000AA
:104EA80094F03DF0600098F03EF0E552E5521200B3
:104EB800BC92BC94FF0EE350E66E5DECA9F0200EA8
:104EC800E66E030EE66E000EE66E000EE66E2DEC44
:104ED800A4F0BC82E5521200BC92BC94FF0EE350D1
:104EE800E66E5DECA9F01E0EE66E000EE66E000E94
:104EF800E66E000EE66E2DECA4F0BC82E5521200C0
:104F0800430EE66E000EE66E000EE66E000EE66ECE
:104F1800FA0E6F008FFFE6FF6F008FFFE6FF33EC9E
:104F280092F0E552E5521200E150FD0FD96EE250C1
:104F3800DA6EFF0EDA226F0078FF0EF06F0078FF4E
:104F48000FF06F0074FF10F0E552E552E5521200C1
:104F5800E150FD0FD96EE250DA6EFF0EDA226F00D3
:104F680078FF11F06F0078FF12F06F0074FF13F0F4
:104F7800E552E552E5521200E150FD0FD96EE250BC
:104F8800DA6EFF0EDA226F0078FF08F06F0078FF04
:104F980009F06F0074FF0AF0E552E552E55212007D
:104FA800E150FD0FD96EE250DA6EFF0EDA226F0083
:104FB80078FF0BF06F0078FF0CF06F0074FF0DF0B6
:104FC800E552E552E5521200010E966E956A976A0F
:104FD800030E936E926A3901A99199811A0EE66EB1
:104FE8004B0EE66E010EE66EFCECA7F0946812001C
:104FF800E150FD0FD96EE250DA6EFF0EDA226F0033
:1050080078FFE1F06F0078FFE2F06F0074FFE3F0E3
:10501800E552E552E5521200E150FD0FD96EE2501B
:10502800DA6EFF0EDA226F0078FFDEF06F0078FF8D
:10503800DFF06F0074FFE0F0E552E552E552120030
:10504800E150FD0FD96EE250DA6EFF0EDA226F00E2
:1050580078FF14F06F0078FF15F06F0074FF16F0FA
:10506800E552E552E5521200E150FD0FD96EE250CB
:10507800DA6EFF0EDA226F0078FF17F06F0078FF04
:1050880018F06F0074FF19F0E552E552E55212006E
:10509800E150FD0FD96EE250DA6EFF0EDA226F0092
:1050A80078FF1AF06F0078FF1BF06F0074FF1CF098
:1050B800E552E552E5521200E150FD0FD96EE2507B
:1050C800DA6EFF0EDA226F0078FFE4F06F0078FFE7
:1050D800E5F06F0074FFE6F0E552E552E552120084
:1050E80013EEF0F2085009100A10D8B4110001D8D4
:1050F80011000500FA6E0850FD6E0950FE6E0A5048
:06510800FF6EFA501200D8
:1051100013EEF0F20B500C100D10D8B4110001D8A2
:1051200011000500FA6E0B50FD6E0C50FE6E0D5016
:06513000FF6EFA501200B0
:1051380013EEF0F20E500F101010D8B4110001D871
:1051480011000500FA6E0E50FD6E0F50FE6E1050E5
:06515800FF6EFA50120088
:1051600013EEF0F2115012101310D8B4110001D840
:1051700011000500FA6E1150FD6E1250FE6E1350B4
:10518000FF6EFA5012000400FF0EE350020DF350C0
:10519000AA0FD96EDA6ADE50DE10D8A402D0010E52
:1051A00001D0000E3D6EE55212000001E151E21106
:1051B000E311D8B4120001D812000500FA6EE151D3
:1051C000FD6EE251FE6EE351FF6EFA5012000001D7
:1051D000DE51DF11E011D8B4120001D81200050031
:1051E000FA6EDE51FD6EDF51FE6EE051FF6EFA5039
:1051F00012003C01756B040E766F040E776F040E7F
:10520000786F040E796F7A6B7B6B7C6B7D6B810E94
:10521000746F12001A501B101C10D8B4120001D861
:1052200012000500FA6E1A50FD6E1B50FE6E1C50E7
:10523000FF6EFA501200175018101910D8B412004F
:1052400001D812000500FA6E1750FD6E1850FE6E60
:105250001950FF6EFA501200145015101610D8B4E1
:10526000120001D812000500FA6E1450FD6E1550A0
:10527000FE6E1650FF6EFA501200800E3924D96E61
:10528000DA6A020EDA226F00A3F7DFFF392A3F0E37
:10529000396401D0396A372A1200000E3324D96EDE
:1052A000DA6A020EDA226F0043F7DFFF332A3F0E7D
:1052B000336401D0336A312A1200010E3D01126FAE
:1052C000FF0E6F008FFF11FD3901A2A9FDD76F00FE
:1052D00040F43DF0E55212003F013E6B3F6B3A6BEC
:1052E000396B386B060E3D6FC70E3C6FAE0E3B6FD1
:1052F0003E8F12003C01FA99FB81FB93FB89FB9BDB
:10530000130EFC6F0E0EFE6F040EFD6FFA8F12006F
:105310000001C7B7FDD7320EE66E000EE66E000E36
:10532000E66E000EE66E2DECA4F01200FF0EE350C8
:10533000E66E600037F3E6FF60003BF3E6FFA2ECA9
:06534000A0F0E55212008E
:105348006000F4F05EF013EEF0F23901A991D5ECAB
:10535800A8F0600078F13DF01100BEA002D0010E67
:1053680001D0000EFF0A486EBE504818FE0B4818C0
:10537800BE6E1200400E3D01156F030E166F4F0EE4
:10538800196F1C6B830E146F1200200E3901D96F30
:10539800DB6BDD6B020EDF6FDE6BDCB11200FDD75D
:1053A8003901C06BC16BC26BC36BC46BC56BC66B79
:1053B800C76B120013EEF0F23901A2910001C797F2
:1053C800BE921100FF0EE350E66E5BECA4F0E552CE
:0253D8001200C1
:0E53DC0013EEF0F23901A1910AECA9F01100D4
:0E53EC0013EEF0F23901A5911BECA9F01100AF
:1053FC0013EEF0F23901A79B2CECA9F011003C0143
:10540C00E66B940EE56F120013EEF0F23901A293E5
:02541C0011007D
:0A54200013EEF0F23901A29711001B
:10542C0013EEF0F23901A29511006000D0F03DF0BE
:10543C0012006000E8F03DF012006000C4F03DF096
:10544C0012006000DCF03DF012000001C787120072
:06545C003B01FC8D120073
:0F54640013EEF0F21100120012001200120003FA
:020000040020DA
:10000000FF0FFF0FFF0FFF0FFF0FFF0FFF0FFF0F80
:020000040030CA
:0A000000AFFDFFFF9FFFFFFFFFFFB2
:00000001FF
