:020000040000FA
:0400000057EF00F0C6
:10000800E815E815E815E815E815E815E815E81500
:10001800B515E8154B13BA10E815E815E815E815F5
:10002800B915C515CB15C815E815E815E815E8156F
:10003800E815E815E815C914E815E815E815E815F0
:10004800E815E815E815E8152B00E815E815E81592
:100058001E13E815E815E815E815E815E815E8157C
:10006800E815E815DD14D314E815E815B404E81507
:10007800E815E8152B00E815E815E8152B002B0006
:100088002B002B002B002B002B002B002E00E8153B
:10009800E714E815E815E8152B002B002B002B00BA
:0E00A800E815E815FF0013EEBEF108EF0EF0AC
:1000B8006F0060FF0FF06000B0F010F06000B4F067
:1000C80011F06000B8F012F06000BCF013F06000AE
:1000D800C0F014F06000C4F015F06000C8F016F02D
:1000E8006000CCF017F06000D0F018F06000D4F099
:1000F80019F06000D8F01AF06000DCF01BF0600026
:10010800F0F01CF06000F4F01DF06000F8F01EF054
:100118006000FCF01FF0600000F120F0600004F1C6
:1001280021F0600008F122F060000CF123F060007B
:1001380010F124F0600014F125F0600018F126F0A9
:1001480060001CF127F0600020F128F0600024F125
:1001580029F0600028F12AF060002CF12BF016EE4F
:10016800EAF13901A89D6000E3F2E6FF6000E7F2DA
:10017800E6FFFCEC25F00101C3510D6E0E6AC50EB9
:100188000D26000E0E220001B64BB72B0D50B65DA2
:100198000E50B759D8A005D005EC2AF00001B66B6F
:1001A800B76B6000ACF04BF06000A8F04AF060005C
:1001B800A4F049F06000A0F048F060009CF047F01F
:1001C800600098F046F0600094F045F0600090F010
:1001D80044F060008CF043F0600088F042F060006A
:1001E80084F041F0600080F040F060007CF03FF067
:1001F800600078F03EF0600074F03DF0600070F050
:100208003CF060006CF037F0600068F036F0600099
:1002180064F035F0600060F034F060005CF033F0BA
:10022800600058F032F0600054F031F0600050F097
:1002380030F060004CF02FF0600048F02EF06000C5
:1002480044F02DF0600040F02CF060003FF0D8FF43
:100258001100FF0EE350D8B411D00001AC6BAD6BA8
:100268000101AE6BAF6B0001BB6B6000BBF6E6FF34
:100278006000BFF6E6FFB9EC2AF0B8D023EED6F05E
:100288006F007BFFE6FF6F007BFFE6FF6F007BFFE1
:10029800E6FF6F007BFFE6FF85ECE0F0050E2C180B
:1002A800D8B414D023EED6F06F007BFFE6FF6F00C2
:1002B8007BFFE6FF6F007BFFE6FF6F007BFFE6FF3B
:1002C80085ECE0F0040E2C18D8A47CD023EE7AF04C
:1002D8006F007BFFE6FF6F007BFFE6FF6F007BFF91
:1002E800E6FF6F007BFFE6FF000EE66E000EE66E8F
:1002F800200EE66E420EE66EB7EC08F02CB062D027
:100308000001BB51D8A410D0010EBB6F23EEEAF058
:100318006F0078FFF6FC6F0078FFF7FC6F0078FF3E
:10032800F8FC6F0074FFF9FC000EE66E000EE66E36
:100338007A0EE66E430EE66E23EEEAF06F007BFF60
:10034800E6FF6F007BFFE6FF6F007BFFE6FF6F00B5
:100358007BFFE6FFB7EC08F02CB00DD00001AC4BEA
:10036800AD2B2D0EAC5D010EAD59D8A004D0010EF9
:10037800AD6F2C0EAC6F23EEEAF06F007BFFE6FF4B
:100388006F007BFFE6FF6F007BFFE6FF6F007BFFE0
:10039800E6FF000EE66E000EE66E7A0EE66E430E7F
:1003A800E66EB7EC08F02CB008D00101AE51AF11E1
:1003B800D8B403D0AE07D8A0AF07ACC0AEF1ADC07B
:1003C800AFF153D70101AE51AF11D8B403D0AE0786
:1003D800D8A0AF076000BBF6E6FF6000BFF6E6FFF7
:1003E800B9EC2AF00001AC6BAD6BBB6BE5521200A7
:1003F800060EE126000EE2226000E4F734F0600009
:10040800E8F735F06000ECF736F06000F0F737F009
:10041800FA0E6000D3F0E3FFFB0E6000D7F0E3FFB5
:10042800FC0E6000DBF0E3FFFD0E6000DFF0E3FF91
:10043800F60E6F008CFF34F0F70E6F008CFF35F06E
:10044800F80E6F008CFF36F0F90E6F008CFF37F056
:10045800FA0E6000D3F0E3FFFB0E6000D7F0E3FF75
:10046800FC0E6000DBF0E3FFFD0E6000DFF0E3FF51
:10047800FA0E6F008CFF34F0FB0E6F008CFF35F026
:10048800FC0E6F008CFF36F0FD0E6F008CFF37F00E
:10049800180E05D0D8903732363235323432E82E3D
:1004A800F9D76000D0F032F06000D4F033F0FF0EDE
:1004B8003216000E3316FE0E6000CBF0E3FFFF0E7F
:1004C8006000CFF0E3FFFE0E6F008CFF2CF0FF0EF4
:1004D800E3502C10D8A423D0FA0E6F008CFF34F010
:1004E800FB0E6F008CFF35F0FC0E6F008CFF36F0B2
:1004F800FD0E6F008CFF37F0D8903434306E3534F1
:10050800316E3634326E3734336E3050311032102B
:100518003310D8A402D0020E2ED0030E2CD0FE0E1B
:10052800E32828E1FF0EE350D8A424D0FA0E6F0088
:100538008CFF34F0FB0E6F008CFF35F0FC0E6F0063
:100548008CFF36F0FD0E6F008CFF37F0090ED89047
:100558003436353636363736E82EF9D73450351036
:1005680036103710D8A402D0010E01D0000E2C6E20
:100578002D6A04D0040E2C6E000E2D6EF60EE126A8
:10058800FF0EE2221200060EE126000EE222FE0E07
:10059800E36AF50EE3AE14D0F20EE36CF30EE31E3D
:1005A800F40EE31EF50EE31E08E3F30EE32A05E35B
:1005B800F40EE32A02E3F50EE32AFE0EE36AE32AC9
:1005C800F90EE3AE13D0F60EE36CF70EE31EF80E49
:1005D800E31EF90EE31E08E3F70EE32A05E3F80E1F
:1005E800E32A02E3F90EE32AFE0EE370FA0EE36A49
:1005F800FB0EE36AFC0EE36AFD0EE36AF20EE350BB
:100608000AE1F30EE35007E1F40EE35004E1F50EBE
:10061800E350D8B458D0FF0EE36A0AD0D890F20E4F
:10062800E336F30EE336F40EE336F50EE336FF0E4B
:10063800E32AF50EE3AEF2D7D890FA0EE336FB0EB6
:10064800E336FC0EE336FD0EE336E150F60FD96EC5
:10065800E250DA6EFF0EDA22F20EE350DE5CF30EA1
:10066800E350DE58F40EE350DE58F50EE350DE5842
:10067800D8A015D0E150F60FD96EE250DA6EFF0E11
:10068800DA22F20EE350DE5EF30EE350DE5AF40E89
:10069800E350DE5AF50EE350DE5AFA0EE380D890A6
:1006A800F50EE332F40EE332F30EE332F20EE332E8
:1006B800FF0EE3502C6E010E2C5EFF0E6000B3F0AF
:1006C800E3FFD8A4B9D7FE0EE350D8B411D0FA0E80
:1006D800E36CFB0EE31EFC0EE31EFD0EE31E08E3B7
:1006E800FB0EE32A05E3FC0EE32A02E3FD0EE32AF0
:1006F800FA0E6F008CFF2CF0FB0E6F008CFF2DF0B4
:10070800FC0E6F008CFF2EF0FD0E6F008CFF2FF09B
:10071800F20EE126FF0EE2221200010EE66E000E36
:10072800E66E33EC28F06000B3F0E6FF6000B7F047
:10073800E6FF000EE66E000EE66E33EC28F0600071
:10074800B3F0E6FF6000B7F0E6FFA60EE66EFF0E18
:10075800E66E010EE66E010EE66E080EE66EE6EC3B
:1007680011F05BEC2BF0010EE66E010EE66E000E4A
:10077800E66E000EE66EBCEC1DF0010EE66E010E94
:10078800E66E33EC28F06000B3F0E6FF6000B7F0E7
:10079800E6FF000EE66E010EE66E33EC28F0600010
:1007A800B3F0E6FF6000B7F0E6FFA60EE66EFF0EB8
:1007B800E66E010EE66E010EE66E080EE66EE6ECDB
:1007C80011F05BEC2BF0010EE66E010EE66E000EEA
:1007D800E66E010EE66EBCEC1DF0010EE66E020E32
:1007E800E66E33EC28F06000B3F0E6FF6000B7F087
:1007F800E6FF000EE66E020EE66E33EC28F06000AF
:10080800B3F0E6FF6000B7F0E6FFA60EE66EFF0E57
:10081800E66E010EE66E010EE66E080EE66EE6EC7A
:1008280011F05BEC2BF0010EE66E010EE66E000E89
:10083800E66E020EE66EBCEC1DF0010EE66E030ECF
:10084800E66E33EC28F06000B3F0E6FF6000B7F026
:10085800E6FF000EE66E030EE66E33EC28F060004D
:10086800B3F0E6FF6000B7F0E6FFA60EE66EFF0EF7
:10087800E66E010EE66E010EE66E080EE66EE6EC1A
:1008880011F05BEC2BF0010EE66E010EE66E000E29
:10089800E66E030EE66EBCEC1DF0B80EE66E0B0EAF
:1008A800E66E05EC27F012006000D3F1E6FF600069
:1008B800D7F1E6FF6000DBF1E6FF6000DFF1E6FF5D
:1008C800000EE66E000EE66E87ECCAF06000B3F02C
:1008D800E6FF6000B7F0E6FF6000BBF0E6FF6000EF
:1008E800BFF0E6FFF2EC24F06000B3F0E6FF600032
:1008F800B7F0E6FF6000BBF0E6FF6000BFF0E6FF80
:1009080091EC1AF06000B0F0DEFC6000B4F0DFFC9F
:100918006000B8F0E0FC6000BCF0E1FC000EE66EA0
:10092800000EE66E87ECCAF06000B0F074F060006C
:10093800B4F075F06000B8F076F06000BCF077F0C5
:100948006000E3F1E6FF6000E7F1E6FF6000EBF12D
:10095800E6FF6000EFF1E6FF000EE66E040EE66EBD
:1009680087ECCAF06000B3F0E6FF6000B7F0E6FF7E
:100978006000BBF0E6FF6000BFF0E6FFF2EC24F099
:100988006000B3F0E6FF6000B7F0E6FF6000BBF080
:10099800E6FF6000BFF0E6FF91EC1AF06000B0F0EF
:1009A800DAFC6000B4F0DBFC6000B8F0DCFC60004E
:1009B800BCF0DDFCE70EE66E1D0EE66EA70EE66ED9
:1009C8003B0EE66E23EEDAF06F007BFFE6FF6F006A
:1009D8007BFFE6FF6F007BFFE6FF6F007BFFE6FF14
:1009E800B7EC08F02CB010D0B00E6F00A0FFDAFC06
:1009F800030E6F00A0FFDBFC670E6F00A0FFDCFC9E
:100A08003C0E6F00A0FFDDFC000EE66E040EE66EE5
:100A180087ECCAF06000B0F078F06000B4F079F0CC
:100A28006000B8F07AF06000BCF07BF01200090EAC
:100A3800E126000EE222070E2C6EF70EE36AE82A82
:100A48002C06FCE2E70EE35016E1E80EE35013E152
:100A5800E90EE35010E1EA0EE3500DE1EB0EE3502E
:100A68000AE1EC0EE35007E1ED0EE35004E1EE0E6F
:100A7800E350D8B488D0FF0EE36A12D0D890E70EBE
:100A8800E336E80EE336E90EE336EA0EE336EB0E1C
:100A9800E336EC0EE336ED0EE336EE0EE336FF0EEC
:100AA800E32AEE0EE3AEEAD7D890F70EE336F80E57
:100AB800E336F90EE336FA0EE336FB0EE336FC0EA8
:100AC800E336FD0EE336FE0EE336E150EF0FD96E46
:100AD800E250DA6EFF0EDA22E70EE350DE5CE80E33
:100AE800E350DE58E90EE350DE58EA0EE350DE58D4
:100AF800EB0EE350DE58EC0EE350DE58ED0EE350FB
:100B0800DE58EE0EE350DE58D8A021D0E150EF0FAA
:100B1800D96EE250DA6EFF0EDA22E70EE350DE5E9F
:100B2800E80EE350DE5AE90EE350DE5AEA0EE350CF
:100B3800DE5AEB0EE350DE5AEC0EE350DE5AED0EB1
:100B4800E350DE5AEE0EE350DE5AF70EE380D890FB
:100B5800EE0EE332ED0EE332EC0EE332EB0EE3324F
:100B6800EA0EE332E90EE332E80EE332E70EE3324F
:100B7800FF0EE3502C6E010E2C5EFF0E6000B3F0EA
:100B8800E3FFD8A491D7F70EE124D96EFF0EE22037
:100B9800DA6E080E2C6EEF0E6F007BFFE3FFE8287D
:100BA8002C2EFAD7F70EE126FF0EE2221200E652AB
:100BB800E652E652E6523901689DA09D69510F0B35
:100BC800376E373A695137180F0B3718696F080EA7
:100BD8000001D66503D03901616B01D03901606B22
:100BE800688DA0ADFED7A09D689D600054F337F0D6
:100BF800FF0E3726373A695137180F0B3718696FC8
:100C080062516E008CF52CF02D6A6000B0F02DF06A
:100C18002C6A2C12000E2D12FC0E6000B3F0E3FFBC
:100C2800FD0E6000B7F0E3FF100E0001D6613AD068
:100C3800FF0E366EFF0E376E600058F335F0010E6A
:100C4800326E000E336E352A03D0D89032363336E2
:100C5800352EFBD73650322637503322FE0E600031
:100C6800CBF0E3FFFF0E6000CFF0E3FFFE0E6F0056
:100C78008CFF36F0FF0E6F008CFF37F0FC0E6F0014
:100C88008CFF2CF036502C16FC0E6000B3F0E3FFFE
:100C9800FD0E6F008CFF2CF037502C16FD0E6000F7
:100CA800B3F0E3FFFB0EE350D8B411D0FC0E6F0095
:100CB8008FFFE6FF6F008FFFE6FFEEEC17F0FC0EEC
:100CC8006000B3F0E3FFFD0E6000B7F0E3FFF90E3C
:100CD8006F008CFF36F0FA0E6F008CFF37F0FC0EB9
:100CE8006F008CFF2CF036502C1AFC0E6000B3F00D
:100CF800E3FFFD0E6F008CFF2CF037502C1AFD0E11
:100D08006000B3F0E3FFFC0E6F008CFF2CF0FD0ECB
:100D18006F008CFF2DF0F90EE126FF0EE222120083
:100D2800E652E652FA0E6F008CFF34F0FB0E6F00AD
:100D38008CFF35F0FC0E6F008CFF36F0FD0E6F0057
:100D48008CFF37F0180E05D0D8903732363235324E
:100D58003432E82EF9D7FE0E6000D3F0E3FFFE0E22
:100D6800E350D8A406D0000E2C6E2D6A2E6A2F6A86
:100D78008BD0FA0E6F008CFF34F0FB0E6F008CFFE7
:100D880035F0FC0E6F008CFF36F0FD0E6F008CFF07
:100D980037F0200E05D0D89037323632353234321B
:100DA800E82EF9D7FF0E6000D3F0E3FFFC0EE38EC8
:100DB800E150FA0FD96EE250DA6EFF0EDA22FF0E1A
:100DC800DE16FF0EDE16FF0EDE16000EDE16FE0E17
:100DD8006F008CFF2CF0960E2C5EFE0E6000B3F0B8
:100DE800E3FFFE0EE3AE14D0FE0EE350800A970F29
:100DF800D8A0B9D7D890FD0EE332FC0EE332FB0E33
:100E0800E332FA0EE332FE0EE32AD8B418D0F2D752
:100E1800FE0E6F008CFF2CF01F0E2C640CD0A3D795
:100E2800D890FA0EE336FB0EE336FC0EE336FD0EE1
:100E3800E336FE0EE306FE0EE350D8A4F1D7FF0E0C
:100E4800E350D8B411D0FA0EE36CFB0EE31EFC0E8F
:100E5800E31EFD0EE31E08E3FB0EE32A05E3FC0E8A
:100E6800E32A02E3FD0EE32AFA0E6F008CFF2CF052
:100E7800FB0E6F008CFF2DF0FC0E6F008CFF2EF028
:100E8800FD0E6F008CFF2FF0FA0EE126FF0EE22216
:100E98001200E652E652FE0EE36ABF9A20EE91F186
:100EA800580EDE240101956F020EDE20966F000EAB
:100EB800DE20976F000EDE20986FCC6B010EE727BF
:100EC800000EE823E923EA2300F000F000F000F028
:100ED80000F000F016D0CFA60ED00AD0FF0E6000AA
:100EE800DFF0E3FF27D0CFA406D002D0CDA603D0F1
:100EF800376A372AF3D7376AF1D7FF0EE36AE32A4E
:100F080019D0FE0EE350366E376A3750000AD8A45F
:100F1800F4D73650000AD8B4F0D7010AD8B4EDD7C0
:100F2800030AD8B4E0D7010AD8B4D5D7070AD8B489
:100F3800DDD7E3D7FF0EE350D8B418D0FE0EE35048
:100F4800050DAA0EF324D96E020EF420DA6EDE0423
:100F5800D8A449D0FE0EE350050DAA0EF324D96E8D
:100F6800020EF420DA6E000EDF6E3DD0FE0EE35066
:100F7800050DAA0EF324D96E020EF420DA6EDF50A6
:100F8800D8A431D0FE0EE350050DAA0EF324D96E75
:100F9800020EF420DA6E010EDF6E20EED3F1FE0EA3
:100FA800E350050DAB0EF324E96E020EF420EA6E51
:100FB8006F007BFFEEFF6F007BFFEEFF6F007BFF94
:100FC800EEFF6F007BFFEEFFFE0E6F008CFF37F029
:100FD800010E366E372A02D0D8903636372EFCD717
:100FE80036500201D213FE0EE32AFE0E6F008CFF6C
:100FF8002CF0050E2C6485D7BF8AE552E552120005
:10100800E652E652FE0EE36AFD0EE3AE14D0FA0E87
:10101800E36CFB0EE31EFC0EE31EFD0EE31E08E36D
:10102800FB0EE32A05E3FC0EE32A02E3FD0EE32AA6
:10103800FE0EE36AE32AF90EE3AE11D0F60EE36C76
:10104800F70EE31EF80EE31EF90EE31E08E3F70E93
:10105800E32A05E3F80EE32A02E3F90EE32AF60E83
:10106800E3500AE1F70EE35007E1F80EE35004E11C
:10107800F90EE350D8B44DD0FF0EE36A0AD0D890E9
:10108800F60EE336F70EE336F80EE336F90EE336DE
:10109800FF0EE32AF90EE3AEF2D7E150FA0FD96E4C
:1010A800E250DA6EFF0EDA22F60EE350DE5CF70E3F
:1010B800E350DE58F80EE350DE58F90EE350DE58E0
:1010C800D8A013D0E150FA0FD96EE250DA6EFF0EB5
:1010D800DA22F60EE350DE5EF70EE350DE5AF80E23
:1010E800E350DE5AF90EE350DE5AD890F90EE33297
:1010F800F80EE332F70EE332F60EE332FF0EE3505A
:101108002C6E010E2C5EFF0E6000B3F0E3FFD8A436
:10111800C4D7FE0EE350D8B411D0FA0EE36CFB0E20
:10112800E31EFC0EE31EFD0EE31E08E3FB0EE32A9E
:1011380005E3FC0EE32A02E3FD0EE32AFA0E6F0034
:101148008CFF2CF0FB0E6F008CFF2DF0FC0E6F0057
:101158008CFF2EF0FD0E6F008CFF2FF0F60EE126AF
:10116800FF0EE2221200E150FC0FD96EE250DA6E57
:10117800FF0EDA22000EDE14346E000EDE14356E19
:10118800800EDE14366E7F0EDE14376E3450351046
:1011980036103710D8A408D0FC0EE36AFD0EE36AB7
:1011A800FE0EE36AFF0EE36AE150F80FD96EE250D3
:1011B800DA6EFF0EDA22000EDE14346E000EDE1434
:1011C800356E800EDE14366E7F0EDE14376E3450A8
:1011D800351036103710D8A408D0F80EE36AF90E87
:1011E800E36AFA0EE36AFB0EE36AFF0EE3AE24D06D
:1011F800000E346E000E356E000E366E800E376EA1
:10120800FC0EE350345EFD0EE350355AFE0EE350FB
:10121800365AFF0EE350375AFC0E6000D3F0E3FF56
:10122800FD0E6000D7F0E3FFFE0E6000DBF0E3FF89
:10123800FF0E6000DFF0E3FFFB0EE3AE24D0000EEC
:10124800346E000E356E000E366E800E376EF80E58
:10125800E350345EF90EE350355AFA0EE350365A2D
:10126800FB0EE350375AF80E6000D3F0E3FFF90E97
:101278006000D7F0E3FFFA0E6000DBF0E3FFFB0E3F
:101288006000DFF0E3FFFF0EE37EFB0EE37EE1503C
:10129800FC0FD96EE250DA6EFF0EDA22F80EE35038
:1012A800DE5CF90EE350DE58FA0EE350DE58FB0E12
:1012B800E350DE58D8B002D02C9001D02C80F80E24
:1012C800E126FF0EE22212006F0060FFD8F06F00E7
:1012D800D8FFD9F06F00DCFFDAF06F00E0FFDBF039
:1012E8006F00D4FFDCF06000B0F0DDF06000B4F017
:1012F800DEF06000B8F0DFF06000BCF0E0F0600005
:10130800C0F0E1F06000C4F0E2F06000C8F0E3F083
:101318006000CCF0E4F06000D0F0E5F06000D4F0BC
:10132800E6F06000D8F0E7F06000DCF0E8F060007C
:10133800F0F0E9F06000F4F0EAF06000F8F0EBF0AB
:101348006000FCF0ECF0600000F1EDF0600004F1EA
:10135800EEF0600008F1EFF060000CF1F0F016EE2E
:10136800EAF13901A69D6000D3F2E6FF6000D7F2EA
:10137800E6FF1CEC26F00001B24BB32BB35104E19D
:10138800C50EB25DD8A005D017EC2AF00001B26BEB
:10139800B36B6000C0F343F06000BCF342F0600040
:1013A800B8F341F06000B4F340F06000B0F33FF0F0
:1013B8006000ACF33EF06000A8F33DF06000A4F3D9
:1013C8003CF06000A0F337F060009CF336F060005A
:1013D80098F335F0600094F334F0600090F333F044
:1013E80060008CF332F0600088F331F0600084F321
:1013F80030F0600080F32FF060007CF32EF0600086
:1014080078F32DF0600074F32CF0600073F3F5FFAF
:1014180060006FF3F8FF60006BF3F7FF600067F39D
:10142800F6FF600063F3D8FF1100FF0E6F008CFF1A
:101438002CF0030E2C16FF0E6000B3F0E3FF23EE32
:1014480064F0DFA004D0FF0EE350D8B49CD0FF0EA8
:10145800E350A00DF80EF324D96E090EF420DA6ECD
:10146800000EDF6EFF0EE350A00D200EF324D96EA0
:101478000A0EF420DA6E000EDF6EFF0EE350A00DA8
:10148800480EF324D96E0A0EF420DA6E000EDF6ED1
:10149800FF0EE350A00D700EF324D96E0A0EF4204F
:1014A800DA6E000EDF6E5BEC2BF0FF0EE350A00D42
:1014B800E40E366E090E376EF3503626F450372296
:1014C8006000DBF0E6FF6000DFF0E6FF000EE66E8E
:1014D800000EE66EBCEC1DF05BEC2BF0FF0EE3504B
:1014E800A00DE40E366E090E376E280E3626000E55
:1014F8003722F3503626F45037226000DBF0E6FF3F
:101508006000DFF0E6FF000EE66E010EE66EBCEC52
:101518001DF05BEC2BF0FF0EE350A00DE40E366ED1
:10152800090E376E500E3626000E3722F350362637
:10153800F45037226000DBF0E6FF6000DFF0E6FFE2
:10154800000EE66E020EE66EBCEC1DF05BEC2BF0B6
:10155800FF0EE350A00DE40E366E090E376E780EBE
:101568003626000E3722F3503626F4503722600014
:10157800DBF0E6FF6000DFF0E6FF000EE66E030E2C
:10158800E66EBCEC1DF0E5521200080EE126000ED6
:10159800E222070E2C6EF80EE36AE82A2C06FCE21B
:1015A800F00EE3A050D0F80EE3502C6EE80EE35096
:1015B8002C26F80E6000B3F0E3FFF90EE3502C6E12
:1015C800E90EE3502C22F90E6000B3F0E3FFFA0EA7
:1015D800E3502C6EEA0EE3502C22FA0E6000B3F0B2
:1015E800E3FFFB0EE3502C6EEB0EE3502C22FB0EB8
:1015F8006000B3F0E3FFFC0EE3502C6EEC0EE350FA
:101608002C22FC0E6000B3F0E3FFFD0EE3502C6EBD
:10161800ED0EE3502C22FD0E6000B3F0E3FFFE0E4A
:10162800E3502C6EEE0EE3502C22FE0E6000B3F059
:10163800E3FFFF0EE3502C6EEF0EE3502C22FF0E5B
:101648006000B3F0E3FFD890E80EE336E90EE33626
:10165800EA0EE336EB0EE336EC0EE336ED0EE33638
:10166800EE0EE336EF0EE336D890F70EE332F60EC1
:10167800E332F50EE332F40EE332F30EE332F20E08
:10168800E332F10EE332F00EE332F00EE35088E17C
:10169800F10EE35085E1F20EE35082E1F30EE350E0
:1016A8000CE1F40EE35009E1F50EE35006E1F60E05
:1016B800E35003E1F70EE350D8A472D7F80EE12403
:1016C800D96EFF0EE220DA6E080E2C6EF00E6F0057
:1016D8007BFFE3FFE8282C2EFAD7F80EE126FF0E51
:1016E800E2221200070EE126000EE222F90EE36A5A
:1016F800FA0EE36AA10E366E000E376EFD0E60001C
:10170800DBF0E3FFFE0E6000DFF0E3FF420E0201B4
:10171800A06F020E2C6EFC0E6000B3F0E3FF000E0B
:101728002C6EFB0E6000B3F0E3FF190E9F6F570E8F
:101738009E6F97EC1EF0BAEC2BF0F90E6F008CFF41
:1017480036F0FA0E6F008CFF37F0FB0E6F008CFF3F
:1017580034F0FC0E6F008CFF35F036503424D96E0F
:1017680037503520DA6EDF50E66EF80E6F008FFFC7
:10177800E6FF6F008FFFE6FFA9EC21F0F90E6F007E
:101788008CFF36F0FA0E6F008CFF37F0FB0E6F00FF
:101798008CFF34F0FC0E6F008CFF35F0365034248B
:1017A800D96E37503520DA6EDF50E66E12EC2BF02A
:1017B8003CEC2BF02C50D8A4FBD7FD0E6F008CFF0F
:1017C80036F0FE0E6F008CFF37F0F90EE350010F74
:1017D8002C6EF90E6000B3F0E3FF2C6AFA0EE350AA
:1017E8002C202C6EFA0E6000B3F0E3FFF90E6F00A8
:1017F8008CFF34F0FA0E6F008CFF35F03650345CF5
:1018080037503558D8A099D7000EE66E000EE66E10
:10181800000EE66EDBEC05F0FF0E6000B3F0E3FFB0
:10182800FF0EE350E66EA00EE66E000EE66EA9EC23
:1018380021F0F90EE126FF0EE2221200E652E652EE
:10184800E652E652FE0EE36AF90EE3AE09D0F80E50
:10185800E36CF90EE31ED8B0E32AFE0EE36AE32A2E
:10186800FB0EE3AE08D0FA0EE36CFB0EE31ED8B015
:10187800E32AFE0EE370FC0EE36AFD0EE36AF80E3F
:101888006F008CFF2CF0F90EE3502C10D8B466D002
:10189800FF0EE36A12D0F80EE350D890E8342C6EAD
:1018A800F80E6000B3F0E3FFF90EE350E8342C6E55
:1018B800F90E6000B3F0E3FFFF0EE32AF90EE3AE82
:1018C800EAD7FC0EE350D890E8342C6EFC0E60008A
:1018D800B3F0E3FFFD0EE350E8342C6EFD0E60001C
:1018E800B3F0E3FFF80E6F008CFF36F0F90E6F00CF
:1018F8008CFF37F0FA0E6F008CFF34F0FB0E6F0090
:101908008CFF35F03650345C37503558D8A016D097
:10191800FA0EE3502C6EF80EE3502C5EFA0E6000BF
:10192800B3F0E3FFFB0EE3502C6EF90EE3502C5A94
:10193800FB0E6000B3F0E3FFFC0EE380D890F90ED5
:10194800E332F80EE332FF0EE3502C6E010E2C5EEC
:10195800FF0E6000B3F0E3FFD8A4B3D7FE0EE35048
:10196800D8B406D0FC0EE36CFD0EE31ED8B0E32A13
:10197800FC0E6F008CFF2CF0FD0E6F008CFF2DF01D
:10198800F80EE126FF0EE2221200E652EF0EE350B7
:1019980016E1F00EE35013E1F10EE35010E1F20E00
:1019A800E3500DE1F30EE3500AE1F40EE35007E1D2
:1019B800F50EE35004E1F60EE350D8B475D0FF0EEF
:1019C800E36A12D0D890EF0EE336F00EE336F10E4C
:1019D800E336F20EE336F30EE336F40EE336F50E95
:1019E800E336F60EE336FF0EE32AF60EE3AEEAD749
:1019F800E150F70FD96EE250DA6EFF0EDA22EF0EE1
:101A0800E350DE5CF00EE350DE58F10EE350DE5892
:101A1800F20EE350DE58F30EE350DE58F40EE350B6
:101A2800DE58F50EE350DE58F60EE350DE58D8A027
:101A38001FD0E150F70FD96EE250DA6EFF0EDA22AE
:101A4800EF0EE350DE5EF00EE350DE5AF10EE35087
:101A5800DE5AF20EE350DE5AF30EE350DE5AF40E6D
:101A6800E350DE5AF50EE350DE5AF60EE350DE5A26
:101A7800D890F60EE332F50EE332F40EE332F30EAD
:101A8800E332F20EE332F10EE332F00EE332EF0E00
:101A9800E332FF0EE3502C6E010E2C5EFF0E600049
:101AA800B3F0E3FFD8A4A4D7F70EE124D96EFF0E54
:101AB800E220DA6E080E2C6EF70E6F007BFFE3FF54
:101AC800E8282C2EFAD7E5521200020EE66EEAEC50
:101AD80026F02C50D8B42DD0FE0E6F008CFF36F0B7
:101AE800FF0E6F008CFF37F0020E3624D96E000E01
:101AF8003720DA6E000EDF6EFE0E6F008CFF36F0B8
:101B0800FF0E6F008CFF37F0030E3624D96E000EDF
:101B18003720DA6E020EE66EEAEC26F02C50D8B4C6
:101B280002D0010E01D0000EDF6E020EE66E3CEC14
:101B380024F0030EE66EEAEC26F02C50D8B42DD033
:101B4800FE0E6F008CFF36F0FF0E6F008CFF37F033
:101B5800040E3624D96E000E3720DA6E000EDF6EC2
:101B6800FE0E6F008CFF36F0FF0E6F008CFF37F013
:101B7800050E3624D96E000E3720DA6E030EE66E97
:101B8800EAEC26F02C50D8B402D0010E01D0000E99
:101B9800DF6E030EE66E3CEC24F0040EE66EEAEC13
:101BA80026F02C50D8B42DD0FE0E6F008CFF36F0E6
:101BB800FF0E6F008CFF37F0060E3624D96E000E2C
:101BC8003720DA6E000EDF6EFE0E6F008CFF36F0E7
:101BD800FF0E6F008CFF37F0070E3624D96E000E0B
:101BE8003720DA6E040EE66EEAEC26F02C50D8B4F4
:101BF80002D0010E01D0000EDF6E040EE66E3CEC42
:101C080024F0E552E5521200780EF66E850EF76E56
:101C1800010EF86E01EEE4F121EEDAF309006F002F
:101C2800D7FFEEFFDD50D950F9E1DA50F7E1660E43
:101C3800F66E570EF76E000EF86E00EED1F320EE3A
:101C480007F009006F00D7FFEEFFDD50D950F9E12A
:101C58007C0EF66E360EF76E000EF86E00EE00F291
:101C680020EEAAF009006F00D7FFEEFFDD50D95033
:101C7800F9E1940EF66E2B0EF76E000EF86E00EE7C
:101C880000F120EEEBF009006F00D7FFEEFFDD500A
:101C9800D950F9E1A60EF66E570EF76E000EF86EE3
:101CA80000EEF1F020EE04F009006F00D7FFEEFF20
:101CB800DD50D950F9E1B40EF66E570EF76E000EEE
:101CC800F86E09006F00D4FF5FF001EE00F1E40E3A
:101CD800EE6AE806FDE101EE00F0E00EEE6AE806C5
:101CE800FDE100EE00F3D10EEE6AE806FDE100EE3C
:101CF800AAF2510EEE6AE806FDE100EEEBF1120ED3
:101D0800EE6AE806FDE100EE60F0780EEE6AE8069D
:101D1800FDE100EE4CF0130EEE6AE806FDE1080E58
:101D2800D56E000ED66E000ED76E000100EF80F063
:101D3800FC0E6F008CFF2CF0FD0EE3502C10D8B475
:101D480009D0FC0E6F008CFF2CF0FD0EE3502C1018
:101D5800D8A406D0FE0EE350E66EACEC2AF075D09F
:101D6800FC0E6F008CFF36F0FD0E6F008CFF37F015
:101D7800040E3624D96E000E3720DA6EDE50DE10DF
:101D8800D8B426D0FC0E6F008CFF36F0FD0E6F0025
:101D98008CFF37F0040E3624D96E000E3720DA6E29
:101DA800FC0E6F008CFF36F0FD0E6F008CFF37F0D5
:101DB800020E3624E96E000E3720EA6EDE50EE5C25
:101DC800EE50800A2C6EDE50800A2C58D8B03DD0D8
:101DD800FC0E6F008CFF36F0FD0E6F008CFF37F0A5
:101DE800020E3624D96E000E3720DA6E6F0078FFA7
:101DF80036F06F0074FF37F0FC0E6F008FFFD9FFCD
:101E0800FD0E6F008FFFDAFF6F0078FF34F06F0070
:101E180074FF35F036503424D96E37503520DA6ED9
:101E2800FE0E6F008FFFDFFFFC0E6F008CFF36F099
:101E3800FD0E6F008CFF37F0020E3624D96E000EAF
:101E48003720DA6EDE2A000EDD22E552E552E55231
:101E5800E5521200FE0E6F008FFFD9FFFF0E6F00D4
:101E68008FFFDAFFFB0E6F008FFFDFFF0A0EE66EB3
:101E7800FC0EE350E66ED9EC1CF0300E2C26FE0E5C
:101E88006F008CFF2DF0010E2D5EFE0E6000B7F086
:101E9800E3FFFF0E6F008CFF2DF0000E2D5AFF0E92
:101EA8006000B7F0E3FFFE0E6F008FFFD9FFFF0E53
:101EB8006F008FFFDAFF6000B3F0DFFF0A0EE66EF7
:101EC800000EE66EFB0EE350E66E000EE66E22ECA8
:101ED8000CF0FD0E6000B3F0E3FFFD0EE350D8B444
:101EE80021D0FE0E6F008CFF2CF0010E2C5EFE0E32
:101EF8006000B3F0E3FFFF0E6F008CFF2CF0000EC4
:101F08002C5AFF0E6000B3F0E3FFFE0E6F008FFF48
:101F1800D9FFFF0E6F008FFFDAFFFD0EE350300F81
:101F2800DF6E20D0FE0E6F008CFF2CF0010E2C5EB1
:101F3800FE0E6000B3F0E3FFFF0E6F008CFF2CF085
:101F4800000E2C5AFF0E6000B3F0E3FFFE0E6F0088
:101F58008FFFD9FFFF0E6F008FFFDAFFFC0E6F00B7
:101F68008FFFDFFFFB0EE126FF0EE22212006F0E4D
:101F7800E66E120EE66E830EE66E3A0EE66EF80E0A
:101F88006F008FFFE6FF6F008FFFE6FF6F008FFF88
:101F9800E6FF6F008FFFE6FFB7EC08F02CB018D013
:101FA8006F0E346E120E356E830E366E3A0E376E25
:101FB800FC0E6000D3F0E3FFFD0E6000D7F0E3FFF6
:101FC800FE0E6000DBF0E3FFFF0E6000DFF0E3FFD2
:101FD800FC0E6F008FFFE6FF6F008FFFE6FF6F00BC
:101FE8008FFFE6FF6F008FFFE6FF000EE66E000E24
:101FF800E66E200EE66E410EE66EB7EC08F02CB0E9
:1020080018D0000E346E000E356E200E366E410E5E
:10201800376EFC0E6000D3F0E3FFFD0E6000D7F0D2
:10202800E3FFFE0E6000DBF0E3FFFF0E6000DFF071
:10203800E3FFF60EE66E090EE66E200EE66E3B0E28
:10204800E66EF80E6F008FFFE6FF6F008FFFE6FF6A
:102058006F008FFFE6FF6F008FFFE6FF4AECD4F0BA
:102068006000B3F0E6FF6000B7F0E6FF6000BBF089
:10207800E6FF6000BFF0E6FF94EC06F0E552E5529B
:10208800E552E5521200E652E652FE0EE36AFD0EF4
:10209800E3AE09D0FC0EE36CFD0EE31ED8B0E32AD4
:1020A800FE0EE36AE32AFB0EE3AE06D0FA0EE36CFB
:1020B800FB0EE31ED8B0E32AFA0E6F008CFF2CF05B
:1020C800FB0EE3502C10D8B453D0FF0EE36A12D0A5
:1020D800FA0EE350D890E8342C6EFA0E6000B3F094
:1020E800E3FFFB0EE350E8342C6EFB0E6000B3F008
:1020F800E3FFFF0EE32AFB0EE3AEEAD7FA0E6F000A
:102108008CFF36F0FB0E6F008CFF37F0FC0E6F0073
:102118008CFF34F0FD0E6F008CFF35F03650345CC8
:1021280037503558D8A014D0FC0EE3502C6EFA0E58
:10213800E3502C5EFC0E6000B3F0E3FFFD0EE350AD
:102148002C6EFB0EE3502C5AFD0E6000B3F0E3FF3B
:10215800D890FB0EE332FA0EE332FF0EE3502C6EFA
:10216800010E2C5EFF0E6000B3F0E3FFD8A4C6D7C3
:10217800FE0EE350D8B406D0FC0EE36CFD0EE31E51
:10218800D8B0E32AFC0E6F008CFF2CF0FD0E6F0018
:102198008CFF2DF0FA0EE126FF0EE2221200E65225
:1021A800E652E652E65250A010D0FA0E6F008FFFAA
:1021B800E6FF6F008FFFE6FFF60E6F008FFFE6FF6A
:1021C8006F008FFFE6FF26EC1DF0F70EE3BE11D07F
:1021D800F60E6F008CFF2CF0FC0E6000B3F0E3FFEE
:1021E800F70E6F008CFF2CF0FD0E6000B3F0E3FFDC
:1021F80004D0FC0EE36AFD0EE36AFE0EE36AFF0EEE
:10220800E36A1ED0FA0E6F008FFFE6FF6F008FFFA4
:10221800E6FF200EE66E000EE66E9CEC0EF0FE0E5B
:10222800E350010F2C6EFE0E6000B3F0E3FF2C6A42
:10223800FF0EE3502C202C6EFF0E6000B3F0E3FF7E
:10224800E150FE0FD96EE250DA6EFF0EDA22FC0E74
:10225800E350DE5CDE50800A2C6EFD0EE350800AEF
:102268002C58D8A0CFD750B010D0FA0E6F008FFFDF
:10227800E6FF6F008FFFE6FFF60E6F008FFFE6FFA9
:102288006F008FFFE6FF26EC1DF0F80E6F008FFF42
:10229800E6FF6F008FFFE6FFE8EC1BF0FC0EE35053
:1022A8002C26FD0EE3502D22F60EE126FF0EE2222B
:1022B8001200FB0EE3B604D00101C951D8A411D015
:1022C800FC0E6F008CFF2CF0FD0E6F008CFF2DF0C4
:1022D800FE0E6F008CFF2EF0FF0E6F008CFF2FF0AC
:1022E8006CD0FB0EE3A04AD0CD0EE66ECC0EE66EA7
:1022F8004C0EE66E3D0EE66EF80E6F008FFFE6FFA1
:102308006F008FFFE6FF6F008FFFE6FF6F008FFF04
:10231800E6FFB7EC08F02CB031D0FC0E6F008FFF51
:10232800E6FF6F008FFFE6FF6F008FFFE6FF6F008D
:102338008FFFE6FFCD0EE66ECC0EE66E4C0EE66E17
:10234800BD0EE66EB7EC08F02CB018D0000E346E57
:10235800000E356E000E366E000E376EFC0E6000F5
:10236800D3F0E3FFFD0E6000D7F0E3FFFE0E600040
:10237800DBF0E3FFFF0E6000DFF0E3FFFB0EE3A2FC
:102388009FD7FF0EE3AE9CD7000E346E000E356E5D
:10239800000E366E000E376EFC0E6000D3F0E3FFC1
:1023A800FD0E6000D7F0E3FFFE0E6000DBF0E3FFF8
:1023B800FF0E6000DFF0E3FF83D7FB0EE126FF0E80
:1023C800E2221200080EE126000EE222FE0E366E10
:1023D800FF0E376EF50EE124346EFF0EE220356EE7
:1023E8003650342637503522FF0E6000D7F0E3FF11
:1023F800FE0E6000D3F0E3FFF50E6F008CFF36F0A1
:10240800F60E6F008CFF37F0F90E6000DFF0E3FF87
:10241800F80E6000DBF0E3FFFA0EE124D96EFF0E40
:10242800E220DA6E000EDE6E000EDD6EFC0EE12498
:10243800D96EFF0EE220DA6E000EDE6E000EDD6E43
:10244800FE0EE1242C6EFF0EE2202D6E6000B3F02C
:10245800E6FF6000B7F0E6FFF10E6F008FFFE6FFC2
:102468006F008FFFE6FFF40EE1242C6EFF0EE220D2
:102478002D6E6000B3F0E6FF6000B7F0E6FFE8EC11
:102488001AF0FA0EE124D96EFF0EE220DA6E6F0020
:1024980078FF36F06F0074FF37F0F50E6F008CFF91
:1024A80034F0F60E6F008CFF35F036503424D96EB8
:1024B80037503520DA6E000EDF6EF80EE126FF0E7B
:1024C800E222E552E750E15E000EE25A1200050EE4
:1024D800E126000EE222F70E6F008CFF36F0F80EB0
:1024E8006F008CFF37F0FC0E6000DFF0E3FFFB0E9F
:1024F8006000DBF0E3FFF90E6F008CFF36F0FA0E98
:102508006F008CFF37F0FE0E6000DFF0E3FFFD0E7A
:102518006000DBF0E3FF3CD0FB0E6F008FFFD9FFBC
:10252800FC0E6F008FFFDAFFDF50376EFF0E600082
:10253800DFF0E3FFFB0EE350010F2C6EFB0E600093
:10254800B3F0E3FF2C6AFC0EE3502C202C6EFC0E3B
:102558006000B3F0E3FFFD0E6F008FFFD9FFFE0EA2
:102568006F008FFFDAFFFF0E6F008FFFDFFFFD0E9A
:10257800E350010F2C6EFD0E6000B3F0E3FF2C6AF0
:10258800FE0EE3502C202C6EFE0E6000B3F0E3FF2D
:10259800F50E6F008CFF2CF0010E2C5EF50E60001E
:1025A800B3F0E3FFF60E6F008CFF2CF0000E2C5AF0
:1025B800F60E6000B3F0E3FFF50EE328ADE1F60E8A
:1025C800E328D8A4A9D7F50EE126FF0EE2221200CF
:1025D800E652FF0EE36A0101C651D8B41BD0010EC2
:1025E800E66EFE0EE350E66E010EE66EFC0EE3505C
:1025F800E66E87ECCAF06000B3F0E6FF6000B7F063
:10260800E6FF6000BBF0E6FF6000BFF0E6FFE1EC2C
:10261800FEF03DD0FF0EE350D8B404D0FF0EE30423
:10262800D8A41BD0010EE66EFE0EE350E66E000E37
:10263800E66EFC0EE350E66E87ECCAF06000B3F07D
:10264800E6FF6000B7F0E6FF6000BBF0E6FF600061
:10265800BFF0E6FFE1ECFEF01AD0000EE66EFE0ECB
:10266800E350E66E000EE66EFC0EE350E66E87EC75
:10267800CAF06000B3F0E6FF6000B7F0E6FF600064
:10268800BBF0E6FF6000BFF0E6FFE1ECFEF0FF0EF6
:10269800E350040D660EF324D96E0C0EF420DA6EA6
:1026A8006000B3F0DEFF6000B7F0DEFF6000BBF053
:1026B800DEFF6000BFF0DEFFFF0EE32AFF0E6F00B3
:1026C8008CFF2CF00F0E2C6486D7E5521200FE0EFC
:1026D8006F008CFF36F0FF0E6F008CFF37F0020E94
:1026E8003624D96E000E3720DA6EDF50376E600060
:1026F800DCF030F0316A326A336A6000C8F033F0D7
:102708006000C4F032F06000C0F031F0306AFE0EB4
:102718006F008CFF36F0FF0E6F008CFF37F0010E54
:102728003624D96E000E3720DA6EDF50376E60001F
:10273800DCF02CF02D6A2E6A2F6A6000B4F02FF0BE
:102748006000B0F02EF02D6A2C6AFE0E6F008FFF2D
:10275800D9FFFF0E6F008FFFDAFFDF50346E356A46
:10276800366A376A6000D0F037F0366A356A346AFC
:102778002C5034122D5035122E5036122F5037123D
:10278800305034123150351232503612335037121D
:10279800FE0E6F008CFF32F0FF0E6F008CFF33F0DF
:1027A800030E3224D96E000E3320DA6EDF50341057
:1027B8002C6E35502D6E36502E6E37502F6EE552DA
:1027C800E5521200E652FE0E6F008CFF2CF0050E4B
:1027D8002C6402D0FE0EE36AFD0EE350D8B40CD090
:1027E800FE0EE350366E376AEB0E3624D96E010EB4
:1027F8003720DA6E000EDF6EFE0EE350140D470E22
:10280800366EF70E376EF3503626F4503722FE0E2A
:10281800E350346E356AEB0E3424D96E010E352040
:10282800DA6EDF503626000E37226000DBF0F6FF46
:102838006000DFF0F7FF000EF86E0800FF0E6F0073
:10284800D7FFE3FFFE0EE350140D470E366EF70E6A
:10285800376EF3503626F45037226000DBF0E6FF7F
:102868006000DFF0E6FFE8EC1BF0FE0EE350366E8A
:10287800376AEB0E3624D96E010E3720DA6EDF2A5E
:10288800DF50366E376A2C50365C2D503758D8A03A
:102898000CD0FE0EE350366E376AEB0E3624D96E36
:1028A800010E3720DA6E000EDF6EFF0E6F008CFF10
:1028B8002CF0E552E552E5521200586A0D0E5864A4
:1028C80001D019D05850020D000EF324D96E030E12
:1028D800F420DA6EDE50DE10D8B40BD05850020D5A
:1028E800000EF324D96E030EF420DA6EDE06000E15
:1028F800DD5A582AE3D7AFEC2BF02C50D8B412008D
:102908007BEC25F02C50586E740E5818D8A41CD0A7
:102918005850E66EDCEC2AF00D0EE66EDCEC2AF080
:102928000A0EE66EDCEC2AF001019E970A0E571893
:10293800D8B49E879E99810E5724D96EDA6A010E03
:10294800DA22000EDF6E576A01019EA911D00C0E23
:1029580057600ED05850E66EDCEC2AF0810E5724F2
:10296800D96EDA6A010EDA22600063F1DFFF572AB6
:10297800230E5818D8A402D001019E81560E58186B
:10298800D8A402D001019E83760E5818D8A402D08C
:1029980001019E85540E5818D8A412005850E66EAE
:1029A800DCEC2AF001019E979E89576A1200E652D4
:1029B800E652FE0EE36AFF0EE36A43D0D00E366E8F
:1029C800FF0E376EFE0E6F008CFF34F0FF0E6F00A7
:1029D8008CFF35F00A0E34026F00CCFF32F06F0026
:1029E800D0FF33F03502F3503326FC0E6F008FFF13
:1029F800D9FFFD0E6F008FFFDAFF6F007BFFF6FF38
:102A08006F0077FFF7FF000EF86E0800F5503226CA
:102A1800000E33223650322637503322FE0E600025
:102A2800CBF0E3FFFF0E6000CFF0E3FFFC0E6F007A
:102A38008FFFD9FFFD0E6F008FFFDAFFDE2A000E31
:102A4800DD22D00E366EFF0E376EFC0E6F008FFF44
:102A5800D9FFFD0E6F008FFFDAFF6F007BFFF6FFD7
:102A68006F0077FFF7FF000EF86E0800F550346E20
:102A7800356A3650342637503522355004E10A0E6F
:102A8800345CD8A09BD7FE0E6F008CFF2CF0FF0E95
:102A98006F008CFF2DF0E552E552E552E552120029
:102AA800E652E652E652E652FA0E6F008CFF36F016
:102AB800FB0E6F008CFF37F0D89036363736D8903B
:102AC80036363736E30E3624F66EF50E3720F76EB7
:102AD800F86A000EF82209006F00D4FF34F00900EC
:102AE8006F00D4FF35F009006F00D4FF36F00900FD
:102AF8006F00D4FF37F0FC0E6000D3F0E3FFFD0E4B
:102B08006000D7F0E3FFFE0E6000DBF0E3FFFF0E8E
:102B18006000DFF0E3FFF80E6F008CFF2CF0F90E79
:102B2800E3502C10D8B41DD0FB0EE3BE1AD0FB0E18
:102B3800E35008E1FA0E6F008CFF2CF0020E2C5EB9
:102B4800D8A00FD0E150FC0FD96EE250DA6EFF0E1C
:102B5800DA22800EDE26510EDE22010EDE22000E63
:102B6800DE22FC0E6F008CFF2CF0FD0E6F008CFF38
:102B78002DF0FE0E6F008CFF2EF0FF0E6F008CFF05
:102B88002FF0F80EE126FF0EE222120000000000EE
:102B9800000000000000000000000000000000002D
:102BA800000000000000000000000000000000001D
:102BB800000000000000000000000000000000000D
:102BC80000000000000000000000000000000000FD
:102BD80000000000000000000000000000000000ED
:102BE80000000000000000000000000000000000DD
:102BF80000000000000000000000000000000000CD
:102C0800000000000000000000000000003100008B
:102C180000000000000000000000000000FB4192DE
:102C28005E0000000000000000000000000000003E
:102C3800000000000000000000000000000000008C
:102C48000000000000000000000000000000001963
:102C5800000000000001000000000000000000006B
:102C6800000000000000000000000000000000005C
:072C78000000000000000055
:102C8000360EE66E100EE66E640EE66E000EE66E12
:102C9000F90E6F008FFFE6FF6F008FFFE6FFBFECBE
:102CA000FFF02C50D8A402D0000E19D0900EE66E82
:102CB000100EE66E640EE66E000EE66EF70E6F0006
:102CC0008FFFE6FF6F008FFFE6FFBFECFFF02C5099
:102CD000D8B4EAD7FF0EE350D8A403D0010E2C6E6F
:102CE0003CD0E150F70FD96EE250DA6EFF0EDA22D7
:102CF0006F0078FF2CF26F0078FF2DF26F0078FFE5
:102D00002EF26F0078FF2FF2E150F30FD96EE250F0
:102D1000DA6EFF0EDA226F0078FF30F26F0078FF74
:102D200031F26F0078FF32F26F0078FF33F2E1503A
:102D3000F30FD96EE250DA6EFF0EDA226F0078FFE1
:102D400034F26F0078FF35F26F0078FF36F26F00D3
:102D500078FF37F202019D87C1D7F30EE126FF0EFF
:102D6000E2221200E652E652E652E652FC0EE36A16
:102D7000FD0EE36AFE0EE36AFF0EE36AF80EE3A0BF
:102D800028D0FC0EE3502C6EF40EE3502C26FC0EE3
:102D90006000B3F0E3FFFD0EE3502C6EF50EE35040
:102DA0002C22FD0E6000B3F0E3FFFE0EE3502C6E0C
:102DB000F60EE3502C22FE0E6000B3F0E3FFFF0E90
:102DC000E3502C6EF70EE3502C22FF0E6000B3F0A0
:102DD000E3FFD890F40EE336F50EE336F60EE33655
:102DE000F70EE336D890FB0EE332FA0EE332F90E1B
:102DF000E332F80EE332F80EE350C0E1F90EE3508F
:102E0000BDE1FA0EE350BAE1FB0EE350D8A4B6D709
:102E1000FC0E6F008CFF2CF0FD0E6F008CFF2DF070
:102E2000FE0E6F008CFF2EF0FF0E6F008CFF2FF058
:102E3000F40EE126FF0EE2221200E652E652E652BE
:102E4000E652F80E6F008CFF36F0F90E6F008CFF23
:102E500037F0FF0E6000DFF0E3FFFE0E6000DBF0F6
:102E6000E3FFFA0E6F008CFF36F0FB0E6F008CFF55
:102E700037F0FD0E6000DFF0E3FFFC0E6000DBF0DA
:102E8000E3FFE150FE0FD96EE250DA6EFF0EDA2258
:102E90006F007CFF36F0010EDE266F007CFF37F0FE
:102EA000000EDD226000DBF0F6FF6000DFF0F7FFD0
:102EB000000EF86EE150FC0FD96EE250DA6EFF0E94
:102EC000DA226F007CFF36F0010EDE266F007CFFF9
:102ED00037F0000EDD226000DBF0D9FF6000DFF08C
:102EE000DAFF1F0EF76403D00800F55007D06F001B
:102EF000DBFFE9FF6F00DFFFEAFFEF50DF6EDF501F
:102F0000D8A4BFD7F80EE126FF0EE2221200A10ED0
:102F10000001666F050E676F60009BF1E6FF6000C1
:102F20009FF1E6FFA2EC28F03D01149F200E156FE3
:102F3000030E166F040E196F020E1C6F830E146FB2
:102F4000148F300EE66E570EE66E050EE66E000E1E
:102F5000E66E66EC23F0460EE66E9CEC25F0410E24
:102F6000E66EBCEC25F0500EE66E000EE66E000E2E
:102F7000E66E000EE66E66EC23F0530EE66EBCECD9
:102F800025F0020EE66EE1EC29F0500EE66E000E22
:102F9000E66E000EE66E000EE66E66EC23F0510E55
:102FA000E66E9CEC25F03D01149F020E166F148F07
:102FB0001A933F0E3B01FD17FD9BFD51F90B0209D2
:102FC000FD6FE70EFD17FD81A10EF96F050EFA6F7B
:102FD000000EFB6FFC9B3D011A831200E652E65285
:102FE000E652E652010E366E000E376EFC0E6000A1
:102FF000DBF0E3FFFD0E6000DFF0E3FF600058F35D
:1030000037F0FF0E3726E150FC0FD96EE250DA6E32
:10301000FF0EDA22372803D0D890DE36DD36E82ED0
:10302000FBD7FE0EE36AFF0EE36A29D0FA0EE3A097
:103030001CD0FC0E6F008CFF36F0FD0E6F008CFF75
:1030400037F0FE0E6F008CFF2CF036502C12FE0E67
:103050006000B3F0E3FFFF0E6F008CFF2CF03750E1
:103060002C12FF0E6000B3F0E3FFD890FD0EE332A8
:10307000FC0EE332D890FB0EE332FA0EE332FA0E86
:103080006F008CFF2CF0FB0EE3502C10D8A4CED791
:10309000FE0E6F008CFF2CF0FF0E6F008CFF2DF0EA
:1030A000FA0EE126FF0EE2221200A00EE66E0F0ECF
:1030B000E66E640EE66E000EE66EF90E6F008FFF90
:1030C000E6FF6F008FFFE6FFBFECFFF02C50D8A4A7
:1030D00002D0000E2DD0A00EE66E0F0EE66E640E2E
:1030E000E66E000EE66EF70E6F008FFFE6FF6F00D4
:1030F0008FFFE6FFBFECFFF02C50D8B4EAD7A00E4C
:10310000E66E0F0EE66E640EE66E000EE66EF50ECF
:103110006F008FFFE6FF6F008FFFE6FFBFECFFF051
:103120002C50D8B4D6D7FF0EE350D8A403D0010E4C
:103130002C6E1BD0FD0E6F008CFF26F2FE0E6F0072
:103140008CFF27F2FB0E6F008CFF28F2FC0E6F0045
:103150008CFF29F2F90E6F008CFF2AF2FA0E6F0035
:103160008CFF2BF202019D85E2D7F90EE126FF0EBE
:10317000E2221200E652FF0EE36AFE0EE350D8B4DC
:103180000CD00101CC51D8B452D05F50D8B44FD03C
:103190005F6AFF0EE36AE32A4AD00101CC51D8A44A
:1031A00046D05F50D8A443D0CC6B010E5F6E000EAA
:1031B000E66E000EE66E0AEC23F0E5526F009CFF0F
:1031C00043F0E5526F009CFF42F0E5526F009CFF18
:1031D00041F0E5526F009CFF40F0E5526F009CFF0C
:1031E0003FF0E5526F009CFF3EF0E5526F009CFF00
:1031F0003DF0E5526F009CFF3CF06000F0F034F0D1
:103200006000F4F035F06000F8F036F06000FCF09B
:1032100037F0580E34240101956F020E3520966F59
:10322000000E3620976F000E3720986FB2D7FF0E32
:103230006F008CFF2CF0E552E5521200E150FC0FBC
:10324000D96EE250DA6EFF0EDA22000EDE14346E12
:10325000000EDE14356E800EDE14366E7F0EDE1428
:10326000376E3450351036103710D8A408D0FC0E05
:10327000E36AFD0EE36AFE0EE36AFF0EE36AE150C5
:10328000F80FD96EE250DA6EFF0EDA22000EDE146D
:10329000346E000EDE14356E800EDE14366E7F0E38
:1032A000DE14376E3450351036103710D8A408D0DD
:1032B000F80EE36AF90EE36AFA0EE36AFB0EE36ABC
:1032C000E150FC0FD96EE250DA6EFF0EDA22F80EF2
:1032D000E350DE180DE1F90EE350DE1809E1FA0EB5
:1032E000E350DE1805E1FB0EE350DE18D8B402D03F
:1032F0002C9001D02C80F80EE126FF0EE222120065
:10330000E652E652E652FD0EE36AFE0EE36AFF0E57
:10331000E36AFF0EE350080D130EF324F66EF50E6C
:10332000F420F76EF86A000EF822F90EE350090057
:10333000F55CFA0EE3500900F558FB0EE350090066
:10334000F558FC0EE3500900F558D8B020D0FF0E18
:10335000E350080D040EF326000EF422130EF3249E
:10336000F66EF50EF420F76EF86A000EF8220900EA
:103370006F00D4FF36F009006F00D4FF37F0FD0E68
:103380006000DBF0E3FFFE0E6000DFF0E3FFFF0E06
:10339000E32AFF0E6F008CFF2CF0190E2C64B9D7B6
:1033A000FD0E6F008CFF2CF0FE0E6F008CFF2DF0D9
:1033B000F90EE126FF0EE22212003D0117ABFDD708
:1033C000BC84BC80010EE66EE6EC1FF020C224F245
:1033D00020EE20F26F0078FF36F06F0074FF37F0B8
:1033E0006000DCF036F0376A0F0E36160201255108
:1033F0003618F00B3618256F25510F0B4009256F35
:10340000BF902551E66ED3EC27F002012451E66E01
:10341000D3EC27F0BF8022C224F220EE22F26F000C
:1034200078FF36F06F0074FF37F06000DCF036F0A4
:10343000376A0F0E3616020125513618F00B361872
:10344000256F25510F0B5009256FBF902551E66E52
:10345000D3EC27F002012451E66ED3EC27F03D01B6
:1034600017ABFDD7BF80000EE66EE6EC1FF0120032
:10347000E652FD0E6F008FFFE6FF6F008FFFE6FF45
:10348000E8EC1BF0FF0E6000B3F0E3FFC0EC2BF0A4
:10349000000EE66E60009BF1E6FF60009FF1E6FF24
:1034A00005EC1EF0BC94FF0E6F008CFF2CF0400E5C
:1034B0002C6410D0FD0E6F008CFF36F0FE0E6F00F6
:1034C0008CFF37F0400E3624D96E000E3720DA6EAE
:1034D000000EDF6E3B01FC9FFF0EE350F76FF86BB1
:1034E000FC8FFF0EE350E66EFC0E6F008FFFE6FFD1
:1034F0006F008FFFE6FF60009BF1E6FF60009FF129
:10350000E6FF8AEC1CF0C3EC2BF0FF0EE350010148
:10351000E327000EE423E523E623E552E552E552D6
:103520001200E652E652E652E6526000D4F734F05A
:103530006000D8F735F06000DCF736F06000E0F7A7
:1035400037F0FC0E6000D3F0E3FFFD0E6000D7F013
:10355000E3FFFE0E6000DBF0E3FFFF0E6000DFF034
:10356000E3FFF80E6F008CFF34F0F90E6F008CFF54
:1035700035F0FA0E6F008CFF36F0FB0E6F008CFFFB
:1035800037F0FC0E6000D3F0E3FFFD0E6000D7F0D3
:10359000E3FFFE0E6000DBF0E3FFFF0E6000DFF0F4
:1035A000E3FFFF0EE39EFC0E6F008CFF2CF0FD0E80
:1035B0006F008CFF2DF0FE0E6F008CFF2EF0FF0EC3
:1035C0006F008CFF2FF0F80EE126FF0EE2221200B2
:1035D000E652E652FA0E6F008CFF36F0FB0E6F00DB
:1035E0008CFF37F0FF0E6000DFF0E3FFFE0E60009F
:1035F000DBF0E3FF0001AA6BAB6B21D0F80E6F008C
:103600008FFFE6FF6F008FFFE6FFFC0EE1242C6EBC
:10361000FF0EE2202D6E6000B3F0E6FF6000B7F011
:10362000E6FFF80E6F008FFFE6FF6F008FFFE6FFEB
:1036300052ECA7F02C500001AA272D50AB23E150EB
:10364000FE0FD96EE250DA6EFF0EDA226F007BFFBA
:10365000F6FF6F0077FFF7FF000EF86E0800F550D9
:103660000009D8A4CBD76000A8F22CF06000ACF21F
:103670002DF0F80EE126FF0EE222120000000000FD
:10368000000000000000000000000000000000003A
:10369000000000000000000000000000000000002A
:1036A0000000620FA40FA00FA089B03DA4DE133D5F
:1036B000A4DE133D00000000000000000000000038
:1036C00000000000000000000000000000000000FA
:1036D00000000000000000000000000000000000EA
:1036E00000000000000000000000000000000000DA
:1036F00000000000000000000000000000000000CA
:1037000000000000000000000000000000000000B9
:1037100000000000000000000000571942000001F6
:10372000000100010000FE0E6F008CFF36F0FF0E5E
:103730006F008CFF37F0420E3624D96E000E372012
:10374000DA6E400EDF6040D0FE0E6F008CFF36F068
:10375000FF0E6F008CFF37F0400E3624D96E000E3E
:103760003720DA6EDF50376EFE0E6F008CFF34F0BC
:10377000FF0E6F008CFF35F037503424D96E000EE9
:103780003520DA6EFD0E6F008FFFDFFFFE0E6F003B
:103790008CFF36F0FF0E6F008CFF37F0400E3624A2
:1037A000D96E000E3720DA6EDF2AFE0E6F008CFF16
:1037B00036F0FF0E6F008CFF37F0420E3624D96EC4
:1037C000000E3720DA6EDF2AE552E552E55212008C
:1037D000E652E652FC0E6F008CFF36F0FD0E6F00D5
:1037E0008CFF37F0FF0E6000DFF0E3FFFE0E60009D
:1037F000DBF0E3FF11D0FC0EE350010F2C6EFC0E4A
:103800006000B3F0E3FF2C6AFD0EE3502C202C6E19
:10381000FD0E6000B3F0E3FFFC0E6F008FFFF6FFBC
:10382000FD0E6F008FFFF7FF000EF86E1F0EF7649E
:1038300003D00800F55007D06F00DBFFE9FF6F00F1
:10384000DFFFEAFFEF500009D8A4D5D7FC0E6F00C8
:103850008CFF2CF0FD0E6F008CFF2DF0FE0EE35060
:103860002C5EFF0EE3502D5AE552E552E552E5522B
:103870001200BEA002D0010E01D0000EFF0A376E6A
:10388000BE503718FE0B3718BE6E010E0101D3274C
:10389000000ED423D523D623010E9127000E9223A8
:1038A0009323942383ECD1F00101C36BCDB802D0F4
:1038B000CDAA2ED0A62B4B0EA6651200BD98BEA495
:1038C00002D0010E01D0000EFF0A376E3746374690
:1038D000BE503718FB0B3718BE6EBD9ABEA202D081
:1038E000010E01D0000EFF0A376E3746BE50371862
:1038F000FD0B3718BE6EBEA002D0010E01D0000E27
:10390000FF0A376EBE503718FE0B3718BE6ED6D77B
:10391000A66B1200FE0E6F008CFF36F0FF0E6F00DC
:103920008CFF37F0420E3624D96E000E3720DA6E47
:10393000400EDF6039D0FB0EE350E66E000EE66EFF
:10394000FA0E6F008FFFE6FF6F008FFFE6FFFA0EA3
:103950006F008FFFE6FF6F008FFFE6FF6BEC12F04A
:10396000FE0E6F008CFF36F0FF0E6F008CFF37F0FD
:10397000400E3624D96E000E3720DA6EFB0E6F0033
:103980008FFFDFFFFE0E6F008CFF36F0FF0E6F0023
:103990008CFF37F0420E3624D96E000E3720DA6ED7
:1039A000FB0E6F008FFFDFFFFB0EE126FF0EE22212
:1039B0001200E652E652FF0EE36AE386FE0EE36A69
:1039C000FD0E6F008CFF37F0FE0E6F008CFF36F09F
:1039D000D89037343634376EFE0E6000DFF0E3FFE8
:1039E000E150FD0FD96EE250DA6EFF0EDA22D89068
:1039F000DF36E150FE0FD96EE250DA6EFF0EDA22AA
:103A0000FC0EE350DE5CD8A00DD0FC0E6F008CFFE6
:103A100037F0E150FE0FD96EE250DA6EFF0EDA2277
:103A20003750DF5EFF0EE3502C6E010E2C5EFF0E52
:103A30006000B3F0E3FFD8A4C3D7FE0E6F008CFF85
:103A40002CF0E552E552E552E5521200E652E652FC
:103A5000E652FD0EE36AFE0EE36A1FD0F90E6F0018
:103A60008FFFE6FF6F008FFFE6FFFD0EE350E66E6F
:103A7000000EE66E9CEC0EF0FD0EE350010F2C6E76
:103A8000FD0E6000B3F0E3FF2C6AFE0EE3502C2025
:103A90002C6EFE0E6000B3F0E3FFFD0E6F008CFF96
:103AA00036F0FE0E6F008CFF37F0FB0E6F008CFFC0
:103AB00034F0FC0E6F008CFF35F036503424D96E94
:103AC00037503520DA6EDF50376EFF0E6000DFF0C2
:103AD000E3FFFF0EE350D8A4C1D7F90EE126FF0E95
:103AE000E22212003E01E6516F009CFB2CF02D6A91
:103AF0006000B0F02DF02C6A2C26000E2D22020161
:103B00003851020D000EF324D96E020EF420DA6E45
:103B10006000B3F0DEFF6000B7F0DDFF0201382B7C
:103B20000D0E386504D0010E3B6FBE92120060008E
:103B3000E0F837F020EE39F26F0078FF34F06F00D4
:103B400074FF35F0372A03D0D89035323432372E0F
:103B5000FBD734A0E3D79FEC2BF0020138510F0BB9
:103B6000E66E1BEC2BF0010E0101DF27000EE023B7
:103B7000E123E223BE821200E65213D0FF0EE36A75
:103B8000E38C25D0FF0EE36AE384E38820D0540E53
:103B9000376EFF0E6000DFF0E3FF19D0FF0EE36A1F
:103BA00016D0FE0EE350366E376A3750000AD8A49E
:103BB000E5D73650000AD8B4E1D7010AD8B4E2D725
:103BC000030AD8B4E4D7010AD8B4E8D7D7D7450E4A
:103BD000E66E4DEC2AF0FD0E6F008CFF37F0FF0E05
:103BE000E3503724E66EC0EC23F05BEC2BF0FB0EC9
:103BF0006F008FFFE6FF6F008FFFE6FF38EC1AF0D3
:103C0000FB0EE126FF0EE2221200FE0E6F008CFF7B
:103C100036F0FF0E6F008CFF37F0420E3624D96E5F
:103C2000000E3720DA6E000EDF6EFE0E6F008CFF86
:103C300036F0FF0E6F008CFF37F0400E3624D96E41
:103C4000000E3720DA6E000EDF6EFE0E6F008CFF66
:103C500036F0FF0E6F008CFF37F0410E3624D96E20
:103C6000000E3720DA6E000EDF6EFD0EE350D8B482
:103C700011D0400EE66E000EE66E000EE66E000EEF
:103C8000E66EFA0E6F008FFFE6FF6F008FFFE6FF14
:103C900022ECE9F0E552E552E5521200070EBE6E45
:103CA000BD6ABA6A230EBF6EBB6A070EBC6EC66AD7
:103CB0000C0EC76EC268BF0EC36E900EC46E0C0EA3
:103CC000C56E3A01706B606B3C0E506F806B906BF1
:103CD00040690C0E716F0C0E916F816B830E516FEA
:103CE000416B970E616F826B926B426B526B626B92
:103CF000726B4369536963697369070E836F9369D4
:103D00000F0EE86F130EDE6F160E0E6F1E0E136F82
:103D1000080EC06F100E196F090EC16F1F0E156FC0
:103D2000130E166F170EE56F140EDF6F1200E652BA
:103D3000E652E652E652800E3901686F070E696F4F
:103D4000626B636B7C6B786B776B766B3F0E7B6F14
:103D50007A6979697D6BD50E366E000E376EFE0E70
:103D60006000DBF0E3FFFF0E6000DFF0E3FFFF0E1B
:103D7000E124D96EFF0EE220DA6EDF50676FD50EB8
:103D8000666FFC0EE36AFD0EE36AFD0EE124D96E58
:103D9000FF0EE220DA6EDF50636F626B69390F0B42
:103DA000376E37280001D56F390169510F0B376E17
:103DB00037280001D66FE552E552E552E552120070
:103DC000E652E6524C504D10D8A409D0FE0E6000C9
:103DD00033F1E3FFFF0E600037F1E3FF16D0FF0E73
:103DE000366EFF0E376E600030F134F0600034F153
:103DF00035F03650342637503522FE0E6000D3F0B1
:103E0000E3FFFF0E6000D7F0E3FFFB0E6F008CFFB7
:103E10001CF303011D6BFE0E6F008FFFE6FF6F00AA
:103E20008FFFE6FF1C0EE66E030EE66EF80E6F00C7
:103E30008FFFE6FF6F008FFFE6FFD3EC10F0FB0E65
:103E4000E126FF0EE2221200E652E652FC0EE3509B
:103E50009F0F366EFD0E6F008CFF37F0FF0E37227E
:103E6000375006E11A0E365CD8B002D0010E01D0F0
:103E7000000E366E376AFE0E6000DBF0E3FFFF0EC9
:103E80006000DFF0E3FFFE0E6F008CFF2CF0FF0EF2
:103E9000E3502C10D8B40DD0FC0E6F008CFF2CF02A
:103EA000FD0E6F008CFF2DF05F0E2C16000E2D16F0
:103EB00008D0FC0E6F008CFF2CF0FD0E6F008CFF05
:103EC0002DF0E552E552E552E5521200E652E65277
:103ED000FC0EE350BF0F366EFD0E6F008CFF37F007
:103EE000FF0E3722375006E11A0E365CD8B002D0EA
:103EF000010E01D0000E366E376AFE0E6000DBF058
:103F0000E3FFFF0E6000DFF0E3FFFE0E6F008CFFAB
:103F10002CF0FF0EE3502C10D8B40DD0FC0E6F0027
:103F20008CFF2CF0FD0E6F008CFF2DF0200E2C125C
:103F3000000E2D1208D0FC0E6F008CFF2CF0FD0E31
:103F40006F008CFF2DF0E552E552E552E55212006C
:103F5000FD0E6F008CFF2CF0FE0EE3502C10D8A449
:103F600002D0000E1AD0FF0EE350D8B418D00201D0
:103F70009DA1F7D720EE3CF2FD0E6F008FFFE9FF09
:103F8000FE0E6F008FFFEAFF600E6F006FFFEBFF0A
:103F9000E806FBE29DA3E5D7010E2C6E13D0FD0EC3
:103FA0006F008FFFD9FFFE0E6F008FFFDAFF00EE6C
:103FB0003CF2600E6F006FFFEBFFE806FBE20201D0
:103FC0009D81CFD7E552E552E5521200FF0EE35036
:103FD000D8B422D03D01149F5550D8A411D0010E61
:103FE000556E6F0050F454F06F0054F4C0F06F0041
:103FF00058F4BFF06F0070F4BEF06F0064F4BDF0D1
:10400000156B158D159B159F030E166F0F0E196FEF
:104010001C6B830E146F14D05550D8B412D03D01D0
:10402000149F600003F315FD6000FFF216FD6000B1
:10403000FBF21CFD6000F7F219FD600053F114FD66
:10404000148FE5521200FA0E6F008FFFE6FF6F002B
:104050008FFFE6FF6F008FFFE6FF6F008FFFE6FF29
:10406000FA0E6F008FFFD9FFFB0E6F008FFFDAFF94
:104070006F007BFFE6FF6F007BFFE6FF6F007BFFBB
:10408000E6FF6F007BFFE6FFA9ECC6F0FE0E6F00B7
:104090008FFFD9FFFF0E6F008FFFDAFF6000B3F0D4
:1040A000DEFF6000B7F0DEFF6000BBF0DEFF600007
:1040B000BFF0DEFFFA0EE126FF0EE2221200FE0E36
:1040C000E304FF0E6F008CFF2CF0040E2C5AD8A0D6
:1040D0000CD0000E366E040E376EFE0E6000DBF064
:1040E000E3FFFF0E6000DFF0E3FF3B01DC9FFE0E0D
:1040F0006F008FFFD7FBFF0E6F008FFFD8FB000E06
:10410000CF6F010ECE6FDC8FDC8DFE0E6F008CFF4B
:1041100036F0FF0E6F008CFF37F036500101D727C5
:104120003750D823000ED923000EDA23E552E5528A
:104130001200FE0E6F008CFF36F0FF0E6F008CFF3A
:1041400037F0040E3624D96E000E3720DA6EDF50B9
:10415000D8A423D0FE0E6F008CFF36F0FF0E6F0048
:104160008CFF37F0050E3624D96E000E3720DA6E3C
:10417000DF50D8A412D0FE0E6F008CFF36F0FF0E79
:104180006F008CFF37F0040E3624D96E000E3720F6
:10419000DA6E010EDF6E010E01D0000E2C6EE552BC
:1041A000E552120021EE00F100EE00F2A00E6F00C9
:1041B0007BFFEEFFE806FBE2A10ED95EE95E02019D
:1041C0009DB50CD00F0E276F620E266F0F0E296F54
:1041D000A40E286F0F0E2B6FA00E2A6F9DB7120032
:1041E000A00E2C6F890E2D6FB00E2E6F3D0E2F6F0F
:1041F000A40E306FDE0E316F130E326F3D0E336F33
:10420000A40E346FDE0E356F130E366F3D0E376F12
:1042100012003E01DE6BDF6BE06BE16BE46BE56B84
:10422000EA6B400EEC6FF16BE80EF36F030EF46F68
:10423000F56BF66BF76BF96B5B0EFA6F270EFB6F86
:10424000FC6B020EFD6FFE6B3F0EFF6F840EF86F6E
:104250003901A1959185B20EE66E570EE66E000EFD
:10426000E66E7EEC29F03901A1979187B20EE66ED9
:10427000570EE66E000EE66E6AEC29F01200000E94
:104280003B01F96F100EFA6F000EFB6F3D0EF16FE0
:10429000110EF06F030EFD6F000EF86F010EF76F39
:1042A000000EEF6F010EEE6F150EFF6FFE6B390102
:1042B000A293A291A297A2959283928192879285CE
:1042C000F16B010EF26F040EF36F020EF46F030E2A
:1042D000F76FD29E3901550EEF6FAA0EEF6FEF8187
:1042E000D28E3B01FC6B12006000B0F002F0600067
:1042F000B4F003F06000D0F004F06000D4F005F0FA
:104300006000DCF006F014EED4F33901A19700014F
:10431000915192119311D8B40CD001D80AD0050054
:10432000FA6E9151FD6E9251FE6E9351FF6EFA50EE
:104330001200600018F037F0600014F035F06000F3
:1043400010F034F060000CF02DF0600008F02CF05C
:104350001100E652D2AE03D0376A372A01D0376A4D
:10436000FF0E6000DFF0E3FFFE0EE124D96EFF0ECA
:10437000E220DA6EDF50030B3901E16FFD0E6F00B2
:104380008FFFE0F9FC0E6F008FFFE3F93F0EE5179A
:10439000E585D29E550EE66FAA0EE66FE583E5B37E
:1043A000FED7E595FF0EE3B002D0D29E01D0D28EAB
:1043B000E552E552E552E552120002013B51D8A404
:1043C0001200386B3A0140516E0040F92CF02D6A12
:1043D0006000B0F02DF02C6A2C26000E2D22770EF6
:1043E0002C140201396F3C0E2D143A6F3A0EE66E12
:1043F000550EE66E000EE66E7EEC29F0E40EE66EDB
:104400003A0EE66E000EE66E6AEC29F09FEC2BF099
:10441000020138510F0BE66E1BEC2BF0BE82BE84FE
:104420001200FE0E6F008CFF36F0FF0E6F008CFF47
:1044300037F0030E3624D96E000E3720DA6E000EE8
:10444000DF6EFE0E6F008CFF36F0FF0E6F008CFFEC
:1044500037F0050E3624D96E000E3720DA6E000EC6
:10446000DF6EFE0E6F008CFF36F0FF0E6F008CFFCC
:1044700037F0070E3624D96E000E3720DA6E000EA4
:10448000DF6EE552E5521200E652D28AD2AE03D078
:10449000376A372A01D0376AFF0E6000DFF0E3FF8A
:1044A000D29E550ED46EAA0ED46ED49038019F6B56
:1044B0009E6B080E9D6F550ED46EAA0ED46ED480DE
:1044C000FF0EE3B002D0D29E01D0D28E3901828796
:1044D0008283828182858687868583878181859193
:1044E0008981889D869D81858187E5521200FE0E17
:1044F0006F008CFF2CF0020E2C180DE1FF0EE35024
:10450000D8A409D0FC0EE3501C0F2C6EFD0E6F00DA
:104510008CFF2DF017D0FF0E376EFE0EE3503724C0
:10452000366ED50E2C6E0A0E2D6E362A03D02D3423
:104530002D322C32362EFBD7010E2C16000E2D16E6
:104540001E0E2C26000E2D22E552E552E552E552B4
:104550001200E652E652E652E652FF0E346EFF0EAD
:10456000356EFF0E366E7F0E376EFC0E6000D3F098
:10457000E3FFFD0E6000D7F0E3FFFE0E6000DBF00E
:10458000E3FFFF0E6000DFF0E3FFFC0E6F008CFF27
:104590002CF0FD0E6F008CFF2DF0FE0E6F008CFFD7
:1045A0002EF0FF0E6F008CFF2FF0FA0EE126FF0EAB
:1045B000E222120039019695BC0EE66E540EE66EAC
:1045C000000EE66EDEEC28F039019697EE0EE66EF0
:1045D000500EE66E000EE66ECAEC28F03D01D46B7C
:1045E000D66BD86BB00EDA6F800EDB6FDC6B820E91
:1045F000DD6F060EDE6FDF6BE06BE16BE26B0001DF
:10460000C46B5B6A400E5A6E596AC36BC26B390148
:1046100096851200060EE126000EE2223901989DD1
:10462000010191510001C56F010192510001C66F56
:10463000010193510001C76F010194510001C86F3E
:10464000C96BCA6BCB6BCC6B3901988DF80E6F00C0
:104650008CFF2CF0F90EE3502C1020EEC5F0080E64
:104660002C6EF80E6F007BFFE3FFE8282C2EFAD7A4
:104670001200780E6F00A0FF32FD000E6F00A0FF49
:1046800033FD640E6F00A0FF34FD000E6F00A0FF2D
:1046900035FD23EE02F16F0078FF06FD6F0078FF15
:1046A00007FD6F0078FF08FD6F0074FF09FD23EE22
:1046B00006F16F0078FF12FD6F0078FF13FD6F00A9
:1046C00078FF14FD6F0074FF15FD12000001846B6C
:1046D000856B866B876B00F00400010E0001842758
:1046E000000E852386238723FC0E6F008CFF2CF0A1
:1046F00084512C5CFD0E6F008CFF2CF085512C58E2
:10470000FE0E6F008CFF2CF086512C58FF0E6F00B0
:104710008CFF2CF087512C58D8B0DDD7E552E552EC
:10472000E552E5521200000E3B01D96F100EDA6F10
:10473000000EDB6F3F0ED16FBB0ED06F030EDD6F2F
:10474000000ED86F010ED76F000ECF6F010ECE6F27
:104750001C0EDF6F3D0EDE6F3901A597A595A59B59
:10476000A59995979595959B9599D29E3901550E4A
:10477000EF6FAA0EEF6FEF81D28E3B01DC6B120060
:10478000C0EC2BF0000EE66E60009BF1E6FF6000CF
:104790009FF1E6FF05EC1EF0BC943B01FC9F000E70
:1047A000F86F010EF76FFC8FFF0EE350E66E6000AE
:1047B0009BF1E6FF60009FF1E6FF93EC1BF0C3EC7A
:1047C0002BF0010E0101E327000EE423E523E6238D
:1047D000E5521200E652FF0EE36AE32AFD0E6F0077
:1047E0008CFF2CF0200E2C1804E1FE0EE350D8B400
:1047F00012D0FD0EE350F70F366EFE0E6F008CFFE9
:1048000037F0FF0E3722375004E1050E365CD8A092
:1048100002D0FF0EE36AFF0EE3502C6E2D6AE552C4
:10482000E552E552120044EC22F008EC2BF04EEC7D
:104830001EF0FDEC2AF079EC2BF0ABEC2BF097ECB2
:104840001EF009EC21F0F2EC2AF0C5EC2AF088EC1D
:1048500027F08DEC28F0ABEC24F087EC24F015EC7D
:1048600025F0DAEC22F0E7EC2AF093EC23F03FECB1
:1048700021F07FEC2BF01200FF0E6F008CFF2CF06C
:10488000050E2C6401D01DD0FF0EE350050DAB0EBC
:10489000F324D96E020EF420DA6EDE6ADE6ADE6A76
:1048A000DD6AFF0E6F008CFF37F0010E366E372A7F
:1048B00002D0D8903636372EFCD73650FF0A020188
:1048C000D217E5521200FC0EE3500AE1FD0EE35050
:1048D00007E1FE0EE35004E1FF0EE350D8B402D02E
:1048E000FF0EE37EFC0E6F008CFF2CF0FD0E6F00C0
:1048F0008CFF2DF0FE0E6F008CFF2EF0FF0E6F0070
:104900008CFF2FF0E552E552E552E55212009B6A0A
:104910009C6A010E9D6E630E996EC00E986E985043
:104920006F0064FE2CF02D6A6000B0F02DF02C6A50
:104930002C100001B86F2D50B96F3901A89D988DCA
:10494000720EE66E380EE66E000EE66E1AEC29F078
:10495000110E9A6E1200A76AA86A010EA96E630E64
:10496000A56EC00EA46EA4506F0094FE2CF02D6AAC
:104970006000B0F02DF02C6A2C100001B46F2D50A7
:10498000B56F3901A69D968DAE0EE66E570EE66E9A
:10499000000EE66E2EEC29F0110EA66E1200FF0E30
:1049A000E3BE07D0FF0EE35012E1FE0EE304D8B0E1
:1049B0000ED0FE0E6F008CFF2CF02C1EFF0E6F0031
:1049C0008CFF2DF02D1E2C2AD8B42D2A08D0FE0ED7
:1049D0006F008CFF2CF0FF0E6F008CFF2DF0E55266
:1049E000E5521200FB0EE37EF80E6F008FFFE6FF2C
:1049F0006F008FFFE6FF6F008FFFE6FF6F008FFFF6
:104A0000E6FFF80E6F008FFFE6FF6F008FFFE6FFF7
:104A10006F008FFFE6FF6F008FFFE6FFA9ECC6F087
:104A2000F80EE126FF0EE222120039019397940E50
:104A3000E66E500EE66E000EE66EF2EC28F03D01DA
:104A4000EC6BED6BEE6BEF6BF06BF16BB00EF26F2E
:104A5000800EF36FF46B8A0EF56FF66BF76BF86BE5
:104A6000F96BFA6B5E6A5D6A5C6A390193871200C2
:104A70009F0E366EFF0E376EFE0E6F008CFF34F009
:104A8000FF0E6F008CFF35F0200E3412000E351231
:104A90003650342637503522355006E11A0E345C34
:104AA000D8B002D0010E01D0000E2C6E2D6AE55256
:104AB000E5521200FE0E6F008CFF36F0FF0E6F0005
:104AC0008CFF37F0D89037323632D89037323632C2
:104AD0003650616EFE0E6F008CFF37F0030E3716F6
:104AE000060E2C6ED89037362C2EFCD73750606EC1
:104AF000E552E5521200E65201D004005C50D8B4F1
:104B0000FCD7D30E5D24D96EDA6A020EDA22DF50AA
:104B1000376EFF0E6000DFF0E3FF5D2A070E5D6475
:104B200001D05D6A390193975C069387FF0E6F0091
:104B30008CFF2CF0E5521200BC94FE0EE66ED3EC16
:104B400027F0080EE66E000EE66E000EE66E000E12
:104B5000E66E66EC23F0FF0EE350E66ED3EC27F032
:104B6000200EE66E030EE66E000EE66E000EE66E9A
:104B700066EC23F0E5521200BC94FE0EE66ED3EC18
:104B800027F0080EE66E000EE66E000EE66E000ED2
:104B9000E66E66EC23F0FF0EE350E66ED3EC27F0F2
:104BA000080EE66E000EE66E000EE66E000EE66E75
:104BB00066EC23F0E5521200FD0E6F008CFF36F01C
:104BC000FE0E6F008CFF37F0D8903634346E3734D9
:104BD000356EFF0EE350020D000EF324D96E030E66
:104BE000F420DA6E6000D3F0DEFF6000D7F0DDFF66
:104BF000E552E552E55212009AA40FD09A90FF0EAA
:104C0000E124D96EFF0EE220DA6EDF50996EFE0EBF
:104C10006F008FFF98FF9A800CD0FF0EE124D96EB1
:104C2000FF0EE220DA6EDF50996EFE0E6F008FFFEE
:104C300098FFE552E5521200A6A40FD0A690FF0EF1
:104C4000E124D96EFF0EE220DA6EDF50A56EFE0E73
:104C50006F008FFFA4FFA6800CD0FF0EE124D96E59
:104C6000FF0EE220DA6EDF50A56EFE0E6F008FFFA2
:104C7000A4FFE552E55212006F0060FF09F06000EA
:104C8000B0F00AF06000D8F00BF06000DCF00CF03F
:104C900016EEEAF13901A591F3EC29F0600030F04D
:104CA00037F060002CF036F0600028F02CF0600047
:104CB00027F0D8FF1100F40E6F008CFF2CF0F50EDA
:104CC000E3502C10D8B40CD0F40E6F008FFFD9FF36
:104CD000F50E6F008FFFDAFF000EDE6E000EDD6E48
:104CE000000E2C6E000E2D6EF40EE126FF0EE22259
:104CF000120002013B51D8B41200BDEC2BF0DDECE8
:104D000021F0C80EE66E000EE66E010EE66EDCECDB
:104D100025F0010EE66EB6EC28F02C50D8A4120057
:104D20009BEC2BF02C50D8A41200F3D76000DCF0E1
:104D300001F014EED4F33901A195000194519511BD
:104D40009611D8B40CD001D80AD00500FA6E94514F
:104D5000FD6E9551FE6E9651FF6EFA501200600086
:104D600004F037F01100CBB00CD00101B485080E6F
:104D7000E66EB6EC28F02C50D8B403D0010E2C6EA1
:104D800012000101B4B508D02C0EE66E010EE66EDD
:104D9000080EE66EDCEC25F0000E2C6E12003901D8
:104DA000989DE150F80FD96EE250DA6EFF0EDA22CC
:104DB0006F0078FF91F16F0078FF92F16F0078FF3C
:104DC00093F16F0078FF94F1988DF80EE126FF0EB5
:104DD000E2221200FF0E6F008CFF2CF0050E2C64F7
:104DE00003D0000E2C6E0FD0FF0E6F008CFF37F03B
:104DF000600048FB2CF0372A02D0D8902C32372E96
:104E0000FCD7010E2C16E5521200FE0E6F008FFF2C
:104E1000E6FF6F008FFFE6FF000EE66EDCEC25F08C
:104E200005D000F000F000F000F00400000EE66E87
:104E3000B6EC28F02C50D8B4F4D7E552E552120065
:104E4000FE0EE350FF0F366EFF0E6F008CFF37F043
:104E5000FF0E37226000D8F0C9F36000DCF0CAF31F
:104E60000301CB6BCC6BCD6BCE6BCF6BD06BE552B4
:104E7000E5521200FC0E6F008FFFE6FF6F008FFF00
:104E8000E6FF6F008FFFE6FF6F008FFFE6FFBBECD2
:104E90000FF06000B0F022F26000B4F023F2E552AF
:104EA000E552E552E5521200FC0E6F008FFFE6FF5F
:104EB0006F008FFFE6FF6F008FFFE6FF6F008FFF31
:104EC000E6FFBBEC0FF06000B0F020F26000B4F041
:104ED00021F2E552E552E552E5521200390191976F
:104EE000FF0EE350020D000EF324D96E020EF420E3
:104EF000DA6E6F0078FFAEF06F0074FFAFF091874D
:104F00006000B8F22CF06000BCF22DF0E552120007
:104F10003901A191D290B00EE66E570EE66E000EEA
:104F2000E66E56EC29F039019181A591D292FE0EE0
:104F3000E66EFF0EE66E010EE66E42EC29F03901D8
:104F400095811200FF0EE124D96EFF0EE220DA6E89
:104F5000DF50030B3901E16FFE0E6F008FFFE0F9A8
:104F60003F0EE517E58100F000F06E008CF72CF0A5
:104F7000E552E55212003F0E3B01DD17DD9BDD518E
:104F8000F90B0209DD6FE70EDD17DD81DC9D3D0EBB
:104F9000D16FEA0ED06FE40ED96F050EDA6F000EF6
:104FA000DB6FDC9B1200010E3D01126FFF0E6F00E4
:104FB0008FFF11FD01D004003901A2A9FCD7010E19
:104FC0000101E327000EE423E523E6236F0040F40C
:104FD0002CF0E5521200FE0EE3509F0F366EFF0ECE
:104FE0006F008CFF37F0FF0E3722375006E11A0EA4
:104FF000365CD8B002D0010E01D0000E2C6E2D6AA6
:10500000E552E5521200FE0EE350BF0F366EFF0E62
:105010006F008CFF37F0FF0E3722375006E11A0E73
:10502000365CD8B002D0010E01D0000E2C6E2D6A75
:10503000E552E5521200FE0EE350D00F366EFF0E21
:105040006F008CFF37F0FF0E3722375006E10A0E53
:10505000365CD8B002D0010E01D0000E2C6E2D6A45
:10506000E552E5521200FE0EE350030BA00DE40ED4
:105070002C6E090E2D6EF3502C26F4502D22FF0EAF
:10508000E350030B280DF3502C26F4502D22E5524B
:10509000E5521200D30E5E24D96EDA6A020EDA22CD
:1050A0006F00A3F7DFFF5E2A070E5E6401D05E6A21
:1050B0005C2A010E0101DB27000EDC23DD23DE2349
:1050C0001200FF0E6F008CFF2CF0050E2C6402D036
:1050D000000E0AD0FF0EE350050DAA0EF324D96E80
:1050E000020EF420DA6EDF502C6EE5521200400EF4
:1050F0005A6010D0A00E5B24D96EDA6A040EDA2250
:10510000DF503D01D26F5B2A3F0E5B6401D05B6ACA
:105110005A2A1200390196971200010E966E956A6E
:10512000976A7C0E936E926A3901A9919981C20E99
:10513000E66E280EE66E000EE66E06EC29F0E00E36
:10514000946E1200430EE66E000EE66E000EE66EE2
:10515000000EE66EFA0E6F008FFFE6FF6F008FFF06
:10516000E6FF22ECE9F0E552E55212000400FF0EE2
:10517000E350020D000EF324D96E030EF420DA6E14
:10518000DE50DE10D8A402D0010E01D0000E2C6E2D
:10519000E5521200E150FD0FD96EE250DA6EFF0EBB
:1051A000DA226F0078FF9AF06F0078FF9BF06F00B3
:1051B00074FF9CF0E552E552E5521200E150FD0FFC
:1051C000D96EE250DA6EFF0EDA226F0078FF9DF0A2
:1051D0006F0078FF9EF06F0074FF9FF0E552E5527C
:1051E000E5521200E150FD0FD96EE250DA6EFF0E6B
:1051F000DA226F0078FF97F06F0078FF98F06F0069
:1052000074FF99F0E552E552E5521200E150FD0FAE
:10521000D96EE250DA6EFF0EDA226F0078FF8EF060
:105220006F0078FF8FF06F0074FF90F0E552E55249
:10523000E5521200E150FD0FD96EE250DA6EFF0E1A
:10524000DA226F0078FF8BF06F0078FF8CF06F0030
:1052500074FF8DF0E552E552E5521200E150FD0F6A
:10526000D96EE250DA6EFF0EDA226F0078FF88F016
:105270006F0078FF89F06F0074FF8AF0E552E55205
:10528000E5521200E150FD0FD96EE250DA6EFF0ECA
:10529000DA226F0078FFA0F06F0078FFA1F06F00B6
:1052A00074FFA2F0E552E552E5521200E150FD0F05
:1052B000D96EE250DA6EFF0EDA226F0078FFA3F0AB
:1052C0006F0078FFA4F06F0074FFA5F0E552E5527F
:1052D000E5521200E150FD0FD96EE250DA6EFF0E7A
:1052E000DA226F0078FF91F06F0078FF92F06F0084
:1052F00074FF93F0E552E552E5521200E150FD0FC4
:10530000D96EE250DA6EFF0EDA226F0078FF94F069
:105310006F0078FF95F06F0074FF96F0E552E5524C
:10532000E552120014EED4F300019751981199112F
:10533000D8B4110001D811000500FA6E9751FD6E26
:105340009851FE6E9951FF6EFA50120014EED4F38C
:1053500000019A519B119C11D8B4110001D8110081
:105360000500FA6E9A51FD6E9B51FE6E9C51FF6EC8
:10537000FA50120014EED4F300019D519E119F11BA
:10538000D8B4110001D811000500FA6E9D51FD6ED0
:105390009E51FE6E9F51FF6EFA5012006000B0F0F9
:1053A00007F06000DCF008F014EED4F33901A991A5
:1053B0003BEC2AF0600020F037F060001CF02CF08D
:1053C0001100BC94FF0EE350E66ED3EC27F0080EFC
:1053D000E66E000EE66E000EE66E000EE66E66EC01
:1053E00023F0E55212000001A051A111A211D8B47E
:1053F000120001D812000500FA6EA051FD6EA151F5
:10540000FE6EA251FF6EFA50120000018B518C11FA
:105410008D11D8B4120001D812000500FA6E8B511C
:10542000FD6E8C51FE6E8D51FF6EFA501200000120
:10543000885189118A11D8B4120001D812000500D0
:10544000FA6E8851FD6E8951FE6E8A51FF6EFA50D8
:1054500012000001A351A411A511D8B4120001D863
:1054600012000500FA6EA351FD6EA451FE6EA55107
:10547000FF6EFA50120000018E518F119011D8B4B6
:10548000120001D812000500FA6E8E51FD6E8F5188
:10549000FE6E9051FF6EFA5012005BEC2BF0FE0E88
:1054A000E66EC0EC23F05BEC2BF0FF0EE350E66EF3
:1054B000C0EC23F05BEC2BF0E5521200600E592497
:1054C000D96EDA6A040EDA226F0043F7DFFF592A39
:1054D0003F0E596401D0596A0001C22B12003901F4
:1054E00095919A0EE66E0E0EE66E000EE66E42EC9A
:1054F00029F0020E0201CD6F390195811200FF0ED5
:105500006F008CFF37F0030E371623EE64F0DF5088
:105510003718FE0B3718DF6EE5521200070EE66EE5
:10552000B6EC28F02C50D8B406D00101BD51FF0EC6
:105530006F008CFFBDF1E5521200BEA402D0010E37
:1055400001D0000EFF0A376E37463746BE50371877
:10555000FB0B3718BE6E1200FF0EE350E66E6000C4
:105560009BF1E6FF60009FF1E6FF93EC1BF0E55234
:105570001200FE0E6F008FFFE6FF6F008FFFE6FF49
:105580005AEC25F0E552E5521200010EAE6EAD6AFE
:10559000AF6A630EAB6EAA6A3901A495C00EAC6EF9
:1055A0001200A70EE66E030EE66EFD0EE350E66EE9
:1055B0008DECF7F0E552120001D004003901A3A9E7
:1055C000FCD7FF0E6F008FFFEAFDE5521200400E80
:1055D0003D01156F030E166F4F0E196F1C6B830E76
:1055E000146F1200800E626E616A400E606E3F01A1
:1055F0005F513F0B40095F6F1200200E3901D96FD8
:10560000DB6BDD6B020EDF6FDE6BDCB11200FDD7F2
:105610003901C06BC16BC26BC36BC46BC56BC66B0E
:10562000C76B1200390168B104D0FF0E6F008FFF05
:1056300060F9E5521200FF0E6F008FFFF1FE3E0190
:10564000F88FF881E5521200FF0EE3B002D0BD9052
:1056500001D0BD80E5521200FF0EE3B002D0BD9A2A
:1056600001D0BD8AE5521200FF0EE3B002D0BD9812
:1056700001D0BD88E5521200390168AB03D02C6A15
:105680002C2A12002C6A12000101BE51FF0E6F007D
:105690008CFFBEF1E5521200FF0EE3B002D0BD9CBC
:1056A00001D0BD8CE5521200FF0EE350E66E4DECCA
:1056B0002AF0E5521200000160B7FDD73D0117BB8B
:1056C0001200FCD7BDAC03D02C6A2C2A12002C6A25
:0256D0001200C6
:0E56D40014EED4F33901A19129EC2AF0110053
:1056E40014EED4F33901A2910001609711001E0E4B
:1056F40039015B6F070E5C6F12003C01E66B940E80
:0E570400E56F1200E40E2C6E050E2D6E1200E5
:0A57140014EED4F33901A293110042
:0A57200014EED4F33901A297110032
:10572C0014EED4F33901A29511006000ECF82CF0C2
:10573C0012003B0E3E01F16F12006000F4F62CF0EB
:10574C0012006000F8F62CF01200AF0E3E01C16F93
:10575C001200600070F12CF01200286E756C6C2930
:01576C00003C
:10576E0002019D8312003901688D120002013B6B0C
:10577E0012000001608712003B01FC8D12003901FE
:10578E00969D12003901968D120039015B8112002F
:1057A00014EED4F31100CBFFB5FF04001200120079
:0557B0001200120001CF
:10F5120000D859000005000000685B00000A0000E6
:10F5220000305C000014000000385E00001900008A
:10F5320000885E00001E000000785F0000280000C6
:10F5420000DC5F00002D00000018600000320000A7
:10F552000046600000350000007C600000370000BB
:10F5620000AE60000039000000E06000003C0000D6
:10F5720000126100003F0000005D610000430000D6
:10F5820000A861000046000000BC610000480000C5
:10F5920000D06100004B000000DA61000050000062
:10F5A20000E461000055000000F86100005A00000C
:10F5B20000086200005C000000226200005D0000A2
:10F5C20000346200005F0000004862000061000039
:10F5D200005C6200006400000084670000620000BA
:10F5E200000000000080DE280080C84D0000A776E1
:10F5F2000000349E008012C700809FEE00007E173C
:10F6020001805C400180E9670100C890010055B8A3
:10F61200011F1E1F1E1F1F1E1F1E1F1F1D636F6D3A
:10F622006D616E6473203100000000000000000074
:10F63200000000646973706C61797320310000000E
:10F64200000000000000000000636F6D6D616E64D9
:10F65200732032000000000000000000000000647F
:10F662006973706C61797320320000000000000041
:10F672000000000000636F6D6D616E6473203300E3
:10F682000000000000000000000000646973706C5C
:10F6920061797320330000000000000000000000C8
:10F6A20000636F6D6D616E647320340000000000B2
:10F6B20000000000000000646973706C61797320BF
:10F6C20034000000000000000000000000202020A4
:10F6D200204441494C592041482020202020204CE0
:10F6E2004F204553522020202020204849204553B6
:10F6F2005220202020202020505620414820202027
:10F702004241542057204F757420202020424154FA
:10F71200205720494E20202020205245414C204194
:10F72200482020202046204359434C455320202086
:10F7320042204359434C4553202020202055504419
:10F7420041544553007C7C2F2F2D2D0000000000DA
:10F752000000000000000000007C7C2F2F2D2D5C9B
:10F762005C0000000000000000000000004F4F4F4E
:10F772004F4F4F2D2D5F5F2D000000000000000055
:10F782000076763C3C5E5E3E3E00000000000000DB
:10F7920000000000002E2E2A2A7823782358587C55
:10F7A2007C2D2D0000000000002E2E6F6F4F4F6F3A
:10F7B2006F00000000000000000000000020202078
:10F7C2004C4F5720436F756E74202020544F4420B5
:10F7D200436F756E7420202020545820436F756E3D
:10F7E2007420202020525820436F756E74202020F0
:10F7F20041444320436F756E7420202053504920AA
:10F80200436F756E7420202044494F20436F756EFC
:10F8120074000000803F0000C03F474D540000AA22
:10F82200B83FC623F6B80040763F2025630D0A2074
