:020000040000FA
:0400000057EF00F0C6
:10000800860E860E860E860E860E860E860E860E48
:100018005E0E860E040C5A09860E860E860E860E15
:10002800620E6B0E710E6E0E860E860E860E860E94
:10003800860E860E860E6B0D860E860E860E860E34
:10004800860E860E860E860E2B00860E860E860E71
:10005800D70B860E860E860E860E860E860E860EAA
:10006800860E860E7F0D750D860E860E517E860EC7
:10007800860E860E2B00860E860E860E2B002B0013
:100088002B002B002B002B002B002B00357A860E23
:10009800050E860E860E860E2B002B002B002B00DD
:1000A800860E860EFF0013EECDF0ECEF05F0E6525B
:1000B800E652E652E652FE0EE36AF90EE3AE09D0C6
:1000C800F80EE36CF90EE31ED8B0E32AFE0EE36ADD
:1000D800E32AFB0EE3AE08D0FA0EE36CFB0EE31E38
:1000E800D8B0E32AFE0EE370FC0EE36AFD0EE36A65
:1000F800F80E6F008CFF2BF0F90EE3502B10D8B4DC
:1001080066D0FF0EE36A12D0F80EE350D890E834B8
:100118002B6EF80E6000AFF0E3FFF90EE350E83401
:100128002B6EF90E6000AFF0E3FFFF0EE32AF90E25
:10013800E3AEEAD7FC0EE350D890E8342B6EFC0E01
:100148006000AFF0E3FFFD0EE350E8342B6EFD0EC8
:100158006000AFF0E3FFF80E6F008CFF35F0F90E8A
:100168006F008CFF36F0FA0E6F008CFF33F0FB0E39
:100178006F008CFF34F03550335C36503458D8A0BB
:1001880016D0FA0EE3502B6EF80EE3502B5EFA0EE3
:100198006000AFF0E3FFFB0EE3502B6EF90EE35067
:1001A8002B5AFB0E6000AFF0E3FFFC0EE380D89003
:1001B800F90EE332F80EE332FF0EE3502B6E010E18
:1001C8002B5EFF0E6000AFF0E3FFD8A4B3D7FE0E9E
:1001D800E350D8B406D0FC0EE36CFD0EE31ED8B095
:1001E800E32AFC0E6F008CFF2BF0FD0E6F008CFFD6
:1001F8002CF0F80EE126FF0EE2221200020EE66E47
:10020800A5EC19F02B50D8B42CD0FE0E6F008CFF43
:1002180035F0FF0E6F008CFF36F0020E3524D96ED4
:10022800000E3620DA6E000EDF6E020EE66EA5ECCA
:1002380019F02B50D8B403D0366A362A01D0366A62
:10024800FE0E6F008CFF33F0FF0E6F008CFF34F052
:10025800030E3324D96E000E3420DA6E6000DBF012
:10026800DFFF030EE66EA5EC19F02B50D8B42CD0A6
:10027800FE0E6F008CFF35F0FF0E6F008CFF36F01E
:10028800040E3524D96E000E3620DA6E000EDF6EAD
:10029800030EE66EA5EC19F02B50D8B403D0366ADD
:1002A800362A01D0366AFE0E6F008CFF33F0FF0E3F
:1002B8006F008CFF34F0050E3324D96E000E342005
:1002C800DA6E6000DBF0DFFF040EE66EA5EC19F0D5
:1002D8002B50D8B42CD0FE0E6F008CFF35F0FF0EDB
:1002E8006F008CFF36F0060E3524D96E000E3620CE
:1002F800DA6E000EDF6E040EE66EA5EC19F02B50D8
:10030800D8B403D0366A362A01D0366AFE0E6F009A
:100318008CFF33F0FF0E6F008CFF34F0070E332490
:10032800D96E000E3420DA6E6000DBF0DFFFE55294
:10033800E5521200FC0E6F008CFF2BF0FD0EE3500F
:100348002B10D8B409D0FC0E6F008CFF2BF0FD0EDB
:10035800E3502B10D8A406D0FE0EE350E66EFCEC5A
:100368001BF075D0FC0E6F008CFF35F0FD0E6F0092
:100378008CFF36F0040E3524D96E000E3620DA6E66
:10038800DE50DE10D8B426D0FC0E6F008CFF35F09E
:10039800FD0E6F008CFF36F0040E3524D96E000E6A
:1003A8003620DA6EFC0E6F008CFF35F0FD0E6F0004
:1003B8008CFF36F0020E3524E96E000E3620EA6E08
:1003C800DE50EE5CEE50800A2B6EDE50800A2B5811
:1003D800D8B03DD0FC0E6F008CFF35F0FD0E6F00DD
:1003E8008CFF36F0020E3524D96E000E3620DA6EF8
:1003F8006F0078FF35F06F0074FF36F0FC0E6F0069
:100408008FFFD9FFFD0E6F008FFFDAFF6F0078FFB7
:1004180033F06F0074FF34F035503324D96E365002
:100428003420DA6EFE0E6F008FFFDFFFFC0E6F00C8
:100438008CFF35F0FD0E6F008CFF36F0020E352470
:10044800D96E000E3620DA6EDE2A000EDD22E55265
:10045800E552E552E5521200FE0E6F008FFFD9FFFC
:10046800FF0E6F008FFFDAFFFB0E6F008FFFDFFFBD
:100478000A0EE66EFC0EE350E66ECDEC0DF0300E83
:100488002B26FE0E6F008CFF2CF0010E2C5EFE0E4C
:100498006000B3F0E3FFFF0E6F008CFF2CF0000E3E
:1004A8002C5AFF0E6000B3F0E3FFFE0E6F008FFFC3
:1004B800D9FFFF0E6F008FFFDAFF6000AFF0DFFF9C
:1004C8000A0EE66E000EE66EFB0EE350E66E000EB8
:1004D800E66E5BEC00F0FD0E6000AFF0E3FFFD0E92
:1004E800E350D8B421D0FE0E6F008CFF2BF0010E24
:1004F8002B5EFE0E6000AFF0E3FFFF0E6F008CFF77
:100508002BF0000E2B5AFF0E6000AFF0E3FFFE0E3B
:100518006F008FFFD9FFFF0E6F008FFFDAFFFD0E10
:10052800E350300FDF6E20D0FE0E6F008CFF2BF0F3
:10053800010E2B5EFE0E6000AFF0E3FFFF0E6F00B2
:100548008CFF2BF0000E2B5AFF0E6000AFF0E3FF7C
:10055800FE0E6F008FFFD9FFFF0E6F008FFFDAFFCF
:10056800FC0E6F008FFFDFFFFB0EE126FF0EE2227D
:1005780012006F0EE66E120EE66E830EE66E3A0EEF
:10058800E66EF80E6F008FFFE6FF6F008FFFE6FF45
:100598006F008FFFE6FF6F008FFFE6FF3FECFBF079
:1005A8002BB018D06F0E336E120E346E830E356E6C
:1005B8003A0E366EFC0E6000CFF0E3FFFD0E6000D1
:1005C800D3F0E3FFFE0E6000D7F0E3FFFF0E6000FC
:1005D800DBF0E3FFFC0E6F008FFFE6FF6F008FFF7D
:1005E800E6FF6F008FFFE6FF6F008FFFE6FF000E4C
:1005F800E66E000EE66E200EE66E410EE66E3FECED
:10060800FBF02BB018D0000E336E000E346E200EA7
:10061800356E410E366EFC0E6000CFF0E3FFFD0E26
:100628006000D3F0E3FFFE0E6000D7F0E3FFFF0E9B
:100638006000DBF0E3FFF60EE66E090EE66E200EB4
:10064800E66E3B0EE66EF80E6F008FFFE6FF6F005A
:100658008FFFE6FF6F008FFFE6FF6F008FFFE6FF5B
:10066800FDECC5F06000AFF0E6FF6000B3F0E6FF18
:100678006000B7F0E6FF6000BBF0E6FFD3ECF9F0EE
:10068800E552E552E552E5521200E652E652FE0EF8
:10069800E36AFD0EE3AE09D0FC0EE36CFD0EE31E2B
:1006A800D8B0E32AFE0EE36AE32AFB0EE3AE06D0D7
:1006B800FA0EE36CFB0EE31ED8B0E32AFA0E6F00C5
:1006C8008CFF2BF0FB0EE3502B10D8B453D0FF0E49
:1006D800E36A12D0FA0EE350D890E8342B6EFA0E83
:1006E8006000AFF0E3FFFB0EE350E8342B6EFB0E27
:1006F8006000AFF0E3FFFF0EE32AFB0EE3AEEAD79C
:10070800FA0E6F008CFF35F0FB0E6F008CFF36F091
:10071800FC0E6F008CFF33F0FD0E6F008CFF34F081
:100728003550335C36503458D8A014D0FC0EE35002
:100738002B6EFA0EE3502B5EFC0E6000AFF0E3FF69
:10074800FD0EE3502B6EFB0EE3502B5AFD0E60009E
:10075800AFF0E3FFD890FB0EE332FA0EE332FF0E60
:10076800E3502B6E010E2B5EFF0E6000AFF0E3FF2F
:10077800D8A4C6D7FE0EE350D8B406D0FC0EE36C5E
:10078800FD0EE31ED8B0E32AFC0E6F008CFF2BF0A1
:10079800FD0E6F008CFF2CF0FA0EE126FF0EE22210
:1007A8001200E652E652E652E6524FA010D0FA0E78
:1007B8006F008FFFE6FF6F008FFFE6FFF60E6F00FA
:1007C8008FFFE6FF6F008FFFE6FF67EC0EF0F70E76
:1007D800E3BE11D0F60E6F008CFF2BF0FC0E60000C
:1007E800AFF0E3FFF70E6F008CFF2BF0FD0E6000FB
:1007F800AFF0E3FF04D0FC0EE36AFD0EE36AFE0EE1
:10080800E36AFF0EE36A1ED0FA0E6F008FFFE6FF61
:100818006F008FFFE6FF200EE66E000EE66E9EEC80
:1008280001F0FE0EE350010F2B6EFE0E6000AFF0DC
:10083800E3FF2B6AFF0EE3502B202B6EFF0E6000A8
:10084800AFF0E3FFE150FE0FD96EE250DA6EFF0E13
:10085800DA22FC0EE350DE5CDE50800A2B6EFD0EC1
:10086800E350800A2B58D8A0CFD74FB010D0FA0E3B
:100878006F008FFFE6FF6F008FFFE6FFF60E6F0039
:100888008FFFE6FF6F008FFFE6FF67EC0EF0F80EB4
:100898006F008FFFE6FF6F008FFFE6FF2BEC0DF078
:1008A800FC0EE3502B26FD0EE3502C22F60EE1261B
:1008B800FF0EE2221200FB0EE3B604D00101B8518C
:1008C800D8A411D0FC0E6F008CFF2BF0FD0E6F002A
:1008D8008CFF2CF0FE0E6F008CFF2DF0FF0E6F00CA
:1008E8008CFF2EF06CD0FB0EE3A04AD0CD0EE66E46
:1008F800CC0EE66E4C0EE66E3D0EE66EF80E6F0000
:100908008FFFE6FF6F008FFFE6FF6F008FFFE6FFA8
:100918006F008FFFE6FF3FECFBF02BB031D0FC0EF1
:100928006F008FFFE6FF6F008FFFE6FF6F008FFFFE
:10093800E6FF6F008FFFE6FFCD0EE66ECC0EE66E8B
:100948004C0EE66EBD0EE66E3FECFBF02BB018D0F9
:10095800000E336E000E346E000E356E000E366ECD
:10096800FC0E6000CFF0E3FFFD0E6000D3F0E3FF64
:10097800FE0E6000D7F0E3FFFF0E6000DBF0E3FF40
:10098800FB0EE3A29FD7FF0EE3AE9CD7000E336E9B
:10099800000E346E000E356E000E366EFC0E6000D2
:1009A800CFF0E3FFFD0E6000D3F0E3FFFE0E600022
:1009B800D7F0E3FFFF0E6000DBF0E3FF83D7FB0E09
:1009C800E126FF0EE2221200080EE126000EE222C6
:1009D800FE0E356EFF0E366EF50EE124336EFF0EF9
:1009E800E220346E3550332636503422FF0E600034
:1009F800D3F0E3FFFE0E6000CFF0E3FFF50E6F00CB
:100A08008CFF35F0F60E6F008CFF36F0F90E6000A3
:100A1800DBF0E3FFF80E6000D7F0E3FFFA0EE12405
:100A2800D96EFF0EE220DA6E000EDE6E000EDD6E6D
:100A3800FC0EE124D96EFF0EE220DA6E000EDE6EA7
:100A4800000EDD6EFE0EE1242B6EFF0EE2202C6EF2
:100A58006000AFF0E6FF6000B3F0E6FFF10E6F0054
:100A68008FFFE6FF6F008FFFE6FFF40EE1242B6E89
:100A7800FF0EE2202C6E6000AFF0E6FF6000B3F0DE
:100A8800E6FF2DEC0CF0FA0EE124D96EFF0EE22001
:100A9800DA6E6F0078FF35F06F0074FF36F0F50EF0
:100AA8006F008CFF33F0F60E6F008CFF34F035507A
:100AB8003324D96E36503420DA6E000EDF6EF80E0D
:100AC800E126FF0EE222E552E750E15E000EE25A0F
:100AD8001200E652FF0EE36A0101B551D8B41BD0EB
:100AE800010EE66EFE0EE350E66E010EE66EFC0E9B
:100AF800E350E66E1AECBCF06000AFF0E6FF600071
:100B0800B3F0E6FF6000B7F0E6FF6000BBF0E6FF79
:100B18008CECF3F03DD0FF0EE350D8B404D0FF0EB8
:100B2800E304D8A41BD0010EE66EFE0EE350E66E79
:100B3800000EE66EFC0EE350E66E1AECBCF06000A8
:100B4800AFF0E6FF6000B3F0E6FF6000B7F0E6FF45
:100B58006000BBF0E6FF8CECF3F01AD0000EE66EF6
:100B6800FE0EE350E66E000EE66EFC0EE350E66EF7
:100B78001AECBCF06000AFF0E6FF6000B3F0E6FFEF
:100B88006000B7F0E6FF6000BBF0E6FF8CECF3F026
:100B9800FF0EE350040D810EF324D96E0B0EF420E2
:100BA800DA6E6000AFF0DEFF6000B3F0DEFF6000D9
:100BB800B7F0DEFF6000BBF0DEFFFF0EE32AFF0E9A
:100BC8006F008CFF2BF00F0E2B6486D7E5521200B6
:100BD8002C0EF66E860EF76E010EF86E01EEFFF221
:100BE80021EECEF109006F00D7FFEEFFDD50D9509E
:100BF800F9E1DA50F7E1F80EF66E1A0EF76E000E0C
:100C0800F86E00EE00F220EEA1F009006F00D7FFA9
:100C1800EEFFDD50D950F9E1E40EF66E130EF76ED3
:100C2800000EF86E00EE00F120EECCF009006F0027
:100C3800D7FFEEFFDD50D950F9E1240EF66E3A0EDB
:100C4800F76E000EF86E09006F00D4FF5FF001EE3A
:100C580000F220EEFFF0EE6ADD50D950FCE1DA50E8
:100C6800FAE101EE00F1A10EEE6AE806FDE101EEFF
:100C780000F0A30EEE6AE806FDE100EE00F3E30ED5
:100C8800EE6AE806FDE100EEA1F2530EEE6AE80610
:100C9800FDE100EECCF1340EEE6AE806FDE100EE6F
:100CA80060F07D0EEE6AE806FDE100EE4BF0140EF2
:100CB800EE6AE806FDE1080ED56E000ED66E000E4F
:100CC800D76E000100EF80F0FE0E6F008CFF35F04C
:100CD800FF0E6F008CFF36F0020E3524D96E000E21
:100CE8003620DA6EDF50366E6000D8F02FF0306AAA
:100CF800316A326A6000C4F032F06000C0F031F04E
:100D08006000BCF030F02F6AFE0E6F008CFF35F0EB
:100D1800FF0E6F008CFF36F0010E3524D96E000EE1
:100D28003620DA6EDF50366E6000D8F02BF02C6A71
:100D38002D6A2E6A6000B0F02EF06000ACF02DF045
:100D48002C6A2B6AFE0E6F008FFFD9FFFF0E6F0013
:100D58008FFFDAFFDF50336E346A356A366A600017
:100D6800CCF036F0356A346A336A2B5033122C5083
:100D780034122D5035122E5036122F503312305057
:100D880034123150351232503612FE0E6F008CFF7D
:100D980031F0FF0E6F008CFF32F0030E3124D96E54
:100DA800000E3220DA6EDF5033102B6E34502C6E6A
:100DB80035502D6E36502E6EE552E5521200E65231
:100DC800FE0E6F008CFF2BF0050E2B6402D0FE0E7A
:100DD800E36AFD0EE350D8B40CD0FE0EE350356E36
:100DE800366ACC0E3524D96E010E3620DA6E000E26
:100DF800DF6EFE0EE350140D570E356EF90E366E8B
:100E0800F3503526F4503622FE0EE350336E346A22
:100E1800CC0E3324D96E010E3420DA6EDF5035261D
:100E2800000E36226000D7F0F6FF6000DBF0F7FF17
:100E3800000EF86E0800FF0E6F00D7FFE3FFFE0EEE
:100E4800E350140D570E356EF90E366EF3503526F5
:100E5800F45036226000D7F0E6FF6000DBF0E6FFD2
:100E68002BEC0DF0FE0EE350356E366ACC0E3524B1
:100E7800D96E010E3620DA6EDF2ADF50356E366AFB
:100E88002B50355C2C503658D8A00CD0FE0EE350B1
:100E9800356E366ACC0E3524D96E010E3620DA6EE0
:100EA800000EDF6EFF0E6F008CFF2BF0E552E5524F
:100EB800E5521200E652E652FE0EE36AFF0EE36ABE
:100EC80043D0D00E356EFF0E366EFE0E6F008CFFCF
:100ED80033F0FF0E6F008CFF34F00A0E33026F0000
:100EE800CCFF31F06F00D0FF32F03402F3503226DD
:100EF800FC0E6F008FFFD9FFFD0E6F008FFFDAFF2A
:100F08006F007BFFF6FF6F0077FFF7FF000EF86EAC
:100F18000800F5503126000E322235503126365061
:100F28003222FE0E6000C7F0E3FFFF0E6000CBF038
:100F3800E3FFFC0E6F008FFFD9FFFD0E6F008FFFE0
:100F4800DAFFDE2A000EDD22D00E356EFF0E366E79
:100F5800FC0E6F008FFFD9FFFD0E6F008FFFDAFFC9
:100F68006F007BFFF6FF6F0077FFF7FF000EF86E4C
:100F78000800F550336E346A355033263650342223
:100F8800345004E10A0E335CD8A09BD7FE0E6F00E4
:100F98008CFF2BF0FF0E6F008CFF2CF0E552E55212
:100FA800E552E5521200E652E652E652E652FA0ED1
:100FB8006F008CFF35F0FB0E6F008CFF36F0D89079
:100FC80035363636D890353636366B0E3524F66ECD
:100FD800F80E3620F76EF86A000EF82209006F0046
:100FE800D4FF33F009006F00D4FF34F009006F001C
:100FF800D4FF35F009006F00D4FF36F0FC0E600016
:10100800CFF0E3FFFD0E6000D3F0E3FFFE0E6000BB
:10101800D7F0E3FFFF0E6000DBF0E3FFF80E6F0090
:101028008CFF2BF0F90EE3502B10D8B41DD0FB0E1B
:10103800E3BE1AD0FB0EE35008E1FA0E6F008CFFF6
:101048002BF0020E2B5ED8A00FD0E150FC0FD96E0A
:10105800E250DA6EFF0EDA22800EDE26510EDE2214
:10106800010EDE22000EDE22FC0E6F008CFF2BF03C
:10107800FD0E6F008CFF2CF0FE0E6F008CFF2DF024
:10108800FF0E6F008CFF2EF0F80EE126FF0EE22215
:101098001200E652E652E652E652FC0EE36AFD0EF4
:1010A800E36AFE0EE36AFF0EE36AF80EE3A028D0B7
:1010B800FC0EE3502B6EF40EE3502B26FC0E600062
:1010C800AFF0E3FFFD0EE3502B6EF50EE3502B223D
:1010D800FD0E6000AFF0E3FFFE0EE3502B6EF60E40
:1010E800E3502B22FE0E6000AFF0E3FFFF0EE3504B
:1010F8002B6EF70EE3502B22FF0E6000AFF0E3FFDC
:10110800D890F40EE336F50EE336F60EE336F70E16
:10111800E336D890FB0EE332FA0EE332F90EE332EF
:10112800F80EE332F80EE350C0E1F90EE350BDE1EA
:10113800FA0EE350BAE1FB0EE350D8A4B6D7FC0E82
:101148006F008CFF2BF0FD0E6F008CFF2CF0FE0E55
:101158006F008CFF2DF0FF0E6F008CFF2EF0F40E49
:10116800E126FF0EE2221200E652E652E652E6526D
:10117800F80E6F008CFF35F0F90E6F008CFF36F01B
:10118800FF0E6000DBF0E3FFFE0E6000D7F0E3FF28
:10119800FA0E6F008CFF35F0FB0E6F008CFF36F0F7
:1011A800FD0E6000DBF0E3FFFC0E6000D7F0E3FF0C
:1011B800E150FE0FD96EE250DA6EFF0EDA226F00B0
:1011C8007CFF35F0010EDE266F007CFF36F0000E46
:1011D800DD226000D7F0F6FF6000DBF0F7FF000EBD
:1011E800F86EE150FC0FD96EE250DA6EFF0EDA228B
:1011F8006F007CFF35F0010EDE266F007CFF36F0B5
:10120800000EDD226000D7F0D9FF6000DBF0DAFFC6
:101218001F0EF76403D00800F55007D06F00DBFFFE
:10122800E9FF6F00DFFFEAFFEF50DF6EDF50D8A461
:10123800BFD7F80EE126FF0EE2221200400E000191
:10124800666F040E676F60009BF1E6FF60009FF118
:10125800E6FFE6EC19F0BE843D01149F200E156FE1
:10126800030E166F040E196F020E1C6F830E146F97
:10127800148F300EE66E570EE66E050EE66E000E03
:10128800E66ED7EC14F0460EE66E0DEC17F0410E44
:10129800E66E2DEC17F0500EE66E000EE66E000EB0
:1012A800E66E000EE66ED7EC14F0530EE66E2DECEB
:1012B80017F0020EE66E12EC1BF0500EE66E000EF2
:1012C800E66E000EE66E000EE66ED7EC14F0510ED8
:1012D800E66E0DEC17F03D01149F020E166F148F89
:1012E8001A933F0E3B01FD17FD9BFD51F90B0209B7
:1012F800FD6FE70EFD17FD81400EF96F040EFA6FC2
:10130800000EFB6FFC9B3D011A83BE941200E6524F
:10131800E652E652E652010E356E000E366EFC0EAF
:101328006000D7F0E3FFFD0E6000DBF0E3FF600034
:101338006CF336F0FF0E3626E150FC0FD96EE25002
:10134800DA6EFF0EDA22362803D0D890DE36DD3684
:10135800E82EFBD7FE0EE36AFF0EE36A29D0FA0EE9
:10136800E3A01CD0FC0E6F008CFF35F0FD0E6F0063
:101378008CFF36F0FE0E6F008CFF2BF035502B12D1
:10138800FE0E6000AFF0E3FFFF0E6F008CFF2BF046
:1013980036502B12FF0E6000AFF0E3FFD890FD0E21
:1013A800E332FC0EE332D890FB0EE332FA0EE3325E
:1013B800FA0E6F008CFF2BF0FB0EE3502B10D8A415
:1013C800CED7FE0E6F008CFF2BF0FF0E6F008CFF48
:1013D8002CF0FA0EE126FF0EE2221200286E756C40
:1013E8006C29000000000000000000000000000060
:1013F80000000000000000000000000000000000E5
:1014080000000000000000000000000000000000D4
:1014180000000000000000000000000000000000C4
:1014280000000000000000000000000000000000B4
:1014380000000000000000000000000000000000A4
:101448000000000000000000000000000000000094
:101458000000000000000000000000000000000084
:1014680000000000DD3C585E0000000000000000A5
:101478000000000000000000000000000000000064
:1014880000000000000000000000000000002D0027
:101498000000000001000000000000000000000043
:1014A8000001000100010000E652FF0EE36AFE0E93
:1014B800E350D8B40CD00101BA51D8B452D05F501F
:1014C800D8B44FD05F6AFF0EE36AE32A4AD001011D
:1014D800BA51D8A446D05F50D8A443D0BA6B010EF5
:1014E8005F6E000EE66E000EE66E7BEC14F0E552C1
:1014F8006F009CFF42F0E5526F009CFF41F0E552FF
:101508006F009CFF40F0E5526F009CFF3FF0E552F2
:101518006F009CFF3EF0E5526F009CFF3DF0E552E6
:101528006F009CFF3CF0E5526F009CFF3BF06000B1
:10153800ECF033F06000F0F034F06000F4F035F0D7
:101548006000F8F036F0580E332401018C6F020E5B
:1015580034208D6F000E35208E6F000E36208F6F71
:10156800B2D7FF0E6F008CFF2BF0E552E552120048
:10157800E150FC0FD96EE250DA6EFF0EDA22000E4F
:10158800DE14336E000EDE14346E800EDE14356EFB
:101598007F0EDE14366E3350341035103610D8A452
:1015A80008D0FC0EE36AFD0EE36AFE0EE36AFF0E46
:1015B800E36AE150F80FD96EE250DA6EFF0EDA22D4
:1015C800000EDE14336E000EDE14346E800EDE1450
:1015D800356E7F0EDE14366E3350341035103610EB
:1015E800D8A408D0F80EE36AF90EE36AFA0EE36AA3
:1015F800FB0EE36AE150FC0FD96EE250DA6EFF0E83
:10160800DA22F80EE350DE180DE1F90EE350DE1889
:1016180009E1FA0EE350DE1805E1FB0EE350DE188F
:10162800D8B402D02B9001D02B80F80EE126FF0E03
:10163800E2221200E652E652E652FD0EE36AFE0E80
:10164800E36AFF0EE36AFF0EE350080D9B0EF324D6
:10165800F66EF70EF420F76EF86A000EF822F90E0F
:10166800E3500900F55CFA0EE3500900F558FB0E4B
:10167800E3500900F558FC0EE3500900F558D8B0BE
:1016880020D0FF0EE350080D040EF326000EF422BE
:101698009B0EF324F66EF70EF420F76EF86A000E30
:1016A800F82209006F00D4FF35F009006F00D4FF5D
:1016B80036F0FD0E6000D7F0E3FFFE0E6000DBF0B1
:1016C800E3FFFF0EE32AFF0E6F008CFF2BF0190ECD
:1016D8002B64B9D7FD0E6F008CFF2BF0FE0E6F0048
:1016E8008CFF2CF0F90EE126FF0EE22212003D01DC
:1016F80017ABFDD7BC84BC80010EE66E60EC11F020
:1017080020C224F220EE20F26F0078FF35F06F003F
:1017180074FF36F06000D8F035F0366A0F0E3516D3
:10172800020125513518F00B3518256F25510F0B7F
:101738004009256FBF902551E66EC0EC1BF00201F1
:101748002451E66EC0EC1BF0BF8022C224F220EECA
:1017580022F26F0078FF35F06F0074FF36F06000FA
:10176800D8F035F0366A0F0E3516020125513518B6
:10177800F00B3518256F25510F0B5009256FBF90B9
:101788002551E66EC0EC1BF002012451E66EC0EC58
:101798001BF03D0117ABFDD7BF80000EE66E60EC75
:1017A80011F01200E652E652E652E6526000E0F10D
:1017B80033F06000E4F134F06000E8F135F06000E7
:1017C800ECF136F0FC0E6000CFF0E3FFFD0E600098
:1017D800D3F0E3FFFE0E6000D7F0E3FFFF0E6000DA
:1017E800DBF0E3FFF80E6F008CFF33F0F90E6F00AB
:1017F8008CFF34F0FA0E6F008CFF35F0FB0E6F0093
:101808008CFF36F0FC0E6000CFF0E3FFFD0E6000A9
:10181800D3F0E3FFFE0E6000D7F0E3FFFF0E600099
:10182800DBF0E3FFFF0EE39EFC0E6F008CFF2BF056
:10183800FD0E6F008CFF2CF0FE0E6F008CFF2DF05C
:10184800FF0E6F008CFF2EF0F80EE126FF0EE2224D
:101858001200E652E652FA0E6F008CFF35F0FB0ECE
:101868006F008CFF36F0FF0E6000DBF0E3FFFE0E2A
:101878006000D7F0E3FF0001B66BB76B21D0F80E1C
:101888006F008FFFE6FF6F008FFFE6FFFC0EE1247D
:101898002B6EFF0EE2202C6E6000AFF0E6FF6000BA
:1018A800B3F0E6FFF80E6F008FFFE6FF6F008FFFC3
:1018B800E6FFE4EC9DF02B500001B6272C50B7232F
:1018C800E150FE0FD96EE250DA6EFF0EDA226F0099
:1018D8007BFFF6FF6F0077FFF7FF000EF86E08003A
:1018E800F5500009D8A4CBD76000D8F22BF06000DF
:1018F800DCF22CF0F80EE126FF0EE2221200FE0EBA
:101908006F008CFF35F0FF0E6F008CFF36F0420E33
:101918003524D96E000E3620DA6E400EDF6040D0D6
:10192800FE0E6F008CFF35F0FF0E6F008CFF36F057
:10193800400E3524D96E000E3620DA6EDF50366E32
:10194800FE0E6F008CFF33F0FF0E6F008CFF34F03B
:1019580036503324D96E000E3420DA6EFD0E6F0037
:101968008FFFDFFFFE0E6F008CFF35F0FF0E6F005C
:101978008CFF36F0400E3524D96E000E3620DA6E14
:10198800DF2AFE0E6F008CFF35F0FF0E6F008CFF14
:1019980036F0420E3524D96E000E3620DA6EDF2A74
:1019A800E552E552E552120000EC1DF0000EE66E1D
:1019B80060009BF1E6FF60009FF1E6FFFCEC0EF093
:1019C800BC94FE0E6F008FFFE6FF6F008FFFE6FFEF
:1019D8002BEC0DF02C5004E1410E2B5CD8A010D05C
:1019E800FE0E6F008CFF35F0FF0E6F008CFF36F097
:1019F800400E3524D96E000E3620DA6E000EDF6EEA
:101A08003B01FC9FFE0E6F008FFFE6FF6F008FFF0C
:101A1800E6FF2BEC0DF06000AFF0F7FB6000B3F0D1
:101A2800F8FB3B01FC8FFE0E6F008FFFE6FF6F0097
:101A38008FFFE6FFFC0EE66EFF0EE66E040EE66E06
:101A4800E9EC13F003EC1DF0E552E5521200E65202
:101A5800E652FC0E6F008CFF35F0FD0E6F008CFF18
:101A680036F0FF0E6000DBF0E3FFFE0E6000D7F0FB
:101A7800E3FF11D0FC0EE350010F2B6EFC0E60004B
:101A8800AFF0E3FF2B6AFD0EE3502B202B6EFD0E0B
:101A98006000AFF0E3FFFC0E6F008FFFF6FFFD0E56
:101AA8006F008FFFF7FF000EF86E1F0EF76403D06C
:101AB8000800F55007D06F00DBFFE9FF6F00DFFF7C
:101AC800EAFFEF500009D8A4D5D7FC0E6F008CFFB1
:101AD8002BF0FD0E6F008CFF2CF0FE0EE3502B5EFA
:101AE800FF0EE3502C5AE552E552E552E55212003A
:101AF80000000000000000000000000000000000DE
:101B080000000000000000000000000000000000CD
:101B1800000000000000620FA40F9B0FA089B03DD9
:101B2800A4DE133DA4DE133D000000000000000009
:101B3800000000000000000000000000000000009D
:101B4800000000000000000000000000000000008D
:101B5800000000000000000000000000000000007D
:101B6800000000000000000000000000000000006D
:101B7800000000000000000000000000000000005D
:101B880000000000000000000000000000005719DD
:011B9800420A
:101B9A00E652E652FF0EE36AE386FE0EE36AFD0EA4
:101BAA006F008CFF36F0FE0E6F008CFF35F0D89078
:101BBA0036343534366EFE0E6000DBF0E3FFE1505A
:101BCA00FD0FD96EE250DA6EFF0EDA22D890DF36B8
:101BDA00E150FE0FD96EE250DA6EFF0EDA22FC0EE9
:101BEA00E350DE5CD8A00DD0FC0E6F008CFF36F0FF
:101BFA00E150FE0FD96EE250DA6EFF0EDA2236504D
:101C0A00DF5EFF0EE3502B6E010E2B5EFF0E6000AF
:101C1A00AFF0E3FFD8A4C3D7FE0E6F008CFF2BF002
:101C2A00E552E552E552E5521200A00EE66E0F0E9D
:101C3A00E66E640EE66E000EE66EF90E6F008FFF1A
:101C4A00E6FF6F008FFFE6FFE2EC10F02B50D8A4FE
:101C5A0002D0000E19D0A00EE66E0F0EE66E640ECC
:101C6A00E66E000EE66EF70E6F008FFFE6FF6F005E
:101C7A008FFFE6FFE2EC10F02B50D8B4EAD7FF0E44
:101C8A00E350D8A403D0010E2B6E17D0FD0E6F00BF
:101C9A008CFF26F2FE0E6F008CFF27F2FB0E6F0000
:101CAA008CFF28F2FC0E6F008CFF29F20F0E020146
:101CBA002B6F9B0E2A6F9D85E6D7FB0EE126FF0E42
:101CCA00E2221200E652E652E652FD0EE36AFE0EE8
:101CDA00E36A1FD0F90E6F008FFFE6FF6F008FFFD8
:101CEA00E6FFFD0EE350E66E000EE66E9EEC01F096
:101CFA00FD0EE350010F2B6EFD0E6000AFF0E3FF07
:101D0A002B6AFE0EE3502B202B6EFE0E6000AFF006
:101D1A00E3FFFD0E6F008CFF35F0FE0E6F008CFFA7
:101D2A0036F0FB0E6F008CFF33F0FC0E6F008CFF59
:101D3A0034F035503324D96E36503420DA6EDF5001
:101D4A00366EFF0E6000DBF0E3FFFF0EE350D8A40F
:101D5A00C1D7F90EE126FF0EE2221200E65213D095
:101D6A00FF0EE36AE38C25D0FF0EE36AE384E3887F
:101D7A0020D0540E366EFF0E6000DBF0E3FF19D060
:101D8A00FF0EE36A16D0FE0EE350356E366A365001
:101D9A00000AD8A4E5D73550000AD8B4E1D7010A19
:101DAA00D8B4E2D7030AD8B4E4D7010AD8B4E8D73A
:101DBA00D7D7450EE66E7EEC1BF0FD0E6F008CFF4A
:101DCA0036F0FF0EE3503624E66E61EC16F0A6EC10
:101DDA001CF0FB0E6F008FFFE6FF6F008FFFE6FF20
:101DEA00D8EC0CF0FB0EE126FF0EE2221200FE0EEA
:101DFA006F008CFF35F0FF0E6F008CFF36F0420E3D
:101E0A003524D96E000E3620DA6E000EDF6EFE0E15
:101E1A006F008CFF35F0FF0E6F008CFF36F0400E1E
:101E2A003524D96E000E3620DA6E000EDF6EFE0EF5
:101E3A006F008CFF35F0FF0E6F008CFF36F0410EFD
:101E4A003524D96E000E3620DA6E000EDF6EFD0ED6
:101E5A00E350D8B411D0400EE66E000EE66E000EC6
:101E6A00E66E000EE66EFA0E6F008FFFE6FF6F0059
:101E7A008FFFE6FF24ECDFF0E552E552E55212004F
:101E8A00070EBE6EBD6ABA6A230EBF6EBB6A070E24
:101E9A00BC6EC66A0C0EC76EC268BF0EC36E900EC9
:101EAA00C46E0C0EC56E3A01706B606B3C0E506FBF
:101EBA00806B906B40690C0E716F0C0E916F816B89
:101ECA00830E516F416B970E616F826B926B426BFF
:101EDA00526B626B726B4369536963697369070E6C
:101EEA00836F93690F0EE86F130EDE6F160E0E6F77
:101EFA001E0E136F080EC06F100E196F090EC16FF8
:101F0A001F0E156F130E166F170EE56F140EDF6F87
:101F1A001200E652E652E652E652800E3901686F26
:101F2A00070E696F626B636B7C6B786B776B766B92
:101F3A003F0E7B6F7A6979697D6BD50E356E000E1F
:101F4A00366EFE0E6000D7F0E3FFFF0E6000DBF096
:101F5A00E3FFFF0EE124D96EFF0EE220DA6EDF50B6
:101F6A00676FD50E666FFC0EE36AFD0EE36AFD0E1F
:101F7A00E124D96EFF0EE220DA6EDF50636F626BE6
:101F8A0069390F0B366E36280001DA6F390169514B
:101F9A000F0B366E36280001DB6FE552E552E5522B
:101FAA00E5521200E652E6524B504C10D8A409D022
:101FBA00FE0E60002FF1E3FFFF0E600033F1E3FF36
:101FCA0016D0FF0E356EFF0E366E60002CF133F020
:101FDA00600030F134F03550332636503422FE0E8C
:101FEA006000CFF0E3FFFF0E6000D3F0E3FFFB0ECB
:101FFA006F008CFF60F30301616BFE0E6F008FFFB1
:10200A00E6FF6F008FFFE6FF600EE66E030EE66ED8
:10201A00F80E6F008FFFE6FF6F008FFFE6FFD5EC2B
:10202A0003F0FB0EE126FF0EE22212003E01E6510A
:10203A006F009CFB2BF02C6A6000ACF02CF02B6A32
:10204A002B26000E2C2202013851020D000EF32419
:10205A00D96E020EF420DA6E6000AFF0DEFF600087
:10206A00B3F0DDFF0201382B0D0E386504D0010EE6
:10207A003B6FBE9212006000E0F836F020EE39F2B3
:10208A006F0078FF33F06F0074FF34F0362A03D004
:10209A00D89034323332362EFBD733A0E3D7E7EC6D
:1020AA001CF0020138510F0BE66E6EEC1CF0BE827A
:1020BA001200E652E652FC0EE3509F0F356EFD0EFB
:1020CA006F008CFF36F0FF0E3622365006E11A0EEC
:1020DA00355CD8B002D0010E01D0000E356E366ADA
:1020EA00FE0E6000D7F0E3FFFF0E6000DBF0E3FFB7
:1020FA00FE0E6F008CFF2BF0FF0EE3502B10D8B4AE
:10210A000DD0FC0E6F008CFF2BF0FD0E6F008CFFC4
:10211A002CF05F0E2B16000E2C1608D0FC0E6F004A
:10212A008CFF2BF0FD0E6F008CFF2CF0E552E55270
:10213A00E552E5521200E652E652FC0EE350BF0F9A
:10214A00356EFD0E6F008CFF36F0FF0E36223650CC
:10215A0006E11A0E355CD8B002D0010E01D0000E8D
:10216A00356E366AFE0E6000D7F0E3FFFF0E6000A0
:10217A00DBF0E3FFFE0E6F008CFF2BF0FF0EE35047
:10218A002B10D8B40DD0FC0E6F008CFF2BF0FD0E77
:10219A006F008CFF2CF0200E2B12000E2C1208D090
:1021AA00FC0E6F008CFF2BF0FD0E6F008CFF2CF0E5
:1021BA00E552E552E552E5521200FA0E6F008CFF25
:1021CA0035F0FB0E6F008CFF36F0FC0EE35035261F
:1021DA00FD0EE3503622FE0EE350355C3650800A7F
:1021EA002B6EFF0EE350800A2B58D8B002D0000E97
:1021FA001ED0FA0E6F008CFF35F0FB0E6F008CFFBD
:10220A0036F0FC0EE350355EFD0EE350365AFE0EF4
:10221A006F008CFF2BF035502B5CFF0EE350800AC9
:10222A002B6E3650800A2B58D8A0E1D7010E2B6EA0
:10223A00FA0EE126FF0EE2221200FD0E6F008CFF5D
:10224A002BF0FE0EE3502B10D8A402D0000E1AD0A9
:10225A00FF0EE350D8B418D002019DA1F7D720EEA3
:10226A003CF2FD0E6F008FFFE9FFFE0E6F008FFF3D
:10227A00EAFF600E6F006FFFEBFFE806FBE29DA32B
:10228A00E5D7010E2B6E13D0FD0E6F008FFFD9FF1D
:10229A00FE0E6F008FFFDAFF00EE3CF2600E6F0059
:1022AA006FFFEBFFE806FBE202019D81CFD7E55203
:1022BA00E552E5521200FF0EE350D8B422D03D0198
:1022CA00149F5950D8A411D0010E596E6F0050F4C2
:1022DA0058F06F0054F457F06F0058F456F06F003E
:1022EA0070F455F06F0064F454F0156B158D159B5E
:1022FA00159F030E166F0F0E196F1C6B830E146F4A
:10230A0014D05950D8B412D03D01149F60005FF127
:10231A0015FD60005BF116FD600057F11CFD6000C1
:10232A0053F119FD600063F114FD148FE552120098
:10233A00FA0E6F008FFFE6FF6F008FFFE6FF6F0058
:10234A008FFFE6FF6F008FFFE6FFFA0E6F008FFF29
:10235A00D9FFFB0E6F008FFFDAFF6F007BFFE6FFEE
:10236A006F007BFFE6FF6F007BFFE6FF6F007BFFDE
:10237A00E6FF3CECB8F0FE0E6F008FFFD9FFFF0EB0
:10238A006F008FFFDAFF6000AFF0DEFF6000B3F08E
:10239A00DEFF6000B7F0DEFF6000BBF0DEFFFA0E82
:1023AA00E126FF0EE2221200FE0E6F008CFF35F0CE
:1023BA00FF0E6F008CFF36F0040E3524D96E000E26
:1023CA003620DA6EDF50D8A423D0FE0E6F008CFFC1
:1023DA0035F0FF0E6F008CFF36F0050E3524D96EEE
:1023EA00000E3620DA6EDF50D8A412D0FE0E6F002F
:1023FA008CFF35F0FF0E6F008CFF36F0040E35248B
:10240A00D96E000E3620DA6E010EDF6E010E01D093
:10241A00000E2B6EE552E552120021EE00F100EE9D
:10242A0000F2A00E6F007BFFEEFFE806FBE2A10EB2
:10243A00D95EE95E02019DB50CD00F0E276F620EC0
:10244A00266F0F0E296FA40E286F0F0E2B6F9B0E8F
:10245A002A6F9DB71200A00E2C6F890E2D6FB00E39
:10246A002E6F3D0E2F6FA40E306FDE0E316F130EDE
:10247A00326F3D0E336FA40E346FDE0E356F130EBE
:10248A00366F3D0E376F1200000E3B01F96F100ECA
:10249A00FA6F000EFB6F3D0EF16F110EF06F030E17
:1024AA00FD6F000EF86F010EF76F000EEF6F010E51
:1024BA00EE6F150EFF6FFE6B3901A293A291A297E0
:1024CA00A2959283928192879285F16B010EF26FA7
:1024DA00040EF36F020EF46F030EF76FD29E3901EA
:1024EA00550EEF6FAA0EEF6FEF81D28E3B01FC6B98
:1024FA0012003E01DE6BDF6BE06BE16BE46BE56BB8
:10250A00EA6B400EEC6FF16BF36B010EF46FF56B37
:10251A00F66BF76BF96B5B0EFA6F270EFB6FFC6BB2
:10252A00020EFD6FFE6B3F0EFF6F840EF86F3901CE
:10253A00A1959185220EE66E3A0EE66E000EE66EC3
:10254A00C2EC1AF03901A1979187220EE66E3A0E73
:0C255A00E66E000EE66EAEEC1AF0120009
:102568006000ACF002F06000B0F003F06000CCF066
:1025780004F06000D0F005F06000D8F006F014EE2A
:1025880034F33901A19700019D519E119F11D8B4D0
:102598000CD001D80AD00500FA6E9D51FD6E9E51EF
:1025A800FE6E9F51FF6EFA501200600018F036F070
:1025B800600014F034F0600010F033F060000CF0AC
:1025C8002CF0600008F02BF01100E652D2AE03D0D8
:1025D800366A362A01D0366AFF0E6000DBF0E3FF68
:1025E800FE0EE124D96EFF0EE220DA6EDF50030BF7
:1025F8003901E16FFD0E6F008FFFE0F9FC0E6F00EF
:102608008FFFE3F93F0EE517E585D29E550EE66F7D
:10261800AA0EE66FE583E5B3FED7E595FF0EE3B0B6
:1026280002D0D29E01D0D28EE552E552E552E55253
:10263800120002013B51D8A41200386B3A014051F4
:102648006E0040F92BF02C6A6000ACF02CF02B6A7D
:102658002B26000E2C22770E2B140201396F3C0E0C
:102668002C143A6FDA0EE66E370EE66E000EE66E42
:10267800C2EC1AF0360EE66E200EE66E000EE66E1E
:10268800AEEC1AF0E7EC1CF0020138510F0BE66EC5
:102698006EEC1CF0BE82BE841200FE0E6F008CFF32
:1026A80035F0FF0E6F008CFF36F0030E3524D96E1F
:1026B800000E3620DA6E000EDF6EFE0E6F008CFF05
:1026C80035F0FF0E6F008CFF36F0050E3524D96EFD
:1026D800000E3620DA6E000EDF6EFE0E6F008CFFE5
:1026E80035F0FF0E6F008CFF36F0070E3524D96EDB
:1026F800000E3620DA6E000EDF6EE552E55212004B
:10270800E652D28AD2AE03D0366A362A01D0366A69
:10271800FF0E6000DBF0E3FFD29E550ED46EAA0ECA
:10272800D46ED49038019F6B9E6B080E9D6F550E2A
:10273800D46EAA0ED46ED480FF0EE3B002D0D29E1F
:1027480001D0D28E390182878283828182858687F1
:1027580086858387818185918981889D869D8185EC
:102768008187E5521200FE0E6F008CFF2BF0020EDF
:102778002B180DE1FF0EE350D8A409D0FC0EE3504E
:102788001C0F2B6EFD0E6F008CFF2CF017D0FF0E68
:10279800366EFE0EE3503624356ED50E2B6E0A0EBD
:1027A8002C6E352A03D02C342C322B32352EFBD705
:1027B800010E2B16000E2C161E0E2B26000E2C2298
:1027C800E552E552E552E5521200E652E652FB0E9A
:1027D800E124356EFF0EE220366EFF0E6000DBF05E
:1027E800E3FFFE0E6000D7F0E3FFFE0EE1242B6E40
:1027F800FF0EE2202C6E6000AFF0E6FF6000B3F041
:10280800E6FFF90E6F008FFFE6FF6F008FFFE6FF10
:10281800000EE66E000EE66E2DEC0CF0E552E55269
:10282800E552E750E15E000EE25A1200E652E65227
:10283800E652E652FF0E336EFF0E346EFF0E356E13
:102848007F0E366EFC0E6000CFF0E3FFFD0E6000D9
:10285800D3F0E3FFFE0E6000D7F0E3FFFF0E600049
:10286800DBF0E3FFFC0E6F008CFF2BF0FD0E6F001A
:102878008CFF2CF0FE0E6F008CFF2DF0FF0E6F000A
:102888008CFF2EF0FA0EE126FF0EE222120039012B
:102898009695600EE66E370EE66E000EE66E22EC3A
:1028A8001AF039019697760EE66E330EE66E000E34
:1028B800E66E0EEC1AF03D01D46BD66BD86BB00EF9
:1028C800DA6F800EDB6FDC6B820EDD6F060EDE6F5B
:1028D800DF6BE06BE16BE26B0001C76B5D6A400E7A
:1028E8005C6E5B6AC66BC56B390196851200060E75
:1028F800E126000EE2223901989D0101885100016C
:10290800CA6F010189510001CB6F01018A51000191
:10291800CC6F01018B510001CD6FCE6BCF6BD06BAB
:10292800D16B3901988DF80E6F008CFF2BF0F90EE2
:10293800E3502B1020EECAF0080E2B6EF80E6F0035
:102948007BFFE3FFE8282B2EFAD71200780E6F00E2
:10295800A0FF41FC000E6F00A0FF42FC640E6F0058
:10296800A0FF43FC000E6F00A0FF44FC23EE19F00B
:102978006F0078FF1DFC6F0078FF1EFC6F0078FF6A
:102988001FFC6F0074FF20FC23EE1DF06F0078FF22
:1029980029FC6F0078FF2AFC6F0078FF2BFC6F0082
:1029A80074FF2CFC12000001906B916B926B936B7F
:1029B80000F00400010E00019027000E91239223DD
:1029C8009323FC0E6F008CFF2BF090512B5CFD0EB7
:1029D8006F008CFF2BF091512B58FE0E6F008CFF6F
:1029E8002BF092512B58FF0E6F008CFF2BF0935158
:1029F8002B58D8B0DDD7E552E552E552E552120022
:102A0800000E3B01D96F100EDA6F000EDB6F3F0E20
:102A1800D16FBB0ED06F030EDD6F000ED86F010EA5
:102A2800D76F000ECF6F010ECE6F1C0EDF6F3D0EFD
:102A3800DE6F3901A597A595A59BA59995979595BD
:102A4800959B9599D29E3901550EEF6FAA0EEF6F9F
:102A5800EF81D28E3B01DC6B1200E652FF0EE36A77
:102A6800E32AFD0E6F008CFF2BF0200E2B1804E1DB
:102A7800FE0EE350D8B412D0FD0EE350F70F356EBA
:102A8800FE0E6F008CFF36F0FF0E3622365004E142
:102A9800050E355CD8A002D0FF0EE36AFF0EE350A6
:102AA8002B6E2C6AE552E552E5521200FE0EE30445
:102AB800FF0E6F008CFF2BF0020E2B5AD8A00CD003
:102AC800000E356E020E366EFE0E6000D7F0E3FF84
:102AD800FF0E6000DBF0E3FF3B01DC9FFE0E6F00A2
:102AE8008FFFD7FBFF0E6F008FFFD8FB000ECF6F55
:102AF800010ECE6FDC8FDC8DE552E552120084ECBE
:102B080013F05BEC1CF045EC0FF050EC1CF0F3EC10
:102B18001CF08EEC0FF07EEC12F045EC1CF023EC70
:102B28001CF0FBEC18F0D1EC19F03DEC16F019ECA8
:102B380016F0F5EC15F04BEC14F03AEC1CF004EC44
:102B480015F049EC12F0CBEC1CF01200E652FF0E27
:102B5800E36AFF0EE350020DCA0EF324D96E020E8B
:102B6800F420DA6EDE50DE10D8B40CD0FF0EE3503D
:102B7800020DCA0EF324D96E020EF420DA6EDE06B8
:102B8800000EDD5AFF0EE32AFF0E6F008CFF2BF0BC
:102B98000C0E2B64DED7E5521200FC0EE3500AE15E
:102BA800FD0EE35007E1FE0EE35004E1FF0EE35093
:102BB800D8B402D0FF0EE37EFC0E6F008CFF2BF022
:102BC800FD0E6F008CFF2CF0FE0E6F008CFF2DF0B9
:102BD800FF0E6F008CFF2EF0E552E552E552E552EC
:102BE8001200390193971E0EE66E370EE66E000E40
:102BF800E66E36EC1AF03D01EC6BED6BEE6BEF6BAD
:102C0800F06BF16BB00EF26F800EF36FF46B8A0EFF
:102C1800F56FF66BF76BF86BF96BFA6B5E6A000190
:102C2800C96BC86B3901938712009B6A9C6A010EB5
:102C38009D6E630E996EC00E986E98506F0064FE7C
:102C48002BF02C6A6000ACF02CF02B6A2B100001E2
:102C5800C26F2C50C36F3901A89D988D820EE66E05
:102C6800300EE66E000EE66E5EEC1AF0310E9A6ECD
:102C78001200A76AA86A010EA96E3C0EA56EB00ED6
:102C8800A46EA4506F0094FE2BF02C6A6000ACF088
:102C98002CF02B6A2B100001BE6F2C50BF6F39012E
:102CA800A69D968D1E0EE66E3A0EE66E000EE66E38
:102CB80072EC1AF0310EA66E120000EC1DF0000E38
:102CC800E66E60009BF1E6FF60009FF1E6FFFCEC1A
:102CD8000EF0BC943B01FC9F000EF86F010EF76FDD
:102CE800FC8FFF0EE350E66E60009BF1E6FF60008C
:102CF8009FF1E6FF83EC0CF003EC1DF0E5521200A7
:102D0800FF0EE3BE07D0FF0EE35012E1FE0EE30410
:102D1800D8B00ED0FE0E6F008CFF2BF02B1EFF0ECE
:102D28006F008CFF2CF02C1E2B2AD8B42C2A08D02C
:102D3800FE0E6F008CFF2BF0FF0E6F008CFF2CF047
:102D4800E552E5521200FB0EE37EF80E6F008FFF8E
:102D5800E6FF6F008FFFE6FF6F008FFFE6FF6F0053
:102D68008FFFE6FFF80E6F008FFFE6FF6F008FFF03
:102D7800E6FF6F008FFFE6FF6F008FFFE6FF3CEC7A
:102D8800B8F0F80EE126FF0EE22212009F0E356E13
:102D9800FF0E366EFE0E6F008CFF33F0FF0E6F00D5
:102DA8008CFF34F0200E3312000E341235503326C7
:102DB80036503422345006E11A0E335CD8B002D0B3
:102DC800010E01D0000E2B6E2C6AE552E55212005E
:102DD800FE0E6F008CFF35F0FF0E6F008CFF36F093
:102DE800D89036323532D890363235323550616E19
:102DF800FE0E6F008CFF36F0030E3616060E2B6E95
:102E0800D89036362B2EFCD73650606EE552E552F8
:102E18001200BC94FE0EE66EC0EC1BF0080EE66EC7
:102E2800000EE66E000EE66E000EE66ED7EC14F0AD
:102E3800FF0EE350E66EC0EC1BF0200EE66E030EAC
:102E4800E66E000EE66E000EE66ED7EC14F0E55264
:102E58001200BC94FE0EE66EC0EC1BF0080EE66E87
:102E6800000EE66E000EE66E000EE66ED7EC14F06D
:102E7800FF0EE350E66EC0EC1BF0080EE66E000E87
:102E8800E66E000EE66E000EE66ED7EC14F0E55224
:102E98001200FD0E6F008CFF35F0FE0E6F008CFFE8
:102EA80036F0D8903534336E3634346EFF0EE35036
:102EB800020DCA0EF324D96E020EF420DA6E6000F9
:102EC800CFF0DEFF6000D3F0DDFFE552E552E552BA
:102ED80012009AA40FD09A90FF0EE124D96EFF0E2B
:102EE800E220DA6EDF50996EFE0E6F008FFF98FFBA
:102EF8009A800CD0FF0EE124D96EFF0EE220DA6E24
:102F0800DF50996EFE0E6F008FFF98FFE552E55275
:102F18001200A6A40FD0A690FF0EE124D96EFF0ED2
:102F2800E220DA6EDF50A56EFE0E6F008FFFA4FF61
:102F3800A6800CD0FF0EE124D96EFF0EE220DA6ED7
:102F4800DF50A56EFE0E6F008FFFA4FFE552E5521D
:022F5800120065
:102F5C006F0060FF08F06000ACF009F06000D4F086
:102F6C000AF06000D8F00BF016EE9AF13901A59139
:102F7C0024EC1BF060002CF036F0600028F035F0EB
:102F8C00600024F02BF0600023F0D8FF1100F40E49
:102F9C006F008CFF2BF0F50EE3502B10D8B40CD037
:102FAC00F40E6F008FFFD9FFF50E6F008FFFDAFF65
:102FBC00000EDE6E000EDD6E000E2B6E000E2C6E03
:102FCC00F40EE126FF0EE222120002013B51D8B4AE
:102FDC001200FDEC1CF01DEC13F0C80EE66E000E9A
:102FEC00E66E010EE66E4DEC17F0010EE66EFAEC95
:102FFC0019F02B50D8A41200FCECFFF02B50D8A4E5
:10300C001200F3D76000D8F001F014EE34F339015C
:10301C00A1950001A051A111A211D8B40CD001D8D6
:10302C000AD00500FA6EA051FD6EA151FE6EA251A0
:10303C00FF6EFA501200600004F036F01100CBB0B5
:10304C000CD00101A385080EE66EFAEC19F02B509A
:10305C00D8B403D0010E2B6E12000101A3B508D019
:10306C002C0EE66E010EE66E080EE66E4DEC17F0B9
:10307C00000E2B6E1200BEA002D0010E01D0000E6D
:10308C00FF0A366EBE503618FE0B3618BE6E010E99
:10309C000101BF27000EC023C123C223010E8827C4
:1030AC00000E89238A238B2377ECD4F0120039018C
:1030BC00989DE150F80FD96EE250DA6EFF0EDA22CD
:1030CC006F0078FF88F16F0078FF89F16F0078FF4F
:1030DC008AF16F0078FF8BF1988DF80EE126FF0EC8
:1030EC00E2221200FE0E6F008FFFE6FF6F008FFFD3
:1030FC00E6FF000EE66E4DEC17F005D000F000F088
:10310C0000F000F00400000EE66EFAEC19F02B5003
:10311C00D8B4F4D7E552E5521200FE0EE350FF0F7F
:10312C00356EFF0E6F008CFF36F0FF0E36226000FE
:10313C00D4F0ECF26000D8F0EDF20201EE6BEF6B24
:10314C00F06BF16BF26BF36BE552E5521200FC0E77
:10315C006F008FFFE6FF6F008FFFE6FF6F008FFFA2
:10316C00E6FF6F008FFFE6FFBDEC02F06000ACF0F5
:10317C0022F26000B0F023F2E552E552E552E5523E
:10318C001200FC0E6F008FFFE6FF6F008FFFE6FF53
:10319C006F008FFFE6FF6F008FFFE6FFBDEC02F0C4
:1031AC006000ACF020F26000B0F021F2E552E55284
:1031BC00E552E552120039019197FF0EE350020DD2
:1031CC00000EF324D96E020EF420DA6E6F0078FF35
:1031DC00B8F06F0074FFB9F091876000E0F22BF04B
:1031EC006000E4F22CF0E55212003901A191D2906A
:1031FC00200EE66E3A0EE66E000EE66E9AEC1AF0B3
:10320C0039019181A591D292420EE66EF90EE66ECD
:10321C00010EE66E86EC1AF0390195811200FF0E54
:10322C00E124D96EFF0EE220DA6EDF50030B390178
:10323C00E16FFE0E6F008FFFE0F93F0EE517E581A1
:10324C0000F000F06E008CF72BF0E552E552120006
:10325C003F0E3B01DD17DD9BDD51F90B0209DD6FE4
:10326C00E70EDD17DD81DC9D3D0ED16FEA0ED06FD0
:10327C00810ED96F090EDA6F000EDB6FDC9B12002A
:10328C00FE0EE3509F0F356EFF0E6F008CFF36F075
:10329C00FF0E3622365006E11A0E355CD8B002D03D
:1032AC00010E01D0000E2B6E2C6AE552E552120075
:1032BC00FE0EE350BF0F356EFF0E6F008CFF36F025
:1032CC00FF0E3622365006E11A0E355CD8B002D00D
:1032DC00010E01D0000E2B6E2C6AE552E552120045
:1032EC00FE0EE350D00F356EFF0E6F008CFF36F0E4
:1032FC00FF0E3622365006E10A0E355CD8B002D0ED
:10330C00010E01D0000E2B6E2C6AE552E552120014
:10331C00FE0EE350030BA00DFF0E2B6E060E2C6E53
:10332C00F3502B26F4502C22FF0EE350030B280DE8
:10333C00F3502B26F4502C22E552E5521200FF0ECE
:10334C006F008CFF2BF0050E2B6402D0000E0AD000
:10335C00FF0EE350050DA10EF324D96E020EF420DE
:10336C00DA6EDF502B6EE5521200400E5C6010D00E
:10337C00000E5D24D96EDA6A040EDA22DF503D01AC
:10338C00D26F5D2A3F0E5D6401D05D6A5C2A12002B
:10339C00390196971200010E966E956A976A7C0E0B
:1033AC00936E926A3901A9919981540EE66E2B0E97
:1033BC00E66E000EE66E4AEC1AF0E00E946E120009
:1033CC00430EE66E000EE66E000EE66E000EE66E26
:1033DC00FA0E6F008FFFE6FF6F008FFFE6FF24EC05
:1033EC00DFF0E552E55212000400FF0EE350020D2F
:1033FC00CA0EF324D96E020EF420DA6EDE50DE1003
:10340C00D8A402D0010E01D0000E2B6EE552120092
:10341C00E150FD0FD96EE250DA6EFF0EDA226F002A
:10342C0078FFA6F06F0078FFA7F06F0074FFA8F08C
:10343C00E552E552E5521200E150FD0FD96EE25013
:10344C00DA6EFF0EDA226F0078FFA9F06F0078FFBA
:10345C00AAF06F0074FFABF0E552E552E552120092
:10346C00E150FD0FD96EE250DA6EFF0EDA226F00DA
:10347C0078FFA3F06F0078FFA4F06F0074FFA5F045
:10348C00E552E552E5521200E150FD0FD96EE250C3
:10349C00DA6EFF0EDA226F0078FF9AF06F0078FF79
:1034AC009BF06F0074FF9CF0E552E552E552120060
:1034BC00E150FD0FD96EE250DA6EFF0EDA226F008A
:1034CC0078FF97F06F0078FF98F06F0074FF99F019
:1034DC00E552E552E5521200E150FD0FD96EE25073
:1034EC00DA6EFF0EDA226F0078FF94F06F0078FF2F
:1034FC0095F06F0074FF96F0E552E552E55212001C
:10350C00E150FD0FD96EE250DA6EFF0EDA226F0039
:10351C0078FFACF06F0078FFADF06F0074FFAEF089
:10352C00E552E552E5521200E150FD0FD96EE25022
:10353C00DA6EFF0EDA226F0078FFAFF06F0078FFC3
:10354C00B0F06F0074FFB1F0E552E552E552120095
:10355C00E150FD0FD96EE250DA6EFF0EDA226F00E9
:10356C0078FF9DF06F0078FF9EF06F0074FF9FF066
:10357C00E552E552E5521200E150FD0FD96EE250D2
:10358C00DA6EFF0EDA226F0078FFA0F06F0078FF82
:10359C00A1F06F0074FFA2F0E552E552E552120063
:1035AC0014EE34F30001A351A411A511D8B41100E9
:1035BC0001D811000500FA6EA351FD6EA451FE6EE8
:1035CC00A551FF6EFA50120014EE34F30001A6510F
:1035DC00A711A811D8B4110001D811000500FA6E7A
:1035EC00A651FD6EA751FE6EA851FF6EFA50120047
:1035FC0014EE34F30001A951AA11AB11D8B4110087
:10360C0001D811000500FA6EA951FD6EAA51FE6E8B
:10361C00AB51FF6EFA501200BC94FF0EE350E66EF5
:10362C00C0EC1BF0080EE66E000EE66E000EE66EA9
:10363C00000EE66ED7EC14F0E55212000001AC510E
:10364C00AD11AE11D8B4120001D812000500FA6EFB
:10365C00AC51FD6EAD51FE6EAE51FF6EFA501200C4
:10366C000001975198119911D8B4120001D8120089
:10367C000500FA6E9751FD6E9851FE6E9951FF6ED2
:10368C00FA5012000001945195119611D8B4120001
:10369C0001D812000500FA6E9451FD6E9551FE6E24
:1036AC009651FF6EFA5012000001AF51B011B111DA
:1036BC00D8B4120001D812000500FA6EAF51FD6E9D
:1036CC00B051FE6EB151FF6EFA50120000019A51CA
:1036DC009B119C11D8B4120001D812000500FA6E8F
:1036EC009A51FD6E9B51FE6E9C51FF6EFA5012006A
:1036FC00A6EC1CF0FE0EE66E61EC16F0A6EC1CF0CF
:10370C00FF0EE350E66E61EC16F0A6EC1CF0E552F1
:10371C001200E40E5E24D96EDA6A020EDA226F0011
:10372C00A3F7DFFF5E2A070E5E6401D05E6A00011C
:10373C00C82B120039019591E00EE66EF70EE66E7D
:10374C00010EE66E86EC1AF0020E0201C46F39010E
:10375C0095811200000E5B24D96EDA6A060EDA220D
:10376C006F0043F7DFFF5B2A5B28D8B45B6A00016C
:10377C00C52B1200010E3D01126FFF0E6F008FFF63
:10378C0011FD3901A2A9FDD76F0040F42BF0E552D1
:10379C001200FF0E6F008CFF36F0030E361622EE71
:1037AC007FF1DF503618FE0B3618DF6EE552120033
:1037BC00070EE66EFAEC19F02B50D8B406D00101C6
:1037CC00AC51FF0E6F008CFFACF1E5521200BEA4A1
:1037DC0002D0010E01D0000EFF0A366E3646364678
:1037EC00BE503618FB0B3618BE6E1200FF0EE3509F
:1037FC00E66E60009BF1E6FF60009FF1E6FF83EC54
:06380C000CF0E552120071
:103814006000ACF007F014EE34F33901A9916CECBC
:103824001BF060001CF02BF01100FE0E6F008FFFE8
:10383400E6FF6F008FFFE6FFECEC16F0E552E55271
:103844001200010EAE6EAD6AAF6A630EAB6EAA6A69
:103854003901A495C00EAC6E1200CB0EE66E030EB9
:10386400E66EFD0EE350E66E32ECECF0E55212002B
:10387400400E3D01156F030E166F4F0E196F1C6B32
:10388400830E146F1200800E626E616A400E606EC9
:103894003F015F513F0B40095F6F1200200E390159
:1038A400D96FDB6BDD6B020EDF6FDE6BDCB11200F8
:1038B400FDD73901C06BC16BC26BC36BC46BC56BE5
:1038C400C66BC76B1200390168B104D0FF0E6F00DC
:1038D4008FFF60F9E5521200FF0E6F008FFFF1FEBB
:1038E4003E01F88FF881E5521200FF0EE3B002D0DA
:1038F400BD9A01D0BD8AE5521200FF0EE3B002D09A
:10390400BD9801D0BD88E5521200390168AB03D0DF
:103914002B6A2B2A12002B6A12000101AD51FF0EF3
:103924006F008CFFADF1E5521200FF0EE3B002D040
:10393400BD9C01D0BD8CE5521200FF0EE350E66E33
:103944007EEC1BF0E5521200000160B7FDD73D018B
:1039540017BB1200FCD72C0EE66E010EE66EECECE3
:1039640016F01200BDAC03D02B6A2B2A12002B6A6E
:0239740012003F
:0E39780014EE34F33901A1915AEC1BF011004A
:1039880014EE34F33901A2910001609711003C0153
:10399800E66B940EE56F1200810E2B6E090E2C6EED
:0239A80012000B
:0A39AC0014EE34F33901A293110068
:0A39B80014EE34F33901A297110058
:1039C40014EE34F33901A29511003B0E3E01F16F60
:1039D40012006000B0F62BF012006000B4F62BF079
:1039E4001200AF0E3E01C16F120002019D8312004E
:1039F4003901688D120002013B6B120000016087DF
:103A040012003B01FC8D12003901969D1200390110
:103A1400968D120014EE34F31100120012001200FD
:013A240001A0
:10F79A0000D859000005000000685B00000A00005C
:10F7AA0000305C000014000000385E000019000000
:10F7BA0000885E00001E000000785F00002800003C
:10F7CA0000DC5F00002D000000186000003200001D
:10F7DA000046600000350000007C60000037000031
:10F7EA0000AE60000039000000E06000003C00004C
:10F7FA0000126100003F0000005D6100004300004C
:10F80A0000A861000046000000BC6100004800003A
:10F81A0000D06100004B000000DA610000500000D7
:10F82A0000E461000055000000F86100005A000081
:10F83A0000086200005C000000226200005D000017
:10F84A0000346200005F00000048620000610000AE
:10F85A00005C62000064000000846700006200002F
:10F86A00000000000080DE280080C84D0000A77656
:10F87A000000349E008012C700809FEE00007E17B1
:10F88A0001805C400180E9670100C890010055B819
:10F89A00011F1E1F1E1F1F1E1F1E1F1F1D636F6DB0
:10F8AA006D616E64732031000000000000000000EA
:10F8BA00000000646973706C617973203100000084
:10F8CA00000000000000000000636F6D6D616E644F
:10F8DA0073203200000000000000000000000064F5
:10F8EA006973706C617973203200000000000000B7
:10F8FA000000000000636F6D6D616E647320330059
:10F90A000000000000000000000000646973706CD1
:10F91A00617973203300000000000000000000003D
:10F92A0000636F6D6D616E64732034000000000027
:10F93A0000000000000000646973706C6179732034
:10F94A00340000000000000000000000007C7C2F52
:10F95A002F2D2D0000000000000000000000000014
:10F96A00007C7C2F2F2D2D5C5C0000000000000025
:10F97A0000000000004F4F4F4F4F4F2D2D5F5F2D5E
:10F98A0000000000000000000076763C3C5E5E3E0F
:10F99A003E0000000000000000000000002E2E2A99
:10F9AA002A7823782358587C7C2D2D0000000000EB
:10F9BA00002E2E6F6F4F4F6F6F0000000000000087
:10F9CA0000000000000000803F0000C03F474D5487
:10F9DA000000AAB83FC623F6B80040763F20256348
:10F9EA00202C256C752C25342E34662C25342E3487
:10F9FA00662C25342E34662C25342E34662C253478
:10FA0A002E33662C25342E33662C25342E33662C61
:10FA1A0025342E33662C25342E33662C25342E338A
:10FA2A00662C25342E33662C25342E33662C253449
:10FA3A002E33662C25642C25642C25322E36662C12
:10FA4A0025342E33662C25642C25642C256C752CC4
:10FA5A00256C752C25342E33662C25342E33662CD2
:10FA6A0025342E33660D0A004A616E4665624D6181
:10FA7A00724170724D61794A756E4A756C4175674B
:10FA8A005365704F63744E6F764465630053256304
:10FA9A00432025642052554E202564205625322EB7
:10FAAA003266202020202020202000256420256482
:10FABA0020256420256420202020202020202020AA
:10FACA00202020202020004C4F414420572025335D
:10FADA002E3266204C412025322E326620202020EC
:10FAEA0020200052312025322E33662025332E3431
:10FAFA006620202020202020202020202000523292
:10FB0A002025322E33662025332E346620202020ED
:10FB1A00202020202020202000204D6573672025EA
:10FB2A006420537461636B202564202020202020E8
:10FB3A002020005320532563432025642025322E9C
:10FB4A0034662020202020202020202000424154FA
:10FB5A005420572025332E326620202020202020B2
:10FB6A00202020202000455352202025322E3666A0
:10FB7A002020202020202020202020202000523158
:10FB8A002025322E33662025332E3466202020206D
:10FB9A0020202020200052322025322E33662025B4
:10FBAA00332E3466202020202020202020004241AD
:10FBBA00482025332E3266205025332E32662020E7
:10FBCA00202020202000202020202020202020204B
:10FBDA0020202020202020202020202000455352B1
:10FBEA00202025322E36662020202020202020208A
:10FBFA002020200053746174696320534F432025E9
:10FC0A006420202020202020202000424154204926
:10FC1A0057482025342E31662020202020202020FD
:10FC2A002000424154204F57482025342E31662067
:10FC3A0020202020202020200042415420545748D0
:10FC4A002025342E3166202020202020202020004C
:10FC5A00494E56202057482025332E326620202030
:10FC6A00202020202020004C4F41442057482025A6
:10FC7A00332E3266202020202020202020005056BB
:10FC8A002025632057482025332E32662020202045
:10FC9A0020202020004D50505420572025332E324A
:10FCAA0066202564202020202020200042617474D0
:10FCBA006572792041682025332E32662020202063
:10FCCA0020200042562025322E326620424120252D
:10FCDA00322E326620202020200043562025322E44
:10FCEA0032662043412025322E32662020202020F1
:10FCFA000050562025322E32662050412025322EC1
:10FD0A00326620202020200053756E4D6F6E547588
:10FD1A006557656454687546726953617400202595
:10FD2A00642025642020202020202020202020203C
:10FD3A002020200020256C6420256C6420202020AF
:10FD4A002020202020202020200042562025322E4C
:10FD5A00346620202020202020202020202020005F
:10FD6A00546F20454550524F4D20202020202020FE
:10FD7A002020202020004261747465727920455346
:10FD8A0052202020202020202020200043616C6364
:10FD9A00756C6174696F6E2020202020202020203D
:10FDAA00200043616C6962726174696F6E20202061
:10FDBA00202020202020200053656E736F72205A65
:10FDCA0065726F20202020202020202020005A65E4
:10FDDA00726F2043616C20536574202020202020FC
:10FDEA00202020004261747465727920616E64205B
:10FDFA0050562020202020202000436865636B692C
:10FE0A006E672025632025632020202020202000E3
:10FE1A002054696D6520256C752C20256C75202071
:10FE2A0020202020200053656E736F722052656176
:10FE3A0064696E6773202020202020004368656370
:10FE4A006B203330207365636F6E6473202020202B
:10FE5A0020005A65726F204F7574204F66205261D8
:10FE6A006E6765202020200025642025322E346606
:10FE7A002C20256420205452494D20202000537400
:10FE8A006162696C69747920636C6F636B202564A5
:10FE9A0020202000486973746F727920446174616C
:10FEAA002020536176656420200048454C50202567
:10FEBA0073202020202020202020202020200044E1
:10FECA004953504C415920257320202020202020BE
:10FEDA0020202000204E534153504F4F4B202020CA
:10FEEA002020202020202020002056657273696F70
:10FEFA006E2025732020202020202020200050560C
:10FF0A0020256320572025332E32662020202020EA
:10FF1A00202000204D424D4320534F4C41524D4F1B
:10FF2A004E20202020202000526561642045455043
:10FF3A00524F4D2044415441202020200052656CEC
:10FF4A006561736520627574746F6E202563202065
:10FF5A002000496E76616C696420454550524F4DC8
:10FF6A002044415441200048454C5020257320200C
:10FF7A002020202020202020200025642025322E29
:10FF8A0034662C2025642020202320002564202587
:10FF9A00322E3466202020256420202000767465C5
:10FFAA00726D2025783A2578202020004D61722034
:10FFBA003230203230323000257320202020202099
:10FFCA00200032323A30363A303600312E3334009D
:10FFDA00494E46004E414E00696E66006E616E00E3
:10FFEA006C58006C64006C66006C69006C75006C7F
:06FFFA00780025730000F1
:020000040001F9
:10000000130EE126000EE222FA0EE36AFD0EE36A09
:10001000FC0EE36AE32AFB0EE36AE38283EC15F04D
:10002000D28ED28C0101076B2C0EE66E010EE66EAD
:1000300078EC18F0CBA004D0FE0EE36AE32A04D0DB
:10004000FE0EE36AE380E382FE0EE304D8A407D049
:10005000BD80000E01019E6F460E9D6F04D0BD90C5
:1000600001019D6B9E6B600077F6E6FF60007BF6FA
:10007000E6FF17EC1CF0F5EF84F02EEC19F022EC03
:1000800009F00C0EE66E9FEC1CF07BEC0BF0010E01
:10009000E66E7FEC1CF0010EE66E77EC1CF0FE0EB7
:1000A0006F008CFF07F1A50EE66E070EE66E93EC6F
:1000B00018F0000EE66ECFEC1BF01D0EE66EFF0E84
:1000C000E66E000EE66E000EE66E8EEC19F0600035
:1000D000AFF0E6FF6000B3F0E6FF040EE66EE8EC7A
:1000E00004F0D50EE66EFF0EE66EF30EE66EFE0E23
:1000F000E66E000EE66E010EE66E8EEC19F0600004
:10010000AFF0E6FF6000B3F0E6FF060EE66EE8EC47
:1001100004F0DE0EE66EFE0EE66E000EE66E020ED9
:10012000E66E8EEC19F06000AFF0E6FF6000B3F011
:10013000E6FF040EE66EE8EC04F0D20EE66EFB0E6F
:10014000E66E000EE66E030EE66E8EEC19F06000B1
:10015000AFF0E6FF6000B3F0E6FF040EE66EE8ECF9
:1001600004F0D20EE66EFB0EE66E010EE66E000E99
:10017000E66E8EEC19F06000AFF0E6FF6000B3F0C1
:10018000E6FF040EE66EE8EC04F0D20EE66EFB0E1F
:10019000E66E010EE66E010EE66E8EEC19F0600062
:1001A000AFF0E6FF6000B3F0E6FF040EE66EE8ECA9
:1001B00004F0D20EE66EFB0EE66E010EE66E020E47
:1001C000E66E8EEC19F06000AFF0E6FF6000B3F071
:1001D000E6FF040EE66EE8EC04F0D20EE66EFB0ECF
:1001E000E66E010EE66E030EE66E8EEC19F0600010
:1001F000AFF0E6FF6000B3F0E6FF040EE66EE8EC59
:1002000004F0D20EE66EFB0EE66E020EE66E000EF7
:10021000E66E8EEC19F06000AFF0E6FF6000B3F020
:10022000E6FF040EE66EE8EC04F0D20EE66EFB0E7E
:10023000E66E020EE66E010EE66E8EEC19F06000C0
:10024000AFF0E6FF6000B3F0E6FF040EE66EE8EC08
:1002500004F0D20EE66EFB0EE66E020EE66E020EA5
:10026000E66E8EEC19F06000AFF0E6FF6000B3F0D0
:10027000E6FF040EE66EE8EC04F0D20EE66EFB0E2E
:10028000E66E020EE66E030EE66E8EEC19F060006E
:10029000AFF0E6FF6000B3F0E6FF040EE66EE8ECB8
:1002A00004F0000EE66E53ECFDF0E80EE66E030E71
:1002B000E66E78EC18F0FA0EE66E000EE66E0A0EA8
:1002C000E66E4DEC17F0C80EE66E000EE66E010EFF
:1002D000E66E4DEC17F0B80EE66E0B0EE66E070EEE
:1002E000E66E4DEC17F0DC0EE66E050EE66E0B0EBC
:1002F000E66E4DEC17F0B80EE66E0B0EE66E090ECC
:10030000E66E4DEC17F01DEC13F0A0EC1BF0E80EC0
:10031000E66E030EE66E78EC18F0A7ECF2F02B50C8
:10032000D8B47CD012EC12F0460EE66E0C0EE66EDF
:10033000010EE66E22EC11F02B50D8B45AD0000E0C
:10034000E66E000EE66E7BEC14F0E5526F009CFF4B
:1003500042F0E5526F009CFF41F0E5526F009CFFB8
:1003600040F0E5526F009CFF3FF0E5526F009CFFAC
:100370003EF0E5526F009CFF3DF0E5526F009CFFA0
:100380003CF0E5526F009CFF3BF023EE56F0DE5050
:100390003B5CDE503C58DE503D58DE503E58DE504F
:1003A0003F58DE504058DE5041584250800A2B6E74
:1003B000DE50800A2B58D8B01CD023EE56F06F00C8
:1003C0007BFFE6FF6F007BFFE6FF6F007BFFE6FF32
:1003D0006F007BFFE6FF6F007BFFE6FF6F007BFF98
:1003E000E6FF6F007BFFE6FF6F007BFFE6FF5DEC43
:1003F00018F0320EE66EFF0EE66E000EE66E020E8E
:10040000E66E8EEC19F06000AFF0E6FF6000B3F02E
:10041000E6FF040EE66EE8EC04F014D05C0EE66E27
:10042000FF0EE66E000EE66E020EE66E8EEC19F022
:100430006000AFF0E6FF6000B3F0E6FF040EE66E8A
:10044000E8EC04F0000EE66E53ECFDF0D00EE66E24
:10045000070EE66E78EC18F0FF0EE36AE32A97ECDD
:10046000F7F0000EE66E040EE66E1AECBCF06000CB
:10047000AFF0E6FF6000B3F0E6FF6000B7F0E6FF24
:100480006000BBF0E6FF540EE66EFD0EE66E000E59
:10049000E66E010EE66E8EEC19F06000AFF0E6FF3E
:1004A0006000B3F0E6FF080EE66EE8EC04F022EE22
:1004B000F5F36F007BFFE6FF6F007BFFE6FF6F0049
:1004C0007BFFE6FF6F007BFFE6FFFB0EE350E66E6F
:1004D000000EE66E000EE66E050EE66EE3EC06F02C
:1004E0002B50E66E000EE66E3D0EE66EFB0EE66EDF
:1004F000000EE66E020EE66E8EEC19F06000AFF0B4
:10050000E6FF6000B3F0E6FF0C0EE66EE8EC04F0E8
:10051000000EE66E53ECFDF0FDEC1CF01DEC13F04C
:10052000D00EE66E070EE66E78EC18F0FF0E6F0048
:100530008CFF36F0362A6000DBF0E3FF36061E0E35
:1005400036601AD022EEF5F36F007BFFE6FF6F00F6
:100550007BFFE6FF6F007BFFE6FF6F007BFFE6FFA0
:10056000420EE66E600EE66E650EE66E3C0EE66EC0
:100570003FECFBF02BA073D7AAEC14F00FECEBF0E0
:10058000000EE66E7FEC1CF0000EE66E77EC1CF0C1
:1005900023EE43F06F0078FF35F06F0074FF36F004
:1005A0006000D7F0E6FF6000DBF0E6FFFE0EE66ECF
:1005B000FB0EE66E000EE66E000EE66E8EEC19F097
:1005C0006000AFF0E6FF6000B3F0E6FF060EE66EF7
:1005D000E8EC04F023EE1DF06F007BFFE6FF6F00F8
:1005E0007BFFE6FF6F007BFFE6FF6F007BFFE6FF10
:1005F000B60EE66EFC0EE66E000EE66E010EE66EC0
:100600008EEC19F06000AFF0E6FF6000B3F0E6FF9B
:10061000080EE66EE8EC04F0D00EE66EFB0EE66E19
:10062000000EE66E020EE66E8EEC19F06000AFF082
:10063000E6FF6000B3F0E6FF040EE66EE8EC04F0BF
:10064000000EE66E53ECFDF0D00EE66E070EE66E81
:1006500078EC18F0800EE66EFD0EE66E000EE66E8B
:10066000000EE66E8EEC19F06000AFF0E6FF600061
:10067000B3F0E6FF040EE66EE8EC04F0960EE66ECC
:10068000FD0EE66E000EE66E010EE66E8EEC19F0C3
:100690006000AFF0E6FF6000B3F0E6FF040EE66E28
:1006A000E8EC04F0460EE66EFE0EE66E000EE66E18
:1006B000020EE66E8EEC19F06000AFF0E6FF60000F
:1006C000B3F0E6FF040EE66EE8EC04F0000EE66E12
:1006D00053ECFDF0010E356E000E366EF70E600025
:1006E000D7F0E3FFF80E6000DBF0E3FFF90EE36AFA
:1006F0006DD06E0EE66E000EE66E78EC18F0F30E1E
:100700006F008FFFE6FF6F008FFFE6FF6F008FFF28
:10071000E6FF6F008FFFE6FFD6EC0BF06000AFF056
:10072000E6FF6000B3F0E6FF6000B7F0E6FF6000B0
:10073000BBF0E6FFD3ECF9F06000ACF036F0F90E58
:100740006000DBF0E3FF000EE66EF80EE350E66EAD
:10075000E3EC06F02B50E66E000EE66E000EE66E41
:10076000000EE66EE3EC06F02B50E66E000EE66E31
:10077000040EE66EFE0EE66E000EE66E020EE66EED
:100780008EEC19F06000AFF0E6FF6000B3F0E6FF1A
:10079000080EE66EE8EC04F0000EE66E53ECFDF099
:1007A000E150F70FD96EE250DA6EFF0EDA226F00D9
:1007B0007CFF35F0010EDE266F007CFF36F0000E68
:1007C000DD223504020E3658D8B017D0000EE66E82
:1007D00007ECE2F0F30E6000AFF0E3FFF40E600010
:1007E000B3F0E3FFF50E6000B7F0E3FFF60E600034
:1007F000BBF0E3FFF60EE3BE7CD723EE15F06F00EF
:100800007BFFE6FF6F007BFFE6FF6F007BFFE6FFED
:100810006F007BFFE6FFE70EE66EFB0EE66E000E56
:10082000E66E000EE66E8EEC19F06000AFF0E6FFAB
:100830006000B3F0E6FF080EE66EE8EC04F023EE8D
:10084000A7F06F007BFFE6FF6F007BFFE6FF6F0006
:100850007BFFE6FF6F007BFFE6FF23EEB3F06F0048
:100860007BFFE6FF6F007BFFE6FF6F007BFFE6FF8D
:100870006F007BFFE6FFED0EE66EFA0EE66E000EF1
:10088000E66E010EE66E8EEC19F06000AFF0E6FF4A
:100890006000B3F0E6FF0C0EE66EE8EC04F023EE29
:1008A000ABF06F007BFFE6FF6F007BFFE6FF6F00A2
:1008B0007BFFE6FF6F007BFFE6FF23EEB7F06F00E4
:1008C0007BFFE6FF6F007BFFE6FF6F007BFFE6FF2D
:1008D0006F007BFFE6FF080EE66EFB0EE66E000E75
:1008E000E66E020EE66E8EEC19F06000AFF0E6FFE9
:1008F0006000B3F0E6FF0C0EE66EE8EC04F0000ECC
:10090000E66E53ECFDF0A00EE66E0F0EE66E78EC90
:1009100018F0040EE66EA5EC19F02B50D8B402D0F6
:10092000010E01D0000E0101B76FE80EE66E030E56
:10093000E66E78EC18F00101B751D8B40FD0040E70
:10094000E66EA5EC19F02B50D8B408D00AECD0F024
:10095000A00EE66E0F0EE66E78EC18F0000EE66E56
:10096000000EE66E7BEC14F0E5526F009CFF42F047
:10097000E5526F009CFF41F0E5526F009CFF40F094
:10098000E5526F009CFF3FF0E5526F009CFF3EF088
:10099000E5526F009CFF3DF0E5526F009CFF3CF07C
:1009A000E5526F009CFF3BF06000ECF033F060001C
:1009B000F0F034F06000F4F035F06000F8F036F05C
:1009C000580E332401018C6F020E34208D6F000EFF
:1009D00035208E6F000E36208F6FB76B010EB96F0A
:1009E0001CD0DB811AD0076B18D001010751356E7E
:1009F000366A3650000AD8A4F6D73550000AD8B463
:100A00003DEF80F0010AD8B408D0020AD8B405D06E
:100A1000070AD8B4E6D7010AE6D7010EE66EFAEC6B
:100A200019F02B50D8B413D0FCECFFF02B50D8B4F5
:100A30000ED06DEC05F0FDEC1CF01DEC13F0C80EB3
:100A4000E66E000EE66E010EE66E4DEC17F00A0E35
:100A5000E66EFAEC19F02B50D8B4CEEF8BF0090EFD
:100A6000E66EFAEC19F02B50D8B404D0000EE66E06
:100A7000DEEC1BF0000EE66E000EE66E7BEC14F072
:100A8000E5526F009CFF42F0E5526F009CFF41F081
:100A9000E5526F009CFF40F0E5526F009CFF3FF075
:100AA000E5526F009CFF3EF0E5526F009CFF3DF069
:100AB000E5526F009CFF3CF0E5526F009CFF3BF05D
:100AC0006000ECF0D2F06000F0F0D3F06000F4F0E1
:100AD000D4F06000F8F0D5F06000FCF0D6F06000D3
:100AE00000F1D7F0600004F1D8F0600008F1D9F00F
:100AF000D20EE66E2FEC1CF06000ACF0BAF0600095
:100B0000B0F0BBF06000EBF2E6FF6000EFF2E6FF52
:100B1000BAECC8F06000AFF0E6FF6000B3F0E6FFAB
:100B2000760EE66EFF0EE66E000EE66E030EE66EC5
:100B30008EEC19F06000AFF0E6FF6000B3F0E6FF66
:100B4000060EE66EE8EC04F06000EBF2E6FF6000F3
:100B5000EFF2E6FFBAECC8F06000AFF0E6FF60002D
:100B6000B3F0E6FF760EE66EFF0EE66E010EE66E61
:100B7000030EE66E8EEC19F06000AFF0E6FF600049
:100B8000B3F0E6FF060EE66EE8EC04F045ECCBF0C1
:100B900022EEF1F36F007BFFE6FF6F007BFFE6FFC5
:100BA0006F007BFFE6FF6F007BFFE6FF87ECD6F070
:100BB0002B500101B36F23EEBCF0DF50D8B4D7D077
:100BC000000E6F00A0FFBCFCF7EC1CF0010E356EB0
:100BD000000E366EF10E6000D7F0E3FFF20E6000FB
:100BE000DBF0E3FF010EE66E07ECE2F01CD06E0EC8
:100BF000E66E000EE66E78EC18F0E150F10FD96E5B
:100C0000E250DA6EFF0EDA226F007CFF35F0010E43
:100C1000DE266F007CFF36F0000EDD223504020E6A
:100C20003658D8B006D0000EE66E07ECE2F02EBEC5
:100C3000DED744ECD2F0460EE66E0C0EE66E000EE9
:100C4000E66E22EC11F0B0ECFEF09E0EE66EFE0EAB
:100C5000E66E000EE66E000EE66E8EEC19F0600099
:100C6000AFF0E6FF6000B3F0E6FF040EE66EE8ECDE
:100C700004F06A0EE66EFD0EE66E000EE66E010EE4
:100C8000E66E8EEC19F06000AFF0E6FF6000B3F0A6
:100C9000E6FF040EE66EE8EC04F023EE52F06F007F
:100CA0007BFFE6FF6F007BFFE6FF6F007BFFE6FF49
:100CB0006F007BFFE6FF000EE66E000EE66E7BEC3B
:100CC00014F0E5526F009CFF42F0E5526F009CFF6C
:100CD00041F0E5526F009CFF40F0E5526F009CFF31
:100CE0003FF0E5526F009CFF3EF0E5526F009CFF25
:100CF0003DF0E5526F009CFF3CF0E5526F009CFF19
:100D00003BF06000EFF0E6FF6000F3F0E6FF60000C
:100D1000F7F0E6FF6000FBF0E6FF6000FFF0E6FFA3
:100D2000600003F1E6FF600007F1E6FF60000BF1F1
:100D3000E6FF1A0EE66EFE0EE66E000EE66E020E80
:100D4000E66E8EEC19F06000AFF0E6FF6000B3F0E5
:100D5000E6FF100EE66EE8EC04F0000EE66E53ECD3
:100D6000FDF0D00EE66E070EE66E78EC18F0000E81
:100D7000E66E58EC0AF02B50D8B40AD0530EE66E4B
:100D80007EEC1BF0050EE66E61EC16F0A6EC1CF096
:100D9000010EE66E58EC0AF02B50D8B40AD0530E70
:100DA000E66E7EEC1BF0010EE66E61EC16F0A6EC32
:100DB0001CF0C30EE66E010EE66ECEECE4F062EFC0
:100DC0008BF0B56B23EEBBF0DF50D8A402D0200E21
:100DD00001D0440E356E000E366EEF0E6000D7F077
:100DE000E3FFF00E6000DBF0E3FF23EE05F06F00A1
:100DF0007BFFE6FF6F007BFFE6FF6F007BFFE6FFF8
:100E00006F007BFFE6FFEB0E6F008FFFE6FF6F00CA
:100E10008FFFE6FF080EE66EFF0EE66E000EE66E32
:100E2000000EE66E8EEC19F06000AFF0E6FF600099
:100E3000B3F0E6FF0A0EE66EE8EC04F022EEC1F332
:100E40006F007BFFE6FF6F007BFFE6FF6F007BFF1D
:100E5000E6FF6F007BFFE6FF22EEFDF36F007BFFF6
:100E6000E6FF6F007BFFE6FF6F007BFFE6FF6F0092
:100E70007BFFE6FFD10EE66EFA0EE66E000EE66E22
:100E8000010EE66E8EEC19F06000AFF0E6FF600038
:100E9000B3F0E6FF0C0EE66EE8EC04F00101B3518E
:100EA000E66E000EE66E23EE0DF06F007BFFE6FFB0
:100EB0006F007BFFE6FF6F007BFFE6FF6F007BFFAD
:100EC000E6FF9F0EE66EFC0EE66E000EE66E020E6C
:100ED000E66E8EEC19F06000AFF0E6FF6000B3F054
:100EE000E6FF0A0EE66EE8EC04F023EEBBF0DF50FE
:100EF000D8A402D0200E01D0440E356E000E366EFE
:100F0000ED0E6000D7F0E3FFEE0E6000DBF0E3FFD4
:100F100023EE35F06F007BFFE6FF6F007BFFE6FFFF
:100F20006F007BFFE6FF6F007BFFE6FFE90E6F00BF
:100F30008FFFE6FF6F008FFFE6FF880EE66EFC0E68
:100F4000E66E010EE66E000EE66E8EEC19F06000A5
:100F5000AFF0E6FF6000B3F0E6FF0A0EE66EE8ECE5
:100F600004F023EE3DF06F007BFFE6FF6F007BFF98
:100F7000E6FF6F007BFFE6FF6F007BFFE6FF710E71
:100F8000E66EFC0EE66E010EE66E010EE66E8EEC6F
:100F900019F06000AFF0E6FF6000B3F0E6FF080E66
:100FA000E66EE8EC04F023EE39F06F007BFFE6FF1D
:100FB0006F007BFFE6FF6F007BFFE6FF6F007BFFAC
:100FC000E6FF5A0EE66EFC0EE66E010EE66E020EAF
:100FD000E66E8EEC19F06000AFF0E6FF6000B3F053
:100FE000E6FF080EE66EE8EC04F082D3B56B030E64
:100FF000E66E22EEADF36F007BFFE6FF6F007BFF36
:10100000E6FF6F007BFFE6FF6F007BFFE6FF5FEC14
:1010100004F06000AFF0E6FF6000B3F0E6FF6000B0
:10102000B7F0E6FF6000BBF0E6FF010EE66E22EED1
:1010300095F36F007BFFE6FF6F007BFFE6FF6F001D
:101040007BFFE6FF6F007BFFE6FF5FEC04F06000D4
:10105000AFF0E6FF6000B3F0E6FF6000B7F0E6FF38
:101060006000BBF0E6FFFB0EE66EFC0EE66E000EC7
:10107000E66E000EE66E8EEC19F06000AFF0E6FF53
:101080006000B3F0E6FF0C0EE66EE8EC04F022EE32
:1010900081F36F007BFFE6FF6F007BFFE6FF6F00D1
:1010A0007BFFE6FF6F007BFFE6FF010EE66E22EEA0
:1010B00091F36F007BFFE6FF6F007BFFE6FF6F00A1
:1010C0007BFFE6FF6F007BFFE6FF5FEC04F0600054
:1010D000AFF0E6FF6000B3F0E6FF6000B7F0E6FFB8
:1010E0006000BBF0E6FFCD0EE66EFC0EE66E000E75
:1010F000E66E010EE66E8EEC19F06000AFF0E6FFD2
:101100006000B3F0E6FF0C0EE66EE8EC04F022EEB1
:1011100085F36F007BFFE6FF6F007BFFE6FF6F004C
:101120007BFFE6FF6F007BFFE6FF010EE66E22EE1F
:1011300089F36F007BFFE6FF6F007BFFE6FF6F0028
:101140007BFFE6FF6F007BFFE6FF5FEC04F06000D3
:10115000AFF0E6FF6000B3F0E6FF6000B7F0E6FF37
:101160006000BBF0E6FFE40EE66EFC0EE66E000EDD
:10117000E66E020EE66E8EEC19F06000AFF0E6FF50
:101180006000B3F0E6FF0C0EE66EE8EC04F023EE30
:101190002DF06F007BFFE6FF6F007BFFE6FF6F0027
:1011A0007BFFE6FF6F007BFFE6FF150EE66EFC0E91
:1011B000E66E010EE66E000EE66E8EEC19F0600033
:1011C000AFF0E6FF6000B3F0E6FF080EE66EE8EC75
:1011D00004F023EE31F06F007BFFE6FF6F007BFF32
:1011E000E6FF6F007BFFE6FF6F007BFFE6FF2C0E44
:1011F000E66EFC0EE66E010EE66E010EE66E8EECFD
:1012000019F06000AFF0E6FF6000B3F0E6FF080EF3
:10121000E66EE8EC04F023EE31F06F007BFFE6FFB2
:101220006F007BFFE6FF6F007BFFE6FF6F007BFF39
:10123000E6FF23EE2DF06F007BFFE6FF6F007BFFE4
:10124000E6FF6F007BFFE6FF6F007BFFE6FF3CECF5
:10125000B8F06000AFF0E6FF6000B3F0E6FF6000BA
:10126000B7F0E6FF6000BBF0E6FF430EE66EFC0E53
:10127000E66E010EE66E020EE66E8EEC19F0600070
:10128000AFF0E6FF6000B3F0E6FF080EE66EE8ECB4
:1012900004F02ED2B56B23EE09F06F007BFFE6FF62
:1012A0006F007BFFE6FF6F007BFFE6FF6F007BFFB9
:1012B000E6FF570EE66EFB0EE66E000EE66E000EC3
:1012C000E66E8EEC19F06000AFF0E6FF6000B3F060
:1012D000E6FF080EE66EE8EC04F023EE21F06F0066
:1012E0007BFFE6FF6F007BFFE6FF6F007BFFE6FF03
:1012F0006F007BFFE6FF23EE1DF06F007BFFE6FF34
:101300006F007BFFE6FF6F007BFFE6FF6F007BFF58
:10131000E6FFB80EE66EFB0EE66E000EE66E010E00
:10132000E66E8EEC19F06000AFF0E6FF6000B3F0FF
:10133000E6FF0C0EE66EE8EC04F022EE91F36F008F
:101340007BFFE6FF6F007BFFE6FF6F007BFFE6FFA2
:101350006F007BFFE6FF23EE41F06F0078FF35F072
:101360006F0074FF36F06000D7F0E6FF6000DBF03E
:10137000E6FF23EE43F06F0078FF35F06F0074FF57
:1013800036F06000D7F0E6FF6000DBF0E6FF000E0D
:10139000E66E050EE66EE3EC06F02B50E66E000EF0
:1013A000E66E970EE66EFA0EE66E000EE66E020E22
:1013B000E66E8EEC19F06000AFF0E6FF6000B3F06F
:1013C000E6FF0E0EE66EE8EC04F023EE15F06F007B
:1013D0007BFFE6FF6F007BFFE6FF6F007BFFE6FF12
:1013E0006F007BFFE6FF700EE66EFB0EE66E010EF1
:1013F000E66E000EE66E8EEC19F06000AFF0E6FFD0
:101400006000B3F0E6FF080EE66EE8EC04F023EEB1
:10141000A7F06F007BFFE6FF6F007BFFE6FF6F002A
:101420007BFFE6FF6F007BFFE6FF23EEB3F06F006C
:101430007BFFE6FF6F007BFFE6FF6F007BFFE6FFB1
:101440006F007BFFE6FF880EE66EFB0EE66E010E78
:10145000E66E010EE66E8EEC19F06000AFF0E6FF6E
:101460006000B3F0E6FF0C0EE66EE8EC04F023EE4D
:10147000ABF06F007BFFE6FF6F007BFFE6FF6F00C6
:101480007BFFE6FF6F007BFFE6FF23EEB7F06F0008
:101490007BFFE6FF6F007BFFE6FF6F007BFFE6FF51
:1014A0006F007BFFE6FFA00EE66EFB0EE66E010E00
:1014B000E66E020EE66E8EEC19F06000AFF0E6FF0D
:1014C0006000B3F0E6FF0C0EE66EE8EC04F010D11D
:1014D000B551D8A42DD0FF0EE66EFC0EE350E66E9B
:1014E000000EE66E000EE66E000EE66E000EE66E74
:1014F0008CECF3F0FF0EE66EFB0EE350E66E000E92
:10150000E66E000EE66E000EE66E000EE66E8CECE9
:10151000F3F0FF0EE66EFA0EE350E66E000EE66E96
:10152000000EE66E000EE66E000EE66E8CECF3F03A
:10153000010E0101B56FFA0EE350356E366A010EE9
:101540003526000E36226000D7F0E6FF6000DBF0A3
:10155000E6FFFB0EE350040D810EF324D96E0B0E53
:10156000F420DA6E6F007BFFE6FF6F007BFFE6FF83
:101570006F007BFFE6FF6F007BFFE6FFF70EE35097
:10158000E66EE1EC18F06000AFF0E6FF6000B3F04B
:10159000E6FF720EE66EFE0EE66E000EE66E000EC2
:1015A000E66E8EEC19F06000AFF0E6FF6000B3F07D
:1015B000E6FF0C0EE66EE8EC04F0FA0EE350356E32
:1015C000366A020E3526000E36226000D7F0E6FF9E
:1015D0006000DBF0E6FFFA0EE350040D810EF32409
:1015E000D96E0B0EF420DA6E6F007BFFE6FF6F0002
:1015F0007BFFE6FF6F007BFFE6FF6F007BFFE6FFF0
:10160000F60EE350E66EE1EC18F06000AFF0E6FF96
:101610006000B3F0E6FF720EE66EFE0EE66E000EA0
:10162000E66E010EE66E8EEC19F06000AFF0E6FF9C
:101630006000B3F0E6FF0C0EE66EE8EC04F0FA0E84
:10164000E350356E366A030E3526000E36226000F2
:10165000D7F0E6FF6000DBF0E6FFF90EE350040D83
:10166000810EF324D96E0B0EF420DA6E6F007BFF2F
:10167000E6FF6F007BFFE6FF6F007BFFE6FF6F007A
:101680007BFFE6FFF50EE350E66EE1EC18F060003C
:10169000AFF0E6FF6000B3F0E6FF720EE66EFE0EFE
:1016A000E66E000EE66E020EE66E8EEC19F060003D
:1016B000AFF0E6FF6000B3F0E6FF0C0EE66EE8EC7C
:1016C00004F016D00101C351356E366A3650000A57
:1016D000D8A40ED03550000AD8B488D4010AD8B4A2
:1016E000E1EF86F0030AD8B4D5D5010AD8B4F0D614
:1016F000C30EE66E010EE66E51EC13F0FA0EE66EC6
:10170000000EE66E0A0EE66E4DEC17F0C30EE66EA6
:10171000010EE66ED9EC11F02B500101B66FB651F7
:10172000D8B411D0030EC319D8B40DD0B66BA4A190
:1017300002D0010E01D0000EFF0A366EA4513618F9
:10174000FE0B3618A46FA4A102D0010E01D0000E2A
:10175000E66ECFEC1BF00101A4A102D0010E01D076
:10176000000EE66E53ECFDF09AECE0F0A6EC1CF0F7
:10177000DF0EE66E4F0EE66E550EE66E400EE66E1E
:10178000C7EC18F0DF0EE66E4F0EE66ED50EE66E75
:10179000400EE66EADEC18F07BEC0BF00101B4519D
:1017A000E66E9CECF0F00101B651D8B462D0B66B95
:1017B000B56BFA0E6F008CFF2BF0030E2B26FA0E82
:1017C0006000AFF0E3FFFA0E6F008CFF2BF0090E04
:1017D0002B643AD0FA0EE36A37D0FD0EE36AFC0EB2
:1017E000E36AE32AFB0EE36AE38243D0FD0EE36A79
:1017F000E384FC0EE36AE380E384FB0EE36AE382A6
:10180000E38437D0FD0EE36AE382E3860B0E366E87
:10181000FC0E6000DBF0E3FFFB0EE36AE384E3868B
:1018200028D00D0E366EFD0E6000DBF0E3FF0D0ECE
:10183000366EFC0E6000DBF0E3FF0D0E366EFB0E25
