:020000040000FA
:0400000057EF00F0C6
:100008005761576157615761576157615761576128
:1000180034615761C15F4D5D5761576157615761E1
:1000280038613E6144614161576157615761576169
:100038005761576157616C606260576157615761DA
:1000480057615761576157612B0057615761576175
:10005800035F57615761576157615761576157612E
:100068005761576180607660576157615761576182
:10007800576157612B005761576157612B002B005F
:100088002B002B002B002B002B002B00285E576128
:10009800F8605761576157612B002B002B002B002C
:0E00A80057615761FF0011EEFFF3A7EFB4F0B0
:10FE5E0000636F6D6D616E647320310000000000F1
:10FE6E00000000646973706C6179732031000000CA
:10FE7E000000000000636F6D6D616E6473203200D0
:10FE8E0000000000000000646973706C61797320DB
:10FE9E00320000000000000000636F6D6D616E6443
:10FEAE007320330000000000000000646973706C62
:10FEBE0061797320330000000000000000636F6D55
:10FECE006D616E6473203400000000000000006459
:10FEDE006973706C617973203400000000000000BB
:10FEEE0000204D65736720256420537461636B2079
:10FEFE0025642020202020200020202020202020CB
:10FF0E0020202020202020202020200048454C505A
:10FF1E002025732020202020202020202020004477
:10FF2E004953504C41592025732020202020202059
:10FF3E00200020565445524D2023322020202020D0
:10FF4E00202000204E534153504F4F4B2020202055
:10FF5E0020202000204D424D4320534F4C41524D06
:10FF6E004F4E2020002053455155454E43452054B9
:10FF7E0045535420200025642025322E34662C2033
:10FF8E0025642020202300767465726D2025783A32
:10FF9E002578202020002056657273696F6E20250B
:10FFAE00732020200025642025322E346620202048
:10FFBE002564004E6F7620323420323031390025E0
:10FFCE0073202020202020200031393A32373A3356
:10FFDE003600302E393600494E46004E414E0069ED
:10FFEE006E66006E616E006C660025630025730000
:01FFFE000002
:020000040001F9
:10000000380EE126000EE222F20EE36AF30EE36AF6
:10001000C20E6F008CFF3AF0C30E6F008CFF3BF0F6
:10002000C40E6F008CFF3CF0C50E6F008CFF3DF0DE
:10003000D80E6000EBF0E3FFD90E6000EFF0E3FFB5
:10004000DA0E6000F3F0E3FFDB0E6000F7F0E3FF91
:10005000DB0EE3AE2BD0010E3C6E000E3D6EF20EB9
:100060006000F3F0E3FFF30E6000F7F0E3FFD80E5B
:100070006F008FFFE6FF6F008FFFE6FF6F008FFFBF
:10008000E6FF6F008FFFE6FFCFECBCF0D80E6000FC
:10009000CBF0E3FFD90E6000CFF0E3FFDA0E600093
:1000A000D3F0E3FFDB0E6000D7F0E3FFE80EE36A76
:1000B000E90EE36AEE0E60006FF0E3FFEF0E600002
:1000C00073F0E3FFF20E6F008CFF32F0F30EE3509B
:1000D0003210D8A402D01FA436D0F20E6F008CFFCD
:1000E00032F0F30EE3503210D8A402D02B0E01D020
:1000F0002D0E3C6E000E3D6ED20E6000F3F0E3FF5D
:10010000D30E6000F7F0E3FFD20E6F008CFF40F2D9
:10011000E80EE350010F326EE80E6000CBF0E3FF13
:10012000326AE90EE3503220326EE90E6000CBF005
:10013000E3FFE150EE0FD96EE250DA6EFF0EDA22E5
:10014000DE06000EDD5AD80E6F008FFFE6FF6F004F
:100150008FFFE6FF6F008FFFE6FF6F008FFFE6FF68
:10016000DCECADF032043310D8A476D0BF0E3C6E78
:10017000FF0E3D6EC10EE3503A6E3B6A3C503A268C
:100180003D503B223B5006E11A0E3A5CD8B002D0FB
:10019000010E01D0000E3C6E3D6AD00E6000F3F0FF
:1001A000E3FFD10E6000F7F0E3FFD00E6F008CFF8D
:1001B00032F0D10EE3503210D8B417D0E50EE66E0F
:1001C000FF0EE66E400E3C6E020E3D6EE60EE350F4
:1001D0003C26E70EE3503D226000F3F0E6FF6000AE
:1001E000F7F0E6FF96ECB5F016D0ED0EE66EFF0EDA
:1001F000E66E400E3C6E020E3D6EE60EE3503C266F
:10020000E70EE3503D226000F3F0E6FF6000F7F0F8
:10021000E6FF96ECB5F0E150EE0FD96EE250DA6EE3
:10022000FF0EDA22FD0EDE26FF0EDD22EE0E6F003F
:100230008FFFE6FF6F008FFFE6FF400EE66E020EB7
:10024000E66EC20E6F008FFFE6FF6F008FFFE6FFC6
:1002500011ECB3F01DEF89F0D80E6F008FFFE6FFB1
:100260006F008FFFE6FF6F008FFFE6FF6F008FFFCD
:10027000E6FFDCECADF032503310D8A456D0BF0E00
:100280003C6EFF0E3D6EC10EE3503A6E3B6A3C5031
:100290003A263D503B223B5006E11A0E3A5CD8B05C
:1002A00002D0010E01D0000E3C6E3D6ACE0E600001
:1002B000F3F0E3FFCF0E6000F7F0E3FFCE0E6F0028
:1002C0008CFF32F0CF0EE3503210D8B417D0E90EC5
:1002D000E66EFF0EE66E400E3C6E020E3D6EE60EC2
:1002E000E3503C26E70EE3503D226000F3F0E6FFCA
:1002F0006000F7F0E6FF96ECB5F08DD7F10EE66EF4
:10030000FF0EE66E400E3C6E020E3D6EE60EE350B2
:100310003C26E70EE3503D226000F3F0E6FF60006C
:10032000F7F0E6FF96ECB5F076D7000E3A6E000EC9
:100330003B6E800E3C6E3F0E3D6ED40E6000EBF0C7
:10034000E3FFD50E6000EFF0E3FFD60E6000F3F0A0
:10035000E3FFD70E6000F7F0E3FFEA0EE36AEB0E6F
:10036000E36A000EE66E000EE66E000EE66E000E0C
:10037000E66ED40E6F008FFFE6FF6F008FFFE6FF83
:100380006F008FFFE6FF6F008FFFE6FF00ECB6F017
:1003900032A039D0BCD0000EE66E000EE66E200E04
:1003A000E66E410EE66ED00E6F008FFFE6FF6F0027
:1003B0008FFFE6FF6F008FFFE6FF6F008FFFE6FF06
:1003C000C1EC8EF0D40E6000CBF0E3FFD50E6000E0
:1003D000CFF0E3FFD60E6000D3F0E3FFD70E60004E
:1003E000D7F0E3FFEA0EE350010F326EEA0E600031
:1003F000CBF0E3FF326AEB0EE3503220326EEB0EAD
:100400006000CBF0E3FF000EE66E000EE66E200EFD
:10041000E66E410EE66ED00E6F008FFFE6FF6F00B6
:100420008FFFE6FF6F008FFFE6FF6F008FFFE6FF95
:10043000C1EC8EF06000CBF0E6FF6000CFF0E6FF8D
:100440006000D3F0E6FF6000D7F0E6FFD40E6F0047
:100450008FFFE6FF6F008FFFE6FF6F008FFFE6FF65
:100460006F008FFFE6FF60ECAFF032A032D093D781
:10047000000EE66E000EE66E200EE66E410EE66E93
:10048000D00E6F008FFFE6FF6F008FFFE6FF6F005B
:100490008FFFE6FF6F008FFFE6FFB4EC96F0D40EFF
:1004A0006000CBF0E3FFD50E6000CFF0E3FFD60E87
:1004B0006000D3F0E3FFD70E6000D7F0E3FFE15018
:1004C000EA0FD96EE250DA6EFF0EDA22DE06000E77
:1004D000DD5AD40E6F008FFFE6FF6F008FFFE6FF3F
:1004E0006F008FFFE6FF6F008FFFE6FFD40E6F00F7
:1004F0008FFFE6FF6F008FFFE6FF6F008FFFE6FFC5
:100500006F008FFFE6FF60ECAFF032A0B1D7C10EF5
:10051000E350E66E000EE66E71ECB9F0FE0E600080
:10052000CBF0E3FFFE0E6F008CFF32F0FF0E600099
:10053000CBF0E3FFFE0E6F008CFF32F0670E321837
:10054000D8A425D01D501E10D8A404D0000E1E6EB5
:10055000010E1D6E1EBE05D01E5010E11D04D8B048
:100560000DD0060E3C6E000E3D6EF00E6000F3F0F6
:10057000E3FFF10E6000F7F0E3FF0CD0F00E600037
:1005800077F0E3FFF10E60007BF0E3FF03D01EAED7
:10059000F5D7E7D7FE0E6F008CFF32F0670E3218EA
:1005A000D8A42FD0EB0EE3AE0ED0EA0E6F008CFF76
:1005B00032F0FC0E325EEB0E6F008CFF32F0FF0E5D
:1005C000325AD8A018D0F00EE350FF0F3C6EF10E57
:1005D0006F008CFF3DF0FF0E3D22EA0EE3503C5CC5
:1005E0003D50800A326EEB0EE350800A3258D8A09C
:1005F00002D0660E01D0650E3D6EFF0E6000F7F072
:10060000E3FFF00E6F008CFF32F0F80E6000CBF0CD
:10061000E3FFF10E6F008CFF32F0F90E6000CBF0BB
:10062000E3FFFE0E6F008CFF32F0670E3218D8A485
:100630000BD0FF0E6F008CFF32F0660E3218D8A47C
:1006400014D0EB0EE3AE11D0F80EE350010F326E72
:10065000F80E6000CBF0E3FF326AF90EE35032206F
:10066000326EF90E6000CBF0E3FFFF0E6F008CFFDF
:1006700032F0660E3218D8A43BD0EB0EE3AE1CD09D
:10068000000E3A6E000E3B6E800E3C6E3F0E3D6ECD
:10069000D40E6000EBF0E3FFD50E6000EFF0E3FF57
:1006A000D60E6000F3F0E3FFD70E6000F7F0E3FF33
:1006B000EA0EE36AEB0EE36AFE0E6F008CFF32F087
:1006C000670E3218D8B414D0F80EE350326EEA0E2A
:1006D000E3503226F80E6000CBF0E3FFF90EE35052
:1006E000326EEB0EE3503222F90E6000CBF0E3FFE6
:1006F000EC0EE36AED0EE36AD80E6F008CFF3AF061
:10070000D90E6F008CFF3BF0DA0E6F008CFF3CF0CF
:10071000DB0E6F008CFF3DF0E00E6000EBF0E3FFBE
:10072000E10E6000EFF0E3FFE20E6000F3F0E3FFA4
:10073000E30E6000F7F0E3FFD40E6F008CFF3AF099
:10074000D50E6F008CFF3BF0D60E6F008CFF3CF097
:10075000D70E6F008CFF3DF0E40E6000EBF0E3FF7E
:10076000E50E6000EFF0E3FFE60E6000F3F0E3FF5C
:10077000E70E6000F7F0E3FFD6D0D40E6F008FFFD6
:10078000E6FF6F008FFFE6FF6F008FFFE6FF6F0051
:100790008FFFE6FFDC0E6F008FFFE6FF6F008FFF1D
:1007A000E6FF6F008FFFE6FF6F008FFFE6FFB4EC00
:1007B00096F06000CBF0E6FF6000CFF0E6FF60004F
:1007C000D3F0E6FF6000D7F0E6FFE8ECA1F0DC0E26
:1007D0006000CBF0E3FFDD0E6000CFF0E3FFDE0E44
:1007E0006000D3F0E3FFDF0E6000D7F0E3FFDC0E24
:1007F0006F008FFFE6FF6F008FFFE6FF6F008FFF38
:10080000E6FF6F008FFFE6FFA7ECAEF06000C8F0D8
:100810003CF06000CCF03DF0F40E6000F3F0E3FF3C
:10082000F50E6000F7F0E3FFD40E6F008FFFE6FFD8
:100830006F008FFFE6FF6F008FFFE6FF6F008FFFF7
:10084000E6FFD80E6F008FFFE6FF6F008FFFE6FF19
:100850006F008FFFE6FF6F008FFFE6FFC1EC8EF0A9
:100860006000CBF0E6FF6000CFF0E6FF6000D3F061
:10087000E6FF6000D7F0E6FFDC0E6F008FFFE6FFBB
:100880006F008FFFE6FF6F008FFFE6FF6F008FFFA7
:10089000E6FFF3ECBCF0E00E6000CBF0E3FFE10E0E
:1008A0006000CFF0E3FFE20E6000D3F0E3FFE30E61
:1008B0006000D7F0E3FF000EE66E000EE66E200E3D
:1008C000E66E410EE66ED00E6F008FFFE6FF6F0002
:1008D0008FFFE6FF6F008FFFE6FF6F008FFFE6FFE1
:1008E000B4EC96F0D40E6000CBF0E3FFD50E6000C0
:1008F000CFF0E3FFD60E6000D3F0E3FFD70E600029
:10090000D7F0E3FFEC0EE350010F326EEC0E600007
:10091000CBF0E3FF326AED0EE3503220326EED0E83
:100920006000CBF0E3FFE150EC0FD96EE250DA6EDD
:10093000FF0EDA22F80EE350DE5CDE50800A326EE3
:10094000F90EE350800A3258D8A017D7000EE66E91
:10095000000EE66EA00EE66E400EE66ED00E6F0044
:100960008FFFE6FF6F008FFFE6FF6F008FFFE6FF50
:100970006F008FFFE6FFC1EC8EF0DC0E6000CBF065
:10098000E3FFDD0E6000CFF0E3FFDE0E6000D3F08A
:10099000E3FFDF0E6000D7F0E3FFDC0E6F008FFF98
:1009A000E6FF6F008FFFE6FF6F008FFFE6FF6F002F
:1009B0008FFFE6FFDC0E6F008FFFE6FF6F008FFFFB
:1009C000E6FF6F008FFFE6FF6F008FFFE6FF60EC32
:1009D000AFF032A021D0DC0E6F008FFFE6FF6F007A
:1009E0008FFFE6FF6F008FFFE6FF6F008FFFE6FFD0
:1009F000DC0E6F008FFFE6FF6F008FFFE6FF6F00DA
:100A00008FFFE6FF6F008FFFE6FF00ECB6F032A02D
:100A10001BD0F40EE3B018D0000E3A6E000E3B6E01
:100A2000000E3C6E000E3D6EDC0E6000EBF0E3FF4E
:100A3000DD0E6000EFF0E3FFDE0E6000F3F0E3FF99
:100A4000DF0E6000F7F0E3FFDC0E6F008FFFE6FFC4
:100A50006F008FFFE6FF6F008FFFE6FF6F008FFFD5
:100A6000E6FFD40E6F008FFFE6FF6F008FFFE6FFFB
:100A70006F008FFFE6FF6F008FFFE6FFD6EC92F06E
:100A8000E00E6000CBF0E3FFE10E6000CFF0E3FF8B
:100A9000E20E6000D3F0E3FFE30E6000D7F0E3FF67
:100AA000E40E6F008CFF3AF0E50E6F008CFF3BF018
:100AB000E60E6F008CFF3CF0E70E6F008CFF3DF000
:100AC000D40E6000EBF0E3FFD50E6000EFF0E3FF23
:100AD000D60E6000F3F0E3FFD70E6000F7F0E3FFFF
:100AE000FF0E6F008CFF32F0650E3218D8B411D0B3
:100AF000EA0E6F008CFF32F0F60E6000CBF0E3FFE1
:100B0000EB0E6F008CFF32F0F70E6000CBF0E3FFCE
:100B100004D0F60EE36AF70EE36AFA0EE36AFB0E00
:100B2000E36AFC0EE36AFD0EE36AEC0EE36AED0E87
:100B3000E36AB7D1D40E6F008FFFE6FF6F008FFF1F
:100B4000E6FF6F008FFFE6FF6F008FFFE6FFDC0E12
:100B50006F008FFFE6FF6F008FFFE6FF6F008FFFD4
:100B6000E6FF6F008FFFE6FFB4EC96F06000CBF07D
:100B7000E6FF6000CFF0E6FF6000D3F0E6FF600024
:100B8000D7F0E6FFE8ECA1F0DC0E6000CBF0E3FF6D
:100B9000DD0E6000CFF0E3FFDE0E6000D3F0E3FF78
:100BA000DF0E6000D7F0E3FFDC0E6F008FFFE6FF83
:100BB0006F008FFFE6FF6F008FFFE6FF6F008FFF74
:100BC000E6FFA7ECAEF06000C8F03CF06000CCF0AF
:100BD0003DF0F40E6000F3F0E3FFF50E6000F7F077
:100BE000E3FF1FB826D0F40E6F008CFF32F0F50E35
:100BF000E3503210D8A41DD0FE0E6F008CFF32F0EF
:100C0000670E3218D8A415D0F70EE3AE12D0FC0E42
:100C1000E350010F326EFC0E6000CBF0E3FF326A4E
:100C2000FD0EE3503220326EFD0E6000CBF0E3FF8C
:100C3000AFD0FA0E6F008CFF32F0FB0EE350321093
:100C4000D8A470D0F70EE3AE6DD0E80E6F008CFF25
:100C50003CF0E90E6F008CFF3DF0400E3C24D96E55
:100C6000020E3D20DA6E2E0EDF6EE80EE350010F0D
:100C7000326EE80E6000CBF0E3FF326AE90EE3501B
:100C80003220326EE90E6000CBF0E3FFE150EE0F50
:100C9000D96EE250DA6EFF0EDA22DE06000EDD5A61
:100CA000010E3C6E000E3D6EFA0E6000F3F0E3FFA5
:100CB000FB0E6000F7F0E3FF35D0E80E6F008CFF0D
:100CC0003CF0E90E6F008CFF3DF0400E3C24D96EE5
:100CD000020E3D20DA6E300EDF6EE80EE350010F9B
:100CE000326EE80E6000CBF0E3FF326AE90EE350AB
:100CF0003220326EE90E6000CBF0E3FFE150EE0FE0
:100D0000D96EE250DA6EFF0EDA22DE06000EDD5AF0
:100D1000E150FC0FD96EE250DA6EFF0EDA22DE06E9
:100D2000000EDD5AFC0E6F008CFF32F0FD0EE3501A
:100D30003210D8A4C2D7E80E6F008CFF3CF0E90E49
:100D40006F008CFF3DF0400E3C24D96E020E3D201A
:100D5000DA6EF40EE350300FDF6EE80EE350010F51
:100D6000326EE80E6000CBF0E3FF326AE90EE3502A
:100D70003220326EE90E6000CBF0E3FFE150EE0F5F
:100D8000D96EE250DA6EFF0EDA22DE06000EDD5A70
:100D9000D40E6F008FFFE6FF6F008FFFE6FF6F003E
:100DA0008FFFE6FF6F008FFFE6FFD80E6F008FFF0B
:100DB000E6FF6F008FFFE6FF6F008FFFE6FF6F001B
:100DC0008FFFE6FFC1EC8EF06000CBF0E6FF600025
:100DD000CFF0E6FF6000D3F0E6FF6000D7F0E6FF5B
:100DE000DC0E6F008FFFE6FF6F008FFFE6FF6F00E6
:100DF0008FFFE6FF6F008FFFE6FFF3ECBCF0E00E25
:100E00006000CBF0E3FFE10E6000CFF0E3FFE20E05
:100E10006000D3F0E3FFE30E6000D7F0E3FF000EC5
:100E2000E66E000EE66E200EE66E410EE66ED00E09
:100E30006F008FFFE6FF6F008FFFE6FF6F008FFFF1
:100E4000E6FF6F008FFFE6FFB4EC96F0D40E600073
:100E5000CBF0E3FFD50E6000CFF0E3FFD60E6000CD
:100E6000D3F0E3FFD70E6000D7F0E3FFE150F60FB9
:100E7000D96EE250DA6EFF0EDA22DE06000EDD5A7F
:100E8000EC0EE350010F326EEC0E6000CBF0E3FF8E
:100E9000326AED0EE3503220326EED0E6000CBF080
:100EA000E3FFE150EC0FD96EE250DA6EFF0EDA226A
:100EB000F80EE350DE5CDE50800A326EF90EE3502D
:100EC000800A3258D8B00ED0E90EE3BE33D6E90E10
:100ED000E35008E1E80E6F008CFF32F04B0E325EFB
:100EE000D8A028D6FA0E6F008CFF32F0FB0EE3502C
:100EF0003210D8B41FA821D0E80E6F008CFF3CF050
:100F0000E90E6F008CFF3DF0400E3C24D96E020EBE
:100F10003D20DA6E2E0EDF6EE80EE350010F326ECA
:100F2000E80E6000CBF0E3FF326AE90EE3503220B6
:100F3000326EE90E6000CBF0E3FFE80E6F008CFF2D
:100F40003CF0E90E6F008CFF3DF0400E3C24D96E62
:100F5000020E3D20DA6E000EDF6EFF0E6F008CFF7A
:100F600032F0650E3218D8A416EF81F04F0E3C6EA9
:100F7000000E3D6EEC0E6000F3F0E3FFED0E60003E
:100F8000F7F0E3FFEC0E6F008CFF3CF0ED0E6F000E
:100F90008CFF3DF0400E3C24D96E020E3D20DA6EEF
:100FA000000EDF6EF20EE36AF30EE36AEB0EE3AEC1
:100FB00012D0010E3C6E000E3D6EF20E6000F3F09A
:100FC000E3FFF30E6000F7F0E3FFEA0EE36CEB0ED5
:100FD000E31ED8B0E32A020E3C6E000E3D6EF00E0A
:100FE0006000F3F0E3FFF10E6000F7F0E3FF51D093
:100FF000E150EC0FD96EE250DA6EFF0EDA22DE0617
:10100000000EDD5AEC0E6F008CFF3CF0ED0E6F0011
:101010008CFF3DF0400E3C24D96E020E3D20DA6E6E
:101020000A0EE66E000EE66EE80E6F008FFFE6FF1A
:101030006F008FFFE6FF85ECB2F03250300FDF6EAD
:101040000A0EE66E000EE66EE80E6F008FFFE6FFFA
:101050006F008FFFE6FF11ECB0F0EA0E6000CBF0FE
:10106000E3FFEB0E6000CFF0E3FFE150F00FD96E2D
:10107000E250DA6EFF0EDA22DE06000EDD5AE15093
:10108000EE0FD96EE250DA6EFF0EDA22DE06000EA7
:10109000DD5AEA0E6F008CFF32F0EB0EE350321097
:1010A000D8A4A6D7F10EE3BE07D0F10EE350A0E11D
:1010B000F00EE304D8B09CD7E150EC0FD96EE250AB
:1010C000DA6EFF0EDA22DE06000EDD5AF20E6F0037
:1010D0008CFF32F0F30EE3503210D8A402D02B0E66
:1010E00001D02D0E3C6E000E3D6ECC0E6000F3F074
:1010F000E3FFCD0E6000F7F0E3FFEC0E6F008CFF16
:101100003CF0ED0E6F008CFF3DF0400E3C24D96E9C
:10111000020E3D20DA6ECC0E6F008FFFDFFFE15034
:10112000EE0FD96EE250DA6EFF0EDA22DE06000E06
:10113000DD5AE150EC0FD96EE250DA6EFF0EDA2282
:10114000DE06000EDD5ABF0E3C6EFF0E3D6EC10E78
:10115000E3503A6E3B6A3C503A263D503B223B50AE
:1011600006E11A0E3A5CD8B002D0010E01D0000E92
:101170003C6E3D6AC80E6000F3F0E3FFC90E6000EC
:10118000F7F0E3FFC80E6F008CFF32F0C90EE3509A
:101190003210D8A402D0650E01D0450E3C6E000E70
:1011A0003D6ECA0E6000F3F0E3FFCB0E6000F7F077
:1011B000E3FFEC0E6F008CFF3CF0ED0E6F008CFF38
:1011C0003DF0400E3C24D96E020E3D20DA6ECA0E70
:1011D0006F008FFFDFFFE150EE0FD96EE250DA6E45
:1011E000FF0EDA22DE06000EDD5AEC0E6F008CFFD9
:1011F0003CF0ED0E6F008CFF3DF0400E3C243A6E4B
:10120000020E3D203B6E6000EBF0E6FF6000EFF069
:10121000E6FF400E3C6E020E3D6EE60EE3503C26AD
:10122000E70EE3503D226000F3F0E6FF6000F7F0C8
:10123000E6FF96ECB5F016EF81F0C10EE126FF0E49
:10124000E2221200200EE126000EE222DC0E6F00E8
:101250008FFFD9FFDD0E6F008FFFDAFF6F007BFF7E
:10126000F6FF6F0077FFF7FF000EF86E0800F550ED
:10127000250AD8A492EF8EF0DC0E6F008FFFD9FF05
:10128000DD0E6F008FFFDAFFDE2A000EDD221B6A03
:101290001C6A1F6A206A1D681E68DC0E6F008FFFC3
:1012A000D9FFDD0E6F008FFFDAFF6F007BFFF6FFC7
:1012B0006F0077FFF7FF000EF86E0800F5502A0A5E
:1012C000D8A431D0DC0E6F008FFFD9FFDD0E6F0088
:1012D0008FFFDAFFDE2A000EDD22DA0E6F008FFFAD
:1012E000D9FFDB0E6F008FFFDAFF020EDE5E000E0D
:1012F000DD5A6F0078FF3CF06F0074FF3DF0600036
:10130000F3F0D9FF6000F7F0DAFF6F0078FF1BF011
:101310006F0074FF1CF01CAE66D01F801B6C1C1E7F
:10132000D8B01C2A60D0DC0E6F008FFFD9FFDD0E15
:101330006F008FFFDAFF6F0078FF3CF06F0074FFE3
:101340003DF06000F3F0E6FF6000F7F0E6FFB3EC7D
:10135000A7F06000C8F01BF06000CCF01CF00BD0D0
:10136000DC0E6F008FFFD9FFDD0E6F008FFFDAFFFD
:10137000DE2A000EDD22D00E3C6EFF0E3D6EDC0E2E
:101380006F008FFFD9FFDD0E6F008FFFDAFF6F0058
:101390007BFFF6FF6F0077FFF7FF000EF86E080087
:1013A000F5503A6E3B6A3C503A263D503B223B504A
:1013B00006E10A0E3A5CD8B002D0010E01D0000E50
:1013C0003C6E3D6AE40E6000F3F0E3FFE50E600062
:1013D000F7F0E3FFE40E6F008CFF32F0E50EE35010
:1013E0003210D8A4BDD7DC0E6F008FFFD9FFDD0E01
:1013F0006F008FFFDAFF6F007BFFF6FF6F0077FF54
:10140000F7FF000EF86E0800F5502E0AD8A4ACD0F5
:101410001D6A1E6ADC0E6F008FFFD9FFDD0E6F00A4
:101420008FFFDAFFDE2A000EDD22DC0E6F008FFF59
:10143000D9FFDD0E6F008FFFDAFF6F007BFFF6FF35
:101440006F0077FFF7FF000EF86E0800F5502A0ACC
:10145000D8A42AD0DC0E6F008FFFD9FFDD0E6F00FD
:101460008FFFDAFFDE2A000EDD22DA0E6F008FFF1B
:10147000D9FFDB0E6F008FFFDAFF020EDE5E000E7B
:10148000DD5A6F0078FF3CF06F0074FF3DF06000A4
:10149000F3F0D9FF6000F7F0DAFF6F0078FF1DF07E
:1014A0006F0074FF1EF060D0DC0E6F008FFFD9FF5D
:1014B000DD0E6F008FFFDAFF6F0078FF3CF06F00EA
:1014C00074FF3DF06000F3F0E6FF6000F7F0E6FF28
:1014D000B3ECA7F06000C8F01DF06000CCF01EF087
:1014E0000BD0DC0E6F008FFFD9FFDD0E6F008FFF7A
:1014F000DAFFDE2A000EDD22D00E3C6EFF0E3D6EBE
:10150000DC0E6F008FFFD9FFDD0E6F008FFFDAFF5B
:101510006F007BFFF6FF6F0077FFF7FF000EF86E9E
:101520000800F5503A6E3B6A3C503A263D503B224B
:101530003B5006E10A0E3A5CD8B002D0010E01D051
:10154000000E3C6E3D6AE00E6000F3F0E3FFE10E3A
:101550006000F7F0E3FFE00E6F008CFF32F0E10E69
:10156000E3503210D8A4BDD7DC0E6F008FFFD9FF37
:10157000DD0E6F008FFFDAFF6F007BFFF6FF6F005D
:1015800077FFF7FF000EF86E0800F550E66E000ECC
:10159000E66E71ECB9F0FA0E6000CBF0E3FFFA0EE4
:1015A000E350D8B45BD0FB0EE124D96EFF0EE220ED
:1015B000DA6EDC0E6F008FFFE9FFDD0E6F008FFF2C
:1015C000EAFF6F00B8FF3CF06F00B4FF3DF0010E82
:1015D0003C26000E3D226000F3F0F6FF6000F7F0BD
:1015E000F7FF000EF86E0800F550E66E000EE66E8E
:1015F00071ECB9F03250DF6EFB0EE124D96EFF0EB4
:10160000E220DA6EDF50D8B429D0FC0EE124D96E86
:10161000FF0EE220DA6EDC0E6F008FFFE9FFDD0EB9
:101620006F008FFFEAFF6F00B8FF3CF06F00B4FF60
:101630003DF0020E3C26000E3D226000F3F0F6FF66
:101640006000F7F0F7FF000EF86E0800F550E66E48
:10165000000EE66E71ECB9F03250DF6EDC0E6F00FA
:101660008FFFD9FFDD0E6F008FFFDAFF6F007BFF6A
:10167000F6FF6F0077FFF7FF000EF86E0800F550D9
:10168000630AD8A436D0DC0E6F008FFFD9FFDD0EC1
:101690006F008FFFDAFFDE2A000EDD22DA0E6F0008
:1016A0008FFFD9FFDB0E6F008FFFDAFF020EDE5EC9
:1016B000000EDD5A6F0078FF3CF06F0074FF3DF0C4
:1016C0006000F3F0D9FF6000F7F0DAFFDF503D6E05
:1016D000FF0E6000F7F0E3FFFF0EE350E66EDD0E55
:1016E0006F008FFFE6FF6F008FFFE6FFEBECB8F0B7
:1016F00043D3DC0E6F008FFFD9FFDD0E6F008FFF2D
:10170000DAFF6F007BFFF6FF6F0077FFF7FF000E39
:10171000F86E0800F550640AD8B415D0DC0E6F00DE
:101720008FFFD9FFDD0E6F008FFFDAFF6F007BFFA9
:10173000F6FF6F0077FFF7FF000EF86E0800F55018
:10174000690AD8A475D0DC0E6F008FFFD9FFDD0EBB
:101750006F008FFFDAFFDE2A000EDD22DA0E6F0047
:101760008FFFD9FFDB0E6F008FFFDAFF020EDE5E08
:10177000000EDD5A6F0078FF3CF06F0074FF3DF003
:101780006000F3F0D9FF6000F7F0DAFF6F0078FF38
:101790003CF06F0074FF3DF0EE0E6000F3F0E3FFED
:1017A000EF0E6000F7F0E3FF326AE3BE3268F00E3E
:1017B0006000CBF0E3FFF10E6000CBF0E3FFF20E30
:1017C0006000CBF0E3FFF30E6000CBF0E3FFF40E1C
:1017D0006000CBF0E3FFF50E6000CBF0E3FFE150DB
:1017E000EE0FD96EE250DA6EFF0EDA226F007BFF49
:1017F000E6FF6F007BFFE6FF6F007BFFE6FF6F00F9
:101800007BFFE6FF6F007BFFE6FF6F007BFFE6FFDD
:101810006F007BFFE6FF6F007BFFE6FFD60E6F00D9
:101820008FFFE6FF6F008FFFE6FFC6EC9BF0A4D2B0
:10183000FA0E6F008CFF32F0660E3218D8A46ED00C
:10184000DC0E6F008FFFD9FFDD0E6F008FFFDAFF18
:101850006F007BFFF6FF6F0077FFF7FF000EF86E5B
:101860000800FF0E6F00D7FFE3FFDC0E6F008FFF55
:10187000D9FFDD0E6F008FFFDAFFDE2A000EDD22BA
:10188000DA0E6F008FFFD9FFDB0E6F008FFFDAFFDC
:10189000040EDE5E000EDD5A6F0078FF3CF06F0034
:1018A00074FF3DF06000F3F0D9FF6000F7F0DAFF5D
:1018B0006F0078FF3AF06F0078FF3BF06F0078FF21
:1018C0003CF06F0078FF3DF0F60E6000EBF0E3FFB8
:1018D000F70E6000EFF0E3FFF80E6000F3F0E3FFB7
:1018E000F90E6000F7F0E3FFFF0EE350E66EF50E31
:1018F0006F008FFFE6FF6F008FFFE6FF6F008FFF27
:10190000E6FF6F008FFFE6FFD90E6F008FFFE6FF47
:101910006F008FFFE6FF00EC80F02ED2020EE66E25
:10192000000EE66EF50EE66EFF0EE66EF60EE12494
:10193000326EFF0EE220336E6000CBF0E6FF6000F7
:10194000CFF0E6FF18ECACF032503310D8A496D0AC
:10195000DC0E6F008FFFD9FFDD0E6F008FFFDAFF07
:101960006F0078FF3CF06F0074FF3DF0010E3C26E5
:10197000000E3D226000F3F0F6FF6000F7F0F7FF85
:10198000000EF86E0800FF0E6F00D7FFE3FFBF0EDA
:101990003C6EFF0E3D6EDC0E6F008FFFD9FFDD0E3B
:1019A0006F008FFFDAFF6F007BFFF6FF6F0077FF9E
:1019B000F7FF000EF86E0800F5503A6E3B6A3C5097
:1019C0003A263D503B223B5006E11A0E3A5CD8B015
:1019D00002D0010E01D0000E3C6E3D6AE20E6000A6
:1019E000F3F0E3FFE30E6000F7F0E3FFE20E6F00B9
:1019F0008CFF32F0E30EE3503210DA0E6F008FFFEF
:101A0000D9FFDB0E6F008FFFDAFF040EDE5E000EE3
:101A1000DD5A6F0078FF3CF06F0074FF3DF060000E
:101A2000F3F0D9FF6000F7F0DAFF6F0078FF3AF0CB
:101A30006F0078FF3BF06F0078FF3CF06F0078FF9D
:101A40003DF0F60E6000EBF0E3FFF70E6000EFF004
:101A5000E3FFF80E6000F3F0E3FFF90E6000F7F02B
:101A6000E3FFDC0E6F008FFFD9FFDD0E6F008FFFED
:101A7000DAFF020EDE26000EDD2236D7DC0E6F0006
:101A80008FFFD9FFDD0E6F008FFFDAFF6F007BFF46
:101A9000F6FF6F0077FFF7FF000EF86E0800F550B5
:101AA000730AD8A442D0DC0E6F008FFFD9FFDD0E81
:101AB0006F008FFFDAFFDE2A000EDD22DA0E6F00E4
:101AC0008FFFD9FFDB0E6F008FFFDAFF020EDE5EA5
:101AD000000EDD5A6F0078FF3CF06F0074FF3DF0A0
:101AE0006000F3F0D9FF6000F7F0DAFF6F0078FFD5
:101AF0003CF06F0074FF3DF0FE0E6000F7F0E3FF76
:101B0000FD0E6000F3F0E3FFFD0E6F008FFFE6FFB8
:101B10006F008FFFE6FFDC0E6F008FFFE6FF6F00A8
:101B20008FFFE6FF14ECA5F027D1DC0E6F008FFFCE
:101B3000D9FFDD0E6F008FFFDAFF6F007BFFF6FF2E
:101B40006F0077FFF7FF000EF86E0800F550780A77
:101B5000D8B415D0DC0E6F008FFFD9FFDD0E6F00FB
:101B60008FFFDAFF6F007BFFF6FF6F0077FFF7FF55
:101B7000000EF86E0800F550580AD8A494D0DC0E78
:101B80006F008FFFD9FFDD0E6F008FFFDAFF6F0050
:101B90007BFFF6FF6F0077FFF7FF000EF86E08007F
:101BA000FF0E6F00D7FFE3FFDC0E6F008FFFD9FF42
:101BB000DD0E6F008FFFDAFFDE2A000EDD22DA0E67
:101BC0006F008FFFD9FFDB0E6F008FFFDAFF020E71
:101BD000DE5E000EDD5A6F0078FF3CF06F0074FF90
:101BE0003DF06000F3F0D9FF6000F7F0DAFF6F001E
:101BF00078FF3CF06F0074FF3DF03C50426E3D506A
:101C0000436E446A456A466A476A486A496AE60E0C
:101C100060000BF1E3FFE70E60000FF1E3FFE80E59
:101C2000600013F1E3FFE90E600017F1E3FFEA0E35
:101C300060001BF1E3FFEB0E60001FF1E3FFEC0E11
:101C4000600023F1E3FFED0E600027F1E3FFFF0EDC
:101C5000E350E66EE150E50FD96EE250DA6EFF0E0A
:101C6000DA226F007BFFE6FF6F007BFFE6FF6F006D
:101C70007BFFE6FF6F007BFFE6FF6F007BFFE6FF69
:101C80006F007BFFE6FF6F007BFFE6FF6F007BFFCF
:101C9000E6FFD50E6F008FFFE6FF6F008FFFE6FFB8
:101CA0000BECA0F069D0DC0E6F008FFFD9FFDD0ECA
:101CB0006F008FFFDAFF6F007BFFF6FF6F0077FF8B
:101CC000F7FF000EF86E0800F550250AD8A41AD0C8
:101CD000DC0E6F008FFFD9FFDD0E6F008FFFDAFF84
:101CE000DE2A000EDD22DE0E6F008FFFE6FF6F00A2
:101CF0008FFFE6FF250EE66E000EE66EF3ECB1F008
:101D0000010E0CD0DC0E6F008FFFD9FFDD0E6F00CF
:101D10008FFFDAFFDE2A000EDD22000E326E000E8B
:101D2000336E2AD0DE0E6F008FFFE6FF6F008FFF4D
:101D3000E6FFDA0E6F008FFFD9FFDB0E6F008FFF1B
:101D4000DAFF6F007BFFF6FF6F0077FFF7FF000EF3
:101D5000F86E0800F550E66E000EE66EF3ECB1F09A
:101D6000DC0E6F008FFFD9FFDD0E6F008FFFDAFFF3
:101D7000DE2A000EDD22C4D7DA0EE126FF0EE222B3
:101D800012000D0EE126000EE222F20EE124D96EC1
:101D9000FF0EE220DA6EDF503D6E800E3D16FF0E24
:101DA0006000F7F0E3FFF20EE124D96EFF0EE220AF
:101DB000DA6EDF503D6ED8903D343C6EFD0E600013
:101DC000F3F0E3FFF10EE124D96EFF0EE220DA6EAC
:101DD000DFAE02D0FD0EE380FD0EE350D8B41FD07D
:101DE000FD0EE328D8A418D0000E3A6E000E3B6E0C
:101DF000000E3C6E000E3D6EEF0E6000EBF0E3FF58
:101E0000F00E6000EFF0E3FFF10E6000F3F0E3FF8F
:101E1000F20E6000F7F0E3FFF10EE38E18D0000E33
:101E20003A6E000E3B6E000E3C6E000E3D6EEF0EE5
:101E30006000EBF0E3FFF00E6000EFF0E3FFF10E67
:101E40006000F3F0E3FFF20E6000F7F0E3FFEE0E48
:101E5000E124D96EFF0EE220DA6EDF503D6E800E77
:101E60003D16E150FF0FD96EE250DA6EFF0EDA2216
:101E70003D50DF1AEE0EE124D96EFF0EE220DA6E3D
:101E8000DF503D6ED8903D343C6EFE0E6000F3F0A6
:101E9000E3FFED0EE124D96EFF0EE220DA6EDFAE35
:101EA00002D0FE0EE380FE0EE350D8B41FD0FE0E2B
:101EB000E328D8A418D0000E3A6E000E3B6E000E38
:101EC0003C6E000E3D6EEB0E6000EBF0E3FFEC0E9F
:101ED0006000EFF0E3FFED0E6000F3F0E3FFEE0EC5
:101EE0006000F7F0E3FFED0EE38E18D0000E3A6EBF
:101EF000000E3B6E000E3C6E000E3D6EEB0E600061
:101F0000EBF0E3FFEC0E6000EFF0E3FFED0E60009E
:101F1000F3F0E3FFEE0E6000F7F0E3FFFE0EE35098
:101F2000D8B404D0FD0EE350D8A409D0000E326E10
:101F3000000E336E000E346E000E356E32D3EF0E8F
:101F40006F008CFF3DF0ED0EE124D96EFF0EE22014
:101F5000DA6EDF503D02FB0E6F00CFFFE3FFFC0E99
:101F60006F00D3FFE3FFFB0E6F008CFF3DF06000BE
:101F7000F4F036F0376A386A396AF70E6000DBF041
:101F8000E3FFF80E6000DFF0E3FFF90E6000E3F01E
:101F9000E3FFFA0E6000E7F0E3FFFC0EE124D96EE8
:101FA000FF0EE220DA6EDF503D6E6000F4F036F096
:101FB000376A386A396AF30E6000DBF0E3FFF40E2B
:101FC0006000DFF0E3FFF50E6000E3F0E3FFF60EE4
:101FD0006000E7F0E3FFF00EE124D96EFF0EE2208F
:101FE000DA6EDF503D6EEC0EE124D96EFF0EE2207A
:101FF000DA6EDF503D02FB0E6F00CFFFE3FFFC0EF9
:102000006F00D3FFE3FFE150F70FD96EE250DA6EB5
:10201000FF0EDA22FB0EE350DE26000EDE22DE2269
:10202000DE22E150F30FD96EE250DA6EFF0EDA22B3
:10203000FC0EE124E96EFF0EE220EA6EEF50DE2690
:10204000000EDE22DE22DE22F10EE124D96EFF0E2A
:10205000E220DA6EDF503D6EEB0EE3503D02FB0EE8
:102060006F00CFFFE3FFFC0E6F00D3FFE3FFE150F3
:10207000F70FD96EE250DA6EFF0EDA22FB0EE35054
:10208000DE26000EDE22DE22DE22E150F30FD96EC4
:10209000E250DA6EFF0EDA22FC0EE124E96EFF0E4A
:1020A000E220EA6EEF50DE26000EDE22DE22DE2285
:1020B000E150F70FD96EE250DA6EFF0EDA22080E09
:1020C000D890DE36DE36DE36DD36DD52DD52E82EE5
:1020D000F7D7F00EE124D96EFF0EE220DA6EDF5062
:1020E0003D6EEB0EE3503D02FB0E6F00CFFFE3FFB2
:1020F000FC0E6F00D3FFE3FFFB0E6F008CFF3CF084
:10210000FC0E6F008CFF3DF0E150F70FD96EE250EE
:10211000DA6EFF0EDA223C50DE263D50DE22000E43
:10212000DE22DE22EF0E6F008CFF3DF0EC0EE1248C
:10213000D96EFF0EE220DA6EDF503D02FB0E6F001B
:10214000CFFFE3FFFC0E6F00D3FFE3FFFB0E6F003A
:102150008CFF3CF0FC0E6F008CFF3DF0E150F70F60
:10216000D96EE250DA6EFF0EDA223C50DE263D5088
:10217000DE22000EDE22DE22E150F70FD96EE250A1
:10218000DA6EFF0EDA22080ED890DE36DE36DE3644
:10219000DD36DD52DD52E82EF7D7EF0E6F008CFFF3
:1021A0003DF0EB0EE3503D02FB0E6F00CFFFE3FF6F
:1021B000FC0E6F00D3FFE3FFFB0E6F008CFF3CF0C3
:1021C000FC0E6F008CFF3DF0E150F70FD96EE2502E
:1021D000DA6EFF0EDA223C50DE263D50DE22000E83
:1021E000DE22DE22F00EE124D96EFF0EE220DA6E4E
:1021F000DF503D6EED0EE124D96EFF0EE220DA6E67
:10220000DF503D02FB0E6F00CFFFE3FFFC0E6F00BF
:10221000D3FFE3FFFB0E6F008CFF3CF0FC0E6F0062
:102220008CFF3DF0E150F30FD96EE250DA6EFF0EF5
:10223000DA223C50DE263D50DE22000EDE22DE2277
:10224000F10EE124D96EFF0EE220DA6EDF503D6E12
:10225000EC0EE124D96EFF0EE220DA6EDF503D0273
:10226000FB0E6F00CFFFE3FFFC0E6F00D3FFE3FF19
:10227000FB0E6F008CFF3CF0FC0E6F008CFF3DF0FE
:10228000E150F30FD96EE250DA6EFF0EDA223C50C5
:10229000DE263D50DE22000EDE22DE22F10EE1249B
:1022A000D96EFF0EE220DA6EDF503D6EED0EE124B6
:1022B000D96EFF0EE220DA6EDF503D02FB0E6F009A
:1022C000CFFFE3FFFC0E6F00D3FFE3FFFB0E6F00B9
:1022D0008CFF3CF0FC0E6F008CFF3DF03C50366EE6
:1022E0003D50376E386A396A6000E0F039F06000BE
:1022F000DCF038F06000D8F037F0366AE150F30FC8
:10230000D96EE250DA6EFF0EDA223650DE263750F2
:10231000DE223850DE223950DE22E150F30FD96E32
:10232000E250DA6EFF0EDA22FA0EE124E96EFF0EB9
:10233000E220EA6EEF50DE26000EDE22DE22DE22F2
:10234000E150F70FD96EE250DA6EFF0EDA22080E76
:10235000D890DE36DE36DE36DD36DD52DD52E82E52
:10236000F7D7820E3C6EFF0E3D6EFD0EE3503A6EC7
:102370003B6AFE0EE3503A26000E3B223C503A26C2
:102380003D503B22FB0E6000EBF0E3FFFC0E6000D3
:10239000EFF0E3FF21D0D890F30EE336F40EE336EE
:1023A000F50EE336F60EE336FA0EE3AE02D0F30E88
:1023B000E380D890F70EE336F80EE336F90EE336F5
:1023C000FA0EE336E150FB0FD96EE250DA6EFF0EE3
:1023D000DA22DE06000EDD5AF50EE3AEDCD7FE0E85
:1023E000E36AFA0EE3AE20D0E150F70FD96EE25067
:1023F000DA6EFF0EDA22FF0EDE143A6EFF0EDE14E6
:102400003B6EFF0EDE143C6E7F0EDE143D6E3A50C6
:102410003B103C103D10D8B404D0FE0EE36AE32A12
:1024200003D0F30EE3B0F9D7FE0EE350D8B436D0A4
:10243000E150F30FD96EE250DA6EFF0EDA22DE2A97
:10244000000EDE22DE22DE22F60EE3A027D0010EF1
:102450003D6EE150F30FD96EE250DA6EFF0EDA22D4
:102460003D28DE5208D0DE52D890DCBED880DD3266
:10247000DD32DD32DE32E82EF6D7FB0EE350010FFF
:10248000326EFB0E6000CBF0E3FF326AFC0EE350CD
:102490003220326EFC0E6000CBF0E3FFFC0EE3BE98
:1024A00020D0FC0EE35004E1FB0EE328D8A019D0A5
:1024B000000E3A6E000E3B6E800E3C6E7F0E3D6E3F
:1024C000F30E6000EBF0E3FFF40E6000EFF0E3FFCB
:1024D000F50E6000F3F0E3FFF60E6000F7F0E3FFA7
:1024E00044D0FC0EE3BE07D0FC0EE3500FE1FB0E20
:1024F000E304D8B00BD0F30EE36AF40EE36AF50EF2
:10250000E36AF60EE36AFF0EE36A2FD0FB0E6F005C
:102510008CFF32F0FD0E6000CBF0E3FFE150F30FD3
:10252000D96EE250DA6EFF0EDA22FF0EDE16FF0ED3
:10253000DE167F0EDE16000EDE16FD0EE3A008D0BE
:10254000F50EE124D96EFF0EE220DA6E000EDB8E6E
:10255000F60EE124D96EFF0EE220DA6EFD0E6F005A
:102560008CFF3DF0D8903D30DF6EFF0E6F008CFF8A
:102570003DF0F60EE124D96EFF0EE220DA6E3D50FA
:10258000DF12F30E6F008CFF32F0F40E6F008CFF41
:1025900033F0F50E6F008CFF34F0F60E6F008CFFF9
:1025A00035F0EB0EE126FF0EE2221200E652E65273
:1025B000E652E652FB0EE124D96EFF0EE220DA6EFF
:1025C000DF503D6E800E3D16FF0E6000F7F0E3FF1A
:1025D000FB0EE124D96EFF0EE220DA6EDF503D6E75
:1025E000D8903D343C6EFD0E6000F3F0E3FFFA0E30
:1025F000E124D96EFF0EE220DA6EDFAE02D0FD0ECE
:10260000E380FD0EE350D8B427D0FD0EE328D8A414
:1026100018D0000E3A6E000E3B6E000E3C6E000E9F
:102620003D6EF80E6000EBF0E3FFF90E6000EFF096
:10263000E3FFFA0E6000F3F0E3FFFB0E6000F7F03B
:10264000E3FFFA0EE38EFB0EE124D96EFF0EE220CB
:10265000DA6E000EDF6E18D0000E3A6E000E3B6E82
:10266000000E3C6E000E3D6EF80E6000EBF0E3FFD6
:10267000F90E6000EFF0E3FFFA0E6000F3F0E3FF05
:10268000FB0E6000F7F0E3FFF70EE124D96EFF0EBA
:10269000E220DA6EDF503D6E800E3D16FE0E6000C9
:1026A000F7F0E3FFE150FE0FD96EE250DA6EFF0E55
:1026B000DA22FF0EE350DE18D8B402D0FF0EE38C0E
:1026C000F70EE124D96EFF0EE220DA6EDF503D6E88
:1026D000D8903D343C6EFE0E6000F3F0E3FFF60E42
:1026E000E124D96EFF0EE220DA6EDFAE02D0FE0EDC
:1026F000E380FE0EE350D8B427D0FE0EE328D8A422
:1027000018D0000E3A6E000E3B6E000E3C6E000EAE
:102710003D6EF40E6000EBF0E3FFF50E6000EFF0AD
:10272000E3FFF60E6000F3F0E3FFF70E6000F7F052
:10273000E3FFF60EE38EF70EE124D96EFF0EE220E2
:10274000DA6E000EDF6E18D0000E3A6E000E3B6E91
:10275000000E3C6E000E3D6EF40E6000EBF0E3FFE9
:10276000F50E6000EFF0E3FFF60E6000F3F0E3FF1C
:10277000F70E6000F7F0E3FFE150FE0FD96EE25074
:10278000DA6EFF0EDA22FD0EE350DE5CD8B0A4D084
:10279000FF0EE3AC02D0FF0EE37EFD0E6F008CFF58
:1027A00032F0FC0E6000CBF0E3FFFE0E6F008CFFFA
:1027B00032F0FD0E6000CBF0E3FFFC0E6F008CFFEB
:1027C00032F0FE0E6000CBF0E3FFF80E6F008CFFDE
:1027D00032F0FC0E6000CBF0E3FFF40E6F008CFFD4
:1027E00032F0F80E6000CBF0E3FFFC0E6F008CFFC0
:1027F00032F0F40E6000CBF0E3FFF90EE124D96E65
:10280000FF0EE220DA6EDF503D6EFC0E6000F7F046
:10281000E3FFF50EE124D96EFF0EE220DA6EF90E29
:10282000E124E96EFF0EE220EA6E6F007FFFEFFF0A
:10283000F50EE124D96EFF0EE220DA6EFC0E6F0079
:102840008FFFDFFFFA0EE124D96EFF0EE220DA6E71
:10285000DF503D6EFC0E6000F7F0E3FFF60EE12462
:10286000D96EFF0EE220DA6EFA0EE124E96EFF0E59
:10287000E220EA6E6F007FFFEFFFF60EE124D96ED3
:10288000FF0EE220DA6EFC0E6F008FFFDFFFFB0E03
:10289000E124D96EFF0EE220DA6EDF503D6EFC0EB1
:1028A0006000F7F0E3FFF70EE124D96EFF0EE2209F
:1028B000DA6EFB0EE124E96EFF0EE220EA6E6F0095
:1028C0007FFFEFFFF70EE124D96EFF0EE220DA6EF4
:1028D000FC0E6F008FFFDFFFFC0EE36AFE0EE3507D
:1028E0003C6E3D6AFD0EE3503C5E000E3D5A3DBE1F
:1028F00062D03D5004E11A0E3C5CD8A05CD0F80ECA
:10290000E3500AE1F90EE35007E1FA0EE35004E167
:10291000FB0EE350D8B403D03D6A3D2A01D03D6A96
:10292000FC0E6000F7F0E3FFF80EE36AF90EE36ACD
:10293000FA0EE36AFB0EE36AFE0E6F008CFF32F0C4
:10294000FD0E6000CBF0E3FF42D0FC0EE3A00DD003
:10295000FC0E6F008CFF3DF0D8903D32010E3D1211
:10296000FC0E6000F7F0E3FF09D0E150FC0FD96ED8
:10297000E250DA6EFF0EDA22D890DF32F80EE3A0D2
:1029800002D0FC0EE38E010E3D6EE150F80FD96EC1
:10299000E250DA6EFF0EDA223D28DE5208D0DE5217
:1029A000D890DCBED880DD32DD32DD32DE32E82E7A
:1029B000F6D7FD0EE32AE150FD0FD96EE250DA6E34
:1029C000FF0EDA22FE0EE350DE5CD8A0BED7FF0E6B
:1029D000E3BC66D0FD0EE350D8B4F2D0F80EE3505D
:1029E000326EF40EE3503226F80E6000CBF0E3FFB7
:1029F000F90EE350326EF50EE3503222F90E60000C
:102A0000CBF0E3FFFA0EE350326EF60EE3503222C3
:102A1000FA0E6000CBF0E3FFFB0EE350326EF70ED0
:102A2000E3503222FB0E6000CBF0E3FFFB0EE3A08D
:102A300001D1FC0EE3A00DD0FC0E6F008CFF3DF029
:102A4000D8903D32010E3D12FC0E6000F7F0E3FF1E
:102A500009D0E150FC0FD96EE250DA6EFF0EDA2297
:102A6000D890DF32F80EE3A002D0FC0EE38E010E08
:102A70003D6EE150F80FD96EE250DA6EFF0EDA22A9
:102A80003D28DE5208D0DE52D890DCBED880DD3240
:102A9000DD32DD32DE32E82EF6D7FD0EE32ACAD073
:102AA000E150F80FD96EE250DA6EFF0EDA22F40E22
:102AB000E350DE5CF50EE350DE58F60EE350DE58D0
:102AC000DE50800A326EF70EE350800A3258D8B0DA
:102AD00053D0F40E6F008CFF3AF0F50E6F008CFFB0
:102AE0003BF0F60E6F008CFF3CF0F70E6F008CFF92
:102AF0003DF0F80EE3503A5EF90EE3503B5AFA0E01
:102B0000E3503C5AFB0EE3503D5AFF0E3A24366E1A
:102B1000FF0E3B20376EFF0E3C20386EFF0E3D202F
:102B2000396EF80E6000DBF0E3FFF90E6000DFF0B5
:102B3000E3FFFA0E6000E3F0E3FFFB0E6000E7F056
:102B4000E3FFFF0EE37EFC0EE35000083D6EFC0E3B
:102B50006000F7F0E3FFFC0EE350D8A420D0E15072
:102B6000F80FD96EE250DA6EFF0EDA22DE2A000E7E
:102B7000DE22DE22DE2213D0E150F80FD96EE250C1
:102B8000DA6EFF0EDA22F40EE350DE5EF50EE3504D
:102B9000DE5AF60EE350DE5AF70EE350DE5AF80E18
:102BA000E35045E1F90EE35042E1FA0EE3503FE114
:102BB000FB0EE350D8A43BD0FC0EE350D8A437D092
:102BC000000E326E000E336E000E346E000E356E47
:102BD000C6D0D890F80EE336F90EE336FA0EE33697
:102BE000FB0EE336FC0EE3AE02D0F80EE380FC0EE3
:102BF000E3A00ED0FC0E6F008CFF3DF0D8903D346A
:102C00003C6E010E3C12FC0E6000F3F0E3FF09D0B5
:102C1000E150FC0FD96EE250DA6EFF0EDA22D89046
:102C2000DF36FD0EE350D8B402D0FD0EE306FA0EF7
:102C3000E3AECFD7FE0EE36AFC0EE3AE0FD0FC0E80
:102C40006F008CFF3DF07F0E3D16D8B404D0FE0E11
:102C5000E36AE32A03D0F80EE3B0F9D7FE0EE3509F
:102C6000D8B42BD0E150F80FD96EE250DA6EFF0ED7
:102C7000DA22DE2A000EDE22DE22DE22FB0EE3A0B6
:102C80001CD0010E3D6EE150F80FD96EE250DA6EA5
:102C9000FF0EDA223D28DE5208D0DE52D890DCBE8C
:102CA000D880DD32DD32DD32DE32E82EF6D7FD0EA1
:102CB000E328D8B402D0FD0EE32AFD0EE328D8B4F1
:102CC00004D0FD0EE350D8A40ED0F80EE36AF90E3E
:102CD000E36AFA0EE36AFB0EE36AFD0EE350D8A442
:102CE00002D0FF0EE36AFD0EE3A009D0FA0EE12444
:102CF000D96EFF0EE220DA6E000EDB8E08D0FA0EDF
:102D0000E124D96EFF0EE220DA6E7F0EDF16FB0E95
:102D1000E124D96EFF0EE220DA6EFD0E6F008CFF0B
:102D20003DF0D8903D30DF6EFF0EE3AE08D0FB0ED5
:102D3000E124D96EFF0EE220DA6E000EDB8EF80E73
:102D40006F008CFF32F0F90E6F008CFF33F0FA0E3B
:102D50006F008CFF34F0FB0E6F008CFF35F0F40E2B
:102D6000E126FF0EE22212000D0EE126000EE22205
:102D7000F20EE124D96EFF0EE220DA6EDF503D6ED6
:102D8000800E3D16FF0E6000F7F0E3FFF20EE12427
:102D9000D96EFF0EE220DA6EDF503D6ED8903D34E2
:102DA0003C6EFE0E6000F3F0E3FFF10EE124D96EFD
:102DB000FF0EE220DA6EDFAE02D0FE0EE380FE0EE2
:102DC000E350D8B427D0FE0EE328D8A418D0000EC4
:102DD0003A6E000E3B6E000E3C6E000E3D6EEF0E26
:102DE0006000EBF0E3FFF00E6000EFF0E3FFF10EA8
:102DF0006000F3F0E3FFF20E6000F7F0E3FFF10E86
:102E0000E38EF20EE124D96EFF0EE220DA6E000EA0
:102E1000DF6E18D0000E3A6E000E3B6E000E3C6E58
:102E2000000E3D6EEF0E6000EBF0E3FFF00E600071
:102E3000EFF0E3FFF10E6000F3F0E3FFF20E60004D
:102E4000F7F0E3FFEE0EE124D96EFF0EE220DA6E1A
:102E5000DF503D6E800E3D16E150FF0FD96EE250FF
:102E6000DA6EFF0EDA223D50DF1AEE0EE124D96E43
:102E7000FF0EE220DA6EDF503D6ED8903D343C6E9E
:102E8000FD0E6000F3F0E3FFED0EE124D96EFF0EBE
:102E9000E220DA6EDFAE02D0FD0EE380FD0EE350DD
:102EA000D8B427D0FD0EE328D8A418D0000E3A6E6F
:102EB000000E3B6E000E3C6E000E3D6EEB0E600091
:102EC000EBF0E3FFEC0E6000EFF0E3FFED0E6000CF
:102ED000F3F0E3FFEE0E6000F7F0E3FFED0EE38E9C
:102EE000EE0EE124D96EFF0EE220DA6E000EDF6EE8
:102EF00018D0000E3A6E000E3B6E000E3C6E000EB7
:102F00003D6EEB0E6000EBF0E3FFEC0E6000EFF0C7
:102F1000E3FFED0E6000F3F0E3FFEE0E6000F7F06C
:102F2000E3FFEB0EE35039E1EC0EE35036E1ED0E3A
:102F3000E35033E1EE0EE350D8A42FD0EF0EE36A56
:102F4000F00EE36AF10EE36AF20EE36AF10EE12499
:102F5000D96EFF0EE220DA6E800EDE127F0EDD12D9
:102F6000FF0E6F008CFF3DF0F20EE124D96EFF0ED4
:102F7000E220DA6E3D50DF12EF0E6F008CFF32F070
:102F8000F00E6F008CFF33F0F10E6F008CFF34F009
:102F9000F20E6F008CFF35F09FD1FE0EE350D8A4E7
:102FA00009D0000E326E000E336E000E346E000E2D
:102FB000356E92D1FE0EE3503C6E3D6AFD0EE3503D
:102FC0003C5E000E3D5A7F0E3C26000E3D22FB0E5D
:102FD0006000F3F0E3FFFC0E6000F7F0E3FFEF0E9C
:102FE0006F008CFF3AF0F00E6F008CFF3BF0F10E9B
:102FF0006F008CFF3CF0F20E6F008CFF3DF0F70E7F
:103000006000EBF0E3FFF80E6000EFF0E3FFF90E75
:103010006000F3F0E3FFFA0E6000F7F0E3FFEF0E5D
:10302000E36AF00EE36AF10EE36AF20EE36AF30E6E
:10303000E36AF40EE36AF50EE36AF60EE36AFD0E48
:10304000E36A50D0FD0EE350D8B420D0D890F70EEC
:10305000E336F80EE336F90EE336FA0EE336D8908F
:10306000EF0EE336F00EE336F10EE336F20EE33602
:10307000F60EE3AE02D0EF0EE380D890F30EE33607
:10308000F40EE336F50EE336F60EE336E150F70FB5
:10309000D96EE250DA6EFF0EDA22EB0EE350DE5C00
:1030A000EC0EE350DE58ED0EE350DE58EE0EE3502A
:1030B000DE58D8A015D0F60EE38CE150F70FD96E8C
:1030C000E250DA6EFF0EDA22EB0EE350DE5EEC0E1B
:1030D000E350DE5AED0EE350DE5AEE0EE350DE5AB8
:1030E000FD0EE32AFD0E6F008CFF32F0190E3264E4
:1030F000A9D7F70EE3500AE1F80EE35007E1F90E05
:10310000E35004E1FA0EE350D8B424D0F30EE38088
:1031100021D0D890EF0EE336F00EE336F10EE33611
:10312000F20EE336F60EE3AE02D0EF0EE380D89057
:10313000F30EE336F40EE336F50EE336F60EE33621
:10314000E150FB0FD96EE250DA6EFF0EDA22DE0696
:10315000000EDD5AF10EE3AEDCD7FD0EE36AF60E8B
:10316000E3AE20D0E150F30FD96EE250DA6EFF0EDD
:10317000DA22FF0EDE143A6EFF0EDE143B6EFF0EF7
:10318000DE143C6E7F0EDE143D6E3A503B103C1058
:103190003D10D8B404D0FD0EE36AE32A03D0EF0E4D
:1031A000E3B0F9D7FD0EE350D8B436D0E150EF0FBD
:1031B000D96EE250DA6EFF0EDA22DE2A000EDE222F
:1031C000DE22DE22F20EE3A027D0010E3D6EE1509A
:1031D000EF0FD96EE250DA6EFF0EDA223D28DE5292
:1031E00008D0DE52D890DCBED880DD32DD32DD3250
:1031F000DE32E82EF6D7FB0EE350010F326EFB0EE7
:103200006000CBF0E3FF326AFC0EE3503220326EF6
:10321000FC0E6000CBF0E3FFFC0EE3BE1BD0FC0E07
:10322000E35004E1FB0EE328D8A014D0FF0E3C6E5F
:10323000000E3D6EFB0E6000F3F0E3FFFC0E60003D
:10324000F7F0E3FFEF0EE36AF00EE36AF10EE36AD4
:10325000F20EE36AFC0EE3BE07D0FC0EE35012E16F
:10326000FB0EE304D8B00ED0FB0EE36AFC0EE36A5B
:10327000EF0EE36AF00EE36AF10EE36AF20EE36A20
:10328000FF0EE36AFB0E6F008CFF32F0FE0E600053
:10329000CBF0E3FFFE0EE3A009D0F10EE124D96EDE
:1032A000FF0EE220DA6E000EDB8E08D0F10EE12474
:1032B000D96EFF0EE220DA6E7F0EDF16F20EE124E9
:1032C000D96EFF0EE220DA6EFE0E6F008CFF3DF02D
:1032D000D8903D30DF6E44D6EB0EE126FF0EE222A1
:1032E0001200FF0E6F008CFF3DF0770E3A6E3C0E21
:1032F0003B6E3D2A03D03B343B323A323D2EFBD766
:103300003AB031D2190EE66EFF0EE66E65ECBBF0F8
:103310003AD2FF0E6F008CFF3DF0030E3A6E000EA6
:103320003B6E3D2A03D03B343B323A323D2EFBD735
:103330003AA0EBD0FF0E6F008CFF3DF0010E3A6E0D
:10334000000E3B6E3D2A03D03B343B323A323D2ED9
:10335000FBD73AA06DD06A0EE66E4D0EE66E130EE8
:10336000E66E3E0EE66E60009CF33AF06000A0F35D
:103370003BF0000E3BBEFF0E3C6E3D6E6000EBF07E
:10338000E6FF6000EFF0E6FF6000F3F0E6FF6000AC
:10339000F7F0E6FF010EE66E16ECABF06000CBF046
:1033A000E6FF6000CFF0E6FF6000D3F0E6FF6000CC
:1033B000D7F0E6FFF70EE350E66E8AECC1F060004E
:1033C000C8F03CF06000CCF03DF03C50366E3D5013
:1033D000376E386A396A6000DBF0E6FF6000DFF0C4
:1033E000E6FF6000E3F0E6FF6000E7F0E6FF000EB6
:1033F000E66E16ECABF06000CBF0E6FF6000CFF0BD
:10340000E6FF6000D3F0E6FF6000D7F0E6FFF3ECE4
:10341000BCF06000CBF0E6FF6000CFF0E6FF60009C
:10342000D3F0E6FF6000D7F0E6FFC1EC8EF0ABD141
:103430006B0EE66E2B0EE66E760EE66E3D0EE66EBB
:103440006000A4F33AF06000A8F33BF0000E3BBE2E
:10345000FF0E3C6E3D6E6000EBF0E6FF6000EFF0AB
:10346000E6FF6000F3F0E6FF6000F7F0E6FF010E14
:10347000E66E16ECABF06000CBF0E6FF6000CFF03C
:10348000E6FF6000D3F0E6FF6000D7F0E6FFF70E3E
:10349000E350E66E8AECC1F06000C8F03CF06000DA
:1034A000CCF03DF03C50366E3D50376E386A396A8C
:1034B0006000DBF0E6FF6000DFF0E6FF6000E3F0B5
:1034C000E6FF6000E7F0E6FF000EE66E16ECABF0FC
:1034D0006000CBF0E6FF6000CFF0E6FF6000D3F0C5
:1034E000E6FF6000D7F0E6FFF3ECBCF06000CBF045
:1034F000E6FF6000CFF0E6FF6000D3F0E6FF60007B
:10350000D7F0E6FFC1EC8EF03ED1FF0E6F008CFFCE
:103510003DF0000E3A6E080E3B6E3D2A03D03B3460
:103520003B323A323D2EFBD73AA008D0000E326E25
:10353000000E336EC80E346E410E13D1000EE66ECF
:10354000000EE66E7A0EE66E440EE66E610EE66ED4
:10355000030EE66E840EE66E400EE66EF70EE35046
:10356000E66E8AECC1F06000C8F03CF06000CCF080
:103570003DF03C50366E3D50376E386A396A600017
:10358000DBF0E6FF6000DFF0E6FF6000E3F0E6FF5F
:103590006000E7F0E6FF000EE66E16ECABF06000B0
:1035A000CBF0E6FF6000CFF0E6FF6000D3F0E6FF6F
:1035B0006000D7F0E6FFC1EC8EF06000CBF0E6FFD4
:1035C0006000CFF0E6FF6000D3F0E6FF6000D7F0C8
:1035D000E6FFB4EC96F0D7D0FF0E6F008CFF3DF005
:1035E000030E3A6E000E3B6E3D2A03D03B343B3255
:1035F0003A323D2EFBD73AB011D0FF0E6F008CFF50
:103600003DF0000E3A6E080E3B6E3D2A03D03B346F
:103610003B323A323D2EFBD73AA04ED0000EE66E3A
:10362000000EE66E7A0EE66E440EE66E000EE66E54
:10363000000EE66E200EE66E3F0EE66EF70EE350CD
:10364000E66E8AECC1F06000C8F03CF06000CCF09F
:103650003DF03C50366E3D50376E386A396A600036
:10366000DBF0E6FF6000DFF0E6FF6000E3F0E6FF7E
:103670006000E7F0E6FF000EE66E16ECABF06000CF
:10368000CBF0E6FF6000CFF0E6FF6000D3F0E6FF8E
:103690006000D7F0E6FFC1EC8EF06000CBF0E6FFF3
:1036A0006000CFF0E6FF6000D3F0E6FF6000D7F0E7
:1036B000E6FFB4EC96F067D0000EE66E000EE66E04
:1036C0007A0EE66E440EE66E610EE66E030EE66E50
:1036D000840EE66E400EE66EF70EE350E66E8AEC60
:1036E000C1F06000C8F03CF06000CCF03DF03C5010
:1036F000366E3D50376E386A396A6000DBF0E6FF9F
:103700006000DFF0E6FF6000E3F0E6FF6000E7F056
:10371000E6FF000EE66E16ECABF06000CBF0E6FFC5
:103720006000CFF0E6FF6000D3F0E6FF6000D7F066
:10373000E6FFC1EC8EF06000CBF0E6FF6000CFF05A
:10374000E6FF6000D3F0E6FF6000D7F0E6FFB4ECE0
:1037500096F019D0000E326E000E336E000E346EED
:10376000000E356E10D0FE0EE3503C6E3D6A3D50AB
:10377000000AD8A4EFD73C50000AD8B4CAD5010A31
:10378000D8B42AD7E7D7E552E5521200120EE12647
:10379000000EE222E40EE124D96EFF0EE220DA6E82
:1037A000080E326EF00E6F007BFFE3FFE828322E2A
:1037B000FAD7F70EE3AE02D0010E01D0000E3C6E38
:1037C0003D6AFA0E6000F3F0E3FFFB0E6000F7F0D5
:1037D000E3FFFA0E6F008CFF32F0FB0EE350321065
:1037E000D8B425D0F00EE36CF10EE31EF20EE31E0A
:1037F000F30EE31EF40EE31EF50EE31EF60EE31EBB
:10380000F70EE31E14E3F10EE32A11E3F20EE32AAE
:103810000EE3F30EE32A0BE3F40EE32A08E3F50EBE
:10382000E32A05E3F60EE32A02E3F70EE32A1EAECF
:103830001F921EBE05D01E5010E11D04D8B00DD041
:10384000010E3C6E000E3D6EFE0E6000F3F0E3FFD5
:10385000FF0E6000F7F0E3FF08D0FE0E600077F087
:10386000E3FFFF0E60007BF0E3FFFC0E60006FF0F3
:10387000E3FFFD0E600073F0E3FFFA0E6F008CFFB4
:1038800032F0FB0EE3503210D8A402D01FA40AD0AD
:10389000E150FC0FD96EE250DA6EFF0EDA22DE063E
:1038A000000EDD5A4F0E3C6E000E3D6EF80E6000AD
:1038B000F3F0E3FFF90E6000F7F0E3FF02018F6B16
:1038C00009D1E150F80FD96EE250DA6EFF0EDA221C
:1038D000DE06000EDD5A0A0EE66E000EE66E000EE3
:1038E000E66E000EE66E000EE66E000EE66E000E50
:1038F000E66E000EE66EE150E80FD96EE250DA6E29
:10390000FF0EDA226F007BFFE6FF6F007BFFE6FF12
:103910006F007BFFE6FF6F007BFFE6FF6F007BFF22
:10392000E6FF6F007BFFE6FF6F007BFFE6FF6F00A7
:103930007BFFE6FFEDECA8F0E5526F009CFF49F03D
:10394000E5526F009CFF48F0E5526F009CFF47F086
:10395000E5526F009CFF46F0E5526F009CFF45F07A
:10396000E5526F009CFF44F0E5526F009CFF43F06E
:10397000E5526F009CFF42F0F80EE126FF0EE222B6
:10398000600008F13CF060000CF13DF06000F3F0E5
:10399000E6FF6000F7F0E6FF16ECBDF0300E3226D1
:1039A000F80E6F008CFF3CF0F90E6F008CFF3DF0BD
:1039B000400E3C24D96E020E3D20DA6E6000CBF042
:1039C000DFFFE150FE0FD96EE250DA6EFF0EDA2211
:1039D000DE06000EDD5AE150FC0FD96EE250DA6EC1
:1039E000FF0EDA22DE06000EDD5A0A0EE66E000E2B
:1039F000E66E000EE66E000EE66E000EE66E000E3F
:103A0000E66E000EE66E000EE66EE150E80FD96E2F
:103A1000E250DA6EFF0EDA226F007BFFE6FF6F00E6
:103A20007BFFE6FF6F007BFFE6FF6F007BFFE6FF9B
:103A30006F007BFFE6FF6F007BFFE6FF6F007BFF01
:103A4000E6FF6F007BFFE6FF73ECA6F0E5526F0028
:103A50009CFF49F0E5526F009CFF48F0E5526F0073
:103A60009CFF47F0E5526F009CFF46F0E5526F0067
:103A70009CFF45F0E5526F009CFF44F0E5526F005B
:103A80009CFF43F0E5526F009CFF42F0F80EE126E8
:103A9000FF0EE222F00E60000BF1E3FFF10E60007A
:103AA0000FF1E3FFF20E600013F1E3FFF30E60008D
:103AB00017F1E3FFF40E60001BF1E3FFF50E600069
:103AC0001FF1E3FFF60E600023F1E3FFF70E600045
:103AD00027F1E3FFF90EE3BE36D0F90EE35004E11F
:103AE000F80EE304D8A02FD0F00EE35015E1F10E4C
:103AF000E35012E1F20EE3500FE1F30EE3500CE15C
:103B0000F40EE35009E1F50EE35006E1F60EE35042
:103B100003E1F70EE350D8A4D4D6FF0EE3BE07D0DE
:103B2000FF0EE35003E1FE0EE304D8B0CAD6FD0E4B
:103B3000E3BE09D0FD0EE35004E1FC0EE304D8A07F
:103B400002D01FB2BED6FA0E6F008CFF32F0FB0E11
:103B5000E3503210D8A402D01FA433D0E150F80FA4
:103B6000D96EE250DA6EFF0EDA22DE06000EDD5A62
:103B7000FA0E6F008CFF32F0FB0EE3503210D8A427
:103B800002D02B0E01D02D0E3C6E000E3D6EEE0EBF
:103B90006000F3F0E3FFEF0E6000F7F0E3FFF80ED4
:103BA0006F008CFF3CF0F90E6F008CFF3DF0400E73
:103BB0003C24D96E020E3D20DA6EEE0E6F008FFFB0
:103BC000DFFFFC0E6F008FFFE6FF6F008FFFE6FF49
:103BD000400E3C6E020E3D6EF60EE3503C26F70E94
:103BE000E3503D226000F3F0E6FF6000F7F0E6FFEF
:103BF000E80E6F008FFFE6FF6F008FFFE6FF11EC0E
:103C0000B3F0E40EE126FF0EE2221200E65239EC98
:103C1000BDF0D28ED28C0101006B2C0EE66E010E2F
:103C2000E66E5FECBEF0CBA004D0FF0EE36AE32AA1
:103C300004D0FF0EE36AE380E382FF0EE304D8A41E
:103C400007D0BD80000E0101966F460E956F04D01F
:103C5000BD900101956B966B600057F6E6FF600022
:103C60005BF6E6FFFDECC1F0D0D021ECB5F00C0E18
:103C7000E66E59ECC2F0FF0E6F008CFF00F1A50E4E
:103C8000E66E070EE66E95ECBEF0000EE66ED4EC26
:103C9000C1F0620EE66EFF0EE66E000EE66E000EDE
:103CA000E66E29ECBFF06000CBF0E6FF6000CFF0DD
:103CB000E6FF040EE66E22ECB4F0E00EE66EFF0EB8
:103CC000E66EA40EE66EFF0EE66E000EE66E010EC8
:103CD000E66E29ECBFF06000CBF0E6FF6000CFF0AD
:103CE000E6FF060EE66E22ECB4F0510EE66EFF0E15
:103CF000E66E000EE66E020EE66E29ECBFF0600086
:103D0000CBF0E6FF6000CFF0E6FF040EE66E22EC9B
:103D1000B4F0730EE66EFF0EE66E020EE66E000E57
:103D2000E66E29ECBFF06000CBF0E6FF6000CFF05C
:103D3000E6FF040EE66E22ECB4F0E00EE66EFF0E37
:103D4000E66EA40EE66EFF0EE66E020EE66E010E45
:103D5000E66E29ECBFF06000CBF0E6FF6000CFF02C
:103D6000E6FF060EE66E22ECB4F0400EE66EFF0EA5
:103D7000E66E020EE66E020EE66E29ECBFF0600003
:103D8000CBF0E6FF6000CFF0E6FF040EE66E22EC1B
:103D9000B4F0000EE66E9BECB3F0B80EE66E0B0EC0
:103DA000E66E5FECBEF0FA0EE66E000EE66E0A0EF0
:103DB000E66E25ECBEF0C80EE66E000EE66E010E55
:103DC000E66E25ECBEF0B80EE66E0B0EE66E070E44
:103DD000E66E25ECBEF0DC0EE66E050EE66E0B0E12
:103DE000E66E25ECBEF0B80EE66E0B0EE66E090E22
:103DF000E66E25ECBEF001ECBBF06BECC1F01CD024
:103E00000001BE8119D0006B17D0010100513C6E3A
:103E10003D6A3D50000AD8A4F6D73C50000AD8B4F9
:103E200024D7010AD8B408D0020AD8B405D0070AAA
:103E3000D8B4E6D7010AE7D7010EE66E13ECC1F05D
:103E40003250D8B413D09DECC2F03250D8B40ED05A
:103E5000F2ECB9F0A5ECC2F001ECBBF0C80EE66ED6
:103E6000000EE66E010EE66E25ECBEF00A0EE66E62
:103E700013ECC1F03250D8B4ABD0090EE66E13EC9F
:103E8000C1F03250D8B404D0000EE66E99ECC1F007
:103E9000020EE66ED3ECBFF03250E66E000EE66E18
:103EA000600003FCE6FF600007FCE6FF60000BFC1F
:103EB000E6FF60000FFCE6FF000EE66E8AECC1F044
:103EC0006000CBF0E6FF6000CFF0E6FFB30EE66ED9
:103ED000FF0EE66E000EE66E000EE66E29ECBFF0F9
:103EE0006000CBF0E6FF6000CFF0E6FF0C0EE66E60
:103EF00022ECB4F0030EE66ED3ECBFF03250E66E67
:103F0000000EE66E600013FCE6FF600017FCE6FFA3
:103F100060001BFCE6FF60001FFCE6FF010EE66E82
:103F20008AECC1F06000CBF0E6FF6000CFF0E6FF66
:103F3000B30EE66EFF0EE66E000EE66E010EE66E46
:103F400029ECBFF06000CBF0E6FF6000CFF0E6FFA9
:103F50000C0EE66E22ECB4F091ECC2F03250E66E3C
:103F6000000EE66E600023FCE6FF600027FCE6FF23
:103F700060002BFCE6FF60002FFCE6FF020EE66E01
:103F80008AECC1F06000CBF0E6FF6000CFF0E6FF06
:103F9000840EE66EFF0EE66E000EE66E020EE66E14
:103FA00029ECBFF06000CBF0E6FF6000CFF0E6FF49
:103FB0000C0EE66E22ECB4F0FA0EE66E000EE66E23
:103FC0000A0EE66E25ECBEF0000EE66E9BECB3F03A
:103FD0000101AA51E66E0DECAAF001019BA115D7D3
:103FE000070EE66E13ECC1F03250D8B40BD00101CD
:103FF0009B91000EE66ED4ECC1F0000EE66E9BECD9
:10400000B3F003D7020EE66ED4ECC1F0020EE66EFA
:104010009BECB3F0FAD6140EE126000EE2221EAE9F
:104020001F921EBE05D01E5010E11D04D8B00DD049
:10403000010E3C6E000E3D6EFE0E6000F3F0E3FFDD
:10404000FF0E6000F7F0E3FF08D0FE0E600077F08F
:10405000E3FFFF0E60007BF0E3FFFC0E60006FF0FB
:10406000E3FFFD0E600073F0E3FF1FA80BD0E150EB
:10407000FC0FD96EE250DA6EFF0EDA22FE0EDE265B
:10408000FF0EDD22E20EE124D96EFF0EE220DA6E91
:10409000080E326EF00E6F007BFFE3FFE828322E31
:1040A000FAD74F0E3C6E000E3D6EFA0E6000F3F034
:1040B000E3FFFB0E6000F7F0E3FF02018F6BEED031
:1040C000E150FA0FD96EE250DA6EFF0EDA22DE0608
:1040D000000EDD5AF00E6F008CFF3CF0F10E6F0009
:1040E0008CFF3DF00F0E3C16000E3D16F80E6000E2
:1040F000F3F0E3FFF90E6000F7F0E3FFF90EE3BE23
:104100000FD0F90EE35008E1F80E6F008CFF32F08B
:104110000A0E325ED8A004D0F80EE350570F03D039
:10412000F80EE350300F3C6EF90E6F008CFF3DF03F
:10413000000E3D22F80E6000F3F0E3FFF90E600080
:10414000F7F0E3FFBF0E3C6EFF0E3D6EE10EE35055
:104150003A6E3B6A3C503A263D503B223B5006E1CA
:104160001A0E3A5CD8B002D0010E01D0000E3C6E9F
:104170003D6AEE0E6000F3F0E3FFEF0E6000F7F033
:10418000E3FFEE0E6F008CFF32F0EF0EE3503210C3
:10419000D8B441D09F0E3C6EFF0E3D6EF80E6F00FE
:1041A0008CFF3AF0F90E6F008CFF3BF0200E3A12B4
:1041B000000E3B123C503A263D503B223B5006E15C
:1041C0001A0E3A5CD8B002D0010E01D0000E3C6E3F
:1041D0003D6AEC0E6000F3F0E3FFED0E6000F7F0D7
:1041E000E3FFEC0E6F008CFF32F0ED0EE350321067
:1041F000D8B411D0F80E6F008FFFE6FF6F008FFF6D
:10420000E6FF2FECB9F0F80E6000CBF0E3FFF90EFB
:104210006000CFF0E3FFFA0E6F008CFF3CF0FB0E66
:104220006F008CFF3DF0400E3C24D96E020E3D2005
:10423000DA6EF80E6F008FFFDFFFE150FE0FD96ED0
:10424000E250DA6EFF0EDA22DE06000EDD5AE15091
:10425000FC0FD96EE250DA6EFF0EDA22DE06000E97
:10426000DD5A040E3D6EE150F00FD96EE250DA6E69
:10427000FF0EDA223D28DE520FD0DE52DE52DE5231
:10428000DE52DE52DE52D890DD32DD32DD32DD32FA
:10429000DD32DD32DD32DE32E82EEFD7FB0EE3BE5B
:1042A0003AD0FB0EE35008E1FA0E6F008CFF32F0BB
:1042B000020E325ED8A02FD0F00EE35015E1F10EC1
:1042C000E35012E1F20EE3500FE1F30EE3500CE184
:1042D000F40EE35009E1F50EE35006E1F60EE3506B
:1042E00003E1F70EE350D8A4EBD6FF0EE3BE07D0F0
:1042F000FF0EE35003E1FE0EE304D8B0E1D6FD0E5D
:10430000E3BE09D0FD0EE35004E1FC0EE304D8A0A7
:1043100002D01FB2D5D61FA836D0E150FA0FD96E01
:10432000E250DA6EFF0EDA22DE06000EDD5AFA0ED9
:104330006F008CFF3CF0FB0E6F008CFF3DF0400ED9
:104340003C24D96E020E3D20DA6EE10E6F008FFF25
:10435000DFFFE150FA0FD96EE250DA6EFF0EDA227B
:10436000DE06000EDD5AFA0E6F008CFF3CF0FB0EED
:104370006F008CFF3DF0400E3C24D96E020E3D20B4
:10438000DA6E300EDF6EFC0E6F008FFFE6FF6F00FF
:104390008FFFE6FF400E3C6E020E3D6EF80EE350BE
:1043A0003C26F90EE3503D226000F3F0E6FF60008A
:1043B000F7F0E6FFE60E6F008FFFE6FF6F008FFF5E
:1043C000E6FF11ECB3F0E10EE126FF0EE22212004F
:1043D0000A0EE126000EE2226000B4F23AF060001C
:1043E000B8F23BF06000BCF23CF06000C0F23DF07F
:1043F000F60E6000EBF0E3FFF70E6000EFF0E3FF76
:10440000F80E6000F3F0E3FFF90E6000F7F0E3FF51
:10441000F20E6F008CFF3AF0F30E6F008CFF3BF052
:10442000F40E6F008CFF3CF0F50E6F008CFF3DF03A
:10443000F60E6000EBF0E3FFF70E6000EFF0E3FF35
:10444000F80E6000F3F0E3FFF90E6000F7F0E3FF11
:10445000810E3C6EFF0E3D6EF60E6F008CFF36F047
:10446000F70E6F008CFF37F0F80E6F008CFF38F0FE
:10447000F90E6F008CFF39F0180E05D0D890393244
:10448000383237323632E82EF9D76000D8F03AF0B9
:104490006000DCF03BF0FF0E3A16000E3B163C507D
:1044A0003A263D503B22FE0E6000EBF0E3FFFF0E8C
:1044B0006000EFF0E3FFFF0EE3BE19D0FF0EE35004
:1044C00008E1FE0E6F008CFF32F0170E325ED8A0AE
:1044D0000ED0F20E6F008CFF32F0F30E6F008CFFE7
:1044E00033F0F40E6F008CFF34F0F50E1FD1FF0E89
:1044F000E3BEB4D0FE0E6F008CFF3DF0FF0E366EB3
:10450000FF0E376E7F0E386E000E396E3D6601D09D
:1045100007D0393439323832373236323D2EF6D779
:10452000FA0E6000DBF0E3FFFB0E6000DFF0E3FF5C
:10453000FC0E6000E3F0E3FFFD0E6000E7F0E3FF38
:10454000F60E6F008CFF3AF0F70E6F008CFF3BF019
:10455000F80E6F008CFF3CF0F90E6F008CFF3DF001
:10456000FA0EE3503A16FB0EE3503B16FC0EE350F6
:104570003C16FD0EE3503D163A503B103C103D10EA
:10458000D8B4A7D7F60E6F008CFF3AF0F70E6F0085
:104590008CFF3BF0F80E6F008CFF3CF0F90E6F00C3
:1045A0008CFF3DF0200E05D0D8903D323C323B329E
:1045B0003A32E82EF9D73A50D8B428D0F60EE35064
:1045C000326EFA0EE3503226F60E6000CBF0E3FFB7
:1045D000F70EE350326EFB0EE3503222F70E60000E
:1045E000CBF0E3FFF80EE350326EFC0EE3503222C4
:1045F000F80E6000CBF0E3FFF90EE350326EFD0ED3
:10460000E3503222F90E6000CBF0E3FFFA0E6F00A8
:104610008CFF3AF0FB0E6F008CFF3BF0FC0E6F003E
:104620008CFF3CF0FD0E6F008CFF3DF03A1C366EA7
:104630003B1C376E3C1C386E3D1C396EE150F60F4A
:10464000D96EE250DA6EFF0EDA223650DE1637509F
:10465000DE163850DE163950DE165BD0F60E6F00CF
:104660008CFF3AF0F70E6F008CFF3BF0F80E6F00F6
:104670008CFF3CF0F90E6F008CFF3DF0200E05D052
:10468000D8903D323C323B323A32E82EF9D73A6686
:1046900009D0F60EE36AF70EE36AF80EE36AF90E44
:1046A000E36A37D0F60E6F008CFF3AF0F70E6F001A
:1046B0008CFF3BF0F80E6F008CFF3CF0F90E6F00A2
:1046C0008CFF3DF0D8903A34366E3B34376E3C3434
:1046D000386E3D34396E3650371038103910D8B432
:1046E00018D0000E3A6E000E3B6E800E3C6EBF0E70
:1046F0003D6EF60E6000EBF0E3FFF70E6000EFF0AA
:10470000E3FFF80E6000F3F0E3FFF90E6000F7F04E
:10471000E3FFF60E6F008CFF32F0F70E6F008CFF98
:1047200033F0F80E6F008CFF34F0F90E6F008CFF41
:1047300035F0F20EE126FF0EE2221200E652E652BA
:10474000E652E652FA0E6F008CFF3CF0FB0E6F0053
:104750008CFF3DF0FD0E6000F7F0E3FFFC0E600003
:10476000F3F0E3FFF60E6F008CFF32F0F70EE3502C
:104770003210D8B454D1FC0E6F008FFFD9FFFD0E5C
:104780006F008FFFDAFFF80E6F008FFFDFFFFC0E68
:104790006F008CFF3CF0FD0E6F008CFF3DF0F60EBD
:1047A000E3503C26F70EE3503D22FF0E3C24D96E29
:1047B000FF0E3D20DA6EF80E6F008FFFDFFFF70E61
:1047C000E35008E1F60E6F008CFF32F0030E325E0C
:1047D000D8A025D1FC0E6F008CFF3CF0FD0E6F00C1
:1047E0008CFF3DF0010E3C24D96E000E3D20DA6EA8
:1047F000F80E6F008FFFDFFFFC0E6F008CFF3CF0A8
:10480000FD0E6F008CFF3DF0020E3C24D96E000EB1
:104810003D20DA6EF80E6F008FFFDFFFFC0E6F0099
:104820008CFF3CF0FD0E6F008CFF3DF0F60EE35068
:104830003C26F70EE3503D22FE0E3C24D96EFF0EBF
:104840003D20DA6EF80E6F008FFFDFFFFC0E6F0069
:104850008CFF3CF0FD0E6F008CFF3DF0F60EE35038
:104860003C26F70EE3503D22FD0E3C24D96EFF0E90
:104870003D20DA6EF80E6F008FFFDFFFF70EE3507A
:1048800008E1F60E6F008CFF32F0070E325ED8A002
:10489000C6D0FC0E6F008CFF3CF0FD0E6F008CFF4D
:1048A0003DF0030E3C24D96E000E3D20DA6EF80E6A
:1048B0006F008FFFDFFFFC0E6F008CFF3CF0FD0EE2
:1048C0006F008CFF3DF0F60EE3503C26F70EE350F0
:1048D0003D22FC0E3C24D96EFF0E3D20DA6EF80E10
:1048E0006F008FFFDFFFF70EE35008E1F60E6F0059
:1048F0008CFF32F0090E325ED8A091D0FC0E6F0012
:104900008CFF3CF03C1EFD0E6F008CFF3DF03D1E09
:104910003C2AD8B43D2A030E3C16000E3D16FE0E6E
:104920006000F3F0E3FFFF0E6000F7F0E3FFFC0E22
:10493000E350326EFE0EE3503226FC0E6000CBF0E8
:10494000E3FFFD0EE350326EFF0EE3503222FD0E08
:104950006000CBF0E3FFF60EE350326EFE0EE35044
:10496000325EF60E6000CBF0E3FFF70EE350326EDE
:10497000FF0EE350325AF70E6000CBF0E3FFFC0E5F
:104980003C6EFF0E3D6EF60E6F008CFF32F03C5019
:104990003216F60E6000CBF0E3FFF70E6F008CFFCF
:1049A00032F03D503216F70E2ED0FC0E6F008FFF06
:1049B000D9FFFD0E6F008FFFDAFFF80E6F008FFF3B
:1049C000DFFFF60E6F008CFF32F0010E325EF60E46
:1049D0006000CBF0E3FFF70E6F008CFF32F0000EAB
:1049E000325AF70E6000CBF0E3FFFC0EE350010FEC
:1049F000326EFC0E6000CBF0E3FF326AFD0EE35036
:104A00003220326EFD0E6000CBF0E3FFF60E6F0039
:104A10008CFF32F0F70EE3503210D8A4C6D7F60E52
:104A2000E126FF0EE2221200110EE126000EE22224
:104A300020EEEFF0070E326EEF0E6F007BFFE3FF0C
:104A4000E828322EFAD7EB0E6F008CFF3CF0EC0E0C
:104A50006F008CFF3DF0FB0E6000F7F0E3FFFA0EF5
:104A60006000F3F0E3FFFA0E6F008CFF32F0FB0EF4
:104A7000E3503210D8A40ED0EF0EE1243C6EFF0EAE
:104A8000E2203D6EFB0E6000F7F0E3FFFA0E6000DF
:104A9000F3F0E3FFFA0E6F008FFFE6FF6F008FFF6A
:104AA000E6FFBCECB7F0F60E6000CBF0E3FFF70ECC
:104AB0006000CFF0E3FFF80E600077F0E3FFF90E3F
:104AC00060007BF0E3FFF90EE3BE23D0E150F80F66
:104AD000D96EE250DA6EFF0EDA22F60EE350DE5C9B
:104AE000DE50800A326EF70EE350800A3258D8B09A
:104AF00010D0F80E6F008CFF32F0F60E6000CBF095
:104B0000E3FFF90E6F008CFF32F0F70E6000CBF080
:104B1000E3FFF60E6F008CFF32F0F80E6000CBF072
:104B2000E3FFF70E6F008CFF32F0F90E6000CBF060
:104B3000E3FFFC0E60006FF0E3FFFD0E600073F01A
:104B4000E3FF1FA01FD031D0ED0E6F008FFFE6FFF7
:104B50006F008FFFE6FF200EE66E000EE66EF3ECB0
:104B6000B1F0F60EE350010F326EF60E6000CBF09E
:104B7000E3FF326AF70EE3503220326EF70E600028
:104B8000CBF0E3FFE150F60FD96EE250DA6EFF0E84
:104B9000DA22FC0EE350DE5CDE50800A326EFD0E3F
:104BA000E350800A3258D8A0CFD7FE0EE36AFF0E3A
:104BB000E36A45D0ED0E6F008FFFE6FF6F008FFFB9
:104BC000E6FFF80E6F008FFFF6FFF90E6F008FFF04
:104BD000F7FF000EF86E1F0EF76403D00800F550C3
:104BE00007D06F00DBFFE9FF6F00DFFFEAFFEF5048
:104BF000E66E000EE66EF3ECB1F0FA0EE350010F34
:104C0000326EFA0E6000CBF0E3FF326AFB0EE35027
:104C10003220326EFB0E6000CBF0E3FFFE0EE3505D
:104C2000010F326EFE0E6000CBF0E3FF326AFF0E22
:104C3000E3503220326EFF0E6000CBF0E3FFE15014
:104C4000FE0FD96EE250DA6EFF0EDA22F80EE35054
:104C5000DE5CDE50800A326EF90EE350800A325874
:104C6000D8A0A8D71FB01FD031D0ED0E6F008FFF96
:104C7000E6FF6F008FFFE6FF200EE66E000EE66E89
:104C8000F3ECB1F0F60EE350010F326EF60E600059
:104C9000CBF0E3FF326AF70EE3503220326EF70EAC
:104CA0006000CBF0E3FFE150F60FD96EE250DA6E10
:104CB000FF0EDA22FC0EE350DE5CDE50800A326E1C
:104CC000FD0EE350800A3258D8A0CFD7F60E6F0001
:104CD0008CFF32F0F70E6F008CFF33F0EB0EE12605
:104CE000FF0EE22212000A0EE126000EE222FE0E64
:104CF000E36AED0EE3AE28D0E60EE36CE70EE31EAA
:104D0000E80EE31EE90EE31EEA0EE31EEB0EE31EC1
:104D1000EC0EE31EED0EE31E14E3E70EE32A11E3AF
:104D2000E80EE32A0EE3E90EE32A0BE3EA0EE32A98
:104D300008E3EB0EE32A05E3EC0EE32A02E3ED0EB3
:104D4000E32AFE0EE36AE32AF50EE3AE27D0EE0E69
:104D5000E36CEF0EE31EF00EE31EF10EE31EF20E07
:104D6000E31EF30EE31EF40EE31EF50EE31E14E342
:104D7000EF0EE32A11E3F00EE32A0EE3F10EE32A2D
:104D80000BE3F20EE32A08E3F30EE32A05E3F40E45
:104D9000E32A02E3F50EE32AFE0EE370070E326EFD
:104DA000F60EE36AE82A3206FCE2E60EE35016E16C
:104DB000E70EE35013E1E80EE35010E1E90EE35093
:104DC0000DE1EA0EE3500AE1EB0EE35007E1EC0ED1
:104DD000E35004E1ED0EE350D8B488D0FF0EE36A4F
:104DE00012D0D890E60EE336E70EE336E80EE3364F
:104DF000E90EE336EA0EE336EB0EE336EC0EE3366D
:104E0000ED0EE336FF0EE32AED0EE3AEEAD7D890BF
:104E1000F60EE336F70EE336F80EE336F90EE33618
:104E2000FA0EE336FB0EE336FC0EE336FD0EE336F8
:104E3000E150EE0FD96EE250DA6EFF0EDA22E60E86
:104E4000E350DE5CE70EE350DE58E80EE350DE5838
:104E5000E90EE350DE58EA0EE350DE58EB0EE35065
:104E6000DE58EC0EE350DE58ED0EE350DE58D8A0CD
:104E700021D0E150EE0FD96EE250DA6EFF0EDA2249
:104E8000E60EE350DE5EE70EE350DE5AE80EE35036
:104E9000DE5AE90EE350DE5AEA0EE350DE5AEB0E1C
:104EA000E350DE5AEC0EE350DE5AED0EE350DE5ACC
:104EB000F60EE380D890ED0EE332EC0EE332EB0E0B
:104EC000E332EA0EE332E90EE332E80EE332E70EB4
:104ED000E332E60EE332FF0EE350326E010E325E35
:104EE000FF0E6000CBF0E3FFD8A491D7FE0EE35095
:104EF000D8B425D0F60EE36CF70EE31EF80EE31ED1
:104F0000F90EE31EFA0EE31EFB0EE31EFC0EE31E7B
:104F1000FD0EE31E14E3F70EE32A11E3F80EE32A75
:104F20000EE3F90EE32A0BE3FA0EE32A08E3FB0E85
:104F3000E32A05E3FC0EE32A02E3FD0EE32AF60E64
:104F4000E124D96EFF0EE220DA6E080E326EEE0E0C
:104F50006F007BFFE3FFE828322EFAD7F60EE1263A
:104F6000FF0EE2221200090EE126000EE222FC0EE4
:104F7000E36AFD0EE36AFE0EE36AFF0EE36A11D0F8
:104F8000F50EE350010F326EF50E6000CBF0E3FF3B
:104F9000326AF60EE3503220326EF60E6000CBF02D
:104FA000E3FFFB0EE36AE32AE150F50FD96EE2500E
:104FB000DA6EFF0EDA226F007BFFF6FF6F0077FFDD
:104FC000F7FF000EF86E0800F550200AD8B423D081
:104FD000F70E3C6EFF0E3D6EE150F50FD96EE250BC
:104FE000DA6EFF0EDA226F007BFFF6FF6F0077FFAD
:104FF000F7FF000EF86E0800F5503A6E3B6A3C5021
:105000003A263D503B223B5004E1050E3A5CD8A0C5
:1050100002D0FB0EE36AFB0EE3503C6E3D6AF90ED4
:105020006000F3F0E3FFFA0E6000F7F0E3FFF90E23
:105030006F008CFF32F0FA0EE3503210D8B41FD05C
:105040009FD7010E3C6E000E3D6EFE0E6000F3F029
:10505000E3FFFF0E6000F7F0E3FFF50EE350010FF2
:10506000326EF50E6000CBF0E3FF326AF60EE350CD
:105070003220326EF60E6000CBF0E3FF53D0E150E9
:10508000F50FD96EE250DA6EFF0EDA226F007BFF69
:10509000F6FF6F0077FFF7FF000EF86E0800F5507F
:1050A0003C6E3D6A3D50000AD8A43CD03C502B0ACF
:1050B000D8B4D3D7060AD8B4C4D734D0FC0E6F0006
:1050C0008CFF3CF0FD0E6F008CFF3DF00A0E3C02A1
:1050D0006F00CCFF3AF06F00D0FF3BF03D02F35081
:1050E0003B26E150F50FD96EE250DA6EFF0EDA2260
:1050F0006F007BFFF6FF6F0077FFF7FF000EF86E83
:105100000800F5503A5E000E3B5A300E3A26000E6B
:105110003B22FC0E6000EBF0E3FFFD0E6000EFF0C1
:10512000E3FF9BD7D00E3C6EFF0E3D6EE150F50FB6
:10513000D96EE250DA6EFF0EDA226F007BFFF6FFC7
:105140006F0077FFF7FF000EF86E0800F5503A6E1B
:105150003B6A3C503A263D503B223B5006E10A0E4A
:105160003A5CD8B002D0010E01D0000E3C6E3D6A10
:10517000F70E6000F3F0E3FFF80E6000F7F0E3FFD6
:10518000F70E6F008CFF32F0F80EE3503210D8A407
:1051900095D7FE0E6F008CFF32F0FF0EE3503210F9
:1051A000D8A40ED0FC0E6F008CFF32F0321EFD0E24
:1051B0006F008CFF33F0331E322AD8B4332A08D064
:1051C000FC0E6F008CFF32F0FD0E6F008CFF33F091
:1051D000F50EE126FF0EE2221200E652E652FE0E26
:1051E000E36AFD0EE3AE28D0F60EE36CF70EE31E85
:1051F000F80EE31EF90EE31EFA0EE31EFB0EE31E8D
:10520000FC0EE31EFD0EE31E14E3F70EE32A11E38A
:10521000F80EE32A0EE3F90EE32A0BE3FA0EE32A73
:1052200008E3FB0EE32A05E3FC0EE32A02E3FD0E8E
:10523000E32AFE0EE36AE32AF50EE3AE25D0EE0E76
:10524000E36CEF0EE31EF00EE31EF10EE31EF20E12
:10525000E31EF30EE31EF40EE31EF50EE31E14E34D
:10526000EF0EE32A11E3F00EE32A0EE3F10EE32A38
:105270000BE3F20EE32A08E3F30EE32A05E3F40E50
:10528000E32A02E3F50EE32AEE0EE35016E1EF0EF9
:10529000E35013E1F00EE35010E1F10EE3500DE1A5
:1052A000F20EE3500AE1F30EE35007E1F40EE3508F
:1052B00004E1F50EE350D8B475D0FF0EE36A12D0C6
:1052C000D890EE0EE336EF0EE336F00EE336F10E35
:1052D000E336F20EE336F30EE336F40EE336F50E64
:1052E000E336FF0EE32AF50EE3AEEAD7E150F60F00
:1052F000D96EE250DA6EFF0EDA22EE0EE350DE5C7B
:10530000EF0EE350DE58F00EE350DE58F10EE3509E
:10531000DE58F20EE350DE58F30EE350DE58F40E82
:10532000E350DE58F50EE350DE58D8A01FD0E15010
:10533000F60FD96EE250DA6EFF0EDA22EE0EE3506F
:10534000DE5EEF0EE350DE5AF00EE350DE5AF10E51
:10535000E350DE5AF20EE350DE5AF30EE350DE5A0B
:10536000F40EE350DE5AF50EE350DE5AD890F50EF7
:10537000E332F40EE332F30EE332F20EE332F10ED7
:10538000E332F00EE332EF0EE332EE0EE332FF0EC5
:10539000E350326E010E325EFF0E6000CBF0E3FF91
:1053A000D8A4A4D7FE0EE350D8B425D0F60EE36CF3
:1053B000F70EE31EF80EE31EF90EE31EFA0EE31ECF
:1053C000FB0EE31EFC0EE31EFD0EE31E14E3F70EC0
:1053D000E32A11E3F80EE32A0EE3F90EE32A0BE3C6
:1053E000FA0EE32A08E3FB0EE32A05E3FC0EE32AA8
:1053F00002E3FD0EE32AF60EE124D96EFF0EE22051
:10540000DA6E080E326EF60E6F007BFFE3FFE828BF
:10541000322EFAD7E552E552120043ECBEF032507C
:10542000D8B4D0D095ECC2F03204D8B4CBD0DC0ED6
:10543000E66E050EE66E0B0EE66E25ECBEF0010183
:105440009BB35CECB1F0010EE66ED4ECC1F095ECD0
:10545000C2F03250E66E51ECC2F0010EE66E99ECED
:10546000C1F0FF0EE350D8B419D0C10EE66EFF0EA6
:10547000E66E1A0EE66EFF0EE66E010EE66E000E8A
:10548000E66E29ECBFF06000CBF0E6FF6000CFF0E5
:10549000E6FF060EE66E22ECB4F018D0D70EE66EEC
:1054A000FF0EE66E1A0EE66EFF0EE66E010EE66E5B
:1054B000000EE66E29ECBFF06000CBF0E6FF600066
:1054C000CFF0E6FF060EE66E22ECB4F001019B3948
:1054D000E832E832030B240D120EF326000EF422FC
:1054E0005F0E3C6EFE0E3D6EF3503C26F4503D22A6
:1054F0006000F3F0E6FF6000F7F0E6FFCD0EE66E29
:10550000FF0EE66E010EE66E010EE66E29ECBFF0B0
:105510006000CBF0E6FF6000CFF0E6FF060EE66E1F
:1055200022ECB4F001019B39E832E832030B240D80
:105530005F0E3C6EFE0E3D6EF3503C26F4503D2255
:105540006000F3F0E6FF6000F7F0E6FFCD0EE66ED8
:10555000FF0EE66E010EE66E020EE66E29ECBFF05F
:105560006000CBF0E6FF6000CFF0E6FF060EE66ECF
:1055700022ECB4F020EE9BF1DF383D6E3D323D3041
:10558000030B3D6E3D2A3D3A3D363D36DF503D181A
:105590003F0B3D18DF6EB80EE66E0B0EE66E090E81
:1055A000E66E25ECBEF0B80EE66E0B0EE66E070E4C
:1055B000E66E25ECBEF060ECC2F0010EE66E9BECF0
:1055C000B3F032D0090EE66E13ECC1F03250D8B40D
:1055D0002BD0000EE66ED4ECC1F001019B9599EC46
:1055E000C2F03250E66E99ECC1F0600057F6E6FF6B
:1055F00060005BF6E6FFFDECC1F00B0EE66E13EC0F
:10560000C1F03250D8B410D00101AA51D8A402D0B0
:10561000010E01D0000EAA6FDC0EE66E050EE66EDE
:105620000B0EE66E25ECBEF0E5521200050EE126EB
:10563000000EE222FA0EE350D8B41DD0F90EE3AE0C
:105640001AD0F60E6F008CFF3AF0F70E6F008CFF49
:105650003BF0F80E6F008CFF3CF0F90E6F008CFFF2
:105660003DF03A1E3B1E3C1E3D1E3A2A000E3B22D8
:105670003C223D2210D0F60E6F008CFF3AF0F70E60
:105680006F008CFF3BF0F80E6F008CFF3CF0F90EC2
:105690006F008CFF3DF0FB0E6000EBF0E3FFFC0EB3
:1056A0006000EFF0E3FFFD0E6000F3F0E3FFFE0E9D
:1056B0006000F7F0E3FFF60EE35013E1F70EE3505E
:1056C00010E1F80EE3500DE1F90EE350D8A409D033
:1056D000000E326E000E336E000E346E000E356E0C
:1056E000A2D0960E3D6EFF0E6000F7F0E3FF0BD0E8
:1056F000FF0EE32AD890FE0EE332FD0EE332FC0EDD
:10570000E332FB0EE332E150FB0FD96EE250DA6E6A
:10571000FF0EDA22DE52DE52DE52FE0EDD14D8B467
:1057200018D0E6D7FF0EE32AE150FB0FD96EE25006
:10573000DA6EFF0EDA22DE2A000EDE22DE22DE2202
:10574000D890FE0EE332FD0EE332FC0EE332FB0E88
:10575000E332E150FB0FD96EE250DA6EFF0EDA222F
:10576000DE52DE52DE52FF0EDD14D8B40CD0DAD792
:10577000FF0EE306D890FB0EE336FC0EE336FD0E7B
:10578000E336FE0EE336FD0EE3BE07D0FF0E6F00DC
:105790008CFF32F0020E3260EBD7FF0EE3B002D086
:1057A000FD0EE39EE150FF0FD96EE250DA6EFF0E60
:1057B000DA22D890DF32FF0E6F008CFF3DF06000E0
:1057C000F4F036F0376A386A396A6000D8F039F098
:1057D000386A376A366AE150FB0FD96EE250DA6EEA
:1057E000FF0EDA223650DE123750DE123850DE124B
:1057F0003950DE12FA0EE350D8B405D0F90EE3AEFC
:1058000002D0FE0EE38EFB0E6F008CFF32F0FC0E1A
:105810006F008CFF33F0FD0E6F008CFF34F0FE0E36
:105820006F008CFF35F0F60EE126FF0EE22212002B
:10583000E652E652E652E652FA0E6F008CFF3CF05A
:10584000FB0E6F008CFF3DF0FF0E6000F7F0E3FFF2
:10585000FE0E6000F3F0E3FFF80E6F008CFF3CF0EB
:10586000F90E6F008CFF3DF0FD0E6000F7F0E3FFD6
:10587000FC0E6000F3F0E3FFF60E6F008CFF32F0D9
