:020000040000FA
:0400000057EF00F0C6
:10000800F955F955F955F955F955F955F955F95578
:10001800D655F9554D54F955F955F955F955F95538
:10002800CE55E455EA55E755F955F955F955F955B9
:10003800F955F955F95523551955F955F955F955FE
:10004800F955F955F955F9552B00F955F955F9555B
:10005800DA55F955F955F955F955F955F955F95547
:10006800F955F95537552D55F955F955F955F955A6
:10007800F955F9552B00F955F955DE552B002B008C
:100088002B002B002B002B002B002B002153F955A4
:10009800B155F955F955F9552B002B002B002B00BC
:0E00A800F955F955FF0011EE6AF2C4EF9FF012
:10FDDC00005225642025642C2054256420256420A1
:10FDEC004325642020464742404D4348502025730C
:10FDFC0020202020202020202020202020202020F7
:10FE0C0020202020202020202020202020202020E6
:10FE1C0020202020202020202020202020202020D6
:10FE2C00202020202020202020202000204C6F6724
:10FE3C002066696C65207265736574202020202013
:10FE4C00202020202000205465726D696E616C208A
:10FE5C00256420202020202020202020202020006D
:10FE6C004C4F473A205525642047256420256420B3
:10FE7C002564202020202020230052256420256486
:10FE8C002C20542564202564204325642020202028
:10FE9C002020230020434D44202563202563204C43
:10FEAC00656E2025642020202020202000484F5300
:10FEBC00543A20256C6420472564202020202020E3
:10FECC002300205465726D696E616C202020202007
:10FEDC0020202020200020457175697020747970D5
:10FEEC0065202564202020202000205325644625F1
:10FEFC0064206C6F67676564202564202000536163
:10FF0C00766564205325644625642020202020201B
:10FF1C00002053746F7265642023256420202020F8
:10FF2C00202000205325644625642023256C642062
:10FF3C002020202000452564204125642054256480
:10FF4C0020472564202300205332463431202325BA
:10FF5C0063202020202020002048323534202564C6
:10FF6C002C2054256C642020002050696E6720479B
:10FF7C002564202050256420230020525649204817
:10FF8C004F53542054455354455200532564462531
:10FF9C006420457272202020200020464742404DAC
:10FFAC004348502046414234002053256446256482
:10FFBC0020232020202000205265616479204C4CA5
:10FFCC0020202020002056657273696F6E202573E7
:10FFDC0000204F4B20256400204F4B5125640031ED
:10FFEC002E313647004F4B20006C64006C690025A5
:03FFFC006300009F
:020000040001F9
:10000000E6526FECA7F0D28ED28C000E6F00A0FFEC
:10001000F7F32C0EE66E010EE66E4AECA8F0CBA0CC
:1000200004D0FF0EE36AE32A04D0FF0EE36AE38004
:10003000E382FF0EE304D8A404D0BD80BD8237EF75
:1000400084F0BD90BD9237EF84F0C0ECA0F00C0EB0
:10005000E66EA4ECABF0FF0E6F008CFF43F0600087
:100060000CF1F7F3000E6F00A0FFF6F3A50EE66E9D
:10007000070EE66E80ECA8F0860EE66EFF0EE66ECA
:10008000FD0EE66E030EE66E040EE66E3FEC9FF08C
:10009000FD0EE66E030EE66E000EE66E000EE66ED8
:1000A00010EC9AF0EB0EE66EFF0EE66ED10EE66EE9
:1000B000FF0EE66EFD0EE66E030EE66E060EE66EB3
:1000C0003FEC9FF0FD0EE66E030EE66E000EE66E50
:1000D000010EE66E10EC9AF0A60EE66EFF0EE66ECE
:1000E000FD0EE66E030EE66E040EE66E3FEC9FF02C
:1000F000FD0EE66E030EE66E000EE66E020EE66E76
:1001000010EC9AF0B80EE66E0B0EE66E4AECA8F014
:10011000C4D3000E6F00A0FFFBF3000E6F00A0FF22
:10012000FCF3010E6F00A0FFF6F36100AFF4E8FFEF
:100130000A0AD8A485D16100B3F4E8FF0A0AD8A45A
:100140007FD121EE3AF1DFAC1FD021EE25F16F0017
:100150007BFFE6FF6F007BFFE6FF6F007BFFE6FFA4
:100160006F007BFFE6FF010EE66E010EE66E640E89
:10017000E66EFF0EE66EFD0EE66E030EE66E0A0EEE
:10018000E66E3FEC9FF020D020EEF8F3DF50E66EF5
:10019000000EE66E21EE1DF16F007BFFE6FF6F00A3
:1001A0007BFFE6FF6F007BFFE6FF6F007BFFE6FF54
:1001B000B90EE66EFE0EE66EFD0EE66E030EE66E00
:1001C0000A0EE66E3FEC9FF0000E6F00A0FF0DF4EC
:1001D000FD0EE66E030EE66E000EE66E020EE66E95
:1001E00010EC9AF02DD1FB0EE66E030EE66ED1EC0C
:1001F0008CF0040E3818D8A460D06100A7F4E8FF92
:10020000090AD8A41BD02AC52DF521EE2AF1DF500A
:10021000E66E000EE66E21EE29F1DF50E66E000E6E
:10022000E66E970EE66EFF0EE66EFD0EE66E030EB0
:10023000E66E080EE66E3FEC9FF01CD0000E6F00DD
:10024000A0FF2DF521EE2AF1DF50E66E000EE66EDE
:1002500021EE29F1DF50E66E000EE66EB50EE66E79
:10026000FF0EE66EFD0EE66E030EE66E080EE66EFF
:100270003FEC9FF0000E6F00A0FF08F4FD0EE66E4D
:10028000030EE66E000EE66E000EE66E10EC9AF0BF
:1002900021EE39F1DFA20DD0020E6F00A0FFF6F3C0
:1002A00021EE39F1870EDF16000E6F00A0FFFCF380
:1002B00004D0030E6F00A0FFF6F36000EFFFE8FF2D
:1002C00011D0FC0EE66E030EE66EDEEC90F0040E2E
:1002D0003818D8A404D0030E6F00A0FFF6F3600016
:1002E000F3FFE8FF060AD8A4ABD0060E45D021EEF6
:1002F0003AF1DFA81FD0000E6F00A0FFFBF3000E45
:100300006F00A0FFFCF3020E6F00A0FFF6F320EEDB
:10031000F9F3DF50E66E000EE66EE40EE66EFF0EB9
:10032000E66EFD0EE66E030EE66E060EE66E3FEC22
:100330009FF016D0050E6F00A0FFF6F320EEF9F344
:10034000DF50E66E000EE66EDD0EE66EFF0EE66E28
:10035000FD0EE66E030EE66E060EE66E3FEC9FF0B7
:10036000FD0EE66E030EE66E0B0EE66E000EE66EFA
:1003700010EC9AF065D0000E6F00A0FFF6F360D08D
:10038000000E6F00A0FFF6F320EEF8F3DF50E66EEC
:10039000000EE66E21EE35F16F0078FF42F06F003F
:1003A00074FF43F060000BF1E6FF60000FF1E6FF21
:1003B00021EE2CF1DF50E66E000EE66E21EE2BF101
:1003C000DF50E66E000EE66E410EE66EFF0EE66E44
:1003D000FD0EE66E030EE66E0C0EE66E3FEC9FF031
:1003E000000E6F00A0FF0DF4FD0EE66E030EE66E2C
:1003F000000EE66E020EE66E10EC9AF0D00EE66E7F
:10040000070EE66E4AECA8F01BD020EEF6F3DF50A4
:10041000426E436A4350000AD8A4B2D74250000A41
:10042000D8B477D6010AD8B4DED6030AD8B449D7EF
:10043000010AD8B45CD7060AD8B49DD7030AA0D75E
:100440006100AFF4E8FF0A0AD8A427D26100B3F430
:10045000E8FF0A0AD8A421D221EE3AF1DFAC1FD07E
:1004600021EE25F16F007BFFE6FF6F007BFFE6FFCB
:100470006F007BFFE6FF6F007BFFE6FF010EE66E7D
:10048000010EE66E640EE66EFF0EE66EFD0EE66E83
:10049000030EE66E0A0EE66E3FEC9FF020D020EED3
:1004A000F8F3DF50E66E000EE66E21EE1DF16F00F0
:1004B0007BFFE6FF6F007BFFE6FF6F007BFFE6FF41
:1004C0006F007BFFE6FFB90EE66EFE0EE66EFD0ED8
:1004D000E66E030EE66E0A0EE66E3FEC9FF0000E2F
:1004E0006F00A0FF0DF4FD0EE66E030EE66E000E2B
:1004F000E66E020EE66E10EC9AF06000E3FFE8FF95
:10050000040AD8A406D06000DBFFE8FF010AD8B4D3
:1005100004D021EE3AF1DFAAC0D1060EE66E81ECDE
:10052000AAF03850D8A404D021EE3AF1DFAAB5D110
:10053000300EE66E750EE66E060EE66E2CECA8F03A
:1005400093ECA6F021EE3AF1DFBA34D021EE37F188
:100550006F0078FF42F06F0074FF43F060000BF112
:10056000E6FF60000FF1E6FF20EEF8F3DF50E66EE5
:10057000000EE66E750EE66EFF0EE66EFD0EE66E82
:10058000030EE66E080EE66E3FEC9FF0000E6F0065
:10059000A0FF0DF4FD0EE66E030EE66E000EE66E95
:1005A000000EE66E10EC9AF0E80EE66E030EE66EB4
:1005B0004AECA8F0000E6F00A0FF2DF521EE3AF1F5
:1005C000DF9A6BD1000E6F00A0FFFAF3010E6F00EF
:1005D000A0FFF6F321EE3AF1DFAC1FD021EE25F1BA
:1005E0006F007BFFE6FF6F007BFFE6FF6F007BFF86
:1005F000E6FF6F007BFFE6FF010EE66E010EE66E82
:10060000640EE66EFF0EE66EFD0EE66E030EE66EFF
:100610000A0EE66E3FEC9FF034D021EE33F16F000E
:1006200078FF42F06F0074FF43F060000BF1E6FFCB
:1006300060000FF1E6FF21EE35F16F0078FF42F028
:100640006F0074FF43F060000BF1E6FF60000FF1F4
:10065000E6FF20EEF8F3DF50E66E000EE66E21EEC8
:1006600067F1DF50E66E000EE66E6C0EE66EFE0E73
:10067000E66EFD0EE66E030EE66E0C0EE66E3FECC9
:100680009FF0000E6F00A0FF0DF4FD0EE66E030E4E
:10069000E66E000EE66E020EE66E10EC9AF088D062
:1006A000FA0EE66E030EE66ED0EC84F0040E3818F7
:1006B000D8A43BD021EE1DF16F007BFFE6FF6F0059
:1006C0007BFFE6FF6F007BFFE6FF6F007BFFE6FF2F
:1006D00021EE2AF1DF50E66E000EE66E21EE29F1E2
:1006E000DF50E66E000EE66E2F0EE66EFF0EE66E33
:1006F000FD0EE66E030EE66E0C0EE66E3FEC9FF00E
:10070000000E6F00A0FF0AF4FD0EE66E030EE66E0B
:10071000000EE66E61009CF543F04304E66E10ECBB
:100720009AF0030E6F00A0FFF6F36000EBFFE8FF06
:10073000060AD8A43DD0060E1FD0050E6F00A0FFFC
:10074000F6F3F10EE66EFF0EE66EFD0EE66E030E9C
:10075000E66E040EE66E3FEC9FF0FD0EE66E030EB5
:10076000E66E0D0EE66E61009CF543F04304E66E06
:1007700010EC9AF01DD0000E6F00A0FFF6F318D019
:1007800020EEF6F3DF50426E436A4350000AD8A4CD
:10079000F2D74250000AD8B415D7010AD8B480D78E
:1007A000020AD8B4CAD7060AD8B4E5D7030AE3D7F1
:1007B00021EE3AF1DFAC13D020EEF9F3DF50E66E14
:1007C000000EE66EE20EE66EFE0EE66EFD0EE66EC4
:1007D000030EE66E060EE66E3FEC9FF034D021EE7F
:1007E00033F16F0078FF42F06F0074FF43F0600058
:1007F0000BF1E6FF60000FF1E6FF21EE35F16F002F
:1008000078FF42F06F0074FF43F060000BF1E6FFE9
:1008100060000FF1E6FF20EEF8F3DF50E66E000E09
:10082000E66E21EE67F1DF50E66E000EE66E6C0EAE
:10083000E66EFE0EE66EFD0EE66E030EE66E0C0E26
:10084000E66E3FEC9FF0000E6F00A0FF0DF4FD0E72
:10085000E66E030EE66E000EE66E020EE66E10EC1D
:100860009AF01BD0000E6F00A0FFF7F316D020EE19
:10087000F7F3DF50426E436A4350000AD8A4F2D720
:100880004250000AD8B425EF80F0010AD8B4BDD593
:10089000020AD8B475D7070AE5D721EE1DF1DE505C
:1008A000DE10DE10DE10D8B42ED021EE3AF1DF508B
:1008B0000F0B0009D8B40BD0BD98BD8A6100AFF40E
:1008C000E8FF0F0AD8A407D0BF98BF8A04D0BD881C
:1008D000BD9ABF88BF9A21EE39F1DF30E832E832A5
:1008E0000F0B0009D8B40BD0BD9CBD8E6100AFF4D6
:1008F000E8FF0F0AD8A407D0BF9CBF8E04D0BD8CE0
:10090000BD9EBF8CBF9E21EE33F16F0078FF42F099
:100910006F0074FF43F060000BF1E6FF60000FF121
:10092000E6FF21EE39F1DF30E832E8320F0BE66EF8
:10093000000EE66E20EEFCF3DF50E66E000EE66E73
:1009400021EE3AF1DF500F0BE66E000EE66E20EE60
:10095000FBF3DF50E66E000EE66E860EE66EFE0ED0
:10096000E66EFD0EE66E030EE66E0E0EE66E3FECD4
:100970009FF0000E6F00A0FF0DF4FF0E6F008CFFC4
:1009800038F0030E3818D8B472D7FD0EE66E030E99
:10099000E66E000EE66E010EE66E10EC9AF067D77A
:1009A000E65206D3E5ECABF03850D8B428D00DECC5
:1009B000A8F0FF0E6000E3F0E3FFFF0E6F008CFF76
:1009C00038F0050E3818D8A41AD0010E6F00A0FF19
:1009D00067F5D00EE66E070EE66E020EE66E2CECA4
:1009E000A8F00A0E6F00A0FF2BF5FD0E6F008FFF21
:1009F000D9FFFE0E6F008FFFDAFF010EDF6EE1EC14
:100A0000ABF03850D8B4F9D2EEECA7F0FF0E60008E
:100A1000E3F0E3FFFF0E6F008CFF38F0050E38188F
:100A2000D8A4EBD2020E6F00A0FF67F5D00EE66EE1
:100A3000070EE66E020EE66E2CECA8F00A0E6F00B2
:100A4000A0FF2BF5FD0E6F008FFFD9FFFE0E6F008C
:100A50008FFFDAFF010EAAD22A6A020EE66E81EC3F
:100A6000AAF03850D8B419D00C0E6F00A0FF2BF5A7
:100A700021EE35F1DE2A000EDD2221EE3AF1DF50C3
:100A8000F00B0209DF6EFD0E6F008FFFD9FFFE0E27
:100A90006F008FFFDAFF050E89D261009FF5E8FF36
:100AA000020AD8A429D0E5ECABF03850D8B424D051
:100AB0000DECA8F0FF0E6000E3F0E3FFFF0E6F0007
:100AC0008CFF38F0040E3818D8A416D0D00EE66E7D
:100AD000070EE66E020EE66E2CECA8F00A0E6F0012
:100AE000A0FF2BF5FD0E6F008FFFD9FFFE0E6F00EC
:100AF0008FFFDAFF020EDF6E61009FF5E8FF010A4B
:100B0000D8A47BD2E1ECABF03850D8B476D2EEEC7E
:100B1000A7F0FF0E6000E3F0E3FFFF0E6F008CFF15
:100B200038F0040E3818D8A468D2D00EE66E070E3E
:100B3000E66E020EE66E2CECA8F00A0E6F00A0FF27
:100B40002BF5FD0E6F008FFFD9FFFE0E6F008FFF9C
:100B5000DAFF020E2BD2020EE66E81ECAAF03850BC
:100B6000D8A482D761009FF5E8FF010AD8A4D2D0AB
:100B7000E5ECABF03850D8B4CDD00DECA8F0FF0EBA
:100B80006000E3F0E3FF2A50D8A418D0FF0E6F00F6
:100B90008CFFCCF0010EE66E000EE66E06ECA9F0BE
:100BA0002A2A2A506A08D96E000ED8A0E82A060818
:100BB000DA6EFF0E6F008FFFDFFFACD00B0E2A60E6
:100BC0000CD02A501908D96E000ED8A0E82A0108C6
:100BD000DA6EFF0E6F008FFFDFFF2A500001CC5D41
:100BE000D8A00DD0000EE66EFE0EE350E66E06ECC9
:100BF000A9F06000E0F02FF56000E4F030F52A5035
:100C0000426E436A0001CC51406E416A010E40269B
:100C1000000E41224250401809E143504118D8A427
:100C200005D0FF0EE35001010E6F0D6B2A50426E8E
:100C3000436A0001CC51406E416A020E4026000E0C
:100C40004122425040180AE143504118D8A406D02E
:100C5000FF0EE35001010D27000E0E232A2A2A5011
:100C60006A08D96E000ED8A0E82A0608DA6EFF0ED0
:100C70006F008FFFDFFF2A50426E436A0001CC51A4
:100C8000406E416A020E4026000E41224250405CF6
:100C90004150800A386E4350800A3858D8B03AD054
:100CA00021EE2FF101010D51DE1810E10E51DE1879
:100CB000D8A40CD0FD0E6F008FFFD9FFFE0E6F0081
:100CC0008FFFDAFF030E25D00DECA8F0E5ECABF0BA
:100CD0003850D8A4F9D7F40EE66E010EE66E4AEC51
:100CE000A8F00F0E6F00A0FF2BF521EE33F1DE2AE6
:100CF000000EDD2221EE3AF1DF50F00B0309DF6E2A
:100D0000FD0E6F008FFFD9FFFE0E6F008FFFDAFF21
:100D1000050EDF6E61009FF5E8FF020AD8A46DD1D1
:100D2000E1ECABF03850D8B468D1EEECA7F0FF0E90
:100D30006000E3F0E3FF2A50D8A418D0FF0E6F0044
:100D40008CFFCCF0010EE66E000EE66E06ECA9F00C
:100D50002A2A2A506A08D96E000ED8A0E82A060866
:100D6000DA6EFF0E6F008FFFDFFF47D10B0E2A6098
:100D70000CD02A501908D96E000ED8A0E82A010814
:100D8000DA6EFF0E6F008FFFDFFF2A500001CC5D8F
:100D9000D8A00DD0000EE66EFE0EE350E66E06EC17
:100DA000A9F06000E0F02FF56000E4F030F52A5083
:100DB000426E436A0001CC51406E416A010E4026EA
:100DC000000E41224250401809E143504118D8A476
:100DD00005D0FF0EE35001010E6F0D6B2A50426EDD
:100DE000436A0001CC51406E416A020E4026000E5B
:100DF0004122425040180AE143504118D8A406D07D
:100E0000FF0EE35001010D27000E0E232A2A2A505F
:100E10006A08D96E000ED8A0E82A0608DA6EFF0E1E
:100E20006F008FFFDFFF2A50426E436A0001CC51F2
:100E3000406E416A020E4026000E41224250405C44
:100E40004150800A386E4350800A3858D8B0D5D007
:100E500021EE2FF101010D51DE1810E10E51DE18C7
:100E6000D8A40CD0FD0E6F008FFFD9FFFE0E6F00CF
:100E70008FFFDAFF030E9AD0EEECA7F0E1ECABF0B7
:100E80003850D8A4F9D7F40EE66E010EE66E4AEC9F
:100E9000A8F00F0E6F00A0FF2BF521EE33F1DE2A34
:100EA000000EDD2221EE3AF1DF50F00B0409EAD505
:100EB000010116517F0B436E60000CF129F521EE04
:100EC0002AF1600057F4DFFF20EE0FF16F0078FF8A
:100ED00021F56F0078FF22F56F0078FF23F56F0092
:100EE00074FF24F521EE39F118BF02D0DF9001D054
:100EF000DF8021EE39F1010116BF02D0DF9201D06F
:100F0000DF8221EE39F1010114BF02D0DF9401D05C
:100F1000DF8421EE3AF1F00EDF16E80EE66E030EE6
:100F2000E66E21EE2AF1DF50E66E21EE29F1DF5068
:100F3000E66E8CEC9DF021EE2AF1DF50E66E21EE9C
:100F400029F1DF50E66EECEC9CF06000E0F0F8F385
:100F5000FD0E6F008FFFD9FFFE0E6F008FFFDAFFCF
:100F6000040E24D0FD0E6F008FFFD9FFFE0E6F0020
:100F70008FFFDAFF060EDF6E02D00DECA8F03250C4
:100F8000D8B403D0FAD7EEECA7F02C50D8B435D0B3
:100F9000FAD721EE3AF1F00EDF16FD0E6F008FFF4B
:100FA000D9FFFE0E6F008FFFDAFF000EDF6E25D037
:100FB000FD0E6F008FFFD9FFFE0E6F008FFFDAFF6F
:100FC000DF50426E436A4350000AD8A4E6D742502D
:100FD000000AD8B4E7D4010AD8B43ED5030AD8B47D
:100FE000BAD5010AD8B464D7070AD8B4D2D7010A4F
:100FF000D8B4B8D7030AD8A4D0D7FD0E6F008FFF9E
:10100000D9FFFE0E6F008FFFDAFFDF50386EE5521A
:10101000E552E55212000B0EE126000EE222F10E1F
:101020006F008FFFD9FFF20E6F008FFFDAFF6F00A6
:101030007BFFF6FF6F0077FFF7FF000EF86E0800EA
:10104000F550250AD8A43ED2F10E6F008FFFD9FFCC
:10105000F20E6F008FFFDAFFDE2A000EDD22176A24
:10106000186A1B6A1C6A19681A68F10E6F008FFFF4
:10107000D9FFF20E6F008FFFDAFF6F007BFFF6FFE4
:101080006F0077FFF7FF000EF86E0800F550630A57
:10109000D8A436D0F10E6F008FFFD9FFF20E6F008B
:1010A0008FFFDAFFDE2A000EDD22EF0E6F008FFFCA
:1010B000D9FFF00E6F008FFFDAFF020EDE5E000E2A
:1010C000DD5A6F0078FF42F06F0074FF43F060005C
:1010D0000BF1D9FF60000FF1DAFFDF50436EFF0E16
:1010E00060000FF1E3FFFF0EE350E66EF20E6F00BB
:1010F0008FFFE6FF6F008FFFE6FF40ECA4F00CD2FD
:10110000F10E6F008FFFD9FFF20E6F008FFFDAFF35
:101110006F007BFFF6FF6F0077FFF7FF000EF86EA2
:101120000800F550640AD8B415D0F10E6F008FFF97
:10113000D9FFF20E6F008FFFDAFF6F007BFFF6FF23
:101140006F0077FFF7FF000EF86E0800F550690A90
:10115000D8A475D0F10E6F008FFFD9FFF20E6F008B
:101160008FFFDAFFDE2A000EDD22EF0E6F008FFF09
:10117000D9FFF00E6F008FFFDAFF020EDE5E000E69
:10118000DD5A6F0078FF42F06F0074FF43F060009B
:101190000BF1D9FF60000FF1DAFF6F0078FF42F02A
:1011A0006F0074FF43F0F50E60000BF1E3FFF60EE5
:1011B00060000FF1E3FF386AE3BE3868F70E6000A5
:1011C000E3F0E3FFF80E6000E3F0E3FFF90E6000E8
:1011D000E3F0E3FFFA0E6000E3F0E3FFFB0E6000D4
:1011E000E3F0E3FFFC0E6000E3F0E3FFE150F50FF6
:1011F000D96EE250DA6EFF0EDA226F007BFFE6FF57
:101200006F007BFFE6FF6F007BFFE6FF6F007BFF59
:10121000E6FF6F007BFFE6FF6F007BFFE6FF6F00DE
:101220007BFFE6FF6F007BFFE6FFEB0E6F008FFF9B
:10123000E6FF6F008FFFE6FF91EC8AF06DD1020EA2
:10124000E66E000EE66EF50EE66EFF0EE66EED0E35
:101250006F008FFFD9FFEE0E6F008FFFDAFF6F0078
:1012600078FF42F06F0074FF43F060000BF1E6FF7F
:1012700060000FF1E6FF2EEC9BF038503910D8B427
:1012800022D0020EE66E000EE66EF80EE66EFF0E3F
:10129000E66EED0E6F008FFFD9FFEE0E6F008FFF31
:1012A000DAFF6F0078FF42F06F0074FF43F06000D8
:1012B0000BF1E6FF60000FF1E6FF2EEC9BF03850DB
:1012C0003910D8A469D0F10E6F008FFFD9FFF20E4C
:1012D0006F008FFFDAFF020EDE26000EDD22EF0E1A
:1012E0006F008FFFD9FFF00E6F008FFFDAFF040E43
:1012F000DE5E000EDD5A6F0078FF42F06F0074FF73
:1013000043F060000BF1D9FF60000FF1DAFF6F00CE
:1013100078FF40F06F0078FF41F06F0078FF42F0F7
:101320006F0078FF43F0600000F148F0600004F1C6
:1013300049F0600008F14AF060000CF14BF04C6A93
:101340004BBE4C68600030F14DF0600030F14EF063
:10135000600030F14FF0F50E600023F1E3FFF60E70
:10136000600027F1E3FFF70E60002BF1E3FFF80EBA
:1013700060002FF1E3FFF90E600033F1E3FFFA0E96
:10138000600037F1E3FFFB0E60003BF1E3FFFC0E72
:1013900060003FF1E3FF2AD7F10E6F008FFFD9FF06
:1013A000F20E6F008FFFDAFF6F007BFFF6FF6F001A
:1013B00077FFF7FF000EF86E0800F550730AD8A407
:1013C00042D0F10E6F008FFFD9FFF20E6F008FFF3A
:1013D000DAFFDE2A000EDD22EF0E6F008FFFD9FF4D
:1013E000F00E6F008FFFDAFF020EDE5E000EDD5A98
:1013F0006F0078FF42F06F0074FF43F060000BF164
:10140000D9FF60000FF1DAFF6F0078FF42F06F0044
:1014100074FF43F0FE0E60000FF1E3FFFD0E60006D
:101420000BF1E3FFFD0E6F008FFFE6FF6F008FFFF4
:10143000E6FFF10E6F008FFFE6FF6F008FFFE6FF04
:10144000D9EC93F069D0F10E6F008FFFD9FFF20E47
:101450006F008FFFDAFF6F007BFFF6FF6F0077FFF3
:10146000F7FF000EF86E0800F550250AD8A41AD030
:10147000F10E6F008FFFD9FFF20E6F008FFFDAFFC2
:10148000DE2A000EDD22F30E6F008FFFE6FF6F00F5
:101490008FFFE6FF250EE66E000EE66E23EC9EF053
:1014A000010E0CD0F10E6F008FFFD9FFF20E6F000E
:1014B0008FFFDAFFDE2A000EDD22000E386E000EEE
:1014C000396E2AD0F30E6F008FFFE6FF6F008FFF9B
:1014D000E6FFEF0E6F008FFFD9FFF00E6F008FFF5A
:1014E000DAFF6F007BFFF6FF6F0077FFF7FF000E5C
:1014F000F86E0800F550E66E000EE66E23EC9EF0E6
:10150000F10E6F008FFFD9FFF20E6F008FFFDAFF31
:10151000DE2A000EDD22C4D7EF0EE126FF0EE22206
:101520001200120EE126000EE222E40EE124D96E32
:10153000FF0EE220DA6E080E386EF00E6F007BFFB1
:10154000E3FFE828382EFAD7F70EE3AE02D0010EFB
:1015500001D0000E426E436AFA0E60000BF1E3FF09
:10156000FB0E60000FF1E3FFFA0E6F008CFF38F006
:10157000FB0EE3503810D8B425D0F00EE36CF10E1A
:10158000E31EF20EE31EF30EE31EF40EE31EF50E51
:10159000E31EF60EE31EF70EE31E14E3F10EE32A3C
:1015A00011E3F20EE32A0EE3F30EE32A0BE3F40E4B
:1015B000E32A08E3F50EE32A05E3F60EE32A02E345
:1015C000F70EE32A1AAE1B921ABE05D01A5010E18C
:1015D0001904D8B00DD0010E426E000E436EFE0EFF
:1015E00060000BF1E3FFFF0E60000FF1E3FF08D096
:1015F000FE0E600067F0E3FFFF0E60006BF0E3FF9C
:10160000FC0E60005FF0E3FFFD0E600063F0E3FF9F
:10161000FA0E6F008CFF38F0FB0EE3503810D8A4A0
:1016200002D01BA40AD0E150FC0FD96EE250DA6E52
:10163000FF0EDA22DE06000EDD5A1F0E426E000E8D
:10164000436EF80E60000BF1E3FFF90E60000FF13E
:10165000E3FF0101F56B09D1E150F80FD96EE250BB
:10166000DA6EFF0EDA22DE06000EDD5A0A0EE66E94
:10167000000EE66E000EE66E000EE66E000EE66EE2
:10168000000EE66E000EE66E000EE66EE150E80F0C
:10169000D96EE250DA6EFF0EDA226F007BFFE6FFB2
:1016A0006F007BFFE6FF6F007BFFE6FF6F007BFFB5
:1016B000E6FF6F007BFFE6FF6F007BFFE6FF6F003A
:1016C0007BFFE6FF6F007BFFE6FFF0EC98F0E55252
:1016D0006F009CFF4FF0E5526F009CFF4EF0E5520B
:1016E0006F009CFF4DF0E5526F009CFF4CF0E552FF
:1016F0006F009CFF4BF0E5526F009CFF4AF0E552F3
:101700006F009CFF49F0E5526F009CFF48F0F80E17
:10171000E126FF0EE222600020F142F0600024F199
:1017200043F060000BF1E6FF60000FF1E6FF29ECEB
:10173000A7F0300E3826F80E6F008CFF42F0F90E3D
:101740006F008CFF43F0D60E4224D96E010E432069
:10175000DA6E6000E3F0DFFFE150FE0FD96EE25079
:10176000DA6EFF0EDA22DE06000EDD5AE150FC0FC3
:10177000D96EE250DA6EFF0EDA22DE06000EDD5A76
:101780000A0EE66E000EE66E000EE66E000EE66EC7
:10179000000EE66E000EE66E000EE66E000EE66EC1
:1017A000E150E80FD96EE250DA6EFF0EDA226F00D8
:1017B0007BFFE6FF6F007BFFE6FF6F007BFFE6FF2E
:1017C0006F007BFFE6FF6F007BFFE6FF6F007BFF94
:1017D000E6FF6F007BFFE6FF6F007BFFE6FF38EC64
:1017E00095F0E5526F009CFF4FF0E5526F009CFFB3
:1017F0004EF0E5526F009CFF4DF0E5526F009CFFEC
:101800004CF0E5526F009CFF4BF0E5526F009CFFDF
:101810004AF0E5526F009CFF49F0E5526F009CFFD3
:1018200048F0F80EE126FF0EE222F00E600023F1F0
:10183000E3FFF10E600027F1E3FFF20E60002BF1F1
:10184000E3FFF30E60002FF1E3FFF40E600033F1CD
:10185000E3FFF50E600037F1E3FFF60E60003BF1A9
:10186000E3FFF70E60003FF1E3FFF90EE3BE36D071
:10187000F90EE35004E1F80EE304D8A02FD0F00EE7
:10188000E35015E1F10EE35012E1F20EE3500FE1E7
:10189000F30EE3500CE1F40EE35009E1F50EE350D2
:1018A00006E1F60EE35003E1F70EE350D8A4D4D6D8
:1018B000FF0EE3BE07D0FF0EE35003E1FE0EE3048C
:1018C000D8B0CAD6FD0EE3BE09D0FD0EE35004E148
:1018D000FC0EE304D8A002D01BB2BED6FA0E6F00F5
:1018E0008CFF38F0FB0EE3503810D8A402D01BA4B4
:1018F00033D0E150F80FD96EE250DA6EFF0EDA22E3
:10190000DE06000EDD5AFA0E6F008CFF38F0FB0E7B
:10191000E3503810D8A402D02B0E01D02D0E426E09
:10192000000E436EEE0E60000BF1E3FFEF0E600061
:101930000FF1E3FFF80E6F008CFF42F0F90E6F001D
:101940008CFF43F0D60E4224D96E010E4320DA6E8E
:10195000EE0E6F008FFFDFFFFC0E6F008FFFE6FFC4
:101960006F008FFFE6FFD60E426E010E436EF60E3D
:10197000E3504226F70EE350432260000BF1E6FFEE
:1019800060000FF1E6FFE80E6F008FFFE6FF6F00CB
:101990008FFFE6FFB5EC9EF0E40EE126FF0EE2229B
:1019A0001200E652E4D1E5ECABF03850D8B404D2E2
:1019B0000DECA8F0FF0E6000E3F0E3FFFF0E6F00F8
:1019C0008CFF38F0050E3818D8A4F6D1BEA402D08A
:1019D000010E01D0000EFF0A436E43464346BE503F
:1019E0004318FB0B4318BE6E0A0E6F00A0FF2BF5C9
:1019F000FD0E6F008FFFD9FFFE0E6F008FFFDAFF25
:101A0000010E97D1296A010E5C6E690E1D6E050EDE
:101A10001E6E040EE66ECFECA7F0D00EE66E070E3B
:101A2000E66E020EE66E2CECA8F0FD0E6F008FFF46
:101A3000D9FFFE0E6F008FFFDAFF020E7AD1020E81
:101A4000E66E81ECAAF03850D8B427D021EE35F1FB
:101A5000DE2A000EDD225D065D28D8A414D00C0E0F
:101A60006F00A0FF2BF521EE3AF1DF50F00B0109DA
:101A7000DF6EFD0E6F008FFFD9FFFE0E6F008FFF30
:101A8000DAFF050E56D1FD0E6F008FFFD9FFFE0E57
:101A90006F008FFFDAFF000E4CD1E5ECABF0385051
:101AA000D8B48AD10DECA8F0FF0E6000E3F0E3FF9C
:101AB0002950D8A41CD0FF0E6F008CFFCCF0010E73
:101AC000E66E000EE66E06ECA9F0292A29501D5C90
:101AD000426E000E1E58436E010E4224D96E010E56
:101AE0004320DA6EFF0E6F008FFFDFFF65D10B0E14
:101AF00029600CD029501908D96E000ED8A0E82A08
:101B00000108DA6EFF0E6F008FFFDFFF110E5C60C1
:101B10001CD02950426E436A5C50406E416A0A0EE6
:101B20004026000E4122425040180FE14350411818
:101B3000D8A40BD03A0E5C24D96EDA6A050EDA22EC
:101B4000FF0E6F008FFFDFFF5C2A29500001CC5D84
:101B5000D8A00DD0000EE66EFE0EE350E66E06EC49
:101B6000A9F06000E0F02FF56000E4F030F52950B6
:101B7000426E436A0001CC51406E416A010E40261C
:101B8000000E41224250401809E143504118D8A4A8
:101B900005D0FF0EE35001010E6F0D6B2950426E10
:101BA000436A0001CC51406E416A020E4026000E8D
:101BB0004122425040180AE143504118D8A406D0AF
:101BC000FF0EE35001010D27000E0E23292A295094
:101BD0001D5C426E000E1E58436E010E4224D96EEB
:101BE000010E4320DA6EFF0E6F008FFFDFFF2950DA
:101BF000426E436A0001CC51406E416A020E40269B
:101C0000000E41224250405C4150800A386E4350E1
:101C1000800A3858D8B0D0D021EE2FF101010D51F3
:101C2000DE1810E10E51DE18D8A40CD0FD0E6F00A6
:101C30008FFFD9FFFE0E6F008FFFDAFF030E79D002
:101C40000DECA8F0E5ECABF03850D8A4F9D7F40EC1
:101C5000E66E010EE66E4AECA8F00F0E6F00A0FFD4
:101C60002BF521EE33F1DE2A000EDD2221EE3AF1D2
:101C7000DF50F00B0209FCD6010116517F0B436EB9
:101C800060000CF129F521EE2AF1600057F4DFFF26
:101C900020EE0FF16F0078FF21F56F0078FF22F53D
:101CA0006F0078FF23F56F0074FF24F521EE39F102
:101CB00018BF02D0DF9001D0DF8021EE39F10101A1
:101CC00016BF02D0DF9201D0DF8221EE39F101018F
:101CD00014BF02D0DF9401D0DF84F40EE66E010E53
:101CE000E66E21EE2AF1DF50E66E21EE29F1DF509B
:101CF000E66E8CEC9DF021EE2AF1DF50E66E21EECF
:101D000029F1DF50E66EECEC9CF06000E0F0F8F3B7
:101D1000060EE66ECFECA7F021EE3AF1F00EDF16DC
:101D2000FD0E6F008FFFD9FFFE0E6F008FFFDAFFF1
:101D3000040EDF6E41D0150EE66ECFECA7F0FD0E5F
:101D40006F008FFFD9FFFE0E6F008FFFDAFF060EC8
:101D5000DF6E02D00DECA8F03250D8A4FBD7030EF2
:101D60005D6E2AD021EE3AF1F00EDF168CD6FD0E14
:101D70006F008FFFD9FFFE0E6F008FFFDAFFDF507D
:101D8000426E436A4350000AD8A47DD64250000AEE
:101D9000D8B409D6010AD8B435D6030AD8B44FD678
:101DA000010AD8B469D7070AD8B4DCD7010AD8B475
:101DB000C2D7030AD8A467D6FD0E6F008FFFD9FFE4
:101DC000FE0E6F008FFFDAFFDF50386EE552E552EE
:101DD000E5521200070EE126000EE222FE0EE36A33
:101DE000FF0EE36A0A0E6F00A0FF2CF521EE3AF118
:101DF000DF980790B9D19B0E016E010E026E0F0E97
:101E0000036E21C59FF122C5A0F123C5A1F124C510
:101E1000A2F11DC502F11EC503F11FC504F120C5C5
:101E200005F10780000E046E010E056E0D0E066EA4
:101E300021EE3AF1DF88B4D1000E016E010E026E80
:101E40000D0E036E21C502F122C503F123C504F175
:101E500024C505F1A5D19F0E016E026A110E036E15
:101E600021C5A5F022C5A6F023C5A7F024C5A8F07A
:101E700097D18B0E016E026A140E036E21C594F089
:101E800022C595F023C596F024C597F01DC5AEF187
:101E90001EC5AFF11FC5B0F120C5B1F10780AA0E74
:101EA000046E010E056E0F0EC2D71A0E016E010EE2
:101EB000026E0D0E036E21C51CF122C51DF123C556
:101EC0001EF124C51FF1110E6F00A0FF2CF568D183
:101ED000F70EE350426E436A4350000AD8A4E5D798
:101EE0004250010AD8B487D7030AD8B4A5D7010A4B
:101EF000D8B4B1D70E0AD8B4BCD7D7D7B90E016EB3
:101F0000010E026E1D0E036E21C5CBF122C5CCF170
:101F100023C5CDF124C5CEF143D18B0E016E010E48
:101F2000026E100E036E21C590F122C591F123C5FA
:101F300092F124C593F134D1F70EE350426E436A17
:101F40004350000AD8A4B1D74250110AD8B4D6D70A
:101F5000080AD8B4E2D7A9D77B0E016E010E026E33
:101F6000100E036E21C580F122C581F123C582F1D7
:101F700024C583F115D1F70EE350426E436A4350F6
:101F8000000AD8A492D74250010AD8B4E5D78DD719
:101F90005B0E016E010E026E100E036E21C560F124
:101FA00022C561F123C562F124C563F1F9D0F70EB2
:101FB000E350426E436A4350000AD8A476D7425099
:101FC0000B0AD8B4E5D771D7F70EE350426E436AD7
:101FD0004350000AD8A469D74250010AD8B4E0D0CF
:101FE000020AD8B4DDD0060AD8B4DAD0020AD8B4CE
:101FF000D7D00E0AD8B4D4D0020AD8B4D1D0060AA9
:10200000D8B4CED052D76B0E016E010E026E100EF8
:10201000036E21C570F122C571F123C572F124C58B
:1020200073F11DC5B3F31EC5B4F31FC5B5F320C5C9
:10203000B6F3B80EE66E0B0EE66E070EE66E2CECEF
:10204000A8F0010E6F00A0FF60F567D00780BE0EFC
:10205000046E030E056E380E066E5BC5E6F3E8D619
:102060000780670E046E056A240E066E21EE3AF1B3
:10207000DF88030E3BD00780860E046E030E056ECC
:10208000380E066E5BC5AEF3D3D6FF0EE66EFD0EC0
:102090006F008FFFE6FF6F008FFFE6FFF1ECA4F00B
:1020A000FE0EE350010F386EFE0E6000E3F0E3FF1A
:1020B000386AFF0EE3503820386EFF0E6000E3F000
:1020C000E3FFFF0E6F008CFF38F0040E385ED8A0DF
:1020D000DCD7000E6F00A0FF65F5000E6F00A0FFBB
:1020E00066F5000E6F00A0FF5FF5020E6F00A0FF07
:1020F00060F556D021EE3AF1DFBC03D0436A432AA3
:1021000001D0436A21EE3AF1433A43464346DF5059
:102110004318BF0B4318DF6E43D02CEC9CF03850B3
:10212000426E436A4350000AD8A43AD04250000A93
:10213000D8B4A1D7010AD8B489D7040AD8B4DAD759
:10214000030AD8B4A2D7010AD8B48AD729D0F70E87
:10215000E350426E436A4350000AD8A4A6D64250C8
:10216000010AD8B450D7A1D6F80EE350426E436AA4
:102170004350000AD8A499D64250010AD8B4A8D630
:10218000030AD8B4D9D6070AD8B4F5D6030AD8B406
:102190000ED70F0AD8B418D7030AD8B4D8D785D623
:1021A00020EE01F0070E386EF70E6F007BFFE3FFA5
:1021B000E828382EFAD7E552E5521200E65250D1FF
:1021C0000A0E6F00A0FF2BF5030E286E050EE66EBB
:1021D000CFECA7F0D00EE66E070EE66E020EE66EAE
:1021E0002CECA8F0FD0E6F008FFFD9FFFE0E6F00E4
:1021F0008FFFDAFF010E32D1020EE66E81ECAAF0FB
:102200003850D8B426D021EE35F1DE2A000EDD227A
:1022100028062828D8A414D00C0E6F00A0FF2BF598
:1022200021EE39F1DF50870B0809DF6EFD0E6F00DC
:102230008FFFD9FFFE0E6F008FFFDAFF050E0ED164
:10224000D00EE66E070EE66E020EE66E2CECA8F0DF
:102250002CD1E5ECABF03850D8B427D10DECA8F078
:10226000FF0E6000E3F0E3FFFF0E6F008CFF38F01D
:10227000040E3818D8A412D0880EE66E130EE66E3F
:10228000030EE66E2CECA8F0FD0E6F008FFFD9FF59
:10229000FE0E6F008FFFDAFF020EDF6EFF0E6F0083
:1022A0008CFF38F0050E3818D8A4FFD0040EE66E67
:1022B000F1ECA8F0FD0E6F008FFFD9FFFE0E6F004E
:1022C0008FFFDAFF040ECAD02750D8A413D021EE16
:1022D0002AF1DF50E66E21EE29F1DF50E66EEAECDE
:1022E0008EF020EED9F0060EE5526F009FFFDBFF67
:1022F000E806FAE26100B3F4E8FF110AD8A41FD09F
:10230000010EE66E000EE66E0001DB51E66E600027
:1023100067F3E6FF60006BF3E6FF78EC96F021EEE2
:1023200039F1DF50870B1009DF6EFD0E6F008FFF54
:10233000D9FFFE0E6F008FFFDAFF060E8FD02750F9
:10234000D8A416D0010EE66E000EE66E0001DB5139
:10235000E66E600067F3E6FF60006BF3E6FF78EC83
:1023600096F021EE3AF1DFA816D0010E276E13D0B9
:10237000276A21EE3AF1DF98010EE66E000EE66E56
:102380000001DE51E66E600073F3E6FF600077F354
:10239000E6FF78EC96F06100AFF4E8FF0A0AD8A4F3
:1023A0000AD0FD0E6F008FFFD9FFFE0E6F008FFF6A
:1023B000DAFF030E53D021EE39F1DF50870B1809F5
:1023C000B3D7030EE66E81ECAAF03850D8B40FD024
:1023D00021EE35F1DE2A000EDD220D0E6F00A0FF8A
:1023E0002BF521EE39F1DF50870B20091ED7E5ECE4
:1023F000ABF03850D8B459D00DECA8F0FF0E600007
:10240000E3F0E3FFFF0E6F008CFF38F0060E381884
:10241000D8A44BD021EE39F1870EDF164BD7FD0E35
:102420006F008FFFD9FFFE0E6F008FFFDAFF060EE1
:10243000DF6E02D00DECA8F03250D8B436D0FAD707
:1024400021EE39F1870EDF1630D0FD0E6F008FFFC1
:10245000D9FFFE0E6F008FFFDAFF000EDF6E25D072
:10246000FD0E6F008FFFD9FFFE0E6F008FFFDAFFAA
:10247000DF50426E436A4350000AD8A4E6D7425068
:10248000000AD8B49DD6010AD8B4B6D6030AD8B487
:102490001BD7010AD8B495D7070AD8B4D1D7010AF7
:1024A000D8B4BDD7030AD8A4D0D7FD0E6F008FFFD4
:1024B000D9FFFE0E6F008FFFDAFFDF50386EE55256
:1024C000E552E5521200E652E652E652E652FA0EA4
:1024D0006F008CFF42F0FB0E6F008CFF43F0FD0E8F
:1024E00060000FF1E3FFFC0E60000BF1E3FFF60E5E
:1024F0006F008CFF38F0F70EE3503810D8B454D189
:10250000FC0E6F008FFFD9FFFD0E6F008FFFDAFF0B
:10251000F80E6F008FFFDFFFFC0E6F008CFF42F0A4
:10252000FD0E6F008CFF43F0F60EE3504226F70ECF
:10253000E3504322FF0E4224D96EFF0E4320DA6E91
:10254000F80E6F008FFFDFFFF70EE35008E1F60E85
:102550006F008CFF38F0030E385ED8A025D1FC0E3A
:102560006F008CFF42F0FD0E6F008CFF43F0010EF8
:102570004224D96E000E4320DA6EF80E6F008FFFF2
:10258000DFFFFC0E6F008CFF42F0FD0E6F008CFF32
:1025900043F0020E4224D96E000E4320DA6EF80E8C
:1025A0006F008FFFDFFFFC0E6F008CFF42F0FD0E0F
:1025B0006F008CFF43F0F60EE3504226F70EE35017
:1025C0004322FE0E4224D96EFF0E4320DA6EF80E2F
:1025D0006F008FFFDFFFFC0E6F008CFF42F0FD0EDF
:1025E0006F008CFF43F0F60EE3504226F70EE350E7
:1025F0004322FD0E4224D96EFF0E4320DA6EF80E00
:102600006F008FFFDFFFF70EE35008E1F60E6F005B
:102610008CFF38F0070E385ED8A0C6D0FC0E6F00D5
:102620008CFF42F0FD0E6F008CFF43F0030E42243E
:10263000D96E000E4320DA6EF80E6F008FFFDFFFB9
:10264000FC0E6F008CFF42F0FD0E6F008CFF43F01C
:10265000F60EE3504226F70EE3504322FC0E4224CE
:10266000D96EFF0E4320DA6EF80E6F008FFFDFFF8A
:10267000F70EE35008E1F60E6F008CFF38F0090EFC
:10268000385ED8A091D0FC0E6F008CFF42F0421E45
:10269000FD0E6F008CFF43F0431E422AD8B4432A3C
:1026A000030E4216000E4316FE0E60000BF1E3FF10
:1026B000FF0E60000FF1E3FFFC0EE350386EFE0EDC
:1026C000E3503826FC0E6000E3F0E3FFFD0EE3501C
:1026D000386EFF0EE3503822FD0E6000E3F0E3FF9A
:1026E000F60EE350386EFE0EE350385EF60E6000D4
:1026F000E3F0E3FFF70EE350386EFF0EE350385A75
:10270000F70E6000E3F0E3FFFC0E426EFF0E436E37
:10271000F60E6F008CFF38F042503816F60E60004F
:10272000E3F0E3FFF70E6F008CFF38F043503816EC
:10273000F70E2ED0FC0E6F008FFFD9FFFD0E6F003D
:102740008FFFDAFFF80E6F008FFFDFFFF60E6F00CE
:102750008CFF38F0010E385EF60E6000E3F0E3FF08
:10276000F70E6F008CFF38F0000E385AF70E60003D
:10277000E3F0E3FFFC0EE350010F386EFC0E600047
:10278000E3F0E3FF386AFD0EE3503820386EFD0EAB
:102790006000E3F0E3FFF60E6F008CFF38F0F70EF9
:1027A000E3503810D8A4C6D7F60EE126FF0EE22279
:1027B0001200110EE126000EE22220EE60F0070E5C
:1027C000386EEF0E6F007BFFE3FFE828382EFAD754
:1027D000EB0E6F008CFF42F0EC0E6F008CFF43F0AD
:1027E000FB0E60000FF1E3FFFA0E60000BF1E3FF58
:1027F000FA0E6F008CFF38F0FB0EE3503810D8A4AF
:102800000ED0EF0EE124426EFF0EE220436EFB0E6F
:1028100060000FF1E3FFFA0E60000BF1E3FFFA0E28
:102820006F008FFFE6FF6F008FFFE6FF5AECA3F00B
:10283000F60E6000E3F0E3FFF70E6000E7F0E3FF61
:10284000F80E600067F0E3FFF90E60006BF0E3FF45
:10285000F90EE3BE23D0E150F80FD96EE250DA6EE4
:10286000FF0EDA22F60EE350DE5CDE50800A386E90
:10287000F70EE350800A3858D8B010D0F80E6F0029
:102880008CFF38F0F60E6000E3F0E3FFF90E6F0006
:102890008CFF38F0F70E6000E3F0E3FFF60E6F00F8
:1028A0008CFF38F0F80E6000E3F0E3FFF70E6F00E6
:1028B0008CFF38F0F90E6000E3F0E3FFFC0E6000DF
:1028C0005FF0E3FFFD0E600063F0E3FF1BA01FD08D
:1028D00031D0ED0E6F008FFFE6FF6F008FFFE6FF38
:1028E000200EE66E000EE66E23EC9EF0F60EE35030
:1028F000010F386EF60E6000E3F0E3FF386AF70E62
:10290000E3503820386EF70E6000E3F0E3FFE1504B
:10291000F60FD96EE250DA6EFF0EDA22FC0EE350AB
:10292000DE5CDE50800A386EFD0EE350800A3858B7
:10293000D8A0CFD7FE0EE36AFF0EE36A45D0ED0EB6
:102940006F008FFFE6FF6F008FFFE6FFF80E6F004E
:102950008FFFF6FFF90E6F008FFFF7FF000EF86E86
:102960001F0EF76403D00800F55007D06F00DBFF9F
:10297000E9FF6F00DFFFEAFFEF50E66E000EE66E44
:1029800023EC9EF0FA0EE350010F386EFA0E600051
:10299000E3F0E3FF386AFB0EE3503820386EFB0E9D
:1029A0006000E3F0E3FFFE0EE350010F386EFE0E11
:1029B0006000E3F0E3FF386AFF0EE3503820386E22
:1029C000FF0E6000E3F0E3FFE150FE0FD96EE2502E
:1029D000DA6EFF0EDA22F80EE350DE5CDE50800A7B
:1029E000386EF90EE350800A3858D8A0A8D71BB02B
:1029F0001FD031D0ED0E6F008FFFE6FF6F008FFF0D
:102A0000E6FF200EE66E000EE66E23EC9EF0F60E5C
:102A1000E350010F386EF60E6000E3F0E3FF386A12
:102A2000F70EE3503820386EF70E6000E3F0E3FF56
:102A3000E150F60FD96EE250DA6EFF0EDA22FC0E8C
:102A4000E350DE5CDE50800A386EFD0EE350800AF3
:102A50003858D8A0CFD7F60E6F008CFF38F0F70E9D
:102A60006F008CFF39F0EB0EE126FF0EE222120020
:102A70000A0EE126000EE222FE0EE36AED0EE3AE40
:102A800028D0E60EE36CE70EE31EE80EE31EE90E27
:102A9000E31EEA0EE31EEB0EE31EEC0EE31EED0E4C
:102AA000E31E14E3E70EE32A11E3E80EE32A0EE344
:102AB000E90EE32A0BE3EA0EE32A08E3EB0EE32A2E
:102AC00005E3EC0EE32A02E3ED0EE32AFE0EE36AD1
:102AD000E32AF50EE3AE27D0EE0EE36CEF0EE31E15
:102AE000F00EE31EF10EE31EF20EE31EF30EE31EE4
:102AF000F40EE31EF50EE31E14E3EF0EE32A11E3DA
:102B0000F00EE32A0EE3F10EE32A0BE3F20EE32AC2
:102B100008E3F30EE32A05E3F40EE32A02E3F50EDD
:102B2000E32AFE0EE370070E386EF60EE36AE82A1B
:102B30003806FCE2E60EE35016E1E70EE35013E13F
:102B4000E80EE35010E1E90EE3500DE1EA0EE35028
:102B50000AE1EB0EE35007E1EC0EE35004E1ED0E69
:102B6000E350D8B488D0FF0EE36A12D0D890E60EB6
:102B7000E336E70EE336E80EE336E90EE336EA0E17
:102B8000E336EB0EE336EC0EE336ED0EE336FF0EE6
:102B9000E32AED0EE3AEEAD7D890F60EE336F70E51
:102BA000E336F80EE336F90EE336FA0EE336FB0EA3
:102BB000E336FC0EE336FD0EE336E150EE0FD96E40
:102BC000E250DA6EFF0EDA22E60EE350DE5CE70E2C
:102BD000E350DE58E80EE350DE58E90EE350DE58CD
:102BE000EA0EE350DE58EB0EE350DE58EC0EE350F5
:102BF000DE58ED0EE350DE58D8A021D0E150EE0FA4
:102C0000D96EE250DA6EFF0EDA22E60EE350DE5E97
:102C1000E70EE350DE5AE80EE350DE5AE90EE350C9
:102C2000DE5AEA0EE350DE5AEB0EE350DE5AEC0EAB
:102C3000E350DE5AED0EE350DE5AF60EE380D890F4
:102C4000ED0EE332EC0EE332EB0EE332EA0EE3324A
:102C5000E90EE332E80EE332E70EE332E60EE3324A
:102C6000FF0EE350386E010E385EFF0E6000E3F099
:102C7000E3FFD8A491D7FE0EE350D8B425D0F60ECA
:102C8000E36CF70EE31EF80EE31EF90EE31EFA0ED8
:102C9000E31EFB0EE31EFC0EE31EFD0EE31E14E31B
:102CA000F70EE32A11E3F80EE32A0EE3F90EE32A06
:102CB0000BE3FA0EE32A08E3FB0EE32A05E3FC0E1E
:102CC000E32A02E3FD0EE32AF60EE124D96EFF0E9D
:102CD000E220DA6E080E386EEE0E6F007BFFE3FF27
:102CE000E828382EFAD7F60EE126FF0EE22212006F
:102CF000050EE126000EE222F90E6F008CFF42F075
:102D0000FA0E6F008CFF43F0FC0E60000FF1E3FF42
:102D1000FB0E60000BF1E3FF21EE1DF1DE2A000E39
:102D2000DE22DE22DE220A0E6F00A0FF2BF5F80E57
:102D3000E350426E436AFB0EE3504226FC0EE35022
:102D40004322FF0E4224D96EFF0E4320DA6EDF507D
:102D5000426E436AFD0E406EFF0E416EF80EE35068
:102D60003E6E3F6A40503E2641503F2242503E1840
:102D700004E143503F18D8B405D0120E6F00A0FFF5
:102D80002BF5EFD0FD0E426EFF0E436EF80EE350B2
:102D9000406E416A4250402643504122600003F198
:102DA000E6FF600007F1E6FFF90EE350020F426E06
:102DB000FA0E6F008CFF43F0000E432260000BF10F
:102DC000E6FF60000FF1E6FFA0ECA1F0FD0E600051
:102DD000E3F0E3FFFE0E6000E7F0E3FFFB0E6F00A1
:102DE0008FFFD9FFFC0E6F008FFFDAFFFD0E6F0023
:102DF0008FFFDFFFFE0EE124D96EFF0EE220DA6EB8
:102E0000FB0E6F008CFF42F0FC0E6F008CFF43F056
:102E1000010E4224E96E000E4320EA6E6F007FFF30
:102E2000EFFFE150FD0FD96EE250DA6EFF0EDA22AD
:102E30006F0078FF31F56F0074FF32F582D0D9EC66
:102E4000ABF03F0E3864FBD7F80E6F008CFF38F004
:102E5000FF0E6000E3F0E3FFFF0EE350D8B481D033
:102E6000F70EE350D8B415D0FF0EE350426E436A1C
:102E7000FB0EE3504226FC0EE3504322FF0E422499
:102E8000D96EFF0E4320DA6EDF50E66EDCECA8F060
:102E900014D0FF0EE350426E436AFB0EE35042260D
:102EA000FC0EE3504322FF0E4224D96EFF0E432056
:102EB000DA6EDF50E66EB0ECA7F0FF0EE306CCD77B
:102EC000DDECABF03F0E3864FBD7F80E6F008CFFE3
:102ED00038F0FF0E6000E3F0E3FFFF0EE350D8B4DC
:102EE00040D0F70EE350D8B415D0FF0EE350426E39
:102EF000436AFB0EE3504226FC0EE3504322FF0ED2
:102F00004224D96EFF0E4320DA6EDF50E66EF1ECFC
:102F1000A8F014D0FF0EE350426E436AFB0EE3505C
:102F20004226FC0EE3504322FF0E4224D96EFF0ED0
:102F30004320DA6EDF50E66ECFECA7F0FF0EE3061B
:102F4000CCD7F60EE350426E436A4350000AD8A431
:102F5000B7D74250010AD8B4B3D7030AD8B46FD751
:102F6000AFD7F60EE126FF0EE222120000000000AD
:102F70000000000000000000000000000000000051
:102F80000000000000000000000000000000000041
:102F90000000000000000000000000000000000031
:102FA0000000000000000000000000000000000021
:102FB0000000000000000000000000000000000011
:102FC0000000000000000000000000000000000001
:102FD00000000000000000000000000000000000F1
:102FE00000000000000000000000000000000000E1
:102FF00000000000000000000000000000000000D1
:1030000000000000000000000000000000000000C0
:1030100000000000000000000000000000000000B0
:1030200000000000000000000000000000000000A0
:103030000000000000000000000000000000000090
:103040000000000000000000000000000000000080
:103050000000000000000000000000000000000070
:103060000000000000000000000000000000000060
:103070000000000000000000000000000000000050
:103080000000000000000000000000000000000040
:103090000000000000000000000000000000000030
:1030A000000A001400000000000000000000000002
:1030B00020000000000000000000000000000000F0
:1030C0000000000000000000000000000000000000
:1030D00000000000000000000000000000012D19A9
:1030E0002057190000000000000000000000000050
:1030F00000000000000000000000000000000000D0
:1031000000000000000000000000000000000000BF
:1031100000000000000000000000000000000000AF
:10312000000000000000000000000000000000009F
:10313000000000000000000000000000000000008F
:10314000000000000000000000000000000000007F
:10315000000000000000000000000000000000006F
:10316000000000000000000000000000000000005F
:10317000000000000000000000000000000000004F
:10318000000000000000000000000000000000003F
:10319000000000000000000000000000000000002F
:1031A000000000000000000000000000000000001F
:1031B000000000000000000000000000000000000F
:1031C00000000000000000000000000000000000FF
:1031D0000000000000010000000180038AEF80FE73
:1031E000E652E652FE0EE36AFD0EE3AE28D0F60E7E
:1031F000E36CF70EE31EF80EE31EF90EE31EFA0E63
:10320000E31EFB0EE31EFC0EE31EFD0EE31E14E3A5
:10321000F70EE32A11E3F80EE32A0EE3F90EE32A90
:103220000BE3FA0EE32A08E3FB0EE32A05E3FC0EA8
:10323000E32A02E3FD0EE32AFE0EE36AE32AF50E1B
:10324000E3AE25D0EE0EE36CEF0EE31EF00EE31EB0
:10325000F10EE31EF20EE31EF30EE31EF40EE31E68
:10326000F50EE31E14E3EF0EE32A11E3F00EE32A5A
:103270000EE3F10EE32A0BE3F20EE32A08E3F30E6A
:10328000E32A05E3F40EE32A02E3F50EE32AEE0E49
:10329000E35016E1EF0EE35013E1F00EE35010E1BE
:1032A000F10EE3500DE1F20EE3500AE1F30EE350AC
:1032B00007E1F40EE35004E1F50EE350D8B475D005
:1032C000FF0EE36A12D0D890EE0EE336EF0EE3362F
:1032D000F00EE336F10EE336F20EE336F30EE3368C
:1032E000F40EE336F50EE336FF0EE32AF50EE3AEF9
:1032F000EAD7E150F60FD96EE250DA6EFF0EDA220D
:10330000EE0EE350DE5CEF0EE350DE58F00EE350BD
:10331000DE58F10EE350DE58F20EE350DE58F30EA5
:10332000E350DE58F40EE350DE58F50EE350DE585D
:10333000D8A01FD0E150F60FD96EE250DA6EFF0E22
:10334000DA22EE0EE350DE5EEF0EE350DE5AF00EB0
:10335000E350DE5AF10EE350DE5AF20EE350DE5A2D
:10336000F30EE350DE5AF40EE350DE5AF50EE3504E
:10337000DE5AD890F50EE332F40EE332F30EE33268
:10338000F20EE332F10EE332F00EE332EF0EE332EF
:10339000EE0EE332FF0EE350386E010E385EFF0E84
:1033A0006000E3F0E3FFD8A4A4D7FE0EE350D8B446
:1033B00025D0F60EE36CF70EE31EF80EE31EF90EB1
:1033C000E31EFA0EE31EFB0EE31EFC0EE31EFD0ED3
:1033D000E31E14E3F70EE32A11E3F80EE32A0EE3EB
:1033E000F90EE32A0BE3FA0EE32A08E3FB0EE32AC5
:1033F00005E3FC0EE32A02E3FD0EE32AF60EE124C8
:10340000D96EFF0EE220DA6E080E386EF60E6F00EF
:103410007BFFE3FFE828382EFAD7E552E552120089
:1034200046ECABF021EE60F1DF50D8A4D3D0FC0E17
:103430006F008FFFE6FF6F008FFFE6FFFC0EE3508B
:10344000E66EFC0EE350E66E65ECA8F002D10501D5
:103450005F51030BE66E000EE66E21EE2AF1DF509F
:10346000E66E000EE66E21EE29F1DF50E66E000EEC
:10347000E66EF60EE66EFE0EE66EFD0EE66E030ED0
:10348000E66E0A0EE66E3FEC9FF0000E6F00A0FFA6
:103490000DF4FD0EE66E030EE66E000EE66E000EF7
:1034A000E66E65ECA8F021EE65F16F0078FF42F062
:1034B0006F0074FF43F060000BF1E6FF60000FF156
:1034C000E6FF1D0EE66EFF0EE66EFD0EE66E030EC7
:1034D000E66E060EE66E3FEC9FF0000E6F00A0FF5A
:1034E0000DF446ECABF0FD0EE66E030EE66E000E3C
:1034F000E66E010EE66E65ECA8F080D0C30EE66EB7
:10350000FF0EE66EFD0EE66E030EE66E040EE66E30
:103510003FEC9FF0000E6F00A0FF0DF4FD0EE66E75
:10352000030EE66E000EE66E000EE66E65ECA8F089
:1035300021EE5CF1DF50E66E000EE66E530EE66E95
:10354000FF0EE66EFD0EE66E030EE66E060EE66EEE
:103550003FEC9FF0C2D721EE5BF1DF50E66E000E2C
:10356000E66E520EE66EFE0EE66EFD0EE66E030E83
:10357000E66E060EE66E3FEC9FF0000E6F00A0FFB9
:103580000DF4FD0EE66E030EE66E000EE66E000E06
:10359000E66E65ECA8F021EE5EF1DF50E66E000EFF
:1035A000E66E21EE5DF1DF50E66E000EE66E21EE76
:1035B0005CF1DF50E66E000EE66EA00EE66EFE0ECB
:1035C000E66EFD0EE66E030EE66E0A0EE66E3FEC4C
:1035D0009FF083D721EE60F1DF50426E436A435083
:1035E000000AD8A4B8D74250010AD8B4B4D7030A05
:1035F000D8B42DD7010AD8B481D7ADD7DD0EE66E89
:10360000040EE66EDA0EE66EFF0EE66EFD0EE66E58
:10361000030EE66E060EE66E3FEC9FF0000E6F00A6
:10362000A0FF0DF446ECABF0FD0EE66E030EE66E69
:10363000000EE66E020EE66E65ECA8F0070EE66E72
:1036400081ECAAF03850D8B404D0000E6F00A0FF6F
:1036500060F5E552E552E552E5521200E652E652B7
:10366000E652E652FA0E6F008CFF42F0FB0E6F003E
:103670008CFF43F0FF0E60000FF1E3FFFE0E6000D1
:103680000BF1E3FFF80E6F008CFF42F0F90E6F00B4
:103690008CFF43F0FD0E60000FF1E3FFFC0E6000B5
:1036A0000BF1E3FFF60E6F008CFF38F0010E385E71
:1036B000F60E6000E3F0E3FFF70E6F008CFF38F0CA
:1036C000000E385AF70E6000E3F0E3FFF60EE32831
:1036D0003FE1F70EE328D8A43BD0000E386E000E71
:1036E000396EB5D0FE0EE350010F386EFE0E60004D
:1036F000E3F0E3FF386AFF0EE3503820386EFF0E28
:103700006000E3F0E3FFFC0EE350010F386EFC0EA7
:103710006000E3F0E3FF386AFD0EE3503820386EB6
:10372000FD0E6000E3F0E3FFF60E6F008CFF38F053
:10373000010E385EF60E6000E3F0E3FFF70E6F0057
:103740008CFF38F0000E385AF70E6000E3F0E3FF0C
:10375000E150FE0FD96EE250DA6EFF0EDA226F00F2
:103760007BFFF6FF6F0077FFF7FF000EF86E080093
:10377000F5500009D8B444D0E150FC0FD96EE250A6
:10378000DA6EFF0EDA226F007BFFF6FF6F0077FF25
:10379000F7FF000EF86E0800F5500009D8B430D0DD
:1037A000F60E6F008CFF38F0F70EE3503810D8B4E7
:1037B00027D0E150FE0FD96EE250DA6EFF0EDA220A
:1037C0006F007BFFF6FF6F0077FFF7FF000EF86ECC
:1037D00008006F00D4FF43F0E150FC0FD96EE250B7
:1037E000DA6EFF0EDA226F007BFFF6FF6F0077FFC5
:1037F000F7FF000EF86E0800F5504318D8B472D7E2
:10380000E150FE0FD96EE250DA6EFF0EDA226F0041
:103810007BFFF6FF6F0077FFF7FF000EF86E0800E2
:10382000F550386E396AE150FC0FD96EE250DA6E0D
:10383000FF0EDA226F007BFFF6FF6F0077FFF7FFC6
:10384000000EF86E0800F550385E000E395AF60E7C
:10385000E126FF0EE2221200CE0EE66EFE0EE66EAE
:10386000DD0EE66E040EE66E040EE66E3FEC9FF093
:1038700041C55EF53FC55BF542C55CF543C55DF5E9
:1038800021EE5EF1DF50D8A403D0080E386E12008E
:10389000610073F5E8FF530AD8B406D0610073F5F0
:1038A000E8FF730AD8A403D0000E386E120061003E
:1038B00073F5E8FF520AD8B406D0610073F5E8FF4B
:1038C000720AD8A450D021EE5EF1010EDF6406D05A
:1038D00008D005015D51030B000101D0010E696F95
:1038E0002FD021EE5DF1DF50426E436A4350000A53
:1038F000D8A4F4D74250310AD8B4EBD7030AD8B4CD
:10390000E8D7010AD8B4E5D7720AD8B4E2D7030AD7
:10391000D8B4DFD7010AD8B4DCD7220AD8B4D9D7B3
:10392000030AD8B4D6D7010AD8B4D3D7D7D7310E23
:103930007B6F370E03D0310E7B6F300E7A6F10D055
:1039400020EEF9F3DF50426E436A4350000AD8A4D8
:1039500007D04250010AD8B4EAD7030AD8B4EBD74B
:10396000070E386E1200610073F5E8FF4C0AD8B4F8
:1039700006D0610073F5E8FF6C0AD8A40FD0380EAA
:10398000E66EFE0EE66EDD0EE66E040EE66E040ECC
:10399000E66E3FEC9FF0060E386E1200610073F584
:1039A000E8FF4D0AD8B406D0610073F5E8FF6D0A50
:1039B000D8A403D0010E386E1200610073F5E8FF41
:1039C000440AD8B406D0610073F5E8FF640AD8A4AD
:1039D0006BD7050E386E120081D0040E2618D8B4AD
:1039E00008D0300EE66E750EE66E060EE66E2CEC16
:1039F000A8F0040E266E000E6DD0010E11D0256ABF
:103A000033D021EE40F1DF50426E436A4350000A4A
:103A1000D8A4F5D74250490AD8B4EFD7F0D7020E50
:103A2000256E22D021EE40F1DF50426E436A4350B2
:103A3000000AD8A4E4D74250320AD8B4F0D7070A13
:103A4000D8B4EDD7DCD721EE3FF1DF50426E436AA8
:103A50004350000AD8A4D3D74250450AD8B4E2D77D
:103A6000130AD8B4CED7CBD7010E266E0F0E32D0A4
:103A7000020EC0D7030EBED72650D8B4F5D741D01A
:103A8000FE0EE350426E436A4350000AD8A4F4D7B6
:103A90004250020AD8B4A1D70F0AD8B4D4D7030A27
:103AA000D8B4E2D71E0AD8B4E3D7020AD8B4E2D712
:103AB000E3D7050E266E6100A3F5E8FF2D0AD8A412
:103AC000D5D71FD0060EF6D72650D8A41AD0010E8F
:103AD000266E2D0E6F00A0FF68F513D0FF0EE35089
:103AE000426E436A4350000AD8A4EED74250010AFE
:103AF000D8B4C6D7040AD8B4DCD70C0AD8B4E2D7F5
:103B0000E3D720EEF9F3600097F0DFFF600098F054
:103B100038F0E552E5521200E652E652050E386ED4
:103B2000FF0E6000E3F0E3FF690E386EFE0E6000EA
:103B3000E3F0E3FF21EE1DF1DE2A000EDE22DE229D
:103B4000DE226AD05B50D8B479D05B6AFE0E6F007B
:103B50008FFFE6FF6F008FFFE6FFF80E6F008FFF0D
:103B6000E6FF6F008FFFE6FFF80EE350E66EF80EFB
:103B7000E350E66E46ECA0F061D05A50D8B45ED067
:103B80005A6AE4D7FC0EE350426E436A4350000A7F
:103B9000D8A454D04250010AD8B4D4D70C0AD8B40F
:103BA000ECD74CD05950D8B42AD0596AFE0E6F00C9
:103BB0008FFFE6FF6F008FFFE6FFF80E6F008FFFAD
:103BC000E6FF6F008FFFE6FFF80EE350E66EF80E9B
:103BD000E350E66E46ECA0F012D0FC0EE350426ECD
:103BE000436A4350000AD8A40AD04250290AD8B4E4
:103BF000D9D705D05850D8B421D0586AA7D7FC0ED1
:103C0000E350426E436A4350000AD8A417D0425092
:103C10000B0AD8B4EFD712D0FD0EE350426E436AC0
:103C20004350000AD8A40AD04250010AD8B4AAD7F7
:103C3000030AD8B4D2D7040AD8B4E1D7FA0EE126E1
:103C4000FF0EE2221200FC0E6F008CFF38F0FD0E1A
:103C5000E3503810D8B409D0FC0E6F008CFF38F058
:103C6000FD0EE3503810D8A406D0FE0EE350E66EE9
:103C700054ECABF075D0FC0E6F008CFF42F0FD0EE3
:103C80006F008CFF43F0040E4224D96E000E4320D7
:103C9000DA6EDE50DE10D8B426D0FC0E6F008CFF3A
:103CA00042F0FD0E6F008CFF43F0040E4224D96EEB
:103CB000000E4320DA6EFC0E6F008CFF42F0FD0E0A
:103CC0006F008CFF43F0020E4224E96E000E432089
:103CD000EA6EDE50EE5CEE50800A386EDE50800AEE
:103CE0003858D8B03DD0FC0E6F008CFF42F0FD0E6E
:103CF0006F008CFF43F0020E4224D96E000E432069
:103D0000DA6E6F0078FF42F06F0074FF43F0FC0E34
:103D10006F008FFFD9FFFD0E6F008FFFDAFF6F007E
:103D200078FF40F06F0074FF41F042504024D96E9C
:103D300043504120DA6EFE0E6F008FFFDFFFFC0E56
:103D40006F008CFF42F0FD0E6F008CFF43F0020EFF
:103D50004224D96E000E4320DA6EDE2A000EDD22E8
:103D6000E552E552E552E5521200E652E652E652BD
:103D7000E6521BA010D0FA0E6F008FFFE6FF6F0017
:103D80008FFFE6FFF60E6F008FFFE6FF6F008FFFDD
:103D9000E6FFABECA3F0F70EE3BE11D0F60E6F001A
:103DA0008CFF38F0FC0E6000E3F0E3FFF70E6F00CD
:103DB0008CFF38F0FD0E6000E3F0E3FF04D0FC0E52
:103DC000E36AFD0EE36AFE0EE36AFF0EE36A1ED0AD
:103DD000FA0E6F008FFFE6FF6F008FFFE6FF200EE9
:103DE000E66E000EE66E23EC9EF0FE0EE350010F31
:103DF000386EFE0E6000E3F0E3FF386AFF0EE3501A
:103E00003820386EFF0E6000E3F0E3FFE150FE0F54
:103E1000D96EE250DA6EFF0EDA22FC0EE350DE5C61
:103E2000DE50800A386EFD0EE350800A3858D8A064
:103E3000CFD71BB010D0FA0E6F008FFFE6FF6F00D8
:103E40008FFFE6FFF60E6F008FFFE6FF6F008FFF1C
:103E5000E6FFABECA3F0F80E6F008FFFE6FF6F00FC
:103E60008FFFE6FF5AECA3F0FC0EE3503826FD0E60
:103E7000E3503922F60EE126FF0EE2221200080E70
:103E8000E126000EE222FE0E426EFF0E436EF50E9C
:103E9000E124406EFF0EE220416E42504026435026
:103EA0004122FF0E600007F1E3FFFE0E600003F108
:103EB000E3FFF50E6F008CFF42F0F60E6F008CFFF3
:103EC00043F0F90E60000FF1E3FFF80E60000BF114
:103ED000E3FFFA0EE124D96EFF0EE220DA6E000E47
:103EE000DE6E000EDD6EFC0EE124D96EFF0EE220C8
:103EF000DA6E000EDE6E000EDD6EFE0EE124386E10
:103F0000FF0EE220396E6000E3F0E6FF6000E7F0AC
:103F1000E6FFF10E6F008FFFE6FF6F008FFFE6FFF9
:103F2000F40EE124386EFF0EE220396E6000E3F0FB
:103F3000E6FF6000E7F0E6FF09ECA2F0FA0EE124EC
:103F4000D96EFF0EE220DA6E6F0078FF42F06F004C
:103F500074FF43F0F50E6F008CFF40F0F60E6F001B
:103F60008CFF41F042504024D96E43504120DA6E1C
:103F7000000EDF6EF80EE126FF0EE222E552E7505A
:103F8000E15E000EE25A12006C0EF66E2F0EF76E16
:103F9000010EF86E00EEF6F320EE74F209006F00E9
:103FA000D7FFEEFFDD50D950F9E1DA50F7E1080E06
:103FB000F66E490EF76E010EF86E00EE86F320EEF7
:103FC00070F009006F00D7FFEEFFDD50D950F9E126
:103FD0006A0EF66E420EF76E010EF86E00EE00F1FC
:103FE00020EED6F009006F00D7FFEEFFDD50D9506C
:103FF000F9E1D60EF66E4C0EF76E010EF86E00EE7D
:1040000060F020EE50F009006F00D7FFEEFFDD50AA
:10401000D950F9E1D20EF66E570EF76E010EF86E1A
:1040200000EE58F020EE06F009006F00D7FFEEFF1B
:10403000DD50D950F9E100EE00F3860EEE6AE80695
:10404000FDE100EE00F220EE00F1EE6ADD50D95005
:10405000FCE1DA50FAE100EED6F1200EEE6AE80655
:10406000FDE100EEB0F04D0EEE6AE806FDE100EE77
:1040700001F0370EEE6AE806FDE1080ED56E000E7F
:10408000D66E000ED76E000100EF80F0E652E652C9
:10409000FE0EE36AFF0EE36AF80E6F008CFF42F03B
:1040A000F90E6F008CFF43F0FE0EE350425EFF0EF0
:1040B000E350435A000E4224D96E010E4320DA6EBB
:1040C000DF50E66E05015F51030B436E426AFD0E41
:1040D000E3504226FE0EE350432260000BF1E6FF60
:1040E00060000FF1E6FFF1ECA4F0FE0EE350010FCB
:1040F000386EFE0E6000E3F0E3FF386AFF0EE35017
:104100003820386EFF0E6000E3F0E3FFFF0EE3049B
:10411000D8A0C2D7FC0EE350E66E000EE66EFB0E92
:10412000E350E66E000EE66E0A0EE66EFF0EE66ED9
:10413000DD0EE66E040EE66E080EE66E3FEC9FF0B6
:10414000FA0E6F008FFFE6FF6F008FFFE6FF070E8E
:10415000E66E2CECA8F0020E6F00A0FF60F521EED9
:1041600065F1DE2A000EDD2261007FF5E8FF010F18
:104170006F00A0FF5FF5F80EE126FF0EE2221200AD
:10418000430E0001D36F030ED46F000ED16F030EE8
:10419000D26F60004FF3E6FF600053F3E6FF42EC9E
:1041A000A9F0600047F3E6FF60004BF3E6FF42EC46
:1041B000A9F0BE80BC84300EE66E570EE66E050E8A
:1041C000E66E000EE66EEAECA5F0390EE66E2EEC19
:1041D000A9F01D0EE66E2EECA9F0500EE66E2EEC48
:1041E000A9F06C0EE66E2EECA9F0760EE66E2EECC3
:1041F000A9F0380EE66E1AECA9F00F0EE66E2EEC62
:10420000A9F0010EE66E1AECA9F0020EE66E2EEC95
:10421000A9F0060EE66E2EECA9F01E0EE66E000E5C
:10422000E66E000EE66E000EE66EEAECA5F0020EFB
:104230003D01166F400E156F830E146F1A933F0EDB
:104240003B01FD17FD9BFD51F90B0209FD6FE70EC8
:10425000FD17FD81430EF96F030EFA6F000EFB6F21
:10426000FC9B3D011A83BE9012000000010000007B
:104270000180018100000A00000000000000000031
:104280000000000A000001000000018000010000A1
:104290000A0000010000000180018100800A000086
:1042A000010000000180118200000A0000010000EE
:1042B0000001800F8100000A000001000000018061
:1042C000118100000A0000000121010000000180AE
:1042D0000C0600000D00000001210100000001801B
:1042E000020A00000D000000012101000000018011
:1042F000020500000D0000FF012101000000018007
:104300001A0200000D0000000101000000018002FF
:104310000100000C000000010100000001800D817F
:1043200000000C0000303130393131303834363053
:104330003030300E41010000000180120200001AEE
:10434000E652E652E652E652FE0EE36AFF0EE36ADA
:10435000FC0EE36AFD0EE36A39D0FC0E6F008CFFA1
:1043600042F0FD0E6F008CFF43F0FA0E6F008CFFE1
:1043700040F0FB0E6F008CFF41F042504024D96E9C
:1043800043504120DA6EDF50436EFE0EE35043246B
:10439000386EFE0E6000E3F0E3FF386AFF0EE35074
:1043A0003822FF0E6000E3F0E3FFFC0EE350010F44
:1043B000386EFC0E6000E3F0E3FF386AFD0EE35058
:1043C0003820386EFD0E6000E3F0E3FFF80E6F005A
:1043D0008CFF42F0F90E6F008CFF43F0FC0E6F0073
:1043E0008CFF40F0FD0E6F008CFF41F04250405CAE
:1043F00043504158D8A0B1D7FE0E6F008CFF38F063
:10440000FF0E6F008CFF39F0F80EE126FF0EE2225E
:104410001200E652E652FA0E6F008CFF42F0FB0EDD
:104420006F008CFF43F0FF0E60000FF1E3FFFE0E04
:1044300060000BF1E3FF0001F36BF46B21D0F80E89
:104440006F008FFFE6FF6F008FFFE6FFFC0EE12499
:10445000386EFF0EE220396E6000E3F0E6FF600088
:10446000E7F0E6FFF80E6F008FFFE6FF6F008FFFAB
:10447000E6FF0BEC88F038500001F3273950F423A5
:10448000E150FE0FD96EE250DA6EFF0EDA226F00B5
:104490007BFFF6FF6F0077FFF7FF000EF86E080056
:1044A000F5500009D8A4CBD76000CCF338F06000F9
:1044B000D0F339F0F80EE126FF0EE2221200FE0ED4
:1044C0006F008CFF42F0FF0E6F008CFF43F0420E36
:1044D0004224D96E000E4320DA6E400EDF6040D0D9
:1044E000FE0E6F008CFF42F0FF0E6F008CFF43F05A
:1044F000400E4224D96E000E4320DA6EDF50436E28
:10450000FE0E6F008CFF40F0FF0E6F008CFF41F03D
:1045100043504024D96E000E4120DA6EFD0E6F002C
:104520008FFFDFFFFE0E6F008CFF42F0FF0E6F006B
:104530008CFF43F0400E4224D96E000E4320DA6E09
:10454000DF2AFE0E6F008CFF42F0FF0E6F008CFF23
:1045500043F0420E4224D96E000E4320DA6EDF2A69
:10456000E552E552E5521200BE82ECECABF0000ED3
:10457000E66E60004FF3E6FF600053F3E6FFF7ECF2
:10458000A3F0BC94FE0E6F008FFFE6FF6F008FFF5D
:10459000E6FF5AECA3F0395004E1410E385CD8A094
:1045A00010D0FE0E6F008CFF42F0FF0E6F008CFFEC
:1045B00043F0400E4224D96E000E4320DA6E000E06
:1045C000DF6E3B01FC9FFE0E6F008FFFE6FF6F006A
:1045D0008FFFE6FF5AECA3F06000E3F0F7FB60000A
:1045E000E7F0F8FB3B01FC8FFE0E6F008FFFE6FF4C
:1045F0006F008FFFE6FFDA0EE66EFF0EE66E040E2A
:10460000E66E8AECA5F0EFECABF0E552E552120055
:10461000070EBE6EBD6ABA6ABF6ABB6A060EBC6E82
:10462000C66A0F0EC76E8F0EC26EBF0EC36E910E9E
:10463000C46E0C0EC56E3A01706B010E606F380EC1
:10464000506F806B0F0E906F8F0E406FFC0E716F6E
:10465000F00E916F816B870E516F416B900E616F01
:10466000826B926B426B526B626B726B43695369E4
:1046700063697369070E836F93690F0EE86F160EF7
:104680000E6F1E0E136F080EC06F0A0EC26F090E5A
:10469000C16F170EE56F130EDE6F010E046F260E4D
:1046A000056F280E066F1F0E156F130E166F140E72
:1046B000DF6F1200E652E652FC0E6F008CFF42F0F4
:1046C000FD0E6F008CFF43F0FF0E60000FF1E3FF63
:1046D000FE0E60000BF1E3FF11D0FC0EE350010F62
:1046E000386EFC0E6000E3F0E3FF386AFD0EE35025
:1046F0003820386EFD0E6000E3F0E3FFFC0E6F0023
:104700008FFFF6FFFD0E6F008FFFF7FF000EF86EB4
:104710001F0EF76403D00800F55007D06F00DBFFD1
:10472000E9FF6F00DFFFEAFFEF500009D8A4D5D7FB
:10473000FC0E6F008CFF38F0FD0E6F008CFF39F01F
:10474000FE0EE350385EFF0EE350395AE552E55253
:10475000E552E5521200E652E652E652FD0EE36AD9
:10476000FE0EE36A1FD0F90E6F008FFFE6FF6F00A9
:104770008FFFE6FFFD0EE350E66E000EE66E23ECC3
:104780009EF0FD0EE350010F386EFD0E6000E3F069
:10479000E3FF386AFE0EE3503820386EFE0E6000EC
:1047A000E3F0E3FFFD0E6F008CFF42F0FE0E6F00A2
:1047B0008CFF43F0FB0E6F008CFF40F0FC0E6F008F
:1047C0008CFF41F042504024D96E43504120DA6EB4
:1047D000DF50436EFF0E60000FF1E3FFFF0EE3506A
:1047E000D8A4C1D7F90EE126FF0EE2221200FE0E78
:1047F0006F008CFF42F0FF0E6F008CFF43F0420E03
:104800004224D96E000E4320DA6E000EDF6EFE0EDB
:104810006F008CFF42F0FF0E6F008CFF43F0400EE4
:104820004224D96E000E4320DA6E000EDF6EFE0EBB
:104830006F008CFF42F0FF0E6F008CFF43F0410EC3
:104840004224D96E000E4320DA6E000EDF6EFD0E9C
:10485000E350D8B411D0400EE66E000EE66E000EA6
:10486000E66E000EE66EFA0E6F008FFFE6FF6F0039
:104870008FFFE6FF63EC92F0E552E552E55212003D
:10488000E652E65217501810D8A409D0FE0E600068
:104890005FF0E3FFFF0E600063F0E3FF16D0FF0E52
:1048A000426EFF0E436E60005CF040F0600060F00E
:1048B00041F04250402643504122FE0E600003F179
:1048C000E3FFFF0E600007F1E3FFFB0E6F008CFFBC
:1048D000D6F10101D76BFE0E6F008FFFE6FF6F0070
:1048E0008FFFE6FFD60EE66E010EE66EF80E6F0045
:1048F0008FFFE6FF6F008FFFE6FFB5EC9EF0FB0E2B
:10490000E126FF0EE222120000004B4F4F524242BE
:1049100042423433323144453231534B4F4F52428D
:104920004242423430303332314445524623014111
:104930000101210201010000000180038A0000350D
:104940000000004F4B4F4F5242424242343332310B
:1049500044453231534B5242180141003332314405
:1049600045524607014102010101210201010000F7
:10497000000180058A000035000E3B01F96F100E22
:10498000FA6F000EFB6F3D0EF16F110EF06F030E0C
:10499000FD6F000EF86F010EF76F000EEF6F010E46
:1049A000EE6F150EFF6FFE6B3901A293A291A297D5
:1049B000A2959283928192879285F16B010EF26F9C
:1049C000040EF36F020EF46F030EF76FD29E3901DF
:1049D000550EEF6FAA0EEF6FEF81D28E3B01FC6B8D
:1049E0001200E652D2AE03D0436A432A01D0436A92
:1049F000FF0E60000FF1E3FFFE0EE124D96EFF0E03
:104A0000E220DA6EDF50030B3901E16FFD0E6F001B
:104A10008FFFE0F9FC0E6F008FFFE3F93F0EE51703
:104A2000E585D29E550EE66FAA0EE66FE583E5B3E7
:104A3000FED7E595FF0EE3B002D0D29E01D0D28E14
:104A4000E552E552E552E5521200E652D28AD2AE64
:104A500003D0436A432A01D0436AFF0E60000FF17E
:104A6000E3FFD29E550ED46EAA0ED46ED4903801B8
:104A70009F6B9E6B080E9D6F550ED46EAA0ED46E62
:104A8000D480FF0EE3B002D0D29E01D0D28E390185
:104A900082878283828182858687868583898387D0
:104AA00081818581878B8981888D8185E55212007E
:104AB00039019397F60EE66E550EE66E010EE66E20
:104AC00092ECA9F039019399600EE66E510EE66EF4
:104AD000010EE66E7EECA9F03D01EC6BED6BEE6B2A
:104AE000EF6BF06BF16BB00EF26F800EF36FF46B47
:104AF000820EF56F060EF66FF76BF86BF96BFA6BBB
:104B0000376A366A400E356E346A336A326A390162
:104B100093871200E652E652FB0EE124426EFF0E2E
:104B2000E220436EFF0E60000FF1E3FFFE0E600017
:104B30000BF1E3FFFE0EE124386EFF0EE220396E2A
:104B40006000E3F0E6FF6000E7F0E6FFF90E6F00BB
:104B50008FFFE6FF6F008FFFE6FF000EE66E000E90
:104B6000E66E09ECA2F0E552E552E552E750E15E4F
:104B7000000EE25A120039019695160EE66E560E98
:104B8000E66E010EE66E6AECA9F0390196978C0E7E
:104B9000E66E510EE66E010EE66E56ECA9F03D0192
:104BA000D46BD66BD86BB00EDA6F800EDB6FDC6B1C
:104BB000820EDD6F060EDE6FDF6BE06BE16BE26B8A
:104BC000316A306A400E2F6E2E6A2D6A2C6A3901C6
:104BD000968512000001E06BE16BE26BE36B09D09C
:104BE00000F00400010E0001E027000EE123E223A3
:104BF000E323FC0E6F008CFF38F0E051385CFD0EB3
:104C00006F008CFF38F0E1513858FE0E6F008CFFBA
:104C100038F0E2513858FF0E6F008CFF38F0E35146
:104C20003858D8B0DDD7E552E552E552E5521200CA
:104C3000BE82ECECABF0000EE66E60004FF3E6FFD8
:104C4000600053F3E6FFF7ECA3F0BC92BC943B0189
:104C5000FC9F000EF86F010EF76FFC8FFF0EE35004
:104C6000E66E000EE66EFB0EE66EFF0EE66E040EBE
:104C7000E66E8AECA5F0EFECABF046ECABF0BC8254
:104C8000E552120060000CF1FFF013EEF2F2390170
:104C9000A89D60008FF0E6FF600093F0E6FF90ECC7
:104CA000A7F021EE68F1DF500001FD6FFE6B050EED
:104CB000FD27000EFE23214A222AFD51215CFE51D0
:104CC0002258D8A004D0A5ECAAF0216A226A60007C
:104CD000FCF343F01100286E756C6C290000000194
:104CE00001A54B434F4C44414F4C08410201010187
:104CF00037310241020101000000018029820000D9
:104D000021000000010001210201010000000180DA
:104D10000E0100001100000041110101000000011E
:104D200080040100000E21EE37F1DE2A000EDD22A4
:104D3000020E6F00A0FFF6F321EE39F1870EDF16A9
:104D4000000E6F00A0FFFCF321EE2DF1DF50D8A480
:104D500009D0010E6F00A0FF29F5020E6F00A0FF21
:104D60002AF51200010E6F00A0FF29F50E0E6F004C
:104D7000A0FF2AF512003901A191D290EA0EE66E49
:104D8000570EE66E010EE66E0AECAAF0390191812B
:104D9000A591D292EC0EE66E570EE66E010EE66E0F
:104DA000F6ECA9F039019581A79BD294EE0EE66E40
:104DB000570EE66E010EE66EE2ECA9F03901978B14
:104DC00012003E01DE6BDF6BE06BE16BE46BE56BC9
:104DD000EA6BEC6BF16BF36BF46BF56BF66BF76BEB
:104DE000F96BFA6BFB6BFC6B020EFD6FFE6BFF6BDE
:104DF000940EF86F3901A1959185F00EE66E570E6D
:104E0000E66E010EE66E1EECAAF012009B6A9C6A2A
:104E1000010E9D6E630E996EC00E986E98506F00D5
:104E200064FE38F0396A6000E0F039F0386A381012
:104E3000236E3950246E3901A89D988DDE0EE66EE2
:104E4000560EE66E010EE66ECEECA9F0310E9A6EAD
:104E50001200FF0EE3BE07D0FF0EE35012E1FE0E7C
:104E6000E304D8B00ED0FE0E6F008CFF38F0381E71
:104E7000FF0E6F008CFF39F0391E382AD8B4392A5A
:104E800008D0FE0E6F008CFF38F0FF0E6F008CFF15
:104E900039F0E552E5521200E652FF0EE36AFF0ECA
:104EA000E350020DF350B00FD96EDA6ADE50DE1017
:104EB000D8B40AD0FF0EE350020DF350B00FD96EF4
:104EC000DA6ADE06000EDD5AFF0EE32AFF0E6F00DF
:104ED0008CFF38F0070E3864E2D7E552120025EC5B
:104EE000A5F092ECABF008ECA3F087ECABF0E1ECB2
:104EF000A6F02AECABF0BBECA6F0A6ECA9F0B7EC60
:104F0000AAF006ECA7F038ECABF058ECA5F0BBEC3F
:104F1000A5F07CECABF0BCECA4F0C3ECABF0120061
:104F20009AA40FD09A90FF0EE124D96EFF0EE220D2
:104F3000DA6EDF50996EFE0E6F008FFF98FF9A8039
:104F40000CD0FF0EE124D96EFF0EE220DA6EDF50A6
:104F5000996EFE0E6F008FFF98FFE552E55212002A
:104F60002F50D8B4FDD7390196B705D0FF0E6F008A
:104F70008FFFD2FD11D09697400E3124D96EDA6A98
:104F8000020EDA22FF0E6F008FFFDFFF312A3F0E85
:104F9000316401D0316A2F069687E55212003550F0
:104FA000D8B4FDD7390193B905D0FF0E6F008FFF3C
:104FB000EAFD11D09399C00E3724D96EDA6A020E39
:104FC000DA22FF0E6F008FFFDFFF372A3F0E3764B4
:104FD00001D0376A35069389E5521200E6522C500B
:104FE000D8B4FDD7000E2D24D96EDA6A020EDA226B
:104FF000DF50436EFF0E60000FF1E3FF2D2A3F0EDE
:105000002D6401D02D6A390196952C069685FF0EE8
:105010006F008CFF38F0E5521200E6523250D8B4DF
:10502000FDD7800E3324D96EDA6A020EDA22DF5001
:10503000436EFF0E60000FF1E3FF332A3F0E33642F
:1050400001D0336A3901939732069387FF0E6F00C0
:105050008CFF38F0E5521200FD0E6F008CFF42F01D
:10506000FE0E6F008CFF43F0D8904234406E433404
:10507000416EFF0EE350020DF350B00FD96EDA6AA5
:10508000600003F1DEFF600007F1DDFFE552E5524D
:10509000E5521200FE0E6F008FFFE6FF6F008FFFDC
:1050A000E6FF000EE66E2CECA8F005D000F000F054
:1050B00000F000F00400000EE66E81ECAAF038501B
:1050C000D8B4F4D7E552E5521200FE0E6F008CFF03
:1050D00043F0FF0EE350100DF3504324800FE66EB3
:1050E00018ECA6F0FC0E6F008FFFE6FF6F008FFF3D
:1050F000E6FFB4ECA2F0E552E552E552E5521200AB
:10510000FE0EE350FF0F426EFF0E6F008CFF43F068
:10511000FF0E4322600008F1F5F060000CF1F6F09C
:105120000001F76BF86BF96BFA6BFB6BFC6BE552EC
:10513000E552120013EEF2F23901A1950001EA5195
:10514000EB11EC11D8B4110001D811000500FA6E72
:10515000EA51FD6EEB51FE6EEC51FF6EFA501200FB
:10516000400E356010D0C00E3624D96EDA6A020EB9
:10517000DA22DF503D01EA6F362A3F0E366401D055
:10518000366A352A1200390193991200400E2F60B9
:1051900010D0400E3024D96EDA6A020EDA22DF50C7
:1051A0003D01D26F302A3F0E306401D0306A2F2A81
:1051B000120039019697120039019695000E2E249F
:1051C000D96EDA6A020EDA22FF0E6F008FFFDFFF60
:1051D0002E2A3F0E2E6401D02E6A2C2A9685E55287
:1051E000120039019397800E3424D96EDA6A020EC8
:1051F000DA22FF0E6F008FFFDFFF342A3F0E346488
:1052000001D0346A322A9387E5521200FE0EE35031
:10521000D8B402D01F6A206AFF0EE3501F26000E8A
:10522000202260007CF038F0600080F039F0E55218
:10523000E5521200BC92BC94FF0EE350E66E1BECEC
:10524000ABF0200EE66E030EE66E000EE66E000E6C
:10525000E66EEAECA5F0BC82E5521200BC92BC946A
:10526000FF0EE350E66E1BECABF01E0EE66E000E7A
:10527000E66E000EE66E000EE66EEAECA5F0BC826D
:10528000E5521200430EE66E000EE66E000EE66E6C
:10529000000EE66EFA0E6F008FFFE6FF6F008FFFC5
:1052A000E6FF63EC92F0E552E5521200E150FD0F8B
:1052B000D96EE250DA6EFF0EDA226F0078FF08F046
:1052C0006F0078FF09F06F0074FF0AF0E552E552B5
:1052D000E5521200E150FD0FD96EE250DA6EFF0E7A
:1052E000DA226F0078FF0BF06F0078FF0CF06F0090
:1052F00074FF0DF0E552E552E5521200E150FD0F4A
:10530000D96EE250DA6EFF0EDA226F0078FFEDF010
:105310006F0078FFEEF06F0074FFEFF0E552E5529A
:10532000E5521200E150FD0FD96EE250DA6EFF0E29
:10533000DA226F0078FFF0F06F0078FFF1F06F0075
:1053400074FFF2F0E552E552E5521200010E966E3E
:10535000956A976A030E936E926A3901A9919981B1
:10536000980EE66E4E0EE66E010EE66EBAECA9F0F1
:1053700094681200E150FD0FD96EE250DA6EFF0E14
:10538000DA226F0078FFE7F06F0078FFE8F06F0037
:1053900074FFE9F0E552E552E5521200E150FD0FCD
:1053A000D96EE250DA6EFF0EDA226F0078FFE4F079
:1053B0006F0078FFE5F06F0074FFE6F0E552E5520C
:1053C000E5521200E150FD0FD96EE250DA6EFF0E89
:1053D000DA226F0078FF0EF06F0078FF0FF06F0099
:1053E00074FF10F0E552E552E5521200E150FD0F56
:1053F000D96EE250DA6EFF0EDA226F0078FF11F0FC
:105400006F0078FF12F06F0074FF13F0E552E55261
:10541000E5521200E150FD0FD96EE250DA6EFF0E38
:10542000DA226F0078FF14F06F0078FF15F06F003C
:1054300074FF16F0E552E552E5521200E150FD0FFF
:10544000D96EE250DA6EFF0EDA226F0078FFEAF0D2
:105450006F0078FFEBF06F0074FFECF0E552E5525F
:10546000E552120013EEF2F20001ED51EE11EF11D0
:10547000D8B4110001D811000500FA6EED51FD6E8F
:10548000EE51FE6EEF51FF6EFA50120013EEF2F283
:105490000001F051F111F211D8B4110001D811003E
:1054A0000500FA6EF051FD6EF151FE6EF251FF6E85
:1054B000FA50120013EEF2F2085009100A10D8B494
:1054C000110001D811000500FA6E0850FD6E095058
:0A54D000FE6E0A50FF6EFA50120043
:1054DC0013EEF2F20B500C100D10D8B4110001D8D1
:1054EC0011000500FA6E0B50FD6E0C50FE6E0D5047
:1054FC00FF6EFA5012000400FF0EE350020DF35041
:10550C00B00FD96EDA6ADE50DE10D8A402D0010ECC
:10551C0001D0000E386EE55212000001E751E8117F
:10552C00E911D8B4120001D812000500FA6EE75147
:10553C00FD6EE851FE6EE951FF6EFA50120000014B
:10554C00E451E511E611D8B4120001D8120005009F
:10555C00FA6EE451FD6EE551FE6EE651FF6EFA50A7
:10556C0012003C01756B040E766F040E776F040EFF
:10557C00786F040E796F7A6B7B6B7C6B7D6B810E15
:10558C00746F1200145015101610D8B4120001D8F4
:10559C0012000500FA6E1450FD6E1550FE6E16507A
:1055AC00FF6EFA501200115012101310D8B41200E2
:1055BC0001D812000500FA6E1150FD6E1250FE6EED
:1055CC001350FF6EFA5012000E500F101010D8B47A
:1055DC00120001D812000500FA6E0E50FD6E0F502D
:1055EC00FE6E1050FF6EFA501200800E3424D96EED
:1055FC00DA6A020EDA226F00A3F7DFFF342A3F0EBD
:10560C00346401D0346A322A1200000E2E24D96E72
:10561C00DA6A020EDA226F0043F7DFFF2E2A3F0E02
:10562C002E6401D02E6A2C2A1200010E3D01126F3D
:10563C00FF0E6F008FFF11FD3901A2A9FDD76F007E
:10564C0040F438F0E55212003F013E6B3F6B3A6B71
:10565C00396B386B060E3D6FC70E3C6FAE0E3B6F51
:10566C003E8F12003C01FA99FB81FB93FB89FB9B5B
:10567C00130EFC6F0E0EFE6F040EFD6FFA8F1200F0
:10568C000001CDB7FDD7320EE66E000EE66E000EB1
:10569C00E66E000EE66EEAECA5F01200FF0EE3508B
:1056AC00E66E60004FF3E6FF600053F3E6FF5FEC3D
:0656BC00A2F0E55212000D
:1056C4006000E0F05EF013EEF2F23901A99193EC80
:1056D400AAF0600078F138F01100BEA002D0010EEB
:1056E40001D0000EFF0A436EBE504318FE0B431850
:1056F400BE6E1200400E3D01156F030E166F4F0E65
:10570400196F1C6B830E146F1200200E3901D96FB0
:10571400DB6BDD6B020EDF6FDE6BDCB11200FDD7DD
:105724003901C06BC16BC26BC36BC46BC56BC66BF9
:10573400C76B120013EEF2F23901A2910001CD976A
:10574400BE921100FF0EE350E66E18ECA6F0E5528F
:02575400120041
:0E57580013EEF2F23901A191C8ECAAF0110093
:0E57680013EEF2F23901A591D9ECAAF011006E
:1057780013EEF2F23901A79BEAECAAF011003C0102
:10578800E66B940EE56F120013EEF2F23901A29364
:025798001100FE
:0A579C0013EEF2F23901A29711009A
:1057A80013EEF2F23901A29511006000BCF038F056
:1057B80012006000D4F038F012006000B0F038F049
:1057C80012006000C8F038F0120001010101010365
:1057D8000001CD8712003B01FC8D120013EEF2F29E
:0A57E800110012001200120012005E
:020000040020DA
