:020000040000FA
:0400000057EF00F0C6
:10000800FC55FC55FC55FC55FC55FC55FC55FC5560
:10001800DA55FC555154FC55FC55FC55FC55FC551E
:10002800D255E855EE55EB55FC55FC55FC55FC559D
:10003800FC55FC55FC5527551D55FC55FC55FC55E4
:10004800FC55FC55FC55FC552B00FC55FC55FC5546
:10005800DE55FC55FC55FC55FC55FC55FC55FC552E
:10006800FC55FC553B553155FC55FC55FC55FC558C
:10007800FC55FC552B00FC55FC55E2552B002B007C
:100088002B002B002B002B002B002B002653FC559C
:10009800B555FC55FC55FC552B002B002B002B00AF
:0E00A800FC55FC55FF0011EE69F292EF9FF03F
:10FDF000005225642025642C20542564202564208D
:10FE00004325642020464742404D434850202573F7
:10FE100020202020202020202020202020202020E2
:10FE200020202020202020202020202020202020D2
:10FE300020202020202020202020202020202020C2
:10FE4000202020202020202020202000204C6F6710
:10FE50002066696C652072657365742020202020FF
:10FE6000202020202000205465726D696E616C2076
:10FE70002564202020202020202020202020200059
:10FE80004C4F473A2055256420472564202564209F
:10FE90002564202020202020230052256420256472
:10FEA0002C20542564202564204325642020202014
:10FEB0002020230020434D44202563202563204C2F
:10FEC000656E2025642020202020202000484F53EC
:10FED000543A20256C6420472564202020202020CF
:10FEE0002300205465726D696E616C2020202020F3
:10FEF00020202020200020532564462564206C6F9C
:10FF0000676765642025642020005361766564205E
:10FF10005331462564202020202020002053746F78
:10FF20007265642023256420202020202000205397
:10FF300025644625642023256C6420202020200091
:10FF400045256420412564205425642047256420EC
:10FF500023005361766564205332462564202020B7
:10FF600020200053617665642053364625642020A6
:10FF70002020200020483235342025642C205425B0
:10FF80006C642020002050696E6720472564202083
:10FF90005025642023002052564920484F535420B6
:10FFA00054455354455200532564462564204572F8
:10FFB00072202020200020464742404D43485020D8
:10FFC00046414234002053256446256420232020E6
:10FFD0002020002056657273696F6E202573002003
:10FFE0004F4B202300204F4B512300312E313247FD
:0FFFF000004F4B20006C64006C6900256300001B
:020000040001F9
:10000000E65276ECA7F0D28ED28C000E6F00A0FFE5
:10001000F7F32C0EE66E010EE66E51ECA8F0CBA0C5
:1000200004D0FF0EE36AE32A04D0FF0EE36AE38004
:10003000E382FF0EE304D8A404D0BD80BD8237EF75
:1000400084F0BD90BD9237EF84F014ECA0F00C0E5C
:10005000E66EACECABF0FF0E6F008CFF45F060007D
:1000600014F1F7F3000E6F00A0FFF6F3A50EE66E95
:10007000070EE66E87ECA8F0960EE66EFF0EE66EB3
:10008000FC0EE66E030EE66E040EE66E0DEC9FF0BF
:10009000FC0EE66E030EE66E000EE66E000EE66ED9
:1000A00003EC9DF0EB0EE66EFF0EE66ED30EE66EF1
:1000B000FF0EE66EFC0EE66E030EE66E060EE66EB4
:1000C0000DEC9FF0FC0EE66E030EE66E000EE66E83
:1000D000010EE66E03EC9DF0B60EE66EFF0EE66EC8
:1000E000FC0EE66E030EE66E040EE66E0DEC9FF05F
:1000F000FC0EE66E030EE66E000EE66E020EE66E77
:1001000003EC9DF0B80EE66E0B0EE66E51ECA8F017
:10011000C4D3000E6F00A0FFFAF3000E6F00A0FF23
:10012000FBF3010E6F00A0FFF6F36100ABF4E8FFF4
:100130000A0AD8A479D16100AFF4E8FF0A0AD8A46A
:1001400073D121EE39F1DFAC1FD021EE24F16F0025
:100150007BFFE6FF6F007BFFE6FF6F007BFFE6FFA4
:100160006F007BFFE6FF010EE66E010EE66E740E79
:10017000E66EFF0EE66EFC0EE66E030EE66E0A0EEF
:10018000E66E0DEC9FF020D020EEF8F3DF50E66E27
:10019000000EE66E21EE1CF16F007BFFE6FF6F00A4
:1001A0007BFFE6FF6F007BFFE6FF6F007BFFE6FF54
:1001B000CD0EE66EFE0EE66EFC0EE66E030EE66EED
:1001C0000A0EE66E0DEC9FF0000E6F00A0FF0CF41F
:1001D000FC0EE66E030EE66E000EE66E020EE66E96
:1001E00003EC9DF021D1FA0EE66E030EE66E91EC63
:1001F0008AF0040E3A18D8A460D06100A3F4E8FF96
:10020000090AD8A41BD029C52CF521EE29F1DF500D
:10021000E66E000EE66E21EE28F1DF50E66E000E6F
:10022000E66EA70EE66EFF0EE66EFC0EE66E030EA1
:10023000E66E080EE66E0DEC9FF01CD0000E6F000F
:10024000A0FF2CF521EE29F1DF50E66E000EE66EE0
:1002500021EE28F1DF50E66E000EE66EC50EE66E6A
:10026000FF0EE66EFC0EE66E030EE66E080EE66E00
:100270000DEC9FF0000E6F00A0FF07F4FC0EE66E81
:10028000030EE66E000EE66E000EE66E03EC9DF0C9
:1002900021EE38F1DFA20DD0020E6F00A0FFF6F3C1
:1002A00021EE38F1870EDF16000E6F00A0FFFBF382
:1002B00004D0030E6F00A0FFF6F36000EBFFE8FF31
:1002C00011D0FB0EE66E030EE66ED3EC92F0040E38
:1002D0003A18D8A404D0030E6F00A0FFF6F3600014
:1002E000EFFFE8FF060AD8A49FD0060E39D021EE12
:1002F00039F1DFA819D0000E6F00A0FFFAF3000E4D
:100300006F00A0FFFBF3020E6F00A0FFF6F3E50EF7
:10031000E66EFF0EE66EFC0EE66E030EE66E040E53
:10032000E66E0DEC9FF010D0050E6F00A0FFF6F307
:10033000DF0EE66EFF0EE66EFC0EE66E030EE66E58
:10034000040EE66E0DEC9FF0FC0EE66E030EE66EFC
:100350000B0EE66E000EE66E03EC9DF065D0000E0F
:100360006F00A0FFF6F360D0000E6F00A0FFF6F361
:1003700020EEF8F3DF50E66E000EE66E21EE34F16B
:100380006F0078FF44F06F0074FF45F0600013F1D8
:10039000E6FF600017F1E6FF21EE2BF1DF50E66E7D
:1003A000000EE66E21EE2AF1DF50E66E000EE66EDC
:1003B000400EE66EFF0EE66EFC0EE66E030EE66E77
:1003C0000C0EE66E0DEC9FF0000E6F00A0FF0CF41B
:1003D000FC0EE66E030EE66E000EE66E020EE66E94
:1003E00003EC9DF0D00EE66E070EE66E51ECA8F021
:1003F0001BD020EEF6F3DF50446E456A4550000AEC
:10040000D8A4B2D74450000AD8B483D6010AD8B4CD
:10041000EAD6030AD8B455D7010AD8B468D7060A71
:10042000D8B49DD7030AA0D76100ABF4E8FF0A0A4D
:10043000D8A433D26100AFF4E8FF0A0AD8A42DD2C1
:1004400021EE39F1DFAC1FD021EE24F16F007BFFEC
:10045000E6FF6F007BFFE6FF6F007BFFE6FF6F00AC
:100460007BFFE6FF010EE66E010EE66E740EE66E91
:10047000FF0EE66EFC0EE66E030EE66E0A0EE66EEC
:100480000DEC9FF020D020EEF8F3DF50E66E000E6A
:10049000E66E21EE1CF16F007BFFE6FF6F007BFF35
:1004A000E6FF6F007BFFE6FF6F007BFFE6FFCD0EF0
:1004B000E66EFE0EE66EFC0EE66E030EE66E0A0EAD
:1004C000E66E0DEC9FF0000E6F00A0FF0CF4FC0E2A
:1004D000E66E030EE66E000EE66E020EE66E03ECAE
:1004E0009DF06000E3FFE8FF040AD8A406D0600096
:1004F000DBFFE8FF010AD8B404D021EE39F1DFAA0E
:10050000CCD1060EE66E89ECAAF03A50D8A404D0FD
:1005100021EE39F1DFAAC1D1300EE66E750EE66E1E
:10052000060EE66E33ECA8F075ECA6F021EE39F17C
:10053000DFBA34D021EE36F16F0078FF44F06F005F
:1005400074FF45F0600013F1E6FF600017F1E6FF6D
:1005500020EEF8F3DF50E66E000EE66E850EE66ED6
:10056000FF0EE66EFC0EE66E030EE66E080EE66EFD
:100570000DEC9FF0000E6F00A0FF0CF4FC0EE66E79
:10058000030EE66E000EE66E000EE66E03EC9DF0C6
:10059000E80EE66E030EE66E51ECA8F0000E6F005A
:1005A000A0FF2CF521EE39F1DF9A77D1000E6F0014
:1005B000A0FFF9F3010E6F00A0FFF6F321EE39F171
:1005C000DFAC1FD021EE24F16F007BFFE6FF6F0050
:1005D0007BFFE6FF6F007BFFE6FF6F007BFFE6FF20
:1005E000010EE66E010EE66E740EE66EFF0EE66E0E
:1005F000FC0EE66E030EE66E0A0EE66E0DEC9FF044
:1006000034D021EE32F16F0078FF44F06F0074FFB8
:1006100045F0600013F1E6FF600017F1E6FF21EE00
:1006200034F16F0078FF44F06F0074FF45F0600014
:1006300013F1E6FF600017F1E6FF20EEF8F3DF505C
:10064000E66E000EE66E21EE66F1DF50E66E000EFD
:10065000E66E800EE66EFE0EE66EFC0EE66E030E95
:10066000E66E0C0EE66E0DEC9FF0000E6F00A0FF24
:100670000CF4FC0EE66E030EE66E000EE66E020E45
:10068000E66E03EC9DF088D0F90EE66E030EE66E82
:10069000D0EC84F0040E3A18D8A43BD021EE1CF123
:1006A0006F007BFFE6FF6F007BFFE6FF6F007BFFC5
:1006B000E6FF6F007BFFE6FF21EE29F1DF50E66EDB
:1006C000000EE66E21EE28F1DF50E66E000EE66EBB
:1006D0002E0EE66EFF0EE66EFC0EE66E030EE66E66
:1006E0000C0EE66E0DEC9FF0000E6F00A0FF09F4FB
:1006F000FC0EE66E030EE66E000EE66E610098F5E7
:1007000045F04504E66E03EC9DF0030E6F00A0FF7C
:10071000F6F36000E7FFE8FF060AD8A43DD0060E16
:100720001FD0050E6F00A0FFF6F3F10EE66EFF0E70
:10073000E66EFC0EE66E030EE66E040EE66E0DEC43
:100740009FF0FC0EE66E030EE66E0D0EE66E610087
:1007500098F545F04504E66E03EC9DF01DD0000EC3
:100760006F00A0FFF6F318D020EEF6F3DF50446ED2
:10077000456A4550000AD8A4F2D74450000AD8B4BC
:1007800015D7010AD8B480D7020AD8B4CAD7060A46
:10079000D8B4E5D7030AE3D721EE39F1DFAC1FD097
:1007A00021EE24F16F007BFFE6FF6F007BFFE6FF89
:1007B0006F007BFFE6FF6F007BFFE6FF010EE66E3A
:1007C000010EE66E740EE66EFF0EE66EFC0EE66E31
:1007D000030EE66E0A0EE66E0DEC9FF034D021EEAD
:1007E00032F16F0078FF44F06F0074FF45F0600055
:1007F00013F1E6FF600017F1E6FF21EE34F16F0020
:1008000078FF44F06F0074FF45F0600013F1E6FFDD
:10081000600017F1E6FF20EEF8F3DF50E66E000E01
:10082000E66E21EE66F1DF50E66E000EE66E800E9B
:10083000E66EFE0EE66EFC0EE66E030EE66E0C0E27
:10084000E66E0DEC9FF0000E6F00A0FF0CF4FC0EA6
:10085000E66E030EE66E000EE66E020EE66E03EC2A
:100860009DF01BD0000E6F00A0FFF7F316D020EE16
:10087000F7F3DF50446E456A4550000AD8A4F2D71A
:100880004450000AD8B425EF80F0010AD8B4B1D59D
:10089000020AD8B469D7070AE5D721EE1CF1DE5069
:1008A000DE10DE10DE10D8B42ED021EE39F1DF508C
:1008B0000F0B0009D8B40BD0BD98BD8A6100ABF412
:1008C000E8FF0F0AD8A407D0BF98BF8A04D0BD881C
:1008D000BD9ABF88BF9A21EE38F1DF30E832E832A6
:1008E0000F0B0009D8B40BD0BD9CBD8E6100ABF4DA
:1008F000E8FF0F0AD8A407D0BF9CBF8E04D0BD8CE0
:10090000BD9EBF8CBF9E21EE32F16F0078FF44F098
:100910006F0074FF45F0600013F1E6FF600017F10F
:10092000E6FF21EE38F1DF30E832E8320F0BE66EF9
:10093000000EE66E20EEFBF3DF50E66E000EE66E74
:1009400021EE39F1DF500F0BE66E000EE66E20EE61
:10095000FAF3DF50E66E000EE66E9A0EE66EFE0EBD
:10096000E66EFC0EE66E030EE66E0E0EE66E0DEC07
:100970009FF0000E6F00A0FF0CF4FF0E6F008CFFC5
:100980003AF0030E3A18D8B472D7FC0EE66E030E96
:10099000E66E000EE66E010EE66E03EC9DF067D784
:1009A000E65206D3EDECABF03A50D8B428D014ECB4
:1009B000A8F0FF0E6000EBF0E3FFFF0E6F008CFF6E
:1009C0003AF0050E3A18D8A41AD0010E6F00A0FF15
:1009D00066F5D00EE66E070EE66E020EE66E33EC9E
:1009E000A8F00A0E6F00A0FF2AF5FD0E6F008FFF22
:1009F000D9FFFE0E6F008FFFDAFF010EDF6EE9EC0C
:100A0000ABF03A50D8B4F9D2F5ECA7F0FF0E600085
:100A1000EBF0E3FFFF0E6F008CFF3AF0050E3A1883
:100A2000D8A4EBD2020E6F00A0FF66F5D00EE66EE2
:100A3000070EE66E020EE66E33ECA8F00A0E6F00AB
:100A4000A0FF2AF5FD0E6F008FFFD9FFFE0E6F008D
:100A50008FFFDAFF010EAAD22C6A020EE66E89EC35
:100A6000AAF03A50D8B419D00C0E6F00A0FF2AF5A6
:100A700021EE34F1DE2A000EDD2221EE39F1DF50C5
:100A8000F00B0209DF6EFD0E6F008FFFD9FFFE0E27
:100A90006F008FFFDAFF050E89D261009BF5E8FF3A
:100AA000020AD8A429D0EDECABF03A50D8B424D047
:100AB00014ECA8F0FF0E6000EBF0E3FFFF0E6F00F8
:100AC0008CFF3AF0040E3A18D8A416D0D00EE66E79
:100AD000070EE66E020EE66E33ECA8F00A0E6F000B
:100AE000A0FF2AF5FD0E6F008FFFD9FFFE0E6F00ED
:100AF0008FFFDAFF020EDF6E61009BF5E8FF010A4F
:100B0000D8A47BD2E9ECABF03A50D8B476D2F5EC6D
:100B1000A7F0FF0E6000EBF0E3FFFF0E6F008CFF0D
:100B20003AF0040E3A18D8A468D2D00EE66E070E3A
:100B3000E66E020EE66E33ECA8F00A0E6F00A0FF20
:100B40002AF5FD0E6F008FFFD9FFFE0E6F008FFF9D
:100B5000DAFF020E2BD2020EE66E89ECAAF03A50B2
:100B6000D8A482D761009BF5E8FF010AD8A4D2D0AF
:100B7000EDECABF03A50D8B4CDD014ECA8F0FF0EA9
:100B80006000EBF0E3FF2C50D8A418D0FF0E6F00EC
:100B90008CFF7CF0010EE66E000EE66E0EECA9F006
:100BA0002C2A2C506908D96E000ED8A0E82A060815
:100BB000DA6EFF0E6F008FFFDFFFACD00B0E2C60E4
:100BC0000CD02C501908D96E000ED8A0E82A0108C4
:100BD000DA6EFF0E6F008FFFDFFF2C5000017C5D8F
:100BE000D8A00DD0000EE66EFE0EE350E66E0EECC1
:100BF000A9F06000E8F02EF56000ECF02FF52C5025
:100C0000446E456A00017C51426E436A010E4226E1
:100C1000000E43224450421809E145504318D8A41D
:100C200005D0FF0EE35001010E6F0D6B2C50446E8A
:100C3000456A00017C51426E436A020E4226000E54
:100C40004322445042180AE145504318D8A406D024
:100C5000FF0EE35001010D27000E0E232C2A2C500D
:100C60006908D96E000ED8A0E82A0608DA6EFF0ED1
:100C70006F008FFFDFFF2C50446E456A00017C51EE
:100C8000426E436A020E4226000E43224450425CEA
:100C90004350800A3A6E4550800A3A58D8B03AD04C
:100CA00021EE2EF101010D51DE1810E10E51DE187A
:100CB000D8A40CD0FD0E6F008FFFD9FFFE0E6F0081
:100CC0008FFFDAFF030E25D014ECA8F0EDECABF0AB
:100CD0003A50D8A4F9D7F40EE66E010EE66E51EC48
:100CE000A8F00F0E6F00A0FF2AF521EE32F1DE2AE8
:100CF000000EDD2221EE39F1DF50F00B0309DF6E2B
:100D0000FD0E6F008FFFD9FFFE0E6F008FFFDAFF21
:100D1000050EDF6E61009BF5E8FF020AD8A46DD1D5
:100D2000E9ECABF03A50D8B468D1F5ECA7F0FF0E7F
:100D30006000EBF0E3FF2C50D8A418D0FF0E6F003A
:100D40008CFF7CF0010EE66E000EE66E0EECA9F054
:100D50002C2A2C506908D96E000ED8A0E82A060863
:100D6000DA6EFF0E6F008FFFDFFF47D10B0E2C6096
:100D70000CD02C501908D96E000ED8A0E82A010812
:100D8000DA6EFF0E6F008FFFDFFF2C5000017C5DDD
:100D9000D8A00DD0000EE66EFE0EE350E66E0EEC0F
:100DA000A9F06000E8F02EF56000ECF02FF52C5073
:100DB000446E456A00017C51426E436A010E422630
:100DC000000E43224450421809E145504318D8A46C
:100DD00005D0FF0EE35001010E6F0D6B2C50446ED9
:100DE000456A00017C51426E436A020E4226000EA3
:100DF0004322445042180AE145504318D8A406D073
:100E0000FF0EE35001010D27000E0E232C2A2C505B
:100E10006908D96E000ED8A0E82A0608DA6EFF0E1F
:100E20006F008FFFDFFF2C50446E456A00017C513C
:100E3000426E436A020E4226000E43224450425C38
:100E40004350800A3A6E4550800A3A58D8B0D5D0FF
:100E500021EE2EF101010D51DE1810E10E51DE18C8
:100E6000D8A40CD0FD0E6F008FFFD9FFFE0E6F00CF
:100E70008FFFDAFF030E9AD0F5ECA7F0E9ECABF0A8
:100E80003A50D8A4F9D7F40EE66E010EE66E51EC96
:100E9000A8F00F0E6F00A0FF2AF521EE32F1DE2A36
:100EA000000EDD2221EE39F1DF50F00B0409EAD506
:100EB000010116517F0B456E600014F128F521EEFB
:100EC00029F1600057F4DFFF20EE0FF16F0078FF8B
:100ED00020F56F0078FF21F56F0078FF22F56F0095
:100EE00074FF23F521EE38F118BF02D0DF9001D056
:100EF000DF8021EE38F1010116BF02D0DF9201D070
:100F0000DF8221EE38F1010114BF02D0DF9401D05D
:100F1000DF8421EE39F1F00EDF16E80EE66E030EE7
:100F2000E66E21EE29F1DF50E66E21EE28F1DF506A
:100F3000E66E2CEC91F021EE29F1DF50E66E21EE09
:100F400028F1DF50E66E56ECA1F06000E8F0F8F30F
:100F5000FD0E6F008FFFD9FFFE0E6F008FFFDAFFCF
:100F6000040E24D0FD0E6F008FFFD9FFFE0E6F0020
:100F70008FFFDAFF060EDF6E02D014ECA8F03450BB
:100F8000D8B403D0FAD7F5ECA7F02E50D8B435D0AA
:100F9000FAD721EE39F1F00EDF16FD0E6F008FFF4C
:100FA000D9FFFE0E6F008FFFDAFF000EDF6E25D037
:100FB000FD0E6F008FFFD9FFFE0E6F008FFFDAFF6F
:100FC000DF50446E456A4550000AD8A4E6D7445025
:100FD000000AD8B4E7D4010AD8B43ED5030AD8B47D
:100FE000BAD5010AD8B464D7070AD8B4D2D7010A4F
:100FF000D8B4B8D7030AD8A4D0D7FD0E6F008FFF9E
:10100000D9FFFE0E6F008FFFDAFFDF503A6EE55218
:10101000E552E55212000B0EE126000EE222F10E1F
:101020006F008FFFD9FFF20E6F008FFFDAFF6F00A6
:101030007BFFF6FF6F0077FFF7FF000EF86E0800EA
:10104000F550250AD8A43ED2F10E6F008FFFD9FFCC
:10105000F20E6F008FFFDAFFDE2A000EDD221A6A21
:101060001B6A1E6A1F6A1C681D68F10E6F008FFFE5
:10107000D9FFF20E6F008FFFDAFF6F007BFFF6FFE4
:101080006F0077FFF7FF000EF86E0800F550630A57
:10109000D8A436D0F10E6F008FFFD9FFF20E6F008B
:1010A0008FFFDAFFDE2A000EDD22EF0E6F008FFFCA
:1010B000D9FFF00E6F008FFFDAFF020EDE5E000E2A
:1010C000DD5A6F0078FF44F06F0074FF45F0600058
:1010D00013F1D9FF600017F1DAFFDF50456EFF0E04
:1010E000600017F1E3FFFF0EE350E66EF20E6F00B3
:1010F0008FFFE6FF6F008FFFE6FF4AECA4F00CD2F3
:10110000F10E6F008FFFD9FFF20E6F008FFFDAFF35
:101110006F007BFFF6FF6F0077FFF7FF000EF86EA2
:101120000800F550640AD8B415D0F10E6F008FFF97
:10113000D9FFF20E6F008FFFDAFF6F007BFFF6FF23
:101140006F0077FFF7FF000EF86E0800F550690A90
:10115000D8A475D0F10E6F008FFFD9FFF20E6F008B
:101160008FFFDAFFDE2A000EDD22EF0E6F008FFF09
:10117000D9FFF00E6F008FFFDAFF020EDE5E000E69
:10118000DD5A6F0078FF44F06F0074FF45F0600097
:1011900013F1D9FF600017F1DAFF6F0078FF44F018
:1011A0006F0074FF45F0F50E600013F1E3FFF60EDB
:1011B000600017F1E3FF3A6AE3BE3A68F70E600099
:1011C000EBF0E3FFF80E6000EBF0E3FFF90E6000D8
:1011D000EBF0E3FFFA0E6000EBF0E3FFFB0E6000C4
:1011E000EBF0E3FFFC0E6000EBF0E3FFE150F50FE6
:1011F000D96EE250DA6EFF0EDA226F007BFFE6FF57
:101200006F007BFFE6FF6F007BFFE6FF6F007BFF59
:10121000E6FF6F007BFFE6FF6F007BFFE6FF6F00DE
:101220007BFFE6FF6F007BFFE6FFEB0E6F008FFF9B
:10123000E6FF6F008FFFE6FFF7EC8CF06DD1020E3A
:10124000E66E000EE66EF50EE66EFF0EE66EED0E35
:101250006F008FFFD9FFEE0E6F008FFFDAFF6F0078
:1012600078FF44F06F0074FF45F0600013F1E6FF73
:10127000600017F1E6FF05EC9CF03A503B10D8B443
:1012800022D0020EE66E000EE66EF80EE66EFF0E3F
:10129000E66EED0E6F008FFFD9FFEE0E6F008FFF31
:1012A000DAFF6F0078FF44F06F0074FF45F06000D4
:1012B00013F1E6FF600017F1E6FF05EC9CF03A50F1
:1012C0003B10D8A469D0F10E6F008FFFD9FFF20E4A
:1012D0006F008FFFDAFF020EDE26000EDD22EF0E1A
:1012E0006F008FFFD9FFF00E6F008FFFDAFF040E43
:1012F000DE5E000EDD5A6F0078FF44F06F0074FF71
:1013000045F0600013F1D9FF600017F1DAFF6F00BC
:1013100078FF42F06F0078FF43F06F0078FF44F0F1
:101320006F0078FF45F0600008F14AF060000CF1B2
:101330004BF0600010F14CF0600014F14DF04E6A7B
:101340004DBE4E68600038F14FF0600038F150F04B
:10135000600038F151F0F50E60002BF1E3FFF60E5E
:1013600060002FF1E3FFF70E600033F1E3FFF80EAA
:10137000600037F1E3FFF90E60003BF1E3FFFA0E86
:1013800060003FF1E3FFFB0E600043F1E3FFFC0E62
:10139000600047F1E3FF2AD7F10E6F008FFFD9FFFE
:1013A000F20E6F008FFFDAFF6F007BFFF6FF6F001A
:1013B00077FFF7FF000EF86E0800F550730AD8A407
:1013C00042D0F10E6F008FFFD9FFF20E6F008FFF3A
:1013D000DAFFDE2A000EDD22EF0E6F008FFFD9FF4D
:1013E000F00E6F008FFFDAFF020EDE5E000EDD5A98
:1013F0006F0078FF44F06F0074FF45F0600013F158
:10140000D9FF600017F1DAFF6F0078FF44F06F003A
:1014100074FF45F0FE0E600017F1E3FFFD0E600063
:1014200013F1E3FFFD0E6F008FFFE6FF6F008FFFEC
:10143000E6FFF10E6F008FFFE6FF6F008FFFE6FF04
:10144000CEEC95F069D0F10E6F008FFFD9FFF20E50
:101450006F008FFFDAFF6F007BFFF6FF6F0077FFF3
:10146000F7FF000EF86E0800F550250AD8A41AD030
:10147000F10E6F008FFFD9FFF20E6F008FFFDAFFC2
:10148000DE2A000EDD22F30E6F008FFFE6FF6F00F5
:101490008FFFE6FF250EE66E000EE66EF1EC9DF086
:1014A000010E0CD0F10E6F008FFFD9FFF20E6F000E
:1014B0008FFFDAFFDE2A000EDD22000E3A6E000EEC
:1014C0003B6E2AD0F30E6F008FFFE6FF6F008FFF99
:1014D000E6FFEF0E6F008FFFD9FFF00E6F008FFF5A
:1014E000DAFF6F007BFFF6FF6F0077FFF7FF000E5C
:1014F000F86E0800F550E66E000EE66EF1EC9DF019
:10150000F10E6F008FFFD9FFF20E6F008FFFDAFF31
:10151000DE2A000EDD22C4D7EF0EE126FF0EE22206
:101520001200E65231D2EDECABF03A50D8B451D2C1
:1015300014ECA8F0FF0E6000EBF0E3FFFF0E6F006D
:101540008CFF3AF0050E3A18D8A443D2BEA402D0BC
:10155000010E01D0000EFF0A456E45464546BE50BD
:101560004518FB0B4518BE6E0A0E6F00A0FF2AF54A
:10157000FD0E6F008FFFD9FFFE0E6F008FFFDAFFA9
:10158000010EE4D12B6A680E206E050E216E040E4A
:10159000E66ED6ECA7F0D00EE66E070EE66E020EF3
:1015A000E66E33ECA8F0FD0E6F008FFFD9FFFE0E44
:1015B0006F008FFFDAFF020EC9D1020EE66E89ECD2
:1015C000AAF03A50D8B427D021EE34F1DE2A000E2A
:1015D000DD225D065D28D8A414D00C0E6F00A0FF9C
:1015E0002AF521EE39F1DF50F00B0109DF6EFD0E17
:1015F0006F008FFFD9FFFE0E6F008FFFDAFF050E21
:10160000A5D1FD0E6F008FFFD9FFFE0E6F008FFF7B
:10161000DAFF000E9BD1EDECABF03A50D8B4D9D143
:1016200014ECA8F0FF0E6000EBF0E3FF2B50D8A401
:101630001CD0FF0E6F008CFF7CF0010EE66E000EDA
:10164000E66E0EECA9F02B2A2B50205C446E000EA7
:101650002158456E010E4424D96E010E4520DA6EE4
:10166000FF0E6F008FFFDFFFB4D10B0E2B600CD08D
:101670002B501908D96E000ED8A0E82A0108DA6E9E
:10168000FF0E6F008FFFDFFF0B0E2B18D8A407D0C3
:10169000FF0E6F008CFF45F0600014F13AF50C0E60
:1016A0002B18D8A407D0FF0E6F008CFF45F0600008
:1016B00014F13BF50D0E2B18D8A407D0FF0E6F00C8
:1016C0008CFF45F0600014F13CF50E0E2B18D8A4E9
:1016D00007D0FF0E6F008CFF45F0600014F13DF560
:1016E0000F0E2B18D8A407D0FF0E6F008CFF45F00B
:1016F000600014F13EF5100E2B18D8A407D0FF0E91
:101700006F008CFF45F0600014F13FF5110E2B18AF
:10171000D8A407D0FF0E6F008CFF45F0600014F1D5
:1017200040F5120E2B18D8A407D0FF0E6F008CFFC7
:1017300045F0600014F141F5130E2B18D8A407D022
:10174000FF0E6F008CFF45F0600014F142F5140E9F
:101750002B18D8A407D0FF0E6F008CFF45F0600057
:1017600014F143F52B5000017C5DD8A00DD0000E84
:10177000E66EFE0EE350E66E0EECA9F06000E8F0B7
:101780002EF56000ECF02FF52B50446E456A0001F9
:101790007C51426E436A010E4226000E43224450A1
:1017A000421809E145504318D8A405D0FF0EE35074
:1017B00001010E6F0D6B2B50446E456A00017C5188
:1017C000426E436A020E4226000E432244504218E3
:1017D0000AE145504318D8A406D0FF0EE35001019A
:1017E0000D27000E0E232B2A2B50205C446E000E7A
:1017F0002158456E010E4424D96E010E4520DA6E43
:10180000FF0E6F008FFFDFFF2B50446E456A000113
:101810007C51426E436A020E4226000E432244501F
:10182000425C4350800A3A6E4550800A3A58D8B01C
:10183000D0D021EE2EF101010D51DE1810E10E5134
:10184000DE18D8A40CD0FD0E6F008FFFD9FFFE0E5E
:101850006F008FFFDAFF030E79D014ECA8F0EDECE7
:10186000ABF03A50D8A4F9D7F40EE66E010EE66E4E
:1018700051ECA8F00F0E6F00A0FF2AF521EE32F117
:10188000DE2A000EDD2221EE39F1DF50F00B0209D5
:10189000ADD6010116517F0B456E600014F128F59D
:1018A00021EE29F1600057F4DFFF20EE0FF16F0009
:1018B00078FF20F56F0078FF21F56F0078FF22F5A3
:1018C0006F0074FF23F521EE38F118BF02D0DF90CE
:1018D00001D0DF8021EE38F1010116BF02D0DF9286
:1018E00001D0DF8221EE38F1010114BF02D0DF9474
:1018F00001D0DF84F40EE66E010EE66E21EE29F1D2
:10190000DF50E66E21EE28F1DF50E66E2CEC91F010
:1019100021EE29F1DF50E66E21EE28F1DF50E66E70
:1019200056ECA1F06000E8F0F8F3060EE66ED6EC97
:10193000A7F021EE39F1F00EDF16FD0E6F008FFFDC
:10194000D9FFFE0E6F008FFFDAFF040EDF6E41D06D
:10195000150EE66ED6ECA7F0FD0E6F008FFFD9FFD7
:10196000FE0E6F008FFFDAFF060EDF6E02D014EC62
:10197000A8F03450D8A4FBD7030E5D6E2AD021EE18
:1019800039F1F00EDF163DD6FD0E6F008FFFD9FF47
:10199000FE0E6F008FFFDAFFDF50446E456A455040
:1019A000000AD8A42ED64450000AD8B4BCD5010AE7
:1019B000D8B4E8D5030AD8B400D6010AD8B469D798
:1019C000070AD8B4DCD7010AD8B4C2D7030AD8A40E
:1019D00018D6FD0E6F008FFFD9FFFE0E6F008FFF30
:1019E000DAFFDF503A6EE552E552E5521200120E70
:1019F000E126000EE222E40EE124D96EFF0EE22081
:101A0000DA6E080E3A6EF00E6F007BFFE3FFE828F7
:101A10003A2EFAD7F70EE3AE02D0010E01D0000E37
:101A2000446E456AFA0E600013F1E3FFFB0E60009E
:101A300017F1E3FFFA0E6F008CFF3AF0FB0EE35054
:101A40003A10D8B425D0F00EE36CF10EE31EF20E7E
:101A5000E31EF30EE31EF40EE31EF50EE31EF60E78
:101A6000E31EF70EE31E14E3F10EE32A11E3F20E78
:101A7000E32A0EE3F30EE32A0BE3F40EE32A08E372
:101A8000F50EE32A05E3F60EE32A02E3F70EE32A56
:101A90001DAE1E921DBE05D01D5010E11C04D8B015
:101AA0000DD0010E446E000E456EFE0E600013F167
:101AB000E3FFFF0E600017F1E3FF08D0FE0E6000A9
:101AC00073F0E3FFFF0E600077F0E3FFFC0E6000B1
:101AD0006BF0E3FFFD0E60006FF0E3FFFA0E6F00A6
:101AE0008CFF3AF0FB0EE3503A10D8A402D01EA4AB
:101AF0000AD0E150FC0FD96EE250DA6EFF0EDA2206
:101B0000DE06000EDD5A1F0E446E000E456EF80E06
:101B1000600013F1E3FFF90E600017F1E3FF01012C
:101B2000D76B09D1E150F80FD96EE250DA6EFF0E93
:101B3000DA22DE06000EDD5A0A0EE66E000EE66EB2
:101B4000000EE66E000EE66E000EE66E000EE66E0D
:101B5000000EE66E000EE66EE150E80FD96EE25020
:101B6000DA6EFF0EDA226F007BFFE6FF6F007BFF6D
:101B7000E6FF6F007BFFE6FF6F007BFFE6FF6F0075
:101B80007BFFE6FF6F007BFFE6FF6F007BFFE6FF5A
:101B90006F007BFFE6FFE5EC9AF0E5526F009CFFDB
:101BA00051F0E5526F009CFF50F0E5526F009CFF32
:101BB0004FF0E5526F009CFF4EF0E5526F009CFF26
:101BC0004DF0E5526F009CFF4CF0E5526F009CFF1A
:101BD0004BF0E5526F009CFF4AF0F80EE126FF0E35
:101BE000E222600028F144F060002CF145F0600032
:101BF00013F1E6FF600017F1E6FF30ECA7F0300EBE
:101C00003A26F80E6F008CFF44F0F90E6F008CFF3F
:101C100045F0B80E4424D96E010E4520DA6E6000FE
:101C2000EBF0DFFFE150FE0FD96EE250DA6EFF0EEF
:101C3000DA22DE06000EDD5AE150FC0FD96EE250CA
:101C4000DA6EFF0EDA22DE06000EDD5A0A0EE66EAE
:101C5000000EE66E000EE66E000EE66E000EE66EFC
:101C6000000EE66E000EE66E000EE66EE150E80F26
:101C7000D96EE250DA6EFF0EDA226F007BFFE6FFCC
:101C80006F007BFFE6FF6F007BFFE6FF6F007BFFCF
:101C9000E6FF6F007BFFE6FF6F007BFFE6FF6F0054
:101CA0007BFFE6FF6F007BFFE6FF2DEC97F0E55230
:101CB0006F009CFF51F0E5526F009CFF50F0E55221
:101CC0006F009CFF4FF0E5526F009CFF4EF0E55215
:101CD0006F009CFF4DF0E5526F009CFF4CF0E55209
:101CE0006F009CFF4BF0E5526F009CFF4AF0F80E2E
:101CF000E126FF0EE222F00E60002BF1E3FFF10E71
:101D000060002FF1E3FFF20E600033F1E3FFF30E0A
:101D1000600037F1E3FFF40E60003BF1E3FFF50EE6
:101D200060003FF1E3FFF60E600043F1E3FFF70EC2
:101D3000600047F1E3FFF90EE3BE36D0F90EE35041
:101D400004E1F80EE304D8A02FD0F00EE35015E123
:101D5000F10EE35012E1F20EE3500FE1F30EE35007
:101D60000CE1F40EE35009E1F50EE35006E1F60E46
:101D7000E35003E1F70EE350D8A4D4D6FF0EE3BE40
:101D800007D0FF0EE35003E1FE0EE304D8B0CAD63D
:101D9000FD0EE3BE09D0FD0EE35004E1FC0EE304AA
:101DA000D8A002D01EB2BED6FA0E6F008CFF3AF059
:101DB000FB0EE3503A10D8A402D01EA433D0E15059
:101DC000F80FD96EE250DA6EFF0EDA22DE06000E50
:101DD000DD5AFA0E6F008CFF3AF0FB0EE3503A101A
:101DE000D8A402D02B0E01D02D0E446E000E456EED
:101DF000EE0E600013F1E3FFEF0E600017F1E3FF5A
:101E0000F80E6F008CFF44F0F90E6F008CFF45F068
:101E1000B80E4424D96E010E4520DA6EEE0E6F0026
:101E20008FFFDFFFFC0E6F008FFFE6FF6F008FFF5D
:101E3000E6FFB80E446E010E456EF60EE3504426E2
:101E4000F70EE3504522600013F1E6FF600017F142
:101E5000E6FFE80E6F008FFFE6FF6F008FFFE6FFE3
:101E600083EC9EF0E40EE126FF0EE2221200070E44
:101E7000E126000EE222FE0EE36AFF0EE36A0A0E7E
:101E80006F00A0FF2BF521EE39F1DF980790BAD152
:101E9000B10E016E026A0F0E036E20C5B5F021C5AA
:101EA000B6F022C5B7F023C5B8F01CC502F11DC5B8
:101EB00003F11EC504F11FC505F10780000E046E75
:101EC000010E056E0D0E066E21EE39F1DF88B6D1DA
:101ED000000E016E010E026E0D0E036E20C502F1A2
:101EE00021C503F122C504F123C505F1A7D1E30EF5
:101EF000016E026A110E036E20C5E9F021C5EAF0F9
:101F000022C5EBF023C5ECF099D1CF0E016E026A29
:101F1000140E036E20C5D8F021C5D9F022C5DAF021
:101F200023C5DBF01CC5C4F01DC5C5F01EC5C6F039
:101F30001FC5C7F00780C00E046E056A0F0EC3D719
:101F4000C00E016E026A0F0E036E20C5C4F021C5DB
:101F5000C5F022C5C6F023C5C7F070D11A0E016EB8
:101F6000010E026E0D0E036E20C51CF121C51DF180
:101F700022C51EF123C51FF1110E6F00A0FF2BF526
:101F80005DD1F70EE350446E456A4550000AD8A46F
:101F9000E5D74450010AD8B47BD7030AD8B498D700
:101FA000010AD8B4A4D70E0AD8B4AFD7030AD8B45C
:101FB000C7D7D4D79B0E016E010E026E1D0E036EA5
:101FC00020C5ADF121C5AEF122C5AFF123C5B0F1F9
:101FD00035D18B0E016E010E026E100E036E20C500
:101FE00090F121C591F122C592F123C593F126D13B
:101FF000F70EE350446E456A4550000AD8A4AED7A8
:102000004450110AD8B4D6D7080AD8B4E2D7A6D714
:102010007B0E016E010E026E100E036E20C580F164
:1020200021C581F122C582F123C583F107D1F70EC5
:10203000E350446E456A4550000AD8A48FD74450F7
:10204000010AD8B4E5D78AD75B0E016E010E026E85
:10205000100E036E20C560F121C561F122C562F149
:1020600023C563F1EBD0F70EE350446E456A45504B
:10207000000AD8A473D744500B0AD8B4E5D76ED75A
:10208000F70EE350446E456A4550000AD8A466D75F
:102090004450010AD8B4D2D0020AD8B4CFD0060A2C
:1020A000D8B4CCD0020AD8B4C9D00E0AD8B4C6D09D
:1020B000020AD8B4C3D0060AD8B4C0D04FD76B0E2A
:1020C000016E010E026E100E036E20C570F121C567
:1020D00071F122C572F123C573F11CC5B3F31DC59F
:1020E000B4F31EC5B5F31FC5B6F3B80EE66E0B0EFE
:1020F000E66E070EE66E33ECA8F0010E6F00A0FF4F
:102100005FF55CD00780BE0E046E030E056E380EC0
:10211000066E5AC5E6F3D8D60780860E046E030E07
:10212000056E380E066E5AC5AEF3CED6FF0EE66EBD
:10213000FD0E6F008FFFE6FF6F008FFFE6FFFBECE9
:10214000A4F0FE0EE350010F3A6EFE0E6000EBF0BD
:10215000E3FF3A6AFF0EE3503A203A6EFF0E60004A
:10216000EBF0E3FFFF0E6F008CFF3AF0040E3A5ED7
:10217000D8A0DCD7000E6F00A0FF64F5000E6F0042
:10218000A0FF65F5000E6F00A0FF5EF5020E6F0068
:10219000A0FF5FF553D021EE39F1DFBC03D0456AD3
:1021A000452A01D0456A21EE39F1453A4546454672
:1021B000DF504518BF0B4518DF6E40D0F2ECA0F0A1
:1021C0003A50446E456A4550000AD8A437D044506E
:1021D000000AD8B4A1D7010AD8B494D7040AD8B455
:1021E000DAD7030AD8B4A2D729D0F70EE350446E49
:1021F000456A4550000AD8A4B1D64450010AD8B463
:102200005ED7ACD6F80EE350446E456A4550000ADE
:10221000D8A4A4D64450010AD8B4B3D6030AD8B47B
:10222000E7D6070AD8B403D7030AD8B41CD70F0AD5
:10223000D8B426D7030AD8B4D8D790D620EE01F068
:10224000070E3A6EF70E6F007BFFE3FFE8283A2E89
:10225000FAD7E552E5521200E652E652E652E6524D
:10226000FC0EE36AFD0EE36A050E3A6EFF0E600097
:10227000EBF0E3FF680E3A6EFE0E6000EBF0E3FF5A
:1022800021EE1CF1DE2A000EDE22DE22DE2274D1D7
:102290005C50D8B483D1FE0E6F008CFF44F0FF0E6B
:1022A0006F008CFF45F0FC0EE350445EFD0EE350E2
:1022B000455A000E4424D96E010E4520DA6EDF50D7
:1022C000E66E05015E51030B456E446AFB0EE3505A
:1022D0004426FC0EE3504522600013F1E6FF600047
:1022E00017F1E6FFFBECA4F0FC0EE350010F3A6E91
:1022F000FC0E6000EBF0E3FF3A6AFD0EE3503A207B
:102300003A6EFD0E6000EBF0E3FFFD0EE304D8A093
:10231000C2D7FA0EE350E66E000EE66E0A0EE66EC7
:10232000FF0EE66EDC0EE66E040EE66E060EE66E40
:102330000DEC9FF0F80E6F008FFFE6FF6F008FFF30
:10234000E6FF070EE66E33ECA8F0020E6F00A0FF6A
:102350005FF521EE64F1DE2A000EDD2261007BF5DF
:10236000E8FF010F6F00A0FF5EF55C6A17D1FA0E5F
:10237000E350446E456A4550000AD8A40FD144503A
:102380000D0AD8B485D70AD15B50D8B4E8D0FE0E78
:102390006F008CFF44F0FF0E6F008CFF45F0FC0EC9
:1023A000E350445EFD0EE350455A000E4424D96EBE
:1023B000010E4520DA6EDF50E66E05015E51030B1B
:1023C000456E446AFB0EE3504426FC0EE350452262
:1023D000600013F1E6FF600017F1E6FFFBECA4F0EC
:1023E000FC0EE350010F3A6EFC0E6000EBF0E3FFD1
:1023F0003A6AFD0EE3503A203A6EFD0E6000EBF0B3
:10240000E3FFFD0EE304D8A0C2D7FA0EE350E66E58
:10241000000EE66E520EE66EFF0EE66EDC0EE66E07
:10242000040EE66E060EE66E0DEC9FF0F80E6F00E1
:102430008FFFE6FF6F008FFFE6FF070EE66E33ECBF
:10244000A8F0020E6F00A0FF5FF521EE64F1DE2A16
:10245000000EDD2261007BF5E8FF010F6F00A0FF99
:102460005EF55B6A7CD0FA0EE350446E456A4550D7
:10247000000AD8A474D04450290AD8B485D76FD0A4
:102480005A50D8B48BD0FE0E6F008CFF44F0FF0E74
:102490006F008CFF45F0FC0EE350445EFD0EE350F0
:1024A000455A000E4424D96E010E4520DA6EDF50E5
:1024B000E66E05015E51030B456E446AFB0EE35068
:1024C0004426FC0EE3504522600013F1E6FF600055
:1024D00017F1E6FFFBECA4F0FC0EE350010F3A6E9F
:1024E000FC0E6000EBF0E3FF3A6AFD0EE3503A2089
:1024F0003A6EFD0E6000EBF0E3FFFD0EE304D8A0A2
:10250000C2D7FA0EE350E66E000EE66E630EE66E7C
:10251000FF0EE66EDC0EE66E040EE66E060EE66E4E
:102520000DEC9FF0F80E6F008FFFE6FF6F008FFF3E
:10253000E6FF070EE66E33ECA8F0020E6F00A0FF78
:102540005FF521EE64F1DE2A000EDD2261007BF5ED
:10255000E8FF010F6F00A0FF5EF55A6A1FD0FA0E68
:10256000E350446E456A4550000AD8A417D0445041
:102570000B0AD8B485D712D0FB0EE350446E456ADF
:102580004550000AD8A40AD04450010AD8B4EFD666
:10259000030AD8B468D7040AD8B4E1D7F80EE12604
:1025A000FF0EE2221200E65250D10A0E6F00A0FF89
:1025B0002AF5030E2A6E050EE66ED6ECA7F0D00EB5
:1025C000E66E070EE66E020EE66E33ECA8F0FD0E28
:1025D0006F008FFFD9FFFE0E6F008FFFDAFF010E35
:1025E00032D1020EE66E89ECAAF03A50D8B426D069
:1025F00021EE34F1DE2A000EDD222A062A28D8A494
:1026000014D00C0E6F00A0FF2AF521EE38F1DF5038
:10261000870B0809DF6EFD0E6F008FFFD9FFFE0EDE
:102620006F008FFFDAFF050E0ED1D00EE66E070E9B
:10263000E66E020EE66E33ECA8F02CD1EDECABF0BA
:102640003A50D8B427D114ECA8F0FF0E6000EBF09C
:10265000E3FFFF0E6F008CFF3AF0040E3A18D8A487
:1026600012D0880EE66E130EE66E030EE66E33ECA5
:10267000A8F0FD0E6F008FFFD9FFFE0E6F008FFFD9
:10268000DAFF020EDF6EFF0E6F008CFF3AF0050ED0
:102690003A18D8A4FFD0040EE66EF9ECA8F0FD0EAF
:1026A0006F008FFFD9FFFE0E6F008FFFDAFF040E61
:1026B000CAD02950D8A413D021EE29F1DF50E66EFC
:1026C00021EE28F1DF50E66E37EC8FF020EE89F036
:1026D000060EE5526F009FFFDBFFE806FAE261009D
:1026E000AFF4E8FF110AD8A41FD0010EE66E000E69
:1026F000E66E00018B51E66E600027F2E6FF600097
:102700002BF2E6FF6DEC98F021EE38F1DF50870BED
:102710001009DF6EFD0E6F008FFFD9FFFE0E6F00F8
:102720008FFFDAFF060E8FD02950D8A416D0010EE5
:10273000E66E000EE66E00018B51E66E600027F239
:10274000E6FF60002BF2E6FF6DEC98F021EE39F128
:10275000DFA816D0010E296E13D0296A21EE39F1B7
:10276000DF98010EE66E000EE66E00018E51E66EF9
:10277000600033F2E6FF600037F2E6FF6DEC98F0A0
:102780006100ABF4E8FF0A0AD8A40AD0FD0E6F007E
:102790008FFFD9FFFE0E6F008FFFDAFF030E53D0BD
:1027A00021EE38F1DF50870B1809B3D7030EE66E20
:1027B00089ECAAF03A50D8B40FD021EE34F1DE2AD9
:1027C000000EDD220D0E6F00A0FF2AF521EE38F17C
:1027D000DF50870B20091ED7EDECABF03A50D8B490
:1027E00059D014ECA8F0FF0E6000EBF0E3FFFF0EF1
:1027F0006F008CFF3AF0060E3A18D8A44BD021EEA9
:1028000038F1870EDF164BD7FD0E6F008FFFD9FF13
:10281000FE0E6F008FFFDAFF060EDF6E02D014ECA3
:10282000A8F03450D8B436D0FAD721EE38F1870E5C
:10283000DF1630D0FD0E6F008FFFD9FFFE0E6F0048
:102840008FFFDAFF000EDF6E25D0FD0E6F008FFFC9
:10285000D9FFFE0E6F008FFFDAFFDF50446E456A2E
:102860004550000AD8A4E6D74450000AD8B49DD6F3
:10287000010AD8B4B6D6030AD8B41BD7010AD8B413
:1028800095D7070AD8B4D1D7010AD8B4BDD7030A5F
:10289000D8A4D0D7FD0E6F008FFFD9FFFE0E6F00BA
:1028A0008FFFDAFFDF503A6EE552E552E552120033
:1028B000E652E652E652E652FA0E6F008CFF44F002
:1028C000FB0E6F008CFF45F0FD0E600017F1E3FF7B
:1028D000FC0E600013F1E3FFF60E6F008CFF3AF080
:1028E000F70EE3503A10D8B454D1FC0E6F008FFFAE
:1028F000D9FFFD0E6F008FFFDAFFF80E6F008FFF1C
:10290000DFFFFC0E6F008CFF44F0FD0E6F008CFFAC
:1029100045F0F60EE3504426F70EE3504522FF0E35
:102920004424D96EFF0E4520DA6EF80E6F008FFF3B
:10293000DFFFF70EE35008E1F60E6F008CFF3AF070
:10294000030E3A5ED8A025D1FC0E6F008CFF44F038
:10295000FD0E6F008CFF45F0010E4424D96E000E71
:102960004520DA6EF80E6F008FFFDFFFFC0E6F0060
:102970008CFF44F0FD0E6F008CFF45F0020E4424E6
:10298000D96E000E4520DA6EF80E6F008FFFDFFF64
:10299000FC0E6F008CFF44F0FD0E6F008CFF45F0C5
:1029A000F60EE3504426F70EE3504522FE0E442473
:1029B000D96EFF0E4520DA6EF80E6F008FFFDFFF35
:1029C000FC0E6F008CFF44F0FD0E6F008CFF45F095
:1029D000F60EE3504426F70EE3504522FD0E442444
:1029E000D96EFF0E4520DA6EF80E6F008FFFDFFF05
:1029F000F70EE35008E1F60E6F008CFF3AF0070E79
:102A00003A5ED8A0C6D0FC0E6F008CFF44F0FD0EDD
:102A10006F008CFF45F0030E4424D96E000E452054
:102A2000DA6EF80E6F008FFFDFFFFC0E6F008CFF79
:102A300044F0FD0E6F008CFF45F0F60EE350442687
:102A4000F70EE3504522FC0E4424D96EFF0E4520BC
:102A5000DA6EF80E6F008FFFDFFFF70EE35008E12C
:102A6000F60E6F008CFF3AF0090E3A5ED8A091D0B6
:102A7000FC0E6F008CFF44F0441EFD0E6F008CFFB7
:102A800045F0451E442AD8B4452A030E4416000ECC
:102A90004516FE0E600013F1E3FFFF0E600017F114
:102AA000E3FFFC0EE3503A6EFE0EE3503A26FC0EB6
:102AB0006000EBF0E3FFFD0EE3503A6EFF0EE350D3
:102AC0003A22FD0E6000EBF0E3FFF60EE3503A6EA3
:102AD000FE0EE3503A5EF60E6000EBF0E3FFF70EF9
:102AE000E3503A6EFF0EE3503A5AF70E6000EBF0F7
:102AF000E3FFFC0E446EFF0E456EF60E6F008CFF7A
:102B00003AF044503A16F60E6000EBF0E3FFF70E91
:102B10006F008CFF3AF045503A16F70E2ED0FC0E9F
:102B20006F008FFFD9FFFD0E6F008FFFDAFFF80EE9
:102B30006F008FFFDFFFF60E6F008CFF3AF0010E83
:102B40003A5EF60E6000EBF0E3FFF70E6F008CFFCD
:102B50003AF0000E3A5AF70E6000EBF0E3FFFC0E7D
:102B6000E350010F3A6EFC0E6000EBF0E3FF3A6AAF
:102B7000FD0EE3503A203A6EFD0E6000EBF0E3FFED
:102B8000F60E6F008CFF3AF0F70EE3503A10D8A41F
:102B9000C6D7F60EE126FF0EE2221200110EE12644
:102BA000000EE22220EEAAF0070E3A6EEF0E6F0042
:102BB0007BFFE3FFE8283A2EFAD7EB0E6F008CFF7D
:102BC00044F0EC0E6F008CFF45F0FB0E600017F137
:102BD000E3FFFA0E600013F1E3FFFA0E6F008CFFC3
:102BE0003AF0FB0EE3503A10D8A40ED0EF0EE124D9
:102BF000446EFF0EE220456EFB0E600017F1E3FF0E
:102C0000FA0E600013F1E3FFFA0E6F008FFFE6FF8C
:102C10006F008FFFE6FF64ECA3F0F60E6000EBF0B0
:102C2000E3FFF70E6000EFF0E3FFF80E600073F0D3
:102C3000E3FFF90E600077F0E3FFF90EE3BE23D067
:102C4000E150F80FD96EE250DA6EFF0EDA22F60E7E
:102C5000E350DE5CDE50800A3A6EF70EE350800AE5
:102C60003A58D8B010D0F80E6F008CFF3AF0F60E3C
:102C70006000EBF0E3FFF90E6F008CFF3AF0F70E07
:102C80006000EBF0E3FFF60E6F008CFF3AF0F80EF9
:102C90006000EBF0E3FFF70E6F008CFF3AF0F90EE7
:102CA0006000EBF0E3FFFC0E60006BF0E3FFFD0E55
:102CB00060006FF0E3FF1EA01FD031D0ED0E6F005B
:102CC0008FFFE6FF6F008FFFE6FF200EE66E000E1F
:102CD000E66EF1EC9DF0F60EE350010F3A6EF60E43
:102CE0006000EBF0E3FF3A6AF70EE3503A203A6EE9
:102CF000F70E6000EBF0E3FFE150F60FD96EE25003
:102D0000DA6EFF0EDA22FC0EE350DE5CDE50800A43
:102D10003A6EFD0EE350800A3A58D8A0CFD7FE0E87
:102D2000E36AFF0EE36A45D0ED0E6F008FFFE6FF0A
:102D30006F008FFFE6FFF80E6F008FFFF6FFF90EB2
:102D40006F008FFFF7FF000EF86E1F0EF76403D0C1
:102D50000800F55007D06F00DBFFE9FF6F00DFFFD1
:102D6000EAFFEF50E66E000EE66EF1EC9DF0FA0E13
:102D7000E350010F3A6EFA0E6000EBF0E3FF3A6A9F
:102D8000FB0EE3503A203A6EFB0E6000EBF0E3FFDF
:102D9000FE0EE350010F3A6EFE0E6000EBF0E3FF13
:102DA0003A6AFF0EE3503A203A6EFF0E6000EBF0F5
:102DB000E3FFE150FE0FD96EE250DA6EFF0EDA2229
:102DC000F80EE350DE5CDE50800A3A6EF90EE350F6
:102DD000800A3A58D8A0A8D71EB01FD031D0ED0E27
:102DE0006F008FFFE6FF6F008FFFE6FF200EE66E9D
:102DF000000EE66EF1EC9DF0F60EE350010F3A6E18
:102E0000F60E6000EBF0E3FF3A6AF70EE3503A206B
:102E10003A6EF70E6000EBF0E3FFE150F60FD96E6B
:102E2000E250DA6EFF0EDA22FC0EE350DE5CDE507A
:102E3000800A3A6EFD0EE350800A3A58D8A0CFD7E8
:102E4000F60E6F008CFF3AF0F70E6F008CFF3BF030
:102E5000EB0EE126FF0EE22212000A0EE126000E22
:102E6000E222FE0EE36AED0EE3AE28D0E60EE36C3E
:102E7000E70EE31EE80EE31EE90EE31EEA0EE31E74
:102E8000EB0EE31EEC0EE31EED0EE31E14E3E70E65
:102E9000E32A11E3E80EE32A0EE3E90EE32A0BE34B
:102EA000EA0EE32A08E3EB0EE32A05E3EC0EE32A3D
:102EB00002E3ED0EE32AFE0EE36AE32AF50EE3AE2B
:102EC00027D0EE0EE36CEF0EE31EF00EE31EF10EC4
:102ED000E31EF20EE31EF30EE31EF40EE31EF50EE8
:102EE000E31E14E3EF0EE32A11E3F00EE32A0EE3F0
:102EF000F10EE32A0BE3F20EE32A08E3F30EE32AD2
:102F000005E3F40EE32A02E3F50EE32AFE0EE37076
:102F1000070E3A6EF60EE36AE82A3A06FCE2E60E7F
:102F2000E35016E1E70EE35013E1E80EE35010E141
:102F3000E90EE3500DE1EA0EE3500AE1EB0EE35037
:102F400007E1EC0EE35004E1ED0EE350D8B488D075
:102F5000FF0EE36A12D0D890E60EE336E70EE336B2
:102F6000E80EE336E90EE336EA0EE336EB0EE3361F
:102F7000EC0EE336ED0EE336FF0EE32AED0EE3AE84
:102F8000EAD7D890F60EE336F70EE336F80EE336BE
:102F9000F90EE336FA0EE336FB0EE336FC0EE336AB
:102FA000FD0EE336E150EE0FD96EE250DA6EFF0E01
:102FB000DA22E60EE350DE5CE70EE350DE58E80E60
:102FC000E350DE58E90EE350DE58EA0EE350DE58D7
:102FD000EB0EE350DE58EC0EE350DE58ED0EE350FE
:102FE000DE58D8A021D0E150EE0FD96EE250DA6E53
:102FF000FF0EDA22E60EE350DE5EE70EE350DE5A05
:10300000E80EE350DE5AE90EE350DE5AEA0EE350D2
:10301000DE5AEB0EE350DE5AEC0EE350DE5AED0EB4
:10302000E350DE5AF60EE380D890ED0EE332EC0E5C
:10303000E332EB0EE332EA0EE332E90EE332E80E5E
:10304000E332E70EE332E60EE332FF0EE3503A6E70
:10305000010E3A5EFF0E6000EBF0E3FFD8A491D7BB
:10306000FE0EE350D8B425D0F60EE36CF70EE31E47
:10307000F80EE31EF90EE31EFA0EE31EFB0EE31E2E
:10308000FC0EE31EFD0EE31E14E3F70EE32A11E32C
:10309000F80EE32A0EE3F90EE32A0BE3FA0EE32A15
:1030A00008E3FB0EE32A05E3FC0EE32A02E3FD0E30
:1030B000E32AF60EE124D96EFF0EE220DA6E080E46
:1030C0003A6EEE0E6F007BFFE3FFE8283A2EFAD748
:1030D000F60EE126FF0EE2221200050EE126000E9A
:1030E000E222F90E6F008CFF44F0FA0E6F008CFFA5
:1030F00045F0FC0E600017F1E3FFFB0E600013F1DA
:10310000E3FF21EE1CF1DE2A000EDE22DE22DE22AB
:103110000A0E6F00A0FF2AF5F80EE350446E456AD0
:10312000FB0EE3504426FC0EE3504522FF0E4424E0
:10313000D96EFF0E4520DA6EDF50446E456AFD0EF3
:10314000426EFF0E436EF80EE350406E416A4250ED
:103150004026435041224450401804E14550411854
:10316000D8B405D0120E6F00A0FF2AF5EFD0FD0EE7
:10317000446EFF0E456EF80EE350426E436A4450B3
:1031800042264550432260000BF1E6FF60000FF13C
:10319000E6FFF90EE350020F446EFA0E6F008CFF4B
:1031A00045F0000E4522600013F1E6FF600017F1C4
:1031B000E6FF89ECA0F0FD0E6000EBF0E3FFFE0EF1
:1031C0006000EFF0E3FFFB0E6F008FFFD9FFFC0EF6
:1031D0006F008FFFDAFFFD0E6F008FFFDFFFFE0E27
:1031E000E124D96EFF0EE220DA6EFB0E6F008CFF39
:1031F00044F0FC0E6F008CFF45F0010E4424E96E94
:10320000000E4520EA6E6F007FFFEFFFE150FD0FDB
:10321000D96EE250DA6EFF0EDA226F0078FF30F5D9
:103220006F0074FF31F582D0E1ECABF03F0E3A64F1
:10323000FBD7F80E6F008CFF3AF0FF0E6000EBF04A
:10324000E3FFFF0EE350D8B481D0F70EE350D8B4BB
:1032500015D0FF0EE350446E456AFB0EE350442642
:10326000FC0EE3504522FF0E4424D96EFF0E45208C
:10327000DA6EDF50E66EE4ECA8F014D0FF0EE350F7
:10328000446E456AFB0EE3504426FC0EE350452293
:10329000FF0E4424D96EFF0E4520DA6EDF50E66E35
:1032A000B7ECA7F0FF0EE306CCD7E5ECABF03F0E92
:1032B0003A64FBD7F80E6F008CFF3AF0FF0E600007
:1032C000EBF0E3FFFF0EE350D8B440D0F70EE3502D
:1032D000D8B415D0FF0EE350446E456AFB0EE350A0
:1032E0004426FC0EE3504522FF0E4424D96EFF0E07
:1032F0004520DA6EDF50E66EF9ECA8F014D0FF0E30
:10330000E350446E456AFB0EE3504426FC0EE35046
:103310004522FF0E4424D96EFF0E4520DA6EDF50A1
:10332000E66ED6ECA7F0FF0EE306CCD7F60EE35020
:10333000446E456A4550000AD8A4B7D74450010AE4
:10334000D8B4B3D7030AD8B46FD7AFD7F60EE126F7
:10335000FF0EE2221200000000000000000000004A
:10336000000000000000000000000000000000005D
:10337000000000000000000000000000000000004D
:10338000000000000000000000000000000000003D
:10339000000000000000000000000000000000002D
:1033A000000000000000000000000000000000001D
:1033B000000000000000000000000000000000000D
:1033C00000000000000000000000000000000000FD
:1033D00000000000000000000000000000000000ED
:1033E00000000000000000000000000000000000DD
:1033F00000000000000000000000000000000000CD
:1034000000000000000000000000000000000000BC
:1034100000000000000000000000000000000000AC
:10342000000000000000000000000000000000009C
:10343000000000000000000000000000000000008C
:10344000000000000000000000000000000000007C
:10345000000000000000000000000000000000006C
:10346000000000000000000000000000000000005C
:10347000000000000000000000000000000000004C
:10348000000000000000000000000A00140000001E
:10349000000000000000000000200000000000000C
:1034A000000000000000000000000000000000001C
:1034B000000000000000000000000000000000000C
:1034C000000000000000012D192057190000000025
:1034D00000000000000000000000000000000000EC
:1034E00000000000000000000000000000000000DC
:1034F00000000000000000000000000000000000CC
:1035000000000000000000000000000000000000BB
:1035100000000000000000000000000000000000AB
:10352000000000000000000000000000000000009B
:10353000000000000000000000000000000000008B
:10354000000000000000000000000000000000007B
:10355000000000000000000000000000000000006B
:10356000000000000000000000000000000000005B
:10357000000000000000000000000000000000004B
:10358000000000000000000000000000000000003B
:10359000000000000000000000000000000000002B
:1035A000000000000000000000000000000000001B
:1035B000000000000000000000000000000001000A
:0935C00000000180038AEF80FE87
:1035CA00E652E652FE0EE36AFD0EE3AE28D0F60E90
:1035DA00E36CF70EE31EF80EE31EF90EE31EFA0E75
:1035EA00E31EFB0EE31EFC0EE31EFD0EE31E14E3B8
:1035FA00F70EE32A11E3F80EE32A0EE3F90EE32AA3
:10360A000BE3FA0EE32A08E3FB0EE32A05E3FC0EBA
:10361A00E32A02E3FD0EE32AFE0EE36AE32AF50E2D
:10362A00E3AE25D0EE0EE36CEF0EE31EF00EE31EC2
:10363A00F10EE31EF20EE31EF30EE31EF40EE31E7A
:10364A00F50EE31E14E3EF0EE32A11E3F00EE32A6C
:10365A000EE3F10EE32A0BE3F20EE32A08E3F30E7C
:10366A00E32A05E3F40EE32A02E3F50EE32AEE0E5B
:10367A00E35016E1EF0EE35013E1F00EE35010E1D0
:10368A00F10EE3500DE1F20EE3500AE1F30EE350BE
:10369A0007E1F40EE35004E1F50EE350D8B475D017
:1036AA00FF0EE36A12D0D890EE0EE336EF0EE33641
:1036BA00F00EE336F10EE336F20EE336F30EE3369E
:1036CA00F40EE336F50EE336FF0EE32AF50EE3AE0B
:1036DA00EAD7E150F60FD96EE250DA6EFF0EDA221F
:1036EA00EE0EE350DE5CEF0EE350DE58F00EE350D0
:1036FA00DE58F10EE350DE58F20EE350DE58F30EB8
:10370A00E350DE58F40EE350DE58F50EE350DE586F
:10371A00D8A01FD0E150F60FD96EE250DA6EFF0E34
:10372A00DA22EE0EE350DE5EEF0EE350DE5AF00EC2
:10373A00E350DE5AF10EE350DE5AF20EE350DE5A3F
:10374A00F30EE350DE5AF40EE350DE5AF50EE35060
:10375A00DE5AD890F50EE332F40EE332F30EE3327A
:10376A00F20EE332F10EE332F00EE332EF0EE33201
:10377A00EE0EE332FF0EE3503A6E010E3A5EFF0E92
:10378A006000EBF0E3FFD8A4A4D7FE0EE350D8B450
:10379A0025D0F60EE36CF70EE31EF80EE31EF90EC3
:1037AA00E31EFA0EE31EFB0EE31EFC0EE31EFD0EE5
:1037BA00E31E14E3F70EE32A11E3F80EE32A0EE3FD
:1037CA00F90EE32A0BE3FA0EE32A08E3FB0EE32AD7
:1037DA0005E3FC0EE32A02E3FD0EE32AF60EE124DA
:1037EA00D96EFF0EE220DA6E080E3A6EF60E6F0000
:1037FA007BFFE3FFE8283A2EFAD7E552E55212009A
:10380A00E652E652E652E652FA0E6F008CFF44F098
:10381A00FB0E6F008CFF45F0FF0E600017F1E3FF0F
:10382A00FE0E600013F1E3FFF80E6F008CFF44F008
:10383A00F90E6F008CFF45F0FD0E600017F1E3FFF3
:10384A00FC0E600013F1E3FFF60E6F008CFF3AF0F6
:10385A00010E3A5EF60E6000EBF0E3FFF70E6F0022
:10386A008CFF3AF0000E3A5AF70E6000EBF0E3FFD5
:10387A00F60EE3283FE1F70EE328D8A43BD0000E6A
:10388A003A6E000E3B6EB5D0FE0EE350010F3A6E53
:10389A00FE0E6000EBF0E3FF3A6AFF0EE3503A20B7
:1038AA003A6EFF0E6000EBF0E3FFFC0EE350010FEF
:1038BA003A6EFC0E6000EBF0E3FF3A6AFD0EE3504D
:1038CA003A203A6EFD0E6000EBF0E3FFF60E6F0051
:1038DA008CFF3AF0010E3A5EF60E6000EBF0E3FF61
:1038EA00F70E6F008CFF3AF0000E3A5AF70E60009E
:1038FA00EBF0E3FFE150FE0FD96EE250DA6EFF0EF5
:10390A00DA226F007BFFF6FF6F0077FFF7FF000EEA
:10391A00F86E0800F5500009D8B444D0E150FC0F05
:10392A00D96EE250DA6EFF0EDA226F007BFFF6FFE5
:10393A006F0077FFF7FF000EF86E0800F5500009D8
:10394A00D8B430D0F60E6F008CFF3AF0F70EE35081
:10395A003A10D8B427D0E150FE0FD96EE250DA6E91
:10396A00FF0EDA226F007BFFF6FF6F0077FFF7FF8B
:10397A00000EF86E08006F00D4FF45F0E150FC0F0E
:10398A00D96EE250DA6EFF0EDA226F007BFFF6FF85
:10399A006F0077FFF7FF000EF86E0800F550451824
:1039AA00D8B472D7E150FE0FD96EE250DA6EFF0E2C
:1039BA00DA226F007BFFF6FF6F0077FFF7FF000E3A
:1039CA00F86E0800F5503A6E3B6AE150FC0FD96E6A
:1039DA00E250DA6EFF0EDA226F007BFFF6FF6F000D
:1039EA0077FFF7FF000EF86E0800F5503A5E000EFA
:1039FA003B5AF60EE126FF0EE22212004EECABF025
:103A0A0021EE5FF1DF50D8A4A6D0FC0E6F008FFF25
:103A1A00E6FF6F008FFFE6FFFC0EE350E66EFC0E3A
:103A2A00E350E66E6CECA8F0D2D005015E51030BB0
:103A3A00E66E000EE66E21EE29F1DF50E66E000E0C
:103A4A00E66E21EE28F1DF50E66E000EE66EF60E07
:103A5A00E66EFE0EE66EFC0EE66E030EE66E0A0ECD
:103A6A00E66E0DEC9FF0000E6F00A0FF0CF4FC0E4A
:103A7A00E66E030EE66E000EE66E000EE66E6CEC67
:103A8A00A8F021EE64F16F0078FF44F06F0074FF34
:103A9A0045F0600013F1E6FF600017F1E6FF1C0E27
:103AAA00E66EFF0EE66EFC0EE66E030EE66E060E80
:103ABA00E66E0DEC9FF0000E6F00A0FF0CF44EECCA
:103ACA00ABF0FC0EE66E030EE66E000EE66E010E1D
:103ADA00E66E6CECA8F050D021EE5AF1DF50E66E9B
:103AEA00000EE66E660EE66EFE0EE66EFC0EE66EE4
:103AFA00030EE66E060EE66E0DEC9FF0000E6F00EA
:103B0A00A0FF0CF4FC0EE66E030EE66E000EE66EE7
:103B1A00000EE66E6CECA8F021EE5DF1DF50E66E69
:103B2A00000EE66E21EE5CF1DF50E66E000EE66EE8
:103B3A0021EE5BF1DF50E66E000EE66EB40EE66E25
:103B4A00FE0EE66EFC0EE66E030EE66E0A0EE66EDC
:103B5A000DEC9FF0B0D721EE5FF1DF50446E456A5D
:103B6A004550000AD8A4B8D74450010AD8B4B4D7EB
:103B7A00030AD8B45AD7B0D7DC0EE66E040EE66E46
:103B8A00DC0EE66EFF0EE66EFC0EE66E030EE66EC9
:103B9A00060EE66E0DEC9FF0000E6F00A0FF0CF40F
:103BAA004EECABF0FC0EE66E030EE66E000EE66E11
:103BBA00020EE66E6CECA8F0070EE66E89ECAAF02F
:103BCA003A50D8B404D0000E6F00A0FF5FF5E5525A
:103BDA00E552E552E5521200FC0E6F008CFF3AF0F6
:103BEA00FD0EE3503A10D8B409D0FC0E6F008CFFDA
:103BFA003AF0FD0EE3503A10D8A406D0FE0EE35078
:103C0A00E66E5CECABF075D0FC0E6F008CFF44F0F6
:103C1A00FD0E6F008CFF45F0040E4424D96E000E91
:103C2A004520DA6EDE50DE10D8B426D0FC0E6F00C6
:103C3A008CFF44F0FD0E6F008CFF45F0040E442407
:103C4A00D96E000E4520DA6EFC0E6F008CFF44F030
:103C5A00FD0E6F008CFF45F0020E4424E96E000E43
:103C6A004520EA6EDE50EE5CEE50800A3A6EDE5077
:103C7A00800A3A58D8B03DD0FC0E6F008CFF44F051
:103C8A00FD0E6F008CFF45F0020E4424D96E000E23
:103C9A004520DA6E6F0078FF44F06F0074FF45F03C
:103CAA00FC0E6F008FFFD9FFFD0E6F008FFFDAFF4A
:103CBA006F0078FF42F06F0074FF43F044504224D3
:103CCA00D96E45504320DA6EFE0E6F008FFFDFFF7C
:103CDA00FC0E6F008CFF44F0FD0E6F008CFF45F068
:103CEA00020E4424D96E000E4520DA6EDE2A000E3A
:103CFA00DD22E552E552E552E5521200E652E6525D
:103D0A00E652E6521EA010D0FA0E6F008FFFE6FFB1
:103D1A006F008FFFE6FFF60E6F008FFFE6FF6F0062
:103D2A008FFFE6FFB5ECA3F0F70EE3BE11D0F60E57
:103D3A006F008CFF3AF0FC0E6000EBF0E3FFF70E29
:103D4A006F008CFF3AF0FD0E6000EBF0E3FF04D049
:103D5A00FC0EE36AFD0EE36AFE0EE36AFF0EE36AF7
:103D6A001ED0FA0E6F008FFFE6FF6F008FFFE6FF8F
:103D7A00200EE66E000EE66EF1EC9DF0FE0EE350AC
:103D8A00010F3A6EFE0E6000EBF0E3FF3A6AFF0E97
:103D9A00E3503A203A6EFF0E6000EBF0E3FFE15089
:103DAA00FE0FD96EE250DA6EFF0EDA22FC0EE350F5
:103DBA00DE5CDE50800A3A6EFD0EE350800A3A5805
:103DCA00D8A0CFD71EB010D0FA0E6F008FFFE6FF33
:103DDA006F008FFFE6FFF60E6F008FFFE6FF6F00A2
:103DEA008FFFE6FFB5ECA3F0F80E6F008FFFE6FF3A
:103DFA006F008FFFE6FF64ECA3F0FC0EE3503A2657
:103E0A00FD0EE3503B22F60EE126FF0EE2221200DF
:103E1A00080EE126000EE222FE0E446EFF0E456EEB
:103E2A00F50EE124426EFF0EE220436E4450422614
:103E3A0045504322FF0E60000FF1E3FFFE0E6000C3
:103E4A000BF1E3FFF50E6F008CFF44F0F60E6F00E6
:103E5A008CFF45F0F90E600017F1E3FFF80E6000E1
:103E6A0013F1E3FFFA0EE124D96EFF0EE220DA6EB7
:103E7A00000EDE6E000EDD6EFC0EE124D96EFF0E22
:103E8A00E220DA6E000EDE6E000EDD6EFE0EE1241A
:103E9A003A6EFF0EE2203B6E6000EBF0E6FF600038
:103EAA00EFF0E6FFF10E6F008FFFE6FF6F008FFF66
:103EBA00E6FFF40EE1243A6EFF0EE2203B6E60004C
:103ECA00EBF0E6FF6000EFF0E6FF13ECA2F0FA0E6B
:103EDA00E124D96EFF0EE220DA6E6F0078FF44F01B
:103EEA006F0074FF45F0F50E6F008CFF42F0F60E7E
:103EFA006F008CFF43F044504224D96E4550432052
:103F0A00DA6E000EDF6EF80EE126FF0EE222E552AF
:103F1A00E750E15E000EE25A1200560EF66E330EBC
:103F2A00F76E010EF86E00EEF6F320EE73F209005A
:103F3A006F00D7FFEEFFDD50D950F9E1DA50F7E113
:103F4A001C0EF66E490EF76E010EF86E00EE86F341
:103F5A0020EE70F009006F00D7FFEEFFDD50D95058
:103F6A00F9E16E0EF66E430EF76E010EF86E00EE74
:103F7A0000F120EEB8F009006F00D7FFEEFFDD5028
:103F8A00D950F9E1860EF66E4D0EF76E010EF86EF7
:103F9A0000EEAAF020EE4AF009006F00D7FFEEFF0C
:103FAA00DD50D950F9E1F60EF66E570EF76E010E96
:103FBA00F86E00EE5AF020EE04F009006F00D7FF09
:103FCA00EEFFDD50D950F9E100EE00F3860EEE6AFD
:103FDA00E806FDE100EE00F220EE00F1EE6ADD50A7
:103FEA00D950FCE1DA50FAE100EEB8F1200EEE6A9F
:103FFA00E806FDE100EE60F04A0EEE6AE806FDE131
:10400A0000EE01F0390EEE6AE806FDE1080ED56E03
:10401A00000ED66E000ED76E000100EF80F0430E40
:10402A000001836F030E846F000E816F030E826F8F
:10403A0060000FF2E6FF600013F2E6FF4AECA9F017
:10404A00600007F2E6FF60000BF2E6FF4AECA9F017
:10405A00BE80BC84300EE66E570EE66E050EE66E26
:10406A00000EE66EF4ECA5F0390EE66E36ECA9F019
:10407A001D0EE66E36ECA9F0500EE66E36ECA9F08F
:10408A006C0EE66E36ECA9F0760EE66E36ECA9F00A
:10409A00380EE66E22ECA9F00F0EE66E36ECA9F0A9
:1040AA00010EE66E22ECA9F0020EE66E36ECA9F0DD
:1040BA00060EE66E36ECA9F01E0EE66E000EE66EF1
:1040CA00000EE66E000EE66EF4ECA5F0020E3D015F
:1040DA00166F400E156F830E146F1A933F0E3B0135
:1040EA00FD17FD9BFD51F90B0209FD6FE70EFD1748
:1040FA00FD81430EF96F030EFA6F000EFB6FFC9BF6
:10410A003D011A83BE901200E652E652E652E6528A
:10411A00FE0EE36AFF0EE36AFC0EE36AFD0EE36A33
:10412A0039D0FC0E6F008CFF44F0FD0E6F008CFF3F
:10413A0045F0FA0E6F008CFF42F0FB0E6F008CFF09
:10414A0043F044504224D96E45504320DA6EDF5082
:10415A00456EFE0EE35045243A6EFE0E6000EBF00B
:10416A00E3FF3A6AFF0EE3503A22FF0E6000EBF0DB
:10417A00E3FFFC0EE350010F3A6EFC0E6000EBF019
:10418A00E3FF3A6AFD0EE3503A203A6EFD0E6000F4
:10419A00EBF0E3FFF80E6F008CFF44F0F90E6F00AE
:1041AA008CFF45F0FC0E6F008CFF42F0FD0E6F0095
:1041BA008CFF43F04450425C45504358D8A0B1D7D5
:1041CA00FE0E6F008CFF3AF0FF0E6F008CFF3BF083
:1041DA00F80EE126FF0EE2221200E20EE66EFE0E55
:1041EA00E66EDC0EE66E040EE66E040EE66E0DEC6E
:1041FA009FF040C55DF53EC55AF541C55BF542C520
:10420A005CF521EE5DF1DF50D8A403D0070E3A6EBB
:10421A00120061006FF5E8FF530AD8B406D06100B6
:10422A006FF5E8FF730AD8A403D0000E3A6E1200A5
:10423A0061006FF5E8FF4C0AD8B406D061006FF54B
:10424A00E8FF6C0AD8A40FD04C0EE66EFE0EE66E9E
:10425A00DC0EE66E040EE66E040EE66E0DEC9FF0C2
:10426A00060E3A6E120061006FF5E8FF4D0AD8B4E7
:10427A0006D061006FF5E8FF6D0AD8A403D0010EDD
:10428A003A6E120061006FF5E8FF440AD8B406D00E
:10429A0061006FF5E8FF640AD8A4C7D7050E3A6E25
:1042AA00120047D0040E2818D8B408D0300EE66E93
:1042BA00750EE66E060EE66E33ECA8F0040E286E56
:1042CA00000E33D0010E286E0F0E2FD0020EF7D734
:1042DA00030EF5D72850D8B4F5D73ED0FE0EE350DA
:1042EA00446E456A4550000AD8A4F4D74450020ADD
:1042FA00D8B4D8D70C0AD8B4E5D71E0AD8B4E6D7AA
:10430A00020AD8B4E5D7E6D7050E286E61009FF5F4
:10431A00E8FF2D0AD8A4D8D71FD0060EF6D7285002
:10432A00D8A41AD0010E286E2D0E6F00A0FF67F5D3
:10433A0013D0FF0EE350446E456A4550000AD8A4D4
:10434A00EED74450010AD8B4C9D7040AD8B4DCD786
:10435A000C0AD8B4E2D7E3D76000A0F03AF0E552ED
:10436A00E5521200000001000000018001810000F6
:10437A000A0000000000000000000000000A00001F
:10438A00010000000180000100000A000001000095
:10439A00000180018100800A000001000000018004
:1043AA00118200000A00000100000001800F810054
:1043BA00000A0000010000000180118100000A00CB
:1043CA00000001210100000001800C0600000D0020
:1043DA0000000121010000000180020A00000D0016
:1043EA0000000121010000000180020500000D000B
:1043FA0000FF01210100000001801A0200000D00E7
:10440A000030313039313130383436303030300ED6
:10441A0041010000000180120200001AE652E65231
:10442A00FA0E6F008CFF44F0FB0E6F008CFF45F014
:10443A00FF0E600017F1E3FFFE0E600013F1E3FFC9
:10444A000001A06BA16B21D0F80E6F008FFFE6FF71
:10445A006F008FFFE6FFFC0EE1243A6EFF0EE220AA
:10446A003B6E6000EBF0E6FF6000EFF0E6FFF80E4F
:10447A006F008FFFE6FF6F008FFFE6FF0BEC88F0FF
:10448A003A500001A0273B50A123E150FE0FD96EFC
:10449A00E250DA6EFF0EDA226F007BFFF6FF6F0042
:1044AA0077FFF7FF000EF86E0800F5500009D8A450
:1044BA00CBD7600080F23AF0600084F23BF0F80E4D
:1044CA00E126FF0EE2221200FE0E6F008CFF44F07E
:1044DA00FF0E6F008CFF45F0420E4424D96E000E89
:1044EA004520DA6E400EDF6040D0FE0E6F008CFF72
:1044FA0044F0FF0E6F008CFF45F0400E4424D96E45
:10450A00000E4520DA6EDF50456EFE0E6F008CFFFE
:10451A0042F0FF0E6F008CFF43F045504224D96EE3
:10452A00000E4320DA6EFD0E6F008FFFDFFFFE0ED6
:10453A006F008CFF44F0FF0E6F008CFF45F0400EB9
:10454A004424D96E000E4520DA6EDF2AFE0E6F0073
:10455A008CFF44F0FF0E6F008CFF45F0420E44249E
:10456A00D96E000E4520DA6EDF2AE552E552E55291
:10457A001200BE82F1ECABF0000EE66E60000FF2A4
:10458A00E6FF600013F2E6FF01ECA4F0BC94FE0E15
:10459A006F008FFFE6FF6F008FFFE6FF64ECA3F06A
:1045AA003B5004E1410E3A5CD8A010D0FE0E6F00D9
:1045BA008CFF44F0FF0E6F008CFF45F0400E442440
:1045CA00D96E000E4520DA6E000EDF6E3B01FC9FAD
:1045DA00FE0E6F008FFFE6FF6F008FFFE6FF64ECB1
:1045EA00A3F06000EBF0F7FB6000EFF0F8FB3B0193
:1045FA00FC8FFE0E6F008FFFE6FF6F008FFFE6FF56
:10460A00DC0EE66EFF0EE66E040EE66E94ECA5F086
:10461A00F4ECABF0E552E5521200070EBE6EBD6A2D
:10462A00BA6ABF6ABB6A060EBC6EC66A0F0EC76E4E
:10463A008F0EC26EBF0EC36E910EC46E0C0EC56E87
:10464A003A01706B010E606F380E506F806B0F0E5F
:10465A00906F8F0E406FFC0E716FF00E916F816B31
:10466A00870E516F416B900E616F826B926B426B3A
:10467A00526B626B726B4369536963697369070EA4
:10468A00836F93690F0EE86F160E0E6F1E0E136F6F
:10469A00080EC06F0A0EC26F090EC16F170EE56FC2
:1046AA00130EDE6F010E046F260E056F280E066FBD
:1046BA001F0E156F130E166F140EDF6F1200E652DF
:1046CA00E652FC0E6F008CFF44F0FD0E6F008CFF6B
:1046DA0045F0FF0E600017F1E3FFFE0E600013F1D4
:1046EA00E3FF11D0FC0EE350010F3A6EFC0E60009E
:1046FA00EBF0E3FF3A6AFD0EE3503A203A6EFD0E04
:10470A006000EBF0E3FFFC0E6F008FFFF6FFFD0E7B
:10471A006F008FFFF7FF000EF86E1F0EF76403D0CD
:10472A000800F55007D06F00DBFFE9FF6F00DFFFDD
:10473A00EAFFEF500009D8A4D5D7FC0E6F008CFF12
:10474A003AF0FD0E6F008CFF3BF0FE0EE3503A5E2E
:10475A00FF0EE3503B5AE552E552E552E55212008C
:10476A00E652E652E652FD0EE36AFE0EE36A1FD0F7
:10477A00F90E6F008FFFE6FF6F008FFFE6FFFD0E59
:10478A00E350E66E000EE66EF1EC9DF0FD0EE3508E
:10479A00010F3A6EFD0E6000EBF0E3FF3A6AFE0E7F
:1047AA00E3503A203A6EFE0E6000EBF0E3FFFD0E96
:1047BA006F008CFF44F0FE0E6F008CFF45F0FB0E7D
:1047CA006F008CFF42F0FC0E6F008CFF43F04450E8
:1047DA004224D96E45504320DA6EDF50456EFF0EF3
:1047EA00600017F1E3FFFF0EE350D8A4C1D7F90E1A
:1047FA00E126FF0EE2221200FE0E6F008CFF44F04B
:10480A00FF0E6F008CFF45F0420E4424D96E000E55
:10481A004520DA6E000EDF6EFE0E6F008CFF44F04C
:10482A00FF0E6F008CFF45F0400E4424D96E000E37
:10483A004520DA6E000EDF6EFE0E6F008CFF44F02C
:10484A00FF0E6F008CFF45F0410E4424D96E000E16
:10485A004520DA6E000EDF6EFD0EE350D8B411D09B
:10486A00400EE66E000EE66E000EE66E000EE66E76
:10487A00FA0E6F008FFFE6FF6F008FFFE6FF58EC1E
:10488A0094F0E552E552E5521200E652E6521A5009
:10489A001B10D8A409D0FE0E60006BF0E3FFFF0ED8
:1048AA0060006FF0E3FF16D0FF0E446EFF0E456EF8
:1048BA00600068F042F060006CF043F04450422619
:1048CA0045504322FE0E60000BF1E3FFFF0E60002D
:1048DA000FF1E3FFFB0E6F008CFFB8F10101B96B1A
:1048EA00FE0E6F008FFFE6FF6F008FFFE6FFB80E28
:1048FA00E66E010EE66EF80E6F008FFFE6FF6F00A0
:10490A008FFFE6FF83EC9EF0FB0EE126FF0EE2220C
:10491A00120000004B4F4F5242424242343332316E
:10492A0044453231534B4F4F524242424234303067
:10493A00333231444552462301410101210201012A
:10494A000000000180038A0000350000004F4B4F31
:10495A004F52424242423433323144453231534B50
:10496A00524218014100333231444552460701414F
:10497A0002010101210201010000000180058A00F3
:10498A000035000E3B01F96F100EFA6F000EFB6F37
:10499A003D0EF16F110EF06F030EFD6F000EF86FF2
:1049AA00010EF76F000EEF6F010EEE6F150EFF6F1F
:1049BA00FE6B3901A293A291A297A295928392814A
:1049CA0092879285F16B010EF26F040EF36F020E5D
:1049DA00F46F030EF76FD29E3901550EEF6FAA0ED0
:1049EA00EF6FEF81D28E3B01FC6B1200E652D2AE22
:1049FA0003D0456A452A01D0456AFF0E600017F1C7
:104A0A00E3FFFE0EE124D96EFF0EE220DA6EDF50DC
:104A1A00030B3901E16FFD0E6F008FFFE0F9FC0E09
:104A2A006F008FFFE3F93F0EE517E585D29E550E1D
:104A3A00E66FAA0EE66FE583E5B3FED7E595FF0EAE
:104A4A00E3B002D0D29E01D0D28EE552E552E552B1
:104A5A00E5521200E652D28AD2AE03D0456A452AFE
:104A6A0001D0456AFF0E600017F1E3FFD29E550E92
:104A7A00D46EAA0ED46ED49038019F6B9E6B080E2A
:104A8A009D6F550ED46EAA0ED46ED480FF0EE3B07D
:104A9A0002D0D29E01D0D28E39018287828382814E
:104AAA008285868786858389838781818581878BAD
:104ABA008981888D8185E552120039019397060E06
:104ACA00E66E560EE66E010EE66E9AECA9F0390114
:104ADA009399700EE66E510EE66E010EE66E86EC46
:104AEA00A9F03D01EC6BED6BEE6BEF6BF06BF16BCC
:104AFA00B00EF26F800EF36FF46B820EF56F060E36
:104B0A00F66FF76BF86BF96BFA6B396A386A400E15
:104B1A00376E366A356A346A390193871200E6526B
:104B2A00E652FB0EE124446EFF0EE220456EFF0EB4
:104B3A00600017F1E3FFFE0E600013F1E3FFFE0EC3
:104B4A00E1243A6EFF0EE2203B6E6000EBF0E6FFD6
:104B5A006000EFF0E6FFF90E6F008FFFE6FF6F00CF
:104B6A008FFFE6FF000EE66E000EE66E13ECA2F073
:104B7A00E552E552E552E750E15E000EE25A1200B4
:104B8A0039019695260EE66E560EE66E010EE66E13
:104B9A0072ECA9F0390196979C0EE66E510EE66EFC
:104BAA00010EE66E5EECA9F03D01D46BD66BD86BB4
:104BBA00B00EDA6F800EDB6FDC6B820EDD6F060ED5
:104BCA00DE6FDF6BE06BE16BE26B336A326A400ED9
:104BDA00316E306A2F6A2E6A3901968512000001F9
:104BEA00906B916B926B936B09D000F00400010EED
:104BFA0000019027000E912392239323FC0E6F004D
:104C0A008CFF3AF090513A5CFD0E6F008CFF3AF03F
:104C1A0091513A58FE0E6F008CFF3AF092513A5871
:104C2A00FF0E6F008CFF3AF093513A58D8B0DDD797
:104C3A00E552E552E552E5521200BE82F1ECABF0C4
:104C4A00000EE66E60000FF2E6FF600013F2E6FF68
:104C5A0001ECA4F0BC92BC943B01FC9F000EF86FDF
:104C6A00010EF76FFC8FFF0EE350E66E000EE66E44
:104C7A00FB0EE66EFF0EE66E040EE66E94ECA5F0F1
:104C8A00F4ECABF04EECABF0BC82E55212006000E3
:104C9A0014F1F6F013EEF2F23901A89D60009BF0D0
:104CAA00E6FF60009FF0E6FF97ECA7F021EE67F1C0
:104CBA00DF500001F46FF56B050EF427000EF523A3
:104CCA00244A252AF451245CF5512558D8A004D049
:104CDA00ADECAAF0246A256A6000D8F345F0110009
:104CEA0021EE36F1DE2A000EDD22020E6F00A0FF51
:104CFA00F6F321EE38F1870EDF16000E6F00A0FFE3
:104D0A00FBF321EE2CF1DF50D8A409D0010E6F007D
:104D1A00A0FF28F5020E6F00A0FF29F51200010E70
:104D2A006F00A0FF28F50E0E6F00A0FF29F51200F4
:104D3A003901A191D290FA0EE66E570EE66E010E77
:104D4A00E66E12ECAAF039019181A591D292FC0E7D
:104D5A00E66E570EE66E010EE66EFEECA9F039011C
:104D6A009581A79BD294FE0EE66E570EE66E010E53
:104D7A00E66EEAECA9F03901978B1200286E756C81
:104D8A006C290000000001010000000180020100FE
:104D9A00000C000000010100000001800D810000EC
:104DAA000C00000001000121020101000000018045
:104DBA000E01000011000000411101010000000174
:104DCA0080040100000E3E01DE6BDF6BE06BE16BDD
:104DDA00E46BE56BEA6BEC6BF16BF36BF46BF56B05
:104DEA00F66BF76BF96BFA6BFB6BFC6B020EFD6FE4
:104DFA00FE6BFF6B940EF86F3901A1959185000E39
:104E0A00E66E580EE66E010EE66E26ECAAF0120069
:104E1A009B6A9C6A010E9D6E630E996EC00E986E17
:104E2A0098506F0064FE3AF03B6A6000E8F03BF08D
:104E3A003A6A3A10266E3B50276E3901A89D988D22
:104E4A00EE0EE66E560EE66E010EE66ED6ECA9F092
:104E5A00310E9A6E1200FF0EE3BE07D0FF0EE3502A
:104E6A0012E1FE0EE304D8B00ED0FE0E6F008CFFE6
:104E7A003AF03A1EFF0E6F008CFF3BF03B1E3A2AB7
:104E8A00D8B43B2A08D0FE0E6F008CFF3AF0FF0E12
:104E9A006F008CFF3BF0E552E5521200E652FF0E1E
:104EAA00E36AFF0EE350020DF350600FD96EDA6A1F
:104EBA00DE50DE10D8B40AD0FF0EE350020DF350D4
:104ECA00600FD96EDA6ADE06000EDD5AFF0EE32A9B
:104EDA00FF0E6F008CFF3AF0070E3A64E2D7E552F4
:104EEA0012002FECA5F09AECABF012ECA3F08FECC9
:104EFA00ABF0E8ECA6F032ECABF09DECA6F0AEEC31
:104F0A00A9F0BFECAAF00DECA7F040ECABF062EC14
:104F1A00A5F0C5ECA5F084ECABF0C6ECA4F0CBECA4
:104F2A00ABF012009AA40FD09A90FF0EE124D96E2A
:104F3A00FF0EE220DA6EDF50996EFE0E6F008FFFD1
:104F4A0098FF9A800CD0FF0EE124D96EFF0EE22062
:104F5A00DA6EDF50996EFE0E6F008FFF98FFE552F2
:104F6A00E55212003150D8B4FDD7390196B705D0B1
:104F7A00FF0E6F008FFFD2FD11D09697400E33249B
:104F8A00D96EDA6A020EDA22FF0E6F008FFFDFFF98
:104F9A00332A3F0E336401D0336A31069687E552CD
:104FAA0012003750D8B4FDD7390193B905D0FF0E96
:104FBA006F008FFFEAFD11D09399C00E3924D96E84
:104FCA00DA6A020EDA22FF0E6F008FFFDFFF392A3C
:104FDA003F0E396401D0396A37069389E5521200C7
:104FEA00E6522E50D8B4FDD7000E2F24D96EDA6AB5
:104FFA00020EDA22DF50456EFF0E600017F1E3FF62
:10500A002F2A3F0E2F6401D02F6A390196952E065A
:10501A009685FF0E6F008CFF3AF0E5521200E652B9
:10502A003450D8B4FDD7800E3524D96EDA6A020E10
:10503A00DA22DF50456EFF0E600017F1E3FF352AD2
:10504A003F0E356401D0356A390193973406938748
:10505A00FF0E6F008CFF3AF0E5521200FD0E6F0052
:10506A008CFF44F0FE0E6F008CFF45F0D89044345C
:10507A00426E4534436EFF0EE350020DF350600F4B
:10508A00D96EDA6A60000BF1DEFF60000FF1DDFF16
:10509A00E552E552E5521200FE0E6F008FFFE6FF61
:1050AA006F008FFFE6FF000EE66E33ECA8F005D026
:1050BA0000F000F000F000F00400000EE66E89EC4B
:1050CA00AAF03A50D8B4F4D7E552E5521200FE0ECF
:1050DA006F008CFF45F0FF0EE350100DF35045248E
:1050EA00800FE66E22ECA6F0FC0E6F008FFFE6FF43
:1050FA006F008FFFE6FFBEECA2F0E552E552E552E3
:10510A00E5521200FE0EE350FF0F446EFF0E6F00D1
:10511A008CFF45F0FF0E4522600010F1A2F06000FE
:10512A0014F1A3F00001A46BA56BA66BA76BA86B87
:08513A00A96BE552E5521200D9
:1051440013EEF2F23901A19500019A519B119C11C1
:10515400D8B4110001D811000500FA6E9A51FD6E01
:105164009B51FE6E9C51FF6EFA501200400E376048
:1051740010D0C00E3824D96EDA6A020EDA22DF505B
:105184003D01EA6F382A3F0E386401D0386A372A65
:105194001200390193991200400E316010D0400E74
:1051A4003224D96EDA6A020EDA22DF503D01D26F60
:1051B400322A3F0E326401D0326A312A1200390198
:1051C4009697120039019695000E3024D96EDA6A4A
:1051D400020EDA22FF0E6F008FFFDFFF302A3F0E30
:1051E400306401D0306A2E2A9685E55212003901C6
:1051F4009397800E3624D96EDA6A020EDA22FF0EF5
:105204006F008FFFDFFF362A3F0E366401D0366A07
:10521400342A9387E5521200FE0EE350D8B402D02C
:10522400226A236AFF0EE3502226000E2322600026
:1052340088F03AF060008CF03BF0E552E552120041
:10524400BC92BC94FF0EE350E66E23ECABF0200E50
:10525400E66E030EE66E000EE66E000EE66EF4ECED
:10526400A5F0BC82E5521200BC92BC94FF0EE35040
:10527400E66E23ECABF01E0EE66E000EE66E000E3C
:10528400E66E000EE66EF4ECA5F0BC82E552120068
:10529400430EE66E000EE66E000EE66E000EE66E3F
:1052A400FA0E6F008FFFE6FF6F008FFFE6FF58ECEA
:1052B40094F0E552E5521200E150FD0FD96EE25030
:1052C400DA6EFF0EDA226F0078FF0BF06F0078FFC2
:1052D4000CF06F0074FF0DF0E552E552E552120038
:1052E400E150FD0FD96EE250DA6EFF0EDA226F0044
:1052F40078FF0EF06F0078FF0FF06F0074FF10F06E
:10530400E552E552E5521200E150FD0FD96EE2502C
:10531400DA6EFF0EDA226F0078FF9DF06F0078FFDF
:105324009EF06F0074FF9FF0E552E552E5521200C3
:10533400E150FD0FD96EE250DA6EFF0EDA226F00F3
:1053440078FF08F06F0078FF09F06F0074FF0AF02F
:10535400E552E552E5521200010E966E956A976A7F
:10536400030E936E926A3901A9919981A60EE66E95
:105374004E0EE66E010EE66EC2ECA9F094681200C1
:10538400E150FD0FD96EE250DA6EFF0EDA226F00A3
:1053940078FF97F06F0078FF98F06F0074FF99F032
:1053A400E552E552E5521200E150FD0FD96EE2508C
:1053B400DA6EFF0EDA226F0078FF94F06F0078FF48
:1053C40095F06F0074FF96F0E552E552E552120035
:1053D400E150FD0FD96EE250DA6EFF0EDA226F0053
:1053E40078FF11F06F0078FF12F06F0074FF13F074
:1053F400E552E552E5521200E150FD0FD96EE2503C
:10540400DA6EFF0EDA226F0078FF14F06F0078FF77
:1054140015F06F0074FF16F0E552E552E5521200E4
:10542400E150FD0FD96EE250DA6EFF0EDA226F0002
:1054340078FF17F06F0078FF18F06F0074FF19F011
:10544400E552E552E5521200E150FD0FD96EE250EB
:10545400DA6EFF0EDA226F0078FF9AF06F0078FFA1
:105464009BF06F0074FF9CF0E552E552E552120088
:1054740013EEF2F200019D519E119F11D8B4110058
:1054840001D811000500FA6E9D51FD6E9E51FE6E0D
:105494009F51FF6EFA50120013EEF2F208500910F9
:1054A4000A10D8B4110001D811000500FA6E085092
:0E54B400FD6E0950FE6E0A50FF6EFA50120097
:1054C40013EEF2F20B500C100D10D8B4110001D8E9
:1054D40011000500FA6E0B50FD6E0C50FE6E0D505F
:0654E400FF6EFA501200F9
:1054EC0013EEF2F20E500F101010D8B4110001D8B8
:1054FC0011000500FA6E0E50FD6E0F50FE6E10502E
:10550C00FF6EFA5012000400FF0EE350020DF35030
:10551C00600FD96EDA6ADE50DE10D8A402D0010E0C
:10552C0001D0000E3A6EE55212000001975198110D
:10553C009911D8B4120001D812000500FA6E9751D7
:10554C00FD6E9851FE6E9951FF6EFA5012000001DB
:10555C00945195119611D8B4120001D8120005007F
:10556C00FA6E9451FD6E9551FE6E9651FF6EFA5087
:10557C0012003C01756B040E766F040E776F040EEF
:10558C00786F040E796F7A6B7B6B7C6B7D6B810E05
:10559C00746F1200175018101910D8B4120001D8DB
:1055AC0012000500FA6E1750FD6E1850FE6E195061
:1055BC00FF6EFA501200145015101610D8B41200C9
:1055CC0001D812000500FA6E1450FD6E1550FE6ED7
:1055DC001650FF6EFA501200115012101310D8B45E
:1055EC00120001D812000500FA6E1150FD6E125017
:1055FC00FE6E1350FF6EFA501200800E3624D96ED8
:10560C00DA6A020EDA226F00A3F7DFFF362A3F0EAA
:10561C00366401D0366A342A1200000E3024D96E5A
:10562C00DA6A020EDA226F0043F7DFFF302A3F0EF0
:10563C00306401D0306A2E2A1200010E3D01126F27
:10564C00FF0E6F008FFF11FD3901A2A9FDD76F006E
:10565C0040F43AF0E55212003F013E6B3F6B3A6B5F
:10566C00396B386B060E3D6FC70E3C6FAE0E3B6F41
:10567C003E8F12003C01FA99FB81FB93FB89FB9B4B
:10568C00130EFC6F0E0EFE6F040EFD6FFA8F1200E0
:10569C0000017DB7FDD7320EE66E000EE66E000EF1
:1056AC00E66E000EE66EF4ECA5F01200FF0EE35071
:1056BC00E66E60000FF2E6FF600013F2E6FF69ECA5
:0656CC00A2F0E5521200FD
:1056D4006000E8F05EF013EEF2F23901A9919BEC60
:1056E400AAF0600078F13AF01100BEA002D0010ED9
:1056F40001D0000EFF0A456EBE504518FE0B45183A
:10570400BE6E1200400E3D01156F030E166F4F0E54
:10571400196F1C6B830E146F1200200E3901D96FA0
:10572400DB6BDD6B020EDF6FDE6BDCB11200FDD7CD
:105734003901C06BC16BC26BC36BC46BC56BC66BE9
:10574400C76B120013EEF2F23901A29100017D97AA
:10575400BE921100FF0EE350E66E22ECA6F0E55275
:02576400120031
:0E57680013EEF2F23901A191D0ECAAF011007B
:0E57780013EEF2F23901A591E1ECAAF0110056
:1057880013EEF2F23901A79BF2ECAAF011003C01EA
:10579800E66B940EE56F120013EEF2F23901A29354
:0257A8001100EE
:0A57AC0013EEF2F23901A29711008A
:1057B80013EEF2F23901A29511006000C4F03AF03C
:1057C80012006000DCF03AF012006000B8F03AF025
:1057D80012006000D0F03AF0120000017D8712003C
:0657E8003B01FC8D1200E4
:1057F00013EEF2F211000101010312001200120077
:02580000120094
:020000040020DA
