:020000040000FA
:0400000057EF00F0C6
:10000800A672A672A672A672A672A672A672A67228
:100018008072A672F670F56DA672A672A672A672A6
:1000280084728D7293729072A672A672A672A6726C
:10003800A672A672A6728F71A672A672A672A67210
:10004800A672A672A672A6722B00A672A672A672D5
:100058002670A672A672A672A672A672A672A6725A
:10006800A672A672A3719971A672A6729265A672FB
:10007800A672A6722B00A672A672A6722B002B007F
:100088002B002B002B002B002B002B009169A67254
:100098003972A672A672A6722B002B002B002B00B9
:0E00A800A672A672FF0012EE0CF293EFD3F0D8
:10F94C0000D859000005000000685B00000A0000A8
:10F95C0000305C000014000000385E00001900004C
:10F96C0000885E00001E000000785F000028000088
:10F97C0000DC5F00002D0000001860000032000069
:10F98C000046600000350000007C6000003700007D
:10F99C0000AE60000039000000E06000003C000098
:10F9AC0000126100003F0000005D61000043000098
:10F9BC0000A861000046000000BC61000048000087
:10F9CC0000D06100004B000000DA61000050000024
:10F9DC0000E461000055000000F86100005A0000CE
:10F9EC0000086200005C000000226200005D000064
:10F9FC0000346200005F00000048620000610000FB
:10FA0C00005C62000064000000846700006200007B
:10FA1C0000636F6D6D616E64732031000000000037
:10FA2C00000000646973706C617973203100000010
:10FA3C000000000000636F6D6D616E647320320016
:10FA4C0000000000000000646973706C6179732021
:10FA5C00320000000000000000636F6D6D616E6489
:10FA6C007320330000000000000000646973706CA8
:10FA7C0061797320330000000000000000636F6D9B
:10FA8C006D616E647320340000000000000000649F
:10FA9C006973706C61797320340000000000000001
:10FAAC00007C7C2F2F2D2D0000000000000000009A
:10FABC0000000000007C7C2F2F2D2D5C5C000000D2
:10FACC000000000000000000004F4F4F4F4F4F2D23
:10FADC002D5F5F2D00000000000000000076763CDA
:10FAEC003C5E5E3E3E000000000000000000000096
:10FAFC00002E2E2A2A7823782358587C7C2D2D0012
:10FB0C0000000000002E2E6F6F4F4F6F6F00000033
:10FB1C000000000000000000000000803F0000C05A
:10FB2C003F00AAB83FC623F6B80040763F202563B5
:10FB3C00202C256C752C25342E34662C25342E3433
:10FB4C00662C25342E34662C25342E34662C253424
:10FB5C002E34662C25342E33662C25342E33662C0D
:10FB6C0025342E33662C25342E33662C25342E3337
:10FB7C00662C25342E33662C25642C25642C2532DA
:10FB8C002E36662C25342E33662C25642C25642CBD
:10FB9C00256C752C256C752C25342E33662C253450
:10FBAC002E33662C25342E33660D0A005325634301
:10FBBC002025642052554E202564205625322E32A5
:10FBCC0066202020202020200052312025322E3388
:10FBDC00662025332E346620202020202020202053
:10FBEC0020200052322025322E33662025332E342D
:10FBFC00662020202020202020202020005320536D
:10FC0C002563432025642025322E346620202020B5
:10FC1C0020202020202000204D65736720256420A3
:10FC2C00537461636B202564202020202020004524
:10FC3C005352202025322E366620202020202020D2
:10FC4C00202020202000424154542050575220257F
:10FC5C00332E3266202020202020202000523120FC
:10FC6C0025322E33662025332E346620202020208A
:10FC7C002020200052322025322E33662025332EB0
:10FC8C0034662020202020202020004241482025BE
:10FC9C00332E3266205025332E3266202020202031
:10FCAC002000455352202025322E3666202020205D
:10FCBC00202020202020200053746174696320537D
:10FCCC004F4320256420202020202020200042416A
:10FCDC0054204957482025342E31662020202020DE
:10FCEC0020202000424154204F57482025342E31EB
:10FCFC0066202020202020202000424154205457F0
:10FD0C00482025342E316620202020202020200061
:10FD1C00494E56202057482025332E32662020206D
:10FD2C002020202020004C4F4144205748202533D0
:10FD3C002E32662020202020202020005056202506
:10FD4C00632057482025332E326620202020202087
:10FD5C002000494E5620205057522025332E326613
:10FD6C0020202020202020004C4F4144205057526E
:10FD7C002025332E326620202020202020005056B3
:10FD8C00202563205057522025332E326620202008
:10FD9C00202020004261747465727920416820250E
:10FDAC00332E326620202020200042562025322E71
:10FDBC0032662042412025322E326620202020003F
:10FDCC0043562025322E3266204C412025322E32CD
:10FDDC0066202020200050562025322E32662050DE
:10FDEC00412025322E32662020202000256420253B
:10FDFC00322E34662C20256420205452494D20206C
:10FE0C002000202020202020202020202020202006
:10FE1C002020202020200053656E736F722020203C
:10FE2C0020202020202020202020200053656E73CD
:10FE3C006F727320202020202020202020202020C2
:10FE4C000042562025322E346620202020202020EF
:10FE5C00202020202000204E534153504F4F4B2048
:10FE6C002020202020202020202000426174746556
:10FE7C007279204553522020202020202020200061
:10FE8C0043616C63756C6174696F6E202020202057
:10FE9C00202020200043616C6962726174696F6E6E
:10FEAC0020202020202020202000205665727369FD
:10FEBC006F6E202573202020202020202020004F32
:10FECC007574204F662052616E67652020202020BB
:10FEDC00202020005A65726F2043616C205365749A
:10FEEC00202020202020202000204D424D43205354
:10FEFC004F4C41524D4F4E20202020202000505678
:10FF0C0020616E64204241545445525920202020D7
:10FF1C00202000436865636B696E6720256320258C
:10FF2C006320202020202000436865636B20333041
:10FF3C00207365636F6E6473202020200052656C03
:10FF4C006561736520627574746F6E202563202063
:10FF5C000048454C502025732020202020202020B4
:10FF6C0020202000444953504C4159202573202017
:10FF7C002020202020200025642025322E34662CC1
:10FF8C00202564202020230025642025322E346671
:10FF9C002020202564202000767465726D20257841
:10FFAC003A25782020200046656220203620323009
:10FFBC003230002573202020202020200031363ABA
:10FFCC0034373A343300312E313700494E46004E27
:10FFDC00414E00696E66006E616E006C58006C6478
:10FFEC00006C66006C69006C75006C780025630011
:04FFFC002573000069
:020000040001F9
:10000000380EE126000EE222F20EE36AF30EE36AF6
:10001000C20E6F008CFF09F0C30E6F008CFF0AF058
:10002000C40E6F008CFF0BF0C50E6F008CFF0CF040
:10003000D80E600027F0E3FFD90E60002BF0E3FF3D
:10004000DA0E60002FF0E3FFDB0E600033F0E3FF19
:10005000DB0EE3AE2BD0010E0B6E000E0C6EF20E1B
:1000600060002FF0E3FFF30E600033F0E3FFD80EE3
:100070006F008FFFE6FF6F008FFFE6FF6F008FFFBF
:10008000E6FF6F008FFFE6FF93ECDEF0D80E600016
:1000900007F0E3FFD90E60000BF0E3FFDA0E60001B
:1000A0000FF0E3FFDB0E600013F0E3FFE80EE36AFE
:1000B000E90EE36AEE0E6000EBF0E3FFEF0E600086
:1000C000EFF0E3FFF20E6F008CFF01F0F30EE35050
:1000D0000110D8A402D03EA436D0F20E6F008CFFDF
:1000E00001F0F30EE3500110D8A402D02B0E01D082
:1000F0002D0E0B6E000E0C6ED20E60002FF0E3FF83
:10010000D30E600033F0E3FFD20E6F008CFF97F246
:10011000E80EE350010F016EE80E600007F0E3FF08
:10012000016AE90EE3500120016EE90E600007F05C
:10013000E3FFE150EE0FD96EE250DA6EFF0EDA22E5
:10014000DE06000EDD5AD80E6F008FFFE6FF6F004F
:100150008FFFE6FF6F008FFFE6FF6F008FFFE6FF68
:100160006BECC7F001040210D8A476D0BF0E0B6E62
:10017000FF0E0C6EC10EE350096E0A6A0B50092681
:100180000C500A220A5006E11A0E095CD8B002D0BF
:10019000010E01D0000E0B6E0C6AD00E60002FF025
:1001A000E3FFD10E600033F0E3FFD00E6F008CFF51
:1001B00001F0D10EE3500110D8B417D0D70EE66E7F
:1001C000FF0EE66E970E0B6E020E0C6EE60EE350FF
:1001D0000B26E70EE3500C2260002FF0E6FF6000D4
:1001E00033F0E6FF03ECD4F016D0DF0EE66EFF0E20
:1001F000E66E970E0B6E020E0C6EE60EE3500B26AB
:10020000E70EE3500C2260002FF0E6FF600033F0B1
:10021000E6FF03ECD4F0E150EE0FD96EE250DA6E57
:10022000FF0EDA22FD0EDE26FF0EDD22EE0E6F003F
:100230008FFFE6FF6F008FFFE6FF970EE66E020E60
:10024000E66EC20E6F008FFFE6FF6F008FFFE6FFC6
:100250009AECD0F01DEF89F0D80E6F008FFFE6FF0B
:100260006F008FFFE6FF6F008FFFE6FF6F008FFFCD
:10027000E6FF6BECC7F001500210D8A456D0BF0EB9
:100280000B6EFF0E0C6EC10EE350096E0A6A0B5026
:1002900009260C500A220A5006E11A0E095CD8B051
:1002A00002D0010E01D0000E0B6E0C6ACE0E600063
:1002B0002FF0E3FFCF0E600033F0E3FFCE0E6F00B0
:1002C0008CFF01F0CF0EE3500110D8B417D0DB0E35
:1002D000E66EFF0EE66E970E0B6E020E0C6EE60ECD
:1002E000E3500B26E70EE3500C2260002FF0E6FFF0
:1002F000600033F0E6FF03ECD4F08DD7E30EE66E3A
:10030000FF0EE66E970E0B6E020E0C6EE60EE350BD
:100310000B26E70EE3500C2260002FF0E6FF600092
:1003200033F0E6FF03ECD4F076D7000E096E000E32
:100330000A6E800E0B6E3F0E0C6ED40E600027F01E
:10034000E3FFD50E60002BF0E3FFD60E60002FF028
:10035000E3FFD70E600033F0E3FFEA0EE36AEB0E33
:10036000E36A000EE66E000EE66E000EE66E000E0C
:10037000E66ED40E6F008FFFE6FF6F008FFFE6FF83
:100380006F008FFFE6FF6F008FFFE6FF38ECD5F0C0
:1003900001A039D0BCD0000EE66E000EE66E200E35
:1003A000E66E410EE66ED00E6F008FFFE6FF6F0027
:1003B0008FFFE6FF6F008FFFE6FF6F008FFFE6FF06
:1003C00020EC9FF0D40E600007F0E3FFD50E600034
:1003D0000BF0E3FFD60E60000FF0E3FFD70E6000D6
:1003E00013F0E3FFEA0EE350010F016EEA0E600026
:1003F00007F0E3FF016AEB0EE3500120016EEB0E04
:10040000600007F0E3FF000EE66E000EE66E200EC1
:10041000E66E410EE66ED00E6F008FFFE6FF6F00B6
:100420008FFFE6FF6F008FFFE6FF6F008FFFE6FF95
:1004300020EC9FF0600007F0E6FF60000BF0E6FFA5
:1004400060000FF0E6FF600013F0E6FFD40E6F00CF
:100450008FFFE6FF6F008FFFE6FF6F008FFFE6FF65
:100460006F008FFFE6FF72ECCAF001A032D093D785
:10047000000EE66E000EE66E200EE66E410EE66E93
:10048000D00E6F008FFFE6FF6F008FFFE6FF6F005B
:100490008FFFE6FF6F008FFFE6FF13ECA7F0D40E8F
:1004A000600007F0E3FFD50E60000BF0E3FFD60E0F
:1004B00060000FF0E3FFD70E600013F0E3FFE150A0
:1004C000EA0FD96EE250DA6EFF0EDA22DE06000E77
:1004D000DD5AD40E6F008FFFE6FF6F008FFFE6FF3F
:1004E0006F008FFFE6FF6F008FFFE6FFD40E6F00F7
:1004F0008FFFE6FF6F008FFFE6FF6F008FFFE6FFC5
:100500006F008FFFE6FF72ECCAF001A0B1D7C10EF9
:10051000E350E66E000EE66E0CECDAF0FE0E6000C4
:1005200007F0E3FFFE0E6F008CFF01F0FF0E60008E
:1005300007F0E3FFFE0E6F008CFF01F0670E01185D
:10054000D8A425D03C503D10D8A404D0000E3D6E58
:10055000010E3C6E3DBE05D03D5010E13C04D8B0CC
:100560000DD0060E0B6E000E0C6EF00E60002FF01C
:10057000E3FFF10E600033F0E3FF0CD0F00E6000FB
:10058000F3F0E3FFF10E6000F7F0E3FF03D03DAEC0
:10059000F5D7E7D7FE0E6F008CFF01F0670E01184C
:1005A000D8A42FD0EB0EE3AE0ED0EA0E6F008CFF76
:1005B00001F0FC0E015EEB0E6F008CFF01F0FF0EF0
:1005C000015AD8A018D0F00EE350FF0F0B6EF10EB9
:1005D0006F008CFF0CF0FF0E0C22EA0EE3500B5C58
:1005E0000C50800A016EEB0EE350800A0158D8A02F
:1005F00002D0660E01D0650E0C6EFF0E600033F067
:10060000E3FFF00E6F008CFF01F0F80E600007F0C2
:10061000E3FFF10E6F008CFF01F0F90E600007F0B0
:10062000E3FFFE0E6F008CFF01F0670E0118D8A4E7
:100630000BD0FF0E6F008CFF01F0660E0118D8A4DE
:1006400014D0EB0EE3AE11D0F80EE350010F016EA3
:10065000F80E600007F0E3FF016AF90EE350012095
:10066000016EF90E600007F0E3FFFF0E6F008CFFD4
:1006700001F0660E0118D8A43BD0EB0EE3AE1CD0FF
:10068000000E096E000E0A6E800E0B6E3F0E0C6E91
:10069000D40E600027F0E3FFD50E60002BF0E3FFDF
:1006A000D60E60002FF0E3FFD70E600033F0E3FFBB
:1006B000EA0EE36AEB0EE36AFE0E6F008CFF01F0B8
:1006C000670E0118D8B414D0F80EE350016EEA0E8C
:1006D000E3500126F80E600007F0E3FFF90EE35047
:1006E000016EEB0EE3500122F90E600007F0E3FF0C
:1006F000EC0EE36AED0EE36AD80E6F008CFF09F092
:10070000D90E6F008CFF0AF0DA0E6F008CFF0BF031
:10071000DB0E6F008CFF0CF0E00E600027F0E3FFB3
:10072000E10E60002BF0E3FFE20E60002FF0E3FF2C
:10073000E30E600033F0E3FFD40E6F008CFF09F08E
:10074000D50E6F008CFF0AF0D60E6F008CFF0BF0F9
:10075000D70E6F008CFF0CF0E40E600027F0E3FF73
:10076000E50E60002BF0E3FFE60E60002FF0E3FFE4
:10077000E70E600033F0E3FFD6D0D40E6F008FFF9A
:10078000E6FF6F008FFFE6FF6F008FFFE6FF6F0051
:100790008FFFE6FFDC0E6F008FFFE6FF6F008FFF1D
:1007A000E6FF6F008FFFE6FF6F008FFFE6FF13ECA1
:1007B000A7F0600007F0E6FF60000BF0E6FF6000C6
:1007C0000FF0E6FF600013F0E6FF71ECB2F0DC0E14
:1007D000600007F0E3FFDD0E60000BF0E3FFDE0ECC
:1007E00060000FF0E3FFDF0E600013F0E3FFDC0EAC
:1007F0006F008FFFE6FF6F008FFFE6FF6F008FFF38
:10080000E6FF6F008FFFE6FFB9ECC9F0600004F06F
:100810000BF0600008F00CF0F40E60002FF0E3FF26
:10082000F50E600033F0E3FFD40E6F008FFFE6FF9C
:100830006F008FFFE6FF6F008FFFE6FF6F008FFFF7
:10084000E6FFD80E6F008FFFE6FF6F008FFFE6FF19
:100850006F008FFFE6FF6F008FFFE6FF20EC9FF039
:10086000600007F0E6FF60000BF0E6FF60000FF0AD
:10087000E6FF600013F0E6FFDC0E6F008FFFE6FF7F
:100880006F008FFFE6FF6F008FFFE6FF6F008FFFA7
:10089000E6FF46ECDFF0E00E600007F0E3FFE10E5C
:1008A00060000BF0E3FFE20E60000FF0E3FFE30EE9
:1008B000600013F0E3FF000EE66E000EE66E200E01
:1008C000E66E410EE66ED00E6F008FFFE6FF6F0002
:1008D0008FFFE6FF6F008FFFE6FF6F008FFFE6FFE1
:1008E00013ECA7F0D40E600007F0E3FFD50E600014
:1008F0000BF0E3FFD60E60000FF0E3FFD70E6000B1
:1009000013F0E3FFEC0EE350010F016EEC0E6000FC
:1009100007F0E3FF016AED0EE3500120016EED0EDA
:10092000600007F0E3FFE150EC0FD96EE250DA6EA1
:10093000FF0EDA22F80EE350DE5CDE50800A016E14
:10094000F90EE350800A0158D8A017D7000EE66EC2
:10095000000EE66EA00EE66E400EE66ED00E6F0044
:100960008FFFE6FF6F008FFFE6FF6F008FFFE6FF50
:100970006F008FFFE6FF20EC9FF0DC0E600007F0B9
:10098000E3FFDD0E60000BF0E3FFDE0E60000FF012
:10099000E3FFDF0E600013F0E3FFDC0E6F008FFF5C
:1009A000E6FF6F008FFFE6FF6F008FFFE6FF6F002F
:1009B0008FFFE6FFDC0E6F008FFFE6FF6F008FFFFB
:1009C000E6FF6F008FFFE6FF6F008FFFE6FF72EC20
:1009D000CAF001A021D0DC0E6F008FFFE6FF6F0090
:1009E0008FFFE6FF6F008FFFE6FF6F008FFFE6FFD0
:1009F000DC0E6F008FFFE6FF6F008FFFE6FF6F00DA
:100A00008FFFE6FF6F008FFFE6FF38ECD5F001A007
:100A10001BD0F40EE3B018D0000E096E000E0A6E63
:100A2000000E0B6E000E0C6EDC0E600027F0E3FF74
:100A3000DD0E60002BF0E3FFDE0E60002FF0E3FF21
:100A4000DF0E600033F0E3FFDC0E6F008FFFE6FF88
:100A50006F008FFFE6FF6F008FFFE6FF6F008FFFD5
:100A6000E6FFD40E6F008FFFE6FF6F008FFFE6FFFB
:100A70006F008FFFE6FF6F008FFFE6FF35ECA3F0FE
:100A8000E00E600007F0E3FFE10E60000BF0E3FF13
:100A9000E20E60000FF0E3FFE30E600013F0E3FFEF
:100AA000E40E6F008CFF09F0E50E6F008CFF0AF07A
:100AB000E60E6F008CFF0BF0E70E6F008CFF0CF062
:100AC000D40E600027F0E3FFD50E60002BF0E3FFAB
:100AD000D60E60002FF0E3FFD70E600033F0E3FF87
:100AE000FF0E6F008CFF01F0650E0118D8B411D015
:100AF000EA0E6F008CFF01F0F60E600007F0E3FFD6
:100B0000EB0E6F008CFF01F0F70E600007F0E3FFC3
:100B100004D0F60EE36AF70EE36AFA0EE36AFB0E00
:100B2000E36AFC0EE36AFD0EE36AEC0EE36AED0E87
:100B3000E36AB7D1D40E6F008FFFE6FF6F008FFF1F
:100B4000E6FF6F008FFFE6FF6F008FFFE6FFDC0E12
:100B50006F008FFFE6FF6F008FFFE6FF6F008FFFD4
:100B6000E6FF6F008FFFE6FF13ECA7F0600007F0D1
:100B7000E6FF60000BF0E6FF60000FF0E6FF6000AC
:100B800013F0E6FF71ECB2F0DC0E600007F0E3FF5B
:100B9000DD0E60000BF0E3FFDE0E60000FF0E3FF00
:100BA000DF0E600013F0E3FFDC0E6F008FFFE6FF47
:100BB0006F008FFFE6FF6F008FFFE6FF6F008FFF74
:100BC000E6FFB9ECC9F0600004F00BF0600008F03B
:100BD0000CF0F40E60002FF0E3FFF50E600033F030
:100BE000E3FF3EB826D0F40E6F008CFF01F0F50E47
:100BF000E3500110D8A41DD0FE0E6F008CFF01F051
:100C0000670E0118D8A415D0F70EE3AE12D0FC0E73
:100C1000E350010F016EFC0E600007F0E3FF016A74
:100C2000FD0EE3500120016EFD0E600007F0E3FFB2
:100C3000AFD0FA0E6F008CFF01F0FB0EE3500110F5
:100C4000D8A470D0F70EE3AE6DD0E80E6F008CFF25
:100C50000BF0E90E6F008CFF0CF0970E0B24D96E91
:100C6000020E0C20DA6E2E0EDF6EE80EE350010F3E
:100C7000016EE80E600007F0E3FF016AE90EE35041
:100C80000120016EE90E600007F0E3FFE150EE0F76
:100C9000D96EE250DA6EFF0EDA22DE06000EDD5A61
:100CA000010E0B6E000E0C6EFA0E60002FF0E3FFCB
:100CB000FB0E600033F0E3FF35D0E80E6F008CFFD1
:100CC0000BF0E90E6F008CFF0CF0970E0B24D96E21
:100CD000020E0C20DA6E300EDF6EE80EE350010FCC
:100CE000016EE80E600007F0E3FF016AE90EE350D1
:100CF0000120016EE90E600007F0E3FFE150EE0F06
:100D0000D96EE250DA6EFF0EDA22DE06000EDD5AF0
:100D1000E150FC0FD96EE250DA6EFF0EDA22DE06E9
:100D2000000EDD5AFC0E6F008CFF01F0FD0EE3504B
:100D30000110D8A4C2D7E80E6F008CFF0BF0E90EAB
:100D40006F008CFF0CF0970E0B24D96E020E0C2056
:100D5000DA6EF40EE350300FDF6EE80EE350010F51
:100D6000016EE80E600007F0E3FF016AE90EE35050
:100D70000120016EE90E600007F0E3FFE150EE0F85
:100D8000D96EE250DA6EFF0EDA22DE06000EDD5A70
:100D9000D40E6F008FFFE6FF6F008FFFE6FF6F003E
:100DA0008FFFE6FF6F008FFFE6FFD80E6F008FFF0B
:100DB000E6FF6F008FFFE6FF6F008FFFE6FF6F001B
:100DC0008FFFE6FF20EC9FF0600007F0E6FF600079
:100DD0000BF0E6FF60000FF0E6FF600013F0E6FFA7
:100DE000DC0E6F008FFFE6FF6F008FFFE6FF6F00E6
:100DF0008FFFE6FF6F008FFFE6FF46ECDFF0E00EAF
:100E0000600007F0E3FFE10E60000BF0E3FFE20E8D
:100E100060000FF0E3FFE30E600013F0E3FF000E4D
:100E2000E66E000EE66E200EE66E410EE66ED00E09
:100E30006F008FFFE6FF6F008FFFE6FF6F008FFFF1
:100E4000E6FF6F008FFFE6FF13ECA7F0D40E600003
:100E500007F0E3FFD50E60000BF0E3FFD60E600055
:100E60000FF0E3FFD70E600013F0E3FFE150F60F41
:100E7000D96EE250DA6EFF0EDA22DE06000EDD5A7F
:100E8000EC0EE350010F016EEC0E600007F0E3FF83
:100E9000016AED0EE3500120016EED0E600007F0D7
:100EA000E3FFE150EC0FD96EE250DA6EFF0EDA226A
:100EB000F80EE350DE5CDE50800A016EF90EE3505E
:100EC000800A0158D8B00ED0E90EE3BE33D6E90E41
:100ED000E35008E1E80E6F008CFF01F04B0E015E5D
:100EE000D8A028D6FA0E6F008CFF01F0FB0EE3505D
:100EF0000110D8B43EA821D0E80E6F008CFF0BF093
:100F0000E90E6F008CFF0CF0970E0B24D96E020EC9
:100F10000C20DA6E2E0EDF6EE80EE350010F016E2C
:100F2000E80E600007F0E3FF016AE90EE3500120DC
:100F3000016EE90E600007F0E3FFE80E6F008CFF22
:100F40000BF0E90E6F008CFF0CF0970E0B24D96E9E
:100F5000020E0C20DA6E000EDF6EFF0E6F008CFFAB
:100F600001F0650E0118D8A416EF81F04F0E0B6E3C
:100F7000000E0C6EEC0E60002FF0E3FFED0E600033
:100F800033F0E3FFEC0E6F008CFF0BF0ED0E6F0003
:100F90008CFF0CF0970E0B24D96E020E0C20DA6E2B
:100FA000000EDF6EF20EE36AF30EE36AEB0EE3AEC1
:100FB00012D0010E0B6E000E0C6EF20E60002FF0C0
:100FC000E3FFF30E600033F0E3FFEA0EE36CEB0E99
:100FD000E31ED8B0E32A020E0B6E000E0C6EF00E6C
:100FE00060002FF0E3FFF10E600033F0E3FF51D01B
:100FF000E150EC0FD96EE250DA6EFF0EDA22DE0617
:10100000000EDD5AEC0E6F008CFF0BF0ED0E6F0042
:101010008CFF0CF0970E0B24D96E020E0C20DA6EAA
:101020000A0EE66E000EE66EE80E6F008FFFE6FF1A
:101030006F008FFFE6FF0EECD0F00150300FDF6E37
:101040000A0EE66E000EE66EE80E6F008FFFE6FFFA
:101050006F008FFFE6FFD5ECCBF0EA0E600007F0E3
:10106000E3FFEB0E60000BF0E3FFE150F00FD96EF1
:10107000E250DA6EFF0EDA22DE06000EDD5AE15093
:10108000EE0FD96EE250DA6EFF0EDA22DE06000EA7
:10109000DD5AEA0E6F008CFF01F0EB0EE3500110F9
:1010A000D8A4A6D7F10EE3BE07D0F10EE350A0E11D
:1010B000F00EE304D8B09CD7E150EC0FD96EE250AB
:1010C000DA6EFF0EDA22DE06000EDD5AF20E6F0037
:1010D0008CFF01F0F30EE3500110D8A402D02B0EC8
:1010E00001D02D0E0B6E000E0C6ECC0E60002FF09A
:1010F000E3FFCD0E600033F0E3FFEC0E6F008CFFDA
:101100000BF0ED0E6F008CFF0CF0970E0B24D96ED8
:10111000020E0C20DA6ECC0E6F008FFFDFFFE15065
:10112000EE0FD96EE250DA6EFF0EDA22DE06000E06
:10113000DD5AE150EC0FD96EE250DA6EFF0EDA2282
:10114000DE06000EDD5ABF0E0B6EFF0E0C6EC10EDA
:10115000E350096E0A6A0B5009260C500A220A5005
:1011600006E11A0E095CD8B002D0010E01D0000EC3
:101170000B6E0C6AC80E60002FF0E3FFC90E600012
:1011800033F0E3FFC80E6F008CFF01F0C90EE3508F
:101190000110D8A402D0650E01D0450E0B6E000ED2
:1011A0000C6ECA0E60002FF0E3FFCB0E600033F030
:1011B000E3FFEC0E6F008CFF0BF0ED0E6F008CFF69
:1011C0000CF0970E0B24D96E020E0C20DA6ECA0EAC
:1011D0006F008FFFDFFFE150EE0FD96EE250DA6E45
:1011E000FF0EDA22DE06000EDD5AEC0E6F008CFFD9
:1011F0000BF0ED0E6F008CFF0CF0970E0B24096EB8
:10120000020E0C200A6E600027F0E6FF60002BF053
:10121000E6FF970E0B6E020E0C6EE60EE3500B26E9
:10122000E70EE3500C2260002FF0E6FF600033F081
:10123000E6FF03ECD4F016EF81F0C10EE126FF0EBD
:10124000E2221200110EE126000EE222FA0EE36AFB
:10125000FD0EE36AFC0EE36AE32AFB0EE36AE38217
:101260006EECDEF0D28ED28C0101076B2C0EE66E96
:10127000010EE66EDBECE0F0CBA004D0FE0EE36ADC
:10128000E32A04D0FE0EE36AE380E382FE0EE30469
:10129000D8A407D0BD80000E01019D6F460E9C6F43
:1012A00004D0BD9001019C6B9D6B600073F6E6FF5E
:1012B000600077F6E6FF7FECE4F04DD35EECE1F002
:1012C000ACECD2F00C0EE66EEBECE4F053ECD6F0A6
:1012D000010EE66ED3ECE4F0010EE66ECBECE4F02A
:1012E000FE0E6F008CFF07F1A50EE66E070EE66E90
:1012F000F6ECE0F0000EE66E37ECE4F0F50EE66E8C
:10130000FE0EE66E000EE66E000EE66EBEECE1F03E
:10131000600007F0E6FF60000BF0E6FF040EE66EEB
:10132000ACECD1F0D20EE66EFF0EE66EB60EE66EB7
:10133000FE0EE66E000EE66E010EE66EBEECE1F00D
:10134000600007F0E6FF60000BF0E6FF060EE66EB9
:10135000ACECD1F0620EE66EFE0EE66E000EE66EAE
:10136000020EE66EBEECE1F0600007F0E6FF600002
:101370000BF0E6FF040EE66EACECD1F00E0EE66E5E
:10138000FE0EE66E020EE66E000EE66EBEECE1F0BC
:10139000600007F0E6FF60000BF0E6FF040EE66E6B
:1013A000ACECD1F00E0EE66EFE0EE66E020EE66EB0
:1013B000010EE66EBEECE1F0600007F0E6FF6000B3
:1013C0000BF0E6FF040EE66EACECD1F00E0EE66E0E
:1013D000FE0EE66E020EE66E020EE66EBEECE1F06A
:1013E000600007F0E6FF60000BF0E6FF040EE66E1B
:1013F000ACECD1F0000EE66E24ECD1F0E80EE66E17
:10140000030EE66EDBECE0F0FA0EE66E000EE66E22
:101410000A0EE66EECECDFF0C80EE66E000EE66E2D
:10142000010EE66EECECDFF0B80EE66E0B0EE66E2B
:10143000070EE66EECECDFF0DC0EE66E050EE66EF7
:101440000B0EE66EECECDFF0B80EE66E0B0EE66E01
:10145000090EE66EECECDFF085ECDCF0F9ECE3F085
:10146000E80EE66E030EE66EDBECE0F0FF0EE36ADC
:10147000E32A36ECC8F0000EE66E040EE66ED0EC01
:10148000A9F0600007F0E6FF60000BF0E6FF6000E7
:101490000FF0E6FF600013F0E6FF4D0EE66EFE0E65
:1014A000E66E000EE66E010EE66EBEECE1F0600048
:1014B00007F0E6FF60000BF0E6FF080EE66EACEC0E
:1014C000D1F021EE6BF36F007BFFE6FF6F007BFF37
:1014D000E6FF6F007BFFE6FF6F007BFFE6FFFB0E82
:1014E000E350E66E000EE66E000EE66E050EE66E4A
:1014F00031ECD2F00150E66E000EE66E090EE66E9B
:10150000FC0EE66E000EE66E020EE66EBEECE1F03C
:10151000600007F0E6FF60000BF0E6FF0C0EE66EE1
:10152000ACECD1F0000EE66E24ECD1F03FECE5F02F
:1015300085ECDCF0D00EE66E070EE66EDBECE0F03C
:10154000FF0E6F008CFF0CF00C2A600033F0E3FFFD
:101550000C061E0E0C601AD021EE6BF36F007BFFA1
:10156000E6FF6F007BFFE6FF6F007BFFE6FF6F008B
:101570007BFFE6FF420EE66E600EE66E650EE66EDF
:101580003C0EE66E72ECCAF001A073D749ECDDF0B8
:1015900051ECBFF0000EE66ED3ECE4F0000EE66E08
:1015A000CBECE4F021EEB5F36F0078FF0BF06F00A9
:1015B00074FF0CF060002FF0E6FF600033F0E6FFF0
:1015C000C40EE66EFC0EE66E000EE66E000EE66ED3
:1015D000BEECE1F0600007F0E6FF60000BF0E6FF14
:1015E000060EE66EACECD1F021EE8FF36F007BFFC0
:1015F000E6FF6F007BFFE6FF6F007BFFE6FF6F00FB
:101600007BFFE6FFA00EE66EFD0EE66E000EE66EB8
:10161000010EE66EBEECE1F0600007F0E6FF600050
:101620000BF0E6FF080EE66EACECD1F0000EE66EB5
:1016300024ECD1F0D00EE66E070EE66EDBECE0F0A7
:10164000770EE66EFE0EE66E000EE66E000EE66E9D
:10165000BEECE1F0600007F0E6FF60000BF0E6FF93
:10166000040EE66EACECD1F08C0EE66EFE0EE66E6D
:10167000000EE66E010EE66EBEECE1F0600007F0D3
:10168000E6FF60000BF0E6FF040EE66EACECD1F076
:10169000340EE66EFF0EE66E000EE66E020EE66E8D
:1016A000BEECE1F0600007F0E6FF60000BF0E6FF43
:1016B000040EE66EACECD1F0000EE66E24ECD1F038
:1016C000010E0B6E000E0C6EF70E60002FF0E3FFA4
:1016D000F80E600033F0E3FF6DD06E0EE66E000E84
:1016E000E66EDBECE0F0F30E6F008FFFE6FF6F00BD
:1016F0008FFFE6FF6F008FFFE6FF6F008FFFE6FFB3
:10170000AEECD6F0600007F0E6FF60000BF0E6FFFD
:1017100060000FF0E6FF600013F0E6FFB9ECC9F0DF
:10172000600004F00CF0F90E600033F0E3FF000EEF
:10173000E66EF80EE350E66E31ECD2F00150E66E44
:10174000000EE66E000EE66E000EE66E31ECD2F094
:101750000150E66E000EE66E1F0EE66EFF0EE66EA0
:10176000000EE66E020EE66EBEECE1F0600007F0E1
:10177000E6FF60000BF0E6FF080EE66EACECD1F081
:10178000000EE66E24ECD1F0E150F70FD96EE25076
:10179000DA6EFF0EDA226F007CFF0BF0010EDE2600
:1017A0006F007CFF0CF0000EDD220B04020E0C58C3
:1017B000D8B017D0000EE66ED3ECB8F0F30E600090
:1017C00007F0E3FFF40E60000BF0E3FFF50E60009E
:1017D0000FF0E3FFF60E600013F0E3FFF60EE3BE3A
:1017E0007CD721EE87F36F007BFFE6FF6F007BFF66
:1017F000E6FF6F007BFFE6FF6F007BFFE6FFAE0EAC
:10180000E66EFC0EE66E000EE66E000EE66EBEECB8
:10181000E1F0600007F0E6FF60000BF0E6FF080E65
:10182000E66EACECD1F022EE0DF06F007BFFE6FF30
:101830006F007BFFE6FF6F007BFFE6FF6F007BFF23
:10184000E6FF22EE19F06F007BFFE6FF6F007BFFE3
:10185000E6FF6F007BFFE6FF6F007BFFE6FFD50E24
:10186000E66EFB0EE66E000EE66E010EE66EBEEC58
:10187000E1F0600007F0E6FF60000BF0E6FF0C0E01
:10188000E66EACECD1F022EE11F06F007BFFE6FFCC
:101890006F007BFFE6FF6F007BFFE6FF6F007BFFC3
:1018A000E6FF22EE1DF06F007BFFE6FF6F007BFF7F
:1018B000E6FF6F007BFFE6FF6F007BFFE6FFEF0EAA
:1018C000E66EFB0EE66E000EE66E020EE66EBEECF7
:1018D000E1F0600007F0E6FF60000BF0E6FF0C0EA1
:1018E000E66EACECD1F0000EE66E24ECD1F0A00E6A
:1018F000E66E0F0EE66EDBECE0F0040EE66ED5EC65
:10190000E1F00150D8B402D0010E01D0000E010167
:10191000B56FE80EE66E030EE66EDBECE0F001015B
:10192000B551D8B40FD0040EE66ED5ECE1F00150FD
:10193000D8B408D018ECBEF0A00EE66E0F0EE66E1E
:10194000DBECE0F00101B56B010EB66F1BD0F3814B
:1019500019D0076B17D0010107510B6E0C6A0C50A0
:10196000000AD8A4F6D70B50000AD8B4A7D4010AAD
:10197000D8B408D0020AD8B405D0070AD8B4E7D73B
:10198000010AE7D7010EE66E41ECE2F00150D8B44F
:1019900013D02FECE5F00150D8B40ED0F7ECD5F011
:1019A0003FECE5F085ECDCF0C80EE66E000EE66E6E
:1019B000010EE66EECECDFF00A0EE66E41ECE2F0B2
:1019C0000150D8B488EF91F0090EE66E41ECE2F0D8
:1019D0000150D8B404D0000EE66E46ECE4F06EEC94
:1019E000AEF0C70EE66E010EE66EA4ECC2F01EEF7E
:1019F00091F0B36B22EE21F0DF50D8A402D0200E7C
:101A000001D0440E0B6E000E0C6EF10E60002FF034
:101A1000E3FFF20E600033F0E3FF21EE7BF36F0093
:101A20007BFFE6FF6F007BFFE6FF6F007BFFE6FFBB
:101A30006F007BFFE6FFED0E6F008FFFE6FF6F008C
:101A40008FFFE6FF8A0EE66EFD0EE66E000EE66E76
:101A5000000EE66EBEECE1F0600007F0E6FF60000D
:101A60000BF0E6FF0A0EE66EACECD1F021EE73F35C
:101A70006F007BFFE6FF6F007BFFE6FF6F007BFFE1
:101A8000E6FF6F007BFFE6FF740EE66EFD0EE66E6E
:101A9000000EE66E010EE66EBEECE1F0600007F0AF
:101AA000E6FF60000BF0E6FF080EE66EACECD1F04E
:101AB00021EE77F36F007BFFE6FF6F007BFFE6FF11
:101AC0006F007BFFE6FF6F007BFFE6FF5E0EE66EBA
:101AD000FD0EE66E000EE66E020EE66EBEECE1F066
:101AE000600007F0E6FF60000BF0E6FF080EE66E10
:101AF000ACECD1F022EE21F0DF50D8A402D0200EC1
:101B000001D0440E0B6E000E0C6EEF0E60002FF035
:101B1000E3FFF00E600033F0E3FF21EEA7F36F0068
:101B20007BFFE6FF6F007BFFE6FF6F007BFFE6FFBA
:101B30006F007BFFE6FFEB0E6F008FFFE6FF6F008D
:101B40008FFFE6FF480EE66EFD0EE66E010EE66EB6
:101B5000000EE66EBEECE1F0600007F0E6FF60000C
:101B60000BF0E6FF0A0EE66EACECD1F021EEAFF31F
:101B70006F007BFFE6FF6F007BFFE6FF6F007BFFE0
:101B8000E6FF6F007BFFE6FF320EE66EFD0EE66EAF
:101B9000010EE66E010EE66EBEECE1F0600007F0AD
:101BA000E6FF60000BF0E6FF080EE66EACECD1F04D
:101BB00021EEABF36F007BFFE6FF6F007BFFE6FFDC
:101BC0006F007BFFE6FF6F007BFFE6FF1C0EE66EFB
:101BD000FD0EE66E010EE66E020EE66EBEECE1F064
:101BE000600007F0E6FF60000BF0E6FF080EE66E0F
:101BF000ACECD1F039D3B36B21EE03F36F007BFF74
:101C0000E6FF6F007BFFE6FF6F007BFFE6FF6F00E4
:101C10007BFFE6FF21EE13F36F007BFFE6FF6F0013
:101C20007BFFE6FF6F007BFFE6FF6F007BFFE6FFB9
:101C3000E20EE66EFD0EE66E000EE66E000EE66E3D
:101C4000BEECE1F0600007F0E6FF60000BF0E6FF9D
:101C50000C0EE66EACECD1F021EEFFF26F007BFFD4
:101C6000E6FF6F007BFFE6FF6F007BFFE6FF6F0084
:101C70007BFFE6FF21EE0FF36F007BFFE6FF6F00B7
:101C80007BFFE6FF6F007BFFE6FF6F007BFFE6FF59
:101C9000B60EE66EFD0EE66E000EE66E010EE66E08
:101CA000BEECE1F0600007F0E6FF60000BF0E6FF3D
:101CB0000C0EE66EACECD1F021EE3FF36F007BFF33
:101CC000E6FF6F007BFFE6FF6F007BFFE6FF6F0024
:101CD0007BFFE6FF21EE07F36F007BFFE6FF6F005F
:101CE0007BFFE6FF6F007BFFE6FF6F007BFFE6FFF9
:101CF000CC0EE66EFD0EE66E000EE66E020EE66E91
:101D0000BEECE1F0600007F0E6FF60000BF0E6FFDC
:101D10000C0EE66EACECD1F021EE9FF36F007BFF72
:101D2000E6FF6F007BFFE6FF6F007BFFE6FF6F00C3
:101D30007BFFE6FFDA0EE66EFC0EE66E010EE66E47
:101D4000000EE66EBEECE1F0600007F0E6FF60001A
:101D50000BF0E6FF080EE66EACECD1F021EEA3F33B
:101D60006F007BFFE6FF6F007BFFE6FF6F007BFFEE
:101D7000E6FF6F007BFFE6FFF00EE66EFC0EE66E00
:101D8000010EE66E010EE66EBEECE1F0600007F0BB
:101D9000E6FF60000BF0E6FF080EE66EACECD1F05B
:101DA00021EEA3F36F007BFFE6FF6F007BFFE6FFF2
:101DB0006F007BFFE6FF6F007BFFE6FF21EE9FF3E6
:101DC0006F007BFFE6FF6F007BFFE6FF6F007BFF8E
:101DD000E6FF6F007BFFE6FF35ECA3F0600007F045
:101DE000E6FF60000BF0E6FF60000FF0E6FF60002A
:101DF00013F0E6FF060EE66EFD0EE66E010EE66ED1
:101E0000020EE66EBEECE1F0600007F0E6FF600057
:101E10000BF0E6FF080EE66EACECD1F025D2B36B0A
:101E200021EE7FF36F007BFFE6FF6F007BFFE6FF95
:101E30006F007BFFE6FF6F007BFFE6FF520EE66E52
:101E4000FC0EE66E000EE66E000EE66EBEECE1F0F5
:101E5000600007F0E6FF60000BF0E6FF080EE66E9C
:101E6000ACECD1F021EE93F36F007BFFE6FF6F0047
:101E70007BFFE6FF6F007BFFE6FF6F007BFFE6FF67
:101E800021EE8FF36F007BFFE6FF6F007BFFE6FF25
:101E90006F007BFFE6FF6F007BFFE6FF970EE66EAD
:101EA000FC0EE66E000EE66E010EE66EBEECE1F094
:101EB000600007F0E6FF60000BF0E6FF0C0EE66E38
:101EC000ACECD1F021EE0FF36F007BFFE6FF6F006B
:101ED0007BFFE6FF6F007BFFE6FF6F007BFFE6FF07
:101EE00021EEB3F36F0078FF0BF06F0074FF0CF07E
:101EF00060002FF0E6FF600033F0E6FF21EEB5F35F
:101F00006F0078FF0BF06F0074FF0CF060002FF093
:101F1000E6FF600033F0E6FF000EE66E050EE66EAB
:101F200031ECD2F00150E66E000EE66EB80EE66EB1
:101F3000FB0EE66E000EE66E020EE66EBEECE1F003
:101F4000600007F0E6FF60000BF0E6FF0E0EE66EA5
:101F5000ACECD1F021EE87F36F007BFFE6FF6F0062
:101F60007BFFE6FF6F007BFFE6FF6F007BFFE6FF76
:101F70003B0EE66EFC0EE66E010EE66E000EE66EA1
:101F8000BEECE1F0600007F0E6FF60000BF0E6FF5A
:101F9000080EE66EACECD1F022EE0DF06F007BFF88
:101FA000E6FF6F007BFFE6FF6F007BFFE6FF6F0041
:101FB0007BFFE6FF22EE19F06F007BFFE6FF6F006C
:101FC0007BFFE6FF6F007BFFE6FF6F007BFFE6FF16
:101FD000690EE66EFC0EE66E010EE66E010EE66E12
:101FE000BEECE1F0600007F0E6FF60000BF0E6FFFA
:101FF0000C0EE66EACECD1F022EE11F06F007BFF20
:10200000E6FF6F007BFFE6FF6F007BFFE6FF6F00E0
:102010007BFFE6FF22EE1DF06F007BFFE6FF6F0007
:102020007BFFE6FF6F007BFFE6FF6F007BFFE6FFB5
:10203000800EE66EFC0EE66E010EE66E020EE66E99
:10204000BEECE1F0600007F0E6FF60000BF0E6FF99
:102050000C0EE66EACECD1F007D1B351D8A42DD064
:10206000FF0EE66EFC0EE350E66E000EE66E000E0E
:10207000E66E000EE66E000EE66EBDECC5F0FF0EDD
:10208000E66EFB0EE350E66E000EE66E000EE66EA8
:10209000000EE66E000EE66EBDECC5F0FF0EE66EBD
:1020A000FA0EE350E66E000EE66E000EE66E000ECF
:1020B000E66E000EE66EBDECC5F0010E0101B36FD9
:1020C000FA0EE350E66E000EE66EFB0EE350040DD2
:1020D000FF0EF324D96E060EF420DA6E6F007BFF3C
:1020E000E6FF6F007BFFE6FF6F007BFFE6FF6F0000
:1020F0007BFFE6FFF70EE350E66E55ECE4F0600080
:1021000007F0E6FF60000BF0E6FFF80EE66EFD0E4E
:10211000E66E000EE66E000EE66EBEECE1F06000CC
:1021200007F0E6FF60000BF0E6FF0C0EE66EACEC8D
:10213000D1F0FA0EE3500B6E0C6A010E0B26000E66
:102140000C2260002FF0E6FF600033F0E6FFFA0E8D
:10215000E350040DFF0EF324D96E060EF420DA6E60
:102160006F007BFFE6FF6F007BFFE6FF6F007BFFEA
:10217000E6FF6F007BFFE6FFF60EE350E66E55ECE0
:10218000E4F0600007F0E6FF60000BF0E6FFF80EF9
:10219000E66EFD0EE66E000EE66E010EE66EBEEC1D
:1021A000E1F0600007F0E6FF60000BF0E6FF0C0EC8
:1021B000E66EACECD1F0FA0EE3500B6E0C6A020E38
:1021C0000B26000E0C2260002FF0E6FF600033F0BB
:1021D000E6FFF90EE350040DFF0EF324D96E060E50
:1021E000F420DA6E6F007BFFE6FF6F007BFFE6FFF7
:1021F0006F007BFFE6FF6F007BFFE6FFF50EE3500D
:10220000E66E55ECE4F0600007F0E6FF60000BF0CE
:10221000E6FFF80EE66EFD0EE66E000EE66E020EAE
:10222000E66EBEECE1F0600007F0E6FF60000BF048
:10223000E6FF0C0EE66EACECD1F016D00101C751F2
:102240000B6E0C6A0C50000AD8A40ED00B50000A7A
:10225000D8B4D1D4010AD8B4F9EF8CF0030AD8B4B9
:10226000DED5010AD8B4F9D6C70EE66E010EE66EC9
:102270001FECDCF0FA0EE66E000EE66E0A0EE66E5D
:10228000ECECDFF0C70EE66E010EE66E46ECDBF01E
:1022900001500101B46FB451D8B411D0030EC71965
:1022A000D8B40DD0B46BA3A102D0010E01D0000EA2
:1022B000FF0A0C6EA3510C18FE0B0C18A36FA3A100
:1022C00002D0010E01D0000EE66E37ECE4F0010101
:1022D000A3A102D0010E01D0000EE66E24ECD1F0D5
:1022E000C6ECE3F0DF0EE66E4F0EE66E550EE66EC0
:1022F000400EE66E2AECE1F0DF0EE66E4F0EE66E63
:10230000D50EE66E400EE66E10ECE1F053ECD6F022
:102310000101B251E66EB2ECC3F00101B451D8B480
:1023200062D0B46BB36BFA0E6F008CFF01F0030E3A
:102330000126FA0E600007F0E3FFFA0E6F008CFF33
:1023400001F0090E01643AD0FA0EE36A37D0FD0EAF
:10235000E36AFC0EE36AE32AFB0EE36AE38243D0FE
:10236000FD0EE36AE384FC0EE36AE380E384FB0E84
:10237000E36AE382E38437D0FD0EE36AE382E38617
:102380000B0E0C6EFC0E600033F0E3FFFB0EE36AF5
:10239000E384E38628D00D0E0C6EFD0E600033F052
:1023A000E3FF0D0E0C6EFC0E600033F0E3FF0D0E2C
:1023B0000C6EFB0E600033F0E3FF15D0FA0EE35015
:1023C0000B6E0C6A0C50000AD8A40DD00B50000AFA
:1023D000D8B4BDD7030AD8B4C3D7050AD8B4CCD76C
:1023E0000F0AD8B4D8D7A2A1ABEF8CF0070EE66ED7
:1023F00041ECE2F00150D8B40CD00101A291000EE2
:10240000E66E37ECE4F0000EE66E24ECD1F0ABEFB4
:102410008CF0020EE66E37ECE4F0020EE66E24EC71
:10242000D1F0ABEF8CF0200EE126000EE222DC0EA4
:102430006F008FFFD9FFDD0E6F008FFFDAFF6F0097
:102440007BFFF6FF6F0077FFF7FF000EF86E0800C6
:10245000F550250AD8A4BAEF99F0DC0E6F008FFF73
:10246000D9FFDD0E6F008FFFDAFFDE2A000EDD22BE
:102470003A6A3B6A3E6A3F6A3C683D68DC0E6F0020
:102480008FFFD9FFDD0E6F008FFFDAFF6F007BFF3C
:10249000F6FF6F0077FFF7FF000EF86E0800F550AB
:1024A0002A0AD8A431D0DC0E6F008FFFD9FFDD0ED1
:1024B0006F008FFFDAFFDE2A000EDD22DA0E6F00DA
:1024C0008FFFD9FFDB0E6F008FFFDAFF020EDE5E9B
:1024D000000EDD5A6F0078FF0BF06F0074FF0CF0F8
:1024E00060002FF0D9FF600033F0DAFF6F0078FF53
:1024F0003AF06F0074FF3BF03BAE66D03E803A6C22
:102500003B1ED8B03B2A60D0DC0E6F008FFFD9FF96
:10251000DD0E6F008FFFDAFF6F0078FF0BF06F00AA
:1025200074FF0CF060002FF0E6FF600033F0E6FF70
:10253000DEECBCF0600004F03AF0600008F03BF024
:102540000BD0DC0E6F008FFFD9FFDD0E6F008FFF09
:10255000DAFFDE2A000EDD22D00E0B6EFF0E0C6EAF
:10256000DC0E6F008FFFD9FFDD0E6F008FFFDAFFEB
:102570006F007BFFF6FF6F0077FFF7FF000EF86E2E
:102580000800F550096E0A6A0B5009260C500A2201
:102590000A5006E10A0E095CD8B002D0010E01D043
:1025A000000E0B6E0C6AE40E60002FF0E3FFE50EE8
:1025B000600033F0E3FFE40E6F008CFF01F0E50EE6
:1025C000E3500110D8A4BDD7DC0E6F008FFFD9FFF8
:1025D000DD0E6F008FFFDAFF6F007BFFF6FF6F00ED
:1025E00077FFF7FF000EF86E0800F5502E0AD8A40A
:1025F000ACD03C6A3D6ADC0E6F008FFFD9FFDD0E68
:102600006F008FFFDAFFDE2A000EDD22DC0E6F0086
:102610008FFFD9FFDD0E6F008FFFDAFF6F007BFFAA
:10262000F6FF6F0077FFF7FF000EF86E0800F55019
:102630002A0AD8A42AD0DC0E6F008FFFD9FFDD0E46
:102640006F008FFFDAFFDE2A000EDD22DA0E6F0048
:102650008FFFD9FFDB0E6F008FFFDAFF020EDE5E09
:10266000000EDD5A6F0078FF0BF06F0074FF0CF066
:1026700060002FF0D9FF600033F0DAFF6F0078FFC1
:102680003CF06F0074FF3DF060D0DC0E6F008FFFF8
:10269000D9FFDD0E6F008FFFDAFF6F0078FF0BF0C0
:1026A0006F0074FF0CF060002FF0E6FF600033F065
:1026B000E6FFDEECBCF0600004F03CF0600008F0E7
:1026C0003DF00BD0DC0E6F008FFFD9FFDD0E6F00E9
:1026D0008FFFDAFFDE2A000EDD22D00E0B6EFF0E1A
:1026E0000C6EDC0E6F008FFFD9FFDD0E6F008FFFC9
:1026F000DAFF6F007BFFF6FF6F0077FFF7FF000E3A
:10270000F86E0800F550096E0A6A0B5009260C5045
:102710000A220A5006E10A0E095CD8B002D0010E66
:1027200001D0000E0B6E0C6AE00E60002FF0E3FF8C
:10273000E10E600033F0E3FFE00E6F008CFF01F06C
:10274000E10EE3500110D8A4BDD7DC0E6F008FFF5F
:10275000D9FFDD0E6F008FFFDAFF6F007BFFF6FF02
:102760006F0077FFF7FF000EF86E0800F550E66E79
:10277000000EE66E0CECDAF0FA0E600007F0E3FFF4
:10278000FA0EE350D8B45BD0FB0EE124D96EFF0EF5
:10279000E220DA6EDC0E6F008FFFE9FFDD0E6F00C6
:1027A0008FFFEAFF6F00B8FF0BF06F00B4FF0CF073
:1027B000010E0B26000E0C2260002FF0F6FF6000C9
:1027C00033F0F7FF000EF86E0800F550E66E000ECD
:1027D000E66E0CECDAF00150DF6EFB0EE124D96EF0
:1027E000FF0EE220DA6EDF50D8B429D0FC0EE124CF
:1027F000D96EFF0EE220DA6EDC0E6F008FFFE9FF6C
:10280000DD0E6F008FFFEAFF6F00B8FF0BF06F0067
:10281000B4FF0CF0020E0B26000E0C2260002FF00D
:10282000F6FF600033F0F7FF000EF86E0800F55079
:10283000E66E000EE66E0CECDAF00150DF6EDC0E98
:102840006F008FFFD9FFDD0E6F008FFFDAFF6F0083
:102850007BFFF6FF6F0077FFF7FF000EF86E0800B2
:10286000F550630AD8A437D0DC0E6F008FFFD9FF74
:10287000DD0E6F008FFFDAFFDE2A000EDD22DA0E9A
:102880006F008FFFD9FFDB0E6F008FFFDAFF020EA4
:10289000DE5E000EDD5A6F0078FF0BF06F0074FFF4
:1028A0000CF060002FF0D9FF600033F0DAFFDF504A
:1028B0000C6EFF0E600033F0E3FFFF0EE350E66E98
:1028C000DD0E6F008FFFE6FF6F008FFFE6FF86ECE7
:1028D000D9F0E4EF99F0DC0E6F008FFFD9FFDD0E29
:1028E0006F008FFFDAFF6F007BFFF6FF6F0077FF4F
:1028F000F7FF000EF86E0800F550640AD8B415D042
:10290000DC0E6F008FFFD9FFDD0E6F008FFFDAFF47
:102910006F007BFFF6FF6F0077FFF7FF000EF86E8A
:102920000800F550690AD8A476D0DC0E6F008FFF3E
:10293000D9FFDD0E6F008FFFDAFFDE2A000EDD22E9
:10294000DA0E6F008FFFD9FFDB0E6F008FFFDAFF0B
:10295000020EDE5E000EDD5A6F0078FF0BF06F0096
:1029600074FF0CF060002FF0D9FF600033F0DAFF45
:102970006F0078FF0BF06F0074FF0CF0EE0E60003C
:102980002FF0E3FFEF0E600033F0E3FF016AE3BED8
:102990000168F00E600007F0E3FFF10E600007F041
:1029A000E3FFF20E600007F0E3FFF30E600007F0B4
:1029B000E3FFF40E600007F0E3FFF50E600007F0A0
:1029C000E3FFE150EE0FD96EE250DA6EFF0EDA222D
:1029D0006F007BFFE6FF6F007BFFE6FF6F007BFF72
:1029E000E6FF6F007BFFE6FF6F007BFFE6FF6F00F7
:1029F0007BFFE6FF6F007BFFE6FF6F007BFFE6FFDC
:102A0000D60E6F008FFFE6FF6F008FFFE6FF2EEC04
:102A1000ACF0E4EF99F0020EE66E000EE66EEA0E00
:102A2000E66EFF0EE66ED80E6F008FFFD9FFD90E4F
:102A30006F008FFFDAFF6F0078FF0BF06F0074FFFD
:102A40000CF060002FF0E6FF600033F0E6FF94EC3E
:102A5000C1F001500210D8B422D0020EE66E000E72
:102A6000E66EF00EE66EFF0EE66ED80E6F008FFF7C
:102A7000D9FFD90E6F008FFFDAFF6F0078FF0BF0E0
:102A80006F0074FF0CF060002FF0E6FF600033F081
:102A9000E6FF94ECC1F001500210D8A469D0DC0E1E
:102AA0006F008FFFD9FFDD0E6F008FFFDAFF020E80
:102AB000DE26000EDD22DA0E6F008FFFD9FFDB0E5F
:102AC0006F008FFFDAFF040EDE5E000EDD5A6F002E
:102AD00078FF0BF06F0074FF0CF060002FF0D9FF4F
:102AE000600033F0DAFF6F0078FF09F06F0078FFC5
:102AF0000AF06F0078FF0BF06F0078FF0CF06000B9
:102B000024F011F0600028F012F060002CF013F0B7
:102B1000600030F014F0156A14BE1568600054F0BF
:102B200016F0600054F017F0600054F018F0EE0E4C
:102B3000600047F0E3FFEF0E60004BF0E3FFF00EA4
:102B400060004FF0E3FFF10E600053F0E3FFF20E80
:102B5000600057F0E3FFF30E60005BF0E3FFF40E5C
:102B600060005FF0E3FFF50E600063F0E3FF29D73C
:102B7000FA0E6F008CFF01F0660E0118D8A46ED01B
:102B8000DC0E6F008FFFD9FFDD0E6F008FFFDAFFC5
:102B90006F007BFFF6FF6F0077FFF7FF000EF86E08
:102BA0000800FF0E6F00D7FFE3FFDC0E6F008FFF02
:102BB000D9FFDD0E6F008FFFDAFFDE2A000EDD2267
:102BC000DA0E6F008FFFD9FFDB0E6F008FFFDAFF89
:102BD000040EDE5E000EDD5A6F0078FF0BF06F0012
:102BE00074FF0CF060002FF0D9FF600033F0DAFFC3
:102BF0006F0078FF09F06F0078FF0AF06F0078FF30
:102C00000BF06F0078FF0CF0F60E600027F0E3FF8A
:102C1000F70E60002BF0E3FFF80E60002FF0E3FFEB
:102C2000F90E600033F0E3FFFF0EE350E66EF50EA1
:102C30006F008FFFE6FF6F008FFFE6FF6F008FFFD3
:102C4000E6FF6F008FFFE6FFD90E6F008FFFE6FFF4
:102C50006F008FFFE6FF00EC80F0B6D3020EE66E49
:102C6000000EE66EED0EE66EFF0EE66EF60EE12449
:102C7000016EFF0EE220026E600007F0E6FF6000CA
:102C80000BF0E6FF94ECC1F001500210D8A496D0EE
:102C9000DC0E6F008FFFD9FFDD0E6F008FFFDAFFB4
:102CA0006F0078FF0BF06F0074FF0CF0010E0B2625
:102CB000000E0C2260002FF0F6FF600033F0F7FFEB
:102CC000000EF86E0800FF0E6F00D7FFE3FFBF0E87
:102CD0000B6EFF0E0C6EDC0E6F008FFFD9FFDD0E4A
:102CE0006F008FFFDAFF6F007BFFF6FF6F0077FF4B
:102CF000F7FF000EF86E0800F550096E0A6A0B50D7
:102D000009260C500A220A5006E11A0E095CD8B0B6
:102D100002D0010E01D0000E0B6E0C6AE20E6000B4
:102D20002FF0E3FFE30E600033F0E3FFE20E6F00ED
:102D30008CFF01F0E30EE3500110DA0E6F008FFFFD
:102D4000D9FFDB0E6F008FFFDAFF040EDE5E000E90
:102D5000DD5A6F0078FF0BF06F0074FF0CF060001D
:102D60002FF0D9FF600033F0DAFF6F0078FF09F031
:102D70006F0078FF0AF06F0078FF0BF06F0078FFAC
:102D80000CF0F60E600027F0E3FFF70E60002BF06A
:102D9000E3FFF80E60002FF0E3FFF90E600033F060
:102DA000E3FFDC0E6F008FFFD9FFDD0E6F008FFF9A
:102DB000DAFF020EDE26000EDD2236D7DC0E6F00B3
:102DC0008FFFD9FFDD0E6F008FFFDAFF6F007BFFF3
:102DD000F6FF6F0077FFF7FF000EF86E0800F55062
:102DE000730AD8A442D0DC0E6F008FFFD9FFDD0E2E
:102DF0006F008FFFDAFFDE2A000EDD22DA0E6F0091
:102E00008FFFD9FFDB0E6F008FFFDAFF020EDE5E51
:102E1000000EDD5A6F0078FF0BF06F0074FF0CF0AE
:102E200060002FF0D9FF600033F0DAFF6F0078FF09
:102E30000BF06F0074FF0CF0FE0E600033F0E3FF48
:102E4000FD0E60002FF0E3FFFD0E6F008FFFE6FF29
:102E50006F008FFFE6FFDC0E6F008FFFE6FF6F0055
:102E60008FFFE6FF3FECBAF0AFD2DC0E6F008FFFB2
:102E7000D9FFDD0E6F008FFFDAFF6F007BFFF6FFDB
:102E80006F0077FFF7FF000EF86E0800F550750A27
:102E9000D8A47CD0DC0E6F008FFFD9FFDD0E6F0051
:102EA0008FFFDAFFDE2A000EDD22DA0E6F008FFFC1
:102EB000D9FFDB0E6F008FFFDAFF020EDE5E000E21
:102EC000DD5A6F0078FF0BF06F0074FF0CF06000AC
:102ED0002FF0D9FF600033F0DAFF6F0078FF0BF0BE
:102EE0006F0074FF0CF00B50116E0C50126E136AD1
:102EF000146A156A166A176A186AE60E600047F0C7
:102F0000E3FFE70E60004BF0E3FFE80E60004FF0D8
:102F1000E3FFE90E600053F0E3FFEA0E600057F0B4
:102F2000E3FFEB0E60005BF0E3FFEC0E60005FF090
:102F3000E3FFED0E600063F0E3FFE150E60FD96EB2
:102F4000E250DA6EFF0EDA226F007BFFE6FF6F00C1
:102F50007BFFE6FF6F007BFFE6FF6F007BFFE6FF76
:102F60006F007BFFE6FF6F007BFFE6FF6F007BFFDC
:102F7000E6FF6F007BFFE6FFD60E6F008FFFE6FFD8
:102F80006F008FFFE6FF27ECB4F01ED2020EE66E54
:102F9000000EE66EF30EE66EFF0EE66ED80E6F00C4
:102FA0008FFFD9FFD90E6F008FFFDAFF6F0078FF18
:102FB0000BF06F0074FF0CF060002FF0E6FF600074
:102FC00033F0E6FF94ECC1F001500210D8A439D0E0
:102FD000DC0E6F008FFFD9FFDD0E6F008FFFDAFF71
:102FE000020EDE26000EDD22DA0E6F008FFFD9FF03
:102FF000DB0E6F008FFFDAFF040EDE5E000EDD5A7F
:103000006F0078FF0BF06F0074FF0CF060002FF082
:10301000D9FF600033F0DAFF6F0078FF09F06F002E
:1030200078FF0AF06F0078FF0BF06F0078FF0CF06C
:103030000950116E0A50126E0B50136E0C50146E24
:1030400058D7DC0E6F008FFFD9FFDD0E6F008FFFAA
:10305000DAFF6F007BFFF6FF6F0077FFF7FF000ED0
:10306000F86E0800F550780AD8B415D0DC0E6F0061
:103070008FFFD9FFDD0E6F008FFFDAFF6F007BFF40
:10308000F6FF6F0077FFF7FF000EF86E0800F550AF
:10309000580AD8A494D0DC0E6F008FFFD9FFDD0E44
:1030A0006F008FFFDAFF6F007BFFF6FF6F0077FF87
:1030B000F7FF000EF86E0800FF0E6F00D7FFE3FF6A
:1030C000DC0E6F008FFFD9FFDD0E6F008FFFDAFF80
:1030D000DE2A000EDD22DA0E6F008FFFD9FFDB0E35
:1030E0006F008FFFDAFF020EDE5E000EDD5A6F000A
:1030F00078FF0BF06F0074FF0CF060002FF0D9FF29
:10310000600033F0DAFF6F0078FF0BF06F0074FFA0
:103110000CF00B50116E0C50126E136A146A156A83
:10312000166A176A186AE60E600047F0E3FFE70EBA
:1031300060004BF0E3FFE80E60004FF0E3FFE90EA4
:10314000600053F0E3FFEA0E600057F0E3FFEB0E80
:1031500060005BF0E3FFEC0E60005FF0E3FFED0E5C
:10316000600063F0E3FFFF0EE350E66EE150E50F11
:10317000D96EE250DA6EFF0EDA226F007BFFE6FFB7
:103180006F007BFFE6FF6F007BFFE6FF6F007BFFBA
:10319000E6FF6F007BFFE6FF6F007BFFE6FF6F003F
:1031A0007BFFE6FF6F007BFFE6FFD50E6F008FFF12
:1031B000E6FF6F008FFFE6FF94ECB0F005D1020E42
:1031C000E66E000EE66EF60EE66EFF0EE66ED80EAA
:1031D0006F008FFFD9FFD90E6F008FFFDAFF6F00EE
:1031E00078FF0BF06F0074FF0CF060002FF0E6FF2B
:1031F000600033F0E6FF94ECC1F001500210D8B447
:1032000022D0020EE66E000EE66EE70EE66EFF0EB0
:10321000E66ED80E6F008FFFD9FFD90E6F008FFFBB
:10322000DAFF6F0078FF0BF06F0074FF0CF06000A6
:103230002FF0E6FF600033F0E6FF94ECC1F00150A0
:103240000210D8A458D0DC0E6F008FFFD9FFDD0E1E
:103250006F008FFFDAFF6F0078FF0BF06F0074FFD5
:103260000CF0010E0B26000E0C2260002FF0F6FF72
:10327000600033F0F7FF000EF86E0800FF0E6F00DD
:10328000D7FFE3FFDC0E6F008FFFD9FFDD0E6F006D
:103290008FFFDAFF020EDE26000EDD22DA0E6F004F
:1032A0008FFFD9FFDB0E6F008FFFDAFF040EDE5EAB
:1032B000000EDD5A6F0078FF0BF06F0074FF0CF00A
:1032C00060002FF0D9FF600033F0DAFF6F0078FF65
:1032D00009F06F0078FF0AF06F0078FF0BF06F00C5
:1032E00078FF0CF00950116E0A50126E0B50136EDD
:1032F0000C50146E14D7DC0E6F008FFFD9FFDD0E5B
:103300006F008FFFDAFF6F007BFFF6FF6F0077FF24
:10331000F7FF000EF86E0800F550250AD8A41AD061
:10332000DC0E6F008FFFD9FFDD0E6F008FFFDAFF1D
:10333000DE2A000EDD22DE0E6F008FFFE6FF6F003B
:103340008FFFE6FF250EE66E000EE66EF0ECCEF087
:10335000010E0CD0DC0E6F008FFFD9FFDD0E6F0069
:103360008FFFDAFFDE2A000EDD22000E016E000E56
:10337000026E2AD0DE0E6F008FFFE6FF6F008FFF18
:10338000E6FFDA0E6F008FFFD9FFDB0E6F008FFFB5
:10339000DAFF6F007BFFF6FF6F0077FFF7FF000E8D
:1033A000F86E0800F550E66E000EE66EF0ECCEF01A
:1033B000DC0E6F008FFFD9FFDD0E6F008FFFDAFF8D
:1033C000DE2A000EDD22C4D7DA0EE126FF0EE2224D
:1033D0001200060EE126000EE222000E096E000E1B
:1033E0000A6E800E0B6E3F0E0C6EFA0E600027F018
:1033F000E3FFFB0E60002BF0E3FFFC0E60002FF0FC
:10340000E3FFFD0E600033F0E3FFBE82000EE66EC8
:10341000000EE66E610EE66E450EE66E21EE43F39B
:103420006F007BFFE6FF6F007BFFE6FF6F007BFF17
:10343000E6FF6F007BFFE6FF13ECA7F0600007F0EC
:10344000E6FF60000BF0E6FF60000FF0E6FF6000B3
:1034500013F0E6FF8F0EE66E070EE66E0AECDBF069
:1034600021EE8FF36F007BFFE6FF6F007BFFE6FF2F
:103470006F007BFFE6FF6F007BFFE6FF21EE8BF323
:103480006F007BFFE6FF6F007BFFE6FF6F007BFFB7
:10349000E6FF6F007BFFE6FF72ECCAF001B00ED0D2
:1034A00021EE8BF36F0078FF8FF76F0078FF90F7B6
:1034B0006F0078FF91F76F0074FF92F7CD0EE66E04
:1034C000CC0EE66ECC0EE66E3D0EE66E21EE8FF370
:1034D0006F007BFFE6FF6F007BFFE6FF6F007BFF67
:1034E000E6FF6F007BFFE6FF72ECCAF001B010D080
:1034F000CD0E6F00A0FF8FF7CC0E6F00A0FF90F7EE
:10350000CC0E6F00A0FF91F73D0E6F00A0FF92F769
:1035100021EE43F36F007BFFE6FF6F007BFFE6FFCA
:103520006F007BFFE6FF6F007BFFE6FF0A0EE66E93
:10353000D70EE66E230EE66E3C0EE66E72ECCAF017
:1035400001B01CD06100F4FE09F06100F8FE0AF041
:103550006100FCFE0BF0610000FF0CF0FA0E600051
:1035600027F0E3FFFB0E60002BF0E3FFFC0E600092
:103570002FF0E3FFFD0E600033F0E3FF0A0EE66E6E
:10358000D70EE66E230EE66E3C0EE66E21EE43F39A
:103590006F007BFFE6FF6F007BFFE6FF6F007BFFA6
:1035A000E6FF6F007BFFE6FF72ECCAF001B01CD0B3
:1035B0006100E4FE09F06100E8FE0AF06100ECFE43
:1035C0000BF06100F0FE0CF0FA0E600027F0E3FF54
:1035D000FB0E60002BF0E3FFFC0E60002FF0E3FF1A
:1035E000FD0E600033F0E3FF000EE66E000EE66EA7
:1035F000610EE66E450EE66EF60E6F008FFFE6FF7B
:103600006F008FFFE6FF6F008FFFE6FF6F008FFFF9
:10361000E6FF21EE43F36F007BFFE6FF6F007BFFC9
:10362000E6FF6F007BFFE6FF6F007BFFE6FF20EC0D
:103630009FF0600007F0E6FF60000BF0E6FF60001F
:103640000FF0E6FF600013F0E6FF13ECA7F0600058
:1036500007F0E6FF60000BF0E6FF60000FF0E6FF0A
:10366000600013F0E6FF8F0EE66E070EE66E0AECC2
:10367000DBF021EE8FF36F0078FF9BF76F0078FF90
:103680009CF76F0078FF9DF76F0074FF9EF721EEA7
:103690009BF36F007BFFE6FF6F007BFFE6FF6F0091
:1036A0007BFFE6FF6F007BFFE6FF21EE8BF36F00F1
:1036B0007BFFE6FF6F007BFFE6FF6F007BFFE6FF0F
:1036C0006F007BFFE6FF72ECCAF001B00ED021EE76
:1036D0008BF36F0078FF9BF76F0078FF9CF76F000C
:1036E00078FF9DF76F0074FF9EF7CD0EE66ECC0E4F
:1036F000E66ECC0EE66E3D0EE66E21EE9BF36F009D
:103700007BFFE6FF6F007BFFE6FF6F007BFFE6FFBE
:103710006F007BFFE6FF72ECCAF001B010D0CD0E57
:103720006F00A0FF9BF7CC0E6F00A0FF9CF7CC0EA4
:103730006F00A0FF9DF73D0E6F00A0FF9EF7000EEB
:10374000E66E000EE66E610EE66E450EE66E21EE4A
:1037500047F36F007BFFE6FF6F007BFFE6FF6F0024
:103760007BFFE6FF6F007BFFE6FF13ECA7F0600036
:1037700007F0E6FF60000BF0E6FF60000FF0E6FFE9
:10378000600013F0E6FF930EE66E070EE66E0AEC9D
:10379000DBF0000EE66E000EE66E610EE66E450E84
:1037A000E66E21EE7BF36F007BFFE6FF6F007BFF91
:1037B000E6FF6F007BFFE6FF6F007BFFE6FF13EC89
:1037C000A7F0600007F0E6FF60000BF0E6FF600086
:1037D0000FF0E6FF600013F0E6FFA70EE66E070E9F
:1037E000E66E0AECDBF0000EE66E000EE66E610E91
:1037F000E66E450EE66E21EE77F36F007BFFE6FF87
:103800006F007BFFE6FF6F007BFFE6FF6F007BFF33
:10381000E6FF13ECA7F0600007F0E6FF60000BF096
:10382000E6FF60000FF0E6FF600013F0E6FFAB0E6E
:10383000E66E070EE66E0AECDBF0000EE66E000E9A
:10384000E66E610EE66E450EE66E21EE73F36F00D6
:103850007BFFE6FF6F007BFFE6FF6F007BFFE6FF6D
:103860006F007BFFE6FF13ECA7F0600007F0E6FFB8
:1038700060000BF0E6FF60000FF0E6FF600013F061
:10388000E6FFAF0EE66E070EE66E0AECDBF021EE09
:103890007FF36F007BFFE6FF6F007BFFE6FF6F00AB
:1038A0007BFFE6FF6F007BFFE6FF000EE66E000E7B
:1038B000E66E000EE66E000EE66E72ECCAF001B027
:1038C0002AD0000EE66E000EE66E610EE66E450E24
:1038D000E66E21EE7FF36F007BFFE6FF6F007BFF5C
:1038E000E6FF6F007BFFE6FF6F007BFFE6FF13EC58
:1038F000A7F0600007F0E6FF60000BF0E6FF600055
:103900000FF0E6FF600013F0E6FF9F0EE66E070E75
:10391000E66E0AECDBF021EE7FF3030EDBAE38D06F
:10392000000EE66E000EE66E610EE66E450EE66E69
:1039300021EE7FF36F007BFFE6FF6F007BFFE6FF6A
:103940006F007BFFE6FF6F007BFFE6FF13ECA7F045
:10395000600007F0E6FF60000BF0E6FF60000FF08C
:10396000E6FF600013F0E6FFAEECD6F0600007F073
:10397000E6FF60000BF0E6FF60000FF0E6FF60007E
:1039800013F0E6FFA30EE66E070EE66E0AECDBF020
:10399000000EE66E000EE66EC80EE66E420EE66E95
:1039A00021EE8BF36F007BFFE6FF6F007BFFE6FFEE
:1039B0006F007BFFE6FF6F007BFFE6FF21EE9BF3CE
:1039C0006F007BFFE6FF6F007BFFE6FF6F007BFF72
:1039D000E6FF6F007BFFE6FF13ECA7F0600007F047
:1039E000E6FF60000BF0E6FF60000FF0E6FF60000E
:1039F00013F0E6FF20EC9FF0600007F0E6FF6000A8
:103A00000BF0E6FF60000FF0E6FF600013F0E6FF4A
:103A1000B9ECC9F0600004F00BF0600008F00CF0A5
:103A2000010E0B26000E0C2260002CF0B5F7600092
:103A300030F0B6F721EEB5F3010EDB5004E1650E70
:103A4000DE5CD8A008D0640E6F00A0FFB5F7000EB2
:103A50006F00A0FFB6F721EE43F3030EDBAE47D0B5
:103A600021EE43F36F007BFFE6FF6F007BFFE6FF75
:103A70006F007BFFE6FF6F007BFFE6FF21EE9BF30D
:103A80006F007BFFE6FF6F007BFFE6FF6F007BFFB1
:103A9000E6FF6F007BFFE6FF13ECA7F0600007F086
:103AA000E6FF60000BF0E6FF60000FF0E6FF60004D
:103AB00013F0E6FF93ECDEF0600007F0E6FF600035
:103AC0000BF0E6FF60000FF0E6FF600013F0E6FF8A
:103AD000B9ECC9F0600004F00BF0600008F00CF0E5
:103AE00060002CF0B3F7600030F0B4F708D0630E3C
:103AF0006F00A0FFB3F7000E6F00A0FFB4F721EE38
:103B0000B3F3010EDB5004E1640EDE5CD8A008D0F4
:103B1000630E6F00A0FFB3F7000E6F00A0FFB4F7B5
:103B2000010E0101BB27000EBC23BD23BE23402A8A
:103B30004004D8A477D1B651D8B474D114ECE5F0D0
:103B4000FF0E60000BF0E3FFFE0E600007F0E3FFE6
:103B500021EEB9F36F007BFFE6FF6F007BFFE6FF0E
:103B60006F007BFFE6FF6F007BFFE6FF21EEBDF3FA
:103B70006F007BFFE6FF6F007BFFE6FF6F007BFFC0
:103B8000E6FF6F007BFFE6FF21EE9BF36F007BFFFC
:103B9000E6FF6F007BFFE6FF6F007BFFE6FF6F0035
:103BA0007BFFE6FF22EE26F06F007BFFE6FF6F0053
:103BB0007BFFE6FF6F007BFFE6FF6F007BFFE6FF0A
:103BC00022EE22F06F007BFFE6FF6F007BFFE6FF37
:103BD0006F007BFFE6FF6F007BFFE6FF22EE21F028
:103BE000DF50E66E000EE66EF9ECE4F00150E66E92
:103BF000000EE66E21EE67F36F007BFFE6FF6F00BD
:103C00007BFFE6FF6F007BFFE6FF6F007BFFE6FFB9
:103C100021EE87F36F007BFFE6FF6F007BFFE6FF7F
:103C20006F007BFFE6FF6F007BFFE6FF21EEB3F343
:103C30006F0078FF0BF06F0074FF0CF060002FF046
:103C4000E6FF600033F0E6FF21EEB5F36F0078FF8A
:103C50000BF06F0074FF0CF060002FF0E6FF6000C7
:103C600033F0E6FF21EE93F36F007BFFE6FF6F007A
:103C70007BFFE6FF6F007BFFE6FF6F007BFFE6FF49
:103C800021EE8FF36F007BFFE6FF6F007BFFE6FF07
:103C90006F007BFFE6FF6F007BFFE6FF21EE77F30F
:103CA0006F007BFFE6FF6F007BFFE6FF6F007BFF8F
:103CB000E6FF6F007BFFE6FF21EE73F36F007BFFF3
:103CC000E6FF6F007BFFE6FF6F007BFFE6FF6F0004
:103CD0007BFFE6FF21EE7BF36F007BFFE6FF6F00CB
:103CE0007BFFE6FF6F007BFFE6FF6F007BFFE6FFD9
:103CF00021EE7FF36F007BFFE6FF6F007BFFE6FFA7
:103D00006F007BFFE6FF6F007BFFE6FF21EE47F3CE
:103D10006F007BFFE6FF6F007BFFE6FF6F007BFF1E
:103D2000E6FF6F007BFFE6FF21EE43F36F007BFFB2
:103D3000E6FF6F007BFFE6FF6F007BFFE6FF6F0093
:103D40007BFFE6FF21EE63F36F007BFFE6FF6F0072
:103D50007BFFE6FF6F007BFFE6FF6F007BFFE6FF68
:103D600021EE4BF36F007BFFE6FF6F007BFFE6FF6A
:103D70006F007BFFE6FF6F007BFFE6FF21EE4FF356
:103D80006F007BFFE6FF6F007BFFE6FF6F007BFFAE
:103D9000E6FF6F007BFFE6FF21EE53F36F007BFF32
:103DA000E6FF6F007BFFE6FF6F007BFFE6FF6F0023
:103DB0007BFFE6FF600023F6E6FF600027F6E6FFE4
:103DC00060002BF6E6FF60002FF6E6FF320EE66E8F
:103DD000000EE66E390EE66EFB0EE66EA20E6F006A
:103DE0008FFFE6FF6F008FFFE6FF5E0EE66EACEC26
:103DF000D1F07D0EE66E000EE66E0A0EE66EECEC7D
:103E0000DFF0FE0E6F008FFFE6FF6F008FFFE6FF13
:103E100057ECD8F0600007F0E6FF60000BF0E6FF1B
:103E2000F9ECDDF0090E406401D0406A000E6F002D
:103E3000A0FFB7F7BE92FA0EE126FF0EE2221200B3
:103E40000D0EE126000EE222F20EE124D96EFF0EE5
:103E5000E220DA6EDF500C6E800E0C16FF0E600052
:103E600033F0E3FFF20EE124D96EFF0EE220DA6EAA
:103E7000DF500C6ED8900C340B6EFD0E60002FF0EE
:103E8000E3FFF10EE124D96EFF0EE220DA6EDFAE21
:103E900002D0FD0EE380FD0EE350D8B41FD0FD0E1E
:103EA000E328D8A418D0000E096E000E0A6E000E8A
:103EB0000B6E000E0C6EEF0E600027F0E3FFF00EAD
:103EC00060002BF0E3FFF10E60002FF0E3FFF20E35
:103ED000600033F0E3FFF10EE38E18D0000E096EA0
:103EE000000E0A6E000E0B6E000E0C6EEF0E6000E0
:103EF00027F0E3FFF00E60002BF0E3FFF10E60000F
:103F00002FF0E3FFF20E600033F0E3FFEE0EE1244A
:103F1000D96EFF0EE220DA6EDF500C6E800E0C16AA
:103F2000E150FF0FD96EE250DA6EFF0EDA220C502C
:103F3000DF1AEE0EE124D96EFF0EE220DA6EDF50BA
:103F40000C6ED8900C340B6EFE0E60002FF0E3FF69
:103F5000ED0EE124D96EFF0EE220DA6EDFAE02D064
:103F6000FE0EE380FE0EE350D8B41FD0FE0EE32811
:103F7000D8A418D0000E096E000E0A6E000E0B6E4B
:103F8000000E0C6EEB0E600027F0E3FFEC0E6000FD
:103F90002BF0E3FFED0E60002FF0E3FFEE0E60006C
:103FA00033F0E3FFED0EE38E18D0000E096E000E25
:103FB0000A6E000E0B6E000E0C6EEB0E600027F00A
:103FC000E3FFEC0E60002BF0E3FFED0E60002FF03E
:103FD000E3FFEE0E600033F0E3FFFE0EE350D8B4D3
:103FE00004D0FD0EE350D8A409D0000E016E000EDF
:103FF000026E000E036E000E046E32D3EF0E6F00E1
:104000008CFF0CF0ED0EE124D96EFF0EE220DA6E8B
:10401000DF500C02FB0E6F00CFFFE3FFFC0E6F00C2
:10402000D3FFE3FFFB0E6F008CFF0CF0600030F05D
:1040300005F0066A076A086AF70E600017F0E3FFEA
:10404000F80E60001BF0E3FFF90E60001FF0E3FFC5
:10405000FA0E600023F0E3FFFC0EE124D96EFF0EA0
:10406000E220DA6EDF500C6E600030F005F0066A78
:10407000076A086AF30E600017F0E3FFF40E6000B1
:104080001BF0E3FFF50E60001FF0E3FFF60E60008B
:1040900023F0E3FFF00EE124D96EFF0EE220DA6E8A
:1040A000DF500C6EEC0EE124D96EFF0EE220DA6ECA
:1040B000DF500C02FB0E6F00CFFFE3FFFC0E6F0022
:1040C000D3FFE3FFE150F70FD96EE250DA6EFF0E37
:1040D000DA22FB0EE350DE26000EDE22DE22DE2296
:1040E000E150F30FD96EE250DA6EFF0EDA22FC0EC9
:1040F000E124E96EFF0EE220EA6EEF50DE26000EAC
:10410000DE22DE22DE22F10EE124D96EFF0EE22055
:10411000DA6EDF500C6EEB0EE3500C02FB0E6F00FC
:10412000CFFFE3FFFC0E6F00D3FFE3FFE150F70F7B
:10413000D96EE250DA6EFF0EDA22FB0EE350DE2675
:10414000000EDE22DE22DE22E150F30FD96EE250B5
:10415000DA6EFF0EDA22FC0EE124E96EFF0EE22099
:10416000EA6EEF50DE26000EDE22DE22DE22E15075
:10417000F70FD96EE250DA6EFF0EDA22080ED890F1
:10418000DE36DE36DE36DD36DD52DD52E82EF7D79E
:10419000F00EE124D96EFF0EE220DA6EDF500C6ED5
:1041A000EB0EE3500C02FB0E6F00CFFFE3FFFC0EA3
:1041B0006F00D3FFE3FFFB0E6F008CFF0BF0FC0ED4
:1041C0006F008CFF0CF0E150F70FD96EE250DA6E01
:1041D000FF0EDA220B50DE260C50DE22000EDE220D
:1041E000DE22EF0E6F008CFF0CF0EC0EE124D96E96
:1041F000FF0EE220DA6EDF500C02FB0E6F00CFFFE5
:10420000E3FFFC0E6F00D3FFE3FFFB0E6F008CFF9C
:104210000BF0FC0E6F008CFF0CF0E150F70FD96E25
:10422000E250DA6EFF0EDA220B50DE260C50DE2250
:10423000000EDE22DE22E150F70FD96EE250DA6E78
:10424000FF0EDA22080ED890DE36DE36DE36DD3698
:10425000DD52DD52E82EF7D7EF0E6F008CFF0CF029
:10426000EB0EE3500C02FB0E6F00CFFFE3FFFC0EE2
:104270006F00D3FFE3FFFB0E6F008CFF0BF0FC0E13
:104280006F008CFF0CF0E150F70FD96EE250DA6E40
:10429000FF0EDA220B50DE260C50DE22000EDE224C
:1042A000DE22F00EE124D96EFF0EE220DA6EDF503E
:1042B0000C6EED0EE124D96EFF0EE220DA6EDF50B7
:1042C0000C02FB0E6F00CFFFE3FFFC0E6F00D3FF6D
:1042D000E3FFFB0E6F008CFF0BF0FC0E6F008CFFFA
:1042E0000CF0E150F30FD96EE250DA6EFF0EDA22D5
:1042F0000B50DE260C50DE22000EDE22DE22F10EF6
:10430000E124D96EFF0EE220DA6EDF500C6EEC0E67
:10431000E124D96EFF0EE220DA6EDF500C02FB0EB4
:104320006F00CFFFE3FFFC0E6F00D3FFE3FFFB0E38
:104330006F008CFF0BF0FC0E6F008CFF0CF0E15057
:10434000F30FD96EE250DA6EFF0EDA220B50DE2642
:104350000C50DE22000EDE22DE22F10EE124D96EA8
:10436000FF0EE220DA6EDF500C6EED0EE124D96E06
:10437000FF0EE220DA6EDF500C02FB0E6F00CFFF63
:10438000E3FFFC0E6F00D3FFE3FFFB0E6F008CFF1B
:104390000BF0FC0E6F008CFF0CF00B50056E0C50F8
:1043A000066E076A086A60001CF008F0600018F0EA
:1043B00007F0600014F006F0056AE150F30FD96EC3
:1043C000E250DA6EFF0EDA220550DE260650DE22BB
:1043D0000750DE220850DE22E150F30FD96EE25082
:1043E000DA6EFF0EDA22FA0EE124E96EFF0EE22009
:1043F000EA6EEF50DE26000EDE22DE22DE22E150E3
:10440000F70FD96EE250DA6EFF0EDA22080ED8905E
:10441000DE36DE36DE36DD36DD52DD52E82EF7D70B
:10442000820E0B6EFF0E0C6EFD0EE350096E0A6AD3
:10443000FE0EE3500926000E0A220B5009260C50EE
:104440000A22FB0E600027F0E3FFFC0E60002BF059
:10445000E3FF21D0D890F30EE336F40EE336F50EE9
:10446000E336F60EE336FA0EE3AE02D0F30EE38047
:10447000D890F70EE336F80EE336F90EE336FA0E6F
:10448000E336E150FB0FD96EE250DA6EFF0EDA220E
:10449000DE06000EDD5AF50EE3AEDCD7FE0EE36A53
:1044A000FA0EE3AE20D0E150F70FD96EE250DA6E8B
:1044B000FF0EDA22FF0EDE14096EFF0EDE140A6E06
:1044C000FF0EDE140B6E7F0EDE140C6E09500A1008
:1044D0000B100C10D8B404D0FE0EE36AE32A03D00C
:1044E000F30EE3B0F9D7FE0EE350D8B436D0E15066
:1044F000F30FD96EE250DA6EFF0EDA22DE2A000EDA
:10450000DE22DE22DE22F60EE3A027D0010E0C6EA4
:10451000E150F30FD96EE250DA6EFF0EDA220C286A
:10452000DE5208D0DE52D890DCBED880DD32DD32DB
:10453000DD32DE32E82EF6D7FB0EE350010F016EBE
:10454000FB0E600007F0E3FF016AFC0EE350012060
:10455000016EFC0E600007F0E3FFFC0EE3BE20D00E
:10456000FC0EE35004E1FB0EE328D8A019D0000EA6
:10457000096E000E0A6E800E0B6E7F0E0C6EF30E2F
:10458000600027F0E3FFF40E60002BF0E3FFF50E70
:1045900060002FF0E3FFF60E600033F0E3FF44D03D
:1045A000FC0EE3BE07D0FC0EE3500FE1FB0EE3046C
:1045B000D8B00BD0F30EE36AF40EE36AF50EE36AAB
:1045C000F60EE36AFF0EE36A2FD0FB0E6F008CFF3E
:1045D00001F0FD0E600007F0E3FFE150F30FD96E2C
:1045E000E250DA6EFF0EDA22FF0EDE16FF0EDE1646
:1045F0007F0EDE16000EDE16FD0EE3A008D0F50ECF
:10460000E124D96EFF0EE220DA6E000EDB8EF60E8C
:10461000E124D96EFF0EE220DA6EFD0E6F008CFFF2
:104620000CF0D8900C30DF6EFF0E6F008CFF0CF09A
:10463000F60EE124D96EFF0EE220DA6E0C50DF1286
:10464000F30E6F008CFF01F0F40E6F008CFF02F090
:10465000F50E6F008CFF03F0F60E6F008CFF04F078
:10466000EB0EE126FF0EE2221200E652E652E6527F
:10467000E652FB0EE124D96EFF0EE220DA6EDF5027
:104680000C6E800E0C16FF0E600033F0E3FFFB0E85
:10469000E124D96EFF0EE220DA6EDF500C6ED89066
:1046A0000C340B6EFD0E60002FF0E3FFFA0EE124D8
:1046B000D96EFF0EE220DA6EDFAE02D0FD0EE3808F
:1046C000FD0EE350D8B427D0FD0EE328D8A418D0AF
:1046D000000E096E000E0A6E000E0B6E000E0C6EC0
:1046E000F80E600027F0E3FFF90E60002BF0E3FF07
:1046F000FA0E60002FF0E3FFFB0E600033F0E3FFE3
:10470000FA0EE38EFB0EE124D96EFF0EE220DA6E84
:10471000000EDF6E18D0000E096E000E0A6E000E3D
:104720000B6E000E0C6EF80E600027F0E3FFF90E22
:1047300060002BF0E3FFFA0E60002FF0E3FFFB0EAA
:10474000600033F0E3FFF70EE124D96EFF0EE220A4
:10475000DA6EDF500C6E800E0C16FE0E600033F029
:10476000E3FFE150FE0FD96EE250DA6EFF0EDA225F
:10477000FF0EE350DE18D8B402D0FF0EE38CF70E24
:10478000E124D96EFF0EE220DA6EDF500C6ED89075
:104790000C340B6EFE0E60002FF0E3FFF60EE124EA
:1047A000D96EFF0EE220DA6EDFAE02D0FE0EE3809D
:1047B000FE0EE350D8B427D0FE0EE328D8A418D0BC
:1047C000000E096E000E0A6E000E0B6E000E0C6ECF
:1047D000F40E600027F0E3FFF50E60002BF0E3FF1E
:1047E000F60E60002FF0E3FFF70E600033F0E3FFFA
:1047F000F60EE38EF70EE124D96EFF0EE220DA6E9C
:10480000000EDF6E18D0000E096E000E0A6E000E4C
:104810000B6E000E0C6EF40E600027F0E3FFF50E39
:1048200060002BF0E3FFF60E60002FF0E3FFF70EC1
:10483000600033F0E3FFE150FE0FD96EE250DA6E14
:10484000FF0EDA22FD0EE350DE5CD8B0A4D0FF0EDE
:10485000E3AC02D0FF0EE37EFD0E6F008CFF01F093
:10486000FC0E600007F0E3FFFE0E6F008CFF01F00E
:10487000FD0E600007F0E3FFFC0E6F008CFF01F0FF
:10488000FE0E600007F0E3FFF80E6F008CFF01F0F2
:10489000FC0E600007F0E3FFF40E6F008CFF01F0E8
:1048A000F80E600007F0E3FFFC0E6F008CFF01F0D4
:1048B000F40E600007F0E3FFF90EE124D96EFF0E5D
:1048C000E220DA6EDF500C6EFC0E600033F0E3FF86
:1048D000F50EE124D96EFF0EE220DA6EF90EE12426
:1048E000E96EFF0EE220EA6E6F007FFFEFFFF50E2C
:1048F000E124D96EFF0EE220DA6EFC0E6F008FFF0E
:10490000DFFFFA0EE124D96EFF0EE220DA6EDF50EF
:104910000C6EFC0E600033F0E3FFF60EE124D96E5E
:10492000FF0EE220DA6EFA0EE124E96EFF0EE220BD
:10493000EA6E6F007FFFEFFFF60EE124D96EFF0EE7
:10494000E220DA6EFC0E6F008FFFDFFFFB0EE1242A
:10495000D96EFF0EE220DA6EDF500C6EFC0E6000A6
:1049600033F0E3FFF70EE124D96EFF0EE220DA6E9A
:10497000FB0EE124E96EFF0EE220EA6E6F007FFF7E
:10498000EFFFF70EE124D96EFF0EE220DA6EFC0E87
:104990006F008FFFDFFFFC0EE36AFE0EE3500B6E2D
:1049A0000C6AFD0EE3500B5E000E0C5A0CBE62D07A
:1049B0000C5004E11A0E0B5CD8A05CD0F80EE3504A
:1049C0000AE1F90EE35007E1FA0EE35004E1FB0EB1
:1049D000E350D8B403D00C6A0C2A01D00C6AFC0E48
:1049E000600033F0E3FFF80EE36AF90EE36AFA0EB3
:1049F000E36AFB0EE36AFE0E6F008CFF01F0FD0E12
:104A0000600007F0E3FF42D0FC0EE3A00DD0FC0EE7
:104A10006F008CFF0CF0D8900C32010E0C12FC0EC3
:104A2000600033F0E3FF09D0E150FC0FD96EE25093
:104A3000DA6EFF0EDA22D890DF32F80EE3A002D051
:104A4000FC0EE38E010E0C6EE150F80FD96EE250B1
:104A5000DA6EFF0EDA220C28DE5208D0DE52D89031
:104A6000DCBED880DD32DD32DD32DE32E82EF6D734
:104A7000FD0EE32AE150FD0FD96EE250DA6EFF0E13
:104A8000DA22FE0EE350DE5CD8A0BED7FF0EE3BCF8
:104A900066D0FD0EE350D8B4F2D0F80EE350016EAC
:104AA000F40EE3500126F80E600007F0E3FFF90E64
:104AB000E350016EF50EE3500122F90E600007F09D
:104AC000E3FFFA0EE350016EF60EE3500122FA0EF8
:104AD000600007F0E3FFFB0EE350016EF70EE350BA
:104AE0000122FB0E600007F0E3FFFB0EE3A001D103
:104AF000FC0EE3A00DD0FC0E6F008CFF0CF0D890E4
:104B00000C32010E0C12FC0E600033F0E3FF09D0F2
:104B1000E150FC0FD96EE250DA6EFF0EDA22D89027
:104B2000DF32F80EE3A002D0FC0EE38E010E0C6E15
:104B3000E150F80FD96EE250DA6EFF0EDA220C283F
:104B4000DE5208D0DE52D890DCBED880DD32DD32B5
:104B5000DD32DE32E82EF6D7FD0EE32ACAD0E15070
:104B6000F80FD96EE250DA6EFF0EDA22F40EE3503F
:104B7000DE5CF50EE350DE58F60EE350DE58DE50F4
:104B8000800A016EF70EE350800A0158D8B053D066
:104B9000F40E6F008CFF09F0F50E6F008CFF0AF029
:104BA000F60E6F008CFF0BF0F70E6F008CFF0CF011
:104BB000F80EE350095EF90EE3500A5AFA0EE3507C
:104BC0000B5AFB0EE3500C5AFF0E0924056EFF0E24
:104BD0000A20066EFF0E0B20076EFF0E0C20086EDB
:104BE000F80E600017F0E3FFF90E60001BF0E3FF22
:104BF000FA0E60001FF0E3FFFB0E600023F0E3FFFE
:104C0000FF0EE37EFC0EE35000080C6EFC0E60000D
:104C100033F0E3FFFC0EE350D8A420D0E150F80FAE
:104C2000D96EE250DA6EFF0EDA22DE2A000EDE22A4
:104C3000DE22DE2213D0E150F80FD96EE250DA6E98
:104C4000FF0EDA22F40EE350DE5EF50EE350DE5A7C
:104C5000F60EE350DE5AF70EE350DE5AF80EE3503C
:104C600045E1F90EE35042E1FA0EE3503FE1FB0E5D
:104C7000E350D8A43BD0FC0EE350D8A437D0000EAC
:104C8000016E000E026E000E036E000E046EC6D0A2
:104C9000D890F80EE336F90EE336FA0EE336FB0E43
:104CA000E336FC0EE3AE02D0F80EE380FC0EE3A088
:104CB0000ED0FC0E6F008CFF0CF0D8900C340B6EF5
:104CC000010E0B12FC0E60002FF0E3FF09D0E15043
:104CD000FC0FD96EE250DA6EFF0EDA22D890DF3682
:104CE000FD0EE350D8B402D0FD0EE306FA0EE3AE9B
:104CF000CFD7FE0EE36AFC0EE3AE0FD0FC0E6F00C2
:104D00008CFF0CF07F0E0C16D8B404D0FE0EE36AB4
:104D1000E32A03D0F80EE3B0F9D7FE0EE350D8B47F
:104D20002BD0E150F80FD96EE250DA6EFF0EDA2286
:104D3000DE2A000EDE22DE22DE22FB0EE3A01CD0E5
:104D4000010E0C6EE150F80FD96EE250DA6EFF0ED4
:104D5000DA220C28DE5208D0DE52D890DCBED88091
:104D6000DD32DD32DD32DE32E82EF6D7FD0EE3280D
:104D7000D8B402D0FD0EE32AFD0EE328D8B404D047
:104D8000FD0EE350D8A40ED0F80EE36AF90EE36AE4
:104D9000FA0EE36AFB0EE36AFD0EE350D8A402D0DC
:104DA000FF0EE36AFD0EE3A009D0FA0EE124D96EEE
:104DB000FF0EE220DA6E000EDB8E08D0FA0EE12440
:104DC000D96EFF0EE220DA6E7F0EDF16FB0EE124B5
:104DD000D96EFF0EE220DA6EFD0E6F008CFF0CF034
:104DE000D8900C30DF6EFF0EE3AE08D0FB0EE1244E
:104DF000D96EFF0EE220DA6E000EDB8EF80E6F0029
:104E00008CFF01F0F90E6F008CFF02F0FA0E6F00BC
:104E10008CFF03F0FB0E6F008CFF04F0F40EE12614
:104E2000FF0EE22212000D0EE126000EE222F20E2B
:104E3000E124D96EFF0EE220DA6EDF500C6E800E98
:104E40000C16FF0E600033F0E3FFF20EE124D96E82
:104E5000FF0EE220DA6EDF500C6ED8900C340B6E31
:104E6000FE0E60002FF0E3FFF10EE124D96EFF0E7D
:104E7000E220DA6EDFAE02D0FE0EE380FE0EE350DB
:104E8000D8B427D0FE0EE328D8A418D0000E096E9F
:104E9000000E0A6E000E0B6E000E0C6EEF0E600020
:104EA00027F0E3FFF00E60002BF0E3FFF10E60004F
:104EB0002FF0E3FFF20E600033F0E3FFF10EE38E1C
:104EC000F20EE124D96EFF0EE220DA6E000EDF6EE4
:104ED00018D0000E096E000E0A6E000E0B6E000E4A
:104EE0000C6EEF0E600027F0E3FFF00E60002BF079
:104EF000E3FFF10E60002FF0E3FFF20E600033F0ED
:104F0000E3FFEE0EE124D96EFF0EE220DA6EDF50F1
:104F10000C6E800E0C16E150FF0FD96EE250DA6E67
:104F2000FF0EDA220C50DF1AEE0EE124D96EFF0ECE
:104F3000E220DA6EDF500C6ED8900C340B6EFD0E52
:104F400060002FF0E3FFED0EE124D96EFF0EE220AA
:104F5000DA6EDFAE02D0FD0EE380FD0EE350D8B472
:104F600027D0FD0EE328D8A418D0000E096E000E3D
:104F70000A6E000E0B6E000E0C6EEB0E600027F03A
:104F8000E3FFEC0E60002BF0E3FFED0E60002FF06E
:104F9000E3FFEE0E600033F0E3FFED0EE38EEE0E66
:104FA000E124D96EFF0EE220DA6E000EDF6E18D01B
:104FB000000E096E000E0A6E000E0B6E000E0C6ED7
:104FC000EB0E600027F0E3FFEC0E60002BF0E3FF38
:104FD000ED0E60002FF0E3FFEE0E600033F0E3FF14
:104FE000EB0EE35039E1EC0EE35036E1ED0EE35009
:104FF00033E1EE0EE350D8A42FD0EF0EE36AF00EAB
:10500000E36AF10EE36AF20EE36AF10EE124D96E6F
:10501000FF0EE220DA6E800EDE127F0EDD12FF0E32
:105020006F008CFF0CF0F20EE124D96EFF0EE2202F
:10503000DA6E0C50DF12EF0E6F008CFF01F0F00EF5
:105040006F008CFF02F0F10E6F008CFF03F0F20E88
:105050006F008CFF04F09FD1FE0EE350D8A409D05E
:10506000000E016E000E026E000E036E000E046E46
:1050700092D1FE0EE3500B6E0C6AFD0EE3500B5EF8
:10508000000E0C5A7F0E0B26000E0C22FB0E600049
:105090002FF0E3FFFC0E600033F0E3FFEF0E6F0034
:1050A0008CFF09F0F00E6F008CFF0AF0F10E6F001C
:1050B0008CFF0BF0F20E6F008CFF0CF0F70E60000F
:1050C00027F0E3FFF80E60002BF0E3FFF90E60001D
:1050D0002FF0E3FFFA0E600033F0E3FFEF0EE36A18
:1050E000F00EE36AF10EE36AF20EE36AF30EE36A8E
:1050F000F40EE36AF50EE36AF60EE36AFD0EE36A68
:1051000050D0FD0EE350D8B420D0D890F70EE3363F
:10511000F80EE336F90EE336FA0EE336D890EF0ECA
:10512000E336F00EE336F10EE336F20EE336F60E1A
:10513000E3AE02D0EF0EE380D890F30EE336F40E28
:10514000E336F50EE336F60EE336E150F70FD96E8F
:10515000E250DA6EFF0EDA22EB0EE350DE5CEC0E6C
:10516000E350DE58ED0EE350DE58EE0EE350DE580D
:10517000D8A015D0F60EE38CE150F70FD96EE250AF
:10518000DA6EFF0EDA22EB0EE350DE5EEC0EE35039
:10519000DE5AED0EE350DE5AEE0EE350DE5AFD0EFF
:1051A000E32AFD0E6F008CFF01F0190E0164A9D7F0
:1051B000F70EE3500AE1F80EE35007E1F90EE35071
:1051C00004E1FA0EE350D8B424D0F30EE38021D0EA
:1051D000D890EF0EE336F00EE336F10EE336F20E22
:1051E000E336F60EE3AE02D0EF0EE380D890F30E76
:1051F000E336F40EE336F50EE336F60EE336E15011
:10520000FB0FD96EE250DA6EFF0EDA22DE06000ED8
:10521000DD5AF10EE3AEDCD7FD0EE36AF60EE3AE27
:1052200020D0E150F30FD96EE250DA6EFF0EDA2291
:10523000FF0EDE14096EFF0EDE140A6EFF0EDE1482
:105240000B6E7F0EDE140C6E09500A100B100C1042
:10525000D8B404D0FD0EE36AE32A03D0EF0EE3B026
:10526000F9D7FD0EE350D8B436D0E150EF0FD96E28
:10527000E250DA6EFF0EDA22DE2A000EDE22DE2295
:10528000DE22F20EE3A027D0010E0C6EE150EF0FEC
:10529000D96EE250DA6EFF0EDA220C28DE5208D008
:1052A000DE52D890DCBED880DD32DD32DD32DE3237
:1052B000E82EF6D7FB0EE350010F016EFB0E6000E7
:1052C00007F0E3FF016AFC0EE3500120016EFC0EC3
:1052D000600007F0E3FFFC0EE3BE1BD0FC0EE350C2
:1052E00004E1FB0EE328D8A014D0FF0E0B6E000ED5
:1052F0000C6EFB0E60002FF0E3FFFC0E600033F03D
:10530000E3FFEF0EE36AF00EE36AF10EE36AF20EDA
:10531000E36AFC0EE3BE07D0FC0EE35012E1FB0E85
:10532000E304D8B00ED0FB0EE36AFC0EE36AEF0E86
:10533000E36AF00EE36AF10EE36AF20EE36AFF0E2F
:10534000E36AFB0E6F008CFF01F0FE0E600007F0B9
:10535000E3FFFE0EE3A009D0F10EE124D96EFF0EAB
:10536000E220DA6E000EDB8E08D0F10EE124D96E59
