:020000040000FA
:0400000057EF00F0C6
:10000800795C795C795C795C795C795C795C795C40
:10001800535C795C945A795C795C795C795C795C3D
:10002800485C615C675C645C795C795C795C795C90
:10003800795C795C795C745B6A5B795C795C795C26
:10004800795C795C795C795C2B00795C795C795CAA
:10005800575C795C795C795C795C795C795C795C12
:10006800795C795C885B7E5B795C795C795C795CCE
:10007800795C795C2B00795C795C5B5C2B002B00EC
:100088002B002B002B002B002B002B002659795C12
:10009800165C795C795C795C2B002B002B002B00BB
:0E00A800795C795CFF0013EE45F0ACEFA5F03B
:10FC78000000000101A54B434F4C44414F4C084143
:10FC88000201010137310241020101000000018037
:10FC9800298200002100000101A54B434F4C44413B
:10FCA8004F4C0841020101013231024102010100B9
:10FCB8000000018029820000215225642025642C3F
:10FCC800205425642025642043256420204647428B
:10FCD800404D4348502025732020202020202020FC
:10FCE800202020202020202020202020202020200C
:10FCF80020202020202020202020202020202020FC
:10FD080020202020202020202020202020202020EB
:10FD1800202020005225642025642C2054256420AE
:10FD280025642043256420256420202020202023CA
:10FD380000205465726D696E616C20256420202056
:10FD480020202020202020202020002044656275CB
:10FD58006720546F67676C652020202020202020B2
:10FD68002020202000204C6F672066696C65207277
:10FD78006573657420202020202020202020004C3E
:10FD88004F473A20552564204725642025642025BF
:10FD980064202020202020230020434D4420256378
:10FDA800202563204C656E202564202020202020FB
:10FDB8002000205325644625642023204F4B20250E
:10FDC8006420202020202020200020532564462560
:10FDD800642023204F4B5125642020202020202000
:10FDE8002000204C6F61642D6C6F636B256420527A
:10FDF80025642020202020200020532564462564E7
:10FE0800206C6F67202020202564202020200020DF
:10FE180053455155454E4345202564202020202038
:10FE280020202000205325644625642023202020FC
:10FE380020202020202020200020532564462564EF
:10FE4800204572722020202020202020200045718B
:10FE58007569702074797065202564202020202021
:10FE6800202000483235342025642C2054256C6429
:10FE78002020202020202000484F53543A20256C71
:10FE8800642047256420202020202023002053328E
:10FE980046343120232563202020202020202020C4
:10FEA800002053746F72656420232564202020206D
:10FEB8002020202000205465726D696E616C20201E
:10FEC80020202020202020200050696E6720502507
:10FED800642052544F202564202020200048454C9F
:10FEE80050202573202020202020202020202000A2
:10FEF800444953504C41592025732020202020206C
:10FF080020200053617665642053256446256420CB
:10FF18002020202020005325644625642023256CBA
:10FF2800642020202020202000204F70656E204C67
:10FF38004C202020202020202020002050756D708B
:10FF4800204C4C20202020202020202000205265FA
:10FF5800616479204C4C202020202020202000455E
:10FF680025642041256420542564204725642023E6
:10FF78000020464742404D434850204641423420E5
:10FF880020002052564920484F535420544553547A
:10FF9800455200483235342025642C2054256C64A1
:10FFA800202000767465726D2025783A2578202007
:10FFB80020004A756E202038203230313900205612
:10FFC800657273696F6E20257300257320202020C9
:10FFD8002020200031323A31363A353800312E347B
:10FFE8003447004F4B20006C58006C64006C69006B
:07FFF8006C78002563000096
:020000040001F9
:10000000E652E652E652C3ECB2F0D28ED28C000E2B
:100010006F00A0FFC5F92C0EE66E010EE66E90ECA7
:10002000B4F0CBA004D0FF0EE36AE32A04D0FF0EA5
:10003000E36AE380E382FF0EE304D8A403D0BD802B
:10004000460E02D0BD90000E6F00A0FF09FB000E0F
:100050006F00A0FF0AFB22EE09F36F0078FF42F069
:100060006F0074FF43F060000BF1E6FF60000FF1DA
:10007000E6FF46ECB8F018EF85F006ECACF00C0E9D
:10008000E66E98ECB8F0FF0E6F008CFF43F0600056
:100090000CF1C5F9000E6F00A0FFC4F9A50EE66EC5
:1000A000070EE66EC6ECB4F0000EE66EACECB7F0F0
:1000B0008A0EE66EFF0EE66E000EE66E000EE66E2F
:1000C00010ECB5F06000E3F0E6FF6000E7F0E6FF5B
:1000D000040EE66E03ECAAF0E50EE66EFF0EE66E89
:1000E000C60EE66EFF0EE66E000EE66E010EE66EC2
:1000F00010ECB5F06000E3F0E6FF6000E7F0E6FF2B
:10010000060EE66E03ECAAF0790EE66EFF0EE66EC2
:10011000000EE66E020EE66E10ECB5F06000E3F045
:10012000E6FF6000E7F0E6FF040EE66E03ECAAF0DF
:10013000000EE66E7BECA9F0B80EE66E0B0EE66ED6
:1001400090ECB4F0640EE66E000EE66E0A0EE66EFB
:1001500072ECB4F02EEF85F0000E6F00A0FFC9F92D
:10016000000E6F00A0FFCAF9010E6F00A0FFC4F9D6
:100170006200E7FBE8FF0A0AD8A409D26200EBFBA1
:10018000E8FF0A0AD8A403D222EE10F3DFAA27D090
:1001900022EEF3F26F007BFFE6FF6F007BFFE6FFCE
:1001A0006F007BFFE6FF6F007BFFE6FF010EE66E50
:1001B000010EE66E9B0EE66EFF0EE66E000EE66E1C
:1001C000020EE66E10ECB5F06000E3F0E6FF6000B2
:1001D000E7F0E6FF0A0EE66E03ECAAF0D8D122EEB5
:1001E000C6F1DF50E66E000EE66E22EEEBF26F0017
:1001F0007BFFE6FF6F007BFFE6FF6F007BFFE6FF04
:100200006F007BFFE6FF800EE66EFE0EE66E000ED0
:10021000E66E020EE66E10ECB5F06000E3F0E6FF6D
:100220006000E7F0E6FF0A0EE66E03ECAAF0AFD13D
:10023000C90EE66E090EE66E1DEC94F0040E381839
:10024000D8A496D0000EE66E86ECB8F06200DFFB14
:10025000E8FF090AD8A423D0F8CAFBFA22EEF8F284
:10026000DF50E66E000EE66E22EEF7F2DF50E66E2D
:10027000000EE66E410EE66EFE0EE66E000EE66EB7
:10028000000EE66E10ECB5F06000E3F0E6FF6000F3
:10029000E7F0E6FF080EE66E03ECAAF024D0000EAD
:1002A0006F00A0FFFBFA22EEF8F2DF50E66E000EC0
:1002B000E66E22EEF7F2DF50E66E000EE66E2C0ED2
:1002C000E66EFE0EE66E000EE66E000EE66E10ECBA
:1002D000B5F06000E3F0E6FF6000E7F0E6FF080E2F
:1002E000E66E03ECAAF0000EE66E000EE66E10EC71
:1002F000B5F0FE0E6000E7F0E3FFFD0E6000E3F0F6
:10030000E3FFFD0E6F008CFF42F0FE0E6F008CFFCE
:1003100043F0100E4224D96E000E4320DA6E000E18
:10032000DF6E000EE66E000EE66E10ECB5F06000BB
:10033000E3F0E6FF6000E7F0E6FF000EE66E000E79
:10034000E66E9DEC8FF022EE0FF3DFA20DD0020ED1
:100350006F00A0FFC4F922EE0FF3870EDF16000E28
:100360006F00A0FFCAF904D0030E6F00A0FFC4F90C
:10037000620027F7E8FF11D0CA0EE66E090EE66E9E
:1003800030EC98F0040E3818D8A404D0030E6F0097
:10039000A0FFC4F962002BF7E8FF060AD8A4F7D043
:1003A000060E93D022EE10F3DFA833D0000E6F00BC
:1003B000A0FFC9F9000E6F00A0FFCAF9020E6F007E
:1003C000A0FFC4F922EEC7F1DF50E66E000EE66E24
:1003D00022EEF8F2DF50E66E000EE66E22EEF7F245
:1003E000DF50E66E000EE66ED20EE66EFD0EE66E95
:1003F000000EE66E000EE66E10ECB5F06000E3F065
:10040000E6FF6000E7F0E6FF0A0EE66E03ECAAF0F6
:100410002AD0050E6F00A0FFC4F922EEC7F1DF500D
:10042000E66E000EE66E22EEF8F2DF50E66E000E8B
:10043000E66E22EEF7F2DF50E66E000EE66EBA0EC2
:10044000E66EFD0EE66E000EE66E000EE66E10EC39
:10045000B5F06000E3F0E6FF6000E7F0E6FF0A0EAB
:10046000E66E03ECAAF0000EE66E000EE66E10ECEF
:10047000B5F0FE0E6000E7F0E3FFFD0E6000E3F074
:10048000E3FFFD0E6F008CFF42F0FE0E6F008CFF4D
:1004900043F0100E4224D96E000E4320DA6E000E97
:1004A000DF6E000EE66E000EE66E10ECB5F060003A
:1004B000E3F0E6FF6000E7F0E6FF000EE66E000EF8
:1004C000E66E9DEC8FF063D0000E6F00A0FFC4F9C4
:1004D0005ED0000E6F00A0FFC4F922EEC6F1DF501F
:1004E000E66E000EE66E22EE05F36F0078FF42F036
:1004F0006F0074FF43F060000BF1E6FF60000FF146
:10050000E6FF22EEFAF2DF50E66E000EE66E22EE15
:10051000F9F2DF50E66E000EE66E670EE66EFF0E35
:10052000E66E000EE66E020EE66E10ECB5F06000B0
:10053000E3F0E6FF6000E7F0E6FF0C0EE66E03EC8A
:10054000AAF0000EE66E7BECA9F0D00EE66E070E68
:10055000E66E90ECB4F01BD022EEC4F1DF50426E98
:10056000436A4350000AD8A4B4D74250000AD8B412
:10057000F3D5010AD8B45CD6030AD8B4FDD6010A73
:10058000D8B410D7060AD8B49FD7030AA2D76200FE
:10059000E7FBE8FF0A0AD8A461D26200EBFBE8FFA0
:1005A0000A0AD8A45BD20A0EE66E23ECB7F03850E4
:1005B000D8B453D022EE10F3DFAA27D022EEF3F204
:1005C0006F007BFFE6FF6F007BFFE6FF6F007BFFA6
:1005D000E6FF6F007BFFE6FF010EE66E010EE66EA2
:1005E0006B0EE66EFE0EE66E000EE66E020EE66E18
:1005F00010ECB5F06000E3F0E6FF6000E7F0E6FF26
:100600000A0EE66E03ECAAF028D022EEC6F1DF5007
:10061000E66E000EE66E22EEEBF26F007BFFE6FF69
:100620006F007BFFE6FF6F007BFFE6FF6F007BFF45
:10063000E6FF800EE66EFE0EE66E000EE66E020E21
:10064000E66E10ECB5F06000E3F0E6FF6000E7F066
:10065000E6FF0A0EE66E03ECAAF062001BF7E8FF65
:10066000040AD8A4FBD1620013F7E8FF010AD8A45A
:10067000F5D122EE10F3DFB8F1D122EEC9F1DF504F
:10068000D8A4ECD122EECAF1DF50D8A4E7D1060EEF
:10069000E66E23ECB7F03850D8B4E0D1000EE66E29
:1006A00086ECB8F022EE11F3DF50070B0009D8B446
:1006B00013D075ECB2F0000E6F00A0FFFBFA000E35
:1006C0006F00A0FF42FB0A0E6F00A0FFF9FA0A0EAE
:1006D0006F00A0FFFAFAC2D1300EE66E750EE66E1C
:1006E000060EE66E72ECB4F022EE42F36F007CFF71
:1006F00043F0010EDF26040E43643CD0000EE66E8C
:1007000086ECB8F075ECB2F022EE0BF36F0078FFD8
:1007100042F06F0074FF43F060000BF1E6FF6000F1
:100720000FF1E6FF22EEC6F1DF50E66E000EE66E38
:10073000D10EE66EFE0EE66E000EE66E000EE66E62
:1007400010ECB5F06000E3F0E6FF6000E7F0E6FFD4
:10075000080EE66E03ECAAF0000EE66E7BECA9F044
:10076000FA0EE66E000EE66E90ECB4F0000E6F002E
:10077000A0FF42FB000EE66E86ECB8F06FD1000ED3
:100780006F00A0FFC8F9010E6F00A0FFC4F922EEB0
:1007900010F3DFAA27D022EEF3F26F007BFFE6FF13
:1007A0006F007BFFE6FF6F007BFFE6FF6F007BFFC4
:1007B000E6FF010EE66E010EE66E6B0EE66EFE0EB5
:1007C000E66E000EE66E020EE66E10ECB5F060000E
:1007D000E3F0E6FF6000E7F0E6FF0A0EE66E03ECEA
:1007E000AAF0C5D022EE03F36F0078FF42F06F004D
:1007F00074FF43F060000BF1E6FF60000FF1E6FFCD
:1008000022EE05F36F0078FF42F06F0074FF43F0B3
:1008100060000BF1E6FF60000FF1E6FF22EEC6F18B
:10082000DF50E66E000EE66E22EE3FF3DF50E66E1E
:10083000000EE66E870EE66EFD0EE66E000EE66EAC
:10084000020EE66E10ECB5F06000E3F0E6FF60002B
:10085000E7F0E6FF0C0EE66E03ECAAF088D0C80EB7
:10086000E66E090EE66EB2EC89F0040E3818D8A4D4
:100870003BD022EEEBF26F007BFFE6FF6F007BFFC9
:10088000E6FF6F007BFFE6FF6F007BFFE6FF22EED7
:10089000F8F2DF50E66E000EE66E22EEF7F2DF5061
:1008A000E66E000EE66E1E0EE66EFF0EE66ECB0ED8
:1008B000E66E090EE66E0C0EE66E03ECAAF0000E74
:1008C0006F00A0FFD8F9CB0EE66E090EE66E000EA3
:1008D000E66E6200FCFC43F04304E66E9DEC8FF094
:1008E000030E6F00A0FFC4F9620023F7E8FF060AB9
:1008F000D8A43DD0060E1FD0050E6F00A0FFC4F98E
:10090000EB0EE66EFF0EE66ECB0EE66E090EE66EA1
:10091000040EE66E03ECAAF0CB0EE66E090EE66E50
:100920000D0EE66E6200FCFC43F04304E66E9DECA7
:100930008FF01DD0000E6F00A0FFC4F918D022EE7A
:10094000C4F1DF50426E436A4350000AD8A4F2D784
:100950004250000AD8B413D7010AD8B480D7020A8B
:10096000D8B4CAD7060AD8B4E5D7030AE3D722EE2B
:1009700010F3DFAA1BD022EEC7F1DF50E66E000EA7
:10098000E66E560EE66EFE0EE66E000EE66E020E89
:10099000E66E10ECB5F06000E3F0E6FF6000E7F013
:1009A000E6FF060EE66E03ECAAF058D022EE03F343
:1009B0006F0078FF42F06F0074FF43F060000BF1AE
:1009C000E6FF60000FF1E6FF22EE05F36F0078FF0F
:1009D00042F06F0074FF43F060000BF1E6FF60002F
:1009E0000FF1E6FF22EEC6F1DF50E66E000EE66E76
:1009F00022EE3FF3DF50E66E000EE66E870EE66EE7
:100A0000FD0EE66E000EE66E020EE66E10ECB5F020
:100A10006000E3F0E6FF6000E7F0E6FF0C0EE66E34
:100A200003ECAAF01BD0000E6F00A0FFC5F916D092
:100A300022EEC5F1DF50426E436A4350000AD8A44B
:100A4000F2D74250000AD8B43DEF80F0010AD8B482
:100A500083D5020AD8B473D7070AE5D722EEEBF2A2
:100A6000DE50DE10DE10DE10D8B42ED022EE10F3F1
:100A7000DF500F0B0009D8B40BD0BD98BD8A6200BF
:100A8000E7FBE8FF0F0AD8A407D0BF98BF8A04D0BD
:100A9000BD88BD9ABF88BF9A22EE0FF3DF30E832DF
:100AA000E8320F0B0009D8B40BD0BD9CBD8E62009C
:100AB000E7FBE8FF0F0AD8A407D0BF9CBF8E04D085
:100AC000BD8CBD9EBF8CBF9EFF0E6F008CFF38F0AB
:100AD000030E3818D8B463D00A0EE66E23ECB7F0D4
:100AE0003850D8B45CD0090EE66E23ECB7F038501D
:100AF000D8B404D0000EE66E86ECB8F022EE11F306
:100B0000DF50070BE66E000EE66E22EE03F36F0079
:100B100078FF42F06F0074FF43F060000BF1E6FFD6
:100B200060000FF1E6FF22EE0FF3DF30E832E8322B
:100B30000F0BE66E000EE66E22EECAF1DF50E66E97
:100B4000000EE66E22EE10F3DF500F0BE66E000E85
:100B5000E66E22EEC9F1DF50E66E000EE66E1C0E68
:100B6000E66EFD0EE66E000EE66E010EE66E10EC11
:100B7000B5F06000E3F0E6FF6000E7F0E6FF100E7E
:100B8000E66E03ECAAF0640EE66E000EE66E0A0E48
:100B9000E66E72ECB4F0000EE66E7BECA9F0D3ECDE
:100BA000A4F046D7130EE126000EE222E90E6F00F4
:100BB0008FFFD9FFEA0E6F008FFFDAFF6F007BFF18
:100BC000F6FF6F0077FFF7FF000EF86E0800F55094
:100BD000250AD8A498D3E90E6F008FFFD9FFEA0E3B
:100BE0006F008FFFDAFFDE2A000EDD22106A116A25
:100BF000146A156A12681368E90E6F008FFFD9FF37
:100C0000EA0E6F008FFFDAFF6F007BFFF6FF6F00C9
:100C100077FFF7FF000EF86E0800F550630AD8A4BE
:100C200036D0E90E6F008FFFD9FFEA0E6F008FFFFD
:100C3000DAFFDE2A000EDD22E70E6F008FFFD9FFFC
:100C4000E80E6F008FFFDAFF020EDE5E000EDD5A47
:100C50006F0078FF42F06F0074FF43F060000BF10B
:100C6000D9FF60000FF1DAFFDF50436EFF0E600026
:100C70000FF1E3FFFF0EE350E66EEA0E6F008FFF09
:100C8000E6FF6F008FFFE6FF94ECAFF066D3E90E4E
:100C90006F008FFFD9FFEA0E6F008FFFDAFF6F0042
:100CA0007BFFF6FF6F0077FFF7FF000EF86E08007E
:100CB000F550640AD8B415D0E90E6F008FFFD9FF44
:100CC000EA0E6F008FFFDAFF6F007BFFF6FF6F0009
:100CD00077FFF7FF000EF86E0800F550690AD8A4F8
:100CE00075D0E90E6F008FFFD9FFEA0E6F008FFFFE
:100CF000DAFFDE2A000EDD22E70E6F008FFFD9FF3C
:100D0000E80E6F008FFFDAFF020EDE5E000EDD5A86
:100D10006F0078FF42F06F0074FF43F060000BF14A
:100D2000D9FF60000FF1DAFF6F0078FF42F06F002B
:100D300074FF43F0F50E60000BF1E3FFF60E600068
:100D40000FF1E3FF386AE3BE3868F70E6000E3F0A6
:100D5000E3FFF80E6000E3F0E3FFF90E6000E3F05C
:100D6000E3FFFA0E6000E3F0E3FFFB0E6000E3F048
:100D7000E3FFFC0E6000E3F0E3FFE150F50FD96EF6
:100D8000E250DA6EFF0EDA226F007BFFE6FF6F00A3
:100D90007BFFE6FF6F007BFFE6FF6F007BFFE6FF58
:100DA0006F007BFFE6FF6F007BFFE6FF6F007BFFBE
:100DB000E6FF6F007BFFE6FFE30E6F008FFFE6FFAD
:100DC0006F008FFFE6FFDDEC91F0C7D2020EE66EFA
:100DD000000EE66EF20EE66EFF0EE66EE50E6F009A
:100DE0008FFFD9FFE60E6F008FFFDAFF6F0078FFED
:100DF00042F06F0074FF43F060000BF1E6FF60000B
:100E00000FF1E6FFD5ECA3F038503910D8B422D05A
:100E1000020EE66E000EE66EF50EE66EFF0EE66E54
:100E2000E50E6F008FFFD9FFE60E6F008FFFDAFF30
:100E30006F0078FF42F06F0074FF43F060000BF129
:100E4000E6FF60000FF1E6FFD5ECA3F03850391053
:100E5000D8A469D0E90E6F008FFFD9FFEA0E6F00AA
:100E60008FFFDAFF020EDE26000EDD22E70E6F0096
:100E70008FFFD9FFE80E6F008FFFDAFF040EDE5EF2
:100E8000000EDD5A6F0078FF42F06F0074FF43F0F0
:100E900060000BF1D9FF60000FF1DAFF6F0078FFFF
:100EA00040F06F0078FF41F06F0078FF42F06F0074
:100EB00078FF43F0600000F148F0600004F149F071
:100EC000600008F14AF060000CF14BF04C6A4BBE38
:100ED0004C68600030F14DF0600030F14EF0600081
:100EE00030F14FF0F50E600023F1E3FFF60E6000E5
:100EF00027F1E3FFF70E60002BF1E3FFF80E60002F
:100F00002FF1E3FFF90E600033F1E3FFFA0E60000A
:100F100037F1E3FFFB0E60003BF1E3FFFC0E6000E6
:100F20003FF1E3FF2AD7E90E6F008FFFD9FFEA0EEA
:100F30006F008FFFDAFF6F007BFFF6FF6F0077FF18
:100F4000F7FF000EF86E0800F550730AD8A442D0DF
:100F5000E90E6F008FFFD9FFEA0E6F008FFFDAFFF7
:100F6000DE2A000EDD22E70E6F008FFFD9FFE80EAC
:100F70006F008FFFDAFF020EDE5E000EDD5A6F009B
:100F800078FF42F06F0074FF43F060000BF1D9FF6F
:100F900060000FF1DAFF6F0078FF42F06F0074FF1E
:100FA00043F0FE0E60000FF1E3FFFD0E60000BF159
:100FB000E3FFFD0E6F008FFFE6FF6F008FFFE6FF80
:100FC000E90E6F008FFFE6FF6F008FFFE6FF4DEC2D
:100FD0009BF0C3D1E90E6F008FFFD9FFEA0E6F00BF
:100FE0008FFFDAFF6F007BFFF6FF6F0077FFF7FFE1
:100FF000000EF86E0800F550780AD8B415D0E90E46
:101000006F008FFFD9FFEA0E6F008FFFDAFF6F00CE
:101010007BFFF6FF6F0077FFF7FF000EF86E08000A
:10102000F550580AD8A494D0E90E6F008FFFD9FF6D
:10103000EA0E6F008FFFDAFF6F007BFFF6FF6F0095
:1010400077FFF7FF000EF86E0800FF0E6F00D7FF66
:10105000E3FFE90E6F008FFFD9FFEA0E6F008FFFED
:10106000DAFFDE2A000EDD22E70E6F008FFFD9FFC8
:10107000E80E6F008FFFDAFF020EDE5E000EDD5A13
:101080006F0078FF42F06F0074FF43F060000BF1D7
:10109000D9FF60000FF1DAFF6F0078FF42F06F00B8
:1010A00074FF43F04250486E4350496E4A6A4B6A9F
:1010B0004C6A4D6A4E6A4F6AED0E600023F1E3FF01
:1010C000EE0E600027F1E3FFEF0E60002BF1E3FF6F
:1010D000F00E60002FF1E3FFF10E600033F1E3FF4B
:1010E000F20E600037F1E3FFF30E60003BF1E3FF27
:1010F000F40E60003FF1E3FFFF0EE350E66EE150B7
:10110000EC0FD96EE250DA6EFF0EDA226F007BFF31
:10111000E6FF6F007BFFE6FF6F007BFFE6FF6F00DF
:101120007BFFE6FF6F007BFFE6FF6F007BFFE6FFC4
:101130006F007BFFE6FF6F007BFFE6FFE20E6F00B4
:101140008FFFE6FF6F008FFFE6FF53EC96F005D1AF
:10115000020EE66E000EE66EF80EE66EFF0EE66E0E
:10116000E50E6F008FFFD9FFE60E6F008FFFDAFFED
:101170006F0078FF42F06F0074FF43F060000BF1E6
:10118000E6FF60000FF1E6FFD5ECA3F03850391010
:10119000D8B422D0020EE66E000EE66EEF0EE66EBA
:1011A000FF0EE66EE50E6F008FFFD9FFE60E6F00B3
:1011B0008FFFDAFF6F0078FF42F06F0074FF43F09B
:1011C00060000BF1E6FF60000FF1E6FFD5ECA3F045
:1011D00038503910D8A458D0E90E6F008FFFD9FFCE
:1011E000EA0E6F008FFFDAFF6F0078FF42F06F00AA
:1011F00074FF43F0010E4226000E432260000BF103
:10120000F6FF60000FF1F7FF000EF86E0800FF0E0A
:101210006F00D7FFE3FFE90E6F008FFFD9FFEA0EE3
:101220006F008FFFDAFF020EDE26000EDD22E70ED2
:101230006F008FFFD9FFE80E6F008FFFDAFF040EFB
:10124000DE5E000EDD5A6F0078FF42F06F0074FF23
:1012500043F060000BF1D9FF60000FF1DAFF6F007F
:1012600078FF40F06F0078FF41F06F0078FF42F0A8
:101270006F0078FF43F04050486E4150496E425035
:101280004A6E43504B6E14D7E90E6F008FFFD9FFA3
:10129000EA0E6F008FFFDAFF6F007BFFF6FF6F0033
:1012A00077FFF7FF000EF86E0800F550250AD8A466
:1012B0001AD0E90E6F008FFFD9FFEA0E6F008FFF83
:1012C000DAFFDE2A000EDD22EB0E6F008FFFE6FF55
:1012D0006F008FFFE6FF250EE66E000EE66E5FECF8
:1012E000A8F0010E0CD0E90E6F008FFFD9FFEA0EB7
:1012F0006F008FFFDAFFDE2A000EDD22000E386E4F
:10130000000E396E2AD0EB0E6F008FFFE6FF6F00E4
:101310008FFFE6FFE70E6F008FFFD9FFE80E6F002B
:101320008FFFDAFF6F007BFFF6FF6F0077FFF7FF9D
:10133000000EF86E0800F550E66E000EE66E5FECEB
:10134000A8F0E90E6F008FFFD9FFEA0E6F008FFF44
:10135000DAFFDE2A000EDD22C4D7E70EE126FF0EFB
:10136000E2221200E65226D3DFECB8F03850D8B4AF
:1013700029D036ECB4F0FF0E6000E3F0E3FFFF0E7F
:101380006F008CFF38F0050E3818D8A41BD0BB882E
:10139000010E6F00A0FF3FFBB80EE66E0B0EE66E6F
:1013A000020EE66E72ECB4F00A0E6F00A0FFF9FABE
:1013B000FD0E6F008FFFD9FFFE0E6F008FFFDAFF6B
:1013C000010EDF6EDBECB8F03850D8B418D318EC4F
:1013D000B4F0FF0E6000E3F0E3FFFF0E6F008CFF40
:1013E00038F0050E3818D8A40AD3BB8A020E6F0055
:1013F000A0FF3FFBB80EE66E0B0EE66E020EE66E29
:1014000072ECB4F00A0E6F00A0FFF9FAFD0E6F0047
:101410008FFFD9FFFE0E6F008FFFDAFF010EC8D2DB
:10142000236A020EE66E23ECB7F03850D8B419D018
:101430000C0E6F00A0FFF9FA22EE05F3DE2A000E73
:10144000DD2222EE10F3DF50F00B0209DF6EFD0EFD
:101450006F008FFFD9FFFE0E6F008FFFDAFF050EC2
:10146000A7D26200FFFCE8FF020AD8A429D0DFEC73
:10147000B8F03850D8B424D036ECB4F0FF0E600089
:10148000E3F0E3FFFF0E6F008CFF38F0040E381816
:10149000D8A416D0B80EE66E0B0EE66E020EE66EFF
:1014A00072ECB4F00A0E6F00A0FFF9FAFD0E6F00A7
:1014B0008FFFD9FFFE0E6F008FFFDAFF020EDF6E87
:1014C0006200FFFCE8FF010AD8A499D2DBECB8F077
:1014D0003850D8B494D218ECB4F0FF0E6000E3F0AA
:1014E000E3FFFF0E6F008CFF38F0040E3818D8A40D
:1014F00086D2B80EE66E0B0EE66E020EE66E72EC4B
:10150000B4F00A0E6F00A0FFF9FAFD0E6F008FFF16
:10151000D9FFFE0E6F008FFFDAFF020E49D2020ED6
:10152000E66E23ECB7F03850D8A482D76200FFFCF7
:10153000E8FF010AD8A4D2D0DFECB8F03850D8B414
:10154000CDD036ECB4F0FF0E6000E3F0E3FF2350A3
:10155000D8A418D0FF0E6F008CFF82F0010EE66E4B
:10156000000EE66EA8ECB5F0232A23504508D96E8C
:10157000000ED8A0E82A0C08DA6EFF0E6F008FFF6D
:10158000DFFFACD00B0E23600CD023501908D96EAE
:10159000000ED8A0E82A0108DA6EFF0E6F008FFF58
:1015A000DFFF23500001825DD8A00DD0000EE66E53
:1015B000FE0EE350E66EA8ECB5F06000E0F0FFFA36
:1015C0006000E4F000FB2350426E436A0001825148
:1015D000406E416A010E4026000E412242504018E2
:1015E00009E143504118D8A405D0FF0EE350010192
:1015F0000E6F0D6B2350426E436A00018251406EA4
:10160000416A020E4026000E4122425040180AE173
:1016100043504118D8A406D0FF0EE35001010D2716
:10162000000E0E23232A23504508D96E000ED8A0A1
:10163000E82A0C08DA6EFF0E6F008FFFDFFF2350E1
:10164000426E436A00018251406E416A020E40269A
:10165000000E41224250405C4150800A386E435097
:10166000800A3858D8B03AD022EEFFF201010D516D
:10167000DE1810E10E51DE18D8A40CD0FD0E6F005C
:101680008FFFD9FFFE0E6F008FFFDAFF030E25D00C
:1016900036ECB4F0DFECB8F03850D8A4F9D7DC0E53
:1016A000E66E050EE66E90ECB4F00F0E6F00A0FF34
:1016B000F9FA22EE03F3DE2A000EDD2222EE10F309
:1016C000DF50F00B0309DF6EFD0E6F008FFFD9FFB7
:1016D000FE0E6F008FFFDAFF050EDF6E6200FFFC6B
:1016E000E8FF020AD8A48BD1DBECB8F03850D8B4AC
:1016F00086D118ECB4F0FF0E6000E3F0E3FF235056
:10170000D8A418D0FF0E6F008CFF82F0010EE66E99
:10171000000EE66EA8ECB5F0232A23504508D96EDA
:10172000000ED8A0E82A0C08DA6EFF0E6F008FFFBB
:10173000DFFF65D10B0E23600CD023501908D96E42
:10174000000ED8A0E82A0108DA6EFF0E6F008FFFA6
:10175000DFFF23500001825DD8A00DD0000EE66EA1
:10176000FE0EE350E66EA8ECB5F06000E0F0FFFA84
:101770006000E4F000FB2350426E436A0001825196
:10178000406E416A010E4026000E41224250401830
:1017900009E143504118D8A405D0FF0EE3500101E0
:1017A0000E6F0D6B2350426E436A00018251406EF2
:1017B000416A020E4026000E4122425040180AE1C2
:1017C00043504118D8A406D0FF0EE35001010D2765
:1017D000000E0E23232A23504508D96E000ED8A0F0
:1017E000E82A0C08DA6EFF0E6F008FFFDFFF235030
:1017F000426E436A00018251406E416A020E4026E9
:10180000000E41224250405C4150800A386E4350E5
:10181000800A3858D8B0F3D022EEFFF201010D5102
:10182000DE1810E10E51DE18D8A40CD0FD0E6F00AA
:101830008FFFD9FFFE0E6F008FFFDAFF030EB8D0C7
:1018400018ECB4F0DBECB8F03850D8A4F9D7DC0EC3
:10185000E66E050EE66E90ECB4F00F0E6F00A0FF82
:10186000F9FA22EE03F3DE2A000EDD2222EE10F357
:10187000DF50F00B0409EAD5010116517F0B436ECE
:1018800060000CF1F7FA22EEF8F2600057F4DFFF87
:1018900020EE0FF16F0078FFEFFA6F0078FFF0FA9B
:1018A0006F0078FFF1FA6F0074FFF2FA22EE0FF387
:1018B00018BF02D0DF9001D0DF8022EE0FF30101CC
:1018C00016BF02D0DF9201D0DF8222EE0FF30101BA
:1018D00014BF02D0DF9401D0DF8422EE10F3F00EAB
:1018E000DF16E80EE66E030EE66E22EEF8F2DF502B
:1018F000E66E22EEF7F2DF50E66E1EECA7F022EE67
:10190000F8F2DF50E66E22EEF7F2DF50E66E6CEC96
:10191000A6F06000E0F0C6F9FD0E6F008FFFD9FF62
:10192000FE0E6F008FFFDAFF040EDF6EBB98BB9ACE
:1019300066D0FD0E6F008FFFD9FFFE0E6F008FFF88
:10194000DAFF060EDF6E02D036ECB4F02B50D8B4BE
:1019500003D0FAD718ECB4F02550D8B450D0FAD749
:1019600022EE10F3F00EDF16BBA802D0010E01D05C
:10197000000EFF0A436E433ABB504318EF0B431867
:10198000BB6EBBAA02D0010E01D0000EFF0A436E4F
:10199000433A4346BB504318DF0B4318BB6EFD0E62
:1019A0006F008FFFD9FFFE0E6F008FFFDAFF000E72
:1019B000DF6E25D0FD0E6F008FFFD9FFFE0E6F008A
:1019C0008FFFDAFFDF50426E436A4350000AD8A40B
:1019D000E6D74250000AD8B4C7D4010AD8B420D5FB
:1019E000030AD8B49CD5010AD8B446D7070AD8B49C
:1019F000B7D7010AD8B49DD7030AD8A4D0D7FD0E13
:101A00006F008FFFD9FFFE0E6F008FFFDAFFDF50F0
:101A1000386EE552E552E5521200070EE126000E3F
:101A2000E222FE0EE36AFF0EE36A0A0E6F00A0FFD9
:101A3000FAFA22EE10F3DF983790060EE66E23ECEA
:101A4000B7F03850D8B45AD222EE11F3DF50070B5A
:101A50000009D8B414D022EE41F3DF50E66E310E07
:101A6000E66E8BECABF020EE31F0070E386EF70E21
:101A70006F007BFFE3FFE828382EFAD75BD2880E91
:101A8000E66E130EE66E060EE66E72ECB4F036D21B
:101A90009B0E316E010E326E0F0E336EEFCA9FF148
:101AA000F0CAA0F1F1CAA1F1F2CAA2F1EBCA02F1A7
:101AB000ECCA03F1EDCA04F1EECA05F13780000E5D
:101AC000346E010E356E0D0E366E22EE10F3DF8889
:101AD000CAD7000E316E010E326E0D0E336EEFCA94
:101AE00002F1F0CA03F1F1CA04F1F2CA05F1BBD761
:101AF000CD0E316E010E326E110E336EEFCAD3F180
:101B0000F0CAD4F1F1CAD5F1F2CAD6F1ACD7B90E08
:101B1000316E010E326E140E336EEFCAC2F1F0CA8E
:101B2000C3F1F1CAC4F1F2CAC5F1EBCAAEF1ECCA15
:101B3000AFF1EDCAB0F1EECAB1F13780AA0E346E42
:101B4000010E356E0F0EC0D7F80E6F008CFF43F0FC
:101B5000010123514318800B4318236F1A0E316E75
:101B6000010E326E0D0E336EEFCA1CF1F0CA1DF17C
:101B7000F1CA1EF1F2CA1FF1110E6F00A0FFFAFAAE
:101B800072D7F70EE350426E436A4350000AD8A45E
:101B9000DBD74250010AD8B47BD7030AD8B499D70F
:101BA000010AD8B4A5D70E0AD8B4B1D7CDD7C30E81
:101BB000316E020E326E1D0E336EEFCAD5F2F0CAD0
:101BC000D6F2F1CAD7F2F2CAD8F24DD78B0E316EE7
:101BD000010E326E100E336EEFCA90F1F0CA91F121
:101BE000F1CA92F1F2CA93F13ED7F70EE350426E7A
:101BF000436A4350000AD8A4A7D74250110AD8B468
:101C0000D6D7080AD8B4E2D79FD77B0E316E010E23
:101C1000326E100E336EEFCA80F1F0CA81F1F1CA54
:101C200082F1F2CA83F11FD7F70EE350426E436A86
:101C30004350000AD8A488D74250010AD8B4E5D747
:101C400083D75B0E316E010E326E100E336EEFCA0B
:101C500060F1F0CA61F1F1CA62F1F2CA63F10C0EEF
:101C60001FD05B0E316E010E326E100E336EEFCA56
:101C700060F1F0CA61F1F1CA62F1F2CA63F10E0ECD
:101C80000FD05B0E316E010E326E100E336EEFCA46
:101C900060F1F0CA61F1F1CA62F1F2CA63F11A0EA1
:101CA0000101666FE0D6F70EE350426E436A43507F
:101CB000000AD8A449D742500B0AD8B4C2D7060AA2
:101CC000D8B4CFD7140AD8B4DCD73ED722EE0BF362
:101CD000DE2A000EDD22C7D6F70EE350426E436ABD
:101CE0004350000AD8A430D74250010AD8B4BBD61A
:101CF000020AD8B4B8D6060AD8B4B5D6020AD8B4FF
:101D0000B2D60E0AD8B4E2D7020AD8B4ACD6060AC4
:101D1000D8B4A9D619D76B0E316E010E326E100EE3
:101D2000336EEFCA70F1F0CA71F1F1CA72F1F2CA02
:101D300073F1EBCA2DF3ECCA2EF3EDCA2FF3EECA02
:101D400030F3B80EE66E0B0EE66E070EE66E72EC22
:101D5000B4F0010EE66E86ECB8F09AD03780380EFB
:101D6000346E030E356E380E366E32CB60F322EED3
:101D700010F3DF88AFD03780BA0E346E356A240E88
:101D8000366E22EE10F3DF88030EE66E86ECB8F0B6
:101D9000A1D03780BA0E346E356A240E366E22EE2C
:101DA00010F3DF88040EE66E86ECB8F093D037802F
:101DB000BA0E346E356A240E366E22EE10F3DF88CA
:101DC000050EE66E86ECB8F085D054ECB0F022EE4D
:101DD00041F3DF50E66E71ECA0F0070EE66E86EC84
:101DE000B8F022EE0DF3DE2A000EDD2273D037802C
:101DF000000E346E030E356E380E366E32CB28F37D
:101E0000B6D7FF0EE66EFD0E6F008FFFE6FF6F0088
:101E10008FFFE6FFFBECB0F0FE0EE350010F386ED3
:101E2000FE0E6000E3F0E3FF386AFF0EE350382057
:101E3000386EFF0E6000E3F0E3FFFF0E6F008CFFD3
:101E400038F0040E385ED8A0DCD7000E6F00A0FF7B
:101E50003DFB000E6F00A0FF3EFB000E6F00A0FFD9
:101E600036FB020EE66E86ECB8F034D022EE10F3AC
:101E7000DFBA03D0436A432A01D0436A22EE10F34B
:101E8000433A4346DF504318DF0B4318DF6E22D03E
:101E9000B6ECA2F03850426E436A4350000AD8A410
:101EA00019D04250000AD8B4A2D7010AD8B456D7E4
:101EB000040AD8B4DBD7030AD8B4A3D7010AD8B42C
:101EC0005AD70F0AD8B465D7010AD8B470D7020A16
:101ED000D8B47BD7E3ECB8F03850E66E7DECB8F0C0
:101EE000C2D5F70EE350426E436A4350000AD8A4AD
:101EF0002BD64250010AD8B40ED726D6F80EE3509E
:101F0000426E436A4350000AD8A41ED64250010ACA
:101F1000D8B437D6030AD8B468D6070AD8B484D65A
:101F2000030AD8B4C0D60F0AD8B4D6D6030AD8B498
:101F3000D8D70AD6E552E552120004ECB8F022EEEA
:101F400037F3DF50D8A4C4D1FC0E6F008FFFE6FF3B
:101F50006F008FFFE6FFFC0EE350E66EFC0EE350D1
:101F6000E66EABECB4F01ED20B013651030BE66EFD
:101F7000000EE66E22EEF8F2DF50E66E000EE66E20
:101F800022EEF7F2DF50E66E000EE66E010EE66E10
:101F9000FE0EE66E000EE66E000EE66E10ECB5F07C
:101FA0006000E3F0E6FF6000E7F0E6FF0A0EE66E91
:101FB00003ECAAF022EE3DF36F0078FF42F06F00D1
:101FC00074FF43F060000BF1E6FF60000FF1E6FFE5
:101FD000A90EE66EFE0EE66E000EE66E010EE66ED1
:101FE00010ECB5F06000E3F0E6FF6000E7F0E6FF1C
:101FF000060EE66E03ECAAF08BD1550EE66EFF0ED0
:10200000E66E000EE66E000EE66E10ECB5F06000B7
:10201000E3F0E6FF6000E7F0E6FF040EE66E03EC97
:10202000AAF022EE33F3DF50E66E000EE66E950E58
:10203000E66EFE0EE66E000EE66E010EE66E10EC2B
:10204000B5F06000E3F0E6FF6000E7F0E6FF060EA3
:10205000E66E03ECAAF05CD1430EE66EFF0EE66E70
:10206000000EE66E000EE66E10ECB5F06000E3F0D8
:10207000E6FF6000E7F0E6FF040EE66E03ECAAF070
:1020800022EE33F3DF50E66E000EE66E950EE66E3E
:10209000FE0EE66E000EE66E010EE66E10ECB5F07A
:1020A0006000E3F0E6FF6000E7F0E6FF060EE66E94
:1020B00003ECAAF02DD1310EE66EFF0EE66E000E97
:1020C000E66E000EE66E10ECB5F06000E3F0E6FFA1
:1020D0006000E7F0E6FF040EE66E03ECAAF022EEE5
:1020E00033F3DF50E66E000EE66E950EE66EFE0EE2
:1020F000E66E000EE66E010EE66E10ECB5F06000C6
:10210000E3F0E6FF6000E7F0E6FF060EE66E03ECA4
:10211000AAF0FED0BA0EE66EFF0EE66EE50EE66E93
:10212000FE0EE66E010EE66E000EE66E10ECB5F0E9
:102130006000E3F0E6FF6000E7F0E6FF060EE66E03
:1021400003ECAAF0DC0EE66EFF0EE66EF80EE66E0D
:10215000FE0EE66E010EE66E010EE66E10ECB5F0B8
:102160006000E3F0E6FF6000E7F0E6FF060EE66ED3
:1021700003ECAAF0CDD022EEFBF2DF50E66E000EAB
:10218000E66E22EE40F3DF50E66E000EE66EEA0EDB
:10219000E66EFD0EE66E000EE66E000EE66E10ECCC
:1021A000B5F06000E3F0E6FF6000E7F0E6FF080E40
:1021B000E66E03ECAAF022EE0DF36F0078FF42F01A
:1021C0006F0074FF43F060000BF1E6FF60000FF159
:1021D000E6FF170EE66EFE0EE66E000EE66E010ED0
:1021E000E66E10ECB5F06000E3F0E6FF6000E7F0AB
:1021F000E6FF060EE66E03ECAAF08AD022EE32F37A
:10220000DF50E66E000EE66E390EE66EFD0EE66EEF
:10221000000EE66E000EE66E10ECB5F06000E3F026
:10222000E6FF6000E7F0E6FF060EE66E03ECAAF0BC
:1022300022EE35F3DF50E66E000EE66E22EE34F34A
:10224000DF50E66E000EE66E22EE33F3DF50E66EF0
:10225000000EE66EA10EE66EFD0EE66E000EE66E58
:10226000010EE66E10ECB5F06000E3F0E6FF6000F2
:10227000E7F0E6FF0A0EE66E03ECAAF049D0090E7D
:10228000E66EFD0EE66E000EE66E000EE66E10ECDB
:10229000B5F06000E3F0E6FF6000E7F0E6FF040E53
:1022A000E66E03ECAAF0090EE66EFD0EE66E000E79
:1022B000E66E010EE66E10ECB5F06000E3F0E6FFAE
:1022C0006000E7F0E6FF040EE66E03ECAAF020D013
:1022D00022EE37F3DF50426E436A4350000AD8A41F
:1022E000CED74250010AD8B489D7030AD8B43CD615
:1022F000010AD8B482D6070AD8B4DDD6010AD8B408
:10230000ABD6030AD8B406D7010AD8B434D7B7D7A6
:102310006200DFFCE8FF060AD8A41DD0AB0EE66E13
:102320000A0EE66ECF0EE66EFF0EE66E010EE66E4C
:10233000020EE66E10ECB5F06000E3F0E6FF600020
:10234000E7F0E6FF060EE66E03ECAAF0010EE66E7D
:102350007BECA9F01CD0AB0EE66E0A0EE66ECF0E3B
:10236000E66EFF0EE66E000EE66E020EE66E10ECF6
:10237000B5F06000E3F0E6FF6000E7F0E6FF060E70
:10238000E66E03ECAAF0000EE66E7BECA9F0070EF9
:10239000E66E23ECB7F03850D8B404D0000E6F00CE
:1023A000A0FF37FB62000FF7E8FF060A37CBC3F93F
:1023B000E552E552E552E5521200120EE126000EFA
:1023C000E222E40EE124D96EFF0EE220DA6E080E5E
:1023D000386EF00E6F007BFFE3FFE828382EFAD747
:1023E000F70EE3AE02D0010E01D0000E426E436A3A
:1023F000FA0E60000BF1E3FFFB0E60000FF1E3FF4C
:10240000FA0E6F008CFF38F0FB0EE3503810D8B492
:1024100025D0F00EE36CF10EE31EF20EE31EF30E78
:10242000E31EF40EE31EF50EE31EF60EE31EF70E9A
:10243000E31E14E3F10EE32A11E3F20EE32A0EE3A6
:10244000F30EE32A0BE3F40EE32A08E3F50EE32A86
:1024500005E3F60EE32A02E3F70EE32A13AE149225
:1024600013BE05D0135010E11204D8B00DD0010EE8
:10247000426E000E436EFE0E60000BF1E3FFFF0E96
:1024800060000FF1E3FF08D0FE0E60004BF0E3FFA9
:10249000FF0E60004FF0E3FFFC0E600043F0E3FF2F
:1024A000FD0E600047F0E3FFFA0E6F008CFF38F07E
:1024B000FB0EE3503810D8A402D014A40AD0E15087
:1024C000FC0FD96EE250DA6EFF0EDA22DE06000E45
:1024D000DD5A1F0E426E000E436EF80E60000BF1C7
:1024E000E3FFF90E60000FF1E3FF0101FD6B09D17D
:1024F000E150F80FD96EE250DA6EFF0EDA22DE06F6
:10250000000EDD5A0A0EE66E000EE66E000EE66E56
:10251000000EE66E000EE66E000EE66E000EE66E33
:10252000000EE66EE150E80FD96EE250DA6EFF0E53
:10253000DA226F007BFFE6FF6F007BFFE6FF6F0094
:102540007BFFE6FF6F007BFFE6FF6F007BFFE6FF90
:102550006F007BFFE6FF6F007BFFE6FF6F007BFFF6
:10256000E6FF96ECA1F0E5526F009CFF4FF0E552BC
:102570006F009CFF4EF0E5526F009CFF4DF0E5525E
:102580006F009CFF4CF0E5526F009CFF4BF0E55252
:102590006F009CFF4AF0E5526F009CFF49F0E55246
:1025A0006F009CFF48F0F80EE126FF0EE22260006B
:1025B00020F142F0600024F143F060000BF1E6FFEF
:1025C00060000FF1E6FF30ECB3F0300E3826F80E65
:1025D0006F008CFF42F0F90E6F008CFF43F0DE0EAF
:1025E0004224D96E010E4320DA6E6000E3F0DFFF73
:1025F000E150FE0FD96EE250DA6EFF0EDA22DE06EF
:10260000000EDD5AE150FC0FD96EE250DA6EFF0E7B
:10261000DA22DE06000EDD5A0A0EE66E000EE66EC7
:10262000000EE66E000EE66E000EE66E000EE66E22
:10263000000EE66E000EE66EE150E80FD96EE25035
:10264000DA6EFF0EDA226F007BFFE6FF6F007BFF82
:10265000E6FF6F007BFFE6FF6F007BFFE6FF6F008A
:102660007BFFE6FF6F007BFFE6FF6F007BFFE6FF6F
:102670006F007BFFE6FF31EC9FF0E5526F009CFF9F
:102680004FF0E5526F009CFF4EF0E5526F009CFF4B
:102690004DF0E5526F009CFF4CF0E5526F009CFF3F
:1026A0004BF0E5526F009CFF4AF0E5526F009CFF33
:1026B00049F0E5526F009CFF48F0F80EE126FF0E4E
:1026C000E222F00E600023F1E3FFF10E600027F13B
:1026D000E3FFF20E60002BF1E3FFF30E60002FF139
:1026E000E3FFF40E600033F1E3FFF50E600037F115
:1026F000E3FFF60E60003BF1E3FFF70E60003FF1F1
:10270000E3FFF90EE3BE36D0F90EE35004E1F80E14
:10271000E304D8A02FD0F00EE35015E1F10EE35002
:1027200012E1F20EE3500FE1F30EE3500CE1F40E70
:10273000E35009E1F50EE35006E1F60EE35003E144
:10274000F70EE350D8A4D4D6FF0EE3BE07D0FF0E99
:10275000E35003E1FE0EE304D8B0CAD6FD0EE3BE9B
:1027600009D0FD0EE35004E1FC0EE304D8A002D032
:1027700014B2BED6FA0E6F008CFF38F0FB0EE35099
:102780003810D8A402D014A433D0E150F80FD96E79
:10279000E250DA6EFF0EDA22DE06000EDD5AFA0E85
:1027A0006F008CFF38F0FB0EE3503810D8A402D035
:1027B0002B0E01D02D0E426E000E436EEE0E600009
:1027C0000BF1E3FFEF0E60000FF1E3FFF80E6F0077
:1027D0008CFF42F0F90E6F008CFF43F0DE0E4224B6
:1027E000D96E010E4320DA6EEE0E6F008FFFDFFF11
:1027F000FC0E6F008FFFE6FF6F008FFFE6FFDE0E1F
:10280000426E010E436EF60EE3504226F70EE35081
:10281000432260000BF1E6FF60000FF1E6FFE80ED7
:102820006F008FFFE6FF6F008FFFE6FFF1ECA8F06F
:10283000E40EE126FF0EE2221200E65201D2DFECA6
:10284000B8F03850D8B421D236ECB4F0FF0E6000A6
:10285000E3F0E3FFFF0E6F008CFF38F0050E381831
:10286000D8A413D2BB88BE820A0E6F00A0FFF9FA6B
:10287000FD0E6F008FFFD9FFFE0E6F008FFFDAFF96
:10288000010EDF6E060EE66E23ECB7F03850D8B4BA
:10289000FCD1880EE66E130EE66E060EE66E72EC46
:1028A000B4F0F3D1226A010E5B6E440E166E0B0E6D
:1028B000176E040EE66EB9ECB3F0B80EE66E0B0EB2
:1028C000E66E020EE66E72ECB4F0FD0E6F008FFF46
:1028D000D9FFFE0E6F008FFFDAFF020E2DD0020E21
:1028E000E66E23ECB7F03850D8B428D022EE05F3CA
:1028F000DE2A000EDD225C065C28D8A414D00C0E63
:102900006F00A0FFF9FA22EE10F3DF50F00B01097F
:10291000DF6EFD0E6F008FFFD9FFFE0E6F008FFF81
:10292000DAFF050E09D0FD0E6F008FFFD9FFFE0EF6
:102930006F008FFFDAFF000EDF6EA7D1DFECB8F07B
:102940003850D8B4A2D136ECB4F0FF0E6000E3F0FA
:10295000E3FF2250D8A41CD0FF0E6F008CFF82F042
:10296000010EE66E000EE66EA8ECB5F0222A2250AB
:10297000165C426E000E1758436E010E4224D96E4B
:10298000010E4320DA6EFF0E6F008FFFDFFF7DD157
:102990000B0E22600CD022501908D96E000ED8A060
:1029A000E82A0108DA6EFF0E6F008FFFDFFF110EBD
:1029B0005B601CD02250426E436A5B50406E416A9D
:1029C0000A0E4026000E4122425040180FE14350AB
:1029D0004118D8A40BD0110E5B24D96EDA6A0B0E05
:1029E000DA22FF0E6F008FFFDFFF5B2A225000010B
:1029F000825DD8A00DD0000EE66EFE0EE350E66EAE
:102A0000A8ECB5F06000E0F0FFFA6000E4F000FB35
:102A10002250426E436A00018251406E416A010EAB
:102A20004026000E41224250401809E1435041180F
:102A3000D8A405D0FF0EE35001010E6F0D6B22509C
:102A4000426E436A00018251406E416A020E402686
:102A5000000E4122425040180AE143504118D8A4C8
:102A600006D0FF0EE35001010D27000E0E23222A8F
:102A70002250165C426E000E1758436E010E42241F
:102A8000D96E010E4320DA6EFF0E6F008FFFDFFF5D
:102A90002250426E436A00018251406E416A020E2A
:102AA0004026000E41224250405C4150800A386E60
:102AB0004350800A3858D8B0E8D022EEFFF2010126
:102AC0000D51DE1812E10E51DE18D8A40ED0FD0E05
:102AD0006F008FFFD9FFFE0E6F008FFFDAFF030E2E
:102AE000DF6EBE82D2D036ECB4F0DFECB8F03850F6
:102AF000D8A4F9D7DC0EE66E050EE66E90ECB4F0C5
:102B00000F0E6F00A0FFF9FA22EE03F3DE2A000E8B
:102B1000DD2222EE10F3DF50F00B0209F9D6060E8B
:102B2000E66EB9ECB3F0010116517F0B436E600005
:102B30000CF1F7FA22EEF8F2600057F4DFFF20EE16
:102B40000FF16F0078FFEFFA6F0078FFF0FA6F0077
:102B500078FFF1FA6F0074FFF2FA22EE0FF318BF5C
:102B600002D0DF9001D0DF8022EE0FF3010116BF0B
:102B700002D0DF9201D0DF8222EE0FF3010114BFF9
:102B800002D0DF9401D0DF84F40EE66E010EE66E13
:102B900022EEF8F2DF50E66E22EEF7F2DF50E66E3C
:102BA0001EECA7F022EEF8F2DF50E66E22EEF7F20E
:102BB000DF50E66E6CECA6F06000E0F0C6F922EEA5
:102BC00010F3F00EDF16FD0E6F008FFFD9FFFE0E23
:102BD0006F008FFFDAFF040EDF6E0A0E6F00A0FF9A
:102BE000FAFABB9852D0150EE66EB9ECB3F0FD0EB2
:102BF0006F008FFFD9FFFE0E6F008FFFDAFF060E0A
:102C0000DF6E02D036ECB4F02B50D8A4FBD7030E05
:102C10005C6E3BD022EE10F3F00EDF160A0E6F0052
:102C2000A0FFFAFABBA802D0010E01D0000EFF0AE5
:102C3000436E433ABB504318EF0B4318BB6E73D639
:102C4000FD0E6F008FFFD9FFFE0E6F008FFFDAFFC2
:102C5000DF50426E436A4350000AD8A464D6425003
:102C6000000AD8B4ECD5010AD8B41CD6030AD8B4EB
:102C700036D6010AD8B453D7070AD8B4CBD7010A3D
:102C8000D8B4B1D7030AD8A44ED6FD0E6F008FFF7B
:102C9000D9FFFE0E6F008FFFDAFFDF50386EE5526E
:102CA000E552E5521200140EE126000EE22213AEA8
:102CB000149213BE05D0135010E11204D8B00DD0F9
:102CC000010E426E000E436EFE0E60000BF1E3FF3C
:102CD000FF0E60000FF1E3FF08D0FE0E60004BF026
:102CE000E3FFFF0E60004FF0E3FFFC0E600043F0D7
:102CF000E3FFFD0E600047F0E3FF14A80BD0E150A6
:102D0000FC0FD96EE250DA6EFF0EDA22FE0EDE26DE
:102D1000FF0EDD22E20EE124D96EFF0EE220DA6E14
:102D2000080E386EF00E6F007BFFE3FFE828382EA8
:102D3000FAD71F0E426E000E436EFA0E60000BF1C2
:102D4000E3FFFB0E60000FF1E3FF0101FD6BEED02E
:102D5000E150FA0FD96EE250DA6EFF0EDA22DE068B
:102D6000000EDD5AF00E6F008CFF42F0F10E6F0086
:102D70008CFF43F00F0E4216000E4316F80E600053
:102D80000BF1E3FFF90E60000FF1E3FFF90EE3BE74
:102D90000FD0F90EE35008E1F80E6F008CFF38F009
:102DA0000A0E385ED8A004D0F80EE350570F03D0B7
:102DB000F80EE350300F426EF90E6F008CFF43F0B7
:102DC000000E4322F80E60000BF1E3FFF90E6000E5
:102DD0000FF1E3FFBF0E426EFF0E436EE10EE350B4
:102DE000406E416A4250402643504122415006E124
:102DF0001A0E405CD8B002D0010E01D0000E426E17
:102E0000436AEE0E60000BF1E3FFEF0E60000FF17E
:102E1000E3FFEE0E6F008CFF38F0EF0EE35038103A
:102E2000D8B441D09F0E426EFF0E436EF80E6F0075
:102E30008CFF40F0F90E6F008CFF41F0200E401225
:102E4000000E41124250402643504122415006E1BB
:102E50001A0E405CD8B002D0010E01D0000E426EB6
:102E6000436AEC0E60000BF1E3FFED0E60000FF122
:102E7000E3FFEC0E6F008CFF38F0ED0EE3503810DE
:102E8000D8B411D0F80E6F008FFFE6FF6F008FFFF0
:102E9000E6FFD8ECAFF0F80E6000E3F0E3FFF90EC8
:102EA0006000E7F0E3FFFA0E6F008CFF42F0FB0ECC
:102EB0006F008CFF43F0DE0E4224D96E010E4320DA
:102EC000DA6EF80E6F008FFFDFFFE150FE0FD96E54
:102ED000E250DA6EFF0EDA22DE06000EDD5AE15015
:102EE000FC0FD96EE250DA6EFF0EDA22DE06000E1B
:102EF000DD5A040E436EE150F00FD96EE250DA6EE7
:102F0000FF0EDA224328DE520FD0DE52DE52DE52AE
:102F1000DE52DE52DE52D890DD32DD32DD32DD327D
:102F2000DD32DD32DD32DE32E82EEFD7FB0EE3BEDE
:102F30003AD0FB0EE35008E1FA0E6F008CFF38F038
:102F4000020E385ED8A02FD0F00EE35015E1F10E3E
:102F5000E35012E1F20EE3500FE1F30EE3500CE107
:102F6000F40EE35009E1F50EE35006E1F60EE350EE
:102F700003E1F70EE350D8A4EBD6FF0EE3BE07D073
:102F8000FF0EE35003E1FE0EE304D8B0E1D6FD0EE0
:102F9000E3BE09D0FD0EE35004E1FC0EE304D8A02B
:102FA00002D014B2D5D614A836D0E150FA0FD96E9B
:102FB000E250DA6EFF0EDA22DE06000EDD5AFA0E5D
:102FC0006F008CFF42F0FB0E6F008CFF43F0DE0EB3
:102FD0004224D96E010E4320DA6EE10E6F008FFF9E
:102FE000DFFFE150FA0FD96EE250DA6EFF0EDA22FF
:102FF000DE06000EDD5AFA0E6F008CFF42F0FB0E6B
:103000006F008CFF43F0DE0E4224D96E010E432088
:10301000DA6E300EDF6EFC0E6F008FFFE6FF6F0082
:103020008FFFE6FFDE0E426E010E436EF80EE35098
:103030004226F90EE350432260000BF1E6FF6000E8
:103040000FF1E6FFE60E6F008FFFE6FF6F008FFFC8
:10305000E6FFF1ECA8F0E10EE126FF0EE2221200FD
:10306000E65272D1BB8A0A0E6F00A0FFF9FA030E76
:10307000216E050EE66EB9ECB3F0B80EE66E0B0EDF
:10308000E66E020EE66E72ECB4F0FD0E6F008FFF7E
:10309000D9FFFE0E6F008FFFDAFF010E53D1020E33
:1030A000E66E23ECB7F03850D8B426D022EE05F304
:1030B000DE2A000EDD2221062128D8A414D00C0E11
:1030C0006F00A0FFF9FA22EE0FF3DF50870B08091B
:1030D000DF6EFD0E6F008FFFD9FFFE0E6F008FFFBA
:1030E000DAFF050E2FD1B80EE66E0B0EE66E020E5D
:1030F000E66E72ECB4F04DD1DFECB8F03850D8B4D5
:1031000048D136ECB4F0FF0E6000E3F0E3FFFF0EB1
:103110006F008CFF38F0040E3818D8A412D0880E37
:10312000E66E130EE66E030EE66E72ECB4F0FD0E64
:103130006F008FFFD9FFFE0E6F008FFFDAFF020EC8
:10314000DF6EFF0E6F008CFF38F0050E3818D8A424
:1031500020D1040EE66E94ECB5F0FD0E6F008FFFEB
:10316000D9FFFE0E6F008FFFDAFF040EEBD0205068
:10317000D8A413D022EEF8F2DF50E66E22EEF7F27A
:10318000DF50E66E0DEC8DF020EE8FF0060EE5526E
:103190006F009FFFDBFFE806FAE26200EBFBE8FF4F
:1031A000110AD8A41FD0010EE66E000EE66E0001D3
:1031B0009151E66E60003FF2E6FF600043F2E6FFE9
:1031C000ACEC9CF022EE0FF3DF50870B1009DF6EA2
:1031D000FD0E6F008FFFD9FFFE0E6F008FFFDAFF2D
:1031E000060EB0D02050D8A416D0010EE66E000E08
:1031F000E66E00019151E66E60003FF2E6FF60006E
:1032000043F2E6FFACEC9CF022EE10F3DFA816D000
:10321000010E206E13D0206A22EE10F3DF98010E0B
:10322000E66E000EE66E00019451E66E60004BF211
:10323000E6FF60004FF2E6FFACEC9CF06200E7FBBB
:10324000E8FF0A0AD8A40AD0FD0E6F008FFFD9FF4D
:10325000FE0E6F008FFFDAFF030E74D022EE0FF325
:10326000DF50870B1809B3D7030EE66E23ECB7F0D7
:103270003850D8B40FD022EE05F3DE2A000EDD223E
:103280000D0E6F00A0FFF9FA22EE0FF3DF50870B4F
:1032900020091ED7DFECB8F03850D8B47AD036EC1D
:1032A000B4F0FF0E6000E3F0E3FFFF0E6F008CFF51
:1032B00038F0060E3818D8A46CD022EE0FF3870E23
:1032C000DF16FD0E6F008FFFD9FFFE0E6F008FFF20
:1032D000DAFF040EDF6E0A0E6F00A0FFFAFABB9A47
:1032E00058D0FD0E6F008FFFD9FFFE0E6F008FFFCD
:1032F000DAFF060EDF6E02D036ECB4F02B50D8B4F5
:1033000048D0FAD722EE0FF3870EDF160A0E6F00B1
:10331000A0FFFAFABBAA02D0010E01D0000EFF0AEC
:10332000436E433A4346BB504318DF0B4318BB6E12
:1033300030D0FD0E6F008FFFD9FFFE0E6F008FFFA4
:10334000DAFF000EDF6E25D0FD0E6F008FFFD9FF74
:10335000FE0E6F008FFFDAFFDF50426E436A43506C
:10336000000AD8A4E6D74250000AD8B47BD6010A96
:10337000D8B495D6030AD8B4FAD6010AD8B474D70B
:10338000070AD8B4BFD7010AD8B4ABD7030AD8A468
:10339000D0D7FD0E6F008FFFD9FFFE0E6F008FFF9D
:1033A000DAFFDF50386EE552E552E5521200E65280
:1033B000E652E652E652FA0E6F008CFF42F0FB0E28
:1033C0006F008CFF43F0FD0E60000FF1E3FFFC0E79
:1033D00060000BF1E3FFF60E6F008CFF38F0F70E84
:1033E000E3503810D8B454D1FC0E6F008FFFD9FFD2
:1033F000FD0E6F008FFFDAFFF80E6F008FFFDFFF0B
:10340000FC0E6F008CFF42F0FD0E6F008CFF43F04E
:10341000F60EE3504226F70EE3504322FF0E4224FD
:10342000D96EFF0E4320DA6EF80E6F008FFFDFFFBC
:10343000F70EE35008E1F60E6F008CFF38F0030E34
:10344000385ED8A025D1FC0E6F008CFF42F0FD0E37
:103450006F008CFF43F0010E4224D96E000E432012
:10346000DA6EF80E6F008FFFDFFFFC0E6F008CFF2F
:1034700042F0FD0E6F008CFF43F0020E4224D96E25
:10348000000E4320DA6EF80E6F008FFFDFFFFC0E98
:103490006F008CFF42F0FD0E6F008CFF43F0F60EC4
:1034A000E3504226F70EE3504322FE0E4224D96E2B
:1034B000FF0E4320DA6EF80E6F008FFFDFFFFC0E69
:1034C0006F008CFF42F0FD0E6F008CFF43F0F60E94
:1034D000E3504226F70EE3504322FD0E4224D96EFC
:1034E000FF0E4320DA6EF80E6F008FFFDFFFF70E3E
:1034F000E35008E1F60E6F008CFF38F0070E385EDF
:10350000D8A0C6D0FC0E6F008CFF42F0FD0E6F00FD
:103510008CFF43F0030E4224D96E000E4320DA6E76
:10352000F80E6F008FFFDFFFFC0E6F008CFF42F084
:10353000FD0E6F008CFF43F0F60EE3504226F70EAF
:10354000E3504322FC0E4224D96EFF0E4320DA6E74
:10355000F80E6F008FFFDFFFF70EE35008E1F60E65
:103560006F008CFF38F0090E385ED8A091D0FC0EA9
:103570006F008CFF42F0421EFD0E6F008CFF43F087
:10358000431E422AD8B4432A030E4216000E4316A5
:10359000FE0E60000BF1E3FFFF0E60000FF1E3FF92
:1035A000FC0EE350386EFE0EE3503826FC0E600031
:1035B000E3F0E3FFFD0EE350386EFF0EE3503822D8
:1035C000FD0E6000E3F0E3FFF60EE350386EFE0EF2
:1035D000E350385EF60E6000E3F0E3FFF70EE350D1
:1035E000386EFF0EE350385AF70E6000E3F0E3FF49
:1035F000FC0E426EFF0E436EF60E6F008CFF38F02D
:1036000042503816F60E6000E3F0E3FFF70E6F004D
:103610008CFF38F043503816F70E2ED0FC0E6F009A
:103620008FFFD9FFFD0E6F008FFFDAFFF80E6F00DE
:103630008FFFDFFFF60E6F008CFF38F0010E385E53
:10364000F60E6000E3F0E3FFF70E6F008CFF38F03A
:10365000000E385AF70E6000E3F0E3FFFC0EE35073
:10366000010F386EFC0E6000E3F0E3FF386AFD0ED8
:10367000E3503820386EFD0E6000E3F0E3FFF60EF5
:103680006F008CFF38F0F70EE3503810D8A4C6D77F
:10369000F60EE126FF0EE2221200110EE126000EC8
:1036A000E22220EEB3F0070E386EEF0E6F007BFFC4
:1036B000E3FFE828382EFAD7EB0E6F008CFF42F0BC
:1036C000EC0E6F008CFF43F0FB0E60000FF1E3FF88
:1036D000FA0E60000BF1E3FFFA0E6F008CFF38F07A
:1036E000FB0EE3503810D8A40ED0EF0EE124426E4A
:1036F000FF0EE220436EFB0E60000FF1E3FFFA0EB7
:1037000060000BF1E3FFFA0E6F008FFFE6FF6F0022
:103710008FFFE6FFAEECAEF0F60E6000E3F0E3FFE5
:10372000F70E6000E7F0E3FFF80E60004BF0E3FFF8
:10373000F90E60004FF0E3FFF90EE3BE23D0E15035
:10374000F80FD96EE250DA6EFF0EDA22F60EE35071
:10375000DE5CDE50800A386EF70EE350800A38587F
:10376000D8B010D0F80E6F008CFF38F0F60E600065
:10377000E3F0E3FFF90E6F008CFF38F0F70E600006
:10378000E3F0E3FFF60E6F008CFF38F0F80E6000F8
:10379000E3F0E3FFF70E6F008CFF38F0F90E6000E6
:1037A000E3F0E3FFFC0E600043F0E3FFFD0E60007A
:1037B00047F0E3FF14A01FD031D0ED0E6F008FFF54
:1037C000E6FF6F008FFFE6FF200EE66E000EE66E4E
:1037D0005FECA8F0F60EE350010F386EF60E6000B5
:1037E000E3F0E3FF386AF70EE3503820386EF70E47
:1037F0006000E3F0E3FFE150F60FD96EE250DA6EBD
:10380000FF0EDA22FC0EE350DE5CDE50800A386EDA
:10381000FD0EE350800A3858D8A0CFD7FE0EE36AD9
:10382000FF0EE36A45D0ED0E6F008FFFE6FF6F00DD
:103830008FFFE6FFF80E6F008FFFF6FFF90E6F00A7
:103840008FFFF7FF000EF86E1F0EF76403D008001D
:10385000F55007D06F00DBFFE9FF6F00DFFFEAFFE5
:10386000EF50E66E000EE66E5FECA8F0FA0EE35045
:10387000010F386EFA0E6000E3F0E3FF386AFB0ECA
:10388000E3503820386EFB0E6000E3F0E3FFFE0EDD
:10389000E350010F386EFE0E6000E3F0E3FF386A7C
:1038A000FF0EE3503820386EFF0E6000E3F0E3FFB8
:1038B000E150FE0FD96EE250DA6EFF0EDA22F80EFA
:1038C000E350DE5CDE50800A386EF90EE350800A69
:1038D0003858D8A0A8D714B01FD031D0ED0E6F0043
:1038E0008FFFE6FF6F008FFFE6FF200EE66E000EF3
:1038F000E66E5FECA8F0F60EE350010F386EF60EA0
:103900006000E3F0E3FF386AF70EE3503820386ECA
:10391000F70E6000E3F0E3FFE150F60FD96EE250DE
:10392000DA6EFF0EDA22FC0EE350DE5CDE50800A17
:10393000386EFD0EE350800A3858D8A0CFD7F60E67
:103940006F008CFF38F0F70E6F008CFF39F0EB0E34
:10395000E126FF0EE2221200050EE126000EE22211
:10396000F90E6F008CFF42F0FA0E6F008CFF43F0EF
:10397000FC0E60000FF1E3FFFB0E60000BF1E3FFB4
:1039800022EEEBF2DE2A000EDE22DE22DE220A0E1C
:103990006F00A0FFF9FAF80EE350426E436AFB0E87
:1039A000E3504226FC0EE3504322FF0E4224D96E20
:1039B000FF0E4320DA6EDF50426E436AFD0E406E0A
:1039C000FF0E416EF80EE3503E6E3F6A40503E26B9
:1039D00041503F2242503E1804E143503F18D8B4B2
:1039E0000BD0120E6F00A0FFF9FA22EE0FF3DF509A
:1039F000870B0809DF6EEFD0FD0E426EFF0E436E9F
:103A0000F80EE350406E416A425040264350412236
:103A1000600003F1E6FF600007F1E6FFF90EE350F6
:103A2000020F426EFA0E6F008CFF43F0000E43222D
:103A300060000BF1E6FF60000FF1E6FF7BECACF0FD
:103A4000FD0E6000E3F0E3FFFE0E6000E7F0E3FF31
:103A5000FB0E6F008FFFD9FFFC0E6F008FFFDAFFA8
:103A6000FD0E6F008FFFDFFFFE0EE124D96EFF0E0B
:103A7000E220DA6EFB0E6F008CFF42F0FC0E6F004E
:103A80008CFF43F0010E4224E96E000E4320EA6EE3
:103A90006F007FFFEFFFE150FD0FD96EE250DA6E4D
:103AA000FF0EDA226F0078FF01FB6F0074FF02FB4C
:103AB00082D0D3ECB8F03F0E3864FBD7F80E6F001D
:103AC0008CFF38F0FF0E6000E3F0E3FFFF0EE350E1
:103AD000D8B481D0F70EE350D8B415D0FF0EE35020
:103AE000426E436AFB0EE3504226FC0EE350432233
:103AF000FF0E4224D96EFF0E4320DA6EDF50E66ED1
:103B000080ECB5F014D0FF0EE350426E436AFB0E1A
:103B1000E3504226FC0EE3504322FF0E4224D96EAE
:103B2000FF0E4320DA6EDF50E66EF9ECB3F0FF0EC5
:103B3000E306CCD7D7ECB8F03F0E3864FBD7F80ECD
:103B40006F008CFF38F0FF0E6000E3F0E3FFFF0E24
:103B5000E350D8B440D0F70EE350D8B415D0FF0EE0
:103B6000E350426E436AFB0EE3504226FC0EE350E4
:103B70004322FF0E4224D96EFF0E4320DA6EDF503F
:103B8000E66E94ECB5F014D0FF0EE350426E436A3B
:103B9000FB0EE3504226FC0EE3504322FF0E42246C
:103BA000D96EFF0E4320DA6EDF50E66EB9ECB3F04B
:103BB000FF0EE306CCD7F60EE350426E436A435045
:103BC000000AD8A4B7D74250010AD8B4B3D7030A21
:103BD000D8B46FD7AFD7F60EE126FF0EE22212005F
:103BE00000000000000000000000000000000000D5
:103BF00000000000000000000000000000000000C5
:103C000000000000000000000000000000000000B4
:103C100000000000000000000000000000000000A4
:103C20000000000000000000000000000000000094
:103C30000000000000000000000000000000000084
:103C40000000000000000000000000000000000074
:103C50000000000000000000000000000000000064
:103C60000000000000000000000000000000000054
:103C70000000000000000000000000000000000044
:103C80000000000000000000000000000000000034
:103C90000000000000000000000000000000000024
:103CA0000000000000000000000000000000000014
:103CB0000000000000000000000000000000000004
:103CC00000000000000000000000000000000000F4
:103CD00000000000000000000000000000000000E4
:103CE00000000000000000000000000000000000D4
:103CF00000000000000000000000000000000000C4
:103D000000000000000000000000000000000000B3
:103D100000000000000A0A1400000000000000007B
:103D20000000000000000000000000000000000093
:103D30000000000000000000000000000000000083
:103D40000000000000000000000000000000000073
:103D50000000000000000000000000010001002D34
:103D600019205719000000000000000000000000AA
:103D70000000000000000000000000000000000043
:103D80000000000000000000000000000000000033
:103D90000000000000000000000000000000000023
:103DA0000000000000000000000000000000000013
:103DB0000000000000000000000000000000000003
:103DC00000000000000000000000000000000000F3
:103DD00000000000000000000000000000000000E3
:103DE00000000000000000000000000000000000D3
:103DF00000000000000000000000000000000000C3
:103E000000000000000000000000000000000000B2
:103E100000000000000000000000000000000000A2
:103E20000000000000000000000000000000000092
:103E30000000000000000000000000000000000082
:103E40000000000000000000000000000000000072
:103E5000000000000000010000000180038AEF80E4
:013E6000FE63
:103E62000A0EE126000EE222FE0EE36AED0EE3AE3A
:103E720028D0E60EE36CE70EE31EE80EE31EE90E21
:103E8200E31EEA0EE31EEB0EE31EEC0EE31EED0E46
:103E9200E31E14E3E70EE32A11E3E80EE32A0EE33E
:103EA200E90EE32A0BE3EA0EE32A08E3EB0EE32A28
:103EB20005E3EC0EE32A02E3ED0EE32AFE0EE36ACB
:103EC200E32AF50EE3AE27D0EE0EE36CEF0EE31E0F
:103ED200F00EE31EF10EE31EF20EE31EF30EE31EDE
:103EE200F40EE31EF50EE31E14E3EF0EE32A11E3D4
:103EF200F00EE32A0EE3F10EE32A0BE3F20EE32ABD
:103F020008E3F30EE32A05E3F40EE32A02E3F50ED7
:103F1200E32AFE0EE370070E386EF60EE36AE82A15
:103F22003806FCE2E60EE35016E1E70EE35013E139
:103F3200E80EE35010E1E90EE3500DE1EA0EE35022
:103F42000AE1EB0EE35007E1EC0EE35004E1ED0E63
:103F5200E350D8B488D0FF0EE36A12D0D890E60EB0
:103F6200E336E70EE336E80EE336E90EE336EA0E11
:103F7200E336EB0EE336EC0EE336ED0EE336FF0EE0
:103F8200E32AED0EE3AEEAD7D890F60EE336F70E4B
:103F9200E336F80EE336F90EE336FA0EE336FB0E9D
:103FA200E336FC0EE336FD0EE336E150EE0FD96E3A
:103FB200E250DA6EFF0EDA22E60EE350DE5CE70E26
:103FC200E350DE58E80EE350DE58E90EE350DE58C7
:103FD200EA0EE350DE58EB0EE350DE58EC0EE350EF
:103FE200DE58ED0EE350DE58D8A021D0E150EE0F9E
:103FF200D96EE250DA6EFF0EDA22E60EE350DE5E92
:10400200E70EE350DE5AE80EE350DE5AE90EE350C3
:10401200DE5AEA0EE350DE5AEB0EE350DE5AEC0EA5
:10402200E350DE5AED0EE350DE5AF60EE380D890EE
:10403200ED0EE332EC0EE332EB0EE332EA0EE33244
:10404200E90EE332E80EE332E70EE332E60EE33244
:10405200FF0EE350386E010E385EFF0E6000E3F093
:10406200E3FFD8A491D7FE0EE350D8B425D0F60EC4
:10407200E36CF70EE31EF80EE31EF90EE31EFA0ED2
:10408200E31EFB0EE31EFC0EE31EFD0EE31E14E315
:10409200F70EE32A11E3F80EE32A0EE3F90EE32A00
:1040A2000BE3FA0EE32A08E3FB0EE32A05E3FC0E18
:1040B200E32A02E3FD0EE32AF60EE124D96EFF0E97
:1040C200E220DA6E080E386EEE0E6F007BFFE3FF21
:1040D200E828382EFAD7F60EE126FF0EE222120069
:1040E200000E6F00A0FFFBFAF6D09D0EF66EFC0EDE
:1040F200F76E000EF86E21EE00F3230E09006F003A
:10410200D7FFDEFFE806FAE29D0EF66EFC0EF76EB2
:10411200000EF86E21EE2DF3230E09006F00D7FF7B
:10412200DEFFE806FAE29D0EF66EFC0EF76E000E5A
:10413200F86E21EE5AF3230E09006F00D7FFDEFF5F
:10414200E806FAE2790EF66EFC0EF76E000EF86ED5
:1041520021EE87F3230E09006F00D7FFDEFFE8068A
:10416200FAE2790EF66EFC0EF76E000EF86E21EE94
:10417200B4F3230E09006F00D7FFDEFFE806FAE270
:10418200790EF66EFC0EF76E000EF86E21EEE1F37C
:10419200230E09006F00D7FFDEFFE806FAE2010EE8
:1041A2006F00A0FF02F7020E6F00A0FF2FF7030EB1
:1041B2006F00A0FF5CF7010E6F00A0FF89F7020EEF
:1041C2006F00A0FFB6F7030E6F00A0FFE3F7100E1B
:1041D2006F00A0FF2BF7270E6F00A0FF2CF7100E29
:1041E2006F00A0FF58F7270E6F00A0FF59F7100EBF
:1041F2006F00A0FF85F7270E6F00A0FF86F7100E55
:104202006F00A0FFB2F7270E6F00A0FFB3F7100EEA
:104212006F00A0FFDFF7270E6F00A0FFE0F7100E80
:104222006F00A0FF0CF8270E6F00A0FF0DF8000E24
:104232006F00A0FF24F7070E6F00A0FF25F7240EE2
:104242006F00A0FF26F72D0E6F00A0FF51F7070E9B
:104252006F00A0FF52F7240E6F00A0FF53F75A0E13
:104262006F00A0FF7EF7070E6F00A0FF7FF7240EFE
:104272006F00A0FF80F7870E6F00A0FFABF7070E5D
:104282006F00A0FFACF7240E6F00A0FFADF7B40ED5
:104292006F00A0FFD8F7070E6F00A0FFD9F7240E1A
:1042A2006F00A0FFDAF7E10E6F00A0FF05F8070E1E
:1042B2006F00A0FF06F8240E6F00A0FF07F822EEA1
:1042C20011F3DF50F80B0609DF6E12D022EE11F364
:1042D200F80EDF1628D0FF0EE350426E436A4350B9
:1042E200000AD8A4F3D74250010AD8B4FED6EED7BA
:1042F20022EE11F3DF50070B2D0DFE0EF324D96EC3
:10430200060EF420DA6E6F0078FF42F06F0074FF41
:1043120043F060000BF1E6FF60000FF1E6FF060ECE
:10432200E66E72ECB4F0E5521200E652E652FE0E70
:10433200E36AFD0EE3AE28D0F60EE36CF70EE31E41
:10434200F80EE31EF90EE31EFA0EE31EFB0EE31E49
:10435200FC0EE31EFD0EE31E14E3F70EE32A11E347
:10436200F80EE32A0EE3F90EE32A0BE3FA0EE32A30
:1043720008E3FB0EE32A05E3FC0EE32A02E3FD0E4B
:10438200E32AFE0EE36AE32AF50EE3AE25D0EE0E33
:10439200E36CEF0EE31EF00EE31EF10EE31EF20ECF
:1043A200E31EF30EE31EF40EE31EF50EE31E14E30A
:1043B200EF0EE32A11E3F00EE32A0EE3F10EE32AF5
:1043C2000BE3F20EE32A08E3F30EE32A05E3F40E0D
:1043D200E32A02E3F50EE32AEE0EE35016E1EF0EB6
:1043E200E35013E1F00EE35010E1F10EE3500DE162
:1043F200F20EE3500AE1F30EE35007E1F40EE3504C
:1044020004E1F50EE350D8B475D0FF0EE36A12D082
:10441200D890EE0EE336EF0EE336F00EE336F10EF1
:10442200E336F20EE336F30EE336F40EE336F50E20
:10443200E336FF0EE32AF50EE3AEEAD7E150F60FBC
:10444200D96EE250DA6EFF0EDA22EE0EE350DE5C37
:10445200EF0EE350DE58F00EE350DE58F10EE3505B
:10446200DE58F20EE350DE58F30EE350DE58F40E3F
:10447200E350DE58F50EE350DE58D8A01FD0E150CD
:10448200F60FD96EE250DA6EFF0EDA22EE0EE3502C
:10449200DE5EEF0EE350DE5AF00EE350DE5AF10E0E
:1044A200E350DE5AF20EE350DE5AF30EE350DE5AC8
:1044B200F40EE350DE5AF50EE350DE5AD890F50EB4
:1044C200E332F40EE332F30EE332F20EE332F10E94
:1044D200E332F00EE332EF0EE332EE0EE332FF0E82
:1044E200E350386E010E385EFF0E6000E3F0E3FF2A
:1044F200D8A4A4D7FE0EE350D8B425D0F60EE36CB0
:10450200F70EE31EF80EE31EF90EE31EFA0EE31E8B
:10451200FB0EE31EFC0EE31EFD0EE31E14E3F70E7C
:10452200E32A11E3F80EE32A0EE3F90EE32A0BE382
:10453200FA0EE32A08E3FB0EE32A05E3FC0EE32A64
:1045420002E3FD0EE32AF60EE124D96EFF0EE2200D
:10455200DA6E080E386EF60E6F007BFFE3FFE82876
:10456200382EFAD7E552E5521200BD0EE66EFE0E67
:10457200E66EAB0EE66E0A0EE66E040EE66E03EC17
:10458200AAF018CB35FB16CB32FB19CB33FB1ACB77
:1045920034FB22EE35F3DF50D8A403D00C0E386E74
:1045A20012006200CFFCE8FF4D0AD8B406D06200C8
:1045B200CFFCE8FF6D0AD8A403D0000E386E1200BB
:1045C2006200CFFCE8FF430AD8B406D06200CFFCF9
:1045D200E8FF630AD8A41ED01AECB0F008D0310E5E
:1045E200CE6F360E29D0310ECE6F300E25D022EE90
:1045F200C7F1DF50426E436A4350000AD8A407D085
:104602004250010AD8B4EBD7030AD8B4ECD7070E4C
:10461200386E12006200CFFCE8FF520AD8B406D00E
:104622006200CFFCE8FF720AD8A416D01AECB0F0F0
:1046320005D0310ECE6F370ECD6FE9D722EEC7F11E
:10464200DF50426E436A4350000AD8A4E0D742507A
:10465200010AD8B4EED7D8D76200CFFCE8FF500ADF
:10466200D8B406D06200CFFCE8FF700AD8A41FD0ED
:104672001AECB0F009D0310ECE6F380E03D0310EE5
:10468200CE6F300ECD6F10D022EEC7F1DF50426EEA
:10469200436A4350000AD8A407D04250010AD8B452
:1046A200EAD7030AD8B4EBD7090E386E12006200BB
:1046B200CFFCE8FF4F0AD8B406D06200CFFCE8FF77
:1046C2006F0AD8A41FD01AECB0F009D0310ECE6F09
:1046D200320E03D0310ECE6F300ECD6F10D022EEDF
:1046E200C7F1DF50426E436A4350000AD8A407D094
:1046F2004250010AD8B4EAD7030AD8B4EBD7080E5D
:10470200386E12006200CFFCE8FF4C0AD8B406D023
:104712006200CFFCE8FF6C0AD8A40FD06D0EE66EE3
:10472200FD0EE66EAB0EE66E0A0EE66E040EE66E49
:1047320003ECAAF0060E386E12006200CFFCE8FF0E
:10474200530AD8B406D06200CFFCE8FF730AD8A49B
:1047520010D022EEC7F1DF50426E436A4350000A86
:10476200D8A404D04250010AD8A4030A0B0E386E12
:1047720012006200CFFCE8FF440AD8B406D06200FF
:10478200CFFCE8FF640AD8A418D7530EE66EFD0EDC
:10479200E66EAB0EE66E0A0EE66E040EE66E03ECF5
:1047A200AAF0050E386E1200E652E652E652E652C2
:1047B200FA0E6F008CFF42F0FB0E6F008CFF43F08D
:1047C200FF0E60000FF1E3FFFE0E60000BF1E3FF4E
:1047D200F80E6F008CFF42F0F90E6F008CFF43F071
:1047E200FD0E60000FF1E3FFFC0E60000BF1E3FF32
:1047F200F60E6F008CFF38F0010E385EF60E600088
:10480200E3F0E3FFF70E6F008CFF38F0000E385A2A
:10481200F70E6000E3F0E3FFF60EE3283FE1F70E48
:10482200E328D8A43BD0000E386E000E396EB5D006
:10483200FE0EE350010F386EFE0E6000E3F0E3FF60
:10484200386AFF0EE3503820386EFF0E6000E3F046
:10485200E3FFFC0EE350010F386EFC0E6000E3F044
:10486200E3FF386AFD0EE3503820386EFD0E60001B
:10487200E3F0E3FFF60E6F008CFF38F0010E385EB6
:10488200F60E6000E3F0E3FFF70E6F008CFF38F0E6
:10489200000E385AF70E6000E3F0E3FFE150FE0F1E
:1048A200D96EE250DA6EFF0EDA226F007BFFF6FF5E
:1048B2006F0077FFF7FF000EF86E0800F550000951
:1048C200D8B444D0E150FC0FD96EE250DA6EFF0E3C
:1048D200DA226F007BFFF6FF6F0077FFF7FF000E13
:1048E200F86E0800F5500009D8B430D0F60E6F000B
:1048F2008CFF38F0F70EE3503810D8B427D0E150CF
:10490200FE0FD96EE250DA6EFF0EDA226F007BFFE5
:10491200F6FF6F0077FFF7FF000EF86E08006F00DA
:10492200D4FF43F0E150FC0FD96EE250DA6EFF0E75
:10493200DA226F007BFFF6FF6F0077FFF7FF000EB2
:10494200F86E0800F5504318D8B472D7E150FE0F44
:10495200D96EE250DA6EFF0EDA226F007BFFF6FFAD
:104962006F0077FFF7FF000EF86E0800F550386E03
:10497200396AE150FC0FD96EE250DA6EFF0EDA228C
:104982006F007BFFF6FF6F0077FFF7FF000EF86EF8
:104992000800F550385E000E395AF60EE126FF0E79
:1049A200E222120054ECB4F03850D8B4AFD0E3ECA9
:1049B200B8F0060E3818D8B4A9D022EE10F3DFBA38
:1049C200C8ECA7F0010EE66EACECB7F0E3ECB8F081
:1049D2003850E66E7DECB8F0060EE66E86ECB8F066
:1049E200BA0EE66EFF0EE66EE50EE66EFE0EE66EA1
:1049F200010EE66E000EE66E10ECB5F06000E3F01C
:104A0200E6FF6000E7F0E6FF060EE66E03ECAAF0B2
:104A120022EE11F3DF30E832E832030B400D000ED4
:104A2200426E060E436E200E4226000E4322F350C3
:104A32004226F450432260000BF1E6FF60000FF1C2
:104A4200E6FFD20EE66EFF0EE66E010EE66E010E78
:104A5200E66E10ECB5F06000E3F0E6FF6000E7F010
:104A6200E6FF060EE66E03ECAAF022EE11F3DF304B
:104A7200E832E832030B400D000E426E060E436E22
:104A8200F3504226F450432260000BF1E6FF60002F
:104A92000FF1E6FFD20EE66EFF0EE66E010EE66E37
:104AA200020EE66E10ECB5F06000E3F0E6FF600087
:104AB200E7F0E6FF060EE66E03ECAAF022EE11F333
:104AC200DF30436E43324330030B436E432A433697
:104AD20043364336DF504318E70B4318DF6EB80EF8
:104AE200E66E0B0EE66E090EE66E72ECB4F0B80ED0
:104AF200E66E0B0EE66E070EE66E72ECB4F09FECFD
:104B0200B8F0010EE66E7BECA9F01200090EE66E1B
:104B120023ECB7F03850D8B41200000EE66EACECBD
:104B2200B7F022EE10F3DF9CE7ECB8F03850E66EF7
:104B320086ECB8F022EE09F36F0078FF42F06F00C6
:104B420074FF43F060000BF1E6FF60000FF1E6FF37
:104B520046ECB8F01200E00EF66E3B0EF76E010E58
:104B6200F86E02EEC4F120EE81F209006F00D7FF69
:104B7200EEFFDD50D950F9E1DA50F7E1160EF66E8C
:104B8200560EF76E010EF86E01EE00F220EE00F105
:104B920009006F00D7FFEEFFDD50D950F9E1DA507E
:104BA200F7E11C0EF66E610EF76E010EF86E00EE66
:104BB20000F320EE70F009006F00D7FFEEFFDD502A
:104BC200D950F9E1B20EF66E6F0EF76E010EF86E65
:104BD20000EEC3F220EE1DF009006F00D7FFEEFFDA
:104BE200DD50D950F9E1D80EF66E590EF76E010E6E
:104BF200F86E00EE00F120EEDEF009006F00D7FF44
:104C0200EEFFDD50D950F9E1D40EF66E6A0EF76E62
:104C1200010EF86E00EEB3F020EE2BF009006F00EB
:104C2200D7FFEEFFDD50D950F9E1EA0EF66E710EB4
:104C3200F76E010EF86E00EE58F020EE05F0090056
:104C42006F00D7FFEEFFDD50D950F9E101EE00F31E
:104C520020EEC4F2EE6ADD50D950FCE1DA50FAE1FE
:104C620001EE00F120EEFFF0EE6ADD50D950FCE1DA
:104C7200DA50FAE101EE00F020EEFFF0EE6ADD50CC
:104C8200D950FCE1DA50FAE100EE70F3430EEE6A1D
:104C9200E806FDE100EE00F2C30EEE6AE806FDE171
:104CA20000EEDEF1200EEE6AE806FDE100EE60F0B5
:104CB200530EEE6AE806FDE100EE01F0370EEE6AF1
:104CC200E806FDE1080ED56E000ED66E000ED76E18
:104CD200000100EF80F093D0040E1F18D8B40FD05B
:104CE200060EE66E23ECB7F03850D8B408D0300E7A
:104CF200E66E750EE66E060EE66E72ECB4F0040E0B
:104D02001F6E000E78D0010E11D01E6AF8D722EE67
:104D120017F3DF50426E436A4350000AD8A4F5D716
:104D22004250490AD8B4EFD7F0D7020E1E6EE7D729
:104D320022EE17F3DF50426E436A4350000AD8A4B2
:104D4200E4D74250320AD8B4F0D7070AD8B4EDD724
:104D5200DCD722EE16F3DF50426E436A4350000A5C
:104D6200D8A4D3D74250450AD8B4E2D7130AD8B44C
:104D7200CED7CBD7010E1F6E0F0E3DD0020EC0D77D
:104D8200030EBED71F50D8B4F5D74CD0FE0EE35059
:104D9200426E436A4350000AD8A4F4D74250020A32
:104DA200D8B49AD70F0AD8B4D4D7030AD8B4E2D762
:104DB2001E0AD8B4E3D7020AD8B4E2D7E3D7FE0E6C
:104DC2006F008CFF43F060000CF1FDFA2BD0FE0E59
:104DD2006F008CFF43F060000CF1FDFA62000FFDE2
:104DE200E8FF2D0AD8A4C8D71DD01F50D8A41AD0C6
:104DF200010E1F6E2D0E6F00A0FF43FB13D0FF0E9E
:104E0200E350426E436A4350000AD8A4EED74250A0
:104E1200010AD8B4BBD7040AD8B4D1D70C0AD8B483
:104E2200D6D7E3D722EEC7F160007BF0DFFF600048
:104E32007CF038F0E552E5521200E652E6520B0ED3
:104E4200386EFF0E6000E3F0E3FF440E386EFE0E94
:104E52006000E3F0E3FF22EEEBF2DE2A000EDE2238
:104E6200DE22DE227DD05A50D8B48CD05A6AFE0E91
:104E72006F008FFFE6FF6F008FFFE6FFF80E6F00F7
:104E82008FFFE6FF6F008FFFE6FFF80EE350E66E3E
:104E9200F80EE350E66E88ECAAF074D05950D8B4FC
:104EA20071D0596AE4D7FC0EE350426E436A435014
:104EB200000AD8A467D04250010AD8B4D4D70C0A49
:104EC200D8B4ECD75FD0FE0E6F008FFFE6FF6F0005
:104ED2008FFFE6FFF80E6F008FFFE6FF6F008FFF78
:104EE200E6FFF80EE350E66EF80EE350E66E88EC4D
:104EF200AAF0FC0E6F008CFF38F02A0E3818D8A4E6
:104F020022D0000E6F00A0FFFCFA000E6F00A0FF7F
:104F1200FBFA000E6F00A0FF37FB15D0FC0EE3502A
:104F2200426E436A4350000AD8A40DD04250290A67
:104F3200D8B4C9D7030AD8B4C6D705D05850D8B404
:104F420021D0586A94D7FC0EE350426E436A435014
:104F5200000AD8A417D042500B0AD8B4EFD712D007
:104F6200FD0EE350426E436A4350000AD8A40AD0B1
:104F72004250010AD8B497D7030AD8B4CFD7040A4B
:104F8200D8B4E1D7FA0EE126FF0EE2221200010E9A
:104F9200E66E000EE66E10ECB5F06000E3F0E6FFA0
:104FA2006000E7F0E6FF000EE66E000EE66E10EC23
:104FB200B5F06000E3F0E6FF6000E7F0E6FFAB0E5D
:104FC200E66EFF0EE66ECB0EE66E090EE66E080E7C
:104FD200E66E03ECAAF004ECB8F0CB0EE66E090E16
:104FE200E66E000EE66E000EE66EABECB4F0010E5D
:104FF200E66E010EE66E10ECB5F06000E3F0E6FF3F
:105002006000E7F0E6FF000EE66E010EE66E10ECC1
:10501200B5F06000E3F0E6FF6000E7F0E6FFAB0EFC
:10502200E66EFF0EE66ECB0EE66E090EE66E080E1B
:10503200E66E03ECAAF004ECB8F0CB0EE66E090EB5
:10504200E66E000EE66E010EE66EABECB4F0010EFB
:10505200E66E020EE66E10ECB5F06000E3F0E6FFDD
:105062006000E7F0E6FF000EE66E020EE66E10EC60
:10507200B5F06000E3F0E6FF6000E7F0E6FFAB0E9C
:10508200E66EFF0EE66ECB0EE66E090EE66E080EBB
:10509200E66E03ECAAF004ECB8F0CB0EE66E090E55
:1050A200E66E000EE66E020EE66EABECB4F0B80EE3
:1050B200E66E0B0EE66E90ECB4F01200FC0E6F0082
:1050C2008CFF38F0FD0EE3503810D8B409D0FC0E36
:1050D2006F008CFF38F0FD0EE3503810D8A406D0D4
:1050E200FE0EE350E66E1FECB8F075D0FC0E6F00BA
:1050F2008CFF42F0FD0E6F008CFF43F0040E422441
:10510200D96E000E4320DA6EDE50DE10D8B426D0FF
:10511200FC0E6F008CFF42F0FD0E6F008CFF43F01F
:10512200040E4224D96E000E4320DA6EFC0E6F008C
:105132008CFF42F0FD0E6F008CFF43F0020E422402
:10514200E96E000E4320EA6EDE50EE5CEE50800AFD
:10515200386EDE50800A3858D8B03DD0FC0E6F0051
:105162008CFF42F0FD0E6F008CFF43F0020E4224D2
:10517200D96E000E4320DA6E6F0078FF42F06F00A6
:1051820074FF43F0FC0E6F008FFFD9FFFD0E6F001E
:105192008FFFDAFF6F0078FF40F06F0074FF41F07D
:1051A20042504024D96E43504120DA6EFE0E6F0009
:1051B2008FFFDFFFFC0E6F008CFF42F0FD0E6F00D1
:1051C2008CFF43F0020E4224D96E000E4320DA6EA9
:1051D200DE2A000EDD22E552E552E552E5521200CA
:1051E200E652E652E652E65214A010D0FA0E6F00D2
:1051F2008FFFE6FF6F008FFFE6FFF60E6F008FFF57
:10520200E6FF6F008FFFE6FFFFECAEF0F70EE3BEA6
:1052120011D0F60E6F008CFF38F0FC0E6000E3F048
:10522200E3FFF70E6F008CFF38F0FD0E6000E3F035
:10523200E3FF04D0FC0EE36AFD0EE36AFE0EE36AAE
:10524200FF0EE36A1ED0FA0E6F008FFFE6FF6F00BB
:105252008FFFE6FF200EE66E000EE66E5FECA8F012
:10526200FE0EE350010F386EFE0E6000E3F0E3FF26
:10527200386AFF0EE3503820386EFF0E6000E3F00C
:10528200E3FFE150FE0FD96EE250DA6EFF0EDA2232
:10529200FC0EE350DE5CDE50800A386EFD0EE350F9
:1052A200800A3858D8A0CFD714B010D0FA0E6F00A9
:1052B2008FFFE6FF6F008FFFE6FFF60E6F008FFF96
:1052C200E6FF6F008FFFE6FFFFECAEF0F80E6F0017
:1052D2008FFFE6FF6F008FFFE6FFAEECAEF0FC0E35
:1052E200E3503826FD0EE3503922F60EE126FF0E7A
:1052F200E2221200FF0E6F008CFF38F0010E38160A
:10530200FF0E6000E3F0E3FF22EEC2F1DFA004D063
:10531200FF0EE350D8B474D0FF0EE350800DD20ECE
:10532200F324D96E080EF420DA6E000EDF6EFF0E43
:10533200E350800DF20EF324D96E080EF420DA6EDB
:10534200000EDF6EFF0EE350800D120EF324D96EB5
:10535200090EF420DA6E000EDF6E04ECB8F0FF0ED8
:10536200E350800DC20E426E080E436EF350422689
:10537200F450432260000BF1E6FF60000FF1E6FFFC
:10538200000EE66E000EE66EABECB4F004ECB8F084
:10539200FF0EE350800DC20E426E080E436E200EC9
:1053A2004226000E4322F3504226F450432260006C
:1053B2000BF1E6FF60000FF1E6FF000EE66E010E54
:1053C200E66EABECB4F004ECB8F0FF0EE350800DE7
:1053D200C20E426E080E436E400E4226000E43225B
:1053E200F3504226F450432260000BF1E6FF6000C6
:1053F2000FF1E6FF000EE66E020EE66EABECB4F0C5
:10540200E5521200080EE126000EE222FE0E426E66
:10541200FF0E436EF50EE124406EFF0EE220416E58
:105422004250402643504122FF0E600007F1E3FF45
:10543200FE0E600003F1E3FFF50E6F008CFF42F0F9
:10544200F60E6F008CFF43F0F90E60000FF1E3FFE0
:10545200F80E60000BF1E3FFFA0EE124D96EFF0EA5
:10546200E220DA6E000EDE6E000EDD6EFC0EE1242E
:10547200D96EFF0EE220DA6E000EDE6E000EDD6ED9
:10548200FE0EE124386EFF0EE220396E6000E3F07A
:10549200E6FF6000E7F0E6FFF10E6F008FFFE6FF28
:1054A2006F008FFFE6FFF40EE124386EFF0EE2205C
:1054B200396E6000E3F0E6FF6000E7F0E6FF5BECC8
:1054C200ADF0FA0EE124D96EFF0EE220DA6E6F0023
:1054D20078FF42F06F0074FF43F0F50E6F008CFF0F
:1054E20040F0F60E6F008CFF41F042504024D96E1E
:1054F20043504120DA6E000EDF6EF80EE126FF0EF9
:10550200E222E552E750E15E000EE25A1200E65254
:10551200E652FE0EE36AFF0EE36AF80E6F008CFF9E
:1055220042F0F90E6F008CFF43F0FE0EE350425E34
:10553200FF0EE350435A000E4224D96E010E43205F
:10554200DA6EDF50E66E0B013651030B436E426A90
:10555200FD0EE3504226FE0EE350432260000BF1A3
:10556200E6FF60000FF1E6FFFBECB0F0FE0EE35049
:10557200010F386EFE0E6000E3F0E3FF386AFF0EA3
:10558200E3503820386EFF0E6000E3F0E3FFFF0EB9
:10559200E304D8A0C2D7FC0EE350E66E000EE66E1E
:1055A200FB0EE350E66E000EE66E0B0EE66EFF0E8D
:1055B200E66EAB0EE66E0A0EE66E080EE66E03ECC3
:1055C200AAF0FA0E6F008FFFE6FF6F008FFFE6FF73
:1055D200070EE66E72ECB4F0020E6F00A0FF37FB0E
:1055E20022EE3DF3DE2A000EDD226200DBFCE8FF44
:1055F200010F6F00A0FF36FB22EE36F3020EDF64CE
:1056020004D0000E6F00A0FF36FBF80EE126FF0E5D
:10561200E2221200636F6D6D616E647320310000CF
:105622000000000000000000000000000000000078
:1056320000000000646973706C61797320310000AE
:105642000000000000000000000000000000000058
:1056520000000000636F6D6D616E647320320000A4
:105662000000000000000000000000000000000038
:1056720000000000646973706C617973203200006D
:105682000000000000000000000000000000000018
