:020000040000FA
:0400000057EF00F0C6
:10000800940A940A940A940A940A940A940A940AF8
:100018006B0A940AD7085B05940A940A940A940A0E
:100028006F0A780A7E0A7B0A940A940A940A940A48
:10003800940A940A940A7009940A940A940A940AED
:10004800940A940A940A940A2B00940A940A940A2B
:10005800EC07940A940A940A940A940A940A940A53
:10006800940A940A84097A09940A940AA87A940A40
:10007800940A940A2B00940A940A940A2B002B00E1
:100088002B002B002B002B002B002B00E576940A6D
:10009800120A940A940A940A2B002B002B002B00B6
:1000A800940A940AFF0013EEC1F0D4EFFDF0E65273
:1000B800E652E652E652FA0E6F008CFF34F0FB0E61
:1000C8006F008CFF35F0D89034363536D8903436FA
:1000D80035367B0E3424F66EF80E3520F76EF86A46
:1000E800000EF82209006F00D4FF32F009006F00FB
:1000F800D4FF33F009006F00D4FF34F009006F001B
:10010800D4FF35F0FC0E6000CBF0E3FFFD0E60007D
:10011800CFF0E3FFFE0E6000D3F0E3FFFF0E6000B8
:10012800D7F0E3FFF80E6F008CFF2AF0F90EE350CA
:100138002A10D8B41DD0FB0EE3BE1AD0FB0EE35034
:1001480008E1FA0E6F008CFF2AF0020E2A5ED8A092
:100158000FD0E150FC0FD96EE250DA6EFF0EDA22B2
:10016800800EDE26510EDE22010EDE22000EDE2279
:10017800FC0E6F008CFF2AF0FD0E6F008CFF2BF039
:10018800FE0E6F008CFF2CF0FF0E6F008CFF2DF021
:10019800F80EE126FF0EE2221200430E0001666F00
:1001A800050E676F000E646F050E656F60009BF1AA
:1001B800E6FF60009FF1E6FFEFEC11F0600093F1BD
:1001C800E6FF600097F1E6FFEFEC11F0BE843D0119
:1001D800149F200E156F030E166F040E196F020E72
:1001E8001C6F830E146F148F300EE66E570EE66E7A
:1001F800050EE66E000EE66ED7EC0CF0460EE66EC7
:1002080038EC0FF0410EE66E58EC0FF0500EE66E2B
:10021800000EE66E000EE66E000EE66ED7EC0CF0F1
:10022800530EE66E58EC0FF0020EE66E1CEC13F05F
:10023800500EE66E000EE66E000EE66E000EE66EDE
:10024800D7EC0CF0510EE66E38EC0FF03D01149F20
:10025800020E166F148F1A933F0E3B01FD17FD9B7C
:10026800FD51F90B0209FD6FE70EFD17FD81430EE5
:10027800F96F050EFA6F000EFB6FFC9B3D011A83A8
:10028800BE941200E652E652E652E652FC0EE36ACB
:10029800FD0EE36AFE0EE36AFF0EE36AF80EE3A0C2
:1002A80028D0FC0EE3502A6EF40EE3502A26FC0EEA
:1002B8006000ABF0E3FFFD0EE3502A6EF50EE3504D
:1002C8002A22FD0E6000ABF0E3FFFE0EE3502A6E1B
:1002D800F60EE3502A22FE0E6000ABF0E3FFFF0E9D
:1002E800E3502A6EF70EE3502A22FF0E6000ABF0AF
:1002F800E3FFD890F40EE336F50EE336F60EE33658
:10030800F70EE336D890FB0EE332FA0EE332F90E1D
:10031800E332F80EE332F80EE350C0E1F90EE35091
:10032800BDE1FA0EE350BAE1FB0EE350D8A4B6D70C
:10033800FC0E6F008CFF2AF0FD0E6F008CFF2BF077
:10034800FE0E6F008CFF2CF0FF0E6F008CFF2DF05F
:10035800F40EE126FF0EE2221200E652E652E652C1
:10036800E652F80E6F008CFF34F0F90E6F008CFF28
:1003780035F0FF0E6000D7F0E3FFFE0E6000D3F00B
:10038800E3FFFA0E6F008CFF34F0FB0E6F008CFF5A
:1003980035F0FD0E6000D7F0E3FFFC0E6000D3F0EF
:1003A800E3FFE150FE0FD96EE250DA6EFF0EDA225B
:1003B8006F007CFF34F0010EDE266F007CFF35F005
:1003C800000EDD226000D3F0F6FF6000D7F0F7FFE3
:1003D800000EF86EE150FC0FD96EE250DA6EFF0E97
:1003E800DA226F007CFF34F0010EDE266F007CFFFE
:1003F80035F0000EDD226000D3F0D9FF6000D7F0A1
:10040800DAFF1F0EF76403D00800F55007D06F001D
:10041800DBFFE9FF6F00DFFFEAFFEF50DF6EDF5021
:10042800D8A4BFD7F80EE126FF0EE2221200E6524A
:10043800E652E652E652010E346E000E356EFC0EA0
:100448006000D3F0E3FFFD0E6000D7F0E3FF60002B
:100458008CF335F0FF0E3526E150FC0FD96EE250D3
:10046800DA6EFF0EDA22352803D0D890DE36DD3674
:10047800E82EFBD7FE0EE36AFF0EE36A29D0FA0ED8
:10048800E3A01CD0FC0E6F008CFF34F0FD0E6F0053
:100498008CFF35F0FE0E6F008CFF2AF034502A12C4
:1004A800FE0E6000ABF0E3FFFF0E6F008CFF2AF03A
:1004B80035502A12FF0E6000ABF0E3FFD890FD0E16
:1004C800E332FC0EE332D890FB0EE332FA0EE3324D
:1004D800FA0E6F008CFF2AF0FB0EE3502A10D8A406
:1004E800CED7FE0E6F008CFF2AF0FF0E6F008CFF38
:1004F8002BF0FA0EE126FF0EE2221200E150FC0F6B
:10050800D96EE250DA6EFF0EDA22000EDE14326E79
:10051800000EDE14336E800EDE14346E7F0EDE1491
:10052800356E3250331034103510D8A408D0FC0E74
:10053800E36AFD0EE36AFE0EE36AFF0EE36AE1502A
:10054800F80FD96EE250DA6EFF0EDA22000EDE14D2
:10055800326E000EDE14336E800EDE14346E7F0EA3
:10056800DE14356E3250331034103510D8A408D04C
:10057800F80EE36AF90EE36AFA0EE36AFB0EE36A21
:10058800E150FC0FD96EE250DA6EFF0EDA22F80E57
:10059800E350DE180DE1F90EE350DE1809E1FA0E1A
:1005A800E350DE1805E1FB0EE350DE18D8B402D0A4
:1005B8002A9001D02A80F80EE126FF0EE2221200CE
:1005C800286E756C6C290000000000000000000017
:1005D8000000000000000000000000000000000013
:1005E8000000000000000000000000000000000003
:1005F80000000000000000000000000000000000F3
:1006080000000000000000000000000000000000E2
:1006180000000000000000000000000000000000D2
:1006280000000000000000000000000000000000C2
:1006380000000000000000000000000000000000B2
:1006480000000000000000009E874C5E00000000D3
:100658000000000000000000000000000000000092
:1006680000000000000000000000000000002D0055
:10067800000000000000000000000000E652E65202
:10068800E652FD0EE36AFE0EE36AFF0EE36AFF0E12
:10069800E350080DAB0EF324F66EF70EF420F76E58
:1006A800F86A000EF822F90EE3500900F55CFA0E1C
:1006B800E3500900F558FB0EE3500900F558FC0E0D
:1006C800E3500900F558D8B020D0FF0EE350080DCC
:1006D800040EF326000EF422AB0EF324F66EF70E8A
:1006E800F420F76EF86A000EF82209006F00D4FFB4
:1006F80034F009006F00D4FF35F0FD0E6000D3F030
:10070800E3FFFE0E6000D7F0E3FFFF0EE32AFF0EC3
:100718006F008CFF2AF0190E2A64B9D7FD0E6F00FE
:100728008CFF2AF0FE0E6F008CFF2BF0F90EE126ED
:10073800FF0EE2221200E652FF0EE36A0201B051F8
:10074800D8B41BD0010EE66EFE0EE350E66E010E25
:10075800E66EFC0EE350E66E76ECC3F06000ABF09C
:10076800E6FF6000AFF0E6FF6000B3F0E6FF600070
:10077800B7F0E6FFECECECF01AD0000EE66EFE0ED9
:10078800E350E66E000EE66EFC0EE350E66E76EC85
:10079800C3F06000ABF0E6FF6000AFF0E6FF60007A
:1007A800B3F0E6FF6000B7F0E6FFECECECF0FF0E0C
:1007B800E350040DFF0EF324D96E080EF420DA6E10
:1007C8006000ABF0DEFF6000AFF0DEFF6000B3F06A
:1007D800DEFF6000B7F0DEFFFF0EE32AFF0E6F00BA
:1007E8008CFF2AF00F0E2A64A9D7E55212003D01AA
:1007F80017ABFDD7BC84BC80010EE66E9AEC09F0FD
:1008080020C124F120EE20F16F0078FF34F06F0052
:1008180074FF35F06000D4F034F0356A0F0E3416EA
:10082800010125513418F00B3418256F25510F0B91
:100838004009256FBF902551E66EDBEC13F00101EE
:100848002451E66EDBEC13F0BF8022C124F120EEC8
:1008580022F16F0078FF34F06F0074FF35F060000C
:10086800D4F034F0356A0F0E3416010125513418CE
:10087800F00B3418256F25510F0B5009256FBF90C9
:100888002551E66EDBEC13F001012451E66EDBEC3A
:1008980013F03D0117ABFDD7BF80000EE66E9AEC52
:1008A80009F01200E652E652E652E6526000E0F124
:1008B80032F06000E4F133F06000E8F134F06000F9
:1008C800ECF135F0FC0E6000CBF0E3FFFD0E6000AC
:1008D800CFF0E3FFFE0E6000D3F0E3FFFF0E6000F1
:1008E800D7F0E3FFF80E6F008CFF32F0F90E6F00BF
:1008F8008CFF33F0FA0E6F008CFF34F0FB0E6F00A4
:100908008CFF35F0FC0E6000CBF0E3FFFD0E6000BD
:10091800CFF0E3FFFE0E6000D3F0E3FFFF0E6000B0
:10092800D7F0E3FFFF0EE39EFC0E6F008CFF2AF06A
:10093800FD0E6F008CFF2BF0FE0E6F008CFF2CF06D
:10094800FF0E6F008CFF2DF0F80EE126FF0EE2225D
:100958001200E652E652FA0E6F008CFF34F0FB0EDE
:100968006F008CFF35F0FF0E6000D7F0E3FFFE0E3E
:100978006000D3F0E3FF0001BA6BBB6B21D0F80E27
:100988006F008FFFE6FF6F008FFFE6FFFC0EE1248C
:100998002A6EFF0EE2202B6E6000ABF0E6FF6000CF
:1009A800AFF0E6FFF80E6F008FFFE6FF6F008FFFD6
:1009B800E6FFC6EC9CF02A500001BA272B50BB2357
:1009C800E150FE0FD96EE250DA6EFF0EDA226F00A8
:1009D8007BFFF6FF6F0077FFF7FF000EF86E080049
:1009E800F5500009D8A4CBD76000E8F22AF06000DF
:1009F800ECF22BF0F80EE126FF0EE2221200FE0EBA
:100A08006F008CFF34F0FF0E6F008CFF35F0420E44
:100A18003424D96E000E3520DA6E400EDF6040D0E7
:100A2800FE0E6F008CFF34F0FF0E6F008CFF35F068
:100A3800400E3424D96E000E3520DA6EDF50356E44
:100A4800FE0E6F008CFF32F0FF0E6F008CFF33F04C
:100A580035503224D96E000E3320DA6EFD0E6F0049
:100A68008FFFDFFFFE0E6F008CFF34F0FF0E6F006C
:100A78008CFF35F0400E3424D96E000E3520DA6E26
:100A8800DF2AFE0E6F008CFF34F0FF0E6F008CFF24
:100A980035F0420E3424D96E000E3520DA6EDF2A86
:100AA800E552E552E55212001EEC15F0000EE66E16
:100AB80060009BF1E6FF60009FF1E6FF79EC07F02C
:100AC800BC94FE0E6F008FFFE6FF6F008FFFE6FFFE
:100AD800FDEC05F02B5004E1410E2A5CD8A010D0A3
:100AE800FE0E6F008CFF34F0FF0E6F008CFF35F0A8
:100AF800400E3424D96E000E3520DA6E000EDF6EFB
:100B08003B01FC9FFE0E6F008FFFE6FF6F008FFF1B
:100B1800E6FFFDEC05F06000ABF0F7FB6000AFF01E
:100B2800F8FB3B01FC8FFE0E6F008FFFE6FF6F00A6
:100B38008FFFE6FFFC0EE66EFF0EE66E040EE66E15
:100B4800E9EC0BF021EC15F0E552E552120000003B
:100B5800000000000000000000000000000000008D
:100B6800000000000000000000000000000000007D
:100B780000000000620FA40FA089B03DA4DE133D61
:100B8800000000000000000000000000000000005D
:100B9800000000000000000000000000000000004D
:100BA800000000000000000000000000000000003D
:100BB800000000000000000000000000000000002D
:100BC800000000000000000000000000000000001D
:100BD800000000000000000000000000000000000D
:100BE8000000000000005719420000010001000148
:100BF8000000E652E652FC0E6F008CFF34F0FD0E4A
:100C08006F008CFF35F0FF0E6000D7F0E3FFFE0E9B
:100C18006000D3F0E3FF11D0FC0EE350010F2A6E01
:100C2800FC0E6000ABF0E3FF2A6AFD0EE3502A20B9
:100C38002A6EFD0E6000ABF0E3FFFC0E6F008FFF25
:100C4800F6FFFD0E6F008FFFF7FF000EF86E1F0E08
:100C5800F76403D00800F55007D06F00DBFFE9FF09
:100C68006F00DFFFEAFFEF500009D8A4D5D7FC0ECC
:100C78006F008CFF2AF0FD0E6F008CFF2BF0FE0E2C
:100C8800E3502A5EFF0EE3502B5AE552E552E55237
:100C9800E5521200E652E652FF0EE36AE386FE0EC4
:100CA800E36AFD0E6F008CFF35F0FE0E6F008CFFBF
:100CB80034F0D89035343434356EFE0E6000D7F0F9
:100CC800E3FFE150FD0FD96EE250DA6EFF0EDA2233
:100CD800D890DF36E150FE0FD96EE250DA6EFF0E83
:100CE800DA22FC0EE350DE5CD8A00DD0FC0E6F00BB
:100CF8008CFF35F0E150FE0FD96EE250DA6EFF0E30
:100D0800DA223550DF5EFF0EE3502A6E010E2A5EAE
:100D1800FF0E6000ABF0E3FFD8A4C3D7FE0E6F0050
:100D28008CFF2AF0E552E552E552E5521200E652F0
:100D3800E652E652FD0EE36AFE0EE36A1FD0F90E94
:100D48006F008FFFE6FF6F008FFFE6FFFD0EE35099
:100D5800E66E000EE66E8EECFAF0FD0EE350010F23
:100D68002A6EFD0E6000ABF0E3FF2A6AFE0EE35028
:100D78002A202A6EFE0E6000ABF0E3FFFD0E6F0026
:100D88008CFF34F0FE0E6F008CFF35F0FB0E6F0009
:100D98008CFF32F0FC0E6F008CFF33F0345032249D
:100DA800D96E35503320DA6EDF50356EFF0E600095
:100DB800D7F0E3FFFF0EE350D8A4C1D7F90EE12620
:100DC800FF0EE2221200A00EE66E0F0EE66E640E13
:100DD800E66E000EE66EF90E6F008FFFE6FF6F00FD
:100DE8008FFFE6FF1CEC09F02A50D8A402D0000EB1
:100DF80019D0A00EE66E0F0EE66E640EE66E000EBB
:100E0800E66EF70E6F008FFFE6FF6F008FFFE6FFBD
:100E18001CEC09F02A50D8B4EAD7FF0EE350D8A446
:100E280003D0010E2A6E13D0FD0E6F008CFF26F141
:100E3800FE0E6F008CFF27F1FB0E6F008CFF28F170
:100E4800FC0E6F008CFF29F101019785EAD7FB0E94
:100E5800E126FF0EE2221200E65213D0FF0EE36AEB
:100E6800E38C25D0FF0EE36AE384E38820D0540E98
:100E7800356EFF0E6000D7F0E3FF19D0FF0EE36A6E
:100E880016D0FE0EE350346E356A3550000AD8A4E9
:100E9800E5D73450000AD8B4E1D7010AD8B4E2D76C
:100EA800030AD8B4E4D7010AD8B4E8D7D7D7450E8F
:100EB800E66EEAEC13F0FD0E6F008CFF35F0FF0EC6
:100EC800E3503524E66E8CEC0EF0C0EC14F0FB0E0B
:100ED8006F008FFFE6FF6F008FFFE6FF58EC05F00D
:100EE800FB0EE126FF0EE2221200FE0E6F008CFFC1
:100EF80034F0FF0E6F008CFF35F0420E3424D96EAB
:100F0800000E3520DA6E000EDF6EFE0E6F008CFFCD
:100F180034F0FF0E6F008CFF35F0400E3424D96E8C
:100F2800000E3520DA6E000EDF6EFE0E6F008CFFAD
:100F380034F0FF0E6F008CFF35F0410E3424D96E6B
:100F4800000E3520DA6E000EDF6EFD0EE350D8B4C9
:100F580011D0400EE66E000EE66E000EE66E000E34
:100F6800E66EFA0E6F008FFFE6FF6F008FFFE6FF59
:100F7800B9ECD8F0E552E552E5521200070EBE6E04
:100F8800BD6ABA6A230EBF6EBB6A070EBC6EC66A1C
:100F98000C0EC76EC268BF0EC36E900EC46E0C0EE8
:100FA800C56E3A01706B606B3C0E506F806B906B36
:100FB80040690C0E716F0C0E916F816B830E516F2F
:100FC800416B970E616F826B926B426B526B626BD7
:100FD800726B4369536963697369070E836F936919
:100FE8000F0EE86F130EDE6F160E0E6F1E0E136FC8
:100FF800080EC06F100E196F090EC16F1F0E156F06
:10100800130E166F170EE56F140EDF6F1200E652FF
:10101800E652E652E652800E3901686F070E696F94
:10102800626B636B7C6B786B776B766B3F0E7B6F59
:101038007A6979697D6BD50E346E000E356EFE0EB9
:101048006000D3F0E3FFFF0E6000D7F0E3FFFF0E70
:10105800E124D96EFF0EE220DA6EDF50676FD50EFD
:10106800666FFC0EE36AFD0EE36AFD0EE124D96E9D
:10107800FF0EE220DA6EDF50636F626B69390F0B87
:10108800356E35280001E26F390169510F0B356E55
:1010980035280001E36FE552E552E552E5521200AA
:1010A800E652E6524A504B10D8A409D0FE0E600012
:1010B8002BF1E3FFFF0E60002FF1E3FF16D0FF0EC8
:1010C800346EFF0E356E600028F132F060002CF1AE
:1010D80033F03450322635503322FE0E6000CBF008
:1010E800E3FFFF0E6000CFF0E3FFFB0E6F008CFF05
:1010F80054F30301556BFE0E6F008FFFE6FF6F0080
:101108008FFFE6FF540EE66E030EE66EF80E6F00D4
:101118008FFFE6FF6F008FFFE6FFC5ECFCF0FB0ECC
:10112800E126FF0EE2221200E652E652FC0EE350E0
:101138009F0F346EFD0E6F008CFF35F0FF0E3522C9
:10114800355006E11A0E345CD8B002D0010E01D039
:10115800000E346E356AFE0E6000D3F0E3FFFF0E1A
:101168006000D7F0E3FFFE0E6F008CFF2AF0FF0E41
:10117800E3502A10D8B40DD0FC0E6F008CFF2AF073
:10118800FD0E6F008CFF2BF05F0E2A16000E2B163B
:1011980008D0FC0E6F008CFF2AF0FD0E6F008CFF4C
:1011A8002BF0E552E552E552E5521200E652E652BE
:1011B800FC0EE350BF0F346EFD0E6F008CFF35F050
:1011C800FF0E3522355006E11A0E345CD8B002D035
:1011D800010E01D0000E346E356AFE0E6000D3F0A9
:1011E800E3FFFF0E6000D7F0E3FFFE0E6F008CFFF9
:1011F8002AF0FF0EE3502A10D8B40DD0FC0E6F0071
:101208008CFF2AF0FD0E6F008CFF2BF0200E2A12A7
:10121800000E2B1208D0FC0E6F008CFF2AF0FD0E7A
:101228006F008CFF2BF0E552E552E552E5521200B3
:10123800FA0E6F008CFF34F0FB0E6F008CFF35F058
:10124800FC0EE3503426FD0EE3503522FE0EE3502B
:10125800345C3550800A2A6EFF0EE350800A2A5803
:10126800D8B002D0000E1ED0FA0E6F008CFF34F0FA
:10127800FB0E6F008CFF35F0FC0EE350345EFD0E64
:10128800E350355AFE0E6F008CFF2AF034502A5C6A
:10129800FF0EE350800A2A6E3550800A2A58D8A0DB
:1012A800E1D7010E2A6EFA0EE126FF0EE2221200A5
:1012B800FD0E6F008CFF2AF0FE0EE3502A10D8A412
:1012C80002D0000E1AD0FF0EE350D8B418D0010196
:1012D80097A1F7D720EE36F1FD0E6F008FFFE9FFDB
:1012E800FE0E6F008FFFEAFF600E6F006FFFEBFFCF
:1012F800E806FBE297A3E5D7010E2A6E13D0FD0E90
:101308006F008FFFD9FFFE0E6F008FFFDAFF00EE30
:1013180036F1600E6F006FFFEBFFE806FBE201019C
:101328009781CFD7E552E552E5521200FF0EE35000
:10133800D8B422D03D01149F5250D8A411D0010E28
:10134800526E6F0050F4CBF06F0054F4CAF06F0087
:1013580058F4C9F06F0070F4C8F06F0064F4C7F077
:10136800156B158D159B159F030E166F0F0E196FB4
:101378001C6B830E146F14D05250D8B412D03D0198
:10138800149F60002BF315FD600027F316FD600025
:1013980023F31CFD60001FF319FD60002FF314FDFB
:1013A800148FE5521200FA0E6F008FFFE6FF6F00F0
:1013B8008FFFE6FF6F008FFFE6FF6F008FFFE6FFEE
:1013C800FA0E6F008FFFD9FFFB0E6F008FFFDAFF59
:1013D8006F007BFFE6FF6F007BFFE6FF6F007BFF80
:1013E800E6FF6F007BFFE6FFF2ECB6F0FE0E6F0043
:1013F8008FFFD9FFFF0E6F008FFFDAFF6000ABF0A1
:10140800DEFF6000AFF0DEFF6000B3F0DEFF6000DB
:10141800B7F0DEFFFA0EE126FF0EE2221200FE0E02
:101428006F008CFF34F0FF0E6F008CFF35F0040E58
:101438003424D96E000E3520DA6EDF50D8A423D0BC
:10144800FE0E6F008CFF34F0FF0E6F008CFF35F03E
:10145800050E3424D96E000E3520DA6EDF50D8A47C
:1014680012D0FE0E6F008CFF34F0FF0E6F008CFF61
:1014780035F0040E3424D96E000E3520DA6E010ED4
:10148800DF6E010E01D0000E2A6EE552E552120001
:10149800000E3B01F96F100EFA6F000EFB6F3D0E48
:1014A800F16F110EF06F030EFD6F000EF86F010E55
:1014B800F76F000EEF6F010EEE6F150EFF6FFE6BEC
:1014C8003901A293A291A297A295928392819287C1
:1014D8009285F16B010EF26F040EF36F020EF46F3A
:1014E800030EF76FD29E3901550EEF6FAA0EEF6FFC
:1014F800EF81D28E3B01FC6B12003E01DE6BDF6B8D
:10150800E06BE16BE46BE56BEA6B400EEC6FF16B43
:10151800200EF36FF46BF56BF66BF76BF96B5B0EE4
:10152800FA6F270EFB6FFC6B020EFD6FFE6B070E4A
:10153800FF6F840EF86F3901A19591855C0EE66EF8
:101548002A0EE66E000EE66ECBEC12F03901A1977A
:1015580091875C0EE66E2A0EE66E000EE66EB7EC1C
:1015680012F012006000A8F001F06000ACF002F088
:101578006000C8F003F06000CCF004F06000D4F024
:1015880005F014EE2CF33901A1970001A151A21125
:10159800A311D8B40CD001D80AD00500FA6EA15115
:1015A800FD6EA251FE6EA351FF6EFA50120060004C
:1015B80014F035F0600010F033F060000CF032F0F9
:1015C800600008F02BF0600004F02AF01100E652E9
:1015D800D2AE03D0356A352A01D0356AFF0E6000D5
:1015E800D7F0E3FFFE0EE124D96EFF0EE220DA6E9B
:1015F800DF50030B3901E16FFD0E6F008FFFE0F93B
:10160800FC0E6F008FFFE3F93F0EE517E585D29ECC
:10161800550EE66FAA0EE66FE583E5B3FED7E595AE
:10162800FF0EE3B002D0D29E01D0D28EE552E55231
:10163800E552E5521200FE0E6F008CFF34F0FF0EEB
:101648006F008CFF35F0030E3424D96E000E352060
:10165800DA6E000EDF6EFE0E6F008CFF34F0FF0EA8
:101668006F008CFF35F0050E3424D96E000E35203E
:10167800DA6E000EDF6EFE0E6F008CFF34F0FF0E88
:101688006F008CFF35F0070E3424D96E000E35201C
:10169800DA6E000EDF6EE552E5521200E652D28A8B
:1016A800D2AE03D0356A352A01D0356AFF0E600004
:1016B800D7F0E3FFD29E550ED46EAA0ED46ED49006
:1016C80038019F6B9E6B080E9D6F550ED46EAA0E47
:1016D800D46ED480FF0EE3B002D0D29E01D0D28E59
:1016E800390182878283828182858687868583877E
:1016F800818185918981889D81858187869DE55233
:101708001200FE0E6F008CFF2AF0020E2A180DE15F
:10171800FF0EE350D8A409D0FC0EE3501C0F2A6E2C
:10172800FD0E6F008CFF2BF017D0FF0E356EFE0EEE
:10173800E3503524346ED50E2A6E0A0E2B6E342AE9
:1017480003D02B342B322A32342EFBD7010E2A1623
:10175800000E2B161E0E2A26000E2B22E552E552ED
:10176800E552E552120001013551D8A41200326B3E
:101778003A0140516E0040F92AF02B6A6000A8F047
:101788002BF02A6A2A26000E2B22770E2A14010132
:10179800336F3C0E2B14346F5E0EE66E2A0EE66E27
:1017A800000EE66ECBEC12F07E0EE66EFF0EE66ED5
:1017B800010EE66EB7EC12F005EC15F0010132519E
:1017C8000F0BE66E88EC14F01200E652E652FB0EA0
:1017D800E124346EFF0EE220356EFF0E6000D7F074
:1017E800E3FFFE0E6000D3F0E3FFFE0EE1242A6E55
:1017F800FF0EE2202B6E6000ABF0E6FF6000AFF05A
:10180800E6FFF90E6F008FFFE6FF6F008FFFE6FF20
:10181800000EE66E000EE66EADEC04F0E552E55201
:10182800E552E750E15E000EE25A1200E652E65237
:10183800E652E652FF0E326EFF0E336EFF0E346E26
:101848007F0E356EFC0E6000CBF0E3FFFD0E6000EE
:10185800CFF0E3FFFE0E6000D3F0E3FFFF0E600061
:10186800D7F0E3FFFC0E6F008CFF2AF0FD0E6F002F
:101878008CFF2BF0FE0E6F008CFF2CF0FF0E6F001C
:101888008CFF2DF0FA0EE126FF0EE222120039013C
:101898009695960EE66E270EE66E000EE66E2BEC1B
:1018A80012F039019697880EE66E230EE66E000E4A
:1018B800E66E17EC12F03D01D46BD66BD86BB00E08
:1018C800DA6F800EDB6FDC6B820EDD6F060EDE6F6B
:1018D800DF6BE06BE16BE26B0001CF6B566A400E89
:1018E800556E546ACE6BCD6B390196851200060E83
:1018F800E126000EE2223901989D0201885100017B
:10190800D26F020189510001D36F02018A5100018F
:10191800D46F02018B510001D56FD66BD76BD86B92
:10192800D96B3901988DF80E6F008CFF2AF0F90EEB
:10193800E3502A1020EED2F0080E2A6EF80E6F003F
:101948007BFFE3FFE8282A2EFAD71200780E6F00F3
:10195800A0FFB3F9000E6F00A0FFB4F9640E6F008A
:10196800A0FFB5F9000E6F00A0FFB6F922EE8BF1CB
:101978006F0078FF8FF96F0078FF90F96F0078FF9C
:1019880091F96F0074FF92F922EE8FF16F0078FFE2
:101998009BF96F0078FF9CF96F0078FF9DF96F0045
:1019A80074FF9EF912000001906B916B926B936B20
:1019B80000F00400010E00019027000E91239223ED
:1019C8009323FC0E6F008CFF2AF090512A5CFD0EC9
:1019D8006F008CFF2AF091512A58FE0E6F008CFF81
:1019E8002AF092512A58FF0E6F008CFF2AF093516B
:1019F8002A58D8B0DDD7E552E552E552E552120033
:101A0800000E3B01D96F100EDA6F000EDB6F3F0E30
:101A1800D16FBB0ED06F030EDD6F000ED86F010EB5
:101A2800D76F000ECF6F010ECE6F1C0EDF6F3D0E0D
:101A3800DE6F3901A597A595A59BA59995979595CD
:101A4800959B9599D29E3901550EEF6FAA0EEF6FAF
:101A5800EF81D28E3B01DC6B120021EE40F000EEEC
:101A680000F19A0E6F007BFFEEFFE806FBE29B0E8B
:101A7800D95EE95E010197B508D00F0E276F620E97
:101A8800266F0F0E296FA40E286F97B71200A00EAD
:101A98002A6F890E2B6FB00E2C6F3D0E2D6FA40E82
:101AA8002E6FDE0E2F6F130E306F3D0E316F12004A
:101AB800E652FF0EE36AE32AFD0E6F008CFF2AF060
:101AC800200E2A1804E1FE0EE350D8B412D0FD0E01
:101AD800E350F70F346EFE0E6F008CFF35F0FF0EEB
:101AE8003522355004E1050E345CD8A002D0FF0E33
:101AF800E36AFF0EE3502A6E2B6AE552E552E5527F
:101B08001200FE0EE304FF0E6F008CFF2AF0020E97
:101B18002A5AD8A00CD0000E346E020E356EFE0E76
:101B28006000D3F0E3FFFF0E6000D7F0E3FF3B0156
:101B3800DC9FFE0E6F008FFFD7FBFF0E6F008FFF3D
:101B4800D8FB000ECF6F010ECE6FDC8FDC8DE55217
:101B5800E552120052EC0BF075EC14F0C2EC07F0F1
:101B68006AEC14F011EC15F00BEC08F081EC0AF0BB
:101B78003DEC14F05FEC14F0EEEC10F0DAEC11F040
:101B880068EC0EF044EC0EF020EC0EF04BEC0CF090
:101B980054EC14F004EC0DF04CEC0AF0E5EC14F005
:101BA8001200E652FF0EE36AFF0EE350020DBC0E70
:101BB800F324D96E020EF420DA6EDE50DE10D8B4AB
:101BC8000CD0FF0EE350020DBC0EF324D96E020EAA
:101BD800F420DA6EDE06000EDD5AFF0EE32AFF0E51
:101BE8006F008CFF2AF00C0E2A64DED7E552120033
:101BF800FC0EE3500AE1FD0EE35007E1FE0EE35050
:101C080004E1FF0EE350D8B402D0FF0EE37EFC0ED1
:101C18006F008CFF2AF0FD0E6F008CFF2BF0FE0E7C
:101C28006F008CFF2CF0FF0E6F008CFF2DF0E5523B
:101C3800E552E552E552120039019397540EE66ECB
:101C4800270EE66E000EE66E3FEC12F03D01EC6BDF
:101C5800ED6BEE6BEF6BF06BF16BB00EF26F800E0D
:101C6800F36FF46B8A0EF56FF66BF76BF86BF96B25
:101C7800FA6B576A0001D16BD06B39019387120058
:101C88009B6A9C6A010E9D6E630E996EC00E986EDB
:101C980098506F0064FE2AF02B6A6000A8F02BF0C1
:101CA8002A6A2A100001C46F2B50C56F3901A89DFC
:101CB800988D9C0EE66E200EE66E000EE66E67ECC2
:101CC80012F0310E9A6E1200A76AA86A010EA96E68
:101CD8003C0EA56EB00EA46EA4506F0094FE2AF0C0
:101CE8002B6A6000A8F02BF02A6A2A100001C06F46
:101CF8002B50C16F3901A69D968D580EE66E2A0E9F
:101D0800E66E000EE66E7BEC12F0310EA66E120047
:101D18001EEC15F0000EE66E60009BF1E6FF600019
:101D28009FF1E6FF79EC07F0BC943B01FC9F000EA5
:101D3800F86F010EF76FFC8FFF0EE350E66E600040
:101D48009BF1E6FF60009FF1E6FF03EC05F021EC54
:101D580015F0E5521200FF0EE3BE07D0FF0EE35068
:101D680012E1FE0EE304D8B00ED0FE0E6F008CFF19
:101D78002AF02A1EFF0E6F008CFF2BF02B1E2A2A3A
:101D8800D8B42B2A08D0FE0E6F008CFF2AF0FF0E65
:101D98006F008CFF2BF0E552E5521200FB0EE37E3C
:101DA800F80E6F008FFFE6FF6F008FFFE6FF6F00F2
:101DB8008FFFE6FF6F008FFFE6FFF80E6F008FFFC3
:101DC800E6FF6F008FFFE6FF6F008FFFE6FF6F00F3
:101DD8008FFFE6FFF2ECB6F0F80EE126FF0EE222E6
:101DE80012009F0E346EFF0E356EFE0E6F008CFFD4
:101DF80032F0FF0E6F008CFF33F0200E3212000E0F
:101E080033123450322635503322335006E11A0E3D
:101E1800325CD8B002D0010E01D0000E2A6E2B6AB7
:101E2800E552E5521200FE0E6F008CFF34F0FF0EF3
:101E38006F008CFF35F0D89035323432D890353277
:101E480034323450616EFE0E6F008CFF35F0030E95
:101E58003516060E2A6ED89035362A2EFCD7355000
:101E6800606EE552E5521200BC94FE0EE66EDBECA5
:101E780013F0080EE66E000EE66E000EE66E000E1B
:101E8800E66ED7EC0CF0FF0EE350E66EDBEC13F0D9
:101E9800200EE66E030EE66E000EE66E000EE66E8F
:101EA800D7EC0CF0E5521200BC94FE0EE66EDBECAB
:101EB80013F0080EE66E000EE66E000EE66E000EDB
:101EC800E66ED7EC0CF0FF0EE350E66EDBEC13F099
:101ED800080EE66E000EE66E000EE66E000EE66E6A
:101EE800D7EC0CF0E5521200FD0E6F008CFF34F0B9
:101EF800FE0E6F008CFF35F0D8903434326E3534D6
:101F0800336EFF0EE350020DBC0EF324D96E020EA1
:101F1800F420DA6E6000CBF0DEFF6000CFF0DDFF6A
:101F2800E552E552E55212009AA40FD09A90FF0E9E
:101F3800E124D96EFF0EE220DA6EDF50996EFE0EB4
:101F48006F008FFF98FF9A800CD0FF0EE124D96EA6
:101F5800FF0EE220DA6EDF50996EFE0E6F008FFFE3
:101F680098FFE552E5521200A6A40FD0A690FF0EE6
:101F7800E124D96EFF0EE220DA6EDF50A56EFE0E68
:101F88006F008FFFA4FFA6800CD0FF0EE124D96E4E
:101F9800FF0EE220DA6EDF50A56EFE0E6F008FFF97
:101FA800A4FFE552E55212006F0060FF07F06000E1
:101FB800A8F008F06000D0F009F06000D4F00AF052
:101FC80016EE96F13901A5912EEC13F0600028F079
:101FD80035F0600024F034F0600020F02AF0600052
:101FE8001FF0D8FF1100F40E6F008CFF2AF0F50ED9
:101FF800E3502A10D8B40CD0F40E6F008FFFD9FF2D
:10200800F50E6F008FFFDAFF000EDE6E000EDD6E3C
:10201800000E2A6E000E2B6EF40EE126FF0EE22251
:10202800120001013551D8B412001BEC15F0B7ECC1
:102038000BF0C80EE66E000EE66E010EE66E78EC4A
:102048000FF0010EE66E03EC12F02A50D8A412002D
:1020580001EC15F02A50D8A41200F3D7CBB00CD05D
:1020680002019F85080EE66E03EC12F02A50D8B4E0
:1020780003D0010E2A6E120002019FB508D02C0E63
:10208800E66E010EE66E080EE66E78EC0FF0000EB6
:102098002A6E1200BEA002D0010E01D0000EFF0A67
:1020A800356EBE503518FE0B3518BE6E010E020196
:1020B800B827000EB923BA23BB23010E8827000EC8
:1020C80089238A238B238BECD0F012003901989D49
:1020D800E150F80FD96EE250DA6EFF0EDA226F0087
:1020E80078FF88F26F0078FF89F26F0078FF8AF234
:1020F8006F0078FF8BF2988DF80EE126FF0EE22232
:102108001200FE0E6F008FFFE6FF6F008FFFE6FFE5
:10211800000EE66E78EC0FF005D000F000F000F04D
:1021280000F00400000EE66E03EC12F02A50D8B45A
:10213800F4D7E552E5521200FE0EE350FF0F346E5D
:10214800FF0E6F008CFF35F0FF0E35226000D0F0D7
:10215800DEF26000D4F0DFF20201E06BE16BE26BCB
:10216800E36BE46BE56BE552E5521200FC0E6F0081
:102178008FFFE6FF6F008FFFE6FF6F008FFFE6FF20
:102188006F008FFFE6FFADECFBF06000A8F022F1D6
:102198006000ACF023F1E552E552E552E552120039
:1021A800FC0E6F008FFFE6FF6F008FFFE6FF6F00EA
:1021B8008FFFE6FF6F008FFFE6FFADECFBF06000DE
:1021C800A8F020F16000ACF021F1E552E552E552AB
:1021D800E55212003901A191D2905A0EE66E2A0EEC
:1021E800E66E000EE66EA3EC12F039019181A5911E
:1021F800D292560EE66E2A0EE66E000EE66E8FEC52
:1022080012F0390195811200FF0EE124D96EFF0EFC
:10221800E220DA6EDF50030B3901E16FFE0E6F002A
:102228008FFFE0F93F0EE517E58100F000F06E0042
:102238008CF72AF0E552E55212003F0E3B01DD17FC
:10224800DD9BDD51F90B0209DD6FE70EDD17DD813E
:10225800DC9D3D0ED16FEA0ED06FFF0ED96F060ED2
:10226800DA6F000EDB6FDC9B1200FE0EE3509F0F4F
:10227800346EFF0E6F008CFF35F0FF0E352235509F
:1022880006E11A0E345CD8B002D0010E01D0000E5F
:102298002A6E2B6AE552E5521200FE0EE350BF0F7C
:1022A800346EFF0E6F008CFF35F0FF0E352235506F
:1022B80006E11A0E345CD8B002D0010E01D0000E2F
:1022C8002A6E2B6AE552E5521200FE0EE350D00F3B
:1022D800346EFF0E6F008CFF35F0FF0E352235503F
:1022E80006E10A0E345CD8B002D0010E01D0000E0F
:1022F8002A6E2B6AE552E5521200FE0EE350030BDC
:10230800A00D3F0E2A6E0A0E2B6EF3502A26F450AB
:102318002B22FF0EE350030B280DF3502A26F4500E
:102328002B22E552E5521200FF0E6F008CFF2AF0B7
:10233800050E2A6402D0000E0AD0FF0EE350050DE8
:10234800A40EF324D96E010EF420DA6EDF502A6E43
:10235800E552120014EE2CF33901A1950001A451A5
:10236800A511A611D8B4110001D811000500FA6E04
:10237800A451FD6EA551FE6EA651FF6EFA501200D3
:10238800400E556010D0000E5624D96EDA6A040E3D
:10239800DA22DF503D01D26F562A3F0E566401D033
:1023A800566A552A1200390196971200010E966E48
:1023B800956A976A7C0E936E926A3901A991998100
:1023C800AA0EE66E1B0EE66E000EE66E53EC12F0D9
:1023D800E00E946E1200430EE66E000EE66E000EDE
:1023E800E66E000EE66EFA0E6F008FFFE6FF6F00D6
:1023F8008FFFE6FFB9ECD8F0E552E5521200040071
:10240800FF0EE350020DBC0EF324D96E020EF42029
:10241800DA6EDE50DE10D8A402D0010E01D0000E14
:102428002A6EE5521200E150FD0FD96EE250DA6EC5
:10243800FF0EDA226F0078FFAAF06F0078FFABF08A
:102448006F0074FFACF0E552E552E5521200E1501E
:10245800FD0FD96EE250DA6EFF0EDA226F0078FFB8
:10246800ADF06F0078FFAEF06F0074FFAFF0E5528B
:10247800E552E5521200E150FD0FD96EE250DA6ED6
:10248800FF0EDA226F0078FFA7F06F0078FFA8F040
:102498006F0074FFA9F0E552E552E5521200E150D1
:1024A800FD0FD96EE250DA6EFF0EDA226F0078FF68
:1024B8009EF06F0078FF9FF06F0074FFA0F0E55268
:1024C800E552E5521200E150FD0FD96EE250DA6E86
:1024D800FF0EDA226F0078FF9BF06F0078FF9CF008
:1024E8006F0074FF9DF0E552E552E5521200E1508D
:1024F800FD0FD96EE250DA6EFF0EDA226F0078FF18
:1025080098F06F0078FF99F06F0074FF9AF0E55229
:10251800E552E5521200E150FD0FD96EE250DA6E35
:10252800FF0EDA226F0078FFB0F06F0078FFB1F08D
:102538006F0074FFB2F0E552E552E5521200E15027
:10254800FD0FD96EE250DA6EFF0EDA226F0078FFC7
:10255800B3F06F0078FFB4F06F0074FFB5F0E55288
:10256800E552E5521200E150FD0FD96EE250DA6EE5
:10257800FF0EDA226F0078FFA1F06F0078FFA2F05B
:102588006F0074FFA3F0E552E552E5521200E150E6
:10259800FD0FD96EE250DA6EFF0EDA226F0078FF77
:1025A800A4F06F0078FFA5F06F0074FFA6F0E55265
:0625B800E552E55212009D
:1025C00014EE2CF30001A751A811A911D8B41100E1
:1025D00001D811000500FA6EA751FD6EA851FE6EDC
:1025E000A951FF6EFA50120014EE2CF30001AA510B
:1025F000AB11AC11D8B4110001D811000500FA6E6E
:10260000AA51FD6EAB51FE6EAC51FF6EFA50120036
:1026100014EE2CF30001AD51AE11AF11D8B411007E
:1026200001D811000500FA6EAD51FD6EAE51FE6E7F
:10263000AF51FF6EFA501200BC94FF0EE350E66EED
:10264000DBEC13F0080EE66E000EE66E000EE66E92
:10265000000EE66ED7EC0CF0E55212000001B0510E
:10266000B111B211D8B4120001D812000500FA6EEF
:10267000B051FD6EB151FE6EB251FF6EFA501200B4
:1026800000019B519C119D11D8B4120001D8120079
:102690000500FA6E9B51FD6E9C51FE6E9D51FF6EC2
:1026A000FA5012000001985199119A11D8B41200F1
:1026B00001D812000500FA6E9851FD6E9951FE6E18
:1026C0009A51FF6EFA5012000001B351B411B511C6
:1026D000D8B4120001D812000500FA6EB351FD6E95
:1026E000B451FE6EB551FF6EFA50120000019E51BA
:1026F0009F11A011D8B4120001D812000500FA6E83
:102700009E51FD6E9F51FE6EA051FF6EFA50120059
:10271000FF0EE350020D000EF324D96E010EF420DB
:10272000DA6E6F0078FF2AF06F0074FF2BF0E5522D
:1027300012003901968DBEA402D0010E01D0000E08
:10274000FF0A356E35463546BE503518FB0B351839
:10275000BE6E1200D60E5724D96EDA6A020EDA2245
:102760006F00A3F7DFFF572A070E576401D0576A9F
:102770000001D02B120039019591620EE66EF10E28
:10278000E66E010EE66E8FEC12F0020E0101C76FCD
:10279000390195811200000E5424D96EDA6A060EB2
:1027A000DA226F0043F7DFFF542A5428D8B4546A62
:1027B0000001CD2B1200010E3D01126FFF0E6F00C4
:1027C0008FFF11FD3901A2A9FDD76F0040F42AF057
:1027D000E5521200FE0EE66E8CEC0EF0C0EC14F02A
:1027E000FF0EE350E66E8CEC0EF0C0EC14F0E552F8
:1027F0001200FF0E6F008CFF35F0030E351623EE2E
:10280000BFF0DF503518FE0B3518DF6EE5521200B1
:10281000070EE66E03EC12F02A50D8B406D002017F
:10282000A851FF0E6F008CFFA8F2E5521200FF0EB8
:10283000E350E66E60009BF1E6FF60009FF1E6FF6B
:1028400003EC05F0E55212006000A8F006F014EE6B
:102850002CF33901A99176EC13F0600018F02AF0FE
:102860001100FE0E6F008FFFE6FF6F008FFFE6FF87
:1028700017EC0FF0E552E5521200010EAE6EAD6A94
:10288000AF6A630EAB6EAA6A3901A495C00EAC6E36
:102890001200DF0EE66E030EE66EFD0EE350E66EEE
:1028A00084ECE4F0E5521200400E3D01156F030E7A
:1028B000166F4F0E196F1C6B830E146F1200800E73
:1028C000626E616A400E606E3F015F513F0B4009CE
:1028D0005F6F1200200E3901D96FDB6BDD6B020ECA
:1028E000DF6FDE6BDCB11200FDD73901C06BC16B4D
:1028F000C26BC36BC46BC56BC66BC76B120039016F
:1029000068B104D0FF0E6F008FFF60F9E55212002E
:10291000FF0E6F008FFFF1FE3E01F88FF881E55248
:102920001200FF0EE3B002D0BD9A01D0BD8AE5527D
:102930001200FF0EE3B002D0BD9801D0BD88E55271
:102940001200390168AB03D02A6A2A2A12002A6AC7
:1029500012000201A951FF0E6F008CFFA9F2E5528F
:102960001200FF0EE3B002D0BD9C01D0BD8CE55239
:102970001200FF0EE350E66EEAEC13F0E55212008F
:10298000000160B7FDD73D0117BB1200FCD72C0E2C
:10299000E66E010EE66E17EC0FF01200BDAC03D030
:0A29A0002A6A2A2A12002A6A12008D
:0E29AC0014EE2CF33901A19164EC13F011002C
:1029BC0014EE2CF33901A2910001609711003C0137
:1029CC00E66B940EE56F1200FF0E2A6E060E2B6E50
:0229DC001200E7
:0A29E00014EE2CF33901A29311004C
:0A29EC0014EE2CF33901A29711003C
:1029F80014EE2CF33901A29511006000D4F42AF0EA
:102A080012003B0E3E01F16F12006000A0FA2AF09E
:102A180012006000A4FA2AF01200AF0E3E01C16F46
:102A280012000101978312003901688D120001011B
:102A3800356B12000001608712003B01FC8D12000B
:062A48003901969D120009
:102A500014EE2CF3110012001200120012001200EA
:10F7AA0000D859000005000000685B00000A00004C
:10F7BA0000305C000014000000385E0000190000F0
:10F7CA0000885E00001E000000785F00002800002C
:10F7DA0000DC5F00002D000000186000003200000D
:10F7EA000046600000350000007C60000037000021
:10F7FA0000AE60000039000000E06000003C00003C
:10F80A0000126100003F0000005D6100004300003B
:10F81A0000A861000046000000BC6100004800002A
:10F82A0000D06100004B000000DA610000500000C7
:10F83A0000E461000055000000F86100005A000071
:10F84A0000086200005C000000226200005D000007
:10F85A0000346200005F000000486200006100009E
:10F86A00005C62000064000000846700006200001F
:10F87A00000000000080DE280080C84D0000A77646
:10F88A000000349E008012C700809FEE00007E17A1
:10F89A0001805C400180E9670100C890010055B809
:10F8AA00011F1E1F1E1F1F1E1F1E1F1F1D636F6DA0
:10F8BA006D616E64732031000000000000000000DA
:10F8CA00000000646973706C617973203100000074
:10F8DA00000000000000000000636F6D6D616E643F
:10F8EA0073203200000000000000000000000064E5
:10F8FA006973706C617973203200000000000000A7
:10F90A000000000000636F6D6D616E647320330048
:10F91A000000000000000000000000646973706CC1
:10F92A00617973203300000000000000000000002D
:10F93A0000636F6D6D616E64732034000000000017
:10F94A0000000000000000646973706C6179732024
:10F95A00340000000000000000000000007C7C2F42
:10F96A002F2D2D0000000000000000000000000004
:10F97A00007C7C2F2F2D2D5C5C0000000000000015
:10F98A0000000000004F4F4F4F4F4F2D2D5F5F2D4E
:10F99A0000000000000000000076763C3C5E5E3EFF
:10F9AA003E0000000000000000000000002E2E2A89
:10F9BA002A7823782358587C7C2D2D0000000000DB
:10F9CA00002E2E6F6F4F4F6F6F0000000000000077
:10F9DA0000000000000000803F0000C03F474D5477
:10F9EA000000AAB83FC623F6B80040763F20256338
:10F9FA00202C256C752C25342E34662C25342E3477
:10FA0A00662C25342E34662C25342E34662C253467
:10FA1A002E34662C25342E33662C25342E33662C50
:10FA2A0025342E33662C25342E33662C25342E337A
:10FA3A00662C25342E33662C25642C25642C25321D
:10FA4A002E36662C25342E33662C25642C25642C00
:10FA5A00256C752C256C752C25342E33662C253493
:10FA6A002E33662C25342E33660D0A004A616E4603
:10FA7A0065624D61724170724D61794A756E4A755F
:10FA8A006C4175675365704F63744E6F7644656356
:10FA9A0000532563432025642052554E20256420B7
:10FAAA005625322E326620202020202020200025B4
:10FABA00642025642025642025642020202020201D
:10FACA0020202020202020202020005231202532F2
:10FADA002E33662025332E34662020202020202035
:10FAEA0020202020200052322025322E3366202565
:10FAFA00332E346620202020202020202020202081
:10FB0A0000204D65736720256420537461636B2060
:10FB1A002564202020202020202000532053256304
:10FB2A00432025642025322E3466202020202020E0
:10FB3A002020202000455352202025322E366620D0
:10FB4A002020202020202020202020200042415454
:10FB5A0054205057522025332E3266202020202050
:10FB6A00202020200052312025322E3366202533D2
:10FB7A002E346620202020202020202000523220EF
:10FB8A0025322E33662025332E346620202020206D
:10FB9A0020202020004241482025332E3266205062
:10FBAA0025332E32662020202020202000202020ED
:10FBBA00202020202020202020202020202020203B
:10FBCA0020202000455352202025322E3666202040
:10FBDA0020202020202020202020005374617469D6
:10FBEA006320534F432025642020202020202020FA
:10FBFA002000424154204957482025342E3166209E
:10FC0A00202020202020202000424154204F574805
:10FC1A002025342E3166202020202020202020007C
:10FC2A00424154205457482025342E316620202042
:10FC3A0020202020202000494E56202057482025E9
:10FC4A00332E3266202020202020202020004C4FF6
:10FC5A0041442057482025332E3266202020202078
:10FC6A002020202000505620256320574820253385
:10FC7A002E3266202020202020202000494E5620A7
:10FC8A00205057522025332E326620202020202053
:10FC9A002020004C4F4144205057522025332E3209
:10FCAA006620202020202020200050562025632076
:10FCBA005057522025332E32662020202020202023
:10FCCA0000426174746572792041682025332E32AE
:10FCDA00662020202020200042562025322E32661F
:10FCEA002042412025322E32662020202020004347
:10FCFA00562025322E3266204C412025322E32667D
:10FD0A0020202020200050562025322E32662050F6
:10FD1A00412025322E326620202020200053756E85
:10FD2A004D6F6E54756557656454687546726953AC
:10FD3A0061740020256420256420202020202020B2
:10FD4A0020202020202020200020256C6420256CE3
:10FD5A006420202020202020202020202020004253
:10FD6A00562025322E3466202020202020202020D4
:10FD7A002020202000546F20454550524F4D20200E
:10FD8A002020202020202020202000426174746539
:10FD9A007279204553522020202020202020202024
:10FDAA000043616C63756C6174696F6E202020205A
:10FDBA002020202020200043616C696272617469EE
:10FDCA006F6E202020202020202020200053656EE6
:10FDDA00736F72205A65726F202020202020202005
:10FDEA002020005A65726F2043616C20536574208D
:10FDFA00202020202020202000426174746572791E
:10FE0A0020616E64205056202020202020200043AC
:10FE1A006865636B696E672025632025632020204F
:10FE2A0020202020002054696D6520256C752C2027
:10FE3A00256C75202020202020200053656E736FCA
:10FE4A00722052656164696E677320202020202029
:10FE5A0000436865636B203330207365636F6E649B
:10FE6A00732020202020005A65726F204F7574205D
:10FE7A004F662052616E676520202020002564208D
:10FE8A0025322E34662C20256420205452494D20D8
:10FE9A0020200053746162696C69747920636C6F05
:10FEAA00636B20256420202000486973746F72797F
:10FEBA0020446174612020536176656420200048E3
:10FECA00454C50202573202020202020202020204F
:10FEDA0020202000444953504C41592025732020AA
:10FEEA00202020202020202000204E534153504F14
:10FEFA004F4B202020202020202020202000205688
:10FF0A00657273696F6E20257320202020202020BF
:10FF1A00202000204D424D4320534F4C41524D4F1B
:10FF2A004E20202020202000526561642045455043
:10FF3A00524F4D2044415441202020200052656CEC
:10FF4A006561736520627574746F6E202563202065
:10FF5A002000496E76616C696420454550524F4DC8
:10FF6A002044415441200048454C5020257320200C
:10FF7A002020202020202020200025642025322E29
:10FF8A0034662C2025642020202320002564202587
:10FF9A00322E3466202020256420202000767465C5
:10FFAA00726D2025783A2578202020004665622047
:10FFBA003139203230323000257320202020202091
:10FFCA00200031393A30313A343700312E32370095
:10FFDA00494E46004E414E00696E66006E616E00E3
:10FFEA006C58006C64006C66006C69006C75006C7F
:06FFFA00780025730000F1
:020000040001F9
:10000000110EE126000EE222FA0EE36AFD0EE36A0B
:10001000FC0EE36AE32AFB0EE36AE382AEEC0DF02A
:10002000D28ED28C0201076B2C0EE66E010EE66EAC
:1000300085EC10F0CBA004D0FE0EE36AE32A04D0D6
:10004000FE0EE36AE380E382FE0EE304D8A407D049
:10005000BD80000E02019A6F460E996F04D0BD90CC
:100060000201996B9A6B600067FAE6FF60006BFA19
:10007000E6FF31EC14F0B6EF84F021EC11F0D1EC96
:1000800000F00C0EE66EB9EC14F0FBEC03F0010E80
:10009000E66E99EC14F0010EE66E91EC14F0FE0E93
:1000A0006F008CFF07F2A50EE66E070EE66EA0EC61
:1000B00010F0000EE66EF9EC13F01D0EE66EFF0E6A
:1000C000E66E000EE66E000EE66E81EC11F060004A
:1000D000ABF0E6FF6000AFF0E6FF040EE66E4FEC1B
:1000E000FDF0D50EE66EFF0EE66E080EE66EFF0E14
:1000F000E66E000EE66E010EE66E81EC11F0600019
:10010000ABF0E6FF6000AFF0E6FF060EE66E4FECE8
:10011000FDF0F30EE66EFE0EE66E000EE66E020ECB
:10012000E66E81EC11F06000ABF0E6FF6000AFF02E
:10013000E6FF040EE66E4FECFDF0B90EE66EFB0E28
:10014000E66E000EE66E030EE66E81EC11F06000C6
:10015000ABF0E6FF6000AFF0E6FF040EE66E4FEC9A
:10016000FDF0B90EE66EFB0EE66E010EE66E000EB9
:10017000E66E81EC11F06000ABF0E6FF6000AFF0DE
:10018000E6FF040EE66E4FECFDF0B90EE66EFB0ED8
:10019000E66E010EE66E010EE66E81EC11F0600077
:1001A000ABF0E6FF6000AFF0E6FF040EE66E4FEC4A
:1001B000FDF0B90EE66EFB0EE66E010EE66E020E67
:1001C000E66E81EC11F06000ABF0E6FF6000AFF08E
:1001D000E6FF040EE66E4FECFDF0B90EE66EFB0E88
:1001E000E66E010EE66E030EE66E81EC11F0600025
:1001F000ABF0E6FF6000AFF0E6FF040EE66E4FECFA
:10020000FDF0B90EE66EFB0EE66E020EE66E000E17
:10021000E66E81EC11F06000ABF0E6FF6000AFF03D
:10022000E6FF040EE66E4FECFDF0B90EE66EFB0E37
:10023000E66E020EE66E010EE66E81EC11F06000D5
:10024000ABF0E6FF6000AFF0E6FF040EE66E4FECA9
:10025000FDF0B90EE66EFB0EE66E020EE66E020EC5
:10026000E66E81EC11F06000ABF0E6FF6000AFF0ED
:10027000E6FF040EE66E4FECFDF0B90EE66EFB0EE7
:10028000E66E020EE66E030EE66E81EC11F0600083
:10029000ABF0E6FF6000AFF0E6FF040EE66E4FEC59
:1002A000FDF0000EE66E01ECF6F0E80EE66E030ED1
:1002B000E66E85EC10F0FA0EE66E000EE66E0A0EA3
:1002C000E66E78EC0FF0C80EE66E000EE66E010EDC
:1002D000E66E78EC0FF0B80EE66E0B0EE66E070ECB
:1002E000E66E78EC0FF0DC0EE66E050EE66E0B0E99
:1002F000E66E78EC0FF0B80EE66E0B0EE66E090EA9
:10030000E66E78EC0FF0B7EC0BF0BBEC13F0E80EF8
:10031000E66E030EE66E85EC10F007ECECF02A506A
:10032000D8B47CD031EC0DF0B80EE66E090EE66E56
:10033000010EE66E5CEC09F02A50D8B45AD0000EDB
:10034000E66E000EE66E7BEC0CF0E5526F009CFF53
:1003500041F0E5526F009CFF40F0E5526F009CFFBA
:100360003FF0E5526F009CFF3EF0E5526F009CFFAE
:100370003DF0E5526F009CFF3CF0E5526F009CFFA2
:100380003BF0E5526F009CFF3AF022EEC8F1DE50E0
:100390003A5CDE503B58DE503C58DE503D58DE5053
:1003A0003E58DE503F58DE5040584150800A2A6E79
:1003B000DE50800A2A58D8B01CD022EEC8F16F0057
:1003C0007BFFE6FF6F007BFFE6FF6F007BFFE6FF32
:1003D0006F007BFFE6FF6F007BFFE6FF6F007BFF98
:1003E000E6FF6F007BFFE6FF6F007BFFE6FF6AEC36
:1003F00010F0320EE66EFF0EE66E000EE66E020E96
:10040000E66E81EC11F06000ABF0E6FF6000AFF04B
:10041000E6FF040EE66E4FECFDF014D05C0EE66EC7
:10042000FF0EE66E000EE66E020EE66E81EC11F037
:100430006000ABF0E6FF6000AFF0E6FF040EE66E92
:100440004FECFDF0000EE66E01ECF6F0D00EE66E1D
:10045000070EE66E85EC10F0FF0EE36AE32AF7EC78
:10046000F0F0000EE66E040EE66E76ECC3F060006F
:10047000ABF0E6FF6000AFF0E6FF6000B3F0E6FF30
:100480006000B7F0E6FF690EE66EFD0EE66E000E48
:10049000E66E010EE66E81EC11F06000ABF0E6FF57
:1004A0006000AFF0E6FF080EE66E4FECFDF022EEC6
:1004B0006BF16F007BFFE6FF6F007BFFE6FF6F00D5
:1004C0007BFFE6FF6F007BFFE6FFFB0EE350E66E6F
:1004D000000EE66E000EE66E050EE66ECBECFEF04C
:1004E0002A50E66E000EE66E250EE66EFB0EE66EF8
:1004F000000EE66E020EE66E81EC11F06000ABF0CD
:10050000E6FF6000AFF0E6FF0C0EE66E4FECFDF08C
:10051000000EE66E01ECF6F01BEC15F0B7EC0BF0FC
:10052000D00EE66E070EE66E85EC10F0FF0E6F0043
:100530008CFF35F0352A6000D7F0E3FF35061E0E3C
:1005400035601AD022EE6BF16F007BFFE6FF6F0083
:100550007BFFE6FF6F007BFFE6FF6F007BFFE6FFA0
:10056000420EE66E600EE66E650EE66E3C0EE66EC0
:100570009FECF4F02AA073D7AAEC0CF061ECE3F046
:10058000000EE66E99EC14F0000EE66E91EC14F09D
:1005900022EEB5F16F0078FF34F06F0074FF35F094
:1005A0006000D3F0E6FF6000D7F0E6FFE50EE66EF0
:1005B000FB0EE66E000EE66E000EE66E81EC11F0AC
:1005C0006000ABF0E6FF6000AFF0E6FF060EE66EFF
:1005D0004FECFDF022EE8FF16F007BFFE6FF6F0026
:1005E0007BFFE6FF6F007BFFE6FF6F007BFFE6FF10
:1005F000CB0EE66EFC0EE66E000EE66E010EE66EAB
:1006000081EC11F06000ABF0E6FF6000AFF0E6FFB8
:10061000080EE66E4FECFDF0B70EE66EFB0EE66ED2
:10062000000EE66E020EE66E81EC11F06000ABF09B
:10063000E6FF6000AFF0E6FF040EE66E4FECFDF063
:10064000000EE66E01ECF6F0D00EE66E070EE66EDA
:1006500085EC10F0950EE66EFD0EE66E000EE66E71
:10066000000EE66E81EC11F06000ABF0E6FF60007A
:10067000AFF0E6FF040EE66E4FECFDF0AB0EE66E5B
:10068000FD0EE66E000EE66E010EE66E81EC11F0D8
:100690006000ABF0E6FF6000AFF0E6FF040EE66E30
:1006A0004FECFDF05B0EE66EFE0EE66E000EE66EA3
:1006B000020EE66E81EC11F06000ABF0E6FF600028
:1006C000AFF0E6FF040EE66E4FECFDF0000EE66EB6
:1006D00001ECF6F0010E346E000E356EF70E600080
:1006E000D3F0E3FFF80E6000D7F0E3FF6DD06E0E9D
:1006F000E66E000EE66E85EC10F0F30E6F008FFFD5
:10070000E6FF6F008FFFE6FF6F008FFFE6FF6F00D1
:100710008FFFE6FF56EC04F06000ABF0E6FF6000F0
:10072000AFF0E6FF6000B3F0E6FF6000B7F0E6FF71
:1007300033ECF3F06000A8F035F0F90E6000D7F06C
:10074000E3FF000EE66EF80EE350E66ECBECFEF033
:100750002A50E66E000EE66E000EE66E000EE66EA5
:10076000CBECFEF02A50E66E000EE66E190EE66E39
:10077000FE0EE66E000EE66E020EE66E81EC11F0E5
:100780006000ABF0E6FF6000AFF0E6FF080EE66E3B
:100790004FECFDF0000EE66E01ECF6F0E150F70FC5
:1007A000D96EE250DA6EFF0EDA226F007CFF34F071
:1007B000010EDE266F007CFF35F0000EDD223404D2
:1007C000020E3558D8B017D0000EE66E9CECDBF068
:1007D000F30E6000ABF0E3FFF40E6000AFF0E3FF58
:1007E000F50E6000B3F0E3FFF60E6000B7F0E3FF34
:1007F000F60EE3BE7CD722EE87F16F007BFFE6FFAB
:100800006F007BFFE6FF6F007BFFE6FF6F007BFF63
:10081000E6FFCE0EE66EFB0EE66E000EE66E000EF6
:10082000E66E81EC11F06000ABF0E6FF6000AFF027
:10083000E6FF080EE66E4FECFDF022EE19F26F00B7
:100840007BFFE6FF6F007BFFE6FF6F007BFFE6FFAD
:100850006F007BFFE6FF22EE25F26F007BFFE6FFD5
:100860006F007BFFE6FF6F007BFFE6FF6F007BFF03
:10087000E6FFD50EE66EFA0EE66E000EE66E010E8F
:10088000E66E81EC11F06000ABF0E6FF6000AFF0C7
:10089000E6FF0C0EE66E4FECFDF022EE1DF26F004F
:1008A0007BFFE6FF6F007BFFE6FF6F007BFFE6FF4D
:1008B0006F007BFFE6FF22EE29F26F007BFFE6FF71
:1008C0006F007BFFE6FF6F007BFFE6FF6F007BFFA3
:1008D000E6FFF00EE66EFA0EE66E000EE66E020E13
:1008E000E66E81EC11F06000ABF0E6FF6000AFF067
:1008F000E6FF0C0EE66E4FECFDF0000EE66E01EC2E
:10090000F6F0A00EE66E0F0EE66E85EC10F0040E0B
:10091000E66E98EC11F02A50D8B402D0010E01D046
:10092000000E0201B26FE80EE66E030EE66E85EC75
:1009300010F00201B251D8B40FD0040EE66E98EC5C
:1009400011F02A50D8B408D014ECC8F0A00EE66E0E
:100950000F0EE66E85EC10F00201B26B010EB36F64
:100960001DD0000195811AD0076B18D002010751E4
:10097000346E356A3550000AD8A4F6D73450000AD0
:10098000D8B43DEF80F0010AD8B408D0020AD8B438
:1009900005D0070AD8B4E5D7010AE6D7010EE66EFE
:1009A00003EC12F02A50D8B413D001EC15F02A5001
:1009B000D8B40ED09FEC03F01BEC15F0B7EC0BF0A5
:1009C000C80EE66E000EE66E010EE66E78EC0FF0D5
:1009D0000A0EE66E03EC12F02A50D8B4B0EF8AF09B
:1009E000090EE66E03EC12F02A50D8B404D0000EC3
:1009F000E66E08EC14F0000EE66E000EE66E7BEC80
:100A00000CF0E5526F009CFF41F0E5526F009CFF37
:100A100040F0E5526F009CFF3FF0E5526F009CFFF5
:100A20003EF0E5526F009CFF3DF0E5526F009CFFE9
:100A30003CF0E5526F009CFF3BF0E5526F009CFFDD
:100A40003AF06000E8F0DAF06000ECF0DBF0600013
:100A5000F0F0DCF06000F4F0DDF06000F8F0DEF0C3
:100A60006000FCF0DFF0600000F1E0F0600004F1F5
:100A7000E1F0DA0EE66E49EC14F06000A8F0BCF08C
:100A80006000ACF0BDF06000F3F2E6FF6000F7F24A
:100A9000E6FFEBECC0F06000ABF0E6FF6000AFF00B
:100AA000E6FF760EE66EFF0EE66E000EE66E030EB5
:100AB000E66E81EC11F06000ABF0E6FF6000AFF095
:100AC000E6FF060EE66E4FECFDF081ECCCF022EE78
:100AD0002EF2DF50D8B4A4D0000E6F00A0FF2EFA83
:100AE00015EC15F04EECCAF0B80EE66E090EE66E87
:100AF000000EE66E5CEC09F05EECF7F0B30EE66E0D
:100B0000FE0EE66E000EE66E000EE66E81EC11F053
:100B10006000ABF0E6FF6000AFF0E6FF040EE66EAB
:100B20004FECFDF07F0EE66EFD0EE66E000EE66EFB
:100B3000010EE66E81EC11F06000ABF0E6FF6000A4
:100B4000AFF0E6FF040EE66E4FECFDF022EEC4F1CE
:100B50006F007BFFE6FF6F007BFFE6FF6F007BFF10
:100B6000E6FF6F007BFFE6FF000EE66E000EE66E0E
:100B70007BEC0CF0E5526F009CFF41F0E5526F00FA
:100B80009CFF40F0E5526F009CFF3FF0E5526F0084
:100B90009CFF3EF0E5526F009CFF3DF0E5526F0078
:100BA0009CFF3CF0E5526F009CFF3BF0E5526F006C
:100BB0009CFF3AF06000EBF0E6FF6000EFF0E6FF2C
:100BC0006000F3F0E6FF6000F7F0E6FF6000FBF086
:100BD000E6FF6000FFF0E6FF600003F1E6FF600063
:100BE00007F1E6FF2F0EE66EFE0EE66E000EE66ED5
:100BF000020EE66E81EC11F06000ABF0E6FF6000E3
:100C0000AFF0E6FF100EE66E4FECFDF0000EE66E64
:100C100001ECF6F0D00EE66E070EE66E85EC10F0F5
:100C20009B0EE66E010EE66EEEECE8F041EF8AF008
:100C30000201B06B22EE2DF2DF50D8A402D0200EBC
:100C400001D0440E346E000E356EF10E6000D3F00C
:100C5000E3FFF20E6000D7F0E3FF22EE7BF16F00BE
:100C60007BFFE6FF6F007BFFE6FF6F007BFFE6FF89
:100C70006F007BFFE6FFED0E6F008FFFE6FF6F005A
:100C80008FFFE6FFB40EE66EFC0EE66E000EE66E1B
:100C9000000EE66E81EC11F06000ABF0E6FF600044
:100CA000AFF0E6FF0A0EE66E4FECFDF022EE73F1B8
:100CB0006F007BFFE6FF6F007BFFE6FF6F007BFFAF
:100CC000E6FF6F007BFFE6FF9D0EE66EFC0EE66E14
:100CD000000EE66E010EE66E81EC11F06000ABF0E6
:100CE000E6FF6000AFF0E6FF080EE66E4FECFDF0A9
:100CF00022EE77F16F007BFFE6FF6F007BFFE6FFE0
:100D00006F007BFFE6FF6F007BFFE6FF860EE66E5F
:100D1000FC0EE66E000EE66E020EE66E81EC11F041
:100D20006000ABF0E6FF6000AFF0E6FF080EE66E95
:100D30004FECFDF022EE2DF2DF50D8A402D0200EB1
:100D400001D0440E346E000E356EEF0E6000D3F00D
:100D5000E3FFF00E6000D7F0E3FF22EEA7F16F0093
:100D60007BFFE6FF6F007BFFE6FF6F007BFFE6FF88
:100D70006F007BFFE6FFEB0E6F008FFFE6FF6F005B
:100D80008FFFE6FF6F0EE66EFC0EE66E010EE66E5E
:100D9000000EE66E81EC11F06000ABF0E6FF600043
:100DA000AFF0E6FF0A0EE66E4FECFDF022EEAFF17B
:100DB0006F007BFFE6FF6F007BFFE6FF6F007BFFAE
:100DC000E6FF6F007BFFE6FF580EE66EFC0EE66E58
:100DD000010EE66E010EE66E81EC11F06000ABF0E4
:100DE000E6FF6000AFF0E6FF080EE66E4FECFDF0A8
:100DF00022EEABF16F007BFFE6FF6F007BFFE6FFAB
:100E00006F007BFFE6FF6F007BFFE6FF410EE66EA3
:100E1000FC0EE66E010EE66E020EE66E81EC11F03F
:100E20006000ABF0E6FF6000AFF0E6FF080EE66E94
:100E30004FECFDF03CD30201B06B22EE03F16F00EA
:100E40007BFFE6FF6F007BFFE6FF6F007BFFE6FFA7
:100E50006F007BFFE6FF22EE13F16F007BFFE6FFE2
:100E60006F007BFFE6FF6F007BFFE6FF6F007BFFFD
:100E7000E6FF100EE66EFD0EE66E000EE66E000E4C
:100E8000E66E81EC11F06000ABF0E6FF6000AFF0C1
:100E9000E6FF0C0EE66E4FECFDF022EEFFF06F0069
:100EA0007BFFE6FF6F007BFFE6FF6F007BFFE6FF47
:100EB0006F007BFFE6FF22EE0FF16F007BFFE6FF86
:100EC0006F007BFFE6FF6F007BFFE6FF6F007BFF9D
:100ED000E6FFE20EE66EFC0EE66E000EE66E010E1A
:100EE000E66E81EC11F06000ABF0E6FF6000AFF061
:100EF000E6FF0C0EE66E4FECFDF022EE3FF16F00C8
:100F00007BFFE6FF6F007BFFE6FF6F007BFFE6FFE6
:100F10006F007BFFE6FF22EE07F16F007BFFE6FF2D
:100F20006F007BFFE6FF6F007BFFE6FF6F007BFF3C
:100F3000E6FFF90EE66EFC0EE66E000EE66E020EA1
:100F4000E66E81EC11F06000ABF0E6FF6000AFF000
:100F5000E6FF0C0EE66E4FECFDF022EE9FF16F0007
:100F60007BFFE6FF6F007BFFE6FF6F007BFFE6FF86
:100F70006F007BFFE6FFFC0EE66EFB0EE66E010ED9
:100F8000E66E000EE66E81EC11F06000ABF0E6FF5D
:100F90006000AFF0E6FF080EE66E4FECFDF022EECB
:100FA000A3F16F007BFFE6FF6F007BFFE6FF6F00A2
:100FB0007BFFE6FF6F007BFFE6FF130EE66EFC0E85
:100FC000E66E010EE66E010EE66E81EC11F0600039
:100FD000ABF0E6FF6000AFF0E6FF080EE66E4FEC08
:100FE000FDF022EEA3F16F007BFFE6FF6F007BFFB9
:100FF000E6FF6F007BFFE6FF6F007BFFE6FF22EE60
:101000009FF16F007BFFE6FF6F007BFFE6FF6F0045
:101010007BFFE6FF6F007BFFE6FFF2ECB6F06000BF
:10102000ABF0E6FF6000AFF0E6FF6000B3F0E6FF74
:101030006000B7F0E6FF2A0EE66EFC0EE66E010ECB
:10104000E66E020EE66E81EC11F06000ABF0E6FF9A
:101050006000AFF0E6FF080EE66E4FECFDF027D221
:101060000201B06B22EE7FF16F007BFFE6FF6F00A5
:101070007BFFE6FF6F007BFFE6FF6F007BFFE6FF75
:10108000570EE66EFB0EE66E000EE66E000EE66E86
:1010900081EC11F06000ABF0E6FF6000AFF0E6FF1E
:1010A000080EE66E4FECFDF022EE93F16F007BFF31
:1010B000E6FF6F007BFFE6FF6F007BFFE6FF6F0040
:1010C0007BFFE6FF22EE8FF16F007BFFE6FF6F00F4
:1010D0007BFFE6FF6F007BFFE6FF6F007BFFE6FF15
:1010E0009F0EE66EFB0EE66E000EE66E010EE66EDD
:1010F00081EC11F06000ABF0E6FF6000AFF0E6FFBE
:101100000C0EE66E4FECFDF022EE0FF16F007BFF50
:10111000E6FF6F007BFFE6FF6F007BFFE6FF6F00DF
:101120007BFFE6FF22EEB3F16F0078FF34F06F0033
:1011300074FF35F06000D3F0E6FF6000D7F0E6FF03
:1011400022EEB5F16F0078FF34F06F0074FF35F0D8
:101150006000D3F0E6FF6000D7F0E6FF000EE66E19
:10116000050EE66ECBECFEF02A50E66E000EE66E43
:101170009B0EE66EFA0EE66E000EE66E020EE66E50
:1011800081EC11F06000ABF0E6FF6000AFF0E6FF2D
:101190000E0EE66E4FECFDF022EE87F16F007BFF46
:1011A000E6FF6F007BFFE6FF6F007BFFE6FF6F004F
:1011B0007BFFE6FF3F0EE66EFB0EE66E010EE66E6F
:1011C000000EE66E81EC11F06000ABF0E6FF60000F
:1011D000AFF0E6FF080EE66E4FECFDF022EE19F2DE
:1011E0006F007BFFE6FF6F007BFFE6FF6F007BFF7A
:1011F000E6FF6F007BFFE6FF22EE25F26F007BFF2C
:10120000E6FF6F007BFFE6FF6F007BFFE6FF6F00EE
:101210007BFFE6FF6F0EE66EFB0EE66E010EE66EDE
:10122000010EE66E81EC11F06000ABF0E6FF6000AD
:10123000AFF0E6FF0C0EE66E4FECFDF022EE1DF275
:101240006F007BFFE6FF6F007BFFE6FF6F007BFF19
:10125000E6FF6F007BFFE6FF22EE29F26F007BFFC7
:10126000E6FF6F007BFFE6FF6F007BFFE6FF6F008E
:101270007BFFE6FF870EE66EFB0EE66E010EE66E66
:10128000020EE66E81EC11F06000ABF0E6FF60004C
:10129000AFF0E6FF0C0EE66E4FECFDF008D1020158
:1012A000B051D8A42DD0FF0EE66EFC0EE350E66ED2
:1012B000000EE66E000EE66E000EE66E000EE66EA6
:1012C000ECECECF0FF0EE66EFB0EE350E66E000E6B
:1012D000E66E000EE66E000EE66E000EE66EECECBC
:1012E000ECF0FF0EE66EFA0EE350E66E000EE66ED0
:1012F000000EE66E000EE66E000EE66EECECECF014
:10130000010E0201B06FFA0EE350E66E000EE66EBB
:10131000FB0EE350040DFF0EF324D96E080EF420EB
:10132000DA6E6F007BFFE6FF6F007BFFE6FF6F006A
:101330007BFFE6FF6F007BFFE6FFF70EE350E66EF4
:1013400088EC13F06000ABF0E6FF6000AFF0E6FF62
:10135000870EE66EFE0EE66E000EE66E000EE66E80
:1013600081EC11F06000ABF0E6FF6000AFF0E6FF4B
:101370000C0EE66E4FECFDF0FA0EE350346E356A5B
:10138000010E3426000E35226000D3F0E6FF600027
:10139000D7F0E6FFFA0EE350040DFF0EF324D96EEA
:1013A000080EF420DA6E6F007BFFE6FF6F007BFF14
:1013B000E6FF6F007BFFE6FF6F007BFFE6FFF60EA8
:1013C000E350E66E88EC13F06000ABF0E6FF6000DF
:1013D000AFF0E6FF870EE66EFE0EE66E000EE66EDE
:1013E000010EE66E81EC11F06000ABF0E6FF6000EC
:1013F000AFF0E6FF0C0EE66E4FECFDF0FA0EE35098
:10140000346E356A020E3426000E35226000D3F0A9
:10141000E6FF6000D7F0E6FFF90EE350040DFF0E83
:10142000F324D96E080EF420DA6E6F007BFFE6FF1E
:101430006F007BFFE6FF6F007BFFE6FF6F007BFF27
:10144000E6FFF50EE350E66E88EC13F06000ABF0BB
:10145000E6FF6000AFF0E6FF870EE66EFE0EE66E7A
:10146000000EE66E020EE66E81EC11F06000ABF04D
:10147000E6FF6000AFF0E6FF0C0EE66E4FECFDF00D
:1014800016D001019B51346E356A3550000AD8A43C
:101490000ED03450000AD8B4CED4010AD8B418EF14
:1014A00086F0030AD8B4DCD5010AD8B4F8D69B0E6E
:1014B000E66E010EE66E1FEC0BF0FA0EE66E000E05
:1014C000E66E0A0EE66E78EC0FF09B0EE66E010EED
:1014D000E66E13EC0AF02A500201B16FB151D8B494
:1014E00013D0030E01019B19D8B40ED00201B16BC9
:1014F000A0A102D0010E01D0000EFF0A356EA0514E
:101500003518FE0B3518A06F0201A0A102D0010E04
:1015100001D0000EE66EF9EC13F00201A0A102D09A
:10152000010E01D0000EE66E01ECF6F02FECDAF0C1
:10153000C0EC14F0DF0EE66E4F0EE66E550EE66E52
:10154000400EE66ED4EC10F0DF0EE66E4F0EE66E47
:10155000D50EE66E400EE66EBAEC10F0FBEC03F032
:101560000201AF51E66EFCECE9F00201B151D8B4D2
:1015700062D0B16BB06BFA0E6F008CFF2AF0030ED5
:101580002A26FA0E6000ABF0E3FFFA0E6F008CFF24
:101590002AF0090E2A643AD0FA0EE36A37D0FD0E1B
:1015A000E36AFC0EE36AE32AFB0EE36AE38243D0BC
:1015B000FD0EE36AE384FC0EE36AE380E384FB0E42
:1015C000E36AE382E38437D0FD0EE36AE382E386D5
:1015D0000B0E356EFC0E6000D7F0E3FFFB0EE36AE6
:1015E000E384E38628D00D0E356EFD0E6000D7F043
:1015F000E3FF0D0E356EFC0E6000D7F0E3FF0D0E1D
:10160000356EFB0E6000D7F0E3FF15D0FA0EE35005
:10161000346E356A3550000AD8A40DD03450000A13
:10162000D8B4BDD7030AD8B4C3D7050AD8B4CCD729
:101630000F0AD8B4D8D79FA1B6EF84F0070EE66E94
:1016400003EC12F02A50D8B40CD002019F91000E86
:10165000E66EF9EC13F0000EE66E01ECF6F0B6EF74
:1016600084F0020EE66EF9EC13F0020EE66E01EC69
:10167000F6F0B6EF84F0380EE126000EE222F20E0C
:10168000E36AF30EE36AC20E6F008CFF32F0C30E02
:101690006F008CFF33F0C40E6F008CFF34F0C50E6A
:1016A0006F008CFF35F0D80E6000CBF0E3FFD90E51
:1016B0006000CFF0E3FFDA0E6000D3F0E3FFDB0E53
:1016C0006000D7F0E3FFDB0EE3AE2BD0010E346EEB
:1016D000000E356EF20E6000D3F0E3FFF30E6000F3
:1016E000D7F0E3FFD80E6F008FFFE6FF6F008FFF8C
:1016F000E6FF6F008FFFE6FF6F008FFFE6FFFCEC59
:101700000DF0D80E6000ABF0E3FFD90E6000AFF033
:10171000E3FFDA0E6000B3F0E3FFDB0E6000B7F02A
:10172000E3FFE80EE36AE90EE36AEE0E60002BF1D8
:10173000E3FFEF0E60002FF1E3FFF20E6F008CFF6E
:101740002AF0F30EE3502A10D8A402D04EA436D0CB
:10175000F20E6F008CFF2AF0F30EE3502A10D8A48B
:1017600002D02B0E01D02D0E346E000E356ED20E2F
:101770006000D3F0E3FFD30E6000D7F0E3FFD20E9A
:101780006F008CFF54F3E80EE350010F2A6EE80E51
:101790006000ABF0E3FF2A6AE90EE3502A202A6ECC
:1017A000E90E6000ABF0E3FFE150EE0FD96EE250BE
:1017B000DA6EFF0EDA22DE06000EDD5AD80E6F005A
:1017C0008FFFE6FF6F008FFFE6FF6F008FFFE6FFE2
:1017D0006F008FFFE6FF9BECEEF02A042B10D8A4DD
:1017E00076D0BF0E346EFF0E356EC10EE350326EF2
:1017F000336A3450322635503322335006E11A0E04
:10180000325CD8B002D0010E01D0000E346E356AC1
:10181000D00E6000D3F0E3FFD10E6000D7F0E3FFFD
:10182000D00E6F008CFF2AF0D10EE3502A10D8B4EE
:1018300017D0DA0EE66EFF0EE66E540E346E030E0F
:10184000356EE60EE3503426E70EE3503522600095
:10185000D3F0E6FF6000D7F0E6FFB1EC01F016D060
:10186000E20EE66EFF0EE66E540E346E030E356E1B
:10187000E60EE3503426E70EE35035226000D3F045
:10188000E6FF6000D7F0E6FFB1EC01F0E150EE0FAB
:10189000D96EE250DA6EFF0EDA22FD0EDE26FF0E62
:1018A000DD22EE0E6F008FFFE6FF6F008FFFE6FF79
:1018B000540EE66E030EE66EC20E6F008FFFE6FF5B
:1018C0006F008FFFE6FFC5ECFCF058EF94F0D80EE8
:1018D0006F008FFFE6FF6F008FFFE6FF6F008FFF47
:1018E000E6FF6F008FFFE6FF9BECEEF02A502B1017
:1018F000D8A456D0BF0E346EFF0E356EC10EE35025
:10190000326E336A3450322635503322335006E17A
:101910001A0E325CD8B002D0010E01D0000E346E27
:10192000356ACE0E6000D3F0E3FFCF0E6000D7F033
:10193000E3FFCE0E6F008CFF2AF0CF0EE3502A108B
:10194000D8B417D0DE0EE66EFF0EE66E540E346E7F
:10195000030E356EE60EE3503426E70EE3503522D3
:101960006000D3F0E6FF6000D7F0E6FFB1EC01F0D5
:101970008DD7E60EE66EFF0EE66E540E346E030E45
:10198000356EE60EE3503426E70EE3503522600054
:10199000D3F0E6FF6000D7F0E6FFB1EC01F076D7B8
:1019A000000E326E000E336E800E346E3F0E356EBA
:1019B000D40E6000CBF0E3FFD50E6000CFF0E3FF64
:1019C000D60E6000D3F0E3FFD70E6000D7F0E3FF40
:1019D000EA0EE36AEB0EE36A000EE66E000EE66EB8
:1019E000000EE66E000EE66ED40E6F008FFFE6FF6F
:1019F0006F008FFFE6FF6F008FFFE6FF6F008FFF26
:101A0000E6FF82EC02F02AA039D0BCD0000EE66ED0
:101A1000000EE66E200EE66E410EE66ED00E6F00F2
:101A20008FFFE6FF6F008FFFE6FF6F008FFFE6FF7F
:101A30006F008FFFE6FFDDECB2F0D40E6000ABF07C
:101A4000E3FFD50E6000AFF0E3FFD60E6000B3F009
:101A5000E3FFD70E6000B7F0E3FFEA0EE350010F9B
:101A60002A6EEA0E6000ABF0E3FF2A6AEB0EE35049
:101A70002A202A6EEB0E6000ABF0E3FF000EE66E4C
:101A8000000EE66E200EE66E410EE66ED00E6F0082
:101A90008FFFE6FF6F008FFFE6FF6F008FFFE6FF0F
:101AA0006F008FFFE6FFDDECB2F06000ABF0E6FF09
:101AB0006000AFF0E6FF6000B3F0E6FF6000B7F053
:101AC000E6FFD40E6F008FFFE6FF6F008FFFE6FF8B
:101AD0006F008FFFE6FF6F008FFFE6FF9FECF4F0D3
:101AE0002AA032D093D7000EE66E000EE66E200ECE
:101AF000E66E410EE66ED00E6F008FFFE6FF6F00C0
:101B00008FFFE6FF6F008FFFE6FF6F008FFFE6FF9E
:101B10002EECBEF0D40E6000ABF0E3FFD50E6000FB
:101B2000AFF0E3FFD60E6000B3F0E3FFD70E600026
:101B3000B7F0E3FFE150EA0FD96EE250DA6EFF0E24
:101B4000DA22DE06000EDD5AD40E6F008FFFE6FFAC
:101B50006F008FFFE6FF6F008FFFE6FF6F008FFFC4
:101B6000E6FFD40E6F008FFFE6FF6F008FFFE6FFEA
:101B70006F008FFFE6FF6F008FFFE6FF9FECF4F032
:101B80002AA0B1D7C10EE350E66E000EE66EDAEC85
:101B900008F0FE0E6000ABF0E3FFFE0E6F008CFF5E
:101BA0002AF0FF0E6000ABF0E3FFFE0E6F008CFF2B
:101BB0002AF0670E2A18D8A425D04C504D10D8A46E
:101BC00004D0000E4D6E010E4C6E4DBE05D04D5032
:101BD00010E14C04D8B00DD0060E346E000E356EF8
:101BE000F00E6000D3F0E3FFF10E6000D7F0E3FFEA
:101BF0000CD0F00E600033F1E3FFF10E600037F11E
:101C0000E3FF03D04DAEF5D7E7D7FE0E6F008CFF94
:101C10002AF0670E2A18D8A42FD0EB0EE3AE0ED010
:101C2000EA0E6F008CFF2AF0FC0E2A5EEB0E6F00AE
:101C30008CFF2AF0FF0E2A5AD8A018D0F00EE350DD
:101C4000FF0F346EF10E6F008CFF35F0FF0E352262
:101C5000EA0EE350345C3550800A2A6EEB0EE350F6
:101C6000800A2A58D8A002D0660E01D0650E356EC3
:101C7000FF0E6000D7F0E3FFF00E6F008CFF2AF03C
:101C8000F80E6000ABF0E3FFF10E6F008CFF2AF05E
:101C9000F90E6000ABF0E3FFFE0E6F008CFF2AF040
:101CA000670E2A18D8A40BD0FF0E6F008CFF2AF005
:101CB000660E2A18D8A414D0EB0EE3AE11D0F80E9D
:101CC000E350010F2A6EF80E6000ABF0E3FF2A6AC2
:101CD000F90EE3502A202A6EF90E6000ABF0E3FF04
:101CE000FF0E6F008CFF2AF0660E2A18D8A43BD096
:101CF000EB0EE3AE1CD0000E326E000E336E800E83
:101D0000346E3F0E356ED40E6000CBF0E3FFD50E7F
:101D10006000CFF0E3FFD60E6000D3F0E3FFD70EF4
:101D20006000D7F0E3FFEA0EE36AEB0EE36AFE0E13
:101D30006F008CFF2AF0670E2A18D8B414D0F80E62
:101D4000E3502A6EEA0EE3502A26F80E6000ABF04C
:101D5000E3FFF90EE3502A6EEB0EE3502A22F90E50
:101D60006000ABF0E3FFEC0EE36AED0EE36AD80E21
:101D70006F008CFF32F0D90E6F008CFF33F0DA0E5B
:101D80006F008CFF34F0DB0E6F008CFF35F0E00E3F
:101D90006000CBF0E3FFE10E6000CFF0E3FFE20E66
:101DA0006000D3F0E3FFE30E6000D7F0E3FFD40E52
:101DB0006F008CFF32F0D50E6F008CFF33F0D60E23
:101DC0006F008CFF34F0D70E6F008CFF35F0E40EFF
:101DD0006000CBF0E3FFE50E6000CFF0E3FFE60E1E
:101DE0006000D3F0E3FFE70E6000D7F0E3FFD6D04A
:101DF000D40E6F008FFFE6FF6F008FFFE6FF6F00CE
:101E00008FFFE6FF6F008FFFE6FFDC0E6F008FFF96
:101E1000E6FF6F008FFFE6FF6F008FFFE6FF6F00AA
:101E20008FFFE6FF2EECBEF06000ABF0E6FF600037
:101E3000AFF0E6FF6000B3F0E6FF6000B7F0E6FF4A
:101E400045ECD2F0DC0E6000ABF0E3FFDD0E60008D
:101E5000AFF0E3FFDE0E6000B3F0E3FFDF0E6000E3
:101E6000B7F0E3FFDC0E6F008FFFE6FF6F008FFF20
:101E7000E6FF6F008FFFE6FF6F008FFFE6FF33EC9A
:101E8000F3F06000A8F034F06000ACF035F0F40E30
:101E90006000D3F0E3FFF50E6000D7F0E3FFD40E4F
:101EA0006F008FFFE6FF6F008FFFE6FF6F008FFF71
:101EB000E6FF6F008FFFE6FFD80E6F008FFFE6FF93
:101EC0006F008FFFE6FF6F008FFFE6FF6F008FFF51
:101ED000E6FFDDECB2F06000ABF0E6FF6000AFF0D3
:101EE000E6FF6000B3F0E6FF6000B7F0E6FFDC0E4F
:101EF0006F008FFFE6FF6F008FFFE6FF6F008FFF21
:101F0000E6FF6F008FFFE6FFD2EC0EF0E00E600000
:101F1000ABF0E3FFE10E6000AFF0E3FFE20E600024
:101F2000B3F0E3FFE30E6000B7F0E3FF000EE66EF0
:101F3000000EE66E200EE66E410EE66ED00E6F00CD
:101F40008FFFE6FF6F008FFFE6FF6F008FFFE6FF5A
:101F50006F008FFFE6FF2EECBEF0D40E6000ABF0FA
:101F6000E3FFD50E6000AFF0E3FFD60E6000B3F0E4
:101F7000E3FFD70E6000B7F0E3FFEC0EE350010F74
:101F80002A6EEC0E6000ABF0E3FF2A6AED0EE35020
:101F90002A202A6EED0E6000ABF0E3FFE150EC0F5B
:101FA000D96EE250DA6EFF0EDA22F80EE350DE5CF4
:101FB000DE50800A2A6EF90EE350800A2A58D8A013
:101FC00017D7000EE66E000EE66EA00EE66E400E0F
:101FD000E66ED00E6F008FFFE6FF6F008FFFE6FF0B
:101FE0006F008FFFE6FF6F008FFFE6FFDDECB2F0C2
:101FF000DC0E6000ABF0E3FFDD0E6000AFF0E3FF4E
:10200000DE0E6000B3F0E3FFDF0E6000B7F0E3FF29
:10201000DC0E6F008FFFE6FF6F008FFFE6FF6F00A3
:102020008FFFE6FF6F008FFFE6FFDC0E6F008FFF74
:10203000E6FF6F008FFFE6FF6F008FFFE6FF6F0088
:102040008FFFE6FF9FECF4F02AA021D0DC0E6F009A
:102050008FFFE6FF6F008FFFE6FF6F008FFFE6FF49
:102060006F008FFFE6FFDC0E6F008FFFE6FF6F0053
:102070008FFFE6FF6F008FFFE6FF6F008FFFE6FF29
:1020800082EC02F02AA01BD0F40EE3B018D0000EB0
:10209000326E000E336E000E346E000E356EDC0EA6
:1020A0006000CBF0E3FFDD0E6000CFF0E3FFDE0E5B
:1020B0006000D3F0E3FFDF0E6000D7F0E3FFDC0E3B
:1020C0006F008FFFE6FF6F008FFFE6FF6F008FFF4F
:1020D000E6FF6F008FFFE6FFD40E6F008FFFE6FF75
:1020E0006F008FFFE6FF6F008FFFE6FF6F008FFF2F
:1020F000E6FFF2ECB6F0E00E6000ABF0E3FFE10EBD
:102100006000AFF0E3FFE20E6000B3F0E3FFE30E28
:102110006000B7F0E3FFE40E6F008CFF32F0E50ED5
:102120006F008CFF33F0E60E6F008CFF34F0E70E8B
:102130006F008CFF35F0D40E6000CBF0E3FFD50EBE
:102140006000CFF0E3FFD60E6000D3F0E3FFD70EC0
:102150006000D7F0E3FFFF0E6F008CFF2AF0650EE2
:102160002A18D8B411D0EA0E6F008CFF2AF0F60EB0
:102170006000ABF0E3FFEB0E6F008CFF2AF0F70E70
:102180006000ABF0E3FF04D0F60EE36AF70EE36AFB
:10219000FA0EE36AFB0EE36AFC0EE36AFD0EE36AE5
:1021A000EC0EE36AED0EE36AB7D1D40E6F008FFF39
:1021B000E6FF6F008FFFE6FF6F008FFFE6FF6F0007
:1021C0008FFFE6FFDC0E6F008FFFE6FF6F008FFFD3
:1021D000E6FF6F008FFFE6FF6F008FFFE6FF2EEC3C
:1021E000BEF06000ABF0E6FF6000AFF0E6FF60001D
:1021F000B3F0E6FF6000B7F0E6FF45ECD2F0DC0E8E
:102200006000ABF0E3FFDD0E6000AFF0E3FFDE0E39
:102210006000B3F0E3FFDF0E6000B7F0E3FFDC0E19
:102220006F008FFFE6FF6F008FFFE6FF6F008FFFED
:10223000E6FF6F008FFFE6FF33ECF3F06000A8F0DD
:1022400034F06000ACF035F0F40E6000D3F0E3FF42
:10225000F50E6000D7F0E3FF4EB826D0F40E6F0005
:102260008CFF2AF0F50EE3502A10D8A41DD0FE0EE4
:102270006F008CFF2AF0670E2A18D8A415D0F70E2D
:10228000E3AE12D0FC0EE350010F2A6EFC0E60008C
:10229000ABF0E3FF2A6AFD0EE3502A202A6EFD0E02
:1022A0006000ABF0E3FFAFD0FA0E6F008CFF2AF0B6
:1022B000FB0EE3502A10D8A470D0F70EE3AE6DD019
:1022C000E80E6F008CFF34F0E90E6F008CFF35F0E4
:1022D000540E3424D96E030E3520DA6E2E0EDF6EC6
:1022E000E80EE350010F2A6EE80E6000ABF0E3FF4A
:1022F0002A6AE90EE3502A202A6EE90E6000ABF04C
:10230000E3FFE150EE0FD96EE250DA6EFF0EDA22F3
:10231000DE06000EDD5A010E346E000E356EFA0E2A
:102320006000D3F0E3FFFB0E6000D7F0E3FF35D091
:10233000E80E6F008CFF34F0E90E6F008CFF35F073
:10234000540E3424D96E030E3520DA6E300EDF6E53
:10235000E80EE350010F2A6EE80E6000ABF0E3FFD9
:102360002A6AE90EE3502A202A6EE90E6000ABF0DB
:10237000E3FFE150EE0FD96EE250DA6EFF0EDA2283
:10238000DE06000EDD5AE150FC0FD96EE250DA6E27
:10239000FF0EDA22DE06000EDD5AFC0E6F008CFF07
:1023A0002AF0FD0EE3502A10D8A4C2D7E80E6F0021
:1023B0008CFF34F0E90E6F008CFF35F0540E34249E
:1023C000D96E030E3520DA6EF40EE350300FDF6E57
:1023D000E80EE350010F2A6EE80E6000ABF0E3FF59
:1023E0002A6AE90EE3502A202A6EE90E6000ABF05B
:1023F000E3FFE150EE0FD96EE250DA6EFF0EDA2203
:10240000DE06000EDD5AD40E6F008FFFE6FF6F0070
:102410008FFFE6FF6F008FFFE6FF6F008FFFE6FF85
:10242000D80E6F008FFFE6FF6F008FFFE6FF6F0093
:102430008FFFE6FF6F008FFFE6FFDDECB2F060007C
:10244000ABF0E6FF6000AFF0E6FF6000B3F0E6FF40
:102450006000B7F0E6FFDC0E6F008FFFE6FF6F0055
:102460008FFFE6FF6F008FFFE6FF6F008FFFE6FF35
:10247000D2EC0EF0E00E6000ABF0E3FFE10E600086
:10248000AFF0E3FFE20E6000B3F0E3FFE30E6000A5
:10249000B7F0E3FF000EE66E000EE66E200EE66E6D
:1024A000410EE66ED00E6F008FFFE6FF6F008FFFCC
:1024B000E6FF6F008FFFE6FF6F008FFFE6FF2EEC59
:1024C000BEF0D40E6000ABF0E3FFD50E6000AFF0BD
:1024D000E3FFD60E6000B3F0E3FFD70E6000B7F065
:1024E000E3FFE150F60FD96EE250DA6EFF0EDA220A
:1024F000DE06000EDD5AEC0EE350010F2A6EEC0EE4
:102500006000ABF0E3FF2A6AED0EE3502A202A6E4A
:10251000ED0E6000ABF0E3FFE150EC0FD96EE2503E
:10252000DA6EFF0EDA22F80EE350DE5CDE50800A2F
:102530002A6EF90EE350800A2A58D8B00ED0E90E60
:10254000E3BE33D6E90EE35008E1E80E6F008CFFDE
:102550002AF04B0E2A5ED8A028D6FA0E6F008CFF08
:102560002AF0FB0EE3502A10D8B44EA821D0E80E72
:102570006F008CFF34F0E90E6F008CFF35F0540EC5
:102580003424D96E030E3520DA6E2E0EDF6EE80E7F
:10259000E350010F2A6EE80E6000ABF0E3FF2A6AF9
:1025A000E90EE3502A202A6EE90E6000ABF0E3FF4B
:1025B000E80E6F008CFF34F0E90E6F008CFF35F0F1
:1025C000540E3424D96E030E3520DA6E000EDF6E01
:1025D000FF0E6F008CFF2AF0650E2A18D8A451EF69
:1025E0008CF04F0E346E000E356EEC0E6000D3F0A2
:1025F000E3FFED0E6000D7F0E3FFEC0E6F008CFF01
:1026000034F0ED0E6F008CFF35F0540E3424D96E8B
:10261000030E3520DA6E000EDF6EF20EE36AF30E63
:10262000E36AEB0EE3AE12D0010E346E000E356E8F
:10263000F20E6000D3F0E3FFF30E6000D7F0E3FF8B
:10264000EA0EE36CEB0EE31ED8B0E32A020E346E02
:10265000000E356EF00E6000D3F0E3FFF10E600067
:10266000D7F0E3FF51D0E150EC0FD96EE250DA6EB3
:10267000FF0EDA22DE06000EDD5AEC0E6F008CFF34
:1026800034F0ED0E6F008CFF35F0540E3424D96E0B
:10269000030E3520DA6E0A0EE66E000EE66EE80EC8
:1026A0006F008FFFE6FF6F008FFFE6FF39ECFCF055
:1026B0002A50300FDF6E0A0EE66E000EE66EE80E50
:1026C0006F008FFFE6FF6F008FFFE6FF0AECF8F068
:1026D000EA0E6000ABF0E3FFEB0E6000AFF0E3FF4B
:1026E000E150F00FD96EE250DA6EFF0EDA22DE060C
:1026F000000EDD5AE150EE0FD96EE250DA6EFF0E99
:10270000DA22DE06000EDD5AEA0E6F008CFF2AF098
:10271000EB0EE3502A10D8A4A6D7F10EE3BE07D0E3
:10272000F10EE350A0E1F00EE304D8B09CD7E150E5
:10273000EC0FD96EE250DA6EFF0EDA22DE06000EE2
:10274000DD5AF20E6F008CFF2AF0F30EE3502A10D0
:10275000D8A402D02B0E01D02D0E346E000E356E93
:10276000CC0E6000D3F0E3FFCD0E6000D7F0E3FFA6
:10277000EC0E6F008CFF34F0ED0E6F008CFF35F027
:10278000540E3424D96E030E3520DA6ECC0E6F0051
:102790008FFFDFFFE150EE0FD96EE250DA6EFF0ED1
:1027A000DA22DE06000EDD5AE150EC0FD96EE2505F
:1027B000DA6EFF0EDA22DE06000EDD5ABF0E346E30
:1027C000FF0E356EC10EE350326E336A345032263E
:1027D00035503322335006E11A0E325CD8B002D0A5
:1027E000010E01D0000E346E356AC80E6000D3F0C1
:1027F000E3FFC90E6000D7F0E3FFC80E6F008CFF47
:102800002AF0C90EE3502A10D8A402D0650E01D0D8
:10281000450E346E000E356ECA0E6000D3F0E3FF35
