:020000040000FA
:0400000057EF00F0C6
:100008003C153C153C153C153C153C153C153C1560
:1000180007153C158E1302103C153C153C153C1574
:100028000B1517151D151A153C153C153C153C15D7
:100038003C153C153C1527143C153C153C153C1546
:100048003C153C153C153C152B003C153C153C1546
:100058007F123C153C153C153C153C153C153C15D0
:100068003C153C153B1431143C153C154B043C1510
:100078003C153C152B003C153C153C152B002B0062
:100088002B002B002B002B002B002B00937F3C1503
:1000980045143C153C153C152B002B002B002B0060
:1000A8003C153C15FF0013EEBEF136EF0DF0FF0EC8
:1000B800E350D8B411D00001AC6BAD6B0101AE6B4D
:1000C800AF6B0001BB6B6000BBF6E6FF6000BFF6DC
:1000D800E6FF66EC29F0B8D023EED6F06F007BFF80
:1000E800E6FF6F007BFFE6FF6F007BFFE6FF6F0018
:1000F8007BFFE6FFEFECDFF0050E2B18D8B414D029
:1001080023EED6F06F007BFFE6FF6F007BFFE6FF74
:100118006F007BFFE6FF6F007BFFE6FFEFECDFF091
:10012800040E2B18D8A47CD023EE7AF06F007BFF46
:10013800E6FF6F007BFFE6FF6F007BFFE6FF6F00C7
:100148007BFFE6FF000EE66E000EE66E200EE66E02
:10015800420EE66EE5EC07F02BB062D00001BB5111
:10016800D8A410D0010EBB6F23EEEAF06F0078FF21
:10017800F6FC6F0078FFF7FC6F0078FFF8FC6F0063
:1001880074FFF9FC000EE66E000EE66E7A0EE66E5F
:10019800430EE66E23EEEAF06F007BFFE6FF6F008A
:1001A8007BFFE6FF6F007BFFE6FF6F007BFFE6FF4C
:1001B800E5EC07F02BB00DD00001AC4BAD2B2D0EAC
:1001C800AC5D010EAD59D8A004D0010EAD6F2C0E58
:1001D800AC6F23EEEAF06F007BFFE6FF6F007BFF5A
:1001E800E6FF6F007BFFE6FF6F007BFFE6FF000E78
:1001F800E66E000EE66E7A0EE66E430EE66EE5ECEF
:1002080007F02BB008D00101AE51AF11D8B403D01C
:10021800AE07D8A0AF07ACC0AEF1ADC0AFF153D7B1
:100228000101AE51AF11D8B403D0AE07D8A0AF07C3
:100238006000BBF6E6FF6000BFF6E6FF66EC29F05B
:100248000001AC6BAD6BBB6BE5521200060EE126EC
:10025800000EE2226000CCF733F06000D0F734F0F3
:100268006000D4F735F06000D8F736F0FA0E600079
:10027800CFF0E3FFFB0E6000D3F0E3FFFC0E60005D
:10028800D7F0E3FFFD0E6000DBF0E3FFF60E6F0032
:100298008CFF33F0F70E6F008CFF34F0F80E6F0010
:1002A8008CFF35F0F90E6F008CFF36F0FA0E600007
:1002B800CFF0E3FFFB0E6000D3F0E3FFFC0E60001D
:1002C800D7F0E3FFFD0E6000DBF0E3FFFA0E6F00EE
:1002D8008CFF33F0FB0E6F008CFF34F0FC0E6F00C8
:1002E8008CFF35F0FD0E6F008CFF36F0180E05D030
:1002F800D8903632353234323332E82EF9D76000AE
:10030800CCF031F06000D0F032F0FF0E3116000E64
:100318003216FE0E6000C7F0E3FFFF0E6000CBF060
:10032800E3FFFE0E6F008CFF2BF0FF0EE3502B1047
:10033800D8A423D0FA0E6F008CFF33F0FB0E6F00A9
:100348008CFF34F0FC0E6F008CFF35F0FD0E6F0053
:100358008CFF36F0D89033342F6E3434306E353409
:10036800316E3634326E2F50301031103210D8A41E
:1003780002D0020E2ED0030E2CD0FE0EE32828E168
:10038800FF0EE350D8A424D0FA0E6F008CFF33F090
:10039800FB0E6F008CFF34F0FC0E6F008CFF35F005
:1003A800FD0E6F008CFF36F0090ED89033363436C8
:1003B80035363636E82EF9D7335034103510361026
:1003C800D8A402D0010E01D0000E2B6E2C6A04D0E6
:1003D800040E2B6E000E2C6EF60EE126FF0EE222A6
:1003E8001200060EE126000EE222FE0EE36AF50E6A
:1003F800E3AE14D0F20EE36CF30EE31EF40EE31E2C
:10040800F50EE31E08E3F30EE32A05E3F40EE32AF0
:1004180002E3F50EE32AFE0EE36AE32AF90EE3AEE1
:1004280013D0F60EE36CF70EE31EF80EE31EF90E7A
:10043800E31E08E3F70EE32A05E3F80EE32A02E3D6
:10044800F90EE32AFE0EE370FA0EE36AFB0EE36A86
:10045800FC0EE36AFD0EE36AF20EE3500AE1F30EC6
:10046800E35007E1F40EE35004E1F50EE350D8B48D
:1004780058D0FF0EE36A0AD0D890F20EE336F30E96
:10048800E336F40EE336F50EE336FF0EE32AF50EF7
:10049800E3AEF2D7D890FA0EE336FB0EE336FC0E45
:1004A800E336FD0EE336E150F60FD96EE250DA6E10
:1004B800FF0EDA22F20EE350DE5CF30EE350DE5854
:1004C800F40EE350DE58F50EE350DE58D8A015D0F0
:1004D800E150F60FD96EE250DA6EFF0EDA22F20E14
:1004E800E350DE5EF30EE350DE5AF40EE350DE5ABC
:1004F800F50EE350DE5AFA0EE380D890F50EE3329B
:10050800F40EE332F30EE332F20EE332FF0EE35061
:100518002B6E010E2B5EFF0E6000AFF0E3FFD8A438
:10052800B9D7FE0EE350D8B411D0FA0EE36CFB0E27
:10053800E31EFC0EE31EFD0EE31E08E3FB0EE32A9A
:1005480005E3FC0EE32A02E3FD0EE32AFA0E6F0030
:100558008CFF2BF0FB0E6F008CFF2CF0FC0E6F0055
:100568008CFF2DF0FD0E6F008CFF2EF0F20EE126B1
:10057800FF0EE2221200010EE66E000EE66ED8ECC7
:1005880026F06000AFF0E6FF6000B3F0E6FF000E73
:10059800E66E000EE66ED8EC26F06000AFF0E6FFDF
:1005A8006000B3F0E6FFA70EE66EFF0EE66E010EE2
:1005B800E66E010EE66E080EE66E14EC11F0FFEC26
:1005C80029F0010EE66E010EE66E000EE66E000ED4
:1005D800E66EC4EC1BF0010EE66E010EE66ED8EC7A
:1005E80026F06000AFF0E6FF6000B3F0E6FF000E13
:1005F800E66E010EE66ED8EC26F06000AFF0E6FF7E
:100608006000B3F0E6FFA70EE66EFF0EE66E010E81
:10061800E66E010EE66E080EE66E14EC11F0FFECC5
:1006280029F0010EE66E010EE66E000EE66E010E72
:10063800E66EC4EC1BF0010EE66E020EE66ED8EC18
:1006480026F06000AFF0E6FF6000B3F0E6FF000EB2
:10065800E66E020EE66ED8EC26F06000AFF0E6FF1C
:100668006000B3F0E6FFA70EE66EFF0EE66E010E21
:10067800E66E010EE66E080EE66E14EC11F0FFEC65
:1006880029F0010EE66E010EE66E000EE66E020E11
:10069800E66EC4EC1BF0010EE66E030EE66ED8ECB7
:1006A80026F06000AFF0E6FF6000B3F0E6FF000E52
:1006B800E66E030EE66ED8EC26F06000AFF0E6FFBB
:1006C8006000B3F0E6FFA70EE66EFF0EE66E010EC1
:1006D800E66E010EE66E080EE66E14EC11F0FFEC05
:1006E80029F0010EE66E010EE66E000EE66E030EB0
:1006F800E66EC4EC1BF0B80EE66E0B0EE66EAAECC6
:1007080025F012006000D3F1E6FF6000D7F1E6FFA4
:100718006000DBF1E6FF6000DFF1E6FF000EE66E49
:10072800000EE66EEDECC9F06000AFF0E6FF600089
:10073800B3F0E6FF6000B7F0E6FF6000BBF0E6FF4D
:10074800B3EC23F06000AFF0E6FF6000B3F0E6FF23
:100758006000B7F0E6FF6000BBF0E6FFE5EC18F0DC
:100768006000ACF0DEFC6000B0F0DFFC6000B4F0CC
:10077800E0FC6000B8F0E1FC000EE66E000EE66EEC
:10078800EDECC9F06000ACF074F06000B0F075F00A
:100798006000B4F076F06000B8F077F06000E3F144
:1007A800E6FF6000E7F1E6FF6000EBF1E6FF6000BE
:1007B800EFF1E6FF000EE66E040EE66EEDECC9F012
:1007C8006000AFF0E6FF6000B3F0E6FF6000B7F04E
:1007D800E6FF6000BBF0E6FFB3EC23F06000AFF08B
:1007E800E6FF6000B3F0E6FF6000B7F0E6FF6000E8
:1007F800BBF0E6FFE5EC18F06000ACF0DAFC600056
:10080800B0F0DBFC6000B4F0DCFC6000B8F0DDFCAC
:10081800E70EE66E1D0EE66EA70EE66E3B0EE66E62
:1008280023EEDAF06F007BFFE6FF6F007BFFE6FF49
:100838006F007BFFE6FF6F007BFFE6FFE5EC07F04C
:100848002BB010D0B00E6F00A0FFDAFC030E6F00C3
:10085800A0FFDBFC670E6F00A0FFDCFC3C0E6F0006
:10086800A0FFDDFC000EE66E040EE66EEDECC9F0AE
:100878006000ACF078F06000B0F079F06000B4F09F
:100888007AF06000B8F07BF01200090EE126000E45
:10089800E222070E2B6EF70EE36AE82A2B06FCE22B
:1008A800E70EE35016E1E80EE35013E1E90EE350DA
:1008B80010E1EA0EE3500DE1EB0EE3500AE1EC0E15
:1008C800E35007E1ED0EE35004E1EE0EE350D8B437
:1008D80088D0FF0EE36A12D0D890E70EE336E80E10
:1008E800E336E90EE336EA0EE336EB0EE336EC0EBA
:1008F800E336ED0EE336EE0EE336FF0EE32AEE0E98
:10090800E3AEEAD7D890F70EE336F80EE336F90EE1
:10091800E336FA0EE336FB0EE336FC0EE336FD0E45
:10092800E336FE0EE336E150EF0FD96EE250DA6E91
:10093800FF0EDA22E70EE350DE5CE80EE350DE58E5
:10094800E90EE350DE58EA0EE350DE58EB0EE350B2
:10095800DE58EC0EE350DE58ED0EE350DE58EE0E96
:10096800E350DE58D8A021D0E150EF0FD96EE25005
:10097800DA6EFF0EDA22E70EE350DE5EE80EE35091
:10098800DE5AE90EE350DE5AEA0EE350DE5AEB0E69
:10099800E350DE5AEC0EE350DE5AED0EE350DE5A19
:1009A800EE0EE350DE5AF70EE380D890EE0EE332F7
:1009B800ED0EE332EC0EE332EB0EE332EA0EE332F5
:1009C800E90EE332E80EE332E70EE332FF0EE350BE
:1009D8002B6E010E2B5EFF0E6000AFF0E3FFD8A474
:1009E80091D7F70EE124D96EFF0EE220DA6E080ED9
:1009F8002B6EEF0E6F007BFFE3FFE8282B2EFAD754
:100A0800F70EE126FF0EE2221200E652E652E65207
:100A1800E6523901689DA09D69510F0B366E363A32
:100A2800695136180F0B3618696F080E0001D56525
:100A380003D03901616B01D03901606B688DA0ADBD
:100A4800FED7A09D689D600050F336F0FF0E362655
:100A5800363A695136180F0B3618696F62516E00B5
:100A68008CF52BF02C6A6000ACF02CF02B6A2B1262
:100A7800000E2C12FC0E6000AFF0E3FFFD0E6000CC
:100A8800B3F0E3FF100E0001D5613AD0FF0E356ECA
:100A9800FF0E366E600054F334F0010E316E000E16
:100AA800326E342A03D0D89031363236342EFBD702
:100AB8003550312636503222FE0E6000C7F0E3FF73
:100AC800FF0E6000CBF0E3FFFE0E6F008CFF35F0E9
:100AD800FF0E6F008CFF36F0FC0E6F008CFF2BF0C2
:100AE80035502B16FC0E6000AFF0E3FFFD0E6F00D3
:100AF8008CFF2BF036502B16FD0E6000AFF0E3FF95
:100B0800FB0EE350D8B411D0FC0E6F008FFFE6FF48
:100B18006F008FFFE6FF9BEC16F0FC0E6000AFF055
:100B2800E3FFFD0E6000B3F0E3FFF90E6F008CFFEA
:100B380035F0FA0E6F008CFF36F0FC0E6F008CFF5C
:100B48002BF035502B1AFC0E6000AFF0E3FFFD0EC2
:100B58006F008CFF2BF036502B1AFD0E6000AFF0A3
:100B6800E3FFFC0E6F008CFF2BF0FD0E6F008CFF77
:100B78002CF0F90EE126FF0EE2221200E652E652B0
:100B8800FA0E6F008CFF33F0FB0E6F008CFF34F011
:100B9800FC0E6F008CFF35F0FD0E6F008CFF36F0F9
:100BA800180E05D0D8903632353234323332E82E2A
:100BB800F9D7FE0E6000CFF0E3FFFE0EE350D8A495
:100BC80006D0000E2B6E2C6A2D6A2E6A8BD0FA0E78
:100BD8006F008CFF33F0FB0E6F008CFF34F0FC0EBF
:100BE8006F008CFF35F0FD0E6F008CFF36F0200E85
:100BF80005D0D8903632353234323332E82EF9D730
:100C0800FF0E6000CFF0E3FFFC0EE38EE150FA0F19
:100C1800D96EE250DA6EFF0EDA22FF0EDE16FF0EF4
:100C2800DE16FF0EDE16000EDE16FE0E6F008CFFBF
:100C38002BF0960E2B5EFE0E6000AFF0E3FFFE0E6B
:100C4800E3AE14D0FE0EE350800A970FD8A0B9D7B0
:100C5800D890FD0EE332FC0EE332FB0EE332FA0EBF
:100C6800E332FE0EE32AD8B418D0F2D7FE0E6F0096
:100C78008CFF2BF01F0E2B640CD0A3D7D890FA0E44
:100C8800E336FB0EE336FC0EE336FD0EE336FE0ECE
:100C9800E306FE0EE350D8A4F1D7FF0EE350D8B414
:100CA80011D0FA0EE36CFB0EE31EFC0EE31EFD0EE4
:100CB800E31E08E3FB0EE32A05E3FC0EE32A02E346
:100CC800FD0EE32AFA0E6F008CFF2BF0FB0E6F006F
:100CD8008CFF2CF0FC0E6F008CFF2DF0FD0E6F00CA
:100CE8008CFF2EF0FA0EE126FF0EE2221200E652E9
:100CF800E652FE0EE36ABF9A20EE91F1580EDE240A
:100D08000101956F020EDE20966F000EDE20976FB0
:100D1800000EDE20986FCC6B010EE727000EE8234B
:100D2800E923EA2300F000F000F000F000F000F002
:100D380016D0CFA60ED00AD0FF0E6000DBF0E3FF7E
:100D480027D0CFA406D002D0CDA603D0366A362A43
:100D5800F3D7366AF1D7FF0EE36AE32A19D0FE0EFD
:100D6800E350356E366A3650000AD8A4F4D73550A9
:100D7800000AD8B4F0D7010AD8B4EDD7030AD8B41A
:100D8800E0D7010AD8B4D5D7070AD8B4DDD7E3D756
:100D9800FF0EE350D8B418D0FE0EE350050DAA0E8E
:100DA800F324D96E020EF420DA6EDE04D8A449D0FA
:100DB800FE0EE350050DAA0EF324D96E020EF420A0
:100DC800DA6E000EDF6E3DD0FE0EE350050DAA0E62
:100DD800F324D96E020EF420DA6EDF50D8A431D095
:100DE800FE0EE350050DAA0EF324D96E020EF42070
:100DF800DA6E010EDF6E20EED3F1FE0EE350050D24
:100E0800AB0EF324E96E020EF420EA6E6F007BFF4E
:100E1800EEFF6F007BFFEEFF6F007BFFEEFF6F00C2
:100E28007BFFEEFFFE0E6F008CFF36F0010E356E75
:100E3800362A02D0D8903536362EFCD735500201E6
:100E4800D213FE0EE32AFE0E6F008CFF2BF0050E68
:100E58002B6485D7BF8AE552E5521200E652E65266
:100E6800FE0EE36AFD0EE3AE14D0FA0EE36CFB0E41
:100E7800E31EFC0EE31EFD0EE31E08E3FB0EE32A51
:100E880005E3FC0EE32A02E3FD0EE32AFE0EE36A05
:100E9800E32AF90EE3AE11D0F60EE36CF70EE31E6B
:100EA800F80EE31EF90EE31E08E3F70EE32A05E346
:100EB800F80EE32A02E3F90EE32AF60EE3500AE1FC
:100EC800F70EE35007E1F80EE35004E1F90EE350A2
:100ED800D8B44DD0FF0EE36A0AD0D890F60EE336A8
:100EE800F70EE336F80EE336F90EE336FF0EE32A83
:100EF800F90EE3AEF2D7E150FA0FD96EE250DA6E8E
:100F0800FF0EDA22F60EE350DE5CF70EE350DE58F1
:100F1800F80EE350DE58F90EE350DE58D8A013D08F
:100F2800E150FA0FD96EE250DA6EFF0EDA22F60EB1
:100F3800E350DE5EF70EE350DE5AF80EE350DE5A59
:100F4800F90EE350DE5AD890F90EE332F80EE33288
:100F5800F70EE332F60EE332FF0EE3502B6E010E6E
:100F68002B5EFF0E6000AFF0E3FFD8A4C4D7FE0EDF
:100F7800E350D8B411D0FA0EE36CFB0EE31EFC0E5E
:100F8800E31EFD0EE31E08E3FB0EE32A05E3FC0E59
:100F9800E32A02E3FD0EE32AFA0E6F008CFF2BF022
:100FA800FB0E6F008CFF2CF0FC0E6F008CFF2DF0F9
:100FB800FD0E6F008CFF2EF0F60EE126FF0EE222EA
:100FC8001200E150FC0FD96EE250DA6EFF0EDA2201
:100FD800000EDE14336E000EDE14346E800EDE1446
:100FE800356E7F0EDE14366E3350341035103610E1
:100FF800D8A408D0FC0EE36AFD0EE36AFE0EE36A8D
:10100800FF0EE36AE150F80FD96EE250DA6EFF0E78
:10101800DA22000EDE14336E000EDE14346E800EFB
:10102800DE14356E7F0EDE14366E335034103510F4
:101038003610D8A408D0F80EE36AF90EE36AFA0E5F
:10104800E36AFB0EE36AFF0EE3AE24D0000E336EB4
:10105800000E346E000E356E800E366EFC0EE350B8
:10106800335EFD0EE350345AFE0EE350355AFF0E40
:10107800E350365AFC0E6000CFF0E3FFFD0E60002F
:10108800D3F0E3FFFE0E6000D7F0E3FFFF0E600031
:10109800DBF0E3FFFB0EE3AE24D0000E336E000E50
:1010A800346E000E356E800E366EF80EE350335EE9
:1010B800F90EE350345AFA0EE350355AFB0EE3505A
:1010C800365AF80E6000CFF0E3FFF90E6000D3F057
:1010D800E3FFFA0E6000D7F0E3FFFB0E6000DBF0E1
:1010E800E3FFFF0EE37EFB0EE37EE150FC0FD96EBB
:1010F800E250DA6EFF0EDA22F80EE350DE5CF90EEB
:10110800E350DE58FA0EE350DE58FB0EE350DE588B
:10111800D8B002D02B9001D02B80F80EE126FF0E1C
:10112800E22212006F0060FFD7F06F00D8FFD8F0FE
:101138006F00DCFFD9F06F00E0FFDAF06F00D4FF3A
:10114800DBF06000ACF0DCF06000B0F0DDF06000D7
:10115800B4F0DEF06000B8F0DFF06000BCF0E0F062
:101168006000C0F0E1F06000C4F0E2F06000C8F098
:10117800E3F06000CCF0E4F06000D0F0E5F060004F
:10118800D4F0E6F06000D8F0E7F06000ECF0E8F0AA
:101198006000F0F0E9F06000F4F0EAF06000F8F0C8
:1011A800EBF06000FCF0ECF0600000F1EDF06000A6
:1011B80004F1EEF0600008F1EFF016EEEAF1390103
:1011C800A69D6000D3F2E6FF6000D7F2E6FFDDECF3
:1011D80024F00001B24BB32BB35104E1C50EB25D4C
:1011E800D8A005D0D3EC28F00001B26BB36B600037
:1011F800BCF342F06000B8F341F06000B4F340F093
:101208006000B0F33FF06000ACF33EF06000A8F37C
:101218003DF06000A4F33CF06000A0F33BF06000F8
:101228009CF336F0600098F335F0600094F334F0E6
:10123800600090F333F060008CF332F0600088F3C4
:1012480031F0600084F330F0600080F32FF060002C
:101258007CF32EF0600078F32DF0600074F32CF02E
:10126800600070F32BF060006FF3F5FF60006BF324
:10127800F8FF600067F3F7FF600063F3F6FF6000B4
:101288005FF3D8FF1100FF0E6F008CFF2BF0030EE9
:101298002B16FF0E6000AFF0E3FF23EE64F0DFA033
:1012A80004D0FF0EE350D8B49CD0FF0EE350A00D3D
:1012B800F80EF324D96E090EF420DA6E000EDF6EF4
:1012C800FF0EE350A00D200EF324D96E0A0EF42071
:1012D800DA6E000EDF6EFF0EE350A00D480EF32409
:1012E800D96E0A0EF420DA6E000EDF6EFF0EE350A0
:1012F800A00D700EF324D96E0A0EF420DA6E000EDB
:10130800DF6EFFEC29F0FF0EE350A00DE40E356E02
:10131800090E366EF3503526F45036226000D7F0A9
:10132800E6FF6000DBF0E6FF000EE66E000EE66EFC
:10133800C4EC1BF0FFEC29F0FF0EE350A00DE40E07
:10134800356E090E366E280E3526000E3622F350FD
:101358003526F45036226000D7F0E6FF6000DBF057
:10136800E6FF000EE66E010EE66EC4EC1BF0FFEC25
:1013780029F0FF0EE350A00DE40E356E090E366E0F
:10138800500E3526000E3622F3503526F4503622FC
:101398006000D7F0E6FF6000DBF0E6FF000EE66EC7
:1013A800020EE66EC4EC1BF0FFEC29F0FF0EE350D2
:1013B800A00DE40E356E090E366E780E3526000E39
:1013C8003622F3503526F45036226000D7F0E6FF77
:1013D8006000DBF0E6FF000EE66E030EE66EC4EC7E
:1013E8001BF0E5521200080EE126000EE222070E5D
:1013F8002B6EF80EE36AE82A2B06FCE2F00EE3A057
:1014080050D0F80EE3502B6EE80EE3502B26F80E62
:101418006000AFF0E3FFF90EE3502B6EE90EE350E6
:101428002B22F90E6000AFF0E3FFFA0EE3502B6EAB
:10143800EA0EE3502B22FA0E6000AFF0E3FFFB0E3A
:10144800E3502B6EEB0EE3502B22FB0E6000AFF047
:10145800E3FFFC0EE3502B6EEC0EE3502B22FC0E48
:101468006000AFF0E3FFFD0EE3502B6EED0EE3508E
:101478002B22FD0E6000AFF0E3FFFE0EE3502B6E53
:10148800EE0EE3502B22FE0E6000AFF0E3FFFF0EDE
:10149800E3502B6EEF0EE3502B22FF0E6000AFF0EF
:1014A800E3FFD890E80EE336E90EE336EA0EE336BA
:1014B800EB0EE336EC0EE336ED0EE336EE0EE336D6
:1014C800EF0EE336D890F70EE332F60EE332F50E60
:1014D800E332F40EE332F30EE332F20EE332F10EAE
:1014E800E332F00EE332F00EE35088E1F10EE35000
:1014F80085E1F20EE35082E1F30EE3500CE1F40EC5
:10150800E35009E1F50EE35006E1F60EE35003E17E
:10151800F70EE350D8A472D7F80EE124D96EFF0E67
:10152800E220DA6E080E2B6EF00E6F007BFFE3FFF1
:10153800E8282B2EFAD7F80EE126FF0EE222120039
:10154800070EE126000EE222F90EE36AFA0EE36ABC
:10155800A10E356E000E366EFD0E6000D7F0E3FF6B
:10156800FE0E6000DBF0E3FF420E0201A06F020EE8
:101578002B6EFC0E6000AFF0E3FF000E2B6EFB0E2F
:101588006000AFF0E3FF190E9F6F570E9E6F9FEC40
:101598001CF062EC2AF0F90E6F008CFF35F0FA0EA1
:1015A8006F008CFF36F0FB0E6F008CFF33F0FC0EE3
:1015B8006F008CFF34F035503324D96E3650342008
:1015C800DA6EDF50E66EF80E6F008FFFE6FF6F00F1
:1015D8008FFFE6FF39EC20F0F90E6F008CFF35F035
:1015E800FA0E6F008CFF36F0FB0E6F008CFF33F0A5
:1015F800FC0E6F008CFF34F035503324D96E365012
:101608003420DA6EDF50E66EF7ECFFF0E0EC29F0FC
:101618002B50D8A4FBD7FD0E6F008CFF35F0FE0EC3
:101628006F008CFF36F0F90EE350010F2B6EF90EA8
:101638006000AFF0E3FF2B6AFA0EE3502B202B6E0D
:10164800FA0E6000AFF0E3FFF90E6F008CFF33F085
:10165800FA0E6F008CFF34F03550335C3650345836
:10166800D8A099D7000EE66E000EE66E000EE66E64
:1016780009EC05F0FF0E6000AFF0E3FFFF0EE3504A
:10168800E66EA00EE66E000EE66E39EC20F0F90E5E
:10169800E126FF0EE2221200E652E652E652E65238
:1016A800FE0EE36AF90EE3AE09D0F80EE36CF90E0C
:1016B800E31ED8B0E32AFE0EE36AE32AFB0EE3AE8C
:1016C80008D0FA0EE36CFB0EE31ED8B0E32AFE0E38
:1016D800E370FC0EE36AFD0EE36AF80E6F008CFF00
:1016E8002BF0F90EE3502B10D8B466D0FF0EE36A46
:1016F80012D0F80EE350D890E8342B6EF80E600044
:10170800AFF0E3FFF90EE350E8342B6EF90E6000FA
:10171800AFF0E3FFFF0EE32AF90EE3AEEAD7FC0EC3
:10172800E350D890E8342B6EFC0E6000AFF0E3FF76
:10173800FD0EE350E8342B6EFD0E6000AFF0E3FFC2
:10174800F80E6F008CFF35F0F90E6F008CFF36F045
:10175800FA0E6F008CFF33F0FB0E6F008CFF34F035
:101768003550335C36503458D8A016D0FA0EE350B2
:101778002B6EF80EE3502B5EFA0E6000AFF0E3FF1D
:10178800FB0EE3502B6EF90EE3502B5AFB0E600054
:10179800AFF0E3FFFC0EE380D890F90EE332F80EC9
:1017A800E332FF0EE3502B6E010E2B5EFF0E60003E
:1017B800AFF0E3FFD8A4B3D7FE0EE350D8B406D0F9
:1017C800FC0EE36CFD0EE31ED8B0E32AFC0E6F009E
:1017D8008CFF2BF0FD0E6F008CFF2CF0F80EE1262D
:1017E800FF0EE2221200E652EF0EE35016E1F00E71
:1017F800E35013E1F10EE35010E1F20EE3500DE176
:10180800F30EE3500AE1F40EE35007E1F50EE3505E
:1018180004E1F60EE350D8B475D0FF0EE36A12D097
:10182800D890EF0EE336F00EE336F10EE336F20E03
:10183800E336F30EE336F40EE336F50EE336F60E32
:10184800E336FF0EE32AF60EE3AEEAD7E150F70FD0
:10185800D96EE250DA6EFF0EDA22EF0EE350DE5C4C
:10186800F00EE350DE58F10EE350DE58F20EE3506E
:10187800DE58F30EE350DE58F40EE350DE58F50E52
:10188800E350DE58F60EE350DE58D8A01FD0E150E2
:10189800F70FD96EE250DA6EFF0EDA22EF0EE35040
:1018A800DE5EF00EE350DE5AF10EE350DE5AF20E21
:1018B800E350DE5AF30EE350DE5AF40EE350DE5ADC
:1018C800F50EE350DE5AF60EE350DE5AD890F60EC7
:1018D800E332F50EE332F40EE332F30EE332F20EA6
:1018E800E332F10EE332F00EE332EF0EE332FF0E95
:1018F800E3502B6E010E2B5EFF0E6000AFF0E3FF8E
:10190800D8A4A4D7F70EE124D96EFF0EE220DA6E30
:10191800080E2B6EF70E6F007BFFE3FFE8282B2ED7
:10192800FAD7E5521200020EE66E8FEC25F02B5026
:10193800D8B42DD0FE0E6F008CFF35F0FF0E6F006F
:101948008CFF36F0020E3524D96E000E3620DA6E82
:10195800000EDF6EFE0E6F008CFF35F0FF0E6F007D
:101968008CFF36F0030E3524D96E000E3620DA6E61
:10197800020EE66E8FEC25F02B50D8B402D0010E83
:1019880001D0000EDF6E020EE66EFDEC22F0030EB3
:10199800E66E8FEC25F02B50D8B42DD0FE0E6F00DC
:1019A8008CFF35F0FF0E6F008CFF36F0040E3524E7
:1019B800D96E000E3620DA6E000EDF6EFE0E6F0056
:1019C8008CFF35F0FF0E6F008CFF36F0050E3524C6
:1019D800D96E000E3620DA6E030EE66E8FEC25F017
:1019E8002B50D8B402D0010E01D0000EDF6E030ECA
:1019F800E66EFDEC22F0040EE66E8FEC25F02B501F
:101A0800D8B42DD0FE0E6F008CFF35F0FF0E6F009E
:101A18008CFF36F0060E3524D96E000E3620DA6EAD
:101A2800000EDF6EFE0E6F008CFF35F0FF0E6F00AC
:101A38008CFF36F0070E3524D96E000E3620DA6E8C
:101A4800040EE66E8FEC25F02B50D8B402D0010EB0
:101A580001D0000EDF6E040EE66EFDEC22F0E552BA
:101A6800E5521200440EF66E840EF76E010EF86E03
:101A780001EEE4F121EEDAF309006F00D7FFEEFF83
:101A8800DD50D950F9E1DA50F7E1B60EF66E540E92
:101A9800F76E000EF86E00EED1F320EE07F00900A5
:101AA8006F00D7FFEEFFDD50D950F9E1240EF66E36
:101AB800330EF76E000EF86E00EE00F220EEAAF07C
:101AC80009006F00D7FFEEFFDD50D950F9E1EE0EA7
:101AD800F66E280EF76E000EF86E00EE00F120EE9E
:101AE800EBF009006F00D7FFEEFFDD50D950F9E1A8
:101AF800F60EF66E540EF76E000EF86E00EEF0F06D
:101B080020EE04F009006F00D7FFEEFFDD50D9503A
:101B1800F9E1060EF66E550EF76E000EF86E090026
:101B28006F00D4FF5FF001EE00F1E40EEE6AE80604
:101B3800FDE101EE00F0E00EEE6AE806FDE100EEE0
:101B480000F3D10EEE6AE806FDE100EEAAF2530EAC
:101B5800EE6AE806FDE100EEEBF1140EEE6AE80627
:101B6800FDE100EE60F0770EEE6AE806FDE100EEBA
:101B78004BF0140EEE6AE806FDE1080ED56E000E75
:101B8800D66E000ED76E000100EF80F0FC0E6F00DD
:101B98008CFF2BF0FD0EE3502B10D8B409D0FC0EAF
:101BA8006F008CFF2BF0FD0EE3502B10D8A406D04D
:101BB800FE0EE350E66E59EC29F075D0FC0E6F006E
:101BC8008CFF35F0FD0E6F008CFF36F0040E3524C7
:101BD800D96E000E3620DA6EDE50DE10D8B426D06C
:101BE800FC0E6F008CFF35F0FD0E6F008CFF36F099
:101BF800040E3524D96E000E3620DA6EFC0E6F0006
:101C08008CFF35F0FD0E6F008CFF36F0020E352488
:101C1800E96E000E3620EA6EDE50EE5CEE50800A69
:101C28002B6EDE50800A2B58D8B03DD0FC0E6F00CA
:101C38008CFF35F0FD0E6F008CFF36F0020E352458
:101C4800D96E000E3620DA6E6F0078FF35F06F001F
:101C580074FF36F0FC0E6F008FFFD9FFFD0E6F008A
:101C68008FFFDAFF6F0078FF33F06F0074FF34F0F6
:101C780035503324D96E36503420DA6EFE0E6F009C
:101C88008FFFDFFFFC0E6F008CFF35F0FD0E6F003D
:101C98008CFF36F0020E3524D96E000E3620DA6E2F
:101CA800DE2A000EDD22E552E552E552E552120029
:101CB800FE0E6F008FFFD9FFFF0E6F008FFFDAFF58
:101CC800FB0E6F008FFFDFFF0A0EE66EFC0EE3507F
:101CD800E66EDEEC1AF0300E2B26FE0E6F008CFF3F
:101CE8002CF0010E2C5EFE0E6000B3F0E3FFFF0E39
:101CF8006F008CFF2CF0000E2C5AFF0E6000B3F022
:101D0800E3FFFE0E6F008FFFD9FFFF0E6F008FFFFE
:101D1800DAFF6000AFF0DFFF0A0EE66E000EE66E37
:101D2800FB0EE350E66E000EE66E50EC0BF0FD0E77
:101D38006000AFF0E3FFFD0EE350D8B421D0FE0EF3
:101D48006F008CFF2BF0010E2B5EFE0E6000AFF0D3
:101D5800E3FFFF0E6F008CFF2BF0000E2B5AFF0ED7
:101D68006000AFF0E3FFFE0E6F008FFFD9FFFF0E9C
:101D78006F008FFFDAFFFD0EE350300FDF6E20D0CB
:101D8800FE0E6F008CFF2BF0010E2B5EFE0E600026
:101D9800AFF0E3FFFF0E6F008CFF2BF0000E2B5A05
:101DA800FF0E6000AFF0E3FFFE0E6F008FFFD9FF5C
:101DB800FF0E6F008FFFDAFFFC0E6F008FFFDFFF53
:101DC800FB0EE126FF0EE22212006F0EE66E120EE7
:101DD800E66E830EE66E3A0EE66EF80E6F008FFF23
:101DE800E6FF6F008FFFE6FF6F008FFFE6FF6F00D3
:101DF8008FFFE6FFE5EC07F02BB018D06F0E336EBF
:101E0800120E346E830E356E3A0E366EFC0E60007E
:101E1800CFF0E3FFFD0E6000D3F0E3FFFE0E60009D
:101E2800D7F0E3FFFF0E6000DBF0E3FFFC0E6F006E
:101E38008FFFE6FF6F008FFFE6FF6F008FFFE6FF63
:101E48006F008FFFE6FF000EE66E000EE66E200EB6
:101E5800E66E410EE66EE5EC07F02BB018D0000EEA
:101E6800336E000E346E200E356E410E366EFC0E4B
:101E78006000CFF0E3FFFD0E6000D3F0E3FFFE0E3D
:101E88006000D7F0E3FFFF0E6000DBF0E3FFF60E23
:101E9800E66E090EE66E200EE66E3B0EE66EF80E56
:101EA8006F008FFFE6FF6F008FFFE6FF6F008FFF69
:101EB800E6FF6F008FFFE6FFB4ECD3F06000AFF0F1
:101EC800E6FF6000B3F0E6FF6000B7F0E6FF6000F1
:101ED800BBF0E6FFC2EC05F0E552E552E552E552EB
:101EE8001200E652E652FE0EE36AFD0EE3AE09D09A
:101EF800FC0EE36CFD0EE31ED8B0E32AFE0EE36A87
:101F0800E32AFB0EE3AE06D0FA0EE36CFB0EE31EEB
:101F1800D8B0E32AFA0E6F008CFF2BF0FB0EE350CB
:101F28002B10D8B453D0FF0EE36A12D0FA0EE35048
:101F3800D890E8342B6EFA0E6000AFF0E3FFFB0E8A
:101F4800E350E8342B6EFB0E6000AFF0E3FFFF0EAA
:101F5800E32AFB0EE3AEEAD7FA0E6F008CFF35F0EA
:101F6800FB0E6F008CFF36F0FC0E6F008CFF33F019
:101F7800FD0E6F008CFF34F03550335C365034580A
:101F8800D8A014D0FC0EE3502B6EFA0EE3502B5E53
:101F9800FC0E6000AFF0E3FFFD0EE3502B6EFB0E6E
:101FA800E3502B5AFD0E6000AFF0E3FFD890FB0E14
:101FB800E332FA0EE332FF0EE3502B6E010E2B5E76
:101FC800FF0E6000AFF0E3FFD8A4C6D7FE0EE350C3
:101FD800D8B406D0FC0EE36CFD0EE31ED8B0E32A9D
:101FE800FC0E6F008CFF2BF0FD0E6F008CFF2CF0A9
:101FF800FA0EE126FF0EE2221200E652E652E652FF
:10200800E6524FA010D0FA0E6F008FFFE6FF6F0068
:102018008FFFE6FFF60E6F008FFFE6FF6F008FFF62
:10202800E6FF78EC1BF0F70EE3BE11D0F60E6F005A
:102038008CFF2BF0FC0E6000AFF0E3FFF70E6F0093
:102048008CFF2BF0FD0E6000AFF0E3FF04D0FC0E18
:10205800E36AFD0EE36AFE0EE36AFF0EE36A1ED032
:10206800FA0E6F008FFFE6FF6F008FFFE6FF200E6E
:10207800E66E000EE66ECAEC0DF0FE0EE350010FA0
:102088002B6EFE0E6000AFF0E3FF2B6AFF0EE350ED
:102098002B202B6EFF0E6000AFF0E3FFE150FE0F28
:1020A800D96EE250DA6EFF0EDA22FC0EE350DE5CE7
:1020B800DE50800A2B6EFD0EE350800A2B58D8A004
:1020C800CFD74FB010D0FA0E6F008FFFE6FF6F002A
:1020D8008FFFE6FFF60E6F008FFFE6FF6F008FFFA2
:1020E800E6FF78EC1BF0F80E6F008FFFE6FF6F003D
:1020F8008FFFE6FF3CEC1AF0FC0EE3502B26FD0E9A
:10210800E3502C22F60EE126FF0EE2221200FB0E0F
:10211800E3B604D00101C951D8A411D0FC0E6F0058
:102128008CFF2BF0FD0E6F008CFF2CF0FE0E6F0065
:102138008CFF2DF0FF0E6F008CFF2EF06CD0FB0E85
:10214800E3A04AD0CD0EE66ECC0EE66E4C0EE66EDF
:102158003D0EE66EF80E6F008FFFE6FF6F008FFFF3
:10216800E6FF6F008FFFE6FF6F008FFFE6FFE5ECED
:1021780007F02BB031D0FC0E6F008FFFE6FF6F0029
:102188008FFFE6FF6F008FFFE6FF6F008FFFE6FF10
:10219800CD0EE66ECC0EE66E4C0EE66EBD0EE66E0D
:1021A800E5EC07F02BB018D0000E336E000E346E3D
:1021B800000E356E000E366EFC0E6000CFF0E3FFA9
:1021C800FD0E6000D3F0E3FFFE0E6000D7F0E3FFE2
:1021D800FF0E6000DBF0E3FFFB0EE3A29FD7FF0ECC
:1021E800E3AE9CD7000E336E000E346E000E356ED3
:1021F800000E366EFC0E6000CFF0E3FFFD0E6000AF
:10220800D3F0E3FFFE0E6000D7F0E3FFFF0E60009F
:10221800DBF0E3FF83D7FB0EE126FF0EE22212007C
:10222800080EE126000EE222FE0E356EFF0E366E17
:10223800F50EE124336EFF0EE220346E355033265E
:1022480036503422FF0E6000D3F0E3FFFE0E60002C
:10225800CFF0E3FFF50E6F008CFF35F0F60E6F0040
:102268008CFF36F0F90E6000DBF0E3FFF80E60003B
:10227800D7F0E3FFFA0EE124D96EFF0EE220DA6E02
:10228800000EDE6E000EDD6EFC0EE124D96EFF0E30
:10229800E220DA6E000EDE6E000EDD6EFE0EE12428
:1022A8002B6EFF0EE2202C6E6000AFF0E6FF6000A0
:1022B800B3F0E6FFF10E6F008FFFE6FF6F008FFFB0
:1022C800E6FFF40EE1242B6EFF0EE2202C6E600078
:1022D800AFF0E6FF6000B3F0E6FF3CEC19F0FA0E51
:1022E800E124D96EFF0EE220DA6E6F0078FF35F038
:1022F8006F0074FF36F0F50E6F008CFF33F0F60EAA
:102308006F008CFF34F035503324D96E36503420AA
:10231800DA6E000EDF6EF80EE126FF0EE222E552BD
:10232800E750E15E000EE25A1200E652FF0EE36A41
:102338000101C651D8B41BD0010EE66EFE0EE35063
:10234800E66E010EE66EFC0EE350E66EEDECC9F0AB
:102358006000AFF0E6FF6000B3F0E6FF6000B7F0A2
:10236800E6FF6000BBF0E6FF47ECFEF03DD0FF0E55
:10237800E350D8B404D0FF0EE304D8A41BD0010E58
:10238800E66EFE0EE350E66E000EE66EFC0EE350BF
:10239800E66EEDECC9F06000AFF0E6FF6000B3F068
:1023A800E6FF6000B7F0E6FF6000BBF0E6FF47EC31
:1023B800FEF01AD0000EE66EFE0EE350E66E000E3A
:1023C800E66EFC0EE350E66EEDECC9F06000AFF08F
:1023D800E6FF6000B3F0E6FF6000B7F0E6FF6000DC
:1023E800BBF0E6FF47ECFEF0FF0EE350040D660E6F
:1023F800F324D96E0C0EF420DA6E6000AFF0DEFF25
:102408006000B3F0DEFF6000B7F0DEFF6000BBF0F5
:10241800DEFFFF0EE32AFF0E6F008CFF2BF00F0E7E
:102428002B6486D7E5521200FE0E6F008CFF35F044
:10243800FF0E6F008CFF36F0020E3524D96E000EA9
:102448003620DA6EDF50366E6000D8F02FF0306A32
:10245800316A326A6000C4F032F06000C0F031F0D6
:102468006000BCF030F02F6AFE0E6F008CFF35F074
:10247800FF0E6F008CFF36F0010E3524D96E000E6A
:102488003620DA6EDF50366E6000D8F02BF02C6AFA
:102498002D6A2E6A6000B0F02EF06000ACF02DF0CE
:1024A8002C6A2B6AFE0E6F008FFFD9FFFF0E6F009C
:1024B8008FFFDAFFDF50336E346A356A366A6000A0
:1024C800CCF036F0356A346A336A2B5033122C500C
:1024D80034122D5035122E5036122F5033123050E0
:1024E80034123150351232503612FE0E6F008CFF06
:1024F80031F0FF0E6F008CFF32F0030E3124D96EDD
:10250800000E3220DA6EDF5033102B6E34502C6EF2
:1025180035502D6E36502E6EE552E5521200E652B9
:10252800FE0E6F008CFF2BF0050E2B6402D0FE0E02
:10253800E36AFD0EE350D8B40CD0FE0EE350356EBE
:10254800366ADB0E3524D96E020E3620DA6E000E9E
:10255800DF6EFE0EE350140D450E356EF70E366E27
:10256800F3503526F4503622FE0EE350336E346AAB
:10257800DB0E3324D96E020E3420DA6EDF50352696
:10258800000E36226000D7F0F6FF6000DBF0F7FFA0
:10259800000EF86E0800FF0E6F00D7FFE3FFFE0E77
:1025A800E350140D450E356EF70E366EF350352692
:1025B800F45036226000D7F0E6FF6000DBF0E6FF5B
:1025C8003CEC1AF0FE0EE350356E366ADB0E35240D
:1025D800D96E020E3620DA6EDF2ADF50356E366A83
:1025E8002B50355C2C503658D8A00CD0FE0EE3503A
:1025F800356E366ADB0E3524D96E020E3620DA6E59
:10260800000EDF6EFF0E6F008CFF2BF0E552E552D7
:10261800E5521200586A0D0E586401D019D058506E
:10262800020D000EF324D96E030EF420DA6EDE508C
:10263800DE10D8B40BD05850020D000EF324D96E1A
:10264800030EF420DA6EDE06000EDD5A582AE3D7B0
:1026580057EC2AF02B50D8B412003CEC24F02B5045
:10266800586E740E5818D8A41CD05850E66E89ECD1
:1026780029F00D0EE66E89EC29F00A0EE66E89EC5B
:1026880029F001019E970A0E5718D8B49E879E9983
:10269800810E5724D96EDA6A010EDA22000EDF6E37
:1026A800576A01019EA911D00C0E57600ED05850E0
:1026B800E66E89EC29F0810E5724D96EDA6A010E8C
:1026C800DA22600063F1DFFF572A230E5818D8A4D6
:1026D80002D001019E81560E5818D8A402D00101DB
:1026E8009E83760E5818D8A402D001019E85540EF8
:1026F8005818D8A412005850E66E89EC29F0010148
:102708009E979E89576A1200E652E652FE0EE36AC9
:10271800FF0EE36A43D0D00E356EFF0E366EFE0E06
:102728006F008CFF33F0FF0E6F008CFF34F00A0E41
:1027380033026F00CCFF31F06F00D0FF32F034026B
:10274800F3503226FC0E6F008FFFD9FFFD0E6F008D
:102758008FFFDAFF6F007BFFF6FF6F0077FFF7FF51
:10276800000EF86E0800F5503126000E3222355062
:10277800312636503222FE0E6000C7F0E3FFFF0E0E
:102788006000CBF0E3FFFC0E6F008FFFD9FFFD0E5A
:102798006F008FFFDAFFDE2A000EDD22D00E356EC5
:1027A800FF0E366EFC0E6F008FFFD9FFFD0E6F0017
:1027B8008FFFDAFF6F007BFFF6FF6F0077FFF7FFF1
:1027C800000EF86E0800F550336E346A3550332623
:1027D80036503422345004E10A0E335CD8A09BD71B
:1027E800FE0E6F008CFF2BF0FF0E6F008CFF2CF09D
:1027F800E552E552E552E5521200E652E652E6523B
:10280800E652FA0E6F008CFF35F0FB0E6F008CFF5E
:1028180036F0D89035363636D89035363636E10E1D
:102828003524F66EF50E3620F76EF86A000EF8229B
:1028380009006F00D4FF33F009006F00D4FF34F0B3
:1028480009006F00D4FF35F009006F00D4FF36F09F
:10285800FC0E6000CFF0E3FFFD0E6000D3F0E3FF55
:10286800FE0E6000D7F0E3FFFF0E6000DBF0E3FF31
:10287800F80E6F008CFF2BF0F90EE3502B10D8B434
:102888001DD0FB0EE3BE1AD0FB0EE35008E1FA0E92
:102898006F008CFF2BF0020E2B5ED8A00FD0E150FA
:1028A800FC0FD96EE250DA6EFF0EDA22800EDE26B9
:1028B800510EDE22010EDE22000EDE22FC0E6F001B
:1028C8008CFF2BF0FD0E6F008CFF2CF0FE0E6F00BE
:1028D8008CFF2DF0FF0E6F008CFF2EF0F80EE12616
:1028E800FF0EE222120000000000000000000000BD
:1028F80000000000000000000000000000000000D0
:1029080000000000000000000000000000000000BF
:1029180000000000000000000000000000000000AF
:10292800000000000000000000000000000000009F
:10293800000000000000000000000000000000008F
:10294800000000000000000000000000000000007F
:10295800000000000000000000000000000000006F
:10296800000000000000000000000000000000005F
:1029780000000000000000FB41925E000000000023
:10298800000000000000000000000000000000003F
:10299800000000000000000000000000000000002F
:1029A8000000000000000000001900000000000105
:1029B800000000000000000000000000000000000F
:1029C80000000000000000000000000000000000FF
:0129D80000FE
:1029DA00360EE66E100EE66E640EE66E000EE66EBB
:1029EA00F90E6F008FFFE6FF6F008FFFE6FFF8EC2E
:1029FA001DF02B50D8A402D0000E19D0900EE66E0E
:102A0A00100EE66E640EE66E000EE66EF70E6F00AE
:102A1A008FFFE6FF6F008FFFE6FFF8EC1DF02B50EB
:102A2A00D8B4EAD7FF0EE350D8A403D0010E2B6E18
:102A3A003CD0E150F70FD96EE250DA6EFF0EDA227F
:102A4A006F0078FF2CF26F0078FF2DF26F0078FF8D
:102A5A002EF26F0078FF2FF2E150F30FD96EE25099
:102A6A00DA6EFF0EDA226F0078FF30F26F0078FF1D
:102A7A0031F26F0078FF32F26F0078FF33F2E150E3
:102A8A00F30FD96EE250DA6EFF0EDA226F0078FF8A
:102A9A0034F26F0078FF35F26F0078FF36F26F007C
:102AAA0078FF37F202019D87C1D7F30EE126FF0EA8
:102ABA00E2221200E652E652E652E652FC0EE36ABF
:102ACA00FD0EE36AFE0EE36AFF0EE36AF80EE3A068
:102ADA0028D0FC0EE3502B6EF40EE3502B26FC0E8E
:102AEA006000AFF0E3FFFD0EE3502B6EF50EE350EE
:102AFA002B22FD0E6000AFF0E3FFFE0EE3502B6EBB
:102B0A00F60EE3502B22FE0E6000AFF0E3FFFF0E3D
:102B1A00E3502B6EF70EE3502B22FF0E6000AFF04E
:102B2A00E3FFD890F40EE336F50EE336F60EE336FD
:102B3A00F70EE336D890FB0EE332FA0EE332F90EC3
:102B4A00E332F80EE332F80EE350C0E1F90EE35037
:102B5A00BDE1FA0EE350BAE1FB0EE350D8A4B6D7B2
:102B6A00FC0E6F008CFF2BF0FD0E6F008CFF2CF01B
:102B7A00FE0E6F008CFF2DF0FF0E6F008CFF2EF003
:102B8A00F40EE126FF0EE2221200E652E652E65267
:102B9A00E652F80E6F008CFF35F0F90E6F008CFFCD
:102BAA0036F0FF0E6000DBF0E3FFFE0E6000D7F0A8
:102BBA00E3FFFA0E6F008CFF35F0FB0E6F008CFFFF
:102BCA0036F0FD0E6000DBF0E3FFFC0E6000D7F08C
:102BDA00E3FFE150FE0FD96EE250DA6EFF0EDA2201
:102BEA006F007CFF35F0010EDE266F007CFF36F0A9
:102BFA00000EDD226000D7F0F6FF6000DBF0F7FF81
:102C0A00000EF86EE150FC0FD96EE250DA6EFF0E3C
:102C1A00DA226F007CFF35F0010EDE266F007CFFA2
:102C2A0036F0000EDD226000D7F0D9FF6000DBF03D
:102C3A00DAFF1F0EF76403D00800F55007D06F00C3
:102C4A00DBFFE9FF6F00DFFFEAFFEF50DF6EDF50C7
:102C5A00D8A4BFD7F80EE126FF0EE2221200A10E79
:102C6A000001666F050E676F60009BF1E6FF60006A
:102C7A009FF1E6FF5DEC27F03D01149F200E156FD2
:102C8A00030E166F040E196F020E1C6F830E146F5B
:102C9A00148F300EE66E570EE66E050EE66E000EC7
:102CAA00E66E27EC22F0460EE66E5DEC24F0410E4D
:102CBA00E66E7DEC24F0500EE66E000EE66E000E17
:102CCA00E66E000EE66E27EC22F0530EE66E7DEC01
:102CDA0024F0020EE66E9DEC28F0500EE66E000E11
:102CEA00E66E000EE66E000EE66E27EC22F0510E3E
:102CFA00E66E5DEC24F03D01149F020E166F148FF0
:102D0A001A933F0E3B01FD17FD9BFD51F90B02097A
:102D1A00FD6FE70EFD17FD81A10EF96F050EFA6F23
:102D2A00000EFB6FFC9B3D011A831200E652E6522D
:102D3A00E652E652010E356E000E366EFC0E60004B
:102D4A00D7F0E3FFFD0E6000DBF0E3FF600054F311
:102D5A0036F0FF0E3626E150FC0FD96EE250DA6EDD
:102D6A00FF0EDA22362803D0D890DE36DD36E82E7A
:102D7A00FBD7FE0EE36AFF0EE36A29D0FA0EE3A040
:102D8A001CD0FC0E6F008CFF35F0FD0E6F008CFF1F
:102D9A0036F0FE0E6F008CFF2BF035502B12FE0E14
:102DAA006000AFF0E3FFFF0E6F008CFF2BF0365090
:102DBA002B12FF0E6000AFF0E3FFD890FD0EE33256
:102DCA00FC0EE332D890FB0EE332FA0EE332FA0E2F
:102DDA006F008CFF2BF0FB0EE3502B10D8A4CED73C
:102DEA00FE0E6F008CFF2BF0FF0E6F008CFF2CF095
:102DFA00FA0EE126FF0EE222120068EC2AF0000E1B
:102E0A00E66E60009BF1E6FF60009FF1E6FF0DECC5
:102E1A001CF0BC94FE0E6F008FFFE6FF6F008FFF61
:102E2A00E6FF3CEC1AF02C5004E1410E2B5CD8A0D2
:102E3A0010D0FE0E6F008CFF35F0FF0E6F008CFF76
:102E4A0036F0400E3524D96E000E3620DA6E000EAA
:102E5A00DF6E3B01FC9FFE0E6F008FFFE6FF6F00E7
:102E6A008FFFE6FF3CEC1AF06000AFF0F7FB600062
:102E7A00B3F0F8FB3B01FC8FFE0E6F008FFFE6FFFD
:102E8A006F008FFFE6FFFC0EE66EFF0EE66E040E85
:102E9A00E66E39EC21F06BEC2AF0FE0E6F008FFF24
:102EAA00E6FF6F008FFFE6FF3CEC1AF02B500101A2
:102EBA00E3272C50E423000EE523000EE623E55217
:102ECA00E5521200E652FF0EE36AFE0EE350D8B452
:102EDA000CD00101CC51D8B452D05F50D8B44FD0E5
:102EEA005F6AFF0EE36AE32A4AD00101CC51D8A4F3
:102EFA0046D05F50D8A443D0CC6B010E5F6E000E53
:102F0A00E66E000EE66ECBEC21F0E5526F009CFFF8
:102F1A0042F0E5526F009CFF41F0E5526F009CFFC2
:102F2A0040F0E5526F009CFF3FF0E5526F009CFFB6
:102F3A003EF0E5526F009CFF3DF0E5526F009CFFAA
:102F4A003CF0E5526F009CFF3BF06000ECF033F080
:102F5A006000F0F034F06000F4F035F06000F8F052
:102F6A0036F0580E33240101956F020E3420966F05
:102F7A00000E3520976F000E3620986FB2D7FF0EDD
:102F8A006F008CFF2BF0E552E5521200E150FC0F66
:102F9A00D96EE250DA6EFF0EDA22000EDE14336EBC
:102FAA00000EDE14346E800EDE14356E7F0EDE14D3
:102FBA00366E3350341035103610D8A408D0FC0EB3
:102FCA00E36AFD0EE36AFE0EE36AFF0EE36AE1506E
:102FDA00F80FD96EE250DA6EFF0EDA22000EDE1416
:102FEA00336E000EDE14346E800EDE14356E7F0EE4
:102FFA00DE14366E3350341035103610D8A408D08B
:10300A00F80EE36AF90EE36AFA0EE36AFB0EE36A64
:10301A00E150FC0FD96EE250DA6EFF0EDA22F80E9A
:10302A00E350DE180DE1F90EE350DE1809E1FA0E5D
:10303A00E350DE1805E1FB0EE350DE18D8B402D0E7
:10304A002B9001D02B80F80EE126FF0EE22212000F
:10305A00E652E652E652FD0EE36AFE0EE36AFF0E00
:10306A00E36AFF0EE350080D110EF324F66EF50E17
:10307A00F420F76EF86A000EF822F90EE350090000
:10308A00F55CFA0EE3500900F558FB0EE35009000F
:10309A00F558FC0EE3500900F558D8B020D0FF0EC1
:1030AA00E350080D040EF326000EF422110EF32449
:1030BA00F66EF50EF420F76EF86A000EF822090093
:1030CA006F00D4FF35F009006F00D4FF36F0FD0E13
:1030DA006000D7F0E3FFFE0E6000DBF0E3FFFF0EB7
:1030EA00E32AFF0E6F008CFF2BF0190E2B64B9D761
:1030FA00FD0E6F008CFF2BF0FE0E6F008CFF2CF084
:10310A00F90EE126FF0EE22212003D0117ABFDD7B0
:10311A00BC84BC80010EE66E76EC1EF020C224F25E
:10312A0020EE20F26F0078FF35F06F0074FF36F062
:10313A006000D8F035F0366A0F0E351602012551B7
:10314A003518F00B3518256F25510F0B4009256FDF
:10315A00BF902551E66E78EC26F002012451E66E06
:10316A0078EC26F0BF8022C224F220EE22F26F0011
:10317A0078FF35F06F0074FF36F06000D8F035F054
:10318A00366A0F0E3516020125513518F00B35181F
:10319A00256F25510F0B5009256FBF902551E66EFB
:1031AA0078EC26F002012451E66E78EC26F03D0117
:1031BA0017ABFDD7BF80000EE66E76EC1EF012004C
:1031CA00E652E652E652E6526000BCF733F060007F
:1031DA00C0F734F06000C4F735F06000C8F736F085
:1031EA00FC0E6000CFF0E3FFFD0E6000D3F0E3FFBA
:1031FA00FE0E6000D7F0E3FFFF0E6000DBF0E3FF96
:10320A00F80E6F008CFF33F0F90E6F008CFF34F06C
:10321A00FA0E6F008CFF35F0FB0E6F008CFF36F054
:10322A00FC0E6000CFF0E3FFFD0E6000D3F0E3FF79
:10323A00FE0E6000D7F0E3FFFF0E6000DBF0E3FF55
:10324A00FF0EE39EFC0E6F008CFF2BF0FD0E6F004D
:10325A008CFF2CF0FE0E6F008CFF2DF0FF0E6F001E
:10326A008CFF2EF0F80EE126FF0EE2221200E65243
:10327A00E652FA0E6F008CFF35F0FB0E6F008CFFE2
:10328A0036F0FF0E6000DBF0E3FFFE0E6000D7F0C1
:10329A00E3FF0001AA6BAB6B21D0F80E6F008FFF22
:1032AA00E6FF6F008FFFE6FFFC0EE1242B6EFF0E98
:1032BA00E2202C6E6000AFF0E6FF6000B3F0E6FF9C
:1032CA00F80E6F008FFFE6FF6F008FFFE6FF53ECEB
:1032DA00A7F02B500001AA272C50AB23E150FE0F78
:1032EA00D96EE250DA6EFF0EDA226F007BFFF6FF2C
:1032FA006F0077FFF7FF000EF86E0800F55000091F
:10330A00D8A4CBD76000A8F22BF06000ACF22CF066
:10331A00F80EE126FF0EE222120000000000000073
:10332A000000000000000000000000000000000093
:10333A000000000000000000000000000000000083
:10334A00620FA40F9B0FA089B03DA4DE133DA4DE3B
:10335A00133D000000000000000000000000000013
:10336A000000000000000000000000000000000053
:10337A000000000000000000000000000000000043
:10338A000000000000000000000000000000000033
:10339A000000000000000000000000000000000023
:1033AA000000000000000000000000000000000013
:1033BA00000000000000000057194200000100014F
:1033CA0000010000FE0E6F008CFF35F0FF0E6F004B
:1033DA008CFF36F0420E3524D96E000E3620DA6E96
:1033EA00400EDF6040D0FE0E6F008CFF35F0FF0EFE
:1033FA006F008CFF36F0400E3524D96E000E362051
:10340A00DA6EDF50366EFE0E6F008CFF33F0FF0E61
:10341A006F008CFF34F036503324D96E000E3420FE
:10342A00DA6EFD0E6F008FFFDFFFFE0E6F008CFF5E
:10343A0035F0FF0E6F008CFF36F0400E3524D96E42
:10344A00000E3620DA6EDF2AFE0E6F008CFF35F092
:10345A00FF0E6F008CFF36F0420E3524D96E000E37
:10346A003620DA6EDF2AE552E552E5521200E652BC
:10347A00E652FC0E6F008CFF35F0FD0E6F008CFFDC
:10348A0036F0FF0E6000DBF0E3FFFE0E6000D7F0BF
:10349A00E3FF11D0FC0EE350010F2B6EFC0E60000F
:1034AA00AFF0E3FF2B6AFD0EE3502B202B6EFD0ECF
:1034BA006000AFF0E3FFFC0E6F008FFFF6FFFD0E1A
:1034CA006F008FFFF7FF000EF86E1F0EF76403D030
:1034DA000800F55007D06F00DBFFE9FF6F00DFFF40
:1034EA00EAFFEF500009D8A4D5D7FC0E6F008CFF75
:1034FA002BF0FD0E6F008CFF2CF0FE0EE3502B5EBE
:10350A00FF0EE3502C5AE552E552E552E5521200FD
:10351A00BEA002D0010E01D0000EFF0A366EBE50C8
:10352A003618FE0B3618BE6E010E0101D327000EA7
:10353A00D423D523D623010E9127000E9223932359
:10354A009423E9ECD0F00101C36BCDB802D0CDAA27
:10355A002ED0A62B4B0EA6651200BD98BEA402D093
:10356A00010E01D0000EFF0A366E36463646BE50B0
:10357A003618FB0B3618BE6EBD9ABEA202D0010EDB
:10358A0001D0000EFF0A366E3646BE503618FD0BC5
:10359A003618BE6EBEA002D0010E01D0000EFF0A80
:1035AA00366EBE503618FE0B3618BE6ED6D7A66BD0
:1035BA001200E652E652FF0EE36AE386FE0EE36A63
:1035CA00FD0E6F008CFF36F0FE0E6F008CFF35F09B
:1035DA00D89036343534366EFE0E6000DBF0E3FFE9
:1035EA00E150FD0FD96EE250DA6EFF0EDA22D89062
:1035FA00DF36E150FE0FD96EE250DA6EFF0EDA22A4
:10360A00FC0EE350DE5CD8A00DD0FC0E6F008CFFE0
:10361A0036F0E150FE0FD96EE250DA6EFF0EDA2272
:10362A003650DF5EFF0EE3502B6E010E2B5EFF0E4F
:10363A006000AFF0E3FFD8A4C3D7FE0E6F008CFF83
:10364A002BF0E552E552E552E5521200A00EE66E65
:10365A000F0EE66E640EE66E000EE66EF90E6F0051
:10366A008FFFE6FF6F008FFFE6FFF8EC1DF02B508F
:10367A00D8A402D0000E19D0A00EE66E0F0EE66E88
:10368A00640EE66E000EE66EF70E6F008FFFE6FF21
:10369A006F008FFFE6FFF8EC1DF02B50D8B4EAD785
:1036AA00FF0EE350D8A403D0010E2B6E17D0FD0EE7
:1036BA006F008CFF26F2FE0E6F008CFF27F2FB0EC6
:1036CA006F008CFF28F2FC0E6F008CFF29F20F0EA0
:1036DA0002012B6F9B0E2A6F9D85E6D7FB0EE12612
:1036EA00FF0EE2221200E652E652E652FD0EE36AAD
:1036FA00FE0EE36A1FD0F90E6F008FFFE6FF6F0020
:10370A008FFFE6FFFD0EE350E66E000EE66ECAEC92
:10371A000DF0FD0EE350010F2B6EFD0E6000AFF0B1
:10372A00E3FF2B6AFE0EE3502B202B6EFE0E600089
:10373A00AFF0E3FFFD0E6F008CFF35F0FE0E6F0059
:10374A008CFF36F0FB0E6F008CFF33F0FC0E6F001F
:10375A008CFF34F035503324D96E36503420DA6E6B
:10376A00DF50366EFF0E6000DBF0E3FFFF0EE35022
:10377A00D8A4C1D7F90EE126FF0EE2221200E652C2
:10378A0013D0FF0EE36AE38C25D0FF0EE36AE384CD
:10379A00E38820D0540E366EFF0E6000DBF0E3FFA4
:1037AA0019D0FF0EE36A16D0FE0EE350356E366A64
:1037BA003650000AD8A4E5D73550000AD8B4E1D764
:1037CA00010AD8B4E2D7030AD8B4E4D7010AD8B4B4
:1037DA00E8D7D7D7450EE66E09EC29F0FD0E6F0043
:1037EA008CFF36F0FF0EE3503624E66E81EC22F0B1
:1037FA00FFEC29F0FB0E6F008FFFE6FF6F008FFFD3
:10380A00E6FF02EC17F0FB0EE126FF0EE2221200A1
:10381A00FE0E6F008CFF35F0FF0E6F008CFF36F046
:10382A00420E3524D96E000E3620DA6E000EDF6E97
:10383A00FE0E6F008CFF35F0FF0E6F008CFF36F026
:10384A00400E3524D96E000E3620DA6E000EDF6E79
:10385A00FE0E6F008CFF35F0FF0E6F008CFF36F006
:10386A00410E3524D96E000E3620DA6E000EDF6E58
:10387A00FD0EE350D8B411D0400EE66E000EE66E8F
:10388A00000EE66E000EE66EFA0E6F008FFFE6FF80
:10389A006F008FFFE6FF8CECE8F0E552E552E55247
:1038AA001200070EBE6EBD6ABA6A230EBF6EBB6AED
:1038BA00070EBC6EC66A0C0EC76EC268BF0EC36E18
:1038CA00900EC46E0C0EC56E3A01706B606B3C0EA6
:1038DA00506F806B906B40690C0E716F0C0E916F7C
:1038EA00816B830E516F416B970E616F826B926B86
:1038FA00426B526B626B726B43695369636973699A
:10390A00070E836F93690F0EE86F130EDE6F160EA4
:10391A000E6F1E0E136F080EC06F100E196F090E70
:10392A00C16F1F0E156F130E166F170EE56F140E6B
:10393A00DF6F1200E652E652E652E652800E390175
:10394A00686F070E696F626B636B7C6B786B776B62
:10395A00766B3F0E7B6F7A6979697D6BD50E356E12
:10396A00000E366EFE0E6000D7F0E3FFFF0E600019
:10397A00DBF0E3FFFF0EE124D96EFF0EE220DA6EE0
:10398A00DF50676FD50E666FFC0EE36AFD0EE36AC1
:10399A00FD0EE124D96EFF0EE220DA6EDF50636F6E
:1039AA00626B69390F0B366E36280001D46F390104
:1039BA0069510F0B366E36280001D56FE552E55274
:1039CA00E552E55212003E01E6516F009CFB2BF0D6
:1039DA002C6A6000ACF02CF02B6A2B26000E2C22ED
:1039EA0002013851020D000EF324D96E020EF420A2
:1039FA00DA6E6000AFF0DEFF6000B3F0DDFF0201B7
:103A0A00382B0D0E386503D0010E3B6F1200600093
:103A1A00E0F836F020EE39F26F0078FF33F06F00ED
:103A2A0074FF34F0362A03D0D89034323332362E2B
:103A3A00FBD733A0E4D743EC2AF0020138510F0B2D
:103A4A00E66EBFEC29F0010E0101DF27000EE0232C
:103A5A00E123E2231200E652E6524B504C10D8A45E
:103A6A0009D0FE0E60002FF1E3FFFF0E600033F174
:103A7A00E3FF16D0FF0E356EFF0E366E60002CF196
:103A8A0033F0600030F134F03550332636503422AA
:103A9A00FE0E6000CFF0E3FFFF0E6000D3F0E3FFFD
:103AAA00FB0E6F008CFF1CF303011D6BFE0E6F00F3
:103ABA008FFFE6FF6F008FFFE6FF1C0EE66E030E18
:103ACA00E66EF80E6F008FFFE6FF6F008FFFE6FFCE
:103ADA0001EC10F0FB0EE126FF0EE2221200E65284
:103AEA00E652FC0EE3509F0F356EFD0E6F008CFF01
:103AFA0036F0FF0E3622365006E11A0E355CD8B083
:103B0A0002D0010E01D0000E356E366AFE0E60003C
:103B1A00D7F0E3FFFF0E6000DBF0E3FFFE0E6F005D
:103B2A008CFF2BF0FF0EE3502B10D8B40DD0FC0EF7
:103B3A006F008CFF2BF0FD0E6F008CFF2CF05F0ED8
:103B4A002B16000E2C1608D0FC0E6F008CFF2BF0E3
:103B5A00FD0E6F008CFF2CF0E552E552E552E5525E
:103B6A001200E652E652FC0EE350BF0F356EFD0E10
:103B7A006F008CFF36F0FF0E3622365006E11A0E21
:103B8A00355CD8B002D0010E01D0000E356E366A0F
:103B9A00FE0E6000D7F0E3FFFF0E6000DBF0E3FFEC
:103BAA00FE0E6F008CFF2BF0FF0EE3502B10D8B4E3
:103BBA000DD0FC0E6F008CFF2BF0FD0E6F008CFFFA
:103BCA002CF0200E2B12000E2C1208D0FC0E6F00C7
:103BDA008CFF2BF0FD0E6F008CFF2CF0E552E552A6
:103BEA00E552E5521200FA0E6F008CFF35F0FB0E1B
:103BFA006F008CFF36F0FC0EE3503526FD0EE350C5
:103C0A003622FE0EE350355C3650800A2B6EFF0ECC
:103C1A00E350800A2B58D8B002D0000E1ED0FA0EFC
:103C2A006F008CFF35F0FB0E6F008CFF36F0FC0E38
:103C3A00E350355EFD0EE350365AFE0E6F008CFFE0
:103C4A002BF035502B5CFF0EE350800A2B6E36505A
:103C5A00800A2B58D8A0E1D7010E2B6EFA0EE12666
:103C6A00FF0EE2221200FD0E6F008CFF2BF0FE0EFB
:103C7A00E3502B10D8A402D0000E1AD0FF0EE35046
:103C8A00D8B418D002019DA1F7D720EE3CF2FD0E60
:103C9A006F008FFFE9FFFE0E6F008FFFEAFF600ED5
:103CAA006F006FFFEBFFE806FBE29DA3E5D7010E6D
:103CBA002B6E13D0FD0E6F008FFFD9FFFE0E6F0023
:103CCA008FFFDAFF00EE3CF2600E6F006FFFEBFF32
:103CDA00E806FBE202019D81CFD7E552E552E552A3
:103CEA001200FF0EE350D8B422D03D01149F555064
:103CFA00D8A411D0010E556E6F0050F454F06F0025
:103D0A0054F453F06F0058F4BFF06F0070F4BEF033
:103D1A006F0064F4BDF0156B158D159B159F030E8E
:103D2A00166F0F0E196F1C6B830E146F14D055503B
:103D3A00D8B412D03D01149F60004FF115FD600008
:103D4A00FFF216FD6000FBF21CFD6000F7F219FDA0
:103D5A00600053F114FD148FE5521200FA0E6F0041
:103D6A008FFFE6FF6F008FFFE6FF6F008FFFE6FF12
:103D7A006F008FFFE6FFFA0E6F008FFFD9FFFB0E71
:103D8A006F008FFFDAFF6F007BFFE6FF6F007BFF9C
:103D9A00E6FF6F007BFFE6FF6F007BFFE6FF0FEC9D
:103DAA00C6F0FE0E6F008FFFD9FFFF0E6F008FFF68
:103DBA00DAFF6000AFF0DEFF6000B3F0DEFF600004
:103DCA00B7F0DEFF6000BBF0DEFFFA0EE126FF0E61
:103DDA00E2221200FE0EE304FF0E6F008CFF2BF0AE
:103DEA00040E2B5AD8A00CD0000E356E040E366E77
:103DFA00FE0E6000D7F0E3FFFF0E6000DBF0E3FF8A
:103E0A003B01DC9FFE0E6F008FFFD7FBFF0E6F009A
:103E1A008FFFD8FB000ECF6F010ECE6FDC8FDC8DCB
:103E2A00FE0E6F008CFF35F0FF0E6F008CFF36F030
:103E3A0035500101D7273650D823000ED923000E5A
:103E4A00DA23E552E5521200FE0E6F008CFF35F0C0
:103E5A00FF0E6F008CFF36F0040E3524D96E000E6B
:103E6A003620DA6EDF50D8A423D0FE0E6F008CFF06
:103E7A0035F0FF0E6F008CFF36F0050E3524D96E33
:103E8A00000E3620DA6EDF50D8A412D0FE0E6F0074
:103E9A008CFF35F0FF0E6F008CFF36F0040E3524D0
:103EAA00D96E000E3620DA6E010EDF6E010E01D0D9
:103EBA00000E2B6EE552E552120021EE00F100EEE3
:103ECA0000F2A00E6F007BFFEEFFE806FBE2A10EF8
:103EDA00D95EE95E02019DB50CD00F0E276F620E06
:103EEA00266F0F0E296FA40E286F0F0E2B6F9B0ED5
:103EFA002A6F9DB71200A00E2C6F890E2D6FB00E7F
:103F0A002E6F3D0E2F6FA40E306FDE0E316F130E23
:103F1A00326F3D0E336FA40E346FDE0E356F130E03
:103F2A00366F3D0E376F1200000E3B01F96F100E0F
:103F3A00FA6F000EFB6F3D0EF16F110EF06F030E5C
:103F4A00FD6F000EF86F010EF76F000EEF6F010E96
:103F5A00EE6F150EFF6FFE6B3901A293A291A29725
:103F6A00A2959283928192879285F16B010EF26FEC
:103F7A00040EF36F020EF46F030EF76FD29E39012F
:103F8A00550EEF6FAA0EEF6FEF81D28E3B01FC6BDD
:103F9A0012003E01DE6BDF6BE06BE16BE46BE56BFD
:103FAA00EA6B400EEC6FF16BF36B080EF46FF56B76
:103FBA00F66BF76BF96B5B0EFA6F270EFB6FFC6BF8
:103FCA00020EFD6FFE6B3F0EFF6F840EF86F390114
:103FDA00A1959185020EE66E550EE66E000EE66E0E
:103FEA0039EC28F03901A1979187020EE66E550E39
:0C3FFA00E66E000EE66E25EC28F01200CA
:104008006000ACF001F06000B0F002F06000CCF0AD
:1040180003F06000D0F004F06000D8F005F014EE72
:10402800D4F33901A1970001915192119311D8B499
:104038000CD001D80AD00500FA6E9151FD6E92514C
:10404800FE6E9351FF6EFA501200600014F036F0C5
:10405800600010F034F060000CF033F0600008F0FD
:104068002CF0600004F02BF01100E652D2AE03D021
:10407800366A362A01D0366AFF0E6000DBF0E3FFAD
:10408800FE0EE124D96EFF0EE220DA6EDF50030B3C
:104098003901E16FFD0E6F008FFFE0F9FC0E6F0034
:1040A8008FFFE3F93F0EE517E585D29E550EE66FC3
:1040B800AA0EE66FE583E5B3FED7E595FF0EE3B0FC
:1040C80002D0D29E01D0D28EE552E552E552E55299
:1040D800120002013B51D8A41200386B3A0140513A
:1040E8006E0040F92BF02C6A6000ACF02CF02B6AC3
:1040F8002B26000E2C22770E2B140201396F3C0E52
:104108002C143A6F040EE66E550EE66E000EE66E3F
:1041180039EC28F0D00EE66E390EE66E000EE66E2B
:1041280025EC28F043EC2AF0020138510F0BE66E1B
:10413800BFEC29F0390191951200FE0E6F008CFF3B
:1041480035F0FF0E6F008CFF36F0030E3524D96E64
:10415800000E3620DA6E000EDF6EFE0E6F008CFF4A
:1041680035F0FF0E6F008CFF36F0050E3524D96E42
:10417800000E3620DA6E000EDF6EFE0E6F008CFF2A
:1041880035F0FF0E6F008CFF36F0070E3524D96E20
:10419800000E3620DA6E000EDF6EE552E552120090
:1041A800E652D28AD2AE03D0366A362A01D0366AAF
:1041B800FF0E6000DBF0E3FFD29E550ED46EAA0E10
:1041C800D46ED49038019F6B9E6B080E9D6F550E70
:1041D800D46EAA0ED46ED480FF0EE3B002D0D29E65
:1041E80001D0D28E39018287828382818285868737
:1041F80086858387818185918981889D818581874D
:10420800869DE5521200FE0E6F008CFF2BF0020E09
:104218002B180DE1FF0EE350D8A409D0FC0EE35093
:104228001C0F2B6EFD0E6F008CFF2CF017D0FF0EAD
:10423800366EFE0EE3503624356ED50E2B6E0A0E02
:104248002C6E352A03D02C342C322B32352EFBD74A
:10425800010E2B16000E2C161E0E2B26000E2C22DD
:10426800E552E552E552E5521200E652E652FB0EDF
:10427800E124356EFF0EE220366EFF0E6000DBF0A3
:10428800E3FFFE0E6000D7F0E3FFFE0EE1242B6E85
:10429800FF0EE2202C6E6000AFF0E6FF6000B3F086
:1042A800E6FFF90E6F008FFFE6FF6F008FFFE6FF56
:1042B800000EE66E000EE66E3CEC19F0E552E55293
:1042C800E552E750E15E000EE25A1200E652E6526D
:1042D800E652E652FF0E336EFF0E346EFF0E356E59
:1042E8007F0E366EFC0E6000CFF0E3FFFD0E60001F
:1042F800D3F0E3FFFE0E6000D7F0E3FFFF0E60008F
:10430800DBF0E3FFFC0E6F008CFF2BF0FD0E6F005F
:104318008CFF2CF0FE0E6F008CFF2DF0FF0E6F004F
:104328008CFF2EF0FA0EE126FF0EE2221200390170
:104338009695340EE66E520EE66E000EE66E99EC19
:1043480027F039019697640EE66E4E0EE66E000E63
:10435800E66E85EC27F03D01D46BD66BD86BB00EBA
:10436800DA6F800EDB6FDC6B820EDD6F060EDE6FA0
:10437800DF6BE06BE16BE26B0001C36B5B6A400EC5
:104388005A6E596AC26BC16B390196851200060EC6
:10439800E126000EE2223901989D010191510001A8
:1043A800C46F010192510001C56F010193510001D1
:1043B800C66F010194510001C76FC86BC96BCA6B06
:1043C800CB6B3901988DF80E6F008CFF2BF0F90E2E
:1043D800E3502B1020EEC4F0080E2B6EF80E6F0081
:1043E8007BFFE3FFE8282B2EFAD71200780E6F0028
:1043F800A0FF32FD000E6F00A0FF33FD640E6F00BA
:10440800A0FF34FD000E6F00A0FF35FD23EE02F182
:104418006F0078FF06FD6F0078FF07FD6F0078FFDB
:1044280008FD6F0074FF09FD23EE06F16F0078FFA9
:1044380012FD6F0078FF13FD6F0078FF14FD6F0009
:1044480074FF15FD12000001846B856B866B876B0A
:1044580000F00400010E00018427000E8523862346
:104468008723FC0E6F008CFF2BF084512B5CFD0E14
:104478006F008CFF2BF085512B58FE0E6F008CFFC0
:104488002BF086512B58FF0E6F008CFF2BF08751B5
:104498002B58D8B0DDD7E552E552E552E552120067
:1044A800000E3B01D96F100EDA6F000EDB6F3F0E66
:1044B800D16FBB0ED06F030EDD6F000ED86F010EEB
:1044C800D76F000ECF6F010ECE6F1C0EDF6F3D0E43
:1044D800DE6F3901A597A595A59BA5999597959503
:1044E800959B9599D29E3901550EEF6FAA0EEF6FE5
:1044F800EF81D28E3B01DC6B120068EC2AF0000ED3
:10450800E66E60009BF1E6FF60009FF1E6FF0DECB0
:104518001CF0BC943B01FC9F000EF86F010EF76F76
:10452800FC8FFF0EE350E66E60009BF1E6FF600033
:104538009FF1E6FFE7EC19F06BEC2AF0010E0101A0
:10454800E327000EE423E523E623E5521200E652B2
:10455800FF0EE36AE32AFD0E6F008CFF2BF0200E9E
:104568002B1804E1FE0EE350D8B412D0FD0EE35030
:10457800F70F356EFE0E6F008CFF36F0FF0E3622F9
:10458800365004E1050E355CD8A002D0FF0EE36A70
:10459800FF0EE3502B6E2C6AE552E552E5521200ED
:1045A800D4EC20F0B5EC29F056EC1CF0AAEC29F07C
:1045B8001DEC2AF053EC2AF09FEC1CF0CEEC1FF017
:1045C80072EC29F09FEC29F02DEC26F048EC27F04E
:1045D8006CEC23F048EC23F0D6EC23F09BEC21F0B4
:1045E80094EC29F054EC22F099EC1FF023EC2AF01B
:1045F8001200FF0E6F008CFF2BF0050E2B6401D00C
:104608001DD0FF0EE350050DAB0EF324D96E020E3C
:10461800F420DA6EDE6ADE6ADE6ADD6AFF0E6F009B
:104628008CFF36F0010E356E362A02D0D89035361A
:10463800362EFCD73550FF0A0201D217E552120078
:10464800FC0EE3500AE1FD0EE35007E1FE0EE350D5
:1046580004E1FF0EE350D8B402D0FF0EE37EFC0E57
:104668006F008CFF2BF0FD0E6F008CFF2CF0FE0E00
:104678006F008CFF2DF0FF0E6F008CFF2EF0E552BF
:10468800E552E552E55212009B6A9C6A010E9D6E46
:10469800630E996EC00E986E98506F0064FE2BF0F2
:1046A8002C6A6000ACF02CF02B6A2B100001B86F5C
:1046B8002C50B96F3901A89D988D1A0EE66E350EEB
:1046C800E66E000EE66ED5EC27F0110E9A6E12001B
:1046D800A76AA86A010EA96E630EA56EC00EA46E25
:1046E800A4506F0094FE2BF02C6A6000ACF02CF004
:1046F8002B6A2B100001B46F2C50B56F3901A69DA1
:10470800968DFE0EE66E540EE66E000EE66EE9EC31
:1047180027F0110EA66E1200FF0EE3BE07D0FF0EA3
:10472800E35012E1FE0EE304D8B00ED0FE0E6F0087
:104738008CFF2BF02B1EFF0E6F008CFF2CF02C1E15
:104748002B2AD8B42C2A08D0FE0E6F008CFF2BF031
:10475800FF0E6F008CFF2CF0E552E5521200FB0EA5
:10476800E37EF80E6F008FFFE6FF6F008FFFE6FF16
:104778006F008FFFE6FF6F008FFFE6FFF80E6F00F8
:104788008FFFE6FF6F008FFFE6FF6F008FFFE6FFEA
:104798006F008FFFE6FF0FECC6F0F80EE126FF0E64
:1047A800E222120039019397DE0EE66E4D0EE66E98
:1047B800000EE66EADEC27F03D01EC6BED6BEE6B99
:1047C800EF6BF06BF16BB00EF26F800EF36FF46B62
:1047D8008A0EF56FF66BF76BF86BF96BFA6B5E6A1E
:1047E8005D6A5C6A3901938712009F0E356EFF0E71
:1047F800366EFE0E6F008CFF33F0FF0E6F008CFFDD
:1048080034F0200E3312000E341235503326365051
:104818003422345006E11A0E335CD8B002D0010EAF
:1048280001D0000E2B6E2C6AE552E5521200FE0EE6
:104838006F008CFF35F0FF0E6F008CFF36F0D890BC
:1048480036323532D890363235323550616EFE0EFA
:104858006F008CFF36F0030E3616060E2B6ED890BE
:1048680036362B2EFCD73650606EE552E5521200D4
:10487800E65201D004005C50D8B4FCD7D30E5D24B6
:10488800D96EDA6A020EDA22DF50366EFF0E600049
:10489800DBF0E3FF5D2A070E5D6401D05D6A390134
:1048A80093975C069387FF0E6F008CFF2BF0E55201
:1048B8001200BC94FE0EE66E78EC26F0080EE66E4A
:1048C800000EE66E000EE66E000EE66E27EC22F095
:1048D800FF0EE350E66E78EC26F0200EE66E030E2F
:1048E800E66E000EE66E000EE66E27EC22F0E5524C
:1048F8001200BC94FE0EE66E78EC26F0080EE66E0A
:10490800000EE66E000EE66E000EE66E27EC22F054
:10491800FF0EE350E66E78EC26F0080EE66E000E09
:10492800E66E000EE66E000EE66E27EC22F0E5520B
:104938001200FD0E6F008CFF35F0FE0E6F008CFF2D
:1049480036F0D8903534336E3634346EFF0EE3507B
:10495800020D000EF324D96E030EF420DA6E600007
:10496800CFF0DEFF6000D3F0DDFFE552E552E552FF
:1049780012009AA40FD09A90FF0EE124D96EFF0E70
:10498800E220DA6EDF50996EFE0E6F008FFF98FFFF
:104998009A800CD0FF0EE124D96EFF0EE220DA6E69
:1049A800DF50996EFE0E6F008FFF98FFE552E552BB
:1049B8001200A6A40FD0A690FF0EE124D96EFF0E18
:1049C800E220DA6EDF50A56EFE0E6F008FFFA4FFA7
:1049D800A6800CD0FF0EE124D96EFF0EE220DA6E1D
:1049E800DF50A56EFE0E6F008FFFA4FFE552E55263
:0249F8001200AB
:1049FC006F0060FF08F06000ACF009F06000D4F0CC
:104A0C000AF06000D8F00BF016EEEAF13901A5912E
:104A1C00AFEC28F060002CF036F0600028F035F098
:104A2C00600024F02BF0600023F0D8FF1100F40E8E
:104A3C006F008CFF2BF0F50EE3502B10D8B40CD07C
:104A4C00F40E6F008FFFD9FFF50E6F008FFFDAFFAA
:104A5C00000EDE6E000EDD6E000E2B6E000E2C6E48
:104A6C00F40EE126FF0EE222120002013B51D8B4F3
:104A7C00120065EC2AF06DEC20F0C80EE66E000E0C
:104A8C00E66E010EE66E9DEC24F0010EE66E71EC06
:104A9C0027F02B50D8A412003FEC2AF02B50D8A4AE
:104AAC001200F3D7CBB00CD00101B485080EE66E22
:104ABC0071EC27F02B50D8B403D0010E2B6E1200E2
:104ACC000101B4B508D02C0EE66E010EE66E080E90
:104ADC00E66E9DEC24F0000E2B6E12003901989DB1
:104AEC00E150F80FD96EE250DA6EFF0EDA226F0049
:104AFC0078FF91F16F0078FF92F16F0078FF93F1DE
:104B0C006F0078FF94F1988DF80EE126FF0EE222EB
:104B1C001200FF0E6F008CFF2BF0050E2B6403D0E0
:104B2C00000E2B6E0FD0FF0E6F008CFF36F0600066
:104B3C0048FB2BF0362A02D0D8902B32362EFCD7DD
:104B4C00010E2B16E5521200FE0E6F008FFFE6FFD2
:104B5C006F008FFFE6FF000EE66E9DEC24F005D093
:104B6C0000F000F000F000F00400000EE66E71ECB6
:104B7C0027F02B50D8B4F4D7E552E5521200FE0EB4
:104B8C00E350FF0F356EFF0E6F008CFF36F0FF0EFB
:104B9C0036226000D4F0C9F36000D8F0CAF30301E8
:104BAC00CB6BCC6BCD6BCE6BCF6BD06BE552E55238
:104BBC001200FC0E6F008FFFE6FF6F008FFFE6FF09
:104BCC006F008FFFE6FF6F008FFFE6FFE9EC0EF042
:104BDC006000ACF022F26000B0F023F2E552E55236
:104BEC00E552E5521200FC0E6F008FFFE6FF6F00DE
:104BFC008FFFE6FF6F008FFFE6FF6F008FFFE6FF72
:104C0C00E9EC0EF06000ACF020F26000B0F021F2A4
:104C1C00E552E552E552E552120039019197FF0E2B
:104C2C00E350020D000EF324D96E020EF420DA6E5E
:104C3C006F0078FFAEF06F0074FFAFF091876000EB
:104C4C00B8F22BF06000BCF22CF0E55212003901E6
:104C5C00A191D290000EE66E550EE66E000EE66E39
:104C6C0011EC28F039019181A591D2924A0EE66E91
:104C7C00FE0EE66E010EE66EFDEC27F03901958115
:104C8C001200FF0EE124D96EFF0EE220DA6EDF5027
:104C9C00030B3901E16FFE0E6F008FFFE0F93F0E41
:104CAC00E517E58100F000F06E008CF72BF0E55273
:104CBC00E55212003F0E3B01DD17DD9BDD51F90B78
:104CCC000209DD6FE70EDD17DD81DC9D3D0ED16F36
:104CDC00EA0ED06FE40ED96F050EDA6F000EDB6FA3
:104CEC00DC9B1200010E3D01126FFF0E6F008FFF57
:104CFC0011FD01D004003901A2A9FCD7010E01015C
:104D0C00E327000EE423E523E6236F0040F42BF0A9
:104D1C00E5521200FE0EE3509F0F356EFF0E6F0032
:104D2C008CFF36F0FF0E3622365006E11A0E355C3B
:104D3C00D8B002D0010E01D0000E2B6E2C6AE552B9
:104D4C00E5521200FE0EE350BF0F356EFF0E6F00E2
:104D5C008CFF36F0FF0E3622365006E11A0E355C0B
:104D6C00D8B002D0010E01D0000E2B6E2C6AE55289
:104D7C00E5521200FE0EE350D00F356EFF0E6F00A1
:104D8C008CFF36F0FF0E3622365006E10A0E355CEB
:104D9C00D8B002D0010E01D0000E2B6E2C6AE55259
:104DAC00E5521200FE0EE350030BA00DE40E2B6E29
:104DBC00090E2C6EF3502B26F4502C22FF0EE350D0
:104DCC00030B280DF3502B26F4502C22E552E55200
:104DDC001200D30E5E24D96EDA6A020EDA226F004C
:104DEC00A3F7DFFF5E2A070E5E6401D05E6A5C2AC1
:104DFC00010E0101DB27000EDC23DD23DE23120074
:104E0C00FF0E6F008CFF2BF0050E2B6402D0000EF2
:104E1C000AD0FF0EE350050DAA0EF324D96E020E34
:104E2C00F420DA6EDF502B6EE552120014EED4F340
:104E3C003901A1950001945195119611D8B4110026
:104E4C0001D811000500FA6E9451FD6E9551FE6E5D
:104E5C009651FF6EFA501200400E5A6010D0A00E00
:104E6C005B24D96EDA6A040EDA22DF503D01D26F70
:104E7C005B2A3F0E5B6401D05B6A5A2A120039012F
:104E8C0096971200010E966E956A976A7C0E936E39
:104E9C00926A3901A99199811C0EE66E260EE66E76
:104EAC00000EE66EC1EC27F0E00E946E1200430E7D
:104EBC00E66E000EE66E000EE66E000EE66EFA0E64
:104ECC006F008FFFE6FF6F008FFFE6FF8CECE8F0C2
:104EDC00E552E55212000400FF0EE350020D000EE5
:104EEC00F324D96E030EF420DA6EDE50DE10D8A453
:104EFC0002D0010E01D0000E2B6EE5521200E150D3
:104F0C00FD0FD96EE250DA6EFF0EDA226F0078FFD9
:104F1C009AF06F0078FF9BF06F0074FF9CF0E552E5
:104F2C00E552E5521200E150FD0FD96EE250DA6EF7
:104F3C00FF0EDA226F0078FF9DF06F0078FF9EF075
:104F4C006F0074FF9FF0E552E552E5521200E150FC
:104F5C00FD0FD96EE250DA6EFF0EDA226F0078FF89
:104F6C0097F06F0078FF98F06F0074FF99F0E5529E
:104F7C00E552E5521200E150FD0FD96EE250DA6EA7
:104F8C00FF0EDA226F0078FF8EF06F0078FF8FF043
:104F9C006F0074FF90F0E552E552E5521200E150BB
:104FAC00FD0FD96EE250DA6EFF0EDA226F0078FF39
:104FBC008BF06F0078FF8CF06F0074FF8DF0E55272
:104FCC00E552E5521200E150FD0FD96EE250DA6E57
:104FDC00FF0EDA226F0078FF88F06F0078FF89F0FF
:104FEC006F0074FF8AF0E552E552E5521200E15071
:104FFC00FD0FD96EE250DA6EFF0EDA226F0078FFE9
:10500C00A0F06F0078FFA1F06F0074FFA2F0E552E2
:10501C00E552E5521200E150FD0FD96EE250DA6E06
:10502C00FF0EDA226F0078FFA3F06F0078FFA4F078
:10503C006F0074FFA5F0E552E552E5521200E15005
:10504C00FD0FD96EE250DA6EFF0EDA226F0078FF98
:10505C0091F06F0078FF92F06F0074FF93F0E552BF
:10506C00E552E5521200E150FD0FD96EE250DA6EB6
:10507C00FF0EDA226F0078FF94F06F0078FF95F046
:0E508C006F0074FF96F0E552E552E5521200F7
:10509C0014EED4F30001975198119911D8B4110062
:1050AC0001D811000500FA6E9751FD6E9851FE6EF5
:1050BC009951FF6EFA50120014EED4F300019A517C
:1050CC009B119C11D8B4110001D811000500FA6E87
:1050DC009A51FD6E9B51FE6E9C51FF6EFA50120060
:1050EC0014EED4F300019D519E119F11D8B4110000
:1050FC0001D811000500FA6E9D51FD6E9E51FE6E99
:10510C009F51FF6EFA5012006000ACF006F0600088
:10511C00D8F007F014EED4F33901A991F7EC28F08C
:10512C0060001CF036F0600018F02BF01100BC94FD
:10513C00FF0EE350E66E78EC26F0080EE66E000EDD
:10514C00E66E000EE66E000EE66E27EC22F0E552DF
:10515C0012000001A051A111A211D8B4120001D863
:10516C0012000500FA6EA051FD6EA151FE6EA25107
:10517C00FF6EFA50120000018B518C118D11D8B4B6
:10518C00120001D812000500FA6E8B51FD6E8C5185
:10519C00FE6E8D51FF6EFA5012000001885189117C
:1051AC008A11D8B4120001D812000500FA6E885189
:1051BC00FD6E8951FE6E8A51FF6EFA50120000018D
:1051CC00A351A411A511D8B4120001D812000500E6
:1051DC00FA6EA351FD6EA451FE6EA551FF6EFA50EE
:1051EC00120000018E518F119011D8B4120001D809
:1051FC0012000500FA6E8E51FD6E8F51FE6E9051AD
:10520C00FF6EFA501200FFEC29F0FE0EE66E81ECF8
:10521C0022F0FFEC29F0FF0EE350E66E81EC22F059
:10522C00FFEC29F0E5521200600E5924D96EDA6AAF
:10523C00040EDA226F0043F7DFFF592A3F0E596440
:10524C0001D0596A0001C12B120039019591F60E5B
:10525C00E66E0C0EE66E000EE66EFDEC27F0020E0E
:10526C000201CD6F390195811200FF0E6F008CFF8A
:10527C0036F0030E361623EE64F0DF503618FE0BB4
:10528C003618DF6EE5521200070EE66E71EC27F051
:10529C002B50D8B406D00101BD51FF0E6F008CFF0E
:1052AC00BDF1E5521200FF0EE350E66E60009BF17B
:1052BC00E6FF60009FF1E6FFE7EC19F0E552120003
:1052CC00FE0E6F008FFFE6FF6F008FFFE6FF1BECFB
:1052DC0024F0E552E5521200010EAE6EAD6AAF6AD3
:1052EC00630EAB6EAA6A3901A495C00EAC6E1200A7
:1052FC00A70EE66E030EE66EFD0EE350E66EF7ECBF
:10530C00F6F0E552120001D004003901A3A9FCD734
:10531C00FF0E6F008FFFEAFDE5521200400E3D01BB
:10532C00156F030E166F4F0E196F1C6B830E146FD7
:10533C001200800E626E616A400E606E3F015F511A
:10534C003F0B40095F6F1200200E3901D96FDB6BE8
:10535C00DD6B020EDF6FDE6BDCB11200FDD73901A5
:10536C00C06BC16BC26BC36BC46BC56BC66BC76BBD
:10537C001200FF0E6F008FFFF1FE3E01F88FF881D7
:10538C00E5521200FF0EE3B002D0BD9001D0BD80FB
:10539C00E5521200FF0EE3B002D0BD9A01D0BD8AD7
:1053AC00E5521200FF0EE3B002D0BD9801D0BD88CB
:1053BC00E5521200390168AB03D02B6A2B2A12007C
:1053CC002B6A12000101BE51FF0E6F008CFFBEF163
:1053DC00E5521200FF0EE3B002D0BD9C01D0BD8C93
:1053EC00E5521200FF0EE350E66E09EC29F0E5528F
:1053FC001200000160B7FDD73D0117BB1200FCD7AE
:0E540C00BDAC03D02B6A2B2A12002B6A1200B3
:0E541C0014EED4F33901A191E5EC28F0110053
:10542C0014EED4F33901A2910001609711001E0E05
:10543C0039015B6F070E5C6F12003C01E66B940E3A
:0E544C00E56F1200E40E2B6E050E2C6E1200A2
:0A545C0014EED4F33901A2931100FD
:0A54680014EED4F33901A2971100ED
:1054740014EED4F33901A29511006000ECF82BF07E
:1054840012003B0E3E01F16F1200600048FB2BF04E
:1054940012006000F4F62BF012006000F8F62BF016
:1054A4001200AF0E3E01C16F1200600070F12BF0CC
:0954B4001200286E756C6C2900D1
:1054BE0002019D8312003901688D120002013B6BBF
:1054CE0012000001608712003B01FC8D12003901B1
:1054DE00969D12003901968D120039015B811200E2
:1054F00014EED4F31100CCFFB6FF0400120012002A
:07550000120012001200016D
:10F5100000D859000005000000685B00000A0000E8
:10F5200000305C000014000000385E00001900008C
:10F5300000885E00001E000000785F0000280000C8
:10F5400000DC5F00002D00000018600000320000A9
:10F550000046600000350000007C600000370000BD
:10F5600000AE60000039000000E06000003C0000D8
:10F5700000126100003F0000005D610000430000D8
:10F5800000A861000046000000BC610000480000C7
:10F5900000D06100004B000000DA61000050000064
:10F5A00000E461000055000000F86100005A00000E
:10F5B00000086200005C000000226200005D0000A4
:10F5C00000346200005F000000486200006100003B
:10F5D000005C6200006400000084670000620000BC
:10F5E000000000000080DE280080C84D0000A776E3
:10F5F0000000349E008012C700809FEE00007E173E
:10F6000001805C400180E9670100C890010055B8A5
:10F61000011F1E1F1E1F1F1E1F1E1F1F1D636F6D3C
:10F620006D616E6473203100000000000000000076
:10F63000000000646973706C617973203100000010
:10F64000000000000000000000636F6D6D616E64DB
:10F650007320320000000000000000000000006481
:10F660006973706C61797320320000000000000043
:10F670000000000000636F6D6D616E6473203300E5
:10F680000000000000000000000000646973706C5E
:10F6900061797320330000000000000000000000CA
:10F6A00000636F6D6D616E647320340000000000B4
:10F6B00000000000000000646973706C61797320C1
:10F6C00034000000000000000000000000202020A6
:10F6D000204441494C592041482020202020204CE2
:10F6E0004F204553522020202020204849204553B8
:10F6F0005220202020202020505620414820202029
:10F700004241542057204F757420202020424154FC
:10F71000205720494E20202020205245414C204196
:10F72000482020202046204359434C455320202088
:10F7300042204359434C455320202020205550441B
:10F7400041544553007C7C2F2F2D2D0000000000DC
:10F750000000000000000000007C7C2F2F2D2D5C9D
:10F760005C0000000000000000000000004F4F4F50
:10F770004F4F4F2D2D5F5F2D000000000000000057
:10F780000076763C3C5E5E3E3E00000000000000DD
:10F7900000000000002E2E2A2A7823782358587C57
:10F7A0007C2D2D0000000000002E2E6F6F4F4F6F3C
:10F7B0006F0000000000000000000000002020207A
:10F7C0004C4F5720436F756E74202020544F4420B7
:10F7D000436F756E7420202020545820436F756E3F
:10F7E0007420202020525820436F756E74202020F2
:10F7F00041444320436F756E7420202053504920AC
:10F80000436F756E7420202044494F20436F756EFE
:10F8100074000000803F0000C03F474D540000AA24
:10F82000B83FC623F6B80040763F2025630D0A2076
:10F830002563202C53797374656D2053746174753E
:10F84000733A2056657273696F6E20257320427576
:10F85000696C64202573202573200D0A2025632000
:10F860002C25730D0A202563202C2531306C752C36
:10F87000202531306C752C202531306C752C2025DD
:10F8800031306C752C202531306C752C20253130B1
:10F890006C752C202531306C75200D0A20256320D5
:10F8A0002C25730D0A202563202C253130642C2053
:10F8B000253130642C20253130642C2025313064F2
:10F8C0002C20253130642C20253130642C2025312A
:10F8D00030642C20253130642C20253130642C20DC
:10F8E0002531306C750D0A2025630D0A0020256333
:10F8F000202C256C752C25342E34662C25342E3482
:10F90000662C25342E34662C25342E34662C253472
:10F910002E33662C25342E33662C25342E33662C5C
:10F9200025342E33662C25342E33662C25342E3385
:10F93000662C25342E33662C25342E33662C253444
:10F940002E33662C25342E33662C25342E33662C2C
:10F9500025642C25642C25322E36662C25342E3336
:10F96000662C25642C25642C256C752C256C752C37
:10F9700025342E33662C25342E33662C25342E3335
:10F98000662C25640D0A004A616E4665624D6172FF
:10F990004170724D61794A756E4A756C4175675355
:10F9A00065704F63744E6F764465630053256343FF
:10F9B0002025642052554E202564205625322E32B3
:10F9C000662020202020202020002564202564207F
:10F9D0002564202564202020202020202020202095
:10F9E0002020202020004C4F414420572025332E3A
:10F9F0003266204C412025322E32662020202020E5
:10FA0000200052312025322E33662025332E3466D5
:10FA100020202020202020202020202000523220C2
:10FA200025322E33662025332E34662020202020D8
:10FA30002020202020202000204D65736720256491
:10FA400020537461636B2025642020202020202017
:10FA5000200042562025322E346620434325642060
:10FA6000202020202020202020202000532053254B
:10FA700063432025642025322E3466202020202058
:10FA80002020202020004241545420572025332E8E
:10FA9000326620202020202020202020202000420C
:10FAA0004148205425332E3266204425332E3266B9
:10FAB0002020202020202000455352202025322EB7
:10FAC00036662020202020202020202020202000FA
:10FAD00052312025322E33662025332E34662020E5
