:020000040000FA
:0400000057EF00F0C6
:10000800EF55EF55EF55EF55EF55EF55EF55EF55C8
:10001800CD55EF554E54EF55EF55EF55EF55EF557C
:10002800C555DB55E155DE55EF55EF55EF55EF5505
:10003800EF55EF55EF551A551055EF55EF55EF554C
:10004800EF55EF55EF55EF552B00EF55EF55EF55A1
:10005800D155EF55EF55EF55EF55EF55EF55EF5596
:10006800EF55EF552E552455EF55EF55EF55EF55F4
:10007800EF55EF552B00EF55EF55D5552B002B00BD
:100088002B002B002B002B002B002B002053EF55AF
:10009800A855EF55EF55EF552B002B002B002B00E3
:0E00A800EF55EF55FF0011EE6AF242EFA0F0A7
:10FDDC00005225642025642C2054256420256420A1
:10FDEC004325642020464742404D4348502025730C
:10FDFC0020202020202020202020202020202020F7
:10FE0C0020202020202020202020202020202020E6
:10FE1C0020202020202020202020202020202020D6
:10FE2C00202020202020202020202000204C6F6724
:10FE3C002066696C65207265736574202020202013
:10FE4C00202020202000205465726D696E616C208A
:10FE5C00256420202020202020202020202020006D
:10FE6C004C4F473A205525642047256420256420B3
:10FE7C002564202020202020230052256420256486
:10FE8C002C20542564202564204325642020202028
:10FE9C002020230020434D44202563202563204C43
:10FEAC00656E2025642020202020202000484F5300
:10FEBC00543A20256C6420472564202020202020E3
:10FECC002300205465726D696E616C202020202007
:10FEDC0020202020200020457175697020747970D5
:10FEEC0065202564202020202000205325644625F1
:10FEFC0064206C6F67676564202564202000536163
:10FF0C00766564205325644625642020202020201B
:10FF1C00002053746F7265642023256420202020F8
:10FF2C00202000205325644625642023256C642062
:10FF3C002020202000452564204125642054256480
:10FF4C0020472564202300205332463431202325BA
:10FF5C0063202020202020002048323534202564C6
:10FF6C002C2054256C642020002050696E6720479B
:10FF7C002564202050256420230020525649204817
:10FF8C004F53542054455354455200532564462531
:10FF9C006420457272202020200020464742404DAC
:10FFAC004348502046414234002053256446256482
:10FFBC0020232020202000205265616479204C4CA5
:10FFCC0020202020002056657273696F6E202573E7
:10FFDC0000204F4B20256400204F4B5125640031ED
:10FFEC002E313547004F4B20006C64006C690025A6
:03FFFC006300009F
:020000040001F9
:10000000E65245ECA7F0D28ED28C000E6F00A0FF16
:10001000F7F32C0EE66E010EE66E20ECA8F0CBA0F6
:1000200004D0FF0EE36AE32A04D0FF0EE36AE38004
:10003000E382FF0EE304D8A404D0BD80BD8237EF75
:1000400084F0BD90BD9237EF84F038ECA1F00C0E37
:10005000E66E92ECABF0FF0E6F008CFF44F0600098
:1000600010F1F7F3000E6F00A0FFF6F3A50EE66E99
:10007000070EE66E56ECA8F0860EE66EFF0EE66EF4
:10008000FD0EE66E030EE66E040EE66EBCEC9EF010
:10009000FD0EE66E030EE66E000EE66E000EE66ED8
:1000A00046EC9AF0EB0EE66EFF0EE66ED10EE66EB3
:1000B000FF0EE66EFD0EE66E030EE66E060EE66EB3
:1000C000BCEC9EF0FD0EE66E030EE66E000EE66ED4
:1000D000010EE66E46EC9AF0A60EE66EFF0EE66E98
:1000E000FD0EE66E030EE66E040EE66EBCEC9EF0B0
:1000F000FD0EE66E030EE66E000EE66E020EE66E76
:1001000046EC9AF0B80EE66E0B0EE66E20ECA8F008
:10011000C4D3000E6F00A0FFFBF3000E6F00A0FF22
:10012000FCF3010E6F00A0FFF6F36100AFF4E8FFEF
:100130000A0AD8A485D16100B3F4E8FF0A0AD8A45A
:100140007FD121EE3AF1DFAC1FD021EE25F16F0017
:100150007BFFE6FF6F007BFFE6FF6F007BFFE6FFA4
:100160006F007BFFE6FF010EE66E010EE66E640E89
:10017000E66EFF0EE66EFD0EE66E030EE66E0A0EEE
:10018000E66EBCEC9EF020D020EEF8F3DF50E66E79
:10019000000EE66E21EE1DF16F007BFFE6FF6F00A3
:1001A0007BFFE6FF6F007BFFE6FF6F007BFFE6FF54
:1001B000B90EE66EFE0EE66EFD0EE66E030EE66E00
:1001C0000A0EE66EBCEC9EF0000E6F00A0FF0DF470
:1001D000FD0EE66E030EE66E000EE66E020EE66E95
:1001E00046EC9AF02DD1FB0EE66E030EE66E8FEC18
:1001F0008AF0040E3918D8A460D06100A7F4E8FF93
:10020000090AD8A41BD02AC52DF521EE2AF1DF500A
:10021000E66E000EE66E21EE29F1DF50E66E000E6E
:10022000E66E970EE66EFF0EE66EFD0EE66E030EB0
:10023000E66E080EE66EBCEC9EF01CD0000E6F0061
:10024000A0FF2DF521EE2AF1DF50E66E000EE66EDE
:1002500021EE29F1DF50E66E000EE66EB50EE66E79
:10026000FF0EE66EFD0EE66E030EE66E080EE66EFF
:10027000BCEC9EF0000E6F00A0FF08F4FD0EE66ED1
:10028000030EE66E000EE66E000EE66E46EC9AF089
:1002900021EE39F1DFA20DD0020E6F00A0FFF6F3C0
:1002A00021EE39F1870EDF16000E6F00A0FFFCF380
:1002B00004D0030E6F00A0FFF6F36000EFFFE8FF2D
:1002C00011D0FC0EE66E030EE66E14EC91F0040EF7
:1002D0003918D8A404D0030E6F00A0FFF6F3600015
:1002E000F3FFE8FF060AD8A4ABD0060E45D021EEF6
:1002F0003AF1DFA81FD0000E6F00A0FFFBF3000E45
:100300006F00A0FFFCF3020E6F00A0FFF6F320EEDB
:10031000F9F3DF50E66E000EE66EE40EE66EFF0EB9
:10032000E66EFD0EE66E030EE66E060EE66EBCECA5
:100330009EF016D0050E6F00A0FFF6F320EEF9F345
:10034000DF50E66E000EE66EDD0EE66EFF0EE66E28
:10035000FD0EE66E030EE66E060EE66EBCEC9EF03B
:10036000FD0EE66E030EE66E0B0EE66E000EE66EFA
:1003700046EC9AF065D0000E6F00A0FFF6F360D057
:10038000000E6F00A0FFF6F320EEF8F3DF50E66EEC
:10039000000EE66E21EE35F16F0078FF43F06F003E
:1003A00074FF44F060000FF1E6FF600013F1E6FF18
:1003B00021EE2CF1DF50E66E000EE66E21EE2BF101
:1003C000DF50E66E000EE66E410EE66EFF0EE66E44
:1003D000FD0EE66E030EE66E0C0EE66EBCEC9EF0B5
:1003E000000E6F00A0FF0DF4FD0EE66E030EE66E2C
:1003F000000EE66E020EE66E46EC9AF0D00EE66E49
:10040000070EE66E20ECA8F01BD020EEF6F3DF50CE
:10041000436E446A4450000AD8A4B2D74350000A3D
:10042000D8B477D6010AD8B4DED6030AD8B449D7EF
:10043000010AD8B45CD7060AD8B49DD7030AA0D75E
:100440006100AFF4E8FF0A0AD8A427D26100B3F430
:10045000E8FF0A0AD8A421D221EE3AF1DFAC1FD07E
:1004600021EE25F16F007BFFE6FF6F007BFFE6FFCB
:100470006F007BFFE6FF6F007BFFE6FF010EE66E7D
:10048000010EE66E640EE66EFF0EE66EFD0EE66E83
:10049000030EE66E0A0EE66EBCEC9EF020D020EE57
:1004A000F8F3DF50E66E000EE66E21EE1DF16F00F0
:1004B0007BFFE6FF6F007BFFE6FF6F007BFFE6FF41
:1004C0006F007BFFE6FFB90EE66EFE0EE66EFD0ED8
:1004D000E66E030EE66E0A0EE66EBCEC9EF0000EB3
:1004E0006F00A0FF0DF4FD0EE66E030EE66E000E2B
:1004F000E66E020EE66E46EC9AF06000E3FFE8FF5F
:10050000040AD8A406D06000DBFFE8FF010AD8B4D3
:1005100004D021EE3AF1DFAAC0D1060EE66E6FECF0
:10052000AAF03950D8A404D021EE3AF1DFAAB5D10F
:10053000300EE66E750EE66E060EE66E02ECA8F064
:1005400069ECA6F021EE3AF1DFBA34D021EE37F1B2
:100550006F0078FF43F06F0074FF44F060000FF10C
:10056000E6FF600013F1E6FF20EEF8F3DF50E66EE1
:10057000000EE66E750EE66EFF0EE66EFD0EE66E82
:10058000030EE66E080EE66EBCEC9EF0000E6F00E9
:10059000A0FF0DF4FD0EE66E030EE66E000EE66E95
:1005A000000EE66E46EC9AF0E80EE66E030EE66E7E
:1005B00020ECA8F0000E6F00A0FF2DF521EE3AF11F
:1005C000DF9A6BD1000E6F00A0FFFAF3010E6F00EF
:1005D000A0FFF6F321EE3AF1DFAC1FD021EE25F1BA
:1005E0006F007BFFE6FF6F007BFFE6FF6F007BFF86
:1005F000E6FF6F007BFFE6FF010EE66E010EE66E82
:10060000640EE66EFF0EE66EFD0EE66E030EE66EFF
:100610000A0EE66EBCEC9EF034D021EE33F16F0092
:1006200078FF43F06F0074FF44F060000FF1E6FFC5
:10063000600013F1E6FF21EE35F16F0078FF43F023
:100640006F0074FF44F060000FF1E6FF600013F1EB
:10065000E6FF20EEF8F3DF50E66E000EE66E21EEC8
:1006600067F1DF50E66E000EE66E6C0EE66EFE0E73
:10067000E66EFD0EE66E030EE66E0C0EE66EBCEC4C
:100680009EF0000E6F00A0FF0DF4FD0EE66E030E4F
:10069000E66E000EE66E020EE66E46EC9AF088D02C
:1006A000FA0EE66E030EE66ED0EC84F0040E3918F6
:1006B000D8A43BD021EE1DF16F007BFFE6FF6F0059
:1006C0007BFFE6FF6F007BFFE6FF6F007BFFE6FF2F
:1006D00021EE2AF1DF50E66E000EE66E21EE29F1E2
:1006E000DF50E66E000EE66E2F0EE66EFF0EE66E33
:1006F000FD0EE66E030EE66E0C0EE66EBCEC9EF092
:10070000000E6F00A0FF0AF4FD0EE66E030EE66E0B
:10071000000EE66E61009CF544F04404E66E46EC83
:100720009AF0030E6F00A0FFF6F36000EBFFE8FF06
:10073000060AD8A43DD0060E1FD0050E6F00A0FFFC
:10074000F6F3F10EE66EFF0EE66EFD0EE66E030E9C
:10075000E66E040EE66EBCEC9EF0FD0EE66E030E39
:10076000E66E0D0EE66E61009CF544F04404E66E04
:1007700046EC9AF01DD0000E6F00A0FFF6F318D0E3
:1007800020EEF6F3DF50436E446A4450000AD8A4CA
:10079000F2D74350000AD8B415D7010AD8B480D78D
:1007A000020AD8B4CAD7060AD8B4E5D7030AE3D7F1
:1007B00021EE3AF1DFAC13D020EEF9F3DF50E66E14
:1007C000000EE66EE20EE66EFE0EE66EFD0EE66EC4
:1007D000030EE66E060EE66EBCEC9EF034D021EE03
:1007E00033F16F0078FF43F06F0074FF44F0600056
:1007F0000FF1E6FF600013F1E6FF21EE35F16F0027
:1008000078FF43F06F0074FF44F060000FF1E6FFE3
:10081000600013F1E6FF20EEF8F3DF50E66E000E05
:10082000E66E21EE67F1DF50E66E000EE66E6C0EAE
:10083000E66EFE0EE66EFD0EE66E030EE66E0C0E26
:10084000E66EBCEC9EF0000E6F00A0FF0DF4FD0EF6
:10085000E66E030EE66E000EE66E020EE66E46ECE7
:100860009AF01BD0000E6F00A0FFF7F316D020EE19
:10087000F7F3DF50436E446A4450000AD8A4F2D71D
:100880004350000AD8B425EF80F0010AD8B4BDD592
:10089000020AD8B475D7070AE5D721EE1DF1DE505C
:1008A000DE10DE10DE10D8B42ED021EE3AF1DF508B
:1008B0000F0B0009D8B40BD0BD98BD8A6100AFF40E
:1008C000E8FF0F0AD8A407D0BF98BF8A04D0BD881C
:1008D000BD9ABF88BF9A21EE39F1DF30E832E832A5
:1008E0000F0B0009D8B40BD0BD9CBD8E6100AFF4D6
:1008F000E8FF0F0AD8A407D0BF9CBF8E04D0BD8CE0
:10090000BD9EBF8CBF9E21EE33F16F0078FF43F098
:100910006F0074FF44F060000FF1E6FF600013F118
:10092000E6FF21EE39F1DF30E832E8320F0BE66EF8
:10093000000EE66E20EEFCF3DF50E66E000EE66E73
:1009400021EE3AF1DF500F0BE66E000EE66E20EE60
:10095000FBF3DF50E66E000EE66E860EE66EFE0ED0
:10096000E66EFD0EE66E030EE66E0E0EE66EBCEC57
:100970009EF0000E6F00A0FF0DF4FF0E6F008CFFC5
:1009800039F0030E3918D8B472D7FD0EE66E030E97
:10099000E66E000EE66E010EE66E46EC9AF067D744
:1009A000E65204D3D3ECABF03950D8B428D0E3EC02
:1009B000A7F0FF0E6000E7F0E3FFFF0E6F008CFF73
:1009C00039F0050E3918D8A41AD0010E6F00A0FF17
:1009D00067F5D00EE66E070EE66E020EE66E02ECCE
:1009E000A8F00A0E6F00A0FF2BF5FD0E6F008FFF21
:1009F000D9FFFE0E6F008FFFDAFF010EDF6ECFEC26
:100A0000ABF03950D8B4F7D2C4ECA7F0FF0E6000B9
:100A1000E7F0E3FFFF0E6F008CFF39F0050E391889
:100A2000D8A4E9D2020E6F00A0FF67F5D00EE66EE3
:100A3000070EE66E020EE66E02ECA8F00A0E6F00DC
:100A4000A0FF2BF5FD0E6F008FFFD9FFFE0E6F008C
:100A50008FFFDAFF010EA8D22B6A020EE66E6FEC52
:100A6000AAF03950D8B419D00C0E6F00A0FF2BF5A6
:100A700021EE35F1DE2A000EDD2221EE3AF1DF50C3
:100A8000F00B0209DF6EFD0E6F008FFFD9FFFE0E27
:100A90006F008FFFDAFF050E87D261009FF5E8FF38
:100AA000020AD8A429D0D3ECABF03950D8B424D062
:100AB000E3ECA7F0FF0E6000E7F0E3FFFF0E6F002E
:100AC0008CFF39F0040E3918D8A416D0D00EE66E7B
:100AD000070EE66E020EE66E02ECA8F00A0E6F003C
:100AE000A0FF2BF5FD0E6F008FFFD9FFFE0E6F00EC
:100AF0008FFFDAFF020EDF6E61009FF5E8FF010A4B
:100B0000D8A479D2CFECABF03950D8B474D2C4ECBD
:100B1000A7F0FF0E6000E7F0E3FFFF0E6F008CFF11
:100B200039F0040E3918D8A466D2D00EE66E070E3E
:100B3000E66E020EE66E02ECA8F00A0E6F00A0FF51
:100B40002BF5FD0E6F008FFFD9FFFE0E6F008FFF9C
:100B5000DAFF020E29D2020EE66E6FECAAF03950CF
:100B6000D8A482D761009FF5E8FF010AD8A4D1D0AC
:100B7000D3ECABF03950D8B4CCD0E3ECA7F0FF0EF7
:100B80006000E7F0E3FF2B50D8A418D0FF0E6F00F1
:100B90008CFF7CF0010EE66E000EE66E86ECA8F08F
:100BA0002B2A2B506A08D96E000ED8A0E82A060816
:100BB000DA6EFF0E6F008FFFDFFFABD00B0E2B60E6
:100BC0000CD02B501908D96E000ED8A0E82A0108C5
:100BD000DA6EFF0E6F008FFFDFFF2B5000017C5D90
:100BE000D8A00DD0000EE66EFE0EE350E66E86EC49
:100BF000A8F06000E4F02FF56000E8F030F52B502D
:100C0000436E446A7C51416E426A010E4126000ED9
:100C100042224350411809E144504218D8A405D05B
:100C2000FF0EE35001010E6F0D6B2B50436E446AB3
:100C300000017C51416E426A020E4126000E4222A2
:100C4000435041180AE144504218D8A406D0FF0E80
:100C5000E35001010D27000E0E232B2A2B506A08AA
:100C6000D96E000ED8A0E82A0608DA6EFF0E6F00D3
:100C70008FFFDFFF2B50436E446A00017C51416EB1
:100C8000426A020E4126000E42224350415C42500D
:100C9000800A396E4450800A3958D8B03AD021EED3
:100CA0002FF101010D51DE1810E10E51DE18D8A40C
:100CB0000CD0FD0E6F008FFFD9FFFE0E6F008FFF6F
:100CC000DAFF030E25D0E3ECA7F0D3ECABF03950FC
:100CD000D8A4F9D7F40EE66E010EE66E20ECA8F06B
:100CE0000F0E6F00A0FF2BF521EE33F1DE2A000E70
:100CF000DD2221EE3AF1DF50F00B0309DF6EFD0E2D
:100D00006F008FFFD9FFFE0E6F008FFFDAFF050E19
:100D1000DF6E61009FF5E8FF020AD8A46CD1CFEC2A
:100D2000ABF03950D8B467D1C4ECA7F0FF0E600027
:100D3000E7F0E3FF2B50D8A418D0FF0E6F008CFF14
:100D40007CF0010EE66E000EE66E86ECA8F02B2A13
:100D50002B506A08D96E000ED8A0E82A0608DA6E71
:100D6000FF0E6F008FFFDFFF46D10B0E2B600CD004
:100D70002B501908D96E000ED8A0E82A0108DA6EA7
:100D8000FF0E6F008FFFDFFF2B5000017C5DD8A0AE
:100D90000DD0000EE66EFE0EE350E66E86ECA8F077
:100DA0006000E4F02FF56000E8F030F52B50436E62
:100DB000446A7C51416E426A010E4126000E422275
:100DC0004350411809E144504218D8A405D0FF0E01
:100DD000E35001010E6F0D6B2B50436E446A00010E
:100DE0007C51416E426A020E4126000E422243505F
:100DF00041180AE144504218D8A406D0FF0EE3502F
:100E000001010D27000E0E232B2A2B506A08D96EE4
:100E1000000ED8A0E82A0608DA6EFF0E6F008FFFDA
:100E2000DFFF2B50436E446A00017C51416E426AE1
:100E3000020E4126000E42224350415C4250800A7D
:100E4000396E4450800A3958D8B0D5D021EE2FF1F0
:100E500001010D51DE1810E10E51DE18D8A40CD09E
:100E6000FD0E6F008FFFD9FFFE0E6F008FFFDAFFC0
:100E7000030E9AD0C4ECA7F0CFECABF03950D8A455
:100E8000F9D7F40EE66E010EE66E20ECA8F00F0E18
:100E90006F00A0FF2BF521EE33F1DE2A000EDD22DC
:100EA00021EE3AF1DF50F00B0409ECD501011651A7
:100EB0007F0B446E600010F129F521EE2AF16000ED
:100EC00057F4DFFF20EE0FF16F0078FF21F56F0080
:100ED00078FF22F56F0078FF23F56F0074FF24F58B
:100EE00021EE39F118BF02D0DF9001D0DF8021EE72
:100EF00039F1010116BF02D0DF9201D0DF8221EE6D
:100F000039F1010114BF02D0DF9401D0DF8421EE5A
:100F10003AF1F00EDF16E80EE66E030EE66E21EEF5
:100F20002AF1DF50E66E21EE29F1DF50E66E09EC82
:100F30009DF021EE2AF1DF50E66E21EE29F1DF501F
:100F4000E66E32EC9EF06000E4F0F8F3FD0E6F0008
:100F50008FFFD9FFFE0E6F008FFFDAFF040E24D043
:100F6000FD0E6F008FFFD9FFFE0E6F008FFFDAFFBF
:100F7000060EDF6E02D0E3ECA7F03350D8B403D0F6
:100F8000FAD7C4ECA7F02D50D8B435D0FAD721EE5B
:100F90003AF1F00EDF16FD0E6F008FFFD9FFFE0E47
:100FA0006F008FFFDAFF000EDF6E25D0FD0E6F00A1
:100FB0008FFFD9FFFE0E6F008FFFDAFFDF50436E09
:100FC000446A4450000AD8A4E6D74350000AD8B473
:100FD000E9D4010AD8B440D5030AD8B4BCD5010A73
:100FE000D8B464D7070AD8B4D2D7010AD8B4B8D7CE
:100FF000030AD8A4D0D7FD0E6F008FFFD9FFFE0ED5
:101000006F008FFFDAFFDF50396EE552E552E5528F
:1010100012000B0EE126000EE222F10E6F008FFF90
:10102000D9FFF20E6F008FFFDAFF6F007BFFF6FF34
:101030006F0077FFF7FF000EF86E0800F550250AE5
:10104000D8A43ED2F10E6F008FFFD9FFF20E6F00D1
:101050008FFFDAFFDE2A000EDD221A6A1B6A1E6A83
:101060001F6A1C681D68F10E6F008FFFD9FFF20E1A
:101070006F008FFFDAFF6F007BFFF6FF6F0077FFD7
:10108000F7FF000EF86E0800F550630AD8A436D0BA
:10109000F10E6F008FFFD9FFF20E6F008FFFDAFFA6
:1010A000DE2A000EDD22EF0E6F008FFFD9FFF00E5B
:1010B0006F008FFFDAFF020EDE5E000EDD5A6F005A
:1010C00078FF43F06F0074FF44F060000FF1D9FF28
:1010D000600013F1DAFFDF50446EFF0E600013F181
:1010E000E3FFFF0EE350E66EF20E6F008FFFE6FFA8
:1010F0006F008FFFE6FF01ECA4F00CD2F10E6F0041
:101100008FFFD9FFF20E6F008FFFDAFF6F007BFFBA
:10111000F6FF6F0077FFF7FF000EF86E0800F5503E
:10112000640AD8B415D0F10E6F008FFFD9FFF20E0C
:101130006F008FFFDAFF6F007BFFF6FF6F0077FF16
:10114000F7FF000EF86E0800F550690AD8A475D0B4
:10115000F10E6F008FFFD9FFF20E6F008FFFDAFFE5
:10116000DE2A000EDD22EF0E6F008FFFD9FFF00E9A
:101170006F008FFFDAFF020EDE5E000EDD5A6F0099
:1011800078FF43F06F0074FF44F060000FF1D9FF67
:10119000600013F1DAFF6F0078FF43F06F0074FF17
:1011A00044F0F50E60000FF1E3FFF60E600013F15E
:1011B000E3FF396AE3BE3968F70E6000E7F0E3FF4A
:1011C000F80E6000E7F0E3FFF90E6000E7F0E3FFE0
:1011D000FA0E6000E7F0E3FFFB0E6000E7F0E3FFCC
:1011E000FC0E6000E7F0E3FFE150F50FD96EE2502E
:1011F000DA6EFF0EDA226F007BFFE6FF6F007BFFE7
:10120000E6FF6F007BFFE6FF6F007BFFE6FF6F00EE
:101210007BFFE6FF6F007BFFE6FF6F007BFFE6FFD3
:101220006F007BFFE6FFEB0E6F008FFFE6FF6F00A6
:101230008FFFE6FFF4EC8CF06DD1020EE66E000E2F
:10124000E66EF50EE66EFF0EE66EED0E6F008FFF9A
:10125000D9FFEE0E6F008FFFDAFF6F0078FF43F0CB
:101260006F0074FF44F060000FF1E6FF600013F1BF
:10127000E6FF64EC9BF039503A10D8B422D0020E4D
:10128000E66E000EE66EF80EE66EFF0EE66EED0EF2
:101290006F008FFFD9FFEE0E6F008FFFDAFF6F0038
:1012A00078FF43F06F0074FF44F060000FF1E6FF39
:1012B000600013F1E6FF64EC9BF039503A10D8A4BB
:1012C00069D0F10E6F008FFFD9FFF20E6F008FFF14
:1012D000DAFF020EDE26000EDD22EF0E6F008FFF1A
:1012E000D9FFF00E6F008FFFDAFF040EDE5E000EF6
:1012F000DD5A6F0078FF43F06F0074FF44F0600028
:101300000FF1D9FF600013F1DAFF6F0078FF41F0B1
:101310006F0078FF42F06F0078FF43F06F0078FFB6
:1013200044F0600004F149F0600008F14AF0600008
:101330000CF14BF0600010F14CF04D6A4CBE4D6862
:10134000600034F14EF0600034F14FF0600034F191
:1013500050F0F50E600027F1E3FFF60E60002BF170
:10136000E3FFF70E60002FF1E3FFF80E600033F1AA
:10137000E3FFF90E600037F1E3FFFA0E60003BF186
:10138000E3FFFB0E60003FF1E3FFFC0E600043F162
:10139000E3FF2AD7F10E6F008FFFD9FFF20E6F0027
:1013A0008FFFDAFF6F007BFFF6FF6F0077FFF7FF1D
:1013B000000EF86E0800F550730AD8A442D0F10E62
:1013C0006F008FFFD9FFF20E6F008FFFDAFFDE2A6A
:1013D000000EDD22EF0E6F008FFFD9FFF00E6F00C1
:1013E0008FFFDAFF020EDE5E000EDD5A6F0078FF1F
:1013F00043F06F0074FF44F060000FF1D9FF60000C
:1014000013F1DAFF6F0078FF43F06F0074FF44F0D0
:10141000FE0E600013F1E3FFFD0E60000FF1E3FF2D
:10142000FD0E6F008FFFE6FF6F008FFFE6FFF10EEE
:101430006F008FFFE6FF6F008FFFE6FF0FEC94F069
:1014400069D0F10E6F008FFFD9FFF20E6F008FFF92
:10145000DAFF6F007BFFF6FF6F0077FFF7FF000EEC
:10146000F86E0800F550250AD8A41AD0F10E6F00C6
:101470008FFFD9FFF20E6F008FFFDAFFDE2A000E1A
:10148000DD22F30E6F008FFFE6FF6F008FFFE6FF98
:10149000250EE66E000EE66EA0EC9DF0010E0CD05F
:1014A000F10E6F008FFFD9FFF20E6F008FFFDAFF92
:1014B000DE2A000EDD22000E396E000E3A6E2AD0B2
:1014C000F30E6F008FFFE6FF6F008FFFE6FFEF0E5A
:1014D0006F008FFFD9FFF00E6F008FFFDAFF6F00F4
:1014E0007BFFF6FF6F0077FFF7FF000EF86E080036
:1014F000F550E66E000EE66EA0EC9DF0F10E6F006A
:101500008FFFD9FFF20E6F008FFFDAFFDE2A000E89
:10151000DD22C4D7EF0EE126FF0EE2221200E652D2
:1015200030D2D3ECABF03950D8B450D2E3ECA7F0C2
:10153000FF0E6000E7F0E3FFFF0E6F008CFF39F055
:10154000050E3918D8A442D2BEA402D0010E01D093
:10155000000EFF0A446E44464446BE504418FB0B3E
:101560004418BE6E0A0E6F00A0FF2BF5FD0E6F0033
:101570008FFFD9FFFE0E6F008FFFDAFF010EE3D160
:101580002A6A690E206E050E216E040EE66EA5EC29
:10159000A7F0D00EE66E070EE66E020EE66E02ECC7
:1015A000A8F0FD0E6F008FFFD9FFFE0E6F008FFFBA
:1015B000DAFF020EC8D1020EE66E6FECAAF03950C7
:1015C000D8B427D021EE35F1DE2A000EDD225D06EB
:1015D0005D28D8A414D00C0E6F00A0FF2BF521EECF
:1015E0003AF1DF50F00B0109DF6EFD0E6F008FFF47
:1015F000D9FFFE0E6F008FFFDAFF050EA4D1FD0E9E
:101600006F008FFFD9FFFE0E6F008FFFDAFF000E15
:101610009AD1D3ECABF03950D8B4D8D1E3ECA7F0E1
:10162000FF0E6000E7F0E3FF2A50D8A41CD0FF0EA5
:101630006F008CFF7CF0010EE66E000EE66E86EC0D
:10164000A8F02A2A2A50205C436E000E2158446ECE
:10165000010E4324D96E010E4420DA6EFF0E6F0096
:101660008FFFDFFFB3D10B0E2A600CD02A50190870
:10167000D96E000ED8A0E82A0108DA6EFF0E6F00BE
:101680008FFFDFFF0B0E2A18D8A407D0FF0E6F00C4
:101690008CFF44F0600010F13BF50C0E2A18D8A422
:1016A00007D0FF0E6F008CFF44F0600010F13CF596
:1016B0000D0E2A18D8A407D0FF0E6F008CFF44F03F
:1016C000600010F13DF50E0E2A18D8A407D0FF0EC9
:1016D0006F008CFF44F0600010F13EF50F0E2A18E9
:1016E000D8A407D0FF0E6F008CFF44F0600010F10B
:1016F0003FF5100E2A18D8A407D0FF0E6F008CFFFC
:1017000044F0600010F140F5110E2A18D8A407D05B
:10171000FF0E6F008CFF44F0600010F141F5120ED7
:101720002A18D8A407D0FF0E6F008CFF44F0600089
:1017300010F142F5130E2A18D8A407D0FF0E6F003F
:101740008CFF44F0600010F143F5140E2A18D8A461
:1017500007D0FF0E6F008CFF44F0600010F144F5DD
:101760002A5000017C5DD8A00DD0000EE66EFE0E62
:10177000E350E66E86ECA8F06000E4F02FF5600020
:10178000E8F030F52A50436E446A7C51416E426A5B
:10179000010E4126000E42224350411809E14450F7
:1017A0004218D8A405D0FF0EE35001010E6F0D6B57
:1017B0002A50436E446A00017C51416E426A020E17
:1017C0004126000E4222435041180AE1445042187B
:1017D000D8A406D0FF0EE35001010D27000E0E2302
:1017E0002A2A2A50205C436E000E2158446E010EB6
:1017F0004324D96E010E4420DA6EFF0E6F008FFF76
:10180000DFFF2A50436E446A00017C51416E426AF8
:10181000020E4126000E42224350415C4250800A93
:10182000396E4450800A3958D8B0D0D021EE2FF10B
:1018300001010D51DE1810E10E51DE18D8A40CD0B4
:10184000FD0E6F008FFFD9FFFE0E6F008FFFDAFFD6
:10185000030E79D0E3ECA7F0D3ECABF03950D8A469
:10186000F9D7F40EE66E010EE66E20ECA8F00F0E2E
:101870006F00A0FF2BF521EE33F1DE2A000EDD22F2
:1018800021EE3AF1DF50F00B0209AED601011651FC
:101890007F0B446E600010F129F521EE2AF1600003
:1018A00057F4DFFF20EE0FF16F0078FF21F56F0096
:1018B00078FF22F56F0078FF23F56F0074FF24F5A1
:1018C00021EE39F118BF02D0DF9001D0DF8021EE88
:1018D00039F1010116BF02D0DF9201D0DF8221EE83
:1018E00039F1010114BF02D0DF9401D0DF84F40E7E
:1018F000E66E010EE66E21EE2AF1DF50E66E21EE75
:1019000029F1DF50E66E09EC9DF021EE2AF1DF505F
:10191000E66E21EE29F1DF50E66E32EC9EF06000BB
:10192000E4F0F8F3060EE66EA5ECA7F021EE3AF12E
:10193000F00EDF16FD0E6F008FFFD9FFFE0E6F0059
:101940008FFFDAFF040EDF6E41D0150EE66EA5ECB8
:10195000A7F0FD0E6F008FFFD9FFFE0E6F008FFF07
:10196000DAFF060EDF6E02D0E3ECA7F03350D8A406
:10197000FBD7030E5D6E2AD021EE3AF1F00EDF1692
:101980003ED6FD0E6F008FFFD9FFFE0E6F008FFF5A
:10199000DAFFDF50436E446A4450000AD8A42FD6C1
:1019A0004350000AD8B4BDD5010AD8B4E9D5030A1A
:1019B000D8B401D6010AD8B469D7070AD8B4DCD79D
:1019C000010AD8B4C2D7030AD8A419D6FD0E6F00F5
:1019D0008FFFD9FFFE0E6F008FFFDAFFDF50396EE9
:1019E000E552E552E5521200120EE126000EE22207
:1019F000E40EE124D96EFF0EE220DA6E080E396E95
:101A0000F00E6F007BFFE3FFE828392EFAD7F70EC0
:101A1000E3AE02D0010E01D0000E436E446AFA0E0E
:101A200060000FF1E3FFFB0E600013F1E3FFFA0E1D
:101A30006F008CFF39F0FB0EE3503910D8B425D07D
:101A4000F00EE36CF10EE31EF20EE31EF30EE31E46
:101A5000F40EE31EF50EE31EF60EE31EF70EE31E74
:101A600014E3F10EE32A11E3F20EE32A0EE3F30E80
:101A7000E32A0BE3F40EE32A08E3F50EE32A05E379
:101A8000F60EE32A02E3F70EE32A1DAE1E921DBEF8
:101A900005D01D5010E11C04D8B00DD0010E436ECE
:101AA000000E446EFE0E60000FF1E3FFFF0E6000BB
:101AB00013F1E3FF08D0FE0E600073F0E3FFFF0EAA
:101AC000600077F0E3FFFC0E60006BF0E3FFFD0EBB
:101AD00060006FF0E3FFFA0E6F008CFF39F0FB0E31
:101AE000E3503910D8A402D01EA40AD0E150FC0F54
:101AF000D96EE250DA6EFF0EDA22DE06000EDD5AF3
:101B00001F0E436E000E446EF80E60000FF1E3FFEF
:101B1000F90E600013F1E3FF0001C36B03D1E15044
:101B2000F80FD96EE250DA6EFF0EDA22DE06000EF2
:101B3000DD5A0A0EE66E000EE66E000EE66E000E30
:101B4000E66E000EE66E000EE66E000EE66E000E0D
:101B5000E66EE150E80FD96EE250DA6EFF0EDA223F
:101B60006F007BFFE6FF6F007BFFE6FF6F007BFFF0
:101B7000E6FF6F007BFFE6FF6F007BFFE6FF6F0075
:101B80007BFFE6FF6F007BFFE6FF6F007BFFE6FF5A
:101B900026EC99F0E5526F009CFF50F0E5526F0083
:101BA0009CFF4FF0E5526F009CFF4EF0E5526F0036
:101BB0009CFF4DF0E5526F009CFF4CF0E5526F002A
:101BC0009CFF4BF0E5526F009CFF4AF0E5526F001E
:101BD0009CFF49F0F80EE126FF0EE222600024F19E
:101BE00043F0600028F144F060000FF1E6FF600070
:101BF00013F1E6FFFFECA6F0300E3926F80E6F0069
:101C00008CFF44F04450A40FD96EDA6A6000E7F00C
:101C1000DFFFE150FE0FD96EE250DA6EFF0EDA22DE
:101C2000DE06000EDD5AE150FC0FD96EE250DA6E8E
:101C3000FF0EDA22DE06000EDD5A0A0EE66E000EF8
:101C4000E66E000EE66E000EE66E000EE66E000E0C
:101C5000E66E000EE66E000EE66EE150E80FD96EFD
:101C6000E250DA6EFF0EDA226F007BFFE6FF6F00B4
:101C70007BFFE6FF6F007BFFE6FF6F007BFFE6FF69
:101C80006F007BFFE6FF6F007BFFE6FF6F007BFFCF
:101C9000E6FF6F007BFFE6FF6EEC95F0E5526F000C
:101CA0009CFF50F0E5526F009CFF4FF0E5526F0033
:101CB0009CFF4EF0E5526F009CFF4DF0E5526F0027
:101CC0009CFF4CF0E5526F009CFF4BF0E5526F001B
:101CD0009CFF4AF0E5526F009CFF49F0F80EE126A8
:101CE000FF0EE222F00E600027F1E3FFF10E60002C
:101CF0002BF1E3FFF20E60002FF1E3FFF30E600023
:101D000033F1E3FFF40E600037F1E3FFF50E6000FE
:101D10003BF1E3FFF60E60003FF1E3FFF70E6000DA
:101D200043F1E3FFF90EE3BE36D0F90EE35004E1D0
:101D3000F80EE304D8A02FD0F00EE35015E1F10E19
:101D4000E35012E1F20EE3500FE1F30EE3500CE129
:101D5000F40EE35009E1F50EE35006E1F60EE35010
:101D600003E1F70EE350D8A4DAD6FF0EE3BE07D0A6
:101D7000FF0EE35003E1FE0EE304D8B0D0D6FD0E13
:101D8000E3BE09D0FD0EE35004E1FC0EE304D8A04D
:101D900002D01EB2C4D6FA0E6F008CFF39F0FB0ED3
:101DA000E3503910D8A402D01EA42DD0E150F80F72
:101DB000D96EE250DA6EFF0EDA22DE06000EDD5A30
:101DC000FA0E6F008CFF39F0FB0EE3503910D8A4E7
:101DD00002D02B0E01D02D0E436E000E446EEE0E7F
:101DE00060000FF1E3FFEF0E600013F1E3FFF80E68
:101DF0006F008CFF44F04450A40FD96EDA6AEE0EE7
:101E00006F008FFFDFFFFC0E6F008FFFE6FF6F009C
:101E10008FFFE6FFF60E6F008CFF44F04450A40FD6
:101E2000E66EE90E6F008FFFE6FF6F008FFFE6FFA3
:101E300041EC9FF0E40EE126FF0EE2221200070EB5
:101E4000E126000EE222FE0EE36AFF0EE36A0A0EAE
:101E50006F00A0FF2CF521EE3AF1DF980790BAD180
:101E6000BF0E016E010E026E0F0E036E21C5C3F18F
:101E700022C5C4F123C5C5F124C5C6F11DC502F1B3
:101E80001EC503F11FC504F120C505F10780000E32
:101E9000046E010E056E0D0E066E21EE3AF1DF881E
:101EA000B5D1000E016E010E026E0D0E036E21C53E
:101EB00002F122C503F123C504F124C505F1A6D121
:101EC000E70E016E026A110E036E21C5EDF022C508
:101ED000EEF023C5EFF024C5F0F098D1D30E016EDB
:101EE000026A140E036E21C5DCF022C5DDF023C5A5
:101EF000DEF024C5DFF01DC5D2F11EC5D3F11FC52C
:101F0000D4F120C5D5F10780CE0E046E010E056E0A
:101F10000F0EC2D71A0E016E010E026E0D0E036E69
:101F200021C51CF122C51DF123C51EF124C51FF1D9
:101F3000110E6F00A0FF2CF569D1F70EE350436E30
:101F4000446A4450000AD8A4E5D74350010AD8B4E3
:101F500087D7030AD8B4A5D7010AD8B4B1D70E0AD7
:101F6000D8B4BCD7D7D7DD0E016E010E026E1D0EA0
:101F7000036E21C5EFF122C5F0F123C5F1F124C5AF
:101F8000F2F144D18B0E016E010E026E100E036E43
:101F900021C590F122C591F123C592F124C593F199
:101FA00035D1F70EE350436E446A4450000AD8A47A
:101FB000B1D74350110AD8B4D6D7080AD8B4E2D75B
:101FC000A9D77B0E016E010E026E100E036E21C5A5
:101FD00080F122C581F123C582F124C583F116D198
:101FE000F70EE350436E446A4450000AD8A492D7D7
:101FF0004350010AD8B4E5D78DD75B0E016E010EB0
:10200000026E100E036E21C560F122C561F123C579
:1020100062F124C563F1FAD0F70EE350436E446ACF
:102020004450000AD8A476D743500B0AD8B4E5D759
:1020300071D7F70EE350436E446A4450000AD8A4A7
:1020400069D74350010AD8B4E1D0020AD8B4DED02F
:10205000060AD8B4DBD0020AD8B4D8D00E0AD8B455
:10206000D5D0020AD8B4D2D0060AD8B4CFD052D72D
:102070006B0E016E010E026E100E036E21C570F123
:1020800022C571F123C572F124C573F11DC5B3F3E7
:102090001EC5B4F31FC5B5F320C5B6F3B80EE66E82
:1020A0000B0EE66E070EE66E02ECA8F0010E6F0056
:1020B000A0FF60F568D00780BE0E046E030E056EAB
:1020C000380E066E5BC5E6F3E8D607809B0E046EFD
:1020D000010E056E240E066E21EE3AF1DF88030E26
:1020E0003BD00780860E046E030E056E380E066E1A
:1020F0005BC5AEF3D2D6FF0EE66EFD0E6F008FFF0E
:10210000E6FF6F008FFFE6FFEFECA4F0FE0EE3505A
:10211000010F396EFE0E6000E7F0E3FF396AFF0E33
:10212000E3503920396EFF0E6000E7F0E3FFFF0E49
:102130006F008CFF39F0040E395ED8A0DCD7000E9A
:102140006F00A0FF65F5000E6F00A0FF66F5000EA2
:102150006F00A0FF5FF5020E6F00A0FF60F556D084
:1021600021EE3AF1DFBC03D0446A442A01D0446A2C
:1021700021EE3AF1443A44464446DF504418BF0B3E
:102180004418DF6E43D062EC9CF03950436E446AD1
:102190004450000AD8A43AD04350000AD8B4A1D77A
:1021A000010AD8B488D7040AD8B4DAD7030AD8B455
:1021B000A2D7010AD8B489D729D0F70EE350436ECD
:1021C000446A4450000AD8A4A5D64350010AD8B4A2
:1021D0004FD7A0D6F80EE350436E446A4450000A2D
:1021E000D8A498D64350010AD8B4A7D6030AD8B4C5
:1021F000D8D6070AD8B4F4D6030AD8B40DD70F0A34
:10220000D8B417D7030AD8B4D8D784D620EE01F0B3
:10221000070E396EF70E6F007BFFE3FFE828392EBB
:10222000FAD7E552E5521200E65250D10A0E6F007D
:10223000A0FF2BF5030E296E050EE66EA5ECA7F0A8
:10224000D00EE66E070EE66E020EE66E02ECA8F009
:10225000FD0E6F008FFFD9FFFE0E6F008FFFDAFFBC
:10226000010E32D1020EE66E6FECAAF03950D8B4EE
:1022700026D021EE35F1DE2A000EDD22290629289E
:10228000D8A414D00C0E6F00A0FF2BF521EE39F16D
:10229000DF50870B0809DF6EFD0E6F008FFFD9FF3F
:1022A000FE0E6F008FFFDAFF050E0ED1D00EE66E28
:1022B000070EE66E020EE66E02ECA8F02CD1D3EC0F
:1022C000ABF03950D8B427D1E3ECA7F0FF0E600093
:1022D000E7F0E3FFFF0E6F008CFF39F0040E3918B2
:1022E000D8A412D0880EE66E130EE66E030EE66ECC
:1022F00002ECA8F0FD0E6F008FFFD9FFFE0E6F00FD
:102300008FFFDAFF020EDF6EFF0E6F008CFF39F0D9
:10231000050E3918D8A4FFD0040EE66EF3ECA8F031
:10232000FD0E6F008FFFD9FFFE0E6F008FFFDAFFEB
:10233000040ECAD02850D8A413D021EE2AF1DF50C1
:10234000E66E21EE29F1DF50E66E1FEC8FF020EEF5
:1023500089F0060EE5526F009FFFDBFFE806FAE208
:102360006100B3F4E8FF110AD8A41FD0010EE66E95
:10237000000EE66E00018B51E66E600027F2E6FF6C
:1023800060002BF2E6FFAEEC96F021EE39F1DF5063
:10239000870B1009DF6EFD0E6F008FFFD9FFFE0E59
:1023A0006F008FFFDAFF060E8FD02850D8A416D00A
:1023B000010EE66E000EE66E00018B51E66E6000C7
:1023C00027F2E6FF60002BF2E6FFAEEC96F021EE7E
:1023D0003AF1DFA816D0010E286E13D0286A21EE3C
:1023E0003AF1DF98010EE66E000EE66E00018E51A6
:1023F000E66E600033F2E6FF600037F2E6FFAEEC17
:1024000096F06100AFF4E8FF0A0AD8A40AD0FD0EE6
:102410006F008FFFD9FFFE0E6F008FFFDAFF030EF4
:1024200053D021EE39F1DF50870B1809B3D7030ED3
:10243000E66E6FECAAF03950D8B40FD021EE35F12A
:10244000DE2A000EDD220D0E6F00A0FF2BF521EE1F
:1024500039F1DF50870B20091ED7D3ECABF0395090
:10246000D8B459D0E3ECA7F0FF0E6000E7F0E3FF2B
:10247000FF0E6F008CFF39F0060E3918D8A44BD030
:1024800021EE39F1870EDF164BD7FD0E6F008FFF5F
:10249000D9FFFE0E6F008FFFDAFF060EDF6E02D04F
:1024A000E3ECA7F03350D8B436D0FAD721EE39F1A7
:1024B000870EDF1630D0FD0E6F008FFFD9FFFE0EA6
:1024C0006F008FFFDAFF000EDF6E25D0FD0E6F006C
:1024D0008FFFD9FFFE0E6F008FFFDAFFDF50436ED4
:1024E000446A4450000AD8A4E6D74350000AD8B43E
:1024F0009DD6010AD8B4B6D6030AD8B41BD7010AB0
:10250000D8B495D7070AD8B4D1D7010AD8B4BDD763
:10251000030AD8A4D0D7FD0E6F008FFFD9FFFE0E9F
:102520006F008FFFDAFFDF50396EE552E552E5525A
:102530001200E652E652E652E652FA0E6F008CFFA7
:1025400043F0FB0E6F008CFF44F0FD0E600013F1B2
:10255000E3FFFC0E60000FF1E3FFF60E6F008CFF4F
:1025600039F0F70EE3503910D8B454D1FC0E6F0097
:102570008FFFD9FFFD0E6F008FFFDAFFF80E6F009F
:102580008FFFDFFFFC0E6F008CFF43F0FD0E6F002E
:102590008CFF44F0F60EE3504326F70EE35044223E
:1025A000FF0E4324D96EFF0E4420DA6EF80E6F0042
:1025B0008FFFDFFFF70EE35008E1F60E6F008CFF90
:1025C00039F0030E395ED8A025D1FC0E6F008CFFC8
:1025D00043F0FD0E6F008CFF44F0010E4324D96ED2
:1025E000000E4420DA6EF80E6F008FFFDFFFFC0E46
:1025F0006F008CFF43F0FD0E6F008CFF44F0020E65
:102600004324D96E000E4420DA6EF80E6F008FFF5F
:10261000DFFFFC0E6F008CFF43F0FD0E6F008CFFA0
:1026200044F0F60EE3504326F70EE3504422FE0E2C
:102630004324D96EFF0E4420DA6EF80E6F008FFF30
:10264000DFFFFC0E6F008CFF43F0FD0E6F008CFF70
:1026500044F0F60EE3504326F70EE3504422FD0EFD
:102660004324D96EFF0E4420DA6EF80E6F008FFF00
:10267000DFFFF70EE35008E1F60E6F008CFF39F034
:10268000070E395ED8A0C6D0FC0E6F008CFF43F059
:10269000FD0E6F008CFF44F0030E4324D96E000E34
:1026A0004420DA6EF80E6F008FFFDFFFFC0E6F0024
:1026B0008CFF43F0FD0E6F008CFF44F0F60EE350EC
:1026C0004326F70EE3504422FC0E4324D96EFF0E3E
:1026D0004420DA6EF80E6F008FFFDFFFF70EE35035
:1026E00008E1F60E6F008CFF39F0090E395ED8A0B4
:1026F00091D0FC0E6F008CFF43F0431EFD0E6F0067
:102700008CFF44F0441E432AD8B4442A030E4316D7
:10271000000E4416FE0E60000FF1E3FFFF0E600096
:1027200013F1E3FFFC0EE350396EFE0EE350392641
:10273000FC0E6000E7F0E3FFFD0EE350396EFF0E84
:10274000E3503922FD0E6000E7F0E3FFF60EE350A0
:10275000396EFE0EE350395EF60E6000E7F0E3FFDF
:10276000F70EE350396EFF0EE350395AF70E600052
:10277000E7F0E3FFFC0E436EFF0E446EF60E6F00B3
:102780008CFF39F043503916F60E6000E7F0E3FF96
:10279000F70E6F008CFF39F044503916F70E2ED02B
:1027A000FC0E6F008FFFD9FFFD0E6F008FFFDAFF69
:1027B000F80E6F008FFFDFFFF60E6F008CFF39F011
:1027C000010E395EF60E6000E7F0E3FFF70E6F00D2
:1027D0008CFF39F0000E395AF70E6000E7F0E3FF86
:1027E000FC0EE350010F396EFC0E6000E7F0E3FFD2
:1027F000396AFD0EE3503920396EFD0E6000E7F0B6
:10280000E3FFF60E6F008CFF39F0F70EE35039103E
:10281000D8A4C6D7F60EE126FF0EE2221200110E52
:10282000E126000EE22220EECCF0070E396EEF0E0C
:102830006F007BFFE3FFE828392EFAD7EB0E6F001D
:102840008CFF43F0EC0E6F008CFF44F0FB0E600039
:1028500013F1E3FFFA0E60000FF1E3FFFA0E6F00D1
:102860008CFF39F0FB0EE3503910D8A40ED0EF0ED8
:10287000E124436EFF0EE220446EFB0E600013F174
:10288000E3FFFA0E60000FF1E3FFFA0E6F008FFF17
:10289000E6FF6F008FFFE6FF67ECA3F0F60E600027
:1028A000E7F0E3FFF70E6000EBF0E3FFF80E6000E7
:1028B00073F0E3FFF90E600077F0E3FFF90EE3BE7B
:1028C00023D0E150F80FD96EE250DA6EFF0EDA2213
:1028D000F60EE350DE5CDE50800A396EF70EE350F0
:1028E000800A3958D8B010D0F80E6F008CFF39F03C
:1028F000F60E6000E7F0E3FFF90E6F008CFF39F091
:10290000F70E6000E7F0E3FFF60E6F008CFF39F082
:10291000F80E6000E7F0E3FFF70E6F008CFF39F070
:10292000F90E6000E7F0E3FFFC0E60006BF0E3FFE0
:10293000FD0E60006FF0E3FF1EA01FD031D0ED0E42
:102940006F008FFFE6FF6F008FFFE6FF200EE66E41
:10295000000EE66EA0EC9DF0F60EE350010F396E0E
:10296000F60E6000E7F0E3FF396AF70EE350392016
:10297000396EF70E6000E7F0E3FFE150F60FD96E15
:10298000E250DA6EFF0EDA22FC0EE350DE5CDE501F
:10299000800A396EFD0EE350800A3958D8A0CFD78F
:1029A000FE0EE36AFF0EE36A45D0ED0E6F008FFF67
:1029B000E6FF6F008FFFE6FFF80E6F008FFFF6FF58
:1029C000F90E6F008FFFF7FF000EF86E1F0EF76411
:1029D00003D00800F55007D06F00DBFFE9FF6F0060
:1029E000DFFFEAFFEF50E66E000EE66EA0EC9DF012
:1029F000FA0EE350010F396EFA0E6000E7F0E3FFC4
:102A0000396AFB0EE3503920396EFB0E6000E7F0A7
:102A1000E3FFFE0EE350010F396EFE0E6000E7F09B
:102A2000E3FF396AFF0EE3503920396EFF0E600074
:102A3000E7F0E3FFE150FE0FD96EE250DA6EFF0ED1
:102A4000DA22F80EE350DE5CDE50800A396EF90EB1
:102A5000E350800A3958D8A0A8D71EB01FD031D073
:102A6000ED0E6F008FFFE6FF6F008FFFE6FF200E79
:102A7000E66E000EE66EA0EC9DF0F60EE350010F40
:102A8000396EF60E6000E7F0E3FF396AF70EE350A7
:102A90003920396EF70E6000E7F0E3FFE150F60FE2
:102AA000D96EE250DA6EFF0EDA22FC0EE350DE5CE5
:102AB000DE50800A396EFD0EE350800A3958D8A0E6
:102AC000CFD7F60E6F008CFF39F0F70E6F008CFF3A
:102AD0003AF0EB0EE126FF0EE22212000A0EE1268A
:102AE000000EE222FE0EE36AED0EE3AE28D0E60E03
:102AF000E36CE70EE31EE80EE31EE90EE31EEA0EAA
:102B0000E31EEB0EE31EEC0EE31EED0EE31E14E3DC
:102B1000E70EE32A11E3E80EE32A0EE3E90EE32AC7
:102B20000BE3EA0EE32A08E3EB0EE32A05E3EC0EDF
:102B3000E32A02E3ED0EE32AFE0EE36AE32AF50E32
:102B4000E3AE27D0EE0EE36CEF0EE31EF00EE31EB5
:102B5000F10EE31EF20EE31EF30EE31EF40EE31E6F
:102B6000F50EE31E14E3EF0EE32A11E3F00EE32A61
:102B70000EE3F10EE32A0BE3F20EE32A08E3F30E71
:102B8000E32A05E3F40EE32A02E3F50EE32AFE0E40
:102B9000E370070E396EF60EE36AE82A3906FCE2A6
:102BA000E60EE35016E1E70EE35013E1E80EE350C2
:102BB00010E1E90EE3500DE1EA0EE3500AE1EB0EFD
:102BC000E35007E1EC0EE35004E1ED0EE350D8B41E
:102BD00088D0FF0EE36A12D0D890E60EE336E70EF7
:102BE000E336E80EE336E90EE336EA0EE336EB0EA3
:102BF000E336EC0EE336ED0EE336FF0EE32AED0E80
:102C0000E3AEEAD7D890F60EE336F70EE336F80EC9
:102C1000E336F90EE336FA0EE336FB0EE336FC0E2E
:102C2000E336FD0EE336E150EE0FD96EE250DA6E78
:102C3000FF0EDA22E60EE350DE5CE70EE350DE58CC
:102C4000E80EE350DE58E90EE350DE58EA0EE3509A
:102C5000DE58EB0EE350DE58EC0EE350DE58ED0E7E
:102C6000E350DE58D8A021D0E150EE0FD96EE250EB
:102C7000DA6EFF0EDA22E60EE350DE5EE70EE35078
:102C8000DE5AE80EE350DE5AE90EE350DE5AEA0E51
:102C9000E350DE5AEB0EE350DE5AEC0EE350DE5A00
:102CA000ED0EE350DE5AF60EE380D890ED0EE332DF
:102CB000EC0EE332EB0EE332EA0EE332E90EE332DE
:102CC000E80EE332E70EE332E60EE332FF0EE350A6
:102CD000396E010E395EFF0E6000E7F0E3FFD8A405
:102CE00091D7FE0EE350D8B425D0F60EE36CF70E64
:102CF000E31EF80EE31EF90EE31EFA0EE31EFB0EB2
:102D0000E31EFC0EE31EFD0EE31E14E3F70EE32AA2
:102D100011E3F80EE32A0EE3F90EE32A0BE3FA0EB1
:102D2000E32A08E3FB0EE32A05E3FC0EE32A02E3B1
:102D3000FD0EE32AF60EE124D96EFF0EE220DA6ED4
:102D4000080E396EEE0E6F007BFFE3FFE828392E88
:102D5000FAD7F60EE126FF0EE2221200050EE1265A
:102D6000000EE222F90E6F008CFF43F0FA0E6F00A6
:102D70008CFF44F0FC0E600013F1E3FFFB0E6000DB
:102D80000FF1E3FF21EE1DF1DE2A000EDE22DE222E
:102D9000DE220A0E6F00A0FF2BF5F80EE350436E03
:102DA000446AFB0EE3504326FC0EE3504422FF0E20
:102DB0004324D96EFF0E4420DA6EDF50436E446A1E
:102DC000FD0E416EFF0E426EF80EE3503F6E406AFC
:102DD00041503F264250402243503F1804E14450A6
:102DE0004018D8B405D0120E6F00A0FF2BF5EFD01D
:102DF000FD0E436EFF0E446EF80EE350416E426AC4
:102E00004350412644504222600007F1E6FF600033
:102E10000BF1E6FFF90EE350020F436EFA0E6F005E
:102E20008CFF44F0000E442260000FF1E6FF6000CA
:102E300013F1E6FFADECA1F0FD0E6000E7F0E3FF5B
:102E4000FE0E6000EBF0E3FFFB0E6F008FFFD9FF7B
:102E5000FC0E6F008FFFDAFFFD0E6F008FFFDFFFAC
:102E6000FE0EE124D96EFF0EE220DA6EFB0E6F003B
:102E70008CFF43F0FC0E6F008CFF44F0010E4324E6
:102E8000E96E000E4420EA6E6F007FFFEFFFE15015
:102E9000FD0FD96EE250DA6EFF0EDA226F0078FF76
:102EA00031F56F0074FF32F582D0C7ECABF03F0E06
:102EB0003964FBD7F80E6F008CFF39F0FF0E60000D
:102EC000E7F0E3FFFF0EE350D8B481D0F70EE350F4
:102ED000D8B415D0FF0EE350436E446AFB0EE350A6
:102EE0004326FC0EE3504422FF0E4324D96EFF0E0E
:102EF0004420DA6EDF50E66EDEECA8F014D0FF0E50
:102F0000E350436E446AFB0EE3504326FC0EE3504D
:102F10004422FF0E4324D96EFF0E4420DA6EDF50A8
:102F2000E66E86ECA7F0FF0EE306CCD7CBECABF059
:102F30003F0E3964FBD7F80E6F008CFF39F0FF0E9F
:102F40006000E7F0E3FFFF0EE350D8B440D0F70E87
:102F5000E350D8B415D0FF0EE350436E446AFB0E25
:102F6000E3504326FC0EE3504422FF0E4324D96E67
:102F7000FF0E4420DA6EDF50E66EF3ECA8F014D0BA
:102F8000FF0EE350436E446AFB0EE3504326FC0EF3
:102F9000E3504422FF0E4324D96EFF0E4420DA6E24
:102FA000DF50E66EA5ECA7F0FF0EE306CCD7F60ED9
:102FB000E350436E446A4450000AD8A4B7D7435044
:102FC000010AD8B4B3D7030AD8B46FD7AFD7F60E77
:102FD000E126FF0EE22212000000000000000000C7
:102FE00000000000000000000000000000000000E1
:102FF00000000000000000000000000000000000D1
:1030000000000000000000000000000000000000C0
:1030100000000000000000000000000000000000B0
:1030200000000000000000000000000000000000A0
:103030000000000000000000000000000000000090
:103040000000000000000000000000000000000080
:103050000000000000000000000000000000000070
:103060000000000000000000000000000000000060
:103070000000000000000000000000000000000050
:103080000000000000000000000000000000000040
:103090000000000000000000000000000000000030
:1030A0000000000000000000000000000000000020
:1030B0000000000000000000000000000000000010
:1030C0000000000000000000000000000000000000
:1030D00000000000000000000000000000000000F0
:1030E00000000000000000000000000000000000E0
:1030F00000000000000000000000000000000000D0
:10310000000000000000000000000000000A0014A1
:10311000000000000000000000000000200000008F
:10312000000000000000000000000000000000009F
:10313000000000000000000000000000000000008F
:10314000000000000000000000012D1920571900A8
:10315000000000000000000000000000000000006F
:10316000000000000000000000000000000000005F
:10317000000000000000000000000000000000004F
:10318000000000000000000000000000000000003F
:10319000000000000000000000000000000000002F
:1031A000000000000000000000000000000000001F
:1031B000000000000000000000000000000000000F
:1031C00000000000000000000000000000000000FF
:1031D00000000000000000000000000000000000EF
:1031E00000000000000000000000000000000000DF
:1031F00000000000000000000000000000000000CF
:1032000000000000000000000000000000000000BE
:1032100000000000000000000000000000000000AE
:10322000000000000000000000000000000000009E
:10323000000000000000000000000000000000008E
:1032400000010000000180038AEF80FEE652E65292
:10325000FE0EE36AFD0EE3AE28D0F60EE36CF70E29
:10326000E31EF80EE31EF90EE31EFA0EE31EFB0E3C
:10327000E31EFC0EE31EFD0EE31E14E3F70EE32A2D
:1032800011E3F80EE32A0EE3F90EE32A0BE3FA0E3C
:10329000E32A08E3FB0EE32A05E3FC0EE32A02E33C
:1032A000FD0EE32AFE0EE36AE32AF50EE3AE25D017
:1032B000EE0EE36CEF0EE31EF00EE31EF10EE31EC6
:1032C000F20EE31EF30EE31EF40EE31EF50EE31EF4
:1032D00014E3EF0EE32A11E3F00EE32A0EE3F10EFE
:1032E000E32A0BE3F20EE32A08E3F30EE32A05E3F5
:1032F000F40EE32A02E3F50EE32AEE0EE35016E1A4
:10330000EF0EE35013E1F00EE35010E1F10EE35045
:103310000DE1F20EE3500AE1F30EE35007E1F40E83
:10332000E35004E1F50EE350D8B475D0FF0EE36A24
:1033300012D0D890EE0EE336EF0EE336F00EE33601
:10334000F10EE336F20EE336F30EE336F40EE33617
:10335000F50EE336FF0EE32AF50EE3AEEAD7E150B1
:10336000F60FD96EE250DA6EFF0EDA22EE0EE3505F
:10337000DE5CEF0EE350DE58F00EE350DE58F10E47
:10338000E350DE58F20EE350DE58F30EE350DE5801
:10339000F40EE350DE58F50EE350DE58D8A01FD0EF
:1033A000E150F60FD96EE250DA6EFF0EDA22EE0E21
:1033B000E350DE5EEF0EE350DE5AF00EE350DE5ACD
:1033C000F10EE350DE5AF20EE350DE5AF30EE350F4
:1033D000DE5AF40EE350DE5AF50EE350DE5AD89072
:1033E000F50EE332F40EE332F30EE332F20EE33283
:1033F000F10EE332F00EE332EF0EE332EE0EE33283
:10340000FF0EE350396E010E395EFF0E6000E7F0EB
:10341000E3FFD8A4A4D7FE0EE350D8B425D0F60E0F
:10342000E36CF70EE31EF80EE31EF90EE31EFA0E30
:10343000E31EFB0EE31EFC0EE31EFD0EE31E14E373
:10344000F70EE32A11E3F80EE32A0EE3F90EE32A5E
:103450000BE3FA0EE32A08E3FB0EE32A05E3FC0E76
:10346000E32A02E3FD0EE32AF60EE124D96EFF0EF5
:10347000E220DA6E080E396EF60E6F007BFFE3FF76
:10348000E828392EFAD7E552E552120034ECABF0B9
:1034900021EE60F1DF50D8A4D3D0FC0E6F008FFF77
:1034A000E6FF6F008FFFE6FFFC0EE350E66EFC0EBA
:1034B000E350E66E3BECA8F002D105015F51030B2F
:1034C000E66E000EE66E21EE2AF1DF50E66E000E8B
:1034D000E66E21EE29F1DF50E66E000EE66EF60E86
:1034E000E66EFE0EE66EFD0EE66E030EE66E0A0E4C
:1034F000E66EBCEC9EF0000E6F00A0FF0DF4FD0E1A
:10350000E66E030EE66E000EE66E000EE66E3BEC17
:10351000A8F021EE65F16F0078FF43F06F0074FFB3
:1035200044F060000FF1E6FF600013F1E6FF1D0EAE
:10353000E66EFF0EE66EFD0EE66E030EE66E060EFE
:10354000E66EBCEC9EF0000E6F00A0FF0DF434ECB4
:10355000ABF0FD0EE66E030EE66E000EE66E010E9B
:10356000E66E3BECA8F080D0C30EE66EFF0EE66E72
:10357000FD0EE66E030EE66E040EE66EBCEC9EF0EB
:10358000000E6F00A0FF0DF4FD0EE66E030EE66E5A
:10359000000EE66E000EE66E3BECA8F021EE5CF14C
:1035A000DF50E66E000EE66E530EE66EFF0EE66E20
:1035B000FD0EE66E030EE66E060EE66EBCEC9EF0A9
:1035C000C2D721EE5BF1DF50E66E000EE66E520EC2
:1035D000E66EFE0EE66EFD0EE66E030EE66E060E5F
:1035E000E66EBCEC9EF0000E6F00A0FF0DF4FD0E29
:1035F000E66E030EE66E000EE66E000EE66E3BEC27
:10360000A8F021EE5EF1DF50E66E000EE66E21EED0
:103610005DF1DF50E66E000EE66E21EE5CF1DF50EC
:10362000E66E000EE66EA00EE66EFE0EE66EFD0E77
:10363000E66E030EE66E0A0EE66EBCEC9EF083D7D5
:1036400021EE60F1DF50436E446A4450000AD8A472
:10365000B8D74350010AD8B4B4D7030AD8B42DD789
:10366000010AD8B481D7ADD7DD0EE66E040EE66E42
:10367000DA0EE66EFF0EE66EFD0EE66E030EE66EE9
:10368000060EE66EBCEC9EF0000E6F00A0FF0DF47F
:1036900034ECABF0FD0EE66E030EE66E000EE66E49
:1036A000020EE66E3BECA8F0070EE66E6FECAAF099
:1036B0003950D8B404D0000E6F00A0FF60F5E55279
:1036C000E552E552E5521200E652E652E652E65263
:1036D000FA0E6F008CFF43F0FB0E6F008CFF44F07E
:1036E000FF0E600013F1E3FFFE0E60000FF1E3FF39
:1036F000F80E6F008CFF43F0F90E6F008CFF44F062
:10370000FD0E600013F1E3FFFC0E60000FF1E3FF1C
:10371000F60E6F008CFF39F0010E395EF60E600078
:10372000E7F0E3FFF70E6F008CFF39F0000E395A17
:10373000F70E6000E7F0E3FFF60EE3283FE1F70E37
:10374000E328D8A43BD0000E396E000E3A6EB5D0F7
:10375000FE0EE350010F396EFE0E6000E7F0E3FF4E
:10376000396AFF0EE3503920396EFF0E6000E7F032
:10377000E3FFFC0EE350010F396EFC0E6000E7F032
:10378000E3FF396AFD0EE3503920396EFD0E60000B
:10379000E7F0E3FFF60E6F008CFF39F0010E395EA3
:1037A000F60E6000E7F0E3FFF70E6F008CFF39F0D4
:1037B000000E395AF70E6000E7F0E3FFE150FE0F0C
:1037C000D96EE250DA6EFF0EDA226F007BFFF6FF51
:1037D0006F0077FFF7FF000EF86E0800F550000944
:1037E000D8B444D0E150FC0FD96EE250DA6EFF0E2F
:1037F000DA226F007BFFF6FF6F0077FFF7FF000E06
:10380000F86E0800F5500009D8B430D0F60E6F00FD
:103810008CFF39F0F70EE3503910D8B427D0E150BF
:10382000FE0FD96EE250DA6EFF0EDA226F007BFFD8
:10383000F6FF6F0077FFF7FF000EF86E08006F00CD
:10384000D4FF44F0E150FC0FD96EE250DA6EFF0E67
:10385000DA226F007BFFF6FF6F0077FFF7FF000EA5
:10386000F86E0800F5504418D8B472D7E150FE0F36
:10387000D96EE250DA6EFF0EDA226F007BFFF6FFA0
:103880006F0077FFF7FF000EF86E0800F550396EF5
:103890003A6AE150FC0FD96EE250DA6EFF0EDA227E
:1038A0006F007BFFF6FF6F0077FFF7FF000EF86EEB
:1038B0000800F550395E000E3A5AF60EE126FF0E6A
:1038C000E2221200CE0EE66EFE0EE66EDD0EE66E13
:1038D000040EE66E040EE66EBCEC9EF041C55EF58D
:1038E0003FC55BF542C55CF543C55DF521EE5EF174
:1038F000DF50D8A403D0080E396E1200610073F5B2
:10390000E8FF530AD8B406D0610073F5E8FF730AE4
:10391000D8A403D0000E396E1200610073F5E8FFE1
:10392000520AD8B406D0610073F5E8FF720AD8A431
:1039300037D021EE5EF1010EDF6405D008D005011D
:103940005D51030B01D0010E01019D6F26D021EEC8
:103950005DF1DF50436E446A4450000AD8A4F3D7A7
:103960004350310AD8B4EBD7030AD8B4E8D7010AD8
:10397000D8B4E5D7720AD8B4E2D7030AD8B4DFD7EF
:10398000010AD8B4DCD7220AD8B4D9D7030AD8B4EC
:10399000D6D7010AD8B4D3D7D6D7070E396E1200BE
:1039A000610073F5E8FF4C0AD8B406D0610073F5E6
:1039B000E8FF6C0AD8A40FD0380EE66EFE0EE66E55
:1039C000DD0EE66E040EE66E040EE66EBCEC9EF0B6
:1039D000060E396E1200610073F5E8FF4D0AD8B487
:1039E00006D0610073F5E8FF6D0AD8A403D0010E7C
:1039F000396E1200610073F5E8FF440AD8B406D0AE
:103A0000610073F5E8FF640AD8A484D7050E396E07
:103A10001200E652E652050E396EFF0E6000E7F026
:103A2000E3FF690E396EFE0E6000E7F0E3FF21EE62
:103A30001DF1DE2A000EDE22DE22DE226AD05C507C
:103A4000D8B479D05C6AFE0E6F008FFFE6FF6F007E
:103A50008FFFE6FFF80E6F008FFFE6FF6F008FFF0E
:103A6000E6FFF80EE350E66EF80EE350E66EBEECAD
:103A7000A0F061D05B50D8B45ED05B6AE4D7FC0E96
:103A8000E350436E446A4450000AD8A454D04350D3
:103A9000010AD8B4D4D70C0AD8B4ECD74CD05A50B9
:103AA000D8B42AD05A6AFE0E6F008FFFE6FF6F006F
:103AB0008FFFE6FFF80E6F008FFFE6FF6F008FFFAE
:103AC000E6FFF80EE350E66EF80EE350E66EBEEC4D
:103AD000A0F012D0FC0EE350436E446A4450000A3A
:103AE000D8A40AD04350290AD8B4D9D705D0595000
:103AF000D8B421D0596AA7D7FC0EE350436E446A6C
:103B00004450000AD8A417D043500B0AD8B4EFD7BA
:103B100012D0FD0EE350436E446A4450000AD8A40C
:103B20000AD04350010AD8B4AAD7030AD8B4D2D7CE
:103B3000040AD8B4E1D7FA0EE126FF0EE222120001
:103B4000FC0E6F008CFF39F0FD0EE3503910D8B435
:103B500009D0FC0E6F008CFF39F0FD0EE3503910D8
:103B6000D8A406D0FE0EE350E66E42ECABF075D062
:103B7000FC0E6F008CFF43F0FD0E6F008CFF44F0D5
:103B8000040E4324D96E000E4420DA6EDE50DE109F
:103B9000D8B426D0FC0E6F008CFF43F0FD0E6F00F2
:103BA0008CFF44F0040E4324D96E000E4420DA6EDC
:103BB000FC0E6F008CFF43F0FD0E6F008CFF44F095
:103BC000020E4324E96E000E4420EA6EDE50EE5CE5
:103BD000EE50800A396EDE50800A3958D8B03DD098
:103BE000FC0E6F008CFF43F0FD0E6F008CFF44F065
:103BF000020E4324D96E000E4420DA6E6F0078FF67
:103C000043F06F0074FF44F0FC0E6F008FFFD9FF8C
:103C1000FD0E6F008FFFDAFF6F0078FF41F06F003D
:103C200074FF42F043504124D96E44504220DA6E72
:103C3000FE0E6F008FFFDFFFFC0E6F008CFF43F066
:103C4000FD0E6F008CFF44F0020E4324D96E000E6F
:103C50004420DA6EDE2A000EDD22E552E552E552FE
:103C6000E55212006BD0040E2718D8B408D0300EDD
:103C7000E66E750EE66E060EE66E02ECA8F0040E19
:103C8000276E000E57D0010E266E1ED0266A1CD05D
:103C900021EE59F2DF50436E446A4450000AD8A422
:103CA000F5D74350490AD8B4EED7F0D721EE5AF2EF
:103CB000DF50436E446A4450000AD8A4E7D743500B
:103CC000560AD8B4E5D7E2D7010E276E0F0E32D0D0
:103CD000020ED6D7030ED4D72750D8B4F5D741D08B
:103CE000FE0EE350436E446A4450000AD8A4F4D751
:103CF0004350020AD8B4B7D70F0AD8B4D7D7030AAB
:103D0000D8B4E2D71E0AD8B4E3D7020AD8B4E2D7AF
:103D1000E3D7050E276E6100A3F5E8FF2D0AD8A4AE
:103D2000D5D71FD0060EF6D72750D8A41AD0010E2B
:103D3000276E2D0E6F00A0FF68F513D0FF0EE35025
:103D4000436E446A4450000AD8A4EED74350010A97
:103D5000D8B4C6D7040AD8B4DCD70C0AD8B4E2D792
:103D6000E3D720EEF9F360009BF0DFFF60009CF0EA
:103D700039F0E552E5521200080EE126000EE2226B
:103D8000FE0E436EFF0E446EF50EE124416EFF0EF3
:103D9000E220426E4350412644504222FF0E600012
:103DA0000BF1E3FFFE0E600007F1E3FFF50E6F007D
:103DB0008CFF43F0F60E6F008CFF44F0F90E6000AC
:103DC00013F1E3FFF80E60000FF1E3FFFA0EE124B8
:103DD000D96EFF0EE220DA6E000EDE6E000EDD6E92
:103DE000FC0EE124D96EFF0EE220DA6E000EDE6ECC
:103DF000000EDD6EFE0EE124396EFF0EE2203A6EFB
:103E00006000E7F0E6FF6000EBF0E6FFF10E6F0008
:103E10008FFFE6FF6F008FFFE6FFF40EE124396E9F
:103E2000FF0EE2203A6E6000E7F0E6FF6000EBF084
:103E3000E6FF16ECA2F0FA0EE124D96EFF0EE220A6
:103E4000DA6E6F0078FF43F06F0074FF44F0F50EF8
:103E50006F008CFF41F0F60E6F008CFF42F0435074
:103E60004124D96E44504220DA6E000EDF6EF80E07
:103E7000E126FF0EE222E552E750E15E000EE25A33
:103E80001200E652E652E652E6521EA00CD0FA0E9E
:103E90006F008FFFE6FF6F008FFFE6FFF70EE35026
:103EA000E66E43ECA4F0F80EE3BE11D0F70E6F00FF
:103EB0008CFF39F0FC0E6000E7F0E3FFF80E6F00B6
:103EC0008CFF39F0FD0E6000E7F0E3FF04D0FC0E3C
:103ED000E36AFD0EE36AFE0EE36AFF0EE36A1ED09C
:103EE000FA0E6F008FFFE6FF6F008FFFE6FF200ED8
:103EF000E66E000EE66EA0EC9DF0FE0EE350010FA4
:103F0000396EFE0E6000E7F0E3FF396AFF0EE35002
:103F10003920396EFF0E6000E7F0E3FFE150FE0F3D
:103F2000D96EE250DA6EFF0EDA22FC0EE350DE5C50
:103F3000DE50800A396EFD0EE350800A3958D8A051
:103F4000CFD71EB00CD0FA0E6F008FFFE6FF6F00C8
:103F50008FFFE6FFF70EE350E66E43ECA4F0F90E98
:103F60006F008CFF44F0600013F1E6FF000EE66E78
:103F700067ECA3F0FC0EE3503926FD0EE3503A2225
:103F8000F70EE126FF0EE222120000000100000001
:103F90000180018100000A00000000000000000014
:103FA0000000000A00000100000001800001000084
:103FB0000A0000010000000180018100800A000069
:103FC000010000000180118200000A0000010000D1
:103FD0000001800F8100000A000001000000018044
:103FE000118100000A000000012101000000018091
:103FF0000C0600000D0000000121010000000180FE
:10400000020A00000D0000000121010000000180F3
:10401000020500000D0000FF0121010000000180E9
:104020001A0200000D00000101A54B434F4C444112
:104030004F4C0841020101013731024102010100E8
:104040000000018029820000210000000101000021
:10405000000180020100000C0000000101000000CE
:1040600001800D8100000C000030313039313130D9
:10407000383436303030300E4101000000018012FB
:104080000200001AD80EF66E2F0EF76E010EF86EB3
:1040900000EEF6F320EE74F209006F00D7FFEEFF9A
:1040A000DD50D950F9E1DA50F7E1040EF66E490E11
:1040B000F76E010EF86E00EE86F320EE70F0090048
:1040C0006F00D7FFEEFFDD50D950F9E18A0EF66E92
:1040D0003F0EF76E010EF86E00EE00F120EEFAF0E2
:1040E00009006F00D7FFEEFFDD50D950F9E1E00E77
:1040F000F66E500EF76E010EF86E00EECCF020EE6C
:104100002CF009006F00D7FFEEFFDD50D950F9E128
:10411000C20EF66E570EF76E010EF86E00EE59F0F5
:1041200020EE05F009006F00D7FFEEFFDD50D950FB
:10413000F9E100EE00F3860EEE6AE806FDE100EE1E
:1041400000F220EE00F1EE6ADD50D950FCE1DA50C9
:10415000FAE100EE60F06C0EEE6AE806FDE100EEBA
:1041600001F0380EEE6AE806FDE1080ED56E000E8D
:10417000D66E000ED76E000100EF80F0E652E652D8
:10418000FE0EE36AFF0EE36AF80E6F008CFF43F049
:10419000F90E6F008CFF44F0FE0EE350435EFF0EFD
:1041A000E350445A000E4324D96E010E4420DA6EC7
:1041B000DF50E66E05015F51030B446E436AFD0E4E
:1041C000E3504326FE0EE350442260000FF1E6FF69
:1041D000600013F1E6FFEFECA4F0FE0EE350010FD8
:1041E000396EFE0E6000E7F0E3FF396AFF0EE35020
:1041F0003920396EFF0E6000E7F0E3FFFF0EE304A5
:10420000D8A0C2D7FC0EE350E66E000EE66EFB0EA1
:10421000E350E66E000EE66E0A0EE66EFF0EE66EE8
:10422000DD0EE66E040EE66E080EE66EBCEC9EF049
:10423000FA0E6F008FFFE6FF6F008FFFE6FF070E9D
:10424000E66E02ECA8F0020E6F00A0FF60F521EE12
:1042500065F1DE2A000EDD2261007FF5E8FF010F27
:104260006F00A0FF5FF5F80EE126FF0EE2221200BC
:10427000430E0001836F030E846F000E816F030EE7
:10428000826F60000FF2E6FF600013F2E6FF30EC91
:10429000A9F0600007F2E6FF60000BF2E6FF30ECE9
:1042A000A9F0BE80BC84300EE66E570EE66E050E99
:1042B000E66E000EE66EE8ECA5F0390EE66E1CEC3C
:1042C000A9F01D0EE66E1CECA9F0500EE66E1CEC7B
:1042D000A9F06C0EE66E1CECA9F0760EE66E1CECF6
:1042E000A9F0380EE66E08ECA9F00F0EE66E1CEC95
:1042F000A9F0010EE66E08ECA9F0020EE66E1CECC9
:10430000A9F0060EE66E1CECA9F01E0EE66E000E7D
:10431000E66E000EE66E000EE66EE8ECA5F0020E0C
:104320003D01166F400E156F830E146F1A933F0EEA
:104330003B01FD17FD9BFD51F90B0209FD6FE70ED7
:10434000FD17FD81430EF96F030EFA6F000EFB6F30
:10435000FC9B3D011A83BE901200E652E652E652E3
:10436000E652FE0EE36AFF0EE36AFC0EE36AFD0E00
:10437000E36A39D0FC0E6F008CFF43F0FD0E6F0036
:104380008CFF44F0FA0E6F008CFF41F0FB0E6F00C3
:104390008CFF42F043504124D96E44504220DA6EE3
:1043A000DF50446EFE0EE3504424396EFE0E600072
:1043B000E7F0E3FF396AFF0EE3503922FF0E600099
:1043C000E7F0E3FFFC0EE350010F396EFC0E6000D6
:1043D000E7F0E3FF396AFD0EE3503920396EFD0E38
:1043E0006000E7F0E3FFF80E6F008CFF43F0F90E7A
:1043F0006F008CFF44F0FC0E6F008CFF41F0FD0E4F
:104400006F008CFF42F04350415C44504258D8A0AA
:10441000B1D7FE0E6F008CFF39F0FF0E6F008CFFDE
:104420003AF0F80EE126FF0EE2221200E652E652C2
:10443000FA0E6F008CFF43F0FB0E6F008CFF44F010
:10444000FF0E600013F1E3FFFE0E60000FF1E3FFCB
:104450000001A06BA16B21D0F80E6F008FFFE6FF6B
:104460006F008FFFE6FFFC0EE124396EFF0EE220A5
:104470003A6E6000E7F0E6FF6000EBF0E6FFF80E52
:104480006F008FFFE6FF6F008FFFE6FF09EC88F0FB
:1044900039500001A0273A50A123E150FE0FD96EF8
:1044A000E250DA6EFF0EDA226F007BFFF6FF6F003C
:1044B00077FFF7FF000EF86E0800F5500009D8A44A
:1044C000CBD7600080F239F0600084F23AF0F80E49
:1044D000E126FF0EE2221200FE0E6F008CFF43F079
:1044E000FF0E6F008CFF44F0420E4324D96E000E85
:1044F0004420DA6E400EDF6040D0FE0E6F008CFF6D
:1045000043F0FF0E6F008CFF44F0400E4324D96E41
:10451000000E4420DA6EDF50446EFE0E6F008CFFFA
:1045200041F0FF0E6F008CFF42F044504124D96EE1
:10453000000E4220DA6EFD0E6F008FFFDFFFFE0ED1
:104540006F008CFF43F0FF0E6F008CFF44F0400EB5
:104550004324D96E000E4420DA6EDF2AFE0E6F006F
:104560008CFF43F0FF0E6F008CFF44F0420E43249B
:10457000D96E000E4420DA6EDF2AE552E552E5528C
:104580001200BE82D7ECABF0000EE66E60000FF2B8
:10459000E6FF600013F2E6FFB8ECA3F0BC94FE0E59
:1045A0006F008FFFE6FF6F008FFFE6FF67ECA3F061
:1045B0003A5004E1410E395CD8A010D0FE0E6F00D5
:1045C0008CFF43F0FF0E6F008CFF44F0400E43243D
:1045D000D96E000E4420DA6E000EDF6E3B01FC9FA8
:1045E000FE0E6F008FFFE6FF6F008FFFE6FF67ECA8
:1045F000A3F06000E7F0F7FB6000EBF0F8FB3B0195
:10460000FC8FFE0E6F008FFFE6FF6F008FFFE6FF4F
:10461000DA0EE66EFF0EE66E040EE66E88ECA5F08E
:10462000DAECABF0E552E5521200070EBE6EBD6A41
:10463000BA6ABF6ABB6A060EBC6EC66A0F0EC76E48
:104640008F0EC26EBF0EC36E910EC46E0C0EC56E81
:104650003A01706B010E606F380E506F806B0F0E59
:10466000906F8F0E406FFC0E716FF00E916F816B2B
:10467000870E516F416B900E616F826B926B426B34
:10468000526B626B726B4369536963697369070E9E
:10469000836F93690F0EE86F160E0E6F1E0E136F69
:1046A000080EC06F0A0EC26F090EC16F170EE56FBC
:1046B000130EDE6F010E046F260E056F280E066FB7
:1046C0001F0E156F130E166F140EDF6F1200E652D9
:1046D000E652FC0E6F008CFF43F0FD0E6F008CFF66
:1046E00044F0FF0E600013F1E3FFFE0E60000FF1D7
:1046F000E3FF11D0FC0EE350010F396EFC0E600099
:10470000E7F0E3FF396AFD0EE3503920396EFD0E04
:104710006000E7F0E3FFFC0E6F008FFFF6FFFD0E79
:104720006F008FFFF7FF000EF86E1F0EF76403D0C7
:104730000800F55007D06F00DBFFE9FF6F00DFFFD7
:10474000EAFFEF500009D8A4D5D7FC0E6F008CFF0C
:1047500039F0FD0E6F008CFF3AF0FE0EE350395E2B
:10476000FF0EE3503A5AE552E552E552E552120087
:10477000FE0E6F008CFF43F0FF0E6F008CFF44F0C5
:10478000420E4324D96E000E4420DA6E000EDF6E16
:10479000FE0E6F008CFF43F0FF0E6F008CFF44F0A5
:1047A000400E4324D96E000E4420DA6E000EDF6EF8
:1047B000FE0E6F008CFF43F0FF0E6F008CFF44F085
:1047C000410E4324D96E000E4420DA6E000EDF6ED7
:1047D000FD0EE350D8B411D0400EE66E000EE66E2A
:1047E000000EE66E000EE66EFA0E6F008FFFE6FF1B
:1047F0006F008FFFE6FF99EC92F0E552E552E5522B
:104800001200E652E6521A501B10D8A409D0FE0E30
:1048100060006BF0E3FFFF0E60006FF0E3FF16D067
:10482000FF0E436EFF0E446E600068F041F06000C2
:104830006CF042F04350412644504222FE0E60008C
:1048400007F1E3FFFF0E60000BF1E3FFFB0E6F00CB
:104850008CFFA4F00001A56BFE0E6F008FFFE6FF3A
:104860006F008FFFE6FFA40EE66EF90E6F008FFF5C
:10487000E6FF6F008FFFE6FF41EC9FF0FB0EE126A5
:10488000FF0EE2221200E652E652E652FD0EE36A05
:10489000FE0EE36A1FD0FA0E6F008FFFE6FF6F0077
:1048A0008FFFE6FFFD0EE350E66E000EE66EA0EC15
:1048B0009DF0FD0EE350010F396EFD0E6000E7F034
:1048C000E3FF396AFE0EE3503920396EFE0E6000B8
:1048D000E7F0E3FFFD0E6F008CFF44F0FC0EE350A9
:1048E0004424D96EDA6ADF50446EFF0E600013F183
:1048F000E3FFFF0EE350D8A4CED7FA0EE126FF0E59
:10490000E222120000004B4F4F52424242423433E7
:10491000323144453231534B4F4F5242424242347E
:1049200030303332314445524623014101012102E6
:1049300001010000000180038A0000350000004FE3
:104940004B4F4F524242424234333231444532316E
:10495000534B52421801410033323144455246070D
:104960000141020101012102010100000001800555
:104970008A000035000E3B01F96F100EFA6F000E31
:10498000FB6F3D0EF16F110EF06F030EFD6F000E09
:10499000F86F010EF76F000EEF6F010EEE6F150E40
:1049A000FF6FFE6B3901A293A291A297A295928309
:1049B000928192879285F16B010EF26F040EF36F74
:1049C000020EF46F030EF76FD29E3901550EEF6F92
:1049D000AA0EEF6FEF81D28E3B01FC6B1200E65204
:1049E000D2AE03D0446A442A01D0446AFF0E60006C
:1049F00013F1E3FFFE0EE124D96EFF0EE220DA6E22
:104A0000DF50030B3901E16FFD0E6F008FFFE0F9FE
:104A1000FC0E6F008FFFE3F93F0EE517E585D29E90
:104A2000550EE66FAA0EE66FE583E5B3FED7E59572
:104A3000FF0EE3B002D0D29E01D0D28EE552E552F5
:104A4000E552E5521200E652D28AD2AE03D0446A51
:104A5000442A01D0446AFF0E600013F1E3FFD29EA6
:104A6000550ED46EAA0ED46ED49038019F6B9E6BF7
:104A7000080E9D6F550ED46EAA0ED46ED480FF0E14
:104A8000E3B002D0D29E01D0D28E390182878283D8
:104A900082818285868786858389838781818581D6
:104AA000878B8981888D8185E55212003901939722
:104AB000D20EE66E550EE66E010EE66E80ECA9F0A3
:104AC00039019399640EE66E510EE66E010EE66EA4
:104AD0006CECA9F03D01EC6BED6BEE6BEF6BF06BEA
:104AE000F16BB00EF26F800EF36FF46B820EF56F08
:104AF000060EF66FF76BF86BF96BFA6B386A376A6C
:104B0000400E366E356A346A336A39019387120073
:104B1000E652E652FB0EE124436EFF0EE220446EA5
:104B2000FF0E600013F1E3FFFE0E60000FF1E3FFE4
:104B3000FE0EE124396EFF0EE2203A6E6000E7F0CF
:104B4000E6FF6000EBF0E6FFF90E6F008FFFE6FF77
:104B50006F008FFFE6FF000EE66E000EE66E16ECAD
:104B6000A2F0E552E552E552E750E15E000EE25A4E
:104B7000120039019695F20EE66E550EE66E010EA4
:104B8000E66E58ECA9F039019697900EE66E510E3C
:104B9000E66E010EE66E44ECA9F03D01D46BD66BD7
:104BA000D86BB00EDA6F800EDB6FDC6B820EDD6FC0
:104BB000060EDE6FDF6BE06BE16BE26B326A316A2F
:104BC000400E306E2F6A2E6A2D6A390196851200CA
:104BD0000001906B916B926B936B09D000F0040015
:104BE000010E00019027000E912392239323FC0EC7
:104BF0006F008CFF39F09051395CFD0E6F008CFF17
:104C000039F091513958FE0E6F008CFF39F09251F6
:104C10003958FF0E6F008CFF39F093513958D8B0D6
:104C2000DDD7E552E552E552E5521200BE82D7ECDF
:104C3000ABF0000EE66E60000FF2E6FF600013F2CC
:104C4000E6FFB8ECA3F0BC92BC943B01FC9F000EC5
:104C5000F86F010EF76FFC8FFF0EE350E66E000E4B
:104C6000E66EFB0EE66EFF0EE66E040EE66E88EC58
:104C7000A5F0DAECABF034ECABF0BC82E5521200FC
:104C8000600010F1FAF013EEF2F23901A89D600015
:104C900093F0E6FF600097F0E6FF66ECA7F021EEE8
:104CA00068F1DF500001F86FF96B050EF827000E70
:104CB000F923224A232AF851225CF9512358D8A01B
:104CC00004D093ECAAF0226A236A6000E8F344F06F
:104CD000110021EE37F1DE2A000EDD22020E6F00F8
:104CE000A0FFF6F321EE39F1870EDF16000E6F00FC
:104CF000A0FFFCF321EE2DF1DF50D8A409D0010E66
:104D00006F00A0FF29F5020E6F00A0FF2AF5120028
:104D1000010E6F00A0FF29F50E0E6F00A0FF2AF50F
:104D200012003901A191D290C80EE66E570EE66EC0
:104D3000010EE66EF8ECA9F039019181A591D292AD
:104D4000CA0EE66E570EE66E010EE66EE4ECA9F0B2
:104D500039019581A79BD294CC0EE66E570EE66E74
:104D6000010EE66ED0ECA9F03901978B12003E01DE
:104D7000DE6BDF6BE06BE16BE46BE56BEA6BEC6BBE
:104D8000F16BF36BF46BF56BF66BF76BF96BFA6B1E
:104D9000FB6BFC6B020EFD6FFE6BFF6B940EF86FEE
:104DA0003901A1959185CE0EE66E570EE66E010E85
:104DB000E66E0CECAAF012009B6A9C6A010E9D6ED6
:104DC000630E996EC00E986E98506F0064FE39F0B5
:104DD0003A6A6000E4F03AF0396A3910246E3A50C9
:104DE000256E3901A89D988DBA0EE66E560EE66EB8
:104DF000010EE66EBCECA9F0310E9A6E1200FF0EA9
:104E0000E3BE07D0FF0EE35012E1FE0EE304D8B07C
:104E10000ED0FE0E6F008CFF39F0391EFF0E6F00B2
:104E20008CFF3AF03A1E392AD8B43A2A08D0FE0E3E
:104E30006F008CFF39F0FF0E6F008CFF3AF0E552E7
:104E4000E5521200E652FF0EE36AFF0EE350020D38
:104E5000F350600FD96EDA6ADE50DE10D8B40AD093
:104E6000FF0EE350020DF350600FD96EDA6ADE06D2
:104E7000000EDD5AFF0EE32AFF0E6F008CFF39F0A3
:104E8000070E3964E2D7E552120023ECA5F080EC5E
:104E9000ABF015ECA3F075ECABF0B7ECA6F018ECAA
:104EA000ABF091ECA6F094ECA9F0A5ECAAF0DCEC48
:104EB000A6F026ECABF056ECA5F0B9ECA5F06AEC48
:104EC000ABF0BAECA4F0B1ECABF012009AA40FD0A6
:104ED0009A90FF0EE124D96EFF0EE220DA6EDF50C9
:104EE000996EFE0E6F008FFF98FF9A800CD0FF0E18
:104EF000E124D96EFF0EE220DA6EDF50996EFE0ECD
:104F00006F008FFF98FFE552E55212003050D8B481
:104F1000FDD7390196B705D0FF0E6F008FFFD2FD88
:104F200011D09697400E3224D96EDA6A020EDA2238
:104F3000FF0E6F008FFFDFFF322A3F0E326401D079
:104F4000326A30069687E55212003650D8B4FDD743
:104F5000390193B905D0FF0E6F008FFFEAFD11D024
:104F60009399C00E3824D96EDA6A020EDA22FF0E47
:104F70006F008FFFDFFF382A3F0E386401D0386A98
:104F800036069389E5521200E6522D50D8B4FDD76B
:104F9000000E2E24D96EDA6A020EDA22DF50446E39
:104FA000FF0E600013F1E3FF2E2A3F0E2E6401D0A6
:104FB0002E6A390196952D069685FF0E6F008CFF9F
:104FC00039F0E5521200E6523350D8B4FDD7800EC6
:104FD0003424D96EDA6A020EDA22DF50446EFF0EF4
:104FE000600013F1E3FF342A3F0E346401D0346AC9
:104FF0003901939733069387FF0E6F008CFF39F0CA
:10500000E5521200FD0E6F008CFF43F0FE0E6F00A4
:105010008CFF44F0D8904334416E4434426EFF0E0E
:10502000E350020DF350600FD96EDA6A600007F1A9
:10503000DEFF60000BF1DDFFE552E552E5521200A4
:10504000FE0E6F008FFFE6FF6F008FFFE6FF000E82
:10505000E66E02ECA8F005D000F000F000F000F0E1
:105060000400000EE66E6FECAAF03950D8B4F4D705
:10507000E552E5521200FE0E6F008CFF44F0FF0E69
:10508000E350100DF3504424800FE66E16ECA6F0AA
:10509000FC0E6F008FFFE6FF6F008FFFE6FFC1EC95
:1050A000A2F0E552E552E552E5521200FE0EE35041
:1050B000FF0F436EFF0E6F008CFF44F0FF0E442283
:1050C00060000CF1C4F0600010F1C5F00001C66B87
:1050D000C76BC86BC96BCA6BCB6BE552E55212004C
:1050E000286E756C6C29000000000100012102018E
:1050F0000100000001800E010000110000004111BC
:1051000001010000000180040100000EFE0EE350CA
:10511000D8B403D00001A26BA36BFF0EE3500001D3
:10512000A227000EA323600088F239F060008CF201
:105130003AF0E552E552120013EEF2F23901A19570
:1051400000019A519B119C11D8B4110001D8110093
:105150000500FA6E9A51FD6E9B51FE6E9C51FF6EDA
:10516000FA501200400E366010D0C00E3724D96EAF
:10517000DA6A020EDA22DF503D01EA6F372A3F0E6B
:10518000376401D0376A362A120039019399120028
:10519000400E306010D0400E3124D96EDA6A020E13
:1051A000DA22DF503D01D26F312A3F0E316401D047
:1051B000316A302A1200390196971200390196950A
:1051C000000E2F24D96EDA6A020EDA22FF0E6F006B
:1051D0008FFFDFFF2F2A3F0E2F6401D02F6A2D2A69
:1051E0009685E552120039019397800E3524D96EC9
:1051F000DA6A020EDA22FF0E6F008FFFDFFF352A18
:105200003F0E356401D0356A332A9387E552120088
:10521000BC92BC94FF0EE350E66E09ECABF0200E9E
:10522000E66E030EE66E000EE66E000EE66EE8EC2D
:10523000A5F0BC82E5521200BC92BC94FF0EE35074
:10524000E66E09ECABF01E0EE66E000EE66E000E8A
:10525000E66E000EE66EE8ECA5F0BC82E5521200A8
:10526000430EE66E000EE66E000EE66E000EE66E73
:10527000FA0E6F008FFFE6FF6F008FFFE6FF99ECDD
:1052800092F0E552E5521200E150FD0FD96EE25066
:10529000DA6EFF0EDA226F0078FF0BF06F0078FFF6
:1052A0000CF06F0074FF0DF0E552E552E55212006C
:1052B000E150FD0FD96EE250DA6EFF0EDA226F0078
:1052C00078FF0EF06F0078FF0FF06F0074FF10F0A2
:1052D000E552E552E5521200E150FD0FD96EE25061
:1052E000DA6EFF0EDA226F0078FF9DF06F0078FF14
:1052F0009EF06F0074FF9FF0E552E552E5521200F8
:10530000E150FD0FD96EE250DA6EFF0EDA226F0027
:1053100078FF08F06F0078FF09F06F0074FF0AF063
:10532000E552E552E5521200010E966E956A976AB3
:10533000030E936E926A3901A9919981440EE66E2B
:105340004E0EE66E010EE66EA8ECA9F0946812000F
:10535000E150FD0FD96EE250DA6EFF0EDA226F00D7
:1053600078FF97F06F0078FF98F06F0074FF99F066
:10537000E552E552E5521200E150FD0FD96EE250C0
:10538000DA6EFF0EDA226F0078FF94F06F0078FF7C
:1053900095F06F0074FF96F0E552E552E552120069
:1053A000E150FD0FD96EE250DA6EFF0EDA226F0087
:1053B00078FF11F06F0078FF12F06F0074FF13F0A8
:1053C000E552E552E5521200E150FD0FD96EE25070
:1053D000DA6EFF0EDA226F0078FF14F06F0078FFAC
:1053E00015F06F0074FF16F0E552E552E552120019
:1053F000E150FD0FD96EE250DA6EFF0EDA226F0037
:1054000078FF17F06F0078FF18F06F0074FF19F045
:10541000E552E552E5521200E150FD0FD96EE2501F
:10542000DA6EFF0EDA226F0078FF9AF06F0078FFD5
:105430009BF06F0074FF9CF0E552E552E5521200BC
:1054400013EEF2F200019D519E119F11D8B411008C
:1054500001D811000500FA6E9D51FD6E9E51FE6E41
:105460009F51FF6EFA50120013EEF2F2085009102D
:105470000A10D8B4110001D811000500FA6E0850C6
:0E548000FD6E0950FE6E0A50FF6EFA501200CB
:1054900013EEF2F20B500C100D10D8B4110001D81D
:1054A00011000500FA6E0B50FD6E0C50FE6E0D5093
:0654B000FF6EFA5012002D
:1054B80013EEF2F20E500F101010D8B4110001D8EC
:1054C80011000500FA6E0E50FD6E0F50FE6E105062
:1054D800FF6EFA5012000400FF0EE350020DF35065
:1054E800600FD96EDA6ADE50DE10D8A402D0010E41
:1054F80001D0000E396EE552120000019751981143
:105508009911D8B4120001D812000500FA6E97510B
:10551800FD6E9851FE6E9951FF6EFA50120000010F
:10552800945195119611D8B4120001D812000500B3
:10553800FA6E9451FD6E9551FE6E9651FF6EFA50BB
:1055480012003C01756B040E766F040E776F040E23
:10555800786F040E796F7A6B7B6B7C6B7D6B810E39
:10556800746F1200175018101910D8B4120001D80F
:1055780012000500FA6E1750FD6E1850FE6E195095
:10558800FF6EFA501200145015101610D8B41200FD
:1055980001D812000500FA6E1450FD6E1550FE6E0B
:1055A8001650FF6EFA501200115012101310D8B492
:1055B800120001D812000500FA6E1150FD6E12504B
:1055C800FE6E1350FF6EFA501200800E3524D96E0D
:1055D800DA6A020EDA226F00A3F7DFFF352A3F0EE0
:1055E800356401D0356A332A1200000E2F24D96E93
:1055F800DA6A020EDA226F0043F7DFFF2F2A3F0E26
:105608002F6401D02F6A2D2A1200010E3D01126F5E
:10561800FF0E6F008FFF11FD3901A2A9FDD76F00A2
:1056280040F439F0E55212003F013E6B3F6B3A6B94
:10563800396B386B060E3D6FC70E3C6FAE0E3B6F75
:105648003E8F12003C01FA99FB81FB93FB89FB9B7F
:10565800130EFC6F0E0EFE6F040EFD6FFA8F120014
:1056680000017DB7FDD7320EE66E000EE66E000E25
:10567800E66E000EE66EE8ECA5F01200FF0EE350B1
:10568800E66E60000FF2E6FF600013F2E6FF6CECD6
:06569800A2F0E552120031
:1056A0006000E4F05EF013EEF2F23901A99181ECB2
:1056B000AAF0600078F139F01100BEA002D0010E0E
:1056C00001D0000EFF0A446EBE504418FE0B441871
:1056D000BE6E1200400E3D01156F030E166F4F0E89
:1056E000196F1C6B830E146F1200200E3901D96FD5
:1056F000DB6BDD6B020EDF6FDE6BDCB11200FDD702
:105700003901C06BC16BC26BC36BC46BC56BC66B1D
:10571000C76B120013EEF2F23901A29100017D97DE
:10572000BE921100FF0EE350E66E16ECA6F0E552B5
:02573000120065
:0E57340013EEF2F23901A191B6ECAAF01100C9
:0E57440013EEF2F23901A591C7ECAAF01100A4
:1057540013EEF2F23901A79BD8ECAAF011003C0138
:10576400E66B940EE56F120013EEF2F23901A29388
:02577400110022
:0A57780013EEF2F23901A2971100BE
:1057840013EEF2F23901A29511006000C0F039F075
:1057940012006000D8F039F012006000B4F039F063
:1057A40012006000CCF039F0120000017D87120075
:0657B4003B01FC8D120018
:0B57BC0013EEF2F211000101010103E5
:0857C800120012001200120091
:020000040020DA
:10000000FF0FFF0FFF0FFF0FFF0FFF0FFF0FFF0F80
:020000040030CA
:0A000000AFFDFFFF9FFFFFFFFFFFB2
:00000001FF
