:020000040000FA
:0400000057EF00F0C6
:10000800DF63DF63DF63DF63DF63DF63DF63DF63D8
:10001800BA63DF63CE610360DF63DF63DF63DF63DF
:10002800C263C863CE63CB63DF63DF63DF63DF6311
:10003800DF63DF63DF63F762ED62DF63DF63DF6384
:10004800DF63DF63DF63DF632B00DF63DF63DF63AF
:10005800BE63DF63DF63DF63DF63DF63DF63DF63A9
:10006800DF63DF630B630163DF63DF63DF63DF632A
:10007800DF63DF632B00DF63DF63DF632B002B00AD
:100088002B002B002B002B002B002B009860DF632C
:100098008263DF63DF63DF632B002B002B002B0001
:0E00A800DF63DF63FF0011EEFFF2C9EFBAF075
:10FE500000636F6D6D616E647320310000000000FF
:10FE6000000000646973706C6179732031000000D8
:10FE70000000000000636F6D6D616E6473203200DE
:10FE800000000000000000646973706C61797320E9
:10FE9000320000000000000000636F6D6D616E6451
:10FEA0007320330000000000000000646973706C70
:10FEB00061797320330000000000000000636F6D63
:10FEC0006D616E6473203400000000000000006467
:10FED0006973706C617973203400000000000000C9
:10FEE00000204D65736720256420537461636B2087
:10FEF00025642020202020200020202020202020D9
:10FF000020202020202020202020200048454C5068
:10FF10002025732020202020202020202020004485
:10FF20004953504C41592025732020202020202067
:10FF3000200025642025322E34662C20256C752067
:10FF40002020230020565445524D202332202020CB
:10FF50002020202000204E534153504F4F4B202053
:10FF6000202020202000204D424D4320534F4C4163
:10FF7000524D4F4E2020002053455155454E43458C
:10FF80002054455354202000767465726D202578E6
:10FF90003A2578202020002056657273696F6E2004
:10FFA00025732020200025642025322E3466202051
:10FFB0002023004E6F762031312032303139002538
:10FFC00073202020202020200031343A33373A3269
:10FFD0003800302E393100494E46004E414E0069FE
:10FFE0006E66006E616E006C58006C64006C66009A
:10FFF0006C69006C75006C78002563002573000047
:020000040001F9
:10000000380EE126000EE222F20EE36AF30EE36AF6
:10001000C20E6F008CFF3DF0C30E6F008CFF3EF0F0
:10002000C40E6F008CFF3FF0C50E6F008CFF40F0D8
:10003000D80E6000F7F0E3FFD90E6000FBF0E3FF9D
:10004000DA0E6000FFF0E3FFDB0E600003F1E3FF78
:10005000DB0EE3AE2BD0010E3F6E000E406EF20EB3
:100060006000FFF0E3FFF30E600003F1E3FFD80E42
:100070006F008FFFE6FF6F008FFFE6FF6F008FFFBF
:10008000E6FF6F008FFFE6FF0AECC2F0D80E6000BB
:10009000D7F0E3FFD90E6000DBF0E3FFDA0E60007B
:1000A000DFF0E3FFDB0E6000E3F0E3FFE80EE36A5E
:1000B000E90EE36AEE0E60007BF0E3FFEF0E6000F6
:1000C0007FF0E3FFF20E6F008CFF35F0F30EE3508C
:1000D0003510D8A402D022A436D0F20E6F008CFFC7
:1000E00035F0F30EE3503510D8A402D02B0E01D01A
:1000F0002D0E3F6E000E406ED20E6000FFF0E3FF4B
:10010000D30E600003F1E3FFD20E6F008CFFACF260
:10011000E80EE350010F356EE80E6000D7F0E3FF04
:10012000356AE90EE3503520356EE90E6000D7F0F0
:10013000E3FFE150EE0FD96EE250DA6EFF0EDA22E5
:10014000DE06000EDD5AD80E6F008FFFE6FF6F004F
:100150008FFFE6FF6F008FFFE6FF6F008FFFE6FF68
:1001600063ECB2F035043610D8A476D0BF0E3F6EE3
:10017000FF0E406EC10EE3503D6E3E6A3F503D267D
:1001800040503E223E5006E11A0E3D5CD8B002D0EF
:10019000010E01D0000E3F6E406AD00E6000FFF0ED
:1001A000E3FFD10E600003F1E3FFD00E6F008CFF80
:1001B00035F0D10EE3503510D8B417D0D70EE66E17
:1001C000FF0EE66EAC0E3F6E020E406EE60EE35082
:1001D0003F26E70EE35040226000FFF0E6FF60009C
:1001E00003F1E6FF5FECBAF016D0DF0EE66EFF0E0D
:1001F000E66EAC0E3F6E020E406EE60EE3503F26FA
:10020000E70EE35040226000FFF0E6FF600003F1DC
:10021000E6FF5FECBAF0E150EE0FD96EE250DA6E15
:10022000FF0EDA22FD0EDE26FF0EDD22EE0E6F003F
:100230008FFFE6FF6F008FFFE6FFAC0EE66E020E4B
:10024000E66EC20E6F008FFFE6FF6F008FFFE6FFC6
:1002500054ECB8F01DEF89F0D80E6F008FFFE6FF69
:100260006F008FFFE6FF6F008FFFE6FF6F008FFFCD
:10027000E6FF63ECB2F035503610D8A456D0BF0E6E
:100280003F6EFF0E406EC10EE3503D6E3E6A3F5022
:100290003D2640503E223E5006E11A0E3D5CD8B04D
:1002A00002D0010E01D0000E3F6E406ACE0E6000FB
:1002B000FFF0E3FFCF0E600003F1E3FFCE0E6F000F
:1002C0008CFF35F0CF0EE3503510D8B417D0DB0ECD
:1002D000E66EFF0EE66EAC0E3F6E020E406EE60E50
:1002E000E3503F26E70EE35040226000FFF0E6FFB8
:1002F000600003F1E6FF5FECBAF08DD7E30EE66E27
:10030000FF0EE66EAC0E3F6E020E406EE60EE35040
:100310003F26E70EE35040226000FFF0E6FF60005A
:1003200003F1E6FF5FECBAF076D7000E3D6E000EEB
:100330003E6E800E3F6E3F0E406ED40E6000F7F0B2
:10034000E3FFD50E6000FBF0E3FFD60E6000FFF088
:10035000E3FFD70E600003F1E3FFEA0EE36AEB0E62
:10036000E36A000EE66E000EE66E000EE66E000E0C
:10037000E66ED40E6F008FFFE6FF6F008FFFE6FF83
:100380006F008FFFE6FF6F008FFFE6FF2CECBBF0E6
:1003900035A039D0BCD0000EE66E000EE66E200E01
:1003A000E66E410EE66ED00E6F008FFFE6FF6F0027
:1003B0008FFFE6FF6F008FFFE6FF6F008FFFE6FF06
:1003C000F8EC90F0D40E6000D7F0E3FFD50E60009B
:1003D000DBF0E3FFD60E6000DFF0E3FFD70E600036
:1003E000E3F0E3FFEA0EE350010F356EEA0E600022
:1003F000D7F0E3FF356AEB0EE3503520356EEB0E98
:100400006000D7F0E3FF000EE66E000EE66E200EF1
:10041000E66E410EE66ED00E6F008FFFE6FF6F00B6
:100420008FFFE6FF6F008FFFE6FF6F008FFFE6FF95
:10043000F8EC90F06000D7F0E6FF6000DBF0E6FF3C
:100440006000DFF0E6FF6000E3F0E6FFD40E6F002F
:100450008FFFE6FF6F008FFFE6FF6F008FFFE6FF65
:100460006F008FFFE6FFA7ECB4F035A032D093D732
:10047000000EE66E000EE66E200EE66E410EE66E93
:10048000D00E6F008FFFE6FF6F008FFFE6FF6F005B
:100490008FFFE6FF6F008FFFE6FFD0EC9BF0D40EDE
:1004A0006000D7F0E3FFD50E6000DBF0E3FFD60E6F
:1004B0006000DFF0E3FFD70E6000E3F0E3FFE15000
:1004C000EA0FD96EE250DA6EFF0EDA22DE06000E77
:1004D000DD5AD40E6F008FFFE6FF6F008FFFE6FF3F
:1004E0006F008FFFE6FF6F008FFFE6FFD40E6F00F7
:1004F0008FFFE6FF6F008FFFE6FF6F008FFFE6FFC5
:100500006F008FFFE6FFA7ECB4F035A0B1D7C10EA6
:10051000E350E66E000EE66EE9ECBEF0FE0E600003
:10052000D7F0E3FFFE0E6F008CFF35F0FF0E60008A
:10053000D7F0E3FFFE0E6F008CFF35F0670E351825
:10054000D8A425D020502110D8A404D0000E216EAC
:10055000010E206E21BE05D0215010E12004D8B03C
:100560000DD0060E3F6E000E406EF00E6000FFF0E4
:10057000E3FFF10E600003F1E3FF0CD0F00E60002A
:1005800083F0E3FFF10E600087F0E3FF03D021AEBC
:10059000F5D7E7D7FE0E6F008CFF35F0670E3518E4
:1005A000D8A42FD0EB0EE3AE0ED0EA0E6F008CFF76
:1005B00035F0FC0E355EEB0E6F008CFF35F0FF0E54
:1005C000355AD8A018D0F00EE350FF0F3F6EF10E51
:1005D0006F008CFF40F0FF0E4022EA0EE3503F5CBC
:1005E0004050800A356EEB0EE350800A3558D8A093
:1005F00002D0660E01D0650E406EFF0E600003F162
:10060000E3FFF00E6F008CFF35F0F80E6000D7F0BE
:10061000E3FFF10E6F008CFF35F0F90E6000D7F0AC
:10062000E3FFFE0E6F008CFF35F0670E3518D8A47F
:100630000BD0FF0E6F008CFF35F0660E3518D8A476
:1006400014D0EB0EE3AE11D0F80EE350010F356E6F
:10065000F80E6000D7F0E3FF356AF90EE35035205D
:10066000356EF90E6000D7F0E3FFFF0E6F008CFFD0
:1006700035F0660E3518D8A43BD0EB0EE3AE1CD097
:10068000000E3D6E000E3E6E800E3F6E3F0E406EC1
:10069000D40E6000F7F0E3FFD50E6000FBF0E3FF3F
:1006A000D60E6000FFF0E3FFD70E600003F1E3FF1A
:1006B000EA0EE36AEB0EE36AFE0E6F008CFF35F084
:1006C000670E3518D8B414D0F80EE350356EEA0E24
:1006D000E3503526F80E6000D7F0E3FFF90EE35043
:1006E000356EEB0EE3503522F90E6000D7F0E3FFD4
:1006F000EC0EE36AED0EE36AD80E6F008CFF3DF05E
:10070000D90E6F008CFF3EF0DA0E6F008CFF3FF0C9
:10071000DB0E6F008CFF40F0E00E6000F7F0E3FFAF
:10072000E10E6000FBF0E3FFE20E6000FFF0E3FF8C
:10073000E30E600003F1E3FFD40E6F008CFF3DF089
:10074000D50E6F008CFF3EF0D60E6F008CFF3FF091
:10075000D70E6F008CFF40F0E40E6000F7F0E3FF6F
:10076000E50E6000FBF0E3FFE60E6000FFF0E3FF44
:10077000E70E600003F1E3FFD6D0D40E6F008FFFC9
:10078000E6FF6F008FFFE6FF6F008FFFE6FF6F0051
:100790008FFFE6FFDC0E6F008FFFE6FF6F008FFF1D
:1007A000E6FF6F008FFFE6FF6F008FFFE6FFD0ECE4
:1007B0009BF06000D7F0E6FF6000DBF0E6FF600032
:1007C000DFF0E6FF6000E3F0E6FFA3ECA4F0DC0E50
:1007D0006000D7F0E3FFDD0E6000DBF0E3FFDE0E2C
:1007E0006000DFF0E3FFDF0E6000E3F0E3FFDC0E0C
:1007F0006F008FFFE6FF6F008FFFE6FF6F008FFF38
:10080000E6FF6F008FFFE6FFEEECB3F06000D4F080
:100810003FF06000D8F040F0F40E6000FFF0E3FF1E
:10082000F50E600003F1E3FFD40E6F008FFFE6FFCB
:100830006F008FFFE6FF6F008FFFE6FF6F008FFFF7
:10084000E6FFD80E6F008FFFE6FF6F008FFFE6FF19
:100850006F008FFFE6FF6F008FFFE6FFF8EC90F070
:100860006000D7F0E6FF6000DBF0E6FF6000DFF03D
:10087000E6FF6000E3F0E6FFDC0E6F008FFFE6FFAF
:100880006F008FFFE6FF6F008FFFE6FF6F008FFFA7
:10089000E6FF2EECC2F0E00E6000D7F0E3FFE10EC1
:1008A0006000DBF0E3FFE20E6000DFF0E3FFE30E49
:1008B0006000E3F0E3FF000EE66E000EE66E200E31
:1008C000E66E410EE66ED00E6F008FFFE6FF6F0002
:1008D0008FFFE6FF6F008FFFE6FF6F008FFFE6FFE1
:1008E000D0EC9BF0D40E6000D7F0E3FFD50E600093
:1008F000DBF0E3FFD60E6000DFF0E3FFD70E600011
:10090000E3F0E3FFEC0EE350010F356EEC0E6000F8
:10091000D7F0E3FF356AED0EE3503520356EED0E6E
:100920006000D7F0E3FFE150EC0FD96EE250DA6ED1
:10093000FF0EDA22F80EE350DE5CDE50800A356EE0
:10094000F90EE350800A3558D8A017D7000EE66E8E
:10095000000EE66EA00EE66E400EE66ED00E6F0044
:100960008FFFE6FF6F008FFFE6FF6F008FFFE6FF50
:100970006F008FFFE6FFF8EC90F0DC0E6000D7F020
:10098000E3FFDD0E6000DBF0E3FFDE0E6000DFF072
:10099000E3FFDF0E6000E3F0E3FFDC0E6F008FFF8C
:1009A000E6FF6F008FFFE6FF6F008FFFE6FF6F002F
:1009B0008FFFE6FFDC0E6F008FFFE6FF6F008FFFFB
:1009C000E6FF6F008FFFE6FF6F008FFFE6FFA7ECEB
:1009D000B4F035A021D0DC0E6F008FFFE6FF6F0072
:1009E0008FFFE6FF6F008FFFE6FF6F008FFFE6FFD0
:1009F000DC0E6F008FFFE6FF6F008FFFE6FF6F00DA
:100A00008FFFE6FF6F008FFFE6FF2CECBBF035A0F9
:100A10001BD0F40EE3B018D0000E3D6E000E3E6EFB
:100A2000000E3F6E000E406EDC0E6000F7F0E3FF3C
:100A3000DD0E6000FBF0E3FFDE0E6000FFF0E3FF81
:100A4000DF0E600003F1E3FFDC0E6F008FFFE6FFB7
:100A50006F008FFFE6FF6F008FFFE6FF6F008FFFD5
:100A6000E6FFD40E6F008FFFE6FF6F008FFFE6FFFB
:100A70006F008FFFE6FF6F008FFFE6FF0DEC95F034
:100A8000E00E6000D7F0E3FFE10E6000DBF0E3FF73
:100A9000E20E6000DFF0E3FFE30E6000E3F0E3FF4F
:100AA000E40E6F008CFF3DF0E50E6F008CFF3EF012
:100AB000E60E6F008CFF3FF0E70E6F008CFF40F0FA
:100AC000D40E6000F7F0E3FFD50E6000FBF0E3FF0B
:100AD000D60E6000FFF0E3FFD70E600003F1E3FFE6
:100AE000FF0E6F008CFF35F0650E3518D8B411D0AD
:100AF000EA0E6F008CFF35F0F60E6000D7F0E3FFD2
:100B0000EB0E6F008CFF35F0F70E6000D7F0E3FFBF
:100B100004D0F60EE36AF70EE36AFA0EE36AFB0E00
:100B2000E36AFC0EE36AFD0EE36AEC0EE36AED0E87
:100B3000E36AB7D1D40E6F008FFFE6FF6F008FFF1F
:100B4000E6FF6F008FFFE6FF6F008FFFE6FFDC0E12
:100B50006F008FFFE6FF6F008FFFE6FF6F008FFFD4
:100B6000E6FF6F008FFFE6FFD0EC9BF06000D7F050
:100B7000E6FF6000DBF0E6FF6000DFF0E6FF60000C
:100B8000E3F0E6FFA3ECA4F0DC0E6000D7F0E3FF97
:100B9000DD0E6000DBF0E3FFDE0E6000DFF0E3FF60
:100BA000DF0E6000E3F0E3FFDC0E6F008FFFE6FF77
:100BB0006F008FFFE6FF6F008FFFE6FF6F008FFF74
:100BC000E6FFEEECB3F06000D4F03FF06000D8F048
:100BD00040F0F40E6000FFF0E3FFF50E600003F15B
:100BE000E3FF22B826D0F40E6F008CFF35F0F50E2F
:100BF000E3503510D8A41DD0FE0E6F008CFF35F0E9
:100C0000670E3518D8A415D0F70EE3AE12D0FC0E3F
:100C1000E350010F356EFC0E6000D7F0E3FF356A3C
:100C2000FD0EE3503520356EFD0E6000D7F0E3FF7A
:100C3000AFD0FA0E6F008CFF35F0FB0EE35035108D
:100C4000D8A470D0F70EE3AE6DD0E80E6F008CFF25
:100C50003FF0E90E6F008CFF40F0AC0E3F24D96EE0
:100C6000020E4020DA6E2E0EDF6EE80EE350010F0A
:100C7000356EE80E6000D7F0E3FF356AE90EE35009
:100C80003520356EE90E6000D7F0E3FFE150EE0F3E
:100C9000D96EE250DA6EFF0EDA22DE06000EDD5A61
:100CA000010E3F6E000E406EFA0E6000FFF0E3FF93
:100CB000FB0E600003F1E3FF35D0E80E6F008CFF00
:100CC0003FF0E90E6F008CFF40F0AC0E3F24D96E70
:100CD000020E4020DA6E300EDF6EE80EE350010F98
:100CE000356EE80E6000D7F0E3FF356AE90EE35099
:100CF0003520356EE90E6000D7F0E3FFE150EE0FCE
:100D0000D96EE250DA6EFF0EDA22DE06000EDD5AF0
:100D1000E150FC0FD96EE250DA6EFF0EDA22DE06E9
:100D2000000EDD5AFC0E6F008CFF35F0FD0EE35017
:100D30003510D8A4C2D7E80E6F008CFF3FF0E90E43
:100D40006F008CFF40F0AC0E3F24D96E020E4020A5
:100D5000DA6EF40EE350300FDF6EE80EE350010F51
:100D6000356EE80E6000D7F0E3FF356AE90EE35018
:100D70003520356EE90E6000D7F0E3FFE150EE0F4D
:100D8000D96EE250DA6EFF0EDA22DE06000EDD5A70
:100D9000D40E6F008FFFE6FF6F008FFFE6FF6F003E
:100DA0008FFFE6FF6F008FFFE6FFD80E6F008FFF0B
:100DB000E6FF6F008FFFE6FF6F008FFFE6FF6F001B
:100DC0008FFFE6FFF8EC90F06000D7F0E6FF6000E0
:100DD000DBF0E6FF6000DFF0E6FF6000E3F0E6FF37
:100DE000DC0E6F008FFFE6FF6F008FFFE6FF6F00E6
:100DF0008FFFE6FF6F008FFFE6FF2EECC2F0E00EE4
:100E00006000D7F0E3FFE10E6000DBF0E3FFE20EED
:100E10006000DFF0E3FFE30E6000E3F0E3FF000EAD
:100E2000E66E000EE66E200EE66E410EE66ED00E09
:100E30006F008FFFE6FF6F008FFFE6FF6F008FFFF1
:100E4000E6FF6F008FFFE6FFD0EC9BF0D40E600052
:100E5000D7F0E3FFD50E6000DBF0E3FFD60E6000B5
:100E6000DFF0E3FFD70E6000E3F0E3FFE150F60FA1
:100E7000D96EE250DA6EFF0EDA22DE06000EDD5A7F
:100E8000EC0EE350010F356EEC0E6000D7F0E3FF7F
:100E9000356AED0EE3503520356EED0E6000D7F06B
:100EA000E3FFE150EC0FD96EE250DA6EFF0EDA226A
:100EB000F80EE350DE5CDE50800A356EF90EE3502A
:100EC000800A3558D8B00ED0E90EE3BE33D6E90E0D
:100ED000E35008E1E80E6F008CFF35F04B0E355EF5
:100EE000D8A028D6FA0E6F008CFF35F0FB0EE35029
:100EF0003510D8B422A821D0E80E6F008CFF3FF047
:100F0000E90E6F008CFF40F0AC0E3F24D96E020E4C
:100F10004020DA6E2E0EDF6EE80EE350010F356EC4
:100F2000E80E6000D7F0E3FF356AE90EE3503520A4
:100F3000356EE90E6000D7F0E3FFE80E6F008CFF1E
:100F40003FF0E90E6F008CFF40F0AC0E3F24D96EED
:100F5000020E4020DA6E000EDF6EFF0E6F008CFF77
:100F600035F0650E3518D8A416EF81F04F0E3F6EA0
:100F7000000E406EEC0E6000FFF0E3FFED0E60002F
:100F800003F1E3FFEC0E6F008CFF3FF0ED0E6F00FE
:100F90008CFF40F0AC0E3F24D96E020E4020DA6E7A
:100FA000000EDF6EF20EE36AF30EE36AEB0EE3AEC1
:100FB00012D0010E3F6E000E406EF20E6000FFF088
:100FC000E3FFF30E600003F1E3FFEA0EE36CEB0EC8
:100FD000E31ED8B0E32A020E3F6E000E406EF00E04
:100FE0006000FFF0E3FFF10E600003F1E3FF51D07A
:100FF000E150EC0FD96EE250DA6EFF0EDA22DE0617
:10100000000EDD5AEC0E6F008CFF3FF0ED0E6F000E
:101010008CFF40F0AC0E3F24D96E020E4020DA6EF9
:101020000A0EE66E000EE66EE80E6F008FFFE6FF1A
:101030006F008FFFE6FFC8ECB7F03550300FDF6E62
:101040000A0EE66E000EE66EE80E6F008FFFE6FFFA
:101050006F008FFFE6FF58ECB5F0EA0E6000D7F0A6
:10106000E3FFEB0E6000DBF0E3FFE150F00FD96E21
:10107000E250DA6EFF0EDA22DE06000EDD5AE15093
:10108000EE0FD96EE250DA6EFF0EDA22DE06000EA7
:10109000DD5AEA0E6F008CFF35F0EB0EE350351091
:1010A000D8A4A6D7F10EE3BE07D0F10EE350A0E11D
:1010B000F00EE304D8B09CD7E150EC0FD96EE250AB
:1010C000DA6EFF0EDA22DE06000EDD5AF20E6F0037
:1010D0008CFF35F0F30EE3503510D8A402D02B0E60
:1010E00001D02D0E3F6E000E406ECC0E6000FFF062
:1010F000E3FFCD0E600003F1E3FFEC0E6F008CFF09
:101100003FF0ED0E6F008CFF40F0AC0E3F24D96E27
:10111000020E4020DA6ECC0E6F008FFFDFFFE15031
:10112000EE0FD96EE250DA6EFF0EDA22DE06000E06
:10113000DD5AE150EC0FD96EE250DA6EFF0EDA2282
:10114000DE06000EDD5ABF0E3F6EFF0E406EC10E72
:10115000E3503D6E3E6A3F503D2640503E223E5099
:1011600006E11A0E3D5CD8B002D0010E01D0000E8F
:101170003F6E406AC80E6000FFF0E3FFC90E6000DA
:1011800003F1E3FFC80E6F008CFF35F0C90EE3508A
:101190003510D8A402D0650E01D0450E3F6E000E6A
:1011A000406ECA0E6000FFF0E3FFCB0E600003F15B
:1011B000E3FFEC0E6F008CFF3FF0ED0E6F008CFF35
:1011C00040F0AC0E3F24D96E020E4020DA6ECA0EFB
:1011D0006F008FFFDFFFE150EE0FD96EE250DA6E45
:1011E000FF0EDA22DE06000EDD5AEC0E6F008CFFD9
:1011F0003FF0ED0E6F008CFF40F0AC0E3F243D6ED3
:10120000020E40203E6E6000F7F0E6FF6000FBF04B
:10121000E6FFAC0E3F6E020E406EE60EE3503F2638
:10122000E70EE35040226000FFF0E6FF600003F1AC
:10123000E6FF5FECBAF016EF81F0C10EE126FF0E7B
:10124000E2221200200EE126000EE222DC0E6F00E8
:101250008FFFD9FFDD0E6F008FFFDAFF6F007BFF7E
:10126000F6FF6F0077FFF7FF000EF86E0800F550ED
:10127000250AD8A4C9EF90F0DC0E6F008FFFD9FFCC
:10128000DD0E6F008FFFDAFFDE2A000EDD221E6A00
:101290001F6A226A236A20682168DC0E6F008FFFB4
:1012A000D9FFDD0E6F008FFFDAFF6F007BFFF6FFC7
:1012B0006F0077FFF7FF000EF86E0800F5502A0A5E
:1012C000D8A431D0DC0E6F008FFFD9FFDD0E6F0088
:1012D0008FFFDAFFDE2A000EDD22DA0E6F008FFFAD
:1012E000D9FFDB0E6F008FFFDAFF020EDE5E000E0D
:1012F000DD5A6F0078FF3FF06F0074FF40F0600030
:10130000FFF0D9FF600003F1DAFF6F0078FF1EF0F5
:101310006F0074FF1FF01FAE66D022801E6C1F1E70
:10132000D8B01F2A60D0DC0E6F008FFFD9FFDD0E12
:101330006F008FFFDAFF6F0078FF3FF06F0074FFE0
:1013400040F06000FFF0E6FF600003F1E6FF0EEC06
:10135000ACF06000D4F01EF06000D8F01FF00BD0AD
:10136000DC0E6F008FFFD9FFDD0E6F008FFFDAFFFD
:10137000DE2A000EDD22D00E3F6EFF0E406EDC0E28
:101380006F008FFFD9FFDD0E6F008FFFDAFF6F0058
:101390007BFFF6FF6F0077FFF7FF000EF86E080087
:1013A000F5503D6E3E6A3F503D2640503E223E5035
:1013B00006E10A0E3D5CD8B002D0010E01D0000E4D
:1013C0003F6E406AE40E6000FFF0E3FFE50E600050
:1013D00003F1E3FFE40E6F008CFF35F0E50EE35000
:1013E0003510D8A4BDD7DC0E6F008FFFD9FFDD0EFE
:1013F0006F008FFFDAFF6F007BFFF6FF6F0077FF54
:10140000F7FF000EF86E0800F5502E0AD8A4ACD0F5
:10141000206A216ADC0E6F008FFFD9FFDD0E6F009E
:101420008FFFDAFFDE2A000EDD22DC0E6F008FFF59
:10143000D9FFDD0E6F008FFFDAFF6F007BFFF6FF35
:101440006F0077FFF7FF000EF86E0800F5502A0ACC
:10145000D8A42AD0DC0E6F008FFFD9FFDD0E6F00FD
:101460008FFFDAFFDE2A000EDD22DA0E6F008FFF1B
:10147000D9FFDB0E6F008FFFDAFF020EDE5E000E7B
:10148000DD5A6F0078FF3FF06F0074FF40F060009E
:10149000FFF0D9FF600003F1DAFF6F0078FF20F062
:1014A0006F0074FF21F060D0DC0E6F008FFFD9FF5A
:1014B000DD0E6F008FFFDAFF6F0078FF3FF06F00E7
:1014C00074FF40F06000FFF0E6FF600003F1E6FF0C
:1014D0000EECACF06000D4F020F06000D8F021F009
:1014E0000BD0DC0E6F008FFFD9FFDD0E6F008FFF7A
:1014F000DAFFDE2A000EDD22D00E3F6EFF0E406EB8
:10150000DC0E6F008FFFD9FFDD0E6F008FFFDAFF5B
:101510006F007BFFF6FF6F0077FFF7FF000EF86E9E
:101520000800F5503D6E3E6A3F503D2640503E2239
:101530003E5006E10A0E3D5CD8B002D0010E01D04B
:10154000000E3F6E406AE00E6000FFF0E3FFE10E28
:10155000600003F1E3FFE00E6F008CFF35F0E10E59
:10156000E3503510D8A4BDD7DC0E6F008FFFD9FF34
:10157000DD0E6F008FFFDAFF6F007BFFF6FF6F005D
:1015800077FFF7FF000EF86E0800F550E66E000ECC
:10159000E66EE9ECBEF0FA0E6000D7F0E3FFFA0E5B
:1015A000E350D8B45BD0FB0EE124D96EFF0EE220ED
:1015B000DA6EDC0E6F008FFFE9FFDD0E6F008FFF2C
:1015C000EAFF6F00B8FF3FF06F00B4FF40F0010E7C
:1015D0003F26000E40226000FFF0F6FF600003F19E
:1015E000F7FF000EF86E0800F550E66E000EE66E8E
:1015F000E9ECBEF03550DF6EFB0EE124D96EFF0E34
:10160000E220DA6EDF50D8B429D0FC0EE124D96E86
:10161000FF0EE220DA6EDC0E6F008FFFE9FFDD0EB9
:101620006F008FFFEAFF6F00B8FF3FF06F00B4FF5D
:1016300040F0020E3F26000E40226000FFF0F6FF51
:10164000600003F1F7FF000EF86E0800F550E66E3B
:10165000000EE66EE9ECBEF03550DF6EDC0E6F007A
:101660008FFFD9FFDD0E6F008FFFDAFF6F007BFF6A
:10167000F6FF6F0077FFF7FF000EF86E0800F550D9
:10168000630AD8A437D0DC0E6F008FFFD9FFDD0EC0
:101690006F008FFFDAFFDE2A000EDD22DA0E6F0008
:1016A0008FFFD9FFDB0E6F008FFFDAFF020EDE5EC9
:1016B000000EDD5A6F0078FF3FF06F0074FF40F0BE
:1016C0006000FFF0D9FF600003F1DAFFDF50406EE9
:1016D000FF0E600003F1E3FFFF0EE350E66EDD0E48
:1016E0006F008FFFE6FF6F008FFFE6FF63ECBEF039
:1016F000F3EF90F0DC0E6F008FFFD9FFDD0E6F006F
:101700008FFFDAFF6F007BFFF6FF6F0077FFF7FFB9
:10171000000EF86E0800F550640AD8B415D0DC0E3F
:101720006F008FFFD9FFDD0E6F008FFFDAFF6F00B4
:101730007BFFF6FF6F0077FFF7FF000EF86E0800E3
:10174000F550690AD8A476D0DC0E6F008FFFD9FF60
:10175000DD0E6F008FFFDAFFDE2A000EDD22DA0ECB
:101760006F008FFFD9FFDB0E6F008FFFDAFF020ED5
:10177000DE5E000EDD5A6F0078FF3FF06F0074FFF1
:1017800040F06000FFF0D9FF600003F1DAFF6F0066
:1017900078FF3FF06F0074FF40F0EE0E6000FFF046
:1017A000E3FFEF0E600003F1E3FF356AE3BE356847
:1017B000F00E6000D7F0E3FFF10E6000D7F0E3FF1A
:1017C000F20E6000D7F0E3FFF30E6000D7F0E3FF06
:1017D000F40E6000D7F0E3FFF50E6000D7F0E3FFF2
:1017E000E150EE0FD96EE250DA6EFF0EDA226F0092
:1017F0007BFFE6FF6F007BFFE6FF6F007BFFE6FFEE
:101800006F007BFFE6FF6F007BFFE6FF6F007BFF53
:10181000E6FF6F007BFFE6FF6F007BFFE6FFD60E63
:101820006F008FFFE6FF6F008FFFE6FF8DEC9EF0ED
:10183000F3EF90F0020EE66E000EE66EEA0EE66E34
:10184000FF0EE66ED80E6F008FFFD9FFD90E6F0026
:101850008FFFDAFF6F0078FF3FF06F0074FF40F0FA
:101860006000FFF0E6FF600003F1E6FF68ECAEF019
:1018700035503610D8B422D0020EE66E000EE66E59
:10188000F00EE66EFF0EE66ED80E6F008FFFD9FFEA
:10189000D90E6F008FFFDAFF6F0078FF3FF06F0007
:1018A00074FF40F06000FFF0E6FF600003F1E6FF28
:1018B00068ECAEF035503610D8A469D0DC0E6F005D
:1018C0008FFFD9FFDD0E6F008FFFDAFF020EDE26DD
:1018D000000EDD22DA0E6F008FFFD9FFDB0E6F00E6
:1018E0008FFFDAFF040EDE5E000EDD5A6F0078FF18
:1018F0003FF06F0074FF40F06000FFF0D9FF600020
:1019000003F1DAFF6F0078FF3DF06F0078FF3EF0E3
:101910006F0078FF3FF06F0078FF40F06000F4F058
:1019200045F06000F8F046F06000FCF047F0600021
:1019300000F148F0496A48BE4968600024F14AF065
:10194000600024F14BF0600024F14CF0EE0E6000DA
:1019500017F1E3FFEF0E60001BF1E3FFF00E6000F4
:101960001FF1E3FFF10E600023F1E3FFF20E6000D0
:1019700027F1E3FFF30E60002BF1E3FFF40E6000AC
:101980002FF1E3FFF50E600033F1E3FF29D7FA0EE4
:101990006F008CFF35F0660E3518D8A46ED0DC0EC3
:1019A0006F008FFFD9FFDD0E6F008FFFDAFF6F0032
:1019B0007BFFF6FF6F0077FFF7FF000EF86E080061
:1019C000FF0E6F00D7FFE3FFDC0E6F008FFFD9FF24
:1019D000DD0E6F008FFFDAFFDE2A000EDD22DA0E49
:1019E0006F008FFFD9FFDB0E6F008FFFDAFF040E51
:1019F000DE5E000EDD5A6F0078FF3FF06F0074FF6F
:101A000040F06000FFF0D9FF600003F1DAFF6F00E3
:101A100078FF3DF06F0078FF3EF06F0078FF3FF0F9
:101A20006F0078FF40F0F60E6000F7F0E3FFF70E6E
:101A30006000FBF0E3FFF80E6000FFF0E3FFF90E3B
:101A4000600003F1E3FFFF0EE350E66EF50E6F005A
:101A50008FFFE6FF6F008FFFE6FF6F008FFFE6FF4F
:101A60006F008FFFE6FFD90E6F008FFFE6FF6F005C
:101A70008FFFE6FF00EC80F0B6D3020EE66E000E9C
:101A8000E66EED0EE66EFF0EE66EF60EE124356EA6
:101A9000FF0EE220366E6000D7F0E6FF6000DBF05C
:101AA000E6FF68ECAEF035503610D8A496D0DC0EC8
:101AB0006F008FFFD9FFDD0E6F008FFFDAFF6F0021
:101AC00078FF3FF06F0074FF40F0010E3F26000EDC
:101AD00040226000FFF0F6FF600003F1F7FF000E08
:101AE000F86E0800FF0E6F00D7FFE3FFBF0E3F6EDA
:101AF000FF0E406EDC0E6F008FFFD9FFDD0E6F0012
:101B00008FFFDAFF6F007BFFF6FF6F0077FFF7FFB5
:101B1000000EF86E0800F5503D6E3E6A3F503D26BF
:101B200040503E223E5006E11A0E3D5CD8B002D035
:101B3000010E01D0000E3F6E406AE20E6000FFF021
:101B4000E3FFE30E600003F1E3FFE20E6F008CFFA2
:101B500035F0E30EE3503510DA0E6F008FFFD9FF3A
:101B6000DB0E6F008FFFDAFF040EDE5E000EDD5A23
:101B70006F0078FF3FF06F0074FF40F06000FFF0EF
:101B8000D9FF600003F1DAFF6F0078FF3DF06F00CE
:101B900078FF3EF06F0078FF3FF06F0078FF40F075
:101BA000F60E6000F7F0E3FFF70E6000FBF0E3FFD6
:101BB000F80E6000FFF0E3FFF90E600003F1E3FFB1
:101BC000DC0E6F008FFFD9FFDD0E6F008FFFDAFF95
:101BD000020EDE26000EDD2236D7DC0E6F008FFFF0
:101BE000D9FFDD0E6F008FFFDAFF6F007BFFF6FF7E
:101BF0006F0077FFF7FF000EF86E0800F550730ACC
:101C0000D8A442D0DC0E6F008FFFD9FFDD0E6F002D
:101C10008FFFDAFFDE2A000EDD22DA0E6F008FFF63
:101C2000D9FFDB0E6F008FFFDAFF020EDE5E000EC3
:101C3000DD5A6F0078FF3FF06F0074FF40F06000E6
:101C4000FFF0D9FF600003F1DAFF6F0078FF3FF08B
:101C50006F0074FF40F0FE0E600003F1E3FFFD0E25
:101C60006000FFF0E3FFFD0E6F008FFFE6FF6F00E7
:101C70008FFFE6FFDC0E6F008FFFE6FF6F008FFF28
:101C8000E6FF6FECA9F0AFD2DC0E6F008FFFD9FF3B
:101C9000DD0E6F008FFFDAFF6F007BFFF6FF6F0036
:101CA00077FFF7FF000EF86E0800F550750AD8A40C
:101CB0007CD0DC0E6F008FFFD9FFDD0E6F008FFF31
:101CC000DAFFDE2A000EDD22DA0E6F008FFFD9FF69
:101CD000DB0E6F008FFFDAFF020EDE5E000EDD5AB4
:101CE0006F0078FF3FF06F0074FF40F06000FFF07E
:101CF000D9FF600003F1DAFF6F0078FF3FF06F005B
:101D000074FF40F03F50456E4050466E476A486A47
:101D1000496A4A6A4B6A4C6AE60E600017F1E3FFB3
:101D2000E70E60001BF1E3FFE80E60001FF1E3FF28
:101D3000E90E600023F1E3FFEA0E600027F1E3FF04
:101D4000EB0E60002BF1E3FFEC0E60002FF1E3FFE0
:101D5000ED0E600033F1E3FFE150E60FD96EE25083
:101D6000DA6EFF0EDA226F007BFFE6FF6F007BFF6B
:101D7000E6FF6F007BFFE6FF6F007BFFE6FF6F0073
:101D80007BFFE6FF6F007BFFE6FF6F007BFFE6FF58
:101D90006F007BFFE6FFD60E6F008FFFE6FF6F0040
:101DA0008FFFE6FF59ECA6F01ED2020EE66E000E83
:101DB000E66EF30EE66EFF0EE66ED80E6F008FFF36
:101DC000D9FFD90E6F008FFFDAFF6F0078FF3FF069
:101DD0006F0074FF40F06000FFF0E6FF600003F169
:101DE000E6FF68ECAEF035503610D8A439D0DC0EE2
:101DF0006F008FFFD9FFDD0E6F008FFFDAFF020E3D
:101E0000DE26000EDD22DA0E6F008FFFD9FFDB0E1B
:101E10006F008FFFDAFF040EDE5E000EDD5A6F00EA
:101E200078FF3FF06F0074FF40F06000FFF0D9FFD3
:101E3000600003F1DAFF6F0078FF3DF06F0078FF7C
:101E40003EF06F0078FF3FF06F0078FF40F03D50AC
:101E5000456E3E50466E3F50476E4050486E58D7D4
:101E6000DC0E6F008FFFD9FFDD0E6F008FFFDAFFF2
:101E70006F007BFFF6FF6F0077FFF7FF000EF86E35
:101E80000800F550780AD8B415D0DC0E6F008FFF2B
:101E9000D9FFDD0E6F008FFFDAFF6F007BFFF6FFCB
:101EA0006F0077FFF7FF000EF86E0800F550580A34
:101EB000D8A494D0DC0E6F008FFFD9FFDD0E6F0029
:101EC0008FFFDAFF6F007BFFF6FF6F0077FFF7FFF2
:101ED000000EF86E0800FF0E6F00D7FFE3FFDC0E68
:101EE0006F008FFFD9FFDD0E6F008FFFDAFFDE2A54
:101EF000000EDD22DA0E6F008FFFD9FFDB0E6F00C0
:101F00008FFFDAFF020EDE5E000EDD5A6F0078FFF3
:101F10003FF06F0074FF40F06000FFF0D9FF6000F9
:101F200003F1DAFF6F0078FF3FF06F0074FF40F0BD
:101F30003F50456E4050466E476A486A496A4A6A51
:101F40004B6A4C6AE60E600017F1E3FFE70E600093
:101F50001BF1E3FFE80E60001FF1E3FFE90E6000F4
:101F600023F1E3FFEA0E600027F1E3FFEB0E6000D0
:101F70002BF1E3FFEC0E60002FF1E3FFED0E6000AC
:101F800033F1E3FFFF0EE350E66EE150E50FD96E4B
:101F9000E250DA6EFF0EDA226F007BFFE6FF6F0081
:101FA0007BFFE6FF6F007BFFE6FF6F007BFFE6FF36
:101FB0006F007BFFE6FF6F007BFFE6FF6F007BFF9C
:101FC000E6FF6F007BFFE6FFD50E6F008FFFE6FF99
:101FD0006F008FFFE6FFC6ECA2F005D1020EE66EA1
:101FE000000EE66EF60EE66EFF0EE66ED80E6F0081
:101FF0008FFFD9FFD90E6F008FFFDAFF6F0078FFD8
:102000003FF06F0074FF40F06000FFF0E6FF6000FB
:1020100003F1E6FF68ECAEF035503610D8B422D0AC
:10202000020EE66E000EE66EE70EE66EFF0EE66E40
:10203000D80E6F008FFFD9FFD90E6F008FFFDAFF28
:102040006F0078FF3FF06F0074FF40F06000FFF01A
:10205000E6FF600003F1E6FF68ECAEF035503610A5
:10206000D8A458D0DC0E6F008FFFD9FFDD0E6F00B3
:102070008FFFDAFF6F0078FF3FF06F0074FF40F0D2
:10208000010E3F26000E40226000FFF0F6FF6000C8
:1020900003F1F7FF000EF86E0800FF0E6F00D7FF88
:1020A000E3FFDC0E6F008FFFD9FFDD0E6F008FFFA7
:1020B000DAFF020EDE26000EDD22DA0E6F008FFF41
:1020C000D9FFDB0E6F008FFFDAFF040EDE5E000E1D
:1020D000DD5A6F0078FF3FF06F0074FF40F0600042
:1020E000FFF0D9FF600003F1DAFF6F0078FF3DF0E9
:1020F0006F0078FF3EF06F0078FF3FF06F0078FFD1
:1021000040F03D50456E3E50466E3F50476E405049
:10211000486E14D7DC0E6F008FFFD9FFDD0E6F0005
:102120008FFFDAFF6F007BFFF6FF6F0077FFF7FF8F
:10213000000EF86E0800F550250AD8A41AD0DC0E5F
:102140006F008FFFD9FFDD0E6F008FFFDAFFDE2AF1
:10215000000EDD22DE0E6F008FFFE6FF6F008FFFA7
:10216000E6FF250EE66E000EE66E36ECB7F0010EC9
:102170000CD0DC0E6F008FFFD9FFDD0E6F008FFFDC
:10218000DAFFDE2A000EDD22000E356E000E366EFE
:102190002AD0DE0E6F008FFFE6FF6F008FFFE6FF95
:1021A000DA0E6F008FFFD9FFDB0E6F008FFFDAFFB3
:1021B0006F007BFFF6FF6F0077FFF7FF000EF86EF2
:1021C0000800F550E66E000EE66E36ECB7F0DC0E59
:1021D0006F008FFFD9FFDD0E6F008FFFDAFFDE2A61
:1021E000000EDD22C4D7DA0EE126FF0EE222120035
:1021F0000D0EE126000EE222F20EE124D96EFF0E52
:10220000E220DA6EDF50406E800E4016FF0E600056
:1022100003F1E3FFF20EE124D96EFF0EE220DA6E45
:10222000DF50406ED89040343F6EFD0E6000FFF0EE
:10223000E3FFF10EE124D96EFF0EE220DA6EDFAE8D
:1022400002D0FD0EE380FD0EE350D8B41FD0FD0E8A
:10225000E328D8A418D0000E3D6E000E3E6E000E8E
:102260003F6E000E406EEF0E6000F7F0E3FFF00EE1
:102270006000FBF0E3FFF10E6000FFF0E3FFF20E01
:10228000600003F1E3FFF10EE38E18D0000E3D6E07
:10229000000E3E6E000E3F6E000E406EEF0E6000B0
:1022A000F7F0E3FFF00E6000FBF0E3FFF10E6000DB
:1022B000FFF0E3FFF20E600003F1E3FFEE0EE12416
:1022C000D96EFF0EE220DA6EDF50406E800E4016AF
:1022D000E150FF0FD96EE250DA6EFF0EDA22405065
:1022E000DF1AEE0EE124D96EFF0EE220DA6EDF5027
:1022F000406ED89040343F6EFE0E6000FFF0E3FF6A
:10230000ED0EE124D96EFF0EE220DA6EDFAE02D0D0
:10231000FE0EE380FE0EE350D8B41FD0FE0EE3287D
:10232000D8A418D0000E3D6E000E3E6E000E3F6E1B
:10233000000E406EEB0E6000F7F0E3FFEC0E600065
:10234000FBF0E3FFED0E6000FFF0E3FFEE0E600038
:1023500003F1E3FFED0EE38E18D0000E3D6E000E8C
:102360003E6E000E3F6E000E406EEB0E6000F7F00A
:10237000E3FFEC0E6000FBF0E3FFED0E6000FFF00A
:10238000E3FFEE0E600003F1E3FFFE0EE350D8B46E
:1023900004D0FD0EE350D8A409D0000E356E000E17
:1023A000366E000E376E000E386E32D3EF0E6F00B1
:1023B0008CFF40F0ED0EE124D96EFF0EE220DA6EC4
:1023C000DF504002FB0E6F00CFFFE3FFFC0E6F00FB
:1023D000D3FFE3FFFB0E6F008CFF40F0600000F1C5
:1023E00039F03A6A3B6A3C6AF70E6000E7F0E3FFB7
:1023F000F80E6000EBF0E3FFF90E6000EFF0E3FF92
:10240000FA0E6000F3F0E3FFFC0EE124D96EFF0E3C
:10241000E220DA6EDF50406E600000F139F03A6A77
:102420003B6A3C6AF30E6000E7F0E3FFF40E6000E5
:10243000EBF0E3FFF50E6000EFF0E3FFF60E600057
:10244000F3F0E3FFF00EE124D96EFF0EE220DA6E26
:10245000DF50406EEC0EE124D96EFF0EE220DA6E02
:10246000DF504002FB0E6F00CFFFE3FFFC0E6F005A
:10247000D3FFE3FFE150F70FD96EE250DA6EFF0EA3
:10248000DA22FB0EE350DE26000EDE22DE22DE2202
:10249000E150F30FD96EE250DA6EFF0EDA22FC0E35
:1024A000E124E96EFF0EE220EA6EEF50DE26000E18
:1024B000DE22DE22DE22F10EE124D96EFF0EE220C2
:1024C000DA6EDF50406EEB0EE3504002FB0E6F0001
:1024D000CFFFE3FFFC0E6F00D3FFE3FFE150F70FE8
:1024E000D96EE250DA6EFF0EDA22FB0EE350DE26E2
:1024F000000EDE22DE22DE22E150F30FD96EE25022
:10250000DA6EFF0EDA22FC0EE124E96EFF0EE22005
:10251000EA6EEF50DE26000EDE22DE22DE22E150E1
:10252000F70FD96EE250DA6EFF0EDA22080ED8905D
:10253000DE36DE36DE36DD36DD52DD52E82EF7D70A
:10254000F00EE124D96EFF0EE220DA6EDF50406E0D
:10255000EB0EE3504002FB0E6F00CFFFE3FFFC0EDB
:102560006F00D3FFE3FFFB0E6F008CFF3FF0FC0E0C
:102570006F008CFF40F0E150F70FD96EE250DA6E39
:10258000FF0EDA223F50DE264050DE22000EDE2211
:10259000DE22EF0E6F008CFF40F0EC0EE124D96ECE
:1025A000FF0EE220DA6EDF504002FB0E6F00CFFF1D
:1025B000E3FFFC0E6F00D3FFE3FFFB0E6F008CFF09
:1025C0003FF0FC0E6F008CFF40F0E150F70FD96E2A
:1025D000E250DA6EFF0EDA223F50DE264050DE2255
:1025E000000EDE22DE22E150F70FD96EE250DA6EE5
:1025F000FF0EDA22080ED890DE36DE36DE36DD3605
:10260000DD52DD52E82EF7D7EF0E6F008CFF40F061
:10261000EB0EE3504002FB0E6F00CFFFE3FFFC0E1A
:102620006F00D3FFE3FFFB0E6F008CFF3FF0FC0E4B
:102630006F008CFF40F0E150F70FD96EE250DA6E78
:10264000FF0EDA223F50DE264050DE22000EDE2250
:10265000DE22F00EE124D96EFF0EE220DA6EDF50AA
:10266000406EED0EE124D96EFF0EE220DA6EDF50EF
:102670004002FB0E6F00CFFFE3FFFC0E6F00D3FFA5
:10268000E3FFFB0E6F008CFF3FF0FC0E6F008CFF32
:1026900040F0E150F30FD96EE250DA6EFF0EDA220D
:1026A0003F50DE264050DE22000EDE22DE22F10EFA
:1026B000E124D96EFF0EE220DA6EDF50406EEC0EA0
:1026C000E124D96EFF0EE220DA6EDF504002FB0EED
:1026D0006F00CFFFE3FFFC0E6F00D3FFE3FFFB0EA5
:1026E0006F008CFF3FF0FC0E6F008CFF40F0E1505C
:1026F000F30FD96EE250DA6EFF0EDA223F50DE267B
:102700004050DE22000EDE22DE22F10EE124D96EE0
:10271000FF0EE220DA6EDF50406EED0EE124D96E3E
:10272000FF0EE220DA6EDF504002FB0E6F00CFFF9B
:10273000E3FFFC0E6F00D3FFE3FFFB0E6F008CFF87
:102740003FF0FC0E6F008CFF40F03F50396E405060
:102750003A6E3B6A3C6A6000ECF03CF06000E8F0E6
:102760003BF06000E4F03AF0396AE150F30FD96EC3
:10277000E250DA6EFF0EDA223950DE263A50DE22BF
:102780003B50DE223C50DE22E150F30FD96EE25086
:10279000DA6EFF0EDA22FA0EE124E96EFF0EE22075
:1027A000EA6EEF50DE26000EDE22DE22DE22E1504F
:1027B000F70FD96EE250DA6EFF0EDA22080ED890CB
:1027C000DE36DE36DE36DD36DD52DD52E82EF7D778
:1027D000820E3F6EFF0E406EFD0EE3503D6E3E6A70
:1027E000FE0EE3503D26000E3E223F503D26405057
:1027F0003E22FB0E6000F7F0E3FFFC0E6000FBF0F2
:10280000E3FF21D0D890F30EE336F40EE336F50E55
:10281000E336F60EE336FA0EE3AE02D0F30EE380B3
:10282000D890F70EE336F80EE336F90EE336FA0EDB
:10283000E336E150FB0FD96EE250DA6EFF0EDA227A
:10284000DE06000EDD5AF50EE3AEDCD7FE0EE36ABF
:10285000FA0EE3AE20D0E150F70FD96EE250DA6EF7
:10286000FF0EDA22FF0EDE143D6EFF0EDE143E6E0A
:10287000FF0EDE143F6E7F0EDE14406E3D503E10A4
:102880003F104010D8B404D0FE0EE36AE32A03D010
:10289000F30EE3B0F9D7FE0EE350D8B436D0E150D2
:1028A000F30FD96EE250DA6EFF0EDA22DE2A000E46
:1028B000DE22DE22DE22F60EE3A027D0010E406EDD
:1028C000E150F30FD96EE250DA6EFF0EDA224028A3
:1028D000DE5208D0DE52D890DCBED880DD32DD3248
:1028E000DD32DE32E82EF6D7FB0EE350010F356EF7
:1028F000FB0E6000D7F0E3FF356AFC0EE350352095
:10290000356EFC0E6000D7F0E3FFFC0EE3BE20D076
:10291000FC0EE35004E1FB0EE328D8A019D0000E12
:102920003D6E000E3E6E800E3F6E7F0E406EF30ECB
:102930006000F7F0E3FFF40E6000FBF0E3FFF50E3C
:102940006000FFF0E3FFF60E600003F1E3FF44D008
:10295000FC0EE3BE07D0FC0EE3500FE1FB0EE304D8
:10296000D8B00BD0F30EE36AF40EE36AF50EE36A17
:10297000F60EE36AFF0EE36A2FD0FB0E6F008CFFAA
:1029800035F0FD0E6000D7F0E3FFE150F30FD96E94
:10299000E250DA6EFF0EDA22FF0EDE16FF0EDE16B2
:1029A0007F0EDE16000EDE16FD0EE3A008D0F50E3B
:1029B000E124D96EFF0EE220DA6E000EDB8EF60EF9
:1029C000E124D96EFF0EE220DA6EFD0E6F008CFF5F
:1029D00040F0D8904030DF6EFF0E6F008CFF40F06B
:1029E000F60EE124D96EFF0EE220DA6E4050DF12BF
:1029F000F30E6F008CFF35F0F40E6F008CFF36F095
:102A0000F50E6F008CFF37F0F60E6F008CFF38F07C
:102A1000EB0EE126FF0EE2221200E652E652E652EB
:102A2000E652FB0EE124D96EFF0EE220DA6EDF5093
:102A3000406E800E4016FF0E600003F1E3FFFB0EB8
:102A4000E124D96EFF0EE220DA6EDF50406ED8909E
:102A500040343F6EFD0E6000FFF0E3FFFA0EE1240C
:102A6000D96EFF0EE220DA6EDFAE02D0FD0EE380FB
:102A7000FD0EE350D8B427D0FD0EE328D8A418D01B
:102A8000000E3D6E000E3E6E000E3F6E000E406E5C
:102A9000F80E6000F7F0E3FFF90E6000FBF0E3FFD3
:102AA000FA0E6000FFF0E3FFFB0E600003F1E3FFAE
:102AB000FA0EE38EFB0EE124D96EFF0EE220DA6EF1
:102AC000000EDF6E18D0000E3D6E000E3E6E000E42
:102AD0003F6E000E406EF80E6000F7F0E3FFF90E57
:102AE0006000FBF0E3FFFA0E6000FFF0E3FFFB0E77
:102AF000600003F1E3FFF70EE124D96EFF0EE22040
:102B0000DA6EDF50406E800E4016FE0E600003F15C
:102B1000E3FFE150FE0FD96EE250DA6EFF0EDA22CB
:102B2000FF0EE350DE18D8B402D0FF0EE38CF70E90
:102B3000E124D96EFF0EE220DA6EDF50406ED890AD
:102B400040343F6EFE0E6000FFF0E3FFF60EE1241E
:102B5000D96EFF0EE220DA6EDFAE02D0FE0EE38009
:102B6000FE0EE350D8B427D0FE0EE328D8A418D028
:102B7000000E3D6E000E3E6E000E3F6E000E406E6B
:102B8000F40E6000F7F0E3FFF50E6000FBF0E3FFEA
:102B9000F60E6000FFF0E3FFF70E600003F1E3FFC5
:102BA000F60EE38EF70EE124D96EFF0EE220DA6E08
:102BB000000EDF6E18D0000E3D6E000E3E6E000E51
:102BC0003F6E000E406EF40E6000F7F0E3FFF50E6E
:102BD0006000FBF0E3FFF60E6000FFF0E3FFF70E8E
:102BE000600003F1E3FFE150FE0FD96EE250DA6EB0
:102BF000FF0EDA22FD0EE350DE5CD8B0A4D0FF0E4B
:102C0000E3AC02D0FF0EE37EFD0E6F008CFF35F0CB
:102C1000FC0E6000D7F0E3FFFE0E6F008CFF35F076
:102C2000FD0E6000D7F0E3FFFC0E6F008CFF35F067
:102C3000FE0E6000D7F0E3FFF80E6F008CFF35F05A
:102C4000FC0E6000D7F0E3FFF40E6F008CFF35F050
:102C5000F80E6000D7F0E3FFFC0E6F008CFF35F03C
:102C6000F40E6000D7F0E3FFF90EE124D96EFF0EF9
:102C7000E220DA6EDF50406EFC0E600003F1E3FFED
:102C8000F50EE124D96EFF0EE220DA6EF90EE12492
:102C9000E96EFF0EE220EA6E6F007FFFEFFFF50E98
:102CA000E124D96EFF0EE220DA6EFC0E6F008FFF7A
:102CB000DFFFFA0EE124D96EFF0EE220DA6EDF505C
:102CC000406EFC0E600003F1E3FFF60EE124D96EC6
:102CD000FF0EE220DA6EFA0EE124E96EFF0EE2202A
:102CE000EA6E6F007FFFEFFFF60EE124D96EFF0E54
:102CF000E220DA6EFC0E6F008FFFDFFFFB0EE12497
:102D0000D96EFF0EE220DA6EDF50406EFC0E6000DE
:102D100003F1E3FFF70EE124D96EFF0EE220DA6E35
:102D2000FB0EE124E96EFF0EE220EA6E6F007FFFEA
:102D3000EFFFF70EE124D96EFF0EE220DA6EFC0EF3
:102D40006F008FFFDFFFFC0EE36AFE0EE3503F6E65
:102D5000406AFD0EE3503F5E000E405A40BE62D016
:102D6000405004E11A0E3F5CD8A05CD0F80EE3504E
:102D70000AE1F90EE35007E1FA0EE35004E1FB0E1D
:102D8000E350D8B403D0406A402A01D0406AFC0E18
:102D9000600003F1E3FFF80EE36AF90EE36AFA0E4E
:102DA000E36AFB0EE36AFE0E6F008CFF35F0FD0E4A
:102DB0006000D7F0E3FF42D0FC0EE3A00DD0FC0E84
:102DC0006F008CFF40F0D8904032010E4012FC0E94
:102DD000600003F1E3FF09D0E150FC0FD96EE2502F
:102DE000DA6EFF0EDA22D890DF32F80EE3A002D0BE
:102DF000FC0EE38E010E406EE150F80FD96EE250EA
:102E0000DA6EFF0EDA224028DE5208D0DE52D89069
:102E1000DCBED880DD32DD32DD32DE32E82EF6D7A0
:102E2000FD0EE32AE150FD0FD96EE250DA6EFF0E7F
:102E3000DA22FE0EE350DE5CD8A0BED7FF0EE3BC64
:102E400066D0FD0EE350D8B4F2D0F80EE350356EE4
:102E5000F40EE3503526F80E6000D7F0E3FFF90ECC
:102E6000E350356EF50EE3503522F90E6000D7F0D1
:102E7000E3FFFA0EE350356EF60EE3503522FA0EFC
:102E80006000D7F0E3FFFB0EE350356EF70EE35022
:102E90003522FB0E6000D7F0E3FFFB0EE3A001D16B
:102EA000FC0EE3A00DD0FC0E6F008CFF40F0D8901C
:102EB0004032010E4012FC0E600003F1E3FF09D026
:102EC000E150FC0FD96EE250DA6EFF0EDA22D89094
:102ED000DF32F80EE3A002D0FC0EE38E010E406E4E
:102EE000E150F80FD96EE250DA6EFF0EDA22402878
:102EF000DE5208D0DE52D890DCBED880DD32DD3222
:102F0000DD32DE32E82EF6D7FD0EE32ACAD0E150DC
:102F1000F80FD96EE250DA6EFF0EDA22F40EE350AB
:102F2000DE5CF50EE350DE58F60EE350DE58DE5060
:102F3000800A356EF70EE350800A3558D8B053D06A
:102F4000F40E6F008CFF3DF0F50E6F008CFF3EF02D
:102F5000F60E6F008CFF3FF0F70E6F008CFF40F015
:102F6000F80EE3503D5EF90EE3503E5AFA0EE35080
:102F70003F5AFB0EE350405AFF0E3D24396EFF0EC0
:102F80003E203A6EFF0E3F203B6EFF0E40203C6E0F
:102F9000F80E6000E7F0E3FFF90E6000EBF0E3FFEE
:102FA000FA0E6000EFF0E3FFFB0E6000F3F0E3FFCA
:102FB000FF0EE37EFC0EE3500008406EFC0E600046
:102FC00003F1E3FFFC0EE350D8A420D0E150F80F4A
:102FD000D96EE250DA6EFF0EDA22DE2A000EDE2211
:102FE000DE22DE2213D0E150F80FD96EE250DA6E05
:102FF000FF0EDA22F40EE350DE5EF50EE350DE5AE9
:10300000F60EE350DE5AF70EE350DE5AF80EE350A8
:1030100045E1F90EE35042E1FA0EE3503FE1FB0EC9
:10302000E350D8A43BD0FC0EE350D8A437D0000E18
:10303000356E000E366E000E376E000E386EC6D03E
:10304000D890F80EE336F90EE336FA0EE336FB0EAF
:10305000E336FC0EE3AE02D0F80EE380FC0EE3A0F4
:103060000ED0FC0E6F008CFF40F0D89040343F6EC5
:10307000010E3F12FC0E6000FFF0E3FF09D0E150AB
:10308000FC0FD96EE250DA6EFF0EDA22D890DF36EE
:10309000FD0EE350D8B402D0FD0EE306FA0EE3AE07
:1030A000CFD7FE0EE36AFC0EE3AE0FD0FC0E6F002E
:1030B0008CFF40F07F0E4016D8B404D0FE0EE36AB9
:1030C000E32A03D0F80EE3B0F9D7FE0EE350D8B4EC
:1030D0002BD0E150F80FD96EE250DA6EFF0EDA22F3
:1030E000DE2A000EDE22DE22DE22FB0EE3A01CD052
:1030F000010E406EE150F80FD96EE250DA6EFF0E0D
:10310000DA224028DE5208D0DE52D890DCBED880C9
:10311000DD32DD32DD32DE32E82EF6D7FD0EE32879
:10312000D8B402D0FD0EE32AFD0EE328D8B404D0B3
:10313000FD0EE350D8A40ED0F80EE36AF90EE36A50
:10314000FA0EE36AFB0EE36AFD0EE350D8A402D048
:10315000FF0EE36AFD0EE3A009D0FA0EE124D96E5A
:10316000FF0EE220DA6E000EDB8E08D0FA0EE124AC
:10317000D96EFF0EE220DA6E7F0EDF16FB0EE12421
:10318000D96EFF0EE220DA6EFD0E6F008CFF40F06C
:10319000D8904030DF6EFF0EE3AE08D0FB0EE12486
:1031A000D96EFF0EE220DA6E000EDB8EF80E6F0095
:1031B0008CFF35F0F90E6F008CFF36F0FA0E6F00C1
:1031C0008CFF37F0FB0E6F008CFF38F0F40EE12619
:1031D000FF0EE2221200FF0E6F008CFF40F0770E10
:1031E0003D6E3C0E3E6E402A03D03E343E323D32B0
:1031F000402EFBD73DB0C1D20B0EE66EFF0EE66E41
:103200009FECC0F0CAD2FF0E6F008CFF40F0030E9F
:103210003D6E000E3E6E402A03D03E343E323D32BB
:10322000402EFBD73DA039D1FF0E6F008CFF40F040
:10323000010E3D6E000E3E6E402A03D03E343E32FB
:103240003D32402EFBD73DA094D0000EE66E000E1E
:10325000E66E7A0EE66E440EE66E330EE66E330EC2
:10326000E66E6D0EE66E420EE66E60000FF3E6FF50
:10327000600013F3E6FF600017F3E6FF60001BF346
:10328000E6FF000EE66E000EE66E000EE66E400EE5
:10329000E66E000EE66E000EE66EA00EE66E3F0EC7
:1032A000E66EEB0EE350E66E8FECC6F06000D4F0F5
:1032B0003FF06000D8F040F03F50396E40503A6E19
:1032C0003B6A3C6A6000E7F0E6FF6000EBF0E6FF77
:1032D0006000EFF0E6FF6000F3F0E6FF000EE66E40
:1032E00081ECB0F06000D7F0E6FF6000DBF0E6FFB5
:1032F0006000DFF0E6FF6000E3F0E6FFF8EC90F03E
:103300006000D7F0E6FF6000DBF0E6FF6000DFF072
:10331000E6FF6000E3F0E6FFD0EC9BF06000D7F042
:10332000E6FF6000DBF0E6FF6000DFF0E6FF600034
:10333000E3F0E6FF2EECC2F06000D7F0E6FF60009D
:10334000DBF0E6FF6000DFF0E6FF6000E3F0E6FFA1
:10335000F8EC90F06000D7F0E6FF6000DBF0E6FFED
:103360006000DFF0E6FF6000E3F0E6FFD0EC9BF0EA
:1033700014D2000EE66E000EE66E7A0EE66E440E75
:10338000E66E000EE66E000EE66EF00EE66E410E84
:10339000E66E60001FF3E6FF600023F3E6FF6000C7
:1033A00027F3E6FF60002BF3E6FF000EE66E000E4B
:1033B000E66E000EE66E400EE66E000EE66E000E45
:1033C000E66EA00EE66E3F0EE66EEB0EE350E66E86
:1033D0008FECC6F06000D4F03FF06000D8F040F011
:1033E0003F50396E40503A6E3B6A3C6A6000E7F0ED
:1033F000E6FF6000EBF0E6FF6000EFF0E6FF600044
:10340000F3F0E6FF000EE66E81ECB0F06000D7F05E
:10341000E6FF6000DBF0E6FF6000DFF0E6FF600043
:10342000E3F0E6FFF8EC90F06000D7F0E6FF600014
:10343000DBF0E6FF6000DFF0E6FF6000E3F0E6FFB0
:10344000D0EC9BF06000D7F0E6FF6000DBF0E6FF19
:103450006000DFF0E6FF6000E3F0E6FF2EECC2F074
:103460006000D7F0E6FF6000DBF0E6FF6000DFF011
:10347000E6FF6000E3F0E6FFF8EC90F06000D7F0C4
:10348000E6FF6000DBF0E6FF6000DFF0E6FF6000D3
:10349000E3F0E6FFD0EC9BF080D1FF0E6F008CFFD5
:1034A00040F0000E3D6E080E3E6E402A03D03E34C2
:1034B0003E323D32402EFBD73DA008D0000E356E87
:1034C000000E366EC80E376E410E55D1000EE66EF8
:1034D000000EE66E7A0EE66E440EE66E000EE66EA6
:1034E000000EE66E000EE66E400EE66E610EE66EB3
:1034F000030EE66E040EE66E410EE66EF30EE3502A
:10350000E66E8FECC6F06000D4F03FF06000D8F0BB
:1035100040F03F50396E40503A6E3B6A3C6A600062
:10352000E7F0E6FF6000EBF0E6FF6000EFF0E6FF9B
:103530006000F3F0E6FF000EE66E81ECB0F0600094
:10354000D7F0E6FF6000DBF0E6FF6000DFF0E6FFAB
:103550006000E3F0E6FFF8EC90F06000D7F0E6FFE3
:103560006000DBF0E6FF6000DFF0E6FF6000E3F004
:10357000E6FFD0EC9BF06000D7F0E6FF6000DBF0E8
:10358000E6FF6000DFF0E6FF6000E3F0E6FFD0EC6E
:103590009BF003D1FF0E6F008CFF40F0030E3D6ED9
:1035A000000E3E6E402A03D03E343E323D32402E65
:1035B000FBD73DB011D0FF0E6F008CFF40F0000E26
:1035C0003D6E080E3E6E402A03D03E343E323D3200
:1035D000402EFBD73DA064D0000EE66E000EE66ED6
:1035E0007A0EE66E440EE66E000EE66E000EE66E95
:1035F000000EE66E400EE66E000EE66E000EE66E03
:10360000A00EE66E3F0EE66EF30EE350E66E8FEC14
:10361000C6F06000D4F03FF06000D8F040F03F50BA
:10362000396E40503A6E3B6A3C6A6000E7F0E6FF54
:103630006000EBF0E6FF6000EFF0E6FF6000F3F003
:10364000E6FF000EE66E81ECB0F06000D7F0E6FF1A
:103650006000DBF0E6FF6000DFF0E6FF6000E3F013
:10366000E6FFF8EC90F06000D7F0E6FF6000DBF0DA
:10367000E6FF6000DFF0E6FF6000E3F0E6FFD0EC7D
:103680009BF06000D7F0E6FF6000DBF0E6FF600033
:10369000DFF0E6FF6000E3F0E6FFD0EC9BF07DD0CA
:1036A000000EE66E000EE66E7A0EE66E440EE66ED4
:1036B000000EE66E000EE66E000EE66E400EE66E42
:1036C000610EE66E030EE66E040EE66E410EE66EC9
:1036D000F30EE350E66E8FECC6F06000D4F03FF0DE
:1036E0006000D8F040F03F50396E40503A6E3B6A6F
:1036F0003C6A6000E7F0E6FF6000EBF0E6FF600088
:10370000EFF0E6FF6000F3F0E6FF000EE66E81ECFE
:10371000B0F06000D7F0E6FF6000DBF0E6FF60008D
:10372000DFF0E6FF6000E3F0E6FFF8EC90F0600009
:10373000D7F0E6FF6000DBF0E6FF6000DFF0E6FFB9
:103740006000E3F0E6FFD0EC9BF06000D7F0E6FF0E
:103750006000DBF0E6FF6000DFF0E6FF6000E3F012
:10376000E6FFD0EC9BF019D0000E356E000E366EE1
:10377000000E376E000E386E10D0FE0EE3503F6E16
:10378000406A4050000AD8A4EFD73F50000AD8B48E
:103790003AD5010AD8B4FED6E7D7E552E552120071
:1037A0000D0EE126000EE222F20EE124D96EFF0E8C
:1037B000E220DA6EDF50406E800E4016FF0E600091
:1037C00003F1E3FFF20EE124D96EFF0EE220DA6E80
:1037D000DF50406ED89040343F6EFE0E6000FFF028
:1037E000E3FFF10EE124D96EFF0EE220DA6EDFAEC8
:1037F00002D0FE0EE380FE0EE350D8B427D0FE0EBA
:10380000E328D8A418D0000E3D6E000E3E6E000EC8
:103810003F6E000E406EEF0E6000F7F0E3FFF00E1B
:103820006000FBF0E3FFF10E6000FFF0E3FFF20E3B
:10383000600003F1E3FFF10EE38EF20EE124D96E96
:10384000FF0EE220DA6E000EDF6E18D0000E3D6E25
:10385000000E3E6E000E3F6E000E406EEF0E6000DA
:10386000F7F0E3FFF00E6000FBF0E3FFF10E600005
:10387000FFF0E3FFF20E600003F1E3FFEE0EE12440
:10388000D96EFF0EE220DA6EDF50406E800E4016D9
:10389000E150FF0FD96EE250DA6EFF0EDA2240508F
:1038A000DF1AEE0EE124D96EFF0EE220DA6EDF5051
:1038B000406ED89040343F6EFD0E6000FFF0E3FF95
:1038C000ED0EE124D96EFF0EE220DA6EDFAE02D0FB
:1038D000FD0EE380FD0EE350D8B427D0FD0EE328A3
:1038E000D8A418D0000E3D6E000E3E6E000E3F6E46
:1038F000000E406EEB0E6000F7F0E3FFEC0E600090
:10390000FBF0E3FFED0E6000FFF0E3FFEE0E600062
:1039100003F1E3FFED0EE38EEE0EE124D96EFF0E10
:10392000E220DA6E000EDF6E18D0000E3D6E000E43
:103930003E6E000E3F6E000E406EEB0E6000F7F024
:10394000E3FFEC0E6000FBF0E3FFED0E6000FFF024
:10395000E3FFEE0E600003F1E3FFEB0EE35039E10D
:10396000EC0EE35036E1ED0EE35033E1EE0EE350A2
:10397000D8A42FD0EF0EE36AF00EE36AF10EE36AEB
:10398000F20EE36AF10EE124D96EFF0EE220DA6E48
:10399000800EDE127F0EDD12FF0E6F008CFF40F0F6
:1039A000F20EE124D96EFF0EE220DA6E4050DF12F3
:1039B000EF0E6F008CFF35F0F00E6F008CFF36F0CD
:1039C000F10E6F008CFF37F0F20E6F008CFF38F0B5
:1039D0009FD1FE0EE350D8A409D0000E356E000E24
:1039E000366E000E376E000E386E92D1FE0EE3502A
:1039F0003F6E406AFD0EE3503F5E000E405A7F0E60
:103A00003F26000E4022FB0E6000FFF0E3FFFC0E9D
:103A1000600003F1E3FFEF0E6F008CFF3DF0F00E4E
:103A20006F008CFF3EF0F10E6F008CFF3FF0F20E46
:103A30006F008CFF40F0F70E6000F7F0E3FFF80E28
:103A40006000FBF0E3FFF90E6000FFF0E3FFFA0E09
:103A5000600003F1E3FFEF0EE36AF00EE36AF10E9C
:103A6000E36AF20EE36AF30EE36AF40EE36AF50E1C
:103A7000E36AF60EE36AFD0EE36A50D0FD0EE350F2
:103A8000D8B420D0D890F70EE336F80EE336F90E0E
:103A9000E336FA0EE336D890EF0EE336F00EE33657
:103AA000F10EE336F20EE336F60EE3AE02D0EF0E81
:103AB000E380D890F30EE336F40EE336F50EE336EA
:103AC000F60EE336E150F70FD96EE250DA6EFF0ED4
:103AD000DA22EB0EE350DE5CEC0EE350DE58ED0E26
:103AE000E350DE58EE0EE350DE58D8A015D0F60EA7
:103AF000E38CE150F70FD96EE250DA6EFF0EDA2256
:103B0000EB0EE350DE5EEC0EE350DE5AED0EE350BA
:103B1000DE5AEE0EE350DE5AFD0EE32AFD0E6F0074
:103B20008CFF35F0190E3564A9D7F70EE3500AE182
:103B3000F80EE35007E1F90EE35004E1FA0EE3500A
:103B4000D8B424D0F30EE38021D0D890EF0EE33622
:103B5000F00EE336F10EE336F20EE336F60EE3AE88
:103B600002D0EF0EE380D890F30EE336F40EE33686
:103B7000F50EE336F60EE336E150FB0FD96EE25058
:103B8000DA6EFF0EDA22DE06000EDD5AF10EE3AE2B
:103B9000DCD7FD0EE36AF60EE3AE20D0E150F30F62
:103BA000D96EE250DA6EFF0EDA22FF0EDE143D6EA1
:103BB000FF0EDE143E6EFF0EDE143F6E7F0EDE142F
:103BC000406E3D503E103F104010D8B404D0FD0E62
:103BD000E36AE32A03D0EF0EE3B0F9D7FD0EE3501A
:103BE000D8B436D0E150EF0FD96EE250DA6EFF0E46
:103BF000DA22DE2A000EDE22DE22DE22F20EE3A030
:103C000027D0010E406EE150EF0FD96EE250DA6E10
:103C1000FF0EDA224028DE5208D0DE52D890DCBEF9
:103C2000D880DD32DD32DD32DE32E82EF6D7FB0E13
:103C3000E350010F356EFB0E6000D7F0E3FF356AED
:103C4000FC0EE3503520356EFC0E6000D7F0E3FF2C
:103C5000FC0EE3BE1BD0FC0EE35004E1FB0EE32898
:103C6000D8A014D0FF0E3F6E000E406EFB0E600019
:103C7000FFF0E3FFFC0E600003F1E3FFEF0EE36AE9
:103C8000F00EE36AF10EE36AF20EE36AFC0EE3BEA5
:103C900007D0FC0EE35012E1FB0EE304D8B00ED0C7
:103CA000FB0EE36AFC0EE36AEF0EE36AF00EE36AD2
:103CB000F10EE36AF20EE36AFF0EE36AFB0E6F0099
:103CC0008CFF35F0FE0E6000D7F0E3FFFE0EE3A0A0
:103CD00009D0F10EE124D96EFF0EE220DA6E000E5B
:103CE000DB8E08D0F10EE124D96EFF0EE220DA6EF1
:103CF0007F0EDF16F20EE124D96EFF0EE220DA6E9F
:103D0000FE0E6F008CFF40F0D8904030DF6E44D63E
:103D1000EB0EE126FF0EE2221200120EE126000E4B
:103D2000E222E40EE124D96EFF0EE220DA6E080EE4
:103D3000356EF00E6F007BFFE3FFE828352EFAD7D3
:103D4000F70EE3AE02D0010E01D0000E3F6E406AC6
:103D5000FA0E6000FFF0E3FFFB0E600003F1E3FFEB
:103D6000FA0E6F008CFF35F0FB0EE3503510D8B41F
:103D700025D0F00EE36CF10EE31EF20EE31EF30EFF
:103D8000E31EF40EE31EF50EE31EF60EE31EF70E21
:103D9000E31E14E3F10EE32A11E3F20EE32A0EE32D
:103DA000F30EE32A0BE3F40EE32A08E3F50EE32A0D
:103DB00005E3F60EE32A02E3F70EE32A21AE229290
:103DC00021BE05D0215010E12004D8B00DD0010E45
:103DD0003F6E000E406EFE0E6000FFF0E3FFFF0E30
:103DE000600003F1E3FF08D0FE0E600083F0E3FF04
:103DF000FF0E600087F0E3FFFC0E60007BF0E3FF46
:103E0000FD0E60007FF0E3FFFA0E6F008CFF35F0CF
:103E1000FB0EE3503510D8A402D022A40AD0E15002
:103E2000FC0FD96EE250DA6EFF0EDA22DE06000ECB
:103E3000DD5A4F0E3F6E000E406EF80E6000FFF030
:103E4000E3FFF90E600003F1E3FF0201FB6B09D110
:103E5000E150F80FD96EE250DA6EFF0EDA22DE067C
:103E6000000EDD5A0A0EE66E000EE66E000EE66EDD
:103E7000000EE66E000EE66E000EE66E000EE66EBA
:103E8000000EE66EE150E80FD96EE250DA6EFF0EDA
:103E9000DA226F007BFFE6FF6F007BFFE6FF6F001B
:103EA0007BFFE6FF6F007BFFE6FF6F007BFFE6FF17
:103EB0006F007BFFE6FF6F007BFFE6FF6F007BFF7D
:103EC000E6FF48ECADF0E5526F009CFF4CF0E55288
:103ED0006F009CFF4BF0E5526F009CFF4AF0E552EB
:103EE0006F009CFF49F0E5526F009CFF48F0E552DF
:103EF0006F009CFF47F0E5526F009CFF46F0E552D3
:103F00006F009CFF45F0F80EE126FF0EE2226000F4
:103F100014F13FF0600018F140F06000FFF0E6FFA0
:103F2000600003F1E6FF51ECC2F0300E3526F80ECA
:103F30006F008CFF3FF0F90E6F008CFF40F0AC0E6D
:103F40003F24D96E020E4020DA6E6000D7F0DFFF0A
:103F5000E150FE0FD96EE250DA6EFF0EDA22DE0675
:103F6000000EDD5AE150FC0FD96EE250DA6EFF0E02
:103F7000DA22DE06000EDD5A0A0EE66E000EE66E4E
:103F8000000EE66E000EE66E000EE66E000EE66EA9
:103F9000000EE66E000EE66EE150E80FD96EE250BC
:103FA000DA6EFF0EDA226F007BFFE6FF6F007BFF09
:103FB000E6FF6F007BFFE6FF6F007BFFE6FF6F0011
:103FC0007BFFE6FF6F007BFFE6FF6F007BFFE6FFF6
:103FD0006F007BFFE6FFCEECAAF0E5526F009CFF7E
:103FE0004CF0E5526F009CFF4BF0E5526F009CFFD8
:103FF0004AF0E5526F009CFF49F0E5526F009CFFCC
:1040000048F0E5526F009CFF47F0E5526F009CFFBF
:1040100046F0E5526F009CFF45F0F80EE126FF0EDA
:10402000E222F00E600017F1E3FFF10E60001BF1D9
:10403000E3FFF20E60001FF1E3FFF30E600023F1D7
:10404000E3FFF40E600027F1E3FFF50E60002BF1B3
:10405000E3FFF60E60002FF1E3FFF70E600033F18F
:10406000E3FFF90EE3BE36D0F90EE35004E1F80E9B
:10407000E304D8A02FD0F00EE35015E1F10EE35089
:1040800012E1F20EE3500FE1F30EE3500CE1F40EF7
:10409000E35009E1F50EE35006E1F60EE35003E1CB
:1040A000F70EE350D8A4D4D6FF0EE3BE07D0FF0E20
:1040B000E35003E1FE0EE304D8B0CAD6FD0EE3BE22
:1040C00009D0FD0EE35004E1FC0EE304D8A002D0B9
:1040D00022B2BED6FA0E6F008CFF35F0FB0EE35015
:1040E0003510D8A402D022A433D0E150F80FD96EF5
:1040F000E250DA6EFF0EDA22DE06000EDD5AFA0E0C
:104100006F008CFF35F0FB0EE3503510D8A402D0C1
:104110002B0E01D02D0E3F6E000E406EEE0E600095
:10412000FFF0E3FFEF0E600003F1E3FFF80E6F0016
:104130008CFF3FF0F90E6F008CFF40F0AC0E3F2477
:10414000D96E020E4020DA6EEE0E6F008FFFDFFF99
:10415000FC0E6F008FFFE6FF6F008FFFE6FFAC0ED7
:104160003F6E020E406EF60EE3503F26F70EE35010
:1041700040226000FFF0E6FF600003F1E6FFE80E7A
:104180006F008FFFE6FF6F008FFFE6FF54ECB8F083
:10419000E40EE126FF0EE2221200E65274ECC2F0B9
:1041A000D28ED28C0101006B2C0EE66E010EE66EF3
:1041B000B8ECC3F0CBA004D0FF0EE36AE32A04D02E
:1041C000FF0EE36AE380E382FF0EE304D8A407D086
:1041D000BD80000E0101966F460E956F04D0BD9014
:1041E0000101956B966B600057F6E6FF60005BF689
:1041F000E6FF11ECC7F0CED0EAECB9F00C0EE66E9B
:1042000065ECC7F0FF0E6F008CFF00F1A50EE66EA7
:10421000070EE66EEEECC3F0000EE66EE8ECC6F0BC
:10422000660EE66EFF0EE66E000EE66E000EE66EA1
:104230006AECC4F06000D7F0E6FF6000DBF0E6FF58
:10424000040EE66E65ECB9F0D20EE66EFF0EE66E79
:10425000970EE66EFF0EE66E000EE66E010EE66E3F
:104260006AECC4F06000D7F0E6FF6000DBF0E6FF28
:10427000060EE66E65ECB9F0550EE66EFF0EE66EC4
:10428000000EE66E020EE66E6AECC4F06000D7F037
:10429000E6FF6000DBF0E6FF040EE66E65ECB9F0C9
:1042A000770EE66EFF0EE66E020EE66E000EE66E0E
:1042B0006AECC4F06000D7F0E6FF6000DBF0E6FFD8
:1042C000040EE66E65ECB9F0D20EE66EFF0EE66EF9
:1042D000970EE66EFF0EE66E020EE66E010EE66EBD
:1042E0006AECC4F06000D7F0E6FF6000DBF0E6FFA8
:1042F000060EE66E65ECB9F0440EE66EFF0EE66E55
:10430000020EE66E020EE66E6AECC4F06000D7F0B4
:10431000E6FF6000DBF0E6FF040EE66E65ECB9F048
:10432000000EE66EDEECB8F0B80EE66E0B0EE66E32
:10433000B8ECC3F0640EE66E000EE66E0A0EE66E92
:1043400062ECC3F0F40EE66E010EE66E010EE66E50
:1043500062ECC3F0B80EE66E0B0EE66E070EE66E6C
:1043600062ECC3F0DC0EE66E050EE66E0B0EE66E3A
:1043700062ECC3F0B80EE66E0B0EE66E090EE66E4A
:1043800062ECC3F09DECBFF01CD00001958119D008
:10439000006B17D0010100513F6E406A4050000A87
:1043A000D8A4F6D73F50000AD8B426D7010AD8B40B
:1043B00008D0020AD8B405D0070AD8B4E6D7010A53
:1043C000E7D7010EE66E29ECC6F03550D8B413D00D
:1043D000ADECC7F03550D8B40ED02BECBFF0B5EC37
:1043E000C7F09DECBFF0F40EE66E010EE66E010E16
:1043F000E66E62ECC3F00A0EE66E29ECC6F03550AC
:10440000D8B4A1D0090EE66E29ECC6F03550D8B468
:1044100004D0000EE66E9EECC6F0600003F8E6FFE6
:10442000600007F8E6FF60000BF8E6FF60000FF899
:10443000E6FF000EE66E8FECC6F06000D7F0E6FFF8
:104440006000DBF0E6FFA60EE66EFF0EE66E000EE5
:10445000E66E000EE66E6AECC4F06000D7F0E6FF90
:104460006000DBF0E6FF0A0EE66E65ECB9F0600076
:1044700013F8E6FF600017F8E6FF60001BF8E6FFA0
:1044800060001FF8E6FF010EE66E8FECC6F06000DC
:10449000D7F0E6FF6000DBF0E6FFA60EE66EFF0E4B
:1044A000E66E000EE66E010EE66E6AECC4F0600089
:1044B000D7F0E6FF6000DBF0E6FF0A0EE66E65EC83
:1044C000B9F06000DFF6E6FF6000E3F6E6FF6000AB
:1044D000E7F6E6FF6000EBF6E6FF600023F8E6FF94
:1044E000600027F8E6FF60002BF8E6FF60002FF879
:1044F000E6FF020EE66E8FECC6F06000D7F0E6FF36
:104500006000DBF0E6FF320EE66EFF0EE66E000E98
:10451000E66E020EE66E6AECC4F06000D7F0E6FFCD
:104520006000DBF0E6FF0E0EE66E65ECB9F0640E9F
:10453000E66E000EE66E0A0EE66E62ECC3F0000E4A
:10454000E66EDEECB8F00101AA51E66E78ECAFF051
:1045500001019BA11FD7070EE66E29ECC6F035506E
:10456000D8B40BD001019B91000EE66EE8ECC6F0CA
:10457000000EE66EDEECB8F00DD7020EE66EE8EC4B
:10458000C6F0020EE66EDEECB8F004D7140EE1269B
:10459000000EE22221AE229221BE05D0215010E170
:1045A0002004D8B00DD0010E3F6E000E406EFE0EFE
:1045B0006000FFF0E3FFFF0E600003F1E3FF08D0AF
:1045C000FE0E600083F0E3FFFF0E600087F0E3FF64
:1045D000FC0E60007BF0E3FFFD0E60007FF0E3FF68
:1045E00022A80BD0E150FC0FD96EE250DA6EFF0E1C
:1045F000DA22FE0EDE26FF0EDD22E20EE124D96E67
:10460000FF0EE220DA6E080E356EF00E6F007BFFB3
:10461000E3FFE828352EFAD74F0E3F6E000E406EAE
:10462000FA0E6000FFF0E3FFFB0E600003F1E3FF12
:104630000201FB6BEED0E150FA0FD96EE250DA6E58
:10464000FF0EDA22DE06000EDD5AF00E6F008CFF40
:104650003FF0F10E6F008CFF40F00F0E3F16000E82
:104660004016F80E6000FFF0E3FFF90E600003F162
:10467000E3FFF90EE3BE0FD0F90EE35008E1F80EA8
:104680006F008CFF35F00A0E355ED8A004D0F80E0E
:10469000E350570F03D0F80EE350300F3F6EF90E82
:1046A0006F008CFF40F0000E4022F80E6000FFF01B
:1046B000E3FFF90E600003F1E3FFBF0E3F6EFF0E54
:1046C000406EE10EE3503D6E3E6A3F503D26405045
:1046D0003E223E5006E11A0E3D5CD8B002D0010EDB
:1046E00001D0000E3F6E406AEE0E6000FFF0E3FF67
:1046F000EF0E600003F1E3FFEE0E6F008CFF35F06C
:10470000EF0EE3503510D8B441D09F0E3F6EFF0E30
:10471000406EF80E6F008CFF3DF0F90E6F008CFFBD
:104720003EF0200E3D12000E3E123F503D264050FE
:104730003E223E5006E11A0E3D5CD8B002D0010E7A
:1047400001D0000E3F6E406AEC0E6000FFF0E3FF08
:10475000ED0E600003F1E3FFEC0E6F008CFF35F00F
:10476000ED0EE3503510D8B411D0F80E6F008FFF66
:10477000E6FF6F008FFFE6FFA7ECBEF0F80E6000CB
:10478000D7F0E3FFF90E6000DBF0E3FFFA0E6F00F5
:104790008CFF3FF0FB0E6F008CFF40F0AC0E3F240F
:1047A000D96E020E4020DA6EF80E6F008FFFDFFF29
:1047B000E150FE0FD96EE250DA6EFF0EDA22DE060D
:1047C000000EDD5AE150FC0FD96EE250DA6EFF0E9A
:1047D000DA22DE06000EDD5A040E406EE150F00FC4
:1047E000D96EE250DA6EFF0EDA224028DE520FD088
:1047F000DE52DE52DE52DE52DE52DE52D890DD3222
:10480000DD32DD32DD32DD32DD32DD32DE32E82E28
:10481000EFD7FB0EE3BE3AD0FB0EE35008E1FA0EF1
:104820006F008CFF35F0020E355ED8A02FD0F00E51
:10483000E35015E1F10EE35012E1F20EE3500FE107
:10484000F30EE3500CE1F40EE35009E1F50EE350F2
:1048500006E1F60EE35003E1F70EE350D8A4EBD6E1
:10486000FF0EE3BE07D0FF0EE35003E1FE0EE304AC
:10487000D8B0E1D6FD0EE3BE09D0FD0EE35004E151
:10488000FC0EE304D8A002D022B2D5D622A836D09E
:10489000E150FA0FD96EE250DA6EFF0EDA22DE0630
:1048A000000EDD5AFA0E6F008CFF3FF0FB0E6F001A
:1048B0008CFF40F0AC0E3F24D96E020E4020DA6E21
:1048C000E10E6F008FFFDFFFE150FA0FD96EE2506B
:1048D000DA6EFF0EDA22DE06000EDD5AFA0E6F00E7
:1048E0008CFF3FF0FB0E6F008CFF40F0AC0E3F24BE
:1048F000D96E020E4020DA6E300EDF6EFC0E6F00B5
:104900008FFFE6FF6F008FFFE6FFAC0E3F6E020EDB
:10491000406EF80EE3503F26F90EE350402260004F
:10492000FFF0E6FF600003F1E6FFE60E6F008FFF89
:10493000E6FF6F008FFFE6FF54ECB8F0E10EE126D2
:10494000FF0EE22212000A0EE126000EE2226000B3
:1049500010F23DF0600014F23EF0600018F23FF0FB
:1049600060001CF240F0F60E6000F7F0E3FFF70E77
:104970006000FBF0E3FFF80E6000FFF0E3FFF90ECC
:10498000600003F1E3FFF20E6F008CFF3DF0F30EC9
:104990006F008CFF3EF0F40E6F008CFF3FF0F50EC1
:1049A0006F008CFF40F0F60E6000F7F0E3FFF70EAB
:1049B0006000FBF0E3FFF80E6000FFF0E3FFF90E8C
:1049C000600003F1E3FF810E3F6EFF0E406EF60EB6
:1049D0006F008CFF39F0F70E6F008CFF3AF0F80E85
:1049E0006F008CFF3BF0F90E6F008CFF3CF0180E4F
:1049F00005D0D8903C323B323A323932E82EF9D7E2
:104A00006000E4F03DF06000E8F03EF0FF0E3D167F
:104A1000000E3E163F503D2640503E22FE0E6000E6
:104A2000F7F0E3FFFF0E6000FBF0E3FFFF0EE3BED5
:104A300019D0FF0EE35008E1FE0E6F008CFF35F039
:104A4000170E355ED8A00ED0F20E6F008CFF35F039
:104A5000F30E6F008CFF36F0F40E6F008CFF37F012
:104A6000F50E1FD1FF0EE3BEB4D0FE0E6F008CFF1B
:104A700040F0FF0E396EFF0E3A6E7F0E3B6E000E59
:104A80003C6E406601D007D03C343C323B323A3277
:104A90003932402EF6D7FA0E6000E7F0E3FFFB0E46
:104AA0006000EBF0E3FFFC0E6000EFF0E3FFFD0EB3
:104AB0006000F3F0E3FFF60E6F008CFF3DF0F70EA1
:104AC0006F008CFF3EF0F80E6F008CFF3FF0F90E88
:104AD0006F008CFF40F0FA0EE3503D16FB0EE350E2
:104AE0003E16FC0EE3503F16FD0EE35040163D50BF
:104AF0003E103F104010D8B4A7D7F60E6F008CFFC1
:104B00003DF0F70E6F008CFF3EF0F80E6F008CFF4B
:104B10003FF0F90E6F008CFF40F0200E05D0D890CA
:104B200040323F323E323D32E82EF9D73D50D8B4C4
:104B300028D0F60EE350356EFA0EE3503526F60E09
:104B40006000D7F0E3FFF70EE350356EFB0EE35045
:104B50003522F70E6000D7F0E3FFF80EE350356E14
:104B6000FC0EE3503522F80E6000D7F0E3FFF90E9B
:104B7000E350356EFD0EE3503522F90E6000D7F09C
:104B8000E3FFFA0E6F008CFF3DF0FB0E6F008CFF11
:104B90003EF0FC0E6F008CFF3FF0FD0E6F008CFFAF
:104BA00040F03D1C396E3E1C3A6E3F1C3B6E401C73
:104BB0003C6EE150F60FD96EE250DA6EFF0EDA224B
:104BC0003950DE163A50DE163B50DE163C50DE16EB
:104BD0005BD0F60E6F008CFF3DF0F70E6F008CFF80
:104BE0003EF0F80E6F008CFF3FF0F90E6F008CFF67
:104BF00040F0200E05D0D89040323F323E323D3258
:104C0000E82EF9D73D6609D0F60EE36AF70EE36A9F
:104C1000F80EE36AF90EE36A37D0F60E6F008CFFE8
:104C20003DF0F70E6F008CFF3EF0F80E6F008CFF2A
:104C30003FF0F90E6F008CFF40F0D8903D34396E94
:104C40003E343A6E3F343B6E40343C6E39503A103D
:104C50003B103C10D8B418D0000E3D6E000E3E6ED6
:104C6000800E3F6EBF0E406EF60E6000F7F0E3FF61
:104C7000F70E6000FBF0E3FFF80E6000FFF0E3FFCB
:104C8000F90E600003F1E3FFF60E6F008CFF35F0C4
:104C9000F70E6F008CFF36F0F80E6F008CFF37F0C8
:104CA000F90E6F008CFF38F0F20EE126FF0EE222C3
:104CB00012000E0EE126000EE22221AE229221BE4B
:104CC00005D0215010E12004D8B00DD0010E3F6E68
:104CD000000E406EFE0E6000FFF0E3FFFF0E60006E
:104CE00003F1E3FF08D0FE0E600083F0E3FFFF0E48
:104CF000600087F0E3FFFC0E60007BF0E3FFFD0E39
:104D000060007FF0E3FFE80EE124D96EFF0EE220A1
:104D1000DA6E080E356EF20E6F007BFFE3FFE828B7
:104D2000352EFAD74F0E3F6E000E406EFA0E600021
:104D3000FFF0E3FFFB0E600003F1E3FF0201FB6BFA
:104D4000FBD0E150FA0FD96EE250DA6EFF0EDA2294
:104D5000DE06000EDD5A0A0EE66E000EE66E000E4E
:104D6000E66E000EE66E000EE66E000EE66E000EBB
:104D7000E66E000EE66EE150EA0FD96EE250DA6E92
:104D8000FF0EDA226F007BFFE6FF6F007BFFE6FF7E
:104D90006F007BFFE6FF6F007BFFE6FF6F007BFF8E
:104DA000E6FF6F007BFFE6FF6F007BFFE6FF6F0013
:104DB0007BFFE6FFFFECB5F0E5526F009CFF4CF087
:104DC000E5526F009CFF4BF0E5526F009CFF4AF0EC
:104DD000E5526F009CFF49F0E5526F009CFF48F0E0
:104DE000E5526F009CFF47F0E5526F009CFF46F0D4
:104DF000E5526F009CFF45F0F80EE126FF0EE2221F
:104E0000300E4526FA0E6F008CFF3FF0FB0E6F0050
:104E10008CFF40F0AC0E3F24D96E020E4020DA6EBB
:104E2000600017F1DFFFE150FE0FD96EE250DA6E3D
:104E3000FF0EDA22DE06000EDD5AE150FC0FD96EBD
:104E4000E250DA6EFF0EDA22DE06000EDD5A0A0E9E
:104E5000E66E000EE66E000EE66E000EE66E000ECA
:104E6000E66E000EE66E000EE66E000EE66EE15097
:104E7000EA0FD96EE250DA6EFF0EDA226F007BFF86
:104E8000E6FF6F007BFFE6FF6F007BFFE6FF6F0032
:104E90007BFFE6FF6F007BFFE6FF6F007BFFE6FF17
:104EA0006F007BFFE6FF6F007BFFE6FF2EECB3F0A9
:104EB000E5526F009CFF4CF0E5526F009CFF4BF0F9
:104EC000E5526F009CFF4AF0E5526F009CFF49F0ED
:104ED000E5526F009CFF48F0E5526F009CFF47F0E1
:104EE000E5526F009CFF46F0E5526F009CFF45F0D5
:104EF000F80EE126FF0EE222F20E600017F1E3FF4A
:104F0000F30E60001BF1E3FFF40E60001FF1E3FFFE
:104F1000F50E600023F1E3FFF60E600027F1E3FFDA
:104F2000F70E60002BF1E3FFF80E60002FF1E3FFB6
:104F3000F90E600033F1E3FFFA0E6F008CFF35F0DD
:104F4000FB0EE3503510D8B42FD0F20EE35015E12C
:104F5000F30EE35012E1F40EE3500FE1F50EE350CF
:104F60000CE1F60EE35009E1F70EE35006E1F80E0E
:104F7000E35003E1F90EE350D8A4E3D6FF0EE3BEFD
:104F800007D0FF0EE35003E1FE0EE304D8B0D9D6FC
:104F9000FD0EE3BE09D0FD0EE35004E1FC0EE30478
:104FA000D8A002D022B2CDD6FC0E6F008FFFE6FF54
:104FB0006F008FFFE6FFAC0E3F6E020E406EF80EE4
:104FC000E3503F26F90EE35040226000FFF0E6FF79
:104FD000600003F1E6FFEC0E6F008FFFE6FF6F004D
:104FE0008FFFE6FF54ECB8F0E80EE126FF0EE22258
:104FF0001200E652E652E652E652FA0E6F008CFFBD
:105000003FF0FB0E6F008CFF40F0FD0E600003F1DF
:10501000E3FFFC0E6000FFF0E3FFF60E6F008CFF75
:1050200035F0F70EE3503510D8B454D1FC0E6F00B4
:105030008FFFD9FFFD0E6F008FFFDAFFF80E6F00B4
:105040008FFFDFFFFC0E6F008CFF3FF0FD0E6F0047
:105050008CFF40F0F60EE3503F26F70EE35040225F
:10506000FF0E3F24D96EFF0E4020DA6EF80E6F005F
:105070008FFFDFFFF70EE35008E1F60E6F008CFFA5
:1050800035F0030E355ED8A025D1FC0E6F008CFFE5
:105090003FF0FD0E6F008CFF40F0010E3F24D96EF3
:1050A000000E4020DA6EF80E6F008FFFDFFFFC0E5F
:1050B0006F008CFF3FF0FD0E6F008CFF40F0020E82
:1050C0003F24D96E000E4020DA6EF80E6F008FFF7D
:1050D000DFFFFC0E6F008CFF3FF0FD0E6F008CFFBA
:1050E00040F0F60EE3503F26F70EE3504022FE0E4E
:1050F0003F24D96EFF0E4020DA6EF80E6F008FFF4E
:10510000DFFFFC0E6F008CFF3FF0FD0E6F008CFF89
:1051100040F0F60EE3503F26F70EE3504022FD0E1E
:105120003F24D96EFF0E4020DA6EF80E6F008FFF1D
:10513000DFFFF70EE35008E1F60E6F008CFF35F04D
:10514000070E355ED8A0C6D0FC0E6F008CFF3FF076
:10515000FD0E6F008CFF40F0030E3F24D96E000E51
:105160004020DA6EF80E6F008FFFDFFFFC0E6F003D
:105170008CFF3FF0FD0E6F008CFF40F0F60EE35009
:105180003F26F70EE3504022FC0E3F24D96EFF0E5F
:105190004020DA6EF80E6F008FFFDFFFF70EE3504E
:1051A00008E1F60E6F008CFF35F0090E355ED8A0D1
:1051B00091D0FC0E6F008CFF3FF03F1EFD0E6F0084
:1051C0008CFF40F0401E3F2AD8B4402A030E3F1601
:1051D000000E4016FE0E6000FFF0E3FFFF0E6000C1
:1051E00003F1E3FFFC0EE350356EFE0EE35035266F
:1051F000FC0E6000D7F0E3FFFD0EE350356EFF0EAE
:10520000E3503522FD0E6000D7F0E3FFF60EE350C9
:10521000356EFE0EE350355EF60E6000D7F0E3FF0C
:10522000F70EE350356EFF0EE350355AF70E60006F
:10523000D7F0E3FFFC0E3F6EFF0E406EF60E6F00E0
:105240008CFF35F03F503516F60E6000D7F0E3FFC7
:10525000F70E6F008CFF35F040503516F70E2ED04C
:10526000FC0E6F008FFFD9FFFD0E6F008FFFDAFF7E
:10527000F80E6F008FFFDFFFF60E6F008CFF35F02A
:10528000010E355EF60E6000D7F0E3FFF70E6F00FB
:105290008CFF35F0000E355AF70E6000D7F0E3FFB3
:1052A000FC0EE350010F356EFC0E6000D7F0E3FFFB
:1052B000356AFD0EE3503520356EFD0E6000D7F0E7
:1052C000E3FFF60E6F008CFF35F0F70EE35035105C
:1052D000D8A4C6D7F60EE126FF0EE2221200110E68
:1052E000E126000EE22220EECFF0070E356EEF0E23
:1052F0006F007BFFE3FFE828352EFAD7EB0E6F0037
:105300008CFF3FF0EC0E6F008CFF40F0FB0E600056
:1053100003F1E3FFFA0E6000FFF0E3FFFA0E6F0007
:105320008CFF35F0FB0EE3503510D8A40ED0EF0EF5
:10533000E1243F6EFF0EE220406EFB0E600003F1A1
:10534000E3FFFA0E6000FFF0E3FFFA0E6F008FFF3D
:10535000E6FF6F008FFFE6FFE8ECBCF0F60E6000A2
:10536000D7F0E3FFF70E6000DBF0E3FFF80E60001C
:1053700083F0E3FFF90E600087F0E3FFF90EE3BE70
:1053800023D0E150F80FD96EE250DA6EFF0EDA2228
:10539000F60EE350DE5CDE50800A356EF70EE35009
:1053A000800A3558D8B010D0F80E6F008CFF35F059
:1053B000F60E6000D7F0E3FFF90E6F008CFF35F0BA
:1053C000F70E6000D7F0E3FFF60E6F008CFF35F0AC
:1053D000F80E6000D7F0E3FFF70E6F008CFF35F09A
:1053E000F90E6000D7F0E3FFFC0E60007BF0E3FFF6
:1053F000FD0E60007FF0E3FF22A01FD031D0ED0E44
:105400006F008FFFE6FF6F008FFFE6FF200EE66E56
:10541000000EE66E36ECB7F0F60EE350010F356E77
:10542000F60E6000D7F0E3FF356AF70EE350352043
:10543000356EF70E6000D7F0E3FFE150F60FD96E3E
:10544000E250DA6EFF0EDA22FC0EE350DE5CDE5034
:10545000800A356EFD0EE350800A3558D8A0CFD7AC
:10546000FE0EE36AFF0EE36A45D0ED0E6F008FFF7C
:10547000E6FF6F008FFFE6FFF80E6F008FFFF6FF6D
:10548000F90E6F008FFFF7FF000EF86E1F0EF76426
:1054900003D00800F55007D06F00DBFFE9FF6F0075
:1054A000DFFFEAFFEF50E66E000EE66E36ECB7F077
:1054B000FA0EE350010F356EFA0E6000D7F0E3FFED
:1054C000356AFB0EE3503520356EFB0E6000D7F0D9
:1054D000E3FFFE0EE350010F356EFE0E6000D7F0C5
:1054E000E3FF356AFF0EE3503520356EFF0E600096
:1054F000D7F0E3FFE150FE0FD96EE250DA6EFF0EF7
:10550000DA22F80EE350DE5CDE50800A356EF90ECA
:10551000E350800A3558D8A0A8D722B01FD031D088
:10552000ED0E6F008FFFE6FF6F008FFFE6FF200E8E
:10553000E66E000EE66E36ECB7F0F60EE350010FA5
:10554000356EF60E6000D7F0E3FF356AF70EE350D4
:105550003520356EF70E6000D7F0E3FFE150F60F0F
:10556000D96EE250DA6EFF0EDA22FC0EE350DE5CFA
:10557000DE50800A356EFD0EE350800A3558D8A003
:10558000CFD7F60E6F008CFF35F0F70E6F008CFF53
:1055900036F0EB0EE126FF0EE22212000A0EE126A3
:1055A000000EE222FE0EE36AED0EE3AE28D0E60E18
:1055B000E36CE70EE31EE80EE31EE90EE31EEA0EBF
:1055C000E31EEB0EE31EEC0EE31EED0EE31E14E3F2
:1055D000E70EE32A11E3E80EE32A0EE3E90EE32ADD
:1055E0000BE3EA0EE32A08E3EB0EE32A05E3EC0EF5
:1055F000E32A02E3ED0EE32AFE0EE36AE32AF50E48
:10560000E3AE27D0EE0EE36CEF0EE31EF00EE31ECA
:10561000F10EE31EF20EE31EF30EE31EF40EE31E84
:10562000F50EE31E14E3EF0EE32A11E3F00EE32A76
:105630000EE3F10EE32A0BE3F20EE32A08E3F30E86
:10564000E32A05E3F40EE32A02E3F50EE32AFE0E55
:10565000E370070E356EF60EE36AE82A3506FCE2C3
:10566000E60EE35016E1E70EE35013E1E80EE350D7
:1056700010E1E90EE3500DE1EA0EE3500AE1EB0E12
:10568000E35007E1EC0EE35004E1ED0EE350D8B433
:1056900088D0FF0EE36A12D0D890E60EE336E70E0C
:1056A000E336E80EE336E90EE336EA0EE336EB0EB8
:1056B000E336EC0EE336ED0EE336FF0EE32AED0E95
:1056C000E3AEEAD7D890F60EE336F70EE336F80EDF
:1056D000E336F90EE336FA0EE336FB0EE336FC0E44
:1056E000E336FD0EE336E150EE0FD96EE250DA6E8E
:1056F000FF0EDA22E60EE350DE5CE70EE350DE58E2
:10570000E80EE350DE58E90EE350DE58EA0EE350AF
:10571000DE58EB0EE350DE58EC0EE350DE58ED0E93
:10572000E350DE58D8A021D0E150EE0FD96EE25000
:10573000DA6EFF0EDA22E60EE350DE5EE70EE3508D
:10574000DE5AE80EE350DE5AE90EE350DE5AEA0E66
:10575000E350DE5AEB0EE350DE5AEC0EE350DE5A15
:10576000ED0EE350DE5AF60EE380D890ED0EE332F4
:10577000EC0EE332EB0EE332EA0EE332E90EE332F3
:10578000E80EE332E70EE332E60EE332FF0EE350BB
:10579000356E010E355EFF0E6000D7F0E3FFD8A432
:1057A00091D7FE0EE350D8B425D0F60EE36CF70E79
:1057B000E31EF80EE31EF90EE31EFA0EE31EFB0EC7
:1057C000E31EFC0EE31EFD0EE31E14E3F70EE32AB8
:1057D00011E3F80EE32A0EE3F90EE32A0BE3FA0EC7
:1057E000E32A08E3FB0EE32A05E3FC0EE32A02E3C7
:1057F000FD0EE32AF60EE124D96EFF0EE220DA6EEA
:10580000080E356EEE0E6F007BFFE3FFE828352EA5
:10581000FAD7F60EE126FF0EE2221200090EE1266B
:10582000000EE222FC0EE36AFD0EE36AFE0EE36A5E
:10583000FF0EE36A11D0F50EE350010F356EF50E41
:105840006000D7F0E3FF356AF60EE3503520356E81
:10585000F60E6000D7F0E3FFFB0EE36AE32AE150A7
:10586000F50FD96EE250DA6EFF0EDA226F007BFF81
