:020000040000FA
:0400000057EF00F0C6
:10000800995C995C995C995C995C995C995C995C40
:10001800735C995CB85A995C995C995C995C995C39
:10002800685C815C875C845C995C995C995C995C90
:10003800995C995C995C985B8E5B995C995C995C1E
:10004800995C995C995C995C2B00995C995C995CCA
:10005800775C995C995C995C995C995C995C995C12
:10006800995C995CAC5BA25B995C995C995C995CC6
:10007800995C995C2B00995C995C7B5C2B002B004C
:100088002B002B002B002B002B002B003A59995CDE
:100098003B5C995C995C995C2B002B002B002B0036
:0E00A800995C995CFF0013EE45F1A0EFA5F006
:10FC76000000000101A54B434F4C44414F4C084145
:10FC86000201010137310241020101000000018039
:10FC9600298200002100000101A54B434F4C44413D
:10FCA6004F4C0841020101013231024102010100BB
:10FCB6000000018029820000215225642025642C41
:10FCC600205425642025642043256420204647428D
:10FCD600404D4348502025732020202020202020FE
:10FCE600202020202020202020202020202020200E
:10FCF60020202020202020202020202020202020FE
:10FD060020202020202020202020202020202020ED
:10FD1600202020005225642025642C2054256420B0
:10FD260025642043256420256420202020202023CC
:10FD360000205465726D696E616C20256420202058
:10FD460020202020202020202020002044656275CD
:10FD56006720546F67676C652020202020202020B4
:10FD66002020202000204C6F672066696C65207279
:10FD76006573657420202020202020202020004C40
:10FD86004F473A20552564204725642025642025C1
:10FD960064202020202020230020434D442025637A
:10FDA600202563204C656E202564202020202020FD
:10FDB6002000205325644625642023204F4B202510
:10FDC6006420202020202020200020532564462562
:10FDD600642023204F4B5125642020202020202002
:10FDE6002000204C6F61642D6C6F636B256420527C
:10FDF60025642020202020200020532564462564E9
:10FE0600206C6F67202020202564202020200020E1
:10FE160053455155454E434520256420202020203A
:10FE260020202000536176656420532564462564AE
:10FE360020256420202020200020532564462564A8
:10FE46002023202020202020202020202000205396
:10FE5600256446256420457272202020202020201B
:10FE660020200045717569702074797065202564BD
:10FE76002020202020202000483235342025642CE4
:10FE86002054256C642020202020202000484F5339
:10FE9600543A20256C642047256420202020202009
:10FEA600230020533246343120232563202020208E
:10FEB6002020202020002053746F726564202325A3
:10FEC60064202020202020202000205465726D69A7
:10FED6006E616C20202020202020202020005069E8
:10FEE6006E67205025642052544F20256420202020
:10FEF600200048454C50202573202020202020201B
:10FF06002020202000444953504C4159202573207D
:10FF1600202020202020200053256446256420230D
:10FF2600256C642020202020202000204F70656E44
:10FF3600204C4C20202020202020202000205075FE
:10FF46006D70204C4C2020202020202020200020D6
:10FF56005265616479204C4C2020202020202020EE
:10FF660000452564204125642054256420472564E6
:10FF760020230020464742404D43485020464142F8
:10FF8600342020002052564920484F5354205445CF
:10FF96005354455200483235342025642C205425CC
:10FFA6006C64202000767465726D2025783A257879
:10FFB600202020004A756C20203220323031390052
:10FFC6002056657273696F6E202573002573202095
:10FFD60020202020200031353A31323A31300031AC
:10FFE6002E343847004F4B20006C58006C64006C70
:09FFF60069006C7800256300002D
:020000040001F9
:10000000E652E652E652C5ECB2F0D28ED28C000E29
:100010006F00A0FFC5FA2C0EE66E010EE66ED8EC5E
:10002000B4F0CBA004D0FF0EE36AE32A04D0FF0EA5
:10003000E36AE380E382FF0EE304D8A403D0BD802B
:10004000460E02D0BD90000E6F00A0FF09FC000E0E
:100050006F00A0FF0AFC23EE09F06F0078FF42F06A
:100060006F0074FF43F060000BF1E6FF60000FF1DA
:10007000E6FF90ECB8F006EF85F008ECACF00C0E63
:10008000E66ED8ECB8F0FF0E6F008CFF43F0600016
:100090000CF1C5FA000E6F00A0FFC4FAA50EE66EC3
:1000A000070EE66E0EECB5F0000EE66E04ECB8F04E
:1000B0008A0EE66EFF0EE66E000EE66E000EE66E2F
:1000C00058ECB5F06000E3F0E6FF6000E7F0E6FF13
:1000D000040EE66E88ECAAF0E50EE66EFF0EE66E04
:1000E000C60EE66EFF0EE66E000EE66E010EE66EC2
:1000F00058ECB5F06000E3F0E6FF6000E7F0E6FFE3
:10010000060EE66E88ECAAF0790EE66EFF0EE66E3D
:10011000000EE66E020EE66E58ECB5F06000E3F0FD
:10012000E6FF6000E7F0E6FF040EE66E88ECAAF05A
:10013000000EE66E00ECAAF0B80EE66E0B0EE66E50
:10014000D8ECB4F0640EE66E000EE66E0A0EE66EB3
:100150009CECB4F0300EE66E750EE66E0B0EE66E9D
:100160009CECB4F01CEF85F0000E6F00A0FFC9FA04
:10017000000E6F00A0FFCAFA010E6F00A0FFC4FAC4
:100180006200E7FFE8FF0A0AD8A4EFD16200EBFFA4
:10019000E8FF0A0AD8A4E9D123EE10F0DFAA27D09D
:1001A00022EEF3F36F007BFFE6FF6F007BFFE6FFBD
:1001B0006F007BFFE6FF6F007BFFE6FF010EE66E40
:1001C000010EE66E9B0EE66EFF0EE66E000EE66E0C
:1001D000020EE66E58ECB5F06000E3F0E6FF60005A
:1001E000E7F0E6FF0A0EE66E88ECAAF0BED122EE3A
:1001F000C6F2DF50E66E000EE66E22EEEBF36F0005
:100200007BFFE6FF6F007BFFE6FF6F007BFFE6FFF3
:100210006F007BFFE6FF930EE66EFE0EE66E000EAD
:10022000E66E020EE66E58ECB5F06000E3F0E6FF15
:100230006000E7F0E6FF0A0EE66E88ECAAF095D1C2
:10024000C90EE66E0A0EE66E34EC94F0040E381811
:10025000D8A487D0000EE66EE5ECB7F0000EE66E8F
:10026000000EE66E58ECB5F0FE0E6000E7F0E3FF1E
:10027000FD0E6000E3F0E3FF6200DFFFE8FF090A24
:10028000D8A41ED0F8CBFBFB22EEF8F3DF50E66ECD
:10029000000EE66E22EEF7F3DF50E66E000EE66E1D
:1002A000540EE66EFE0EE66EF70E6F008FFFE6FF51
:1002B0006F008FFFE6FF080EE66E88ECAAF01FD0F5
:1002C000000E6F00A0FFFBFB22EEF8F3DF50E66E9E
:1002D000000EE66E22EEF7F3DF50E66E000EE66EDD
:1002E0003F0EE66EFE0EE66EF70E6F008FFFE6FF26
:1002F0006F008FFFE6FF080EE66E88ECAAF0FD0E99
:100300006F008CFF42F0FE0E6F008CFF43F0100E6A
:100310004224D96E000E4320DA6E000EDF6EFD0E11
:100320006F008FFFE6FF6F008FFFE6FF000EE66EA7
:10033000000EE66E78EC8FF023EE0FF0DFA20DD00A
:10034000020E6F00A0FFC4FA23EE0FF0870EDF1637
:10035000000E6F00A0FFCAFA04D0030E6F00A0FFCA
:10036000C4FA620027FBE8FF11D0CA0EE66E0A0E3F
:10037000E66E38EC98F0040E3818D8A404D0030EBA
:100380006F00A0FFC4FA62002BFBE8FF060AD8A4A6
:10039000ECD0060E88D0000EE66EE5ECB7F0000E4D
:1003A000E66E000EE66E58ECB5F0FE0E6000E7F06B
:1003B000E3FFFD0E6000E3F0E3FF23EE10F0DFA8A3
:1003C0002ED0000E6F00A0FFC9FA000E6F00A0FF34
:1003D000CAFA020E6F00A0FFC4FA22EEC7F2DF5085
:1003E000E66E000EE66E22EEF8F3DF50E66E000ECB
:1003F000E66E22EEF7F3DF50E66E000EE66ED00EEC
:10040000E66EFD0EE66EF50E6F008FFFE6FF6F00E5
:100410008FFFE6FF0A0EE66E88ECAAF025D0050EE7
:100420006F00A0FFC4FA22EEC7F2DF50E66E000EA6
:10043000E66E22EEF8F3DF50E66E000EE66E22EE78
:10044000F7F3DF50E66E000EE66EB80EE66EFD0EB8
:10045000E66EF50E6F008FFFE6FF6F008FFFE6FF81
:100460000A0EE66E88ECAAF0FD0E6F008CFF42F0DB
:10047000FE0E6F008CFF43F0100E4224D96E000E6A
:100480004320DA6E000EDF6EFD0E6F008FFFE6FF79
:100490006F008FFFE6FF000EE66E000EE66E78EC52
:1004A0008FF063D0000E6F00A0FFC4FA5ED0000E84
:1004B0006F00A0FFC4FA22EEC6F2DF50E66E000E17
:1004C000E66E23EE05F06F0078FF42F06F0074FFD8
:1004D00043F060000BF1E6FF60000FF1E6FF22EE53
:1004E000FAF3DF50E66E000EE66E22EEF9F3DF500F
:1004F000E66E000EE66E670EE66EFF0EE66E000E0E
:10050000E66E020EE66E58ECB5F06000E3F0E6FF32
:100510006000E7F0E6FF0C0EE66E88ECAAF0000E35
:10052000E66E00ECAAF0D00EE66E070EE66ED8EC92
:10053000B4F01BD022EEC4F2DF50426E436A435047
:10054000000AD8A4B4D74250000AD8B40DD6010A84
:10055000D8B476D6030AD8B408D7010AD8B41BD7C2
:10056000060AD8B49FD7030AA2D76200E7FFE8FFC4
:100570000A0AD8A461D26200EBFFE8FF0A0AD8A4F5
:100580005BD20A0EE66E6BECB7F03850D8B453D09D
:1005900023EE10F0DFAA27D022EEF3F36F007BFFEB
:1005A000E6FF6F007BFFE6FF6F007BFFE6FF6F005B
:1005B0007BFFE6FF010EE66E010EE66E7E0EE66E36
:1005C000FE0EE66E000EE66E020EE66E58ECB5F01C
:1005D0006000E3F0E6FF6000E7F0E6FF0A0EE66E7B
:1005E00088ECAAF028D022EEC6F2DF50E66E000EAC
:1005F000E66E22EEEBF36F007BFFE6FF6F007BFF02
:10060000E6FF6F007BFFE6FF6F007BFFE6FF930EC8
:10061000E66EFE0EE66E000EE66E020EE66E58EC1C
:10062000B5F06000E3F0E6FF6000E7F0E6FF0A0ED9
:10063000E66E88ECAAF062001BFBE8FF040AD8A46F
:10064000FBD1620013FBE8FF010AD8A4F5D123EE29
:1006500010F0DFB8F1D122EEC9F2DF50D8A4ECD10E
:1006600022EECAF2DF50D8A4E7D1060EE66E6BEC9C
:10067000B7F03850D8B4E0D1000EE66EE5ECB7F034
:1006800023EE11F0DF50070B0009D8B413D09DEC16
:10069000B2F0000E6F00A0FFFBFB000E6F00A0FF8A
:1006A00042FC0A0E6F00A0FFF9FB0A0E6F00A0FFCC
:1006B000FAFBC2D1300EE66E750EE66E060EE66EE1
:1006C0009CECB4F023EE42F06F007CFF43F0010E8F
:1006D000DF26040E43643CD0000EE66EE5ECB7F076
:1006E0009DECB2F023EE0BF06F0078FF42F06F004C
:1006F00074FF43F060000BF1E6FF60000FF1E6FFCE
:1007000022EEC6F2DF50E66E000EE66EE40EE66EF6
:10071000FE0EE66E000EE66E000EE66E58ECB5F0CC
:100720006000E3F0E6FF6000E7F0E6FF080EE66E2B
:1007300088ECAAF0000EE66E00ECAAF0FA0EE66E67
:10074000000EE66ED8ECB4F0000E6F00A0FF42FC85
:10075000000EE66EE5ECB7F06FD1000E6F00A0FF63
:10076000C8FA010E6F00A0FFC4FA23EE10F0DFAA52
:1007700027D022EEF3F36F007BFFE6FF6F007BFFD5
:10078000E6FF6F007BFFE6FF6F007BFFE6FF010ED9
:10079000E66E010EE66E7E0EE66EFE0EE66E000E54
:1007A000E66E020EE66E58ECB5F06000E3F0E6FF90
:1007B0006000E7F0E6FF0A0EE66E88ECAAF0C5D00E
:1007C00023EE03F06F0078FF42F06F0074FF43F0F8
:1007D00060000BF1E6FF60000FF1E6FF23EE05F08D
:1007E0006F0078FF42F06F0074FF43F060000BF180
:1007F000E6FF60000FF1E6FF22EEC6F2DF50E66E84
:10080000000EE66E23EE3FF0DF50E66E000EE66E61
:10081000850EE66EFD0EE66E000EE66E020EE66ECC
:1008200058ECB5F06000E3F0E6FF6000E7F0E6FFAB
:100830000C0EE66E88ECAAF088D0C80EE66E0A0EA2
:10084000E66EA0EC89F0040E3818D8A43BD022EE56
:10085000EBF36F007BFFE6FF6F007BFFE6FF6F00AF
:100860007BFFE6FF6F007BFFE6FF22EEF8F3DF5031
:10087000E66E000EE66E22EEF7F3DF50E66E000E37
:10088000E66E1E0EE66EFF0EE66ECB0EE66E0A0EEE
:10089000E66E0C0EE66E88ECAAF0000E6F00A0FF6C
:1008A000D8FACB0EE66E0A0EE66E000EE66E630018
:1008B000FCF043F04304E66E78EC8FF0030E6F001B
:1008C000A0FFC4FA620023FBE8FF060AD8A43DD0CB
:1008D000060E1FD0050E6F00A0FFC4FAEB0EE66EE9
:1008E000FF0EE66ECB0EE66E0A0EE66E040EE66EA8
:1008F00088ECAAF0CB0EE66E0A0EE66E0D0EE66EE2
:100900006300FCF043F04304E66E78EC8FF01DD0FA
:10091000000E6F00A0FFC4FA18D022EEC4F2DF5020
:10092000426E436A4350000AD8A4F2D74250000AEC
:10093000D8B413D7010AD8B480D7020AD8B4CAD71A
:10094000060AD8B4E5D7030AE3D723EE10F0DFAAEE
:100950001BD022EEC7F2DF50E66E000EE66E690E87
:10096000E66EFE0EE66E000EE66E020EE66E58ECC9
:10097000B5F06000E3F0E6FF6000E7F0E6FF060E8A
:10098000E66E88ECAAF058D023EE03F06F0078FFF3
:1009900042F06F0074FF43F060000BF1E6FF60006F
:1009A0000FF1E6FF23EE05F06F0078FF42F06F00D5
:1009B00074FF43F060000BF1E6FF60000FF1E6FF0B
:1009C00022EEC6F2DF50E66E000EE66E23EE3FF03A
:1009D000DF50E66E000EE66E850EE66EFD0EE66EEC
:1009E000000EE66E020EE66E58ECB5F06000E3F025
:1009F000E6FF6000E7F0E6FF0C0EE66E88ECAAF07A
:100A00001BD0000E6F00A0FFC5FA16D022EEC5F273
:100A1000DF50426E436A4350000AD8A4F2D74250D6
:100A2000000AD8B43DEF80F0010AD8B483D5020A99
:100A3000D8B473D7070AE5D722EEEBF3DE50DE1009
:100A4000DE10DE10D8B42ED023EE10F0DF500F0BE6
:100A50000009D8B40BD0BD98BD8A6200E7FFE8FF5B
:100A60000F0AD8A407D0BF98BF8A04D0BD88BD9A0A
:100A7000BF88BF9A23EE0FF0DF30E832E8320F0B69
:100A80000009D8B40BD0BD9CBD8E6200E7FFE8FF23
:100A90000F0AD8A407D0BF9CBF8E04D0BD8CBD9ECA
:100AA000BF8CBF9EFF0E6F008CFF38F0030E38180E
:100AB000D8B463D00A0EE66E6BECB7F03850D8B4F9
:100AC0005CD0090EE66E6BECB7F03850D8B404D0A9
:100AD000000EE66EE5ECB7F023EE11F0DF50070BE9
:100AE000E66E000EE66E23EE03F06F0078FF42F034
:100AF0006F0074FF43F060000BF1E6FF60000FF140
:100B0000E6FF23EE0FF0DF30E832E8320F0BE66E3F
:100B1000000EE66E22EECAF2DF50E66E000EE66EC2
:100B200023EE10F0DF500F0BE66E000EE66E22EEA5
:100B3000C9F2DF50E66E000EE66E1A0EE66EFD0E8E
:100B4000E66E000EE66E010EE66E58ECB5F0600043
:100B5000E3F0E6FF6000E7F0E6FF100EE66E88ECDB
:100B6000AAF0640EE66E000EE66E0A0EE66E9CECCF
:100B7000B4F0000EE66E00ECAAF0C7ECA4F046D785
:100B8000130EE126000EE222E90E6F008FFFD9FF5F
:100B9000EA0E6F008FFFDAFF6F007BFFF6FF6F003A
:100BA00077FFF7FF000EF86E0800F550250AD8A46D
:100BB00098D3E90E6F008FFFD9FFEA0E6F008FFF09
:100BC000DAFFDE2A000EDD22106A116A146A156A45
:100BD00012681368E90E6F008FFFD9FFEA0E6F00ED
:100BE0008FFFDAFF6F007BFFF6FF6F0077FFF7FFE5
:100BF000000EF86E0800F550630AD8A436D0E90E4E
:100C00006F008FFFD9FFEA0E6F008FFFDAFFDE2A39
:100C1000000EDD22E70E6F008FFFD9FFE80E6F0098
:100C20008FFFDAFF020EDE5E000EDD5A6F0078FFE6
:100C300042F06F0074FF43F060000BF1D9FF6000D9
:100C40000FF1DAFFDF50436EFF0E60000FF1E3FF9C
:100C5000FF0EE350E66EEA0E6F008FFFE6FF6F00B7
:100C60008FFFE6FF8FECAFF066D3E90E6F008FFFCA
:100C7000D9FFEA0E6F008FFFDAFF6F007BFFF6FFF0
:100C80006F0077FFF7FF000EF86E0800F550640A5A
:100C9000D8B415D0E90E6F008FFFD9FFEA0E6F00B0
:100CA0008FFFDAFF6F007BFFF6FF6F0077FFF7FF24
:100CB000000EF86E0800F550690AD8A475D0E90E48
:100CC0006F008FFFD9FFEA0E6F008FFFDAFFDE2A79
:100CD000000EDD22E70E6F008FFFD9FFE80E6F00D8
:100CE0008FFFDAFF020EDE5E000EDD5A6F0078FF26
:100CF00042F06F0074FF43F060000BF1D9FF600019
:100D00000FF1DAFF6F0078FF42F06F0074FF43F0DD
:100D1000F50E60000BF1E3FFF60E60000FF1E3FF4C
:100D2000386AE3BE3868F70E6000E3F0E3FFF80EC0
:100D30006000E3F0E3FFF90E6000E3F0E3FFFA0E7A
:100D40006000E3F0E3FFFB0E6000E3F0E3FFFC0E66
:100D50006000E3F0E3FFE150F50FD96EE250DA6E88
:100D6000FF0EDA226F007BFFE6FF6F007BFFE6FFDE
:100D70006F007BFFE6FF6F007BFFE6FF6F007BFFEE
:100D8000E6FF6F007BFFE6FF6F007BFFE6FF6F0073
:100D90007BFFE6FFE30E6F008FFFE6FF6F008FFF24
:100DA000E6FFF4EC91F0C7D2020EE66E000EE66E9E
:100DB000F20EE66EFF0EE66EE50E6F008FFFD9FFB6
:100DC000E60E6F008FFFDAFF6F0078FF42F06F00D2
:100DD00074FF43F060000BF1E6FF60000FF1E6FFE7
:100DE000C9ECA3F038503910D8B422D0020EE66E08
:100DF000000EE66EF50EE66EFF0EE66EE50E6F0077
:100E00008FFFD9FFE60E6F008FFFDAFF6F0078FFCC
:100E100042F06F0074FF43F060000BF1E6FF6000EA
:100E20000FF1E6FFC9ECA3F038503910D8A469D00F
:100E3000E90E6F008FFFD9FFEA0E6F008FFFDAFF18
:100E4000020EDE26000EDD22E70E6F008FFFD9FFB7
:100E5000E80E6F008FFFDAFF040EDE5E000EDD5A33
:100E60006F0078FF42F06F0074FF43F060000BF1F9
:100E7000D9FF60000FF1DAFF6F0078FF40F06F00DC
:100E800078FF41F06F0078FF42F06F0078FF43F089
:100E9000600000F148F0600004F149F0600008F1E2
:100EA0004AF060000CF14BF04C6A4BBE4C6860009D
:100EB00030F14DF0600030F14EF0600030F14FF055
:100EC000F50E600023F1E3FFF60E600027F1E3FF6B
:100ED000F70E60002BF1E3FFF80E60002FF1E3FF47
:100EE000F90E600033F1E3FFFA0E600037F1E3FF23
:100EF000FB0E60003BF1E3FFFC0E60003FF1E3FFFF
:100F00002AD7E90E6F008FFFD9FFEA0E6F008FFF1F
:100F1000DAFF6F007BFFF6FF6F0077FFF7FF000E31
:100F2000F86E0800F550730AD8A442D0E90E6F009D
:100F30008FFFD9FFEA0E6F008FFFDAFFDE2A000E67
:100F4000DD22E70E6F008FFFD9FFE80E6F008FFFE5
:100F5000DAFF020EDE5E000EDD5A6F0078FF42F00F
:100F60006F0074FF43F060000BF1D9FF60000FF1D8
:100F7000DAFF6F0078FF42F06F0074FF43F0FE0E5F
:100F800060000FF1E3FFFD0E60000BF1E3FFFD0ECB
:100F90006F008FFFE6FF6F008FFFE6FFE90E6F0027
:100FA0008FFFE6FF6F008FFFE6FF41EC9BF0C3D1A0
:100FB000E90E6F008FFFD9FFEA0E6F008FFFDAFF97
:100FC0006F007BFFF6FF6F0077FFF7FF000EF86EF4
:100FD0000800F550780AD8B415D0E90E6F008FFFDD
:100FE000D9FFEA0E6F008FFFDAFF6F007BFFF6FF7D
:100FF0006F0077FFF7FF000EF86E0800F550580AF3
:10100000D8A494D0E90E6F008FFFD9FFEA0E6F00CD
:101010008FFFDAFF6F007BFFF6FF6F0077FFF7FFB0
:10102000000EF86E0800FF0E6F00D7FFE3FFE90E19
:101030006F008FFFD9FFEA0E6F008FFFDAFFDE2A05
:10104000000EDD22E70E6F008FFFD9FFE80E6F0064
:101050008FFFDAFF020EDE5E000EDD5A6F0078FFB2
:1010600042F06F0074FF43F060000BF1D9FF6000A5
:101070000FF1DAFF6F0078FF42F06F0074FF43F06A
:101080004250486E4350496E4A6A4B6A4C6A4D6AF8
:101090004E6A4F6AED0E600023F1E3FFEE0E600032
:1010A00027F1E3FFEF0E60002BF1E3FFF00E60008D
:1010B0002FF1E3FFF10E600033F1E3FFF20E600069
:1010C00037F1E3FFF30E60003BF1E3FFF40E600045
:1010D0003FF1E3FFFF0EE350E66EE150EC0FD96EF7
:1010E000E250DA6EFF0EDA226F007BFFE6FF6F0040
:1010F0007BFFE6FF6F007BFFE6FF6F007BFFE6FFF5
:101100006F007BFFE6FF6F007BFFE6FF6F007BFF5A
:10111000E6FF6F007BFFE6FFE20E6F008FFFE6FF4A
:101120006F008FFFE6FF5BEC96F005D1020EE66ED6
:10113000000EE66EF80EE66EFF0EE66EE50E6F0030
:101140008FFFD9FFE60E6F008FFFDAFF6F0078FF89
:1011500042F06F0074FF43F060000BF1E6FF6000A7
:101160000FF1E6FFC9ECA3F038503910D8B422D003
:10117000020EE66E000EE66EEF0EE66EFF0EE66EF7
:10118000E50E6F008FFFD9FFE60E6F008FFFDAFFCD
:101190006F0078FF42F06F0074FF43F060000BF1C6
:1011A000E6FF60000FF1E6FFC9ECA3F038503910FC
:1011B000D8A458D0E90E6F008FFFD9FFEA0E6F0058
:1011C0008FFFDAFF6F0078FF42F06F0074FF43F08B
:1011D000010E4226000E432260000BF1F6FF600074
:1011E0000FF1F7FF000EF86E0800FF0E6F00D7FF3B
:1011F000E3FFE90E6F008FFFD9FFEA0E6F008FFF4C
:10120000DAFF020EDE26000EDD22E70E6F008FFFF2
:10121000D9FFE80E6F008FFFDAFF040EDE5E000ECE
:10122000DD5A6F0078FF42F06F0074FF43F06000FA
:101230000BF1D9FF60000FF1DAFF6F0078FF40F08B
:101240006F0078FF41F06F0078FF42F06F0078FF89
:1012500043F04050486E4150496E42504A6E4350F0
:101260004B6E14D7E90E6F008FFFD9FFEA0E6F00A7
:101270008FFFDAFF6F007BFFF6FF6F0077FFF7FF4E
:10128000000EF86E0800F550250AD8A41AD0E90E11
:101290006F008FFFD9FFEA0E6F008FFFDAFFDE2AA3
:1012A000000EDD22EB0E6F008FFFE6FF6F008FFF59
:1012B000E6FF250EE66E000EE66E53ECA8F0010E7A
:1012C0000CD0E90E6F008FFFD9FFEA0E6F008FFF81
:1012D000DAFFDE2A000EDD22000E386E000E396EB7
:1012E0002AD0EB0E6F008FFFE6FF6F008FFFE6FF47
:1012F000E70E6F008FFFD9FFE80E6F008FFFDAFF58
:101300006F007BFFF6FF6F0077FFF7FF000EF86EB0
:101310000800F550E66E000EE66E53ECA8F0E90EFC
:101320006F008FFFD9FFEA0E6F008FFFDAFFDE2A12
:10133000000EDD22C4D7E70EE126FF0EE2221200E6
:10134000E65206D31FECB9F03850D8B428D060EC80
:10135000B4F0FF0E6000E3F0E3FFFF0E6F008CFFC0
:1013600038F0050E3818D8A41AD0010E6F00A0FF6F
:101370003FFCB80EE66E0B0EE66E020EE66E9CECBF
:10138000B4F00A0E6F00A0FFF9FBFD0E6F008FFF97
:10139000D9FFFE0E6F008FFFDAFF010EDF6E1BEC30
:1013A000B9F03850D8B4F9D242ECB4F0FF0E600076
:1013B000E3F0E3FFFF0E6F008CFF38F0050E3818E6
:1013C000D8A4EBD2020E6F00A0FF3FFCB80EE66E71
:1013D0000B0EE66E020EE66E9CECB4F00A0E6F0089
:1013E000A0FFF9FBFD0E6F008FFFD9FFFE0E6F000F
:1013F0008FFFDAFF010EAAD2236A020EE66E6BECB3
:10140000B7F03850D8B419D00C0E6F00A0FFF9FB1C
:1014100023EE05F0DE2A000EDD2223EE10F0DF5071
:10142000F00B0209DF6EFD0E6F008FFFD9FFFE0E7D
:101430006F008FFFDAFF050E89D26300FFF0E8FF2F
:10144000020AD8A429D01FECB9F03850D8B424D05F
:1014500060ECB4F0FF0E6000E3F0E3FFFF0E6F00FE
:101460008CFF38F0040E3818D8A416D0B80EE66EEB
:101470000B0EE66E020EE66E9CECB4F00A0E6F00E8
:10148000A0FFF9FBFD0E6F008FFFD9FFFE0E6F006E
:101490008FFFDAFF020EDF6E6300FFF0E8FF010A44
:1014A000D8A47BD21BECB9F03850D8B476D242EC39
:1014B000B4F0FF0E6000E3F0E3FFFF0E6F008CFF5F
:1014C00038F0040E3818D8A468D2B80EE66E0B0EA9
:1014D000E66E020EE66E9CECB4F00A0E6F00A0FF02
:1014E000F9FBFD0E6F008FFFD9FFFE0E6F008FFF1F
:1014F000DAFF020E2BD2020EE66E6BECB7F038501C
:10150000D8A482D76300FFF0E8FF010AD8A4D2D0A4
:101510001FECB9F03850D8B4CDD060ECB4F0FF0E69
:101520006000E3F0E3FF2350D8A418D0FF0E6F0053
:101530008CFF84F0010EE66E000EE66EF0ECB5F066
:10154000232A23504508D96E000ED8A0E82A0D089A
:10155000DA6EFF0E6F008FFFDFFFACD00B0E236043
:101560000CD023501908D96E000ED8A0E82A010823
:10157000DA6EFF0E6F008FFFDFFF23500001845DE6
:10158000D8A00DD0000EE66EFE0EE350E66EF0EC35
:10159000B5F06000E0F0FFFB6000E4F000FC2350D9
:1015A000426E436A00018451406E416A010E40263A
:1015B000000E41224250401809E143504118D8A47E
:1015C00005D0FF0EE35001010E6F0D6B2350426EEC
:1015D000436A00018451406E416A020E4026000EAB
:1015E0004122425040180AE143504118D8A406D085
:1015F000FF0EE35001010D27000E0E23232A235076
:101600004508D96E000ED8A0E82A0D08DA6EFF0E44
:101610006F008FFFDFFF2350426E436A0001845149
:10162000406E416A020E4026000E41224250405C4C
:101630004150800A386E4350800A3858D8B03AD0AA
:1016400022EEFFF301010D51DE1810E10E51DE18FC
:10165000D8A40CD0FD0E6F008FFFD9FFFE0E6F00D7
:101660008FFFDAFF030E25D060ECB4F01FECB9F069
:101670003850D8A4F9D7DC0EE66E050EE66ED8EC2D
:10168000B4F00F0E6F00A0FFF9FB23EE03F0DE2A8B
:10169000000EDD2223EE10F0DF50F00B0309DF6EA9
:1016A000FD0E6F008FFFD9FFFE0E6F008FFFDAFF78
:1016B000050EDF6E6300FFF0E8FF020AD8A46DD1CB
:1016C0001BECB9F03850D8B468D142ECB4F0FF0E3E
:1016D0006000E3F0E3FF2350D8A418D0FF0E6F00A2
:1016E0008CFF84F0010EE66E000EE66EF0ECB5F0B5
:1016F000232A23504508D96E000ED8A0E82A0D08E9
:10170000DA6EFF0E6F008FFFDFFF47D10B0E2360F5
:101710000CD023501908D96E000ED8A0E82A010871
:10172000DA6EFF0E6F008FFFDFFF23500001845D34
:10173000D8A00DD0000EE66EFE0EE350E66EF0EC83
:10174000B5F06000E0F0FFFB6000E4F000FC235027
:10175000426E436A00018451406E416A010E402688
:10176000000E41224250401809E143504118D8A4CC
:1017700005D0FF0EE35001010E6F0D6B2350426E3A
:10178000436A00018451406E416A020E4026000EF9
:101790004122425040180AE143504118D8A406D0D3
:1017A000FF0EE35001010D27000E0E23232A2350C4
:1017B0004508D96E000ED8A0E82A0D08DA6EFF0E93
:1017C0006F008FFFDFFF2350426E436A0001845198
:1017D000406E416A020E4026000E41224250405C9B
:1017E0004150800A386E4350800A3858D8B0D5D05E
:1017F00022EEFFF301010D51DE1810E10E51DE184B
:10180000D8A40CD0FD0E6F008FFFD9FFFE0E6F0025
:101810008FFFDAFF030E9AD042ECB4F01BECB9F064
:101820003850D8A4F9D7DC0EE66E050EE66ED8EC7B
:10183000B4F00F0E6F00A0FFF9FB23EE03F0DE2AD9
:10184000000EDD2223EE10F0DF50F00B0409EAD584
:10185000010116517F0B436E60000CF1F7FB22EE85
:10186000F8F3600057F4DFFF20EE0FF16F0078FF10
:10187000EFFB6F0078FFF0FB6F0078FFF1FB6F006C
:1018800074FFF2FB23EE0FF018BF02D0DF9001D0FF
:10189000DF8023EE0FF0010116BF02D0DF9201D0EE
:1018A000DF8223EE0FF0010114BF02D0DF9401D0DC
:1018B000DF8423EE10F0F00EDF16E80EE66E030E66
:1018C000E66E22EEF8F3DF50E66E22EEF7F3DF501D
:1018D000E66E12ECA7F022EEF8F3DF50E66E22EE91
:1018E000F7F3DF50E66E60ECA6F06000E0F0C6FAB9
:1018F000FD0E6F008FFFD9FFFE0E6F008FFFDAFF26
:10190000040E24D0FD0E6F008FFFD9FFFE0E6F0076
:101910008FFFDAFF060EDF6E02D060ECB4F02B50C2
:10192000D8B403D0FAD742ECB4F02550D8B435D0AF
:10193000FAD723EE10F0F00EDF16FD0E6F008FFFCA
:10194000D9FFFE0E6F008FFFDAFF000EDF6E25D08D
:10195000FD0E6F008FFFD9FFFE0E6F008FFFDAFFC5
:10196000DF50426E436A4350000AD8A4E6D7425083
:10197000000AD8B4E7D4010AD8B43ED5030AD8B4D3
:10198000BAD5010AD8B464D7070AD8B4D2D7010AA5
:10199000D8B4B8D7030AD8A4D0D7FD0E6F008FFFF4
:1019A000D9FFFE0E6F008FFFDAFFDF50386EE55271
:1019B000E552E5521200070EE126000EE222FE0E6D
:1019C000E36AFF0EE36ABBA802D0010E01D0000E4D
:1019D000FF0A436E433ABB504318EF0B4318BB6EEC
:1019E0000A0E6F00A0FFFAFB23EE10F0DF9837908D
:1019F000060EE66E6BECB7F03850D8B45AD223EE30
:101A000011F0DF50070B0009D8B414D023EE41F0D9
:101A1000DF50E66E310EE66E8DECABF020EE31F06D
:101A2000070E386EF70E6F007BFFE3FFE828382EB5
:101A3000FAD75BD2880EE66E130EE66E060EE66EE1
:101A40009CECB4F036D2C30E316E020E326E0F0E25
:101A5000336EEFCBC7F2F0CBC8F2F1CBC9F2F2CBC9
:101A6000CAF2EBCB02F1ECCB03F1EDCB04F1EECB00
:101A700005F13780000E346E010E356E0D0E366E98
:101A800023EE10F0DF88CAD7000E316E010E326EE1
:101A90000D0E336EEFCB02F1F0CB03F1F1CB04F17D
:101AA000F2CB05F1BBD7AF0E316E010E326E110EC7
:101AB000336EEFCBB5F1F0CBB6F1F1CBB7F1F2CBA2
:101AC000B8F1ACD79B0E316E010E326E140E336E30
:101AD000EFCBA4F1F0CBA5F1F1CBA6F1F2CBA7F1BE
:101AE000EBCBD6F2ECCBD7F2EDCBD8F2EECBD9F2F2
:101AF0003780D20E346E020E356E0F0EC0D7F80E40
:101B00006F008CFF43F0010123514318800B4318F1
:101B1000236F1A0E316E010E326E0D0E336EEFCB47
:101B20001CF1F0CB1DF1F1CB1EF1F2CB1FF1110E28
:101B30006F00A0FFFAFB72D7F70EE350426E436AC4
:101B40004350000AD8A4DBD74250010AD8B47BD74F
:101B5000030AD8B499D7010AD8B4A5D70E0AD8B4C5
:101B6000B1D7CDD7E10E316E020E326E1D0E336E3F
:101B7000EFCBF3F2F0CBF4F2F1CBF5F2F2CBF6F2DD
:101B80004DD78B0E316E010E326E100E336EEFCBD1
:101B900090F1F0CB91F1F1CB92F1F2CB93F13ED7F2
:101BA000F70EE350426E436A4350000AD8A4A7D709
:101BB0004250110AD8B4D6D7080AD8B4E2D79FD772
:101BC0007B0E316E010E326E100E336EEFCB80F154
:101BD000F0CB81F1F1CB82F1F2CB83F11FD7F70E7D
:101BE000E350426E436A4350000AD8A488D742505B
:101BF000010AD8B4E5D783D75B0E316E010E326E81
:101C0000100E336EEFCB60F1F0CB61F1F1CB62F1EE
:101C1000F2CB63F10C0E1FD05B0E316E010E326EF3
:101C2000100E336EEFCB60F1F0CB61F1F1CB62F1CE
:101C3000F2CB63F10E0E0FD05B0E316E010E326EE1
:101C4000100E336EEFCB60F1F0CB61F1F1CB62F1AE
:101C5000F2CB63F11A0E0101666FE0D6F70EE35086
:101C6000426E436A4350000AD8A449D742500B0A37
:101C7000D8B4C2D7060AD8B4CFD7140AD8B4DCD7A0
:101C80003ED723EE0BF0DE2A000EDD22C7D6F70E7C
:101C9000E350426E436A4350000AD8A430D7425002
:101CA000010AD8B4BBD6020AD8B4B8D6060AD8B44A
:101CB000B5D6020AD8B4B2D60E0AD8B4E2D7020A10
:101CC000D8B4ACD6060AD8B4A9D619D76B0E316EE3
:101CD000010E326E100E336EEFCB70F1F0CB71F15E
:101CE000F1CB72F1F2CB73F1EBCB2DF3ECCB2EF306
:101CF000EDCB2FF3EECB30F3B80EE66E0B0EE66EA7
:101D0000070EE66E9CECB4F0010EE66EE5ECB7F063
:101D10009AD03780380E346E030E356E380E366E1C
:101D200032CC60F323EE10F0DF88AFD03780BC0EEA
:101D3000346E356A240E366E23EE10F0DF88030E03
:101D4000E66EE5ECB7F0A1D03780BC0E346E356A94
:101D5000240E366E23EE10F0DF88040EE66EE5ECFE
:101D6000B7F093D03780BC0E346E356A240E366ED1
:101D700023EE10F0DF88050EE66EE5ECB7F085D0B7
:101D80004FECB0F023EE41F0DF50E66E65ECA0F0D2
:101D9000070EE66EE5ECB7F023EE0DF0DE2A000E3E
:101DA000DD2273D03780000E346E030E356E380E90
:101DB000366E32CC28F3B6D7FF0EE66EFD0E6F00FE
:101DC0008FFFE6FF6F008FFFE6FFF6ECB0F0FE0E30
:101DD000E350010F386EFE0E6000E3F0E3FF386A57
:101DE000FF0EE3503820386EFF0E6000E3F0E3FF93
:101DF000FF0E6F008CFF38F0040E385ED8A0DCD7E1
:101E0000000E6F00A0FF3DFC000E6F00A0FF3EFC27
:101E1000000E6F00A0FF36FC020EE66EE5ECB7F098
:101E200034D023EE10F0DFBA03D0436A432A01D046
:101E3000436A23EE10F0433A4346DF504318DF0B6A
:101E40004318DF6E22D0AAECA2F03850426E436AEB
:101E50004350000AD8A419D04250000AD8B4A2D7DF
:101E6000010AD8B456D7040AD8B4DBD7030AD8B4C9
:101E7000A3D7010AD8B45AD70F0AD8B465D7010A34
:101E8000D8B470D7020AD8B47BD723ECB9F0385055
:101E9000E66EC7ECB8F0C2D5F70EE350426E436A67
:101EA0004350000AD8A42BD64250010AD8B40ED70A
:101EB00026D6F80EE350426E436A4350000AD8A477
:101EC0001ED64250010AD8B437D6030AD8B468D611
:101ED000070AD8B484D6030AD8B4C0D60F0AD8B437
:101EE000D6D6030AD8B4D8D70AD6E552E55212009E
:101EF000BBAA02D0010E01D0000EFF0A436E433A86
:101F00004346BB504318DF0B4318BB6E4DECB8F093
:101F100023EE37F0DF50D8A4ECD1FC0E6F008FFF1A
:101F2000E6FF6F008FFFE6FFFC0EE350E66EFC0E4F
:101F3000E350E66EF3ECB4F04CD20C013651030BD7
:101F4000E66E000EE66E22EEF8F3DF50E66E000E4F
:101F5000E66E22EEF7F3DF50E66E000EE66EFF0E41
:101F6000E66EFD0EE66E020EE66E000EE66E58ECB4
:101F7000B5F06000E3F0E6FF6000E7F0E6FF0A0E70
:101F8000E66E88ECAAF023EE3DF06F0078FF42F099
:101F90006F0074FF43F060000BF1E6FF60000FF18B
:101FA000E6FFBC0EE66EFE0EE66E020EE66E010E5B
:101FB000E66E58ECB5F06000E3F0E6FF6000E7F095
:101FC000E6FF060EE66E88ECAAF0B4D1550EE66E7A
:101FD000FF0EE66E020EE66E000EE66E58ECB5F0F1
:101FE0006000E3F0E6FF6000E7F0E6FF040EE66E57
:101FF00088ECAAF023EE33F0DF50E66E000EE66EBA
:10200000A80EE66EFE0EE66E020EE66E010EE66E9F
:1020100058ECB5F06000E3F0E6FF6000E7F0E6FFA3
:10202000060EE66E88ECAAF085D1430EE66EFF0E32
:10203000E66E020EE66E000EE66E58ECB5F060003D
:10204000E3F0E6FF6000E7F0E6FF040EE66E88ECE2
:10205000AAF023EE33F0DF50E66E000EE66EA80E17
:10206000E66EFE0EE66E020EE66E010EE66E58ECB1
:10207000B5F06000E3F0E6FF6000E7F0E6FF060E73
:10208000E66E88ECAAF056D1310EE66EFF0EE66ED3
:10209000020EE66E000EE66E58ECB5F06000E3F05E
:1020A000E6FF6000E7F0E6FF040EE66E88ECAAF0BB
:1020B00023EE33F0DF50E66E000EE66EA80EE66EFD
:1020C000FE0EE66E020EE66E010EE66E58ECB5F000
:1020D0006000E3F0E6FF6000E7F0E6FF060EE66E64
:1020E00088ECAAF027D1BA0EE66EFF0EE66EF80E67
:1020F000E66EFE0EE66E010EE66E000EE66E58EC23
:10210000B5F06000E3F0E6FF6000E7F0E6FF060EE2
:10211000E66E88ECAAF0DC0EE66EFF0EE66E0B0EA5
:10212000E66EFF0EE66E010EE66E010EE66E58ECF0
:10213000B5F06000E3F0E6FF6000E7F0E6FF060EB2
:10214000E66E88ECAAF0F6D022EEFBF3DF50E66EE6
:10215000000EE66E23EE40F0DF50E66E000EE66EF7
:10216000E80EE66EFD0EE66E020EE66E000EE66E00
:1021700058ECB5F06000E3F0E6FF6000E7F0E6FF42
:10218000080EE66E88ECAAF023EE0DF06F0078FFE3
:1021900042F06F0074FF43F060000BF1E6FF600057
:1021A0000FF1E6FF150EE66EFE0EE66E020EE66E0F
:1021B000010EE66E58ECB5F06000E3F0E6FF60005B
:1021C000E7F0E6FF060EE66E88ECAAF0B3D023EE49
:1021D00032F0DF50E66E000EE66E370EE66EFD0E54
:1021E000E66E020EE66E000EE66E58ECB5F060008C
:1021F000E3F0E6FF6000E7F0E6FF060EE66E88EC2F
:10220000AAF023EE35F0DF50E66E000EE66E23EE08
:1022100034F0DF50E66E000EE66E23EE33F0DF5052
:10222000E66E000EE66E9F0EE66EFD0EE66E020E88
:10223000E66E010EE66E58ECB5F06000E3F0E6FFE6
:102240006000E7F0E6FF0A0EE66E88ECAAF072D0B6
:10225000070EE66EFD0EE66E000EE66E000EE66EF2
:1022600058ECB5F06000E3F0E6FF6000E7F0E6FF51
:10227000040EE66E88ECAAF0070EE66EFD0EE66E22
:10228000000EE66E010EE66E58ECB5F06000E3F06D
:10229000E6FF6000E7F0E6FF040EE66E88ECAAF0C9
:1022A000070EE66EFD0EE66E020EE66E000EE66EA0
:1022B00058ECB5F06000E3F0E6FF6000E7F0E6FF01
:1022C000040EE66E88ECAAF0070EE66EFD0EE66ED2
:1022D000020EE66E010EE66E58ECB5F06000E3F01B
:1022E000E6FF6000E7F0E6FF040EE66E88ECAAF079
:1022F00021D023EE37F0DF50426E436A4350000A8C
:10230000D8A4A6D74250010AD8B461D7030AD8B4DA
:1023100014D6010AD8B45AD6070AD8B4B5D6010AD9
:10232000D8B483D6030AD8B4DED6010AD8B40CD701
:102330000E0A8ED76300DFF0E8FF060AD8A41DD08E
:10234000AB0EE66E0B0EE66ECF0EE66EFF0EE66E81
:10235000010EE66E020EE66E58ECB5F06000E3F09A
:10236000E6FF6000E7F0E6FF060EE66E88ECAAF0F6
:10237000010EE66E00ECAAF01CD0AB0EE66E0B0E62
:10238000E66ECF0EE66EFF0EE66E000EE66E020EF5
:10239000E66E58ECB5F06000E3F0E6FF6000E7F0B1
:1023A000E6FF060EE66E88ECAAF0000EE66E00EC84
:1023B000AAF023EE37F0DF50D8B40BD0070EE66E4C
:1023C0006BECB7F03850D8B404D0000E6F00A0FF0B
:1023D00037FC620007F4E8FF060A37CC01F9E55242
:1023E000E552E552E5521200120EE126000EE222FD
:1023F000E40EE124D96EFF0EE220DA6E080E386E8C
:10240000F00E6F007BFFE3FFE828382EFAD7F70EB7
:10241000E3AE02D0010E01D0000E426E436AFA0E06
:1024200060000BF1E3FFFB0E60000FF1E3FFFA0E1B
:102430006F008CFF38F0FB0EE3503810D8B425D075
:10244000F00EE36CF10EE31EF20EE31EF30EE31E3C
:10245000F40EE31EF50EE31EF60EE31EF70EE31E6A
:1024600014E3F10EE32A11E3F20EE32A0EE3F30E76
:10247000E32A0BE3F40EE32A08E3F50EE32A05E36F
:10248000F60EE32A02E3F70EE32A13AE149213BE0C
:1024900005D0135010E11204D8B00DD0010E426ED9
:1024A000000E436EFE0E60000BF1E3FFFF0E6000B6
:1024B0000FF1E3FF08D0FE0E60004BF0E3FFFF0ECC
:1024C00060004FF0E3FFFC0E600043F0E3FFFD0E01
:1024D000600047F0E3FFFA0E6F008CFF38F0FB0E50
:1024E000E3503810D8A402D014A40AD0E150FC0F55
:1024F000D96EE250DA6EFF0EDA22DE06000EDD5AE9
:102500001F0E426E000E436EF80E60000BF1E3FFEB
:10251000F90E60000FF1E3FF0101EF6B09D1E1500B
:10252000F80FD96EE250DA6EFF0EDA22DE06000EE8
:10253000DD5A0A0EE66E000EE66E000EE66E000E26
:10254000E66E000EE66E000EE66E000EE66E000E03
:10255000E66EE150E80FD96EE250DA6EFF0EDA2235
:102560006F007BFFE6FF6F007BFFE6FF6F007BFFE6
:10257000E6FF6F007BFFE6FF6F007BFFE6FF6F006B
:102580007BFFE6FF6F007BFFE6FF6F007BFFE6FF50
:102590008AECA1F0E5526F009CFF4FF0E5526F000E
:1025A0009CFF4EF0E5526F009CFF4DF0E5526F002E
:1025B0009CFF4CF0E5526F009CFF4BF0E5526F0022
:1025C0009CFF4AF0E5526F009CFF49F0E5526F0016
:1025D0009CFF48F0F80EE126FF0EE222600020F199
:1025E00042F0600024F143F060000BF1E6FF600070
:1025F0000FF1E6FF5AECB3F0300E3826F80E6F00FC
:102600008CFF42F0F90E6F008CFF43F0D00E422495
:10261000D96E010E4320DA6E6000E3F0DFFFE15077
:10262000FE0FD96EE250DA6EFF0EDA22DE06000EE1
:10263000DD5AE150FC0FD96EE250DA6EFF0EDA225D
:10264000DE06000EDD5A0A0EE66E000EE66E000E85
:10265000E66E000EE66E000EE66E000EE66E000EF2
:10266000E66E000EE66EE150E80FD96EE250DA6ECB
:10267000FF0EDA226F007BFFE6FF6F007BFFE6FFB5
:102680006F007BFFE6FF6F007BFFE6FF6F007BFFC5
:10269000E6FF6F007BFFE6FF6F007BFFE6FF6F004A
:1026A0007BFFE6FF25EC9FF0E5526F009CFF4FF0AB
:1026B000E5526F009CFF4EF0E5526F009CFF4DF01D
:1026C000E5526F009CFF4CF0E5526F009CFF4BF011
:1026D000E5526F009CFF4AF0E5526F009CFF49F005
:1026E000E5526F009CFF48F0F80EE126FF0EE22253
:1026F000F00E600023F1E3FFF10E600027F1E3FF2D
:10270000F20E60002BF1E3FFF30E60002FF1E3FF08
:10271000F40E600033F1E3FFF50E600037F1E3FFE4
:10272000F60E60003BF1E3FFF70E60003FF1E3FFC0
:10273000F90EE3BE36D0F90EE35004E1F80EE304DF
:10274000D8A02FD0F00EE35015E1F10EE35012E1C6
:10275000F20EE3500FE1F30EE3500CE1F40EE35000
:1027600009E1F50EE35006E1F60EE35003E1F70E42
:10277000E350D8A4D4D6FF0EE3BE07D0FF0EE3503B
:1027800003E1FE0EE304D8B0CAD6FD0EE3BE09D0C5
:10279000FD0EE35004E1FC0EE304D8A002D014B215
:1027A000BED6FA0E6F008CFF38F0FB0EE3503810E7
:1027B000D8A402D014A433D0E150F80FD96EE2505F
:1027C000DA6EFF0EDA22DE06000EDD5AFA0E6F0018
:1027D0008CFF38F0FB0EE3503810D8A402D02B0E3B
:1027E00001D02D0E426E000E436EEE0E60000BF116
:1027F000E3FFEF0E60000FF1E3FFF80E6F008CFFB8
:1028000042F0F90E6F008CFF43F0D00E4224D96ED7
:10281000010E4320DA6EEE0E6F008FFFDFFFFC0E1D
:102820006F008FFFE6FF6F008FFFE6FFD00E426E56
:10283000010E436EF60EE3504226F70EE35043229C
:1028400060000BF1E6FF60000FF1E6FFE80E6F009D
:102850008FFFE6FF6F008FFFE6FF76ECA9F0E40E36
:10286000E126FF0EE2221200E652F2D11FECB9F08F
:102870003850D8B412D260ECB4F0FF0E6000E3F030
:10288000E3FFFF0E6F008CFF38F0050E3818D8A458
:1028900004D2BE820A0E6F00A0FFF9FBFD0E6F008E
:1028A0008FFFD9FFFE0E6F008FFFDAFF010EDF6E84
:1028B000060EE66E6BECB7F03850D8B4EED1880E49
:1028C000E66E130EE66E060EE66E9CECB4F0E5D1F5
:1028D000226A010E5B6E440E166E0C0E176E040E0D
:1028E000E66EE3ECB3F0B80EE66E0B0EE66E020E8B
:1028F000E66E9CECB4F0FD0E6F008FFFD9FFFE0E6C
:102900006F008FFFDAFF020E2DD0020EE66E6BEC29
:10291000B7F03850D8B428D023EE05F0DE2A000EE8
:10292000DD225C065C28D8A414D00C0E6F00A0FF3A
:10293000F9FB23EE10F0DF50F00B0109DF6EFD0E06
:102940006F008FFFD9FFFE0E6F008FFFDAFF050EBD
:1029500009D0FD0E6F008FFFD9FFFE0E6F008FFFB5
:10296000DAFF000EDF6E99D11FECB9F03850D8B401
:1029700094D160ECB4F0FF0E6000E3F0E3FF22506E
:10298000D8A41CD0FF0E6F008CFF84F0010EE66E01
:10299000000EE66EF0ECB5F0222A2250165C426E74
:1029A000000E1758436E010E4224D96E010E4320CB
:1029B000DA6EFF0E6F008FFFDFFF6FD10B0E22600C
:1029C0000CD022501908D96E000ED8A0E82A0108B0
:1029D000DA6EFF0E6F008FFFDFFF110E5B601CD001
:1029E0002250426E436A5B50406E416A0A0E402696
:1029F000000E4122425040180FE143504118D8A424
:102A00000BD0110E5B24D96EDA6A0C0EDA22FF0E9F
:102A10006F008FFFDFFF5B2A22500001845DD8A08A
:102A20000DD0000EE66EFE0EE350E66EF0ECB5F053
:102A30006000E0F0FFFB6000E4F000FC2250426E1A
:102A4000436A00018451406E416A010E4026000E27
:102A500041224250401809E143504118D8A405D002
:102A6000FF0EE35001010E6F0D6B2250426E436A60
:102A700000018451406E416A020E4026000E412240
:102A8000425040180AE143504118D8A406D0FF0E26
:102A9000E35001010D27000E0E23222A2250165C5E
:102AA000426E000E1758436E010E4224D96E010E7D
:102AB0004320DA6EFF0E6F008FFFDFFF2250426E61
:102AC000436A00018451406E416A020E4026000EA6
:102AD00041224250405C4150800A386E4350800A87
:102AE0003858D8B0DAD022EEFFF301010D51DE18CC
:102AF00012E10E51DE18D8A40ED0FD0E6F008FFF2C
:102B0000D9FFFE0E6F008FFFDAFF030EDF6EBE826D
:102B1000C4D060ECB4F01FECB9F03850D8A4F9D7A9
:102B2000DC0EE66E050EE66ED8ECB4F00F0E6F000C
:102B3000A0FFF9FB23EE03F0DE2A000EDD2223EED8
:102B400010F0DF50F00B0209F9D6060EE66EE3EC4A
:102B5000B3F0010116517F0B436E60000CF1F7FBDF
:102B600022EEF8F3600057F4DFFF20EE0FF16F0064
:102B700078FFEFFB6F0078FFF0FB6F0078FFF1FB51
:102B80006F0074FFF2FB23EE0FF018BF02D0DF904E
:102B900001D0DF8023EE0FF0010116BF02D0DF92DB
:102BA00001D0DF8223EE0FF0010114BF02D0DF94C9
:102BB00001D0DF84F40EE66E010EE66E22EEF8F32D
:102BC000DF50E66E22EEF7F3DF50E66E12ECA7F070
:102BD00022EEF8F3DF50E66E22EEF7F3DF50E66EFA
:102BE00060ECA6F06000E0F0C6FA23EE10F0F00E04
:102BF000DF16FD0E6F008FFFD9FFFE0E6F008FFFF7
:102C0000DAFF040EDF6E0A0E6F00A0FFFAFB45D05C
:102C1000150EE66EE3ECB3F0FD0E6F008FFFD9FFEB
:102C2000FE0E6F008FFFDAFF060EDF6E02D060EC43
:102C3000B4F02B50D8A4FBD7030E5C6E2ED023EE3D
:102C400010F0F00EDF160A0E6F00A0FFFAFB81D61F
:102C5000FD0E6F008FFFD9FFFE0E6F008FFFDAFFB2
:102C6000DF50426E436A4350000AD8A472D64250E5
:102C7000000AD8B4FBD5010AD8B42AD6030AD8B4BE
:102C800044D6010AD8B461D7070AD8B4D8D7010A04
:102C9000D8B4BED7030AD8A45CD6FD0E6F008FFF50
:102CA000D9FFFE0E6F008FFFDAFFDF50386EE5525E
:102CB000E552E5521200140EE126000EE22213AE98
:102CC000149213BE05D0135010E11204D8B00DD0E9
:102CD000010E426E000E436EFE0E60000BF1E3FF2C
:102CE000FF0E60000FF1E3FF08D0FE0E60004BF016
:102CF000E3FFFF0E60004FF0E3FFFC0E600043F0C7
:102D0000E3FFFD0E600047F0E3FF14A80BD0E15095
:102D1000FC0FD96EE250DA6EFF0EDA22FE0EDE26CE
:102D2000FF0EDD22E20EE124D96EFF0EE220DA6E04
:102D3000080E386EF00E6F007BFFE3FFE828382E98
:102D4000FAD71F0E426E000E436EFA0E60000BF1B2
:102D5000E3FFFB0E60000FF1E3FF0101EF6BEED02C
:102D6000E150FA0FD96EE250DA6EFF0EDA22DE067B
:102D7000000EDD5AF00E6F008CFF42F0F10E6F0076
:102D80008CFF43F00F0E4216000E4316F80E600043
:102D90000BF1E3FFF90E60000FF1E3FFF90EE3BE64
:102DA0000FD0F90EE35008E1F80E6F008CFF38F0F9
:102DB0000A0E385ED8A004D0F80EE350570F03D0A7
:102DC000F80EE350300F426EF90E6F008CFF43F0A7
:102DD000000E4322F80E60000BF1E3FFF90E6000D5
:102DE0000FF1E3FFBF0E426EFF0E436EE10EE350A4
:102DF000406E416A4250402643504122415006E114
:102E00001A0E405CD8B002D0010E01D0000E426E06
:102E1000436AEE0E60000BF1E3FFEF0E60000FF16E
:102E2000E3FFEE0E6F008CFF38F0EF0EE35038102A
:102E3000D8B441D09F0E426EFF0E436EF80E6F0065
:102E40008CFF40F0F90E6F008CFF41F0200E401215
:102E5000000E41124250402643504122415006E1AB
:102E60001A0E405CD8B002D0010E01D0000E426EA6
:102E7000436AEC0E60000BF1E3FFED0E60000FF112
:102E8000E3FFEC0E6F008CFF38F0ED0EE3503810CE
:102E9000D8B411D0F80E6F008FFFE6FF6F008FFFE0
:102EA000E6FFD3ECAFF0F80E6000E3F0E3FFF90EBD
:102EB0006000E7F0E3FFFA0E6F008CFF42F0FB0EBC
:102EC0006F008CFF43F0D00E4224D96E010E4320D8
:102ED000DA6EF80E6F008FFFDFFFE150FE0FD96E44
:102EE000E250DA6EFF0EDA22DE06000EDD5AE15005
:102EF000FC0FD96EE250DA6EFF0EDA22DE06000E0B
:102F0000DD5A040E436EE150F00FD96EE250DA6ED6
:102F1000FF0EDA224328DE520FD0DE52DE52DE529E
:102F2000DE52DE52DE52D890DD32DD32DD32DD326D
:102F3000DD32DD32DD32DE32E82EEFD7FB0EE3BECE
:102F40003AD0FB0EE35008E1FA0E6F008CFF38F028
:102F5000020E385ED8A02FD0F00EE35015E1F10E2E
:102F6000E35012E1F20EE3500FE1F30EE3500CE1F7
:102F7000F40EE35009E1F50EE35006E1F60EE350DE
:102F800003E1F70EE350D8A4EBD6FF0EE3BE07D063
:102F9000FF0EE35003E1FE0EE304D8B0E1D6FD0ED0
:102FA000E3BE09D0FD0EE35004E1FC0EE304D8A01B
:102FB00002D014B2D5D614A836D0E150FA0FD96E8B
:102FC000E250DA6EFF0EDA22DE06000EDD5AFA0E4D
:102FD0006F008CFF42F0FB0E6F008CFF43F0D00EB1
:102FE0004224D96E010E4320DA6EE10E6F008FFF8E
:102FF000DFFFE150FA0FD96EE250DA6EFF0EDA22EF
:10300000DE06000EDD5AFA0E6F008CFF42F0FB0E5A
:103010006F008CFF43F0D00E4224D96E010E432086
:10302000DA6E300EDF6EFC0E6F008FFFE6FF6F0072
:103030008FFFE6FFD00E426E010E436EF80EE35096
:103040004226F90EE350432260000BF1E6FF6000D8
:103050000FF1E6FFE60E6F008FFFE6FF6F008FFFB8
:10306000E6FF76ECA9F0E10EE126FF0EE222120067
:10307000E6525ED10A0E6F00A0FFF9FB030E216E2F
:10308000050EE66EE3ECB3F0B80EE66E0B0EE66EE0
:10309000020EE66E9CECB4F0FD0E6F008FFFD9FFC0
:1030A000FE0E6F008FFFDAFF010E40D1020EE66EBA
:1030B0006BECB7F03850D8B426D023EE05F0DE2AFA
:1030C000000EDD2221062128D8A414D00C0E6F009A
:1030D000A0FFF9FB23EE0FF0DF50870B0809DF6E2E
:1030E000FD0E6F008FFFD9FFFE0E6F008FFFDAFF1E
:1030F000050E1CD1B80EE66E0B0EE66E020EE66EE5
:103100009CECB4F03AD11FECB9F03850D8B435D1BA
:1031100060ECB4F0FF0E6000E3F0E3FFFF0E6F0021
:103120008CFF38F0040E3818D8A412D0880EE66E42
:10313000130EE66E030EE66E9CECB4F0FD0E6F000F
:103140008FFFD9FFFE0E6F008FFFDAFF020EDF6EDA
:10315000FF0E6F008CFF38F0050E3818D8A40DD183
:10316000040EE66EDCECB5F0FD0E6F008FFFD9FFAC
:10317000FE0E6F008FFFDAFF040ED8D02050D8A4C7
:1031800013D022EEF8F3DF50E66E22EEF7F3DF50B5
:10319000E66EDBEC8CF020EE91F0060EE5526F004F
:1031A0009FFFDBFFE806FAE26200EBFFE8FF110A8F
:1031B000D8A41FD0010EE66E000EE66E00019351FA
:1031C000E66E600047F2E6FF60004BF2E6FFA0EC1F
:1031D0009CF023EE0FF0DF50870B1009DF6EFD0E21
:1031E0006F008FFFD9FFFE0E6F008FFFDAFF060E14
:1031F0009DD02050D8A416D0010EE66E000EE66ECB
:1032000000019351E66E600047F2E6FF60004BF26A
:10321000E6FFA0EC9CF023EE10F0DFA816D0010E24
:10322000206E13D0206A23EE10F0DF98010EE66EB8
:10323000000EE66E00019651E66E600053F2E6FF66
:10324000600057F2E6FFA0EC9CF06200E7FFE8FFA9
:103250000A0AD8A40AD0FD0E6F008FFFD9FFFE0E18
:103260006F008FFFDAFF030E61D023EE0FF0DF5007
:10327000870B1809B3D7030EE66E6BECB7F0385026
:10328000D8B40FD023EE05F0DE2A000EDD220D0E9D
:103290006F00A0FFF9FB23EE0FF0DF50870B200932
:1032A0001ED71FECB9F03850D8B467D060ECB4F03A
:1032B000FF0E6000E3F0E3FFFF0E6F008CFF38F0BD
:1032C000060E3818D8A459D023EE0FF0870EDF165B
:1032D000FD0E6F008FFFD9FFFE0E6F008FFFDAFF2C
:1032E000040EDF6E0A0E6F00A0FFFAFB46D0FD0E43
:1032F0006F008FFFD9FFFE0E6F008FFFDAFF060E03
:10330000DF6E02D060ECB4F02B50D8B436D0FAD7D0
:1033100023EE0FF0870EDF16E5D7FD0E6F008FFF4F
:10332000D9FFFE0E6F008FFFDAFF000EDF6E25D093
:10333000FD0E6F008FFFD9FFFE0E6F008FFFDAFFCB
:10334000DF50426E436A4350000AD8A4E6D7425089
:10335000000AD8B48FD6010AD8B4A8D6030AD8B4C4
:103360000DD7010AD8B487D7070AD8B4D1D7010A34
:10337000D8B4BDD7030AD8A4D0D7FD0E6F008FFFF5
:10338000D9FFFE0E6F008FFFDAFFDF50386EE55277
:10339000E552E5521200E652E652E652E652FA0EC5
:1033A0006F008CFF42F0FB0E6F008CFF43F0FD0EB0
:1033B00060000FF1E3FFFC0E60000BF1E3FFF60E7F
:1033C0006F008CFF38F0F70EE3503810D8B454D1AA
:1033D000FC0E6F008FFFD9FFFD0E6F008FFFDAFF2D
:1033E000F80E6F008FFFDFFFFC0E6F008CFF42F0C6
:1033F000FD0E6F008CFF43F0F60EE3504226F70EF1
:10340000E3504322FF0E4224D96EFF0E4320DA6EB2
:10341000F80E6F008FFFDFFFF70EE35008E1F60EA6
:103420006F008CFF38F0030E385ED8A025D1FC0E5B
:103430006F008CFF42F0FD0E6F008CFF43F0010E19
:103440004224D96E000E4320DA6EF80E6F008FFF13
:10345000DFFFFC0E6F008CFF42F0FD0E6F008CFF53
:1034600043F0020E4224D96E000E4320DA6EF80EAD
:103470006F008FFFDFFFFC0E6F008CFF42F0FD0E30
:103480006F008CFF43F0F60EE3504226F70EE35038
:103490004322FE0E4224D96EFF0E4320DA6EF80E50
:1034A0006F008FFFDFFFFC0E6F008CFF42F0FD0E00
:1034B0006F008CFF43F0F60EE3504226F70EE35008
:1034C0004322FD0E4224D96EFF0E4320DA6EF80E21
:1034D0006F008FFFDFFFF70EE35008E1F60E6F007D
:1034E0008CFF38F0070E385ED8A0C6D0FC0E6F00F7
:1034F0008CFF42F0FD0E6F008CFF43F0030E422460
:10350000D96E000E4320DA6EF80E6F008FFFDFFFDA
:10351000FC0E6F008CFF42F0FD0E6F008CFF43F03D
:10352000F60EE3504226F70EE3504322FC0E4224EF
:10353000D96EFF0E4320DA6EF80E6F008FFFDFFFAB
:10354000F70EE35008E1F60E6F008CFF38F0090E1D
:10355000385ED8A091D0FC0E6F008CFF42F0421E66
:10356000FD0E6F008CFF43F0431E422AD8B4432A5D
:10357000030E4216000E4316FE0E60000BF1E3FF31
:10358000FF0E60000FF1E3FFFC0EE350386EFE0EFD
:10359000E3503826FC0E6000E3F0E3FFFD0EE3503D
:1035A000386EFF0EE3503822FD0E6000E3F0E3FFBB
:1035B000F60EE350386EFE0EE350385EF60E6000F5
:1035C000E3F0E3FFF70EE350386EFF0EE350385A96
:1035D000F70E6000E3F0E3FFFC0E426EFF0E436E59
:1035E000F60E6F008CFF38F042503816F60E600071
:1035F000E3F0E3FFF70E6F008CFF38F0435038160E
:10360000F70E2ED0FC0E6F008FFFD9FFFD0E6F005E
:103610008FFFDAFFF80E6F008FFFDFFFF60E6F00EF
:103620008CFF38F0010E385EF60E6000E3F0E3FF29
:10363000F70E6F008CFF38F0000E385AF70E60005E
:10364000E3F0E3FFFC0EE350010F386EFC0E600068
:10365000E3F0E3FF386AFD0EE3503820386EFD0ECC
:103660006000E3F0E3FFF60E6F008CFF38F0F70E1A
:10367000E3503810D8A4C6D7F60EE126FF0EE2229A
:103680001200110EE126000EE22220EEB5F0070E28
:10369000386EEF0E6F007BFFE3FFE828382EFAD775
:1036A000EB0E6F008CFF42F0EC0E6F008CFF43F0CE
:1036B000FB0E60000FF1E3FFFA0E60000BF1E3FF79
:1036C000FA0E6F008CFF38F0FB0EE3503810D8A4D0
:1036D0000ED0EF0EE124426EFF0EE220436EFB0E91
:1036E00060000FF1E3FFFA0E60000BF1E3FFFA0E4A
:1036F0006F008FFFE6FF6F008FFFE6FFA9ECAEF0D3
:10370000F60E6000E3F0E3FFF70E6000E7F0E3FF82
:10371000F80E60004BF0E3FFF90E60004FF0E3FF9E
:10372000F90EE3BE23D0E150F80FD96EE250DA6E05
:10373000FF0EDA22F60EE350DE5CDE50800A386EB1
:10374000F70EE350800A3858D8B010D0F80E6F004A
:103750008CFF38F0F60E6000E3F0E3FFF90E6F0027
:103760008CFF38F0F70E6000E3F0E3FFF60E6F0019
:103770008CFF38F0F80E6000E3F0E3FFF70E6F0007
:103780008CFF38F0F90E6000E3F0E3FFFC0E600000
:1037900043F0E3FFFD0E600047F0E3FF14A01FD0ED
:1037A00031D0ED0E6F008FFFE6FF6F008FFFE6FF59
:1037B000200EE66E000EE66E53ECA8F0F60EE35017
:1037C000010F386EF60E6000E3F0E3FF386AF70E83
:1037D000E3503820386EF70E6000E3F0E3FFE1506D
:1037E000F60FD96EE250DA6EFF0EDA22FC0EE350CD
:1037F000DE5CDE50800A386EFD0EE350800A3858D9
:10380000D8A0CFD7FE0EE36AFF0EE36A45D0ED0ED7
:103810006F008FFFE6FF6F008FFFE6FFF80E6F006F
:103820008FFFF6FFF90E6F008FFFF7FF000EF86EA7
:103830001F0EF76403D00800F55007D06F00DBFFC0
:10384000E9FF6F00DFFFEAFFEF50E66E000EE66E65
:1038500053ECA8F0FA0EE350010F386EFA0E600038
:10386000E3F0E3FF386AFB0EE3503820386EFB0EBE
:103870006000E3F0E3FFFE0EE350010F386EFE0E32
:103880006000E3F0E3FF386AFF0EE3503820386E43
:10389000FF0E6000E3F0E3FFE150FE0FD96EE2504F
:1038A000DA6EFF0EDA22F80EE350DE5CDE50800A9C
:1038B000386EF90EE350800A3858D8A0A8D714B053
:1038C0001FD031D0ED0E6F008FFFE6FF6F008FFF2E
:1038D000E6FF200EE66E000EE66E53ECA8F0F60E44
:1038E000E350010F386EF60E6000E3F0E3FF386A34
:1038F000F70EE3503820386EF70E6000E3F0E3FF78
:10390000E150F60FD96EE250DA6EFF0EDA22FC0EAD
:10391000E350DE5CDE50800A386EFD0EE350800A14
:103920003858D8A0CFD7F60E6F008CFF38F0F70EBE
:103930006F008CFF39F0EB0EE126FF0EE222120041
:10394000050EE126000EE222F90E6F008CFF42F018
:10395000FA0E6F008CFF43F0FC0E60000FF1E3FFE6
:10396000FB0E60000BF1E3FF22EEEBF3DE2A000E0C
:10397000DE22DE22DE220A0E6F00A0FFF9FBF80E27
:10398000E350426E436AFB0EE3504226FC0EE350C6
:103990004322FF0E4224D96EFF0E4320DA6EDF5021
:1039A000426E436AFD0E406EFF0E416EF80EE3500C
:1039B0003E6E3F6A40503E2641503F2242503E18E4
:1039C00004E143503F18D8B40BD0120E6F00A0FF93
:1039D000F9FB23EE0FF0DF50870B0809DF6EEFD005
:1039E000FD0E426EFF0E436EF80EE350406E416ACC
:1039F0004250402643504122600003F1E6FF600040
:103A000007F1E6FFF90EE350020F426EFA0E6F0067
:103A10008CFF43F0000E432260000BF1E6FF6000D4
:103A20000FF1E6FF7DECACF0FD0E6000E3F0E3FF8C
:103A3000FE0E6000E7F0E3FFFB0E6F008FFFD9FF83
:103A4000FC0E6F008FFFDAFFFD0E6F008FFFDFFFB0
:103A5000FE0EE124D96EFF0EE220DA6EFB0E6F003F
:103A60008CFF42F0FC0E6F008CFF43F0010E4224ED
:103A7000E96E000E4320EA6E6F007FFFEFFFE1501A
:103A8000FD0FD96EE250DA6EFF0EDA226F0078FF7A
:103A900001FC6F0074FF02FC82D013ECB9F03F0E02
:103AA0003864FBD7F80E6F008CFF38F0FF0E600013
:103AB000E3F0E3FFFF0EE350D8B481D0F70EE350FC
:103AC000D8B415D0FF0EE350426E436AFB0EE350AC
:103AD0004226FC0EE3504322FF0E4224D96EFF0E15
:103AE0004320DA6EDF50E66EC8ECB5F014D0FF0E5E
:103AF000E350426E436AFB0EE3504226FC0EE35055
:103B00004322FF0E4224D96EFF0E4320DA6EDF50AF
:103B1000E66E23ECB4F0FF0EE306CCD717ECB9F059
:103B20003F0E3864FBD7F80E6F008CFF38F0FF0EA5
:103B30006000E3F0E3FFFF0EE350D8B440D0F70E8F
:103B4000E350D8B415D0FF0EE350426E436AFB0E2B
:103B5000E3504226FC0EE3504322FF0E4224D96E6E
:103B6000FF0E4320DA6EDF50E66EDCECB5F014D0C9
:103B7000FF0EE350426E436AFB0EE3504226FC0EFA
:103B8000E3504322FF0E4224D96EFF0E4320DA6E2B
:103B9000DF50E66EE3ECB3F0FF0EE306CCD7F60E93
:103BA000E350426E436A4350000AD8A4B7D742504C
:103BB000010AD8B4B3D7030AD8B46FD7AFD7F60E7B
:103BC000E126FF0EE22212000000000000000000CB
:103BD00000000000000000000000000000000000E5
:103BE00000000000000000000000000000000000D5
:103BF00000000000000000000000000000000000C5
:103C000000000000000000000000000000000000B4
:103C100000000000000000000000000000000000A4
:103C20000000000000000000000000000000000094
:103C30000000000000000000000000000000000084
:103C40000000000000000000000000000000000074
:103C50000000000000000000000000000000000064
:103C60000000000000000000000000000000000054
:103C70000000000000000000000000000000000044
:103C80000000000000000000000000000000000034
:103C90000000000000000000000000000000000024
:103CA0000000000000000000000000000000000014
:103CB0000000000000000000000000000000000004
:103CC00000000000000000000000000000000000F4
:103CD00000000000000000000000000000000000E4
:103CE00000000000000000000000000000000000D4
:103CF000000000000000000000000000000A0A149C
:103D000000000000000000000000000000000000B3
:103D100000000000000000000000000000000000A3
:103D20000000000000000000000000000000000093
:103D30000000000000000000000000000000000083
:103D4000000000010001002D19205719000000009B
:103D50000000000000000000000000000000000063
:103D60000000000000000000000000000000000053
:103D70000000000000000000000000000000000043
:103D80000000000000000000000000000000000033
:103D90000000000000000000000000000000000023
:103DA0000000000000000000000000000000000013
:103DB0000000000000000000000000000000000003
:103DC00000000000000000000000000000000000F3
:103DD00000000000000000000000000000000000E3
:103DE00000000000000000000000000000000000D3
:103DF00000000000000000000000000000000000C3
:103E000000000000000000000000000000000000B2
:103E100000000000000000000000000000000000A2
:103E20000000000000000000000000000000000092
:103E30000000000000000000000000000000010081
:093E400000000180038AEF80FEFE
:103E4A000A0EE126000EE222FE0EE36AED0EE3AE52
:103E5A0028D0E60EE36CE70EE31EE80EE31EE90E39
:103E6A00E31EEA0EE31EEB0EE31EEC0EE31EED0E5E
:103E7A00E31E14E3E70EE32A11E3E80EE32A0EE356
:103E8A00E90EE32A0BE3EA0EE32A08E3EB0EE32A40
:103E9A0005E3EC0EE32A02E3ED0EE32AFE0EE36AE3
:103EAA00E32AF50EE3AE27D0EE0EE36CEF0EE31E27
:103EBA00F00EE31EF10EE31EF20EE31EF30EE31EF6
:103ECA00F40EE31EF50EE31E14E3EF0EE32A11E3EC
:103EDA00F00EE32A0EE3F10EE32A0BE3F20EE32AD5
:103EEA0008E3F30EE32A05E3F40EE32A02E3F50EF0
:103EFA00E32AFE0EE370070E386EF60EE36AE82A2E
:103F0A003806FCE2E60EE35016E1E70EE35013E151
:103F1A00E80EE35010E1E90EE3500DE1EA0EE3503A
:103F2A000AE1EB0EE35007E1EC0EE35004E1ED0E7B
:103F3A00E350D8B488D0FF0EE36A12D0D890E60EC8
:103F4A00E336E70EE336E80EE336E90EE336EA0E29
:103F5A00E336EB0EE336EC0EE336ED0EE336FF0EF8
:103F6A00E32AED0EE3AEEAD7D890F60EE336F70E63
:103F7A00E336F80EE336F90EE336FA0EE336FB0EB5
:103F8A00E336FC0EE336FD0EE336E150EE0FD96E52
:103F9A00E250DA6EFF0EDA22E60EE350DE5CE70E3E
:103FAA00E350DE58E80EE350DE58E90EE350DE58DF
:103FBA00EA0EE350DE58EB0EE350DE58EC0EE35007
:103FCA00DE58ED0EE350DE58D8A021D0E150EE0FB6
:103FDA00D96EE250DA6EFF0EDA22E60EE350DE5EAA
:103FEA00E70EE350DE5AE80EE350DE5AE90EE350DC
:103FFA00DE5AEA0EE350DE5AEB0EE350DE5AEC0EBE
:10400A00E350DE5AED0EE350DE5AF60EE380D89006
:10401A00ED0EE332EC0EE332EB0EE332EA0EE3325C
:10402A00E90EE332E80EE332E70EE332E60EE3325C
:10403A00FF0EE350386E010E385EFF0E6000E3F0AB
:10404A00E3FFD8A491D7FE0EE350D8B425D0F60EDC
:10405A00E36CF70EE31EF80EE31EF90EE31EFA0EEA
:10406A00E31EFB0EE31EFC0EE31EFD0EE31E14E32D
:10407A00F70EE32A11E3F80EE32A0EE3F90EE32A18
:10408A000BE3FA0EE32A08E3FB0EE32A05E3FC0E30
:10409A00E32A02E3FD0EE32AF60EE124D96EFF0EAF
:1040AA00E220DA6E080E386EEE0E6F007BFFE3FF39
:1040BA00E828382EFAD7F60EE126FF0EE222120081
:1040CA00000E6F00A0FFFBFBF6D09B0EF66EFC0EF7
:1040DA00F76E000EF86E22EE02F1230E09006F0051
:1040EA00D7FFDEFFE806FAE29B0EF66EFC0EF76ECD
:1040FA00000EF86E22EE2FF1230E09006F00D7FF93
:10410A00DEFFE806FAE29B0EF66EFC0EF76E000E74
:10411A00F86E22EE5CF1230E09006F00D7FFDEFF76
:10412A00E806FAE2770EF66EFC0EF76E000EF86EEF
:10413A0022EE89F1230E09006F00D7FFDEFFE806A1
:10414A00FAE2770EF66EFC0EF76E000EF86E22EEAD
:10415A00B6F1230E09006F00D7FFDEFFE806FAE288
:10416A00770EF66EFC0EF76E000EF86E22EEE3F195
:10417A00230E09006F00D7FFDEFFE806FAE2010E00
:10418A006F00A0FF04F9020E6F00A0FF31F9030EC1
:10419A006F00A0FF5EF9010E6F00A0FF8BF9020EFF
:1041AA006F00A0FFB8F9030E6F00A0FFE5F9100E2B
:1041BA006F00A0FF2DF9270E6F00A0FF2EF9100E39
:1041CA006F00A0FF5AF9270E6F00A0FF5BF9100ECF
:1041DA006F00A0FF87F9270E6F00A0FF88F9100E65
:1041EA006F00A0FFB4F9270E6F00A0FFB5F9100EFB
:1041FA006F00A0FFE1F9270E6F00A0FFE2F9100E91
:10420A006F00A0FF0EFA270E6F00A0FF0FFA020E32
:10421A006F00A0FF26F9090E6F00A0FF27F9240EF0
:10422A006F00A0FF28F92F0E6F00A0FF53F9090EA7
:10423A006F00A0FF54F9240E6F00A0FF55F95C0E21
:10424A006F00A0FF80F9090E6F00A0FF81F9240E0C
:10425A006F00A0FF82F9890E6F00A0FFADF9090E69
:10426A006F00A0FFAEF9240E6F00A0FFAFF9B60EE3
:10427A006F00A0FFDAF9090E6F00A0FFDBF9240E28
:10428A006F00A0FFDCF9E30E6F00A0FF07FA090E2A
:10429A006F00A0FF08FA240E6F00A0FF09FA23EEB0
:1042AA0011F0DF50F80B0609DF6E12D023EE11F081
:1042BA00F80EDF1628D0FF0EE350426E436A4350D1
:1042CA00000AD8A4F3D74250010AD8B4FED6EED7D2
:1042DA0023EE11F0DF50070B2D0D000EF324D96EDB
:1042EA00090EF420DA6E6F0078FF42F06F0074FF57
:1042FA0043F060000BF1E6FF60000FF1E6FF060EE7
:10430A00E66E9CECB4F0E5521200E652E652FE0E5E
:10431A00E36AFD0EE3AE28D0F60EE36CF70EE31E59
:10432A00F80EE31EF90EE31EFA0EE31EFB0EE31E61
:10433A00FC0EE31EFD0EE31E14E3F70EE32A11E35F
:10434A00F80EE32A0EE3F90EE32A0BE3FA0EE32A48
:10435A0008E3FB0EE32A05E3FC0EE32A02E3FD0E63
:10436A00E32AFE0EE36AE32AF50EE3AE25D0EE0E4B
:10437A00E36CEF0EE31EF00EE31EF10EE31EF20EE7
:10438A00E31EF30EE31EF40EE31EF50EE31E14E322
:10439A00EF0EE32A11E3F00EE32A0EE3F10EE32A0D
:1043AA000BE3F20EE32A08E3F30EE32A05E3F40E25
:1043BA00E32A02E3F50EE32AEE0EE35016E1EF0ECE
:1043CA00E35013E1F00EE35010E1F10EE3500DE17A
:1043DA00F20EE3500AE1F30EE35007E1F40EE35064
:1043EA0004E1F50EE350D8B475D0FF0EE36A12D09B
:1043FA00D890EE0EE336EF0EE336F00EE336F10E0A
:10440A00E336F20EE336F30EE336F40EE336F50E38
:10441A00E336FF0EE32AF50EE3AEEAD7E150F60FD4
:10442A00D96EE250DA6EFF0EDA22EE0EE350DE5C4F
:10443A00EF0EE350DE58F00EE350DE58F10EE35073
:10444A00DE58F20EE350DE58F30EE350DE58F40E57
:10445A00E350DE58F50EE350DE58D8A01FD0E150E5
:10446A00F60FD96EE250DA6EFF0EDA22EE0EE35044
:10447A00DE5EEF0EE350DE5AF00EE350DE5AF10E26
:10448A00E350DE5AF20EE350DE5AF30EE350DE5AE0
:10449A00F40EE350DE5AF50EE350DE5AD890F50ECC
:1044AA00E332F40EE332F30EE332F20EE332F10EAC
:1044BA00E332F00EE332EF0EE332EE0EE332FF0E9A
:1044CA00E350386E010E385EFF0E6000E3F0E3FF42
:1044DA00D8A4A4D7FE0EE350D8B425D0F60EE36CC8
:1044EA00F70EE31EF80EE31EF90EE31EFA0EE31EA4
:1044FA00FB0EE31EFC0EE31EFD0EE31E14E3F70E95
:10450A00E32A11E3F80EE32A0EE3F90EE32A0BE39A
:10451A00FA0EE32A08E3FB0EE32A05E3FC0EE32A7C
:10452A0002E3FD0EE32AF60EE124D96EFF0EE22025
:10453A00DA6E080E386EF60E6F007BFFE3FFE8288E
:10454A00382EFAD7E552E5521200D00EE66EFE0E6C
:10455A00E66EAB0EE66E0B0EE66E040EE66E88ECA9
:10456A00AAF018CC35FC16CC32FC19CC33FC1ACC88
:10457A0034FC23EE35F0DF50D8A403D00C0E386E8D
:10458A0012006300CFF0E8FF4D0AD8B406D06300EA
:10459A00CFF0E8FF6D0AD8A403D0000E386E1200DF
:1045AA006300CFF0E8FF430AD8B406D06300CFF027
:1045BA00E8FF630AD8A41ED015ECB0F008D0310E7B
:1045CA00D06F360E29D0310ED06F300E25D022EEA4
:1045DA00C7F2DF50426E436A4350000AD8A407D09C
:1045EA004250010AD8B4EBD7030AD8B4ECD7070E65
:1045FA00386E12006300CFF0E8FF520AD8B406D032
:10460A006300CFF0E8FF720AD8A416D015ECB0F018
:10461A0005D0310ED06F370ECF6FE9D722EEC7F231
:10462A00DF50426E436A4350000AD8A4E0D7425092
:10463A00010AD8B4EED7D8D76300CFF0E8FF500A02
:10464A00D8B406D06300CFF0E8FF700AD8A41FD010
:10465A0015ECB0F009D0310ED06F380E03D0310E00
:10466A00D06F300ECF6F10D022EEC7F2DF50426EFD
:10467A00436A4350000AD8A407D04250010AD8B46A
:10468A00EAD7030AD8B4EBD7090E386E12006300D2
:10469A00CFF0E8FF4F0AD8B406D06300CFF0E8FFA6
:1046AA006F0AD8A41FD015ECB0F009D0310ED06F24
:1046BA00320E03D0310ED06F300ECF6F10D022EEF3
:1046CA00C7F2DF50426E436A4350000AD8A407D0AB
:1046DA004250010AD8B4EAD7030AD8B4EBD7080E75
:1046EA00386E12006300CFF0E8FF4C0AD8B406D047
:1046FA006300CFF0E8FF6C0AD8A40FD06B0EE66E09
:10470A00FD0EE66EAB0EE66E0B0EE66E040EE66E60
:10471A0088ECAAF0060E386E12006300CFF0E8FFAC
:10472A00530AD8B406D06300CFF0E8FF730AD8A4BE
:10473A0010D022EEC7F2DF50426E436A4350000A9D
:10474A00D8A404D04250010AD8A4030A0B0E386E2A
:10475A0012006300CFF0E8FF440AD8B406D0630021
:10476A00CFF0E8FF640AD8A418D7510EE66EFD0E02
:10477A00E66EAB0EE66E0B0EE66E040EE66E88EC87
:10478A00AAF0050E386E1200E652E652E652E652DA
:10479A00FA0E6F008CFF42F0FB0E6F008CFF43F0A5
:1047AA00FF0E60000FF1E3FFFE0E60000BF1E3FF66
:1047BA00F80E6F008CFF42F0F90E6F008CFF43F089
:1047CA00FD0E60000FF1E3FFFC0E60000BF1E3FF4A
:1047DA00F60E6F008CFF38F0010E385EF60E6000A0
:1047EA00E3F0E3FFF70E6F008CFF38F0000E385A43
:1047FA00F70E6000E3F0E3FFF60EE3283FE1F70E61
:10480A00E328D8A43BD0000E386E000E396EB5D01E
:10481A00FE0EE350010F386EFE0E6000E3F0E3FF78
:10482A00386AFF0EE3503820386EFF0E6000E3F05E
:10483A00E3FFFC0EE350010F386EFC0E6000E3F05C
:10484A00E3FF386AFD0EE3503820386EFD0E600033
:10485A00E3F0E3FFF60E6F008CFF38F0010E385ECE
:10486A00F60E6000E3F0E3FFF70E6F008CFF38F0FE
:10487A00000E385AF70E6000E3F0E3FFE150FE0F36
:10488A00D96EE250DA6EFF0EDA226F007BFFF6FF76
:10489A006F0077FFF7FF000EF86E0800F550000969
:1048AA00D8B444D0E150FC0FD96EE250DA6EFF0E54
:1048BA00DA226F007BFFF6FF6F0077FFF7FF000E2B
:1048CA00F86E0800F5500009D8B430D0F60E6F0023
:1048DA008CFF38F0F70EE3503810D8B427D0E150E7
:1048EA00FE0FD96EE250DA6EFF0EDA226F007BFFFE
:1048FA00F6FF6F0077FFF7FF000EF86E08006F00F3
:10490A00D4FF43F0E150FC0FD96EE250DA6EFF0E8D
:10491A00DA226F007BFFF6FF6F0077FFF7FF000ECA
:10492A00F86E0800F5504318D8B472D7E150FE0F5C
:10493A00D96EE250DA6EFF0EDA226F007BFFF6FFC5
:10494A006F0077FFF7FF000EF86E0800F550386E1B
:10495A00396AE150FC0FD96EE250DA6EFF0EDA22A4
:10496A006F007BFFF6FF6F0077FFF7FF000EF86E10
:10497A000800F550385E000E395AF60EE126FF0E91
:10498A00E22212007EECB4F03850D8B4AFD023EC57
:10499A00B9F0060E3818D8B4A9D023EE10F0DFBA51
:1049AA00BCECA7F0010EE66E04ECB8F023ECB9F00B
:1049BA003850E66EC7ECB8F0060EE66EE5ECB7F0D6
:1049CA00BA0EE66EFF0EE66EF80EE66EFE0EE66EA6
:1049DA00010EE66E000EE66E58ECB5F06000E3F0EC
:1049EA00E6FF6000E7F0E6FF060EE66E88ECAAF046
:1049FA0023EE11F0DF30E832E832030B400D000EEF
:104A0A00426E060E436E200E4226000E4322F350DB
:104A1A004226F450432260000BF1E6FF60000FF1DA
:104A2A00E6FFD20EE66EFF0EE66E010EE66E010E90
:104A3A00E66E58ECB5F06000E3F0E6FF6000E7F0E0
:104A4A00E6FF060EE66E88ECAAF023EE11F0DF30E0
:104A5A00E832E832030B400D000E426E060E436E3A
:104A6A00F3504226F450432260000BF1E6FF600047
:104A7A000FF1E6FFD20EE66EFF0EE66E010EE66E4F
:104A8A00020EE66E58ECB5F06000E3F0E6FF600057
:104A9A00E7F0E6FF060EE66E88ECAAF023EE11F0C8
:104AAA00DF30436E43324330030B436E432A4336AF
:104ABA0043364336DF504318E70B4318DF6EB80E10
:104ACA00E66E0B0EE66E090EE66E9CECB4F0B80EBE
:104ADA00E66E0B0EE66E070EE66E9CECB4F0DFECAB
:104AEA00B8F0010EE66E00ECAAF01200090EE66EAE
:104AFA006BECB7F03850D8B41200000EE66E04EC36
:104B0A00B8F023EE10F0DF9C27ECB9F03850E66ECF
:104B1A00E5ECB7F023EE09F06F0078FF42F06F0082
:104B2A0074FF43F060000BF1E6FF60000FF1E6FF4F
:104B3A0090ECB8F01200C80EF66E3B0EF76E010E3E
:104B4A00F86E02EEC4F220EE81F209006F00D7FF80
:104B5A00EEFFDD50D950F9E1DA50F7E11A0EF66EA0
:104B6A00560EF76E010EF86E01EE00F220EE00F11D
:104B7A0009006F00D7FFEEFFDD50D950F9E1DA5096
:104B8A00F7E1120EF66E610EF76E010EF86E00EE88
:104B9A0000F320EE70F009006F00D7FFEEFFDD5042
:104BAA00D950F9E1740EF66E690EF76E010EF86EC1
:104BBA0000EEC3F220EE3BF009006F00D7FFEEFFD4
:104BCA00DD50D950F9E1DC0EF66E590EF76E010E82
:104BDA00F86E00EE00F120EED0F009006F00D7FF6A
:104BEA00EEFFDD50D950F9E1640EF66E6B0EF76EEA
:104BFA00010EF86E00EEB5F020EE2BF009006F0002
:104C0A00D7FFEEFFDD50D950F9E16A0EF66E720E4B
:104C1A00F76E010EF86E00EE58F020EE05F009006E
:104C2A006F00D7FFEEFFDD50D950F9E101EE00F336
:104C3A0020EEC4F3EE6ADD50D950FCE1DA50FAE115
:104C4A0001EE00F120EEFFF0EE6ADD50D950FCE1F2
:104C5A00DA50FAE101EE00F020EEFFF0EE6ADD50E4
:104C6A00D950FCE1DA50FAE100EE70F3430EEE6A35
:104C7A00E806FDE100EE00F2C30EEE6AE806FDE189
:104C8A0000EED0F1200EEE6AE806FDE100EE60F0DB
:104C9A00550EEE6AE806FDE100EE01F0370EEE6A07
:104CAA00E806FDE1080ED56E000ED66E000ED76E30
:104CBA00000100EF80F093D0040E1F18D8B40FD073
:104CCA00060EE66E6BECB7F03850D8B408D0300E4A
:104CDA00E66E750EE66E060EE66E9CECB4F0040EF9
:104CEA001F6E000E78D0010E11D01E6AF8D723EE7F
:104CFA0017F0DF50426E436A4350000AD8A4F5D732
:104D0A004250490AD8B4EFD7F0D7020E1E6EE7D741
:104D1A0023EE17F0DF50426E436A4350000AD8A4CC
:104D2A00E4D74250320AD8B4F0D7070AD8B4EDD73C
:104D3A00DCD723EE16F0DF50426E436A4350000A76
:104D4A00D8A4D3D74250450AD8B4E2D7130AD8B464
:104D5A00CED7CBD7010E1F6E0F0E3DD0020EC0D795
:104D6A00030EBED71F50D8B4F5D74CD0FE0EE35071
:104D7A00426E436A4350000AD8A4F4D74250020A4A
:104D8A00D8B49AD70F0AD8B4D4D7030AD8B4E2D77A
:104D9A001E0AD8B4E3D7020AD8B4E2D7E3D7FE0E84
:104DAA006F008CFF43F060000CF1FDFB2BD0FE0E70
:104DBA006F008CFF43F060000CF1FDFB63000FF104
:104DCA00E8FF2D0AD8A4C8D71DD01F50D8A41AD0DE
:104DDA00010E1F6E2D0E6F00A0FF43FC13D0FF0EB5
:104DEA00E350426E436A4350000AD8A4EED74250B9
:104DFA00010AD8B4BBD7040AD8B4D1D70C0AD8B49C
:104E0A00D6D7E3D722EEC7F260007BF0DFFF60005F
:104E1A007CF038F0E552E5521200E652E6520C0EEA
:104E2A00386EFF0E6000E3F0E3FF440E386EFE0EAC
:104E3A006000E3F0E3FF22EEEBF3DE2A000EDE224F
:104E4A00DE22DE227DD05A50D8B48CD05A6AFE0EA9
:104E5A006F008FFFE6FF6F008FFFE6FFF80E6F000F
:104E6A008FFFE6FF6F008FFFE6FFF80EE350E66E56
:104E7A00F80EE350E66EE5ECA8F074D05950D8B4B9
:104E8A0071D0596AE4D7FC0EE350426E436A43502C
:104E9A00000AD8A467D04250010AD8B4D4D70C0A61
:104EAA00D8B4ECD75FD0FE0E6F008FFFE6FF6F001D
:104EBA008FFFE6FFF80E6F008FFFE6FF6F008FFF90
:104ECA00E6FFF80EE350E66EF80EE350E66EE5EC08
:104EDA00A8F0FC0E6F008CFF38F02A0E3818D8A400
:104EEA0022D0000E6F00A0FFFCFB000E6F00A0FF97
:104EFA00FBFB000E6F00A0FF37FC15D0FC0EE35041
:104F0A00426E436A4350000AD8A40DD04250290A7F
:104F1A00D8B4C9D7030AD8B4C6D705D05850D8B41C
:104F2A0021D0586A94D7FC0EE350426E436A43502C
:104F3A00000AD8A417D042500B0AD8B4EFD712D01F
:104F4A00FD0EE350426E436A4350000AD8A40AD0C9
:104F5A004250010AD8B497D7030AD8B4CFD7040A63
:104F6A00D8B4E1D7FA0EE126FF0EE2221200010EB2
:104F7A00E66E000EE66E58ECB5F06000E3F0E6FF70
:104F8A006000E7F0E6FF000EE66E000EE66E58ECF3
:104F9A00B5F06000E3F0E6FF6000E7F0E6FFAB0E75
:104FAA00E66EFF0EE66ECB0EE66E0A0EE66E080E93
:104FBA00E66E88ECAAF04DECB8F0CB0EE66E0A0E5F
:104FCA00E66E000EE66E000EE66EF3ECB4F0010E2D
:104FDA00E66E010EE66E58ECB5F06000E3F0E6FF0F
:104FEA006000E7F0E6FF000EE66E010EE66E58EC92
:104FFA00B5F06000E3F0E6FF6000E7F0E6FFAB0E15
:10500A00E66EFF0EE66ECB0EE66E0A0EE66E080E32
:10501A00E66E88ECAAF04DECB8F0CB0EE66E0A0EFE
:10502A00E66E000EE66E010EE66EF3ECB4F0010ECB
:10503A00E66E020EE66E58ECB5F06000E3F0E6FFAD
:10504A006000E7F0E6FF000EE66E020EE66E58EC30
:10505A00B5F06000E3F0E6FF6000E7F0E6FFAB0EB4
:10506A00E66EFF0EE66ECB0EE66E0A0EE66E080ED2
:10507A00E66E88ECAAF04DECB8F0CB0EE66E0A0E9E
:10508A00E66E000EE66E020EE66EF3ECB4F0B80EB3
:10509A00E66E0B0EE66ED8ECB4F01200FC0E6F0052
:1050AA008CFF38F0FD0EE3503810D8B409D0FC0E4E
:1050BA006F008CFF38F0FD0EE3503810D8A406D0EC
:1050CA00FE0EE350E66E68ECB8F075D0FC0E6F0089
:1050DA008CFF42F0FD0E6F008CFF43F0040E422459
:1050EA00D96E000E4320DA6EDE50DE10D8B426D018
:1050FA00FC0E6F008CFF42F0FD0E6F008CFF43F038
:10510A00040E4224D96E000E4320DA6EFC0E6F00A4
:10511A008CFF42F0FD0E6F008CFF43F0020E42241A
:10512A00E96E000E4320EA6EDE50EE5CEE50800A15
:10513A00386EDE50800A3858D8B03DD0FC0E6F0069
:10514A008CFF42F0FD0E6F008CFF43F0020E4224EA
:10515A00D96E000E4320DA6E6F0078FF42F06F00BE
:10516A0074FF43F0FC0E6F008FFFD9FFFD0E6F0036
:10517A008FFFDAFF6F0078FF40F06F0074FF41F095
:10518A0042504024D96E43504120DA6EFE0E6F0021
:10519A008FFFDFFFFC0E6F008CFF42F0FD0E6F00E9
:1051AA008CFF43F0020E4224D96E000E4320DA6EC1
:1051BA00DE2A000EDD22E552E552E552E5521200E2
:1051CA00E652E652FE0EE36AFF0EE36AF80E6F003D
:1051DA008CFF42F0F90E6F008CFF43F0FE0EE35095
:1051EA00425EFF0EE350435A000E4224D96E010E6E
:1051FA004320DA6EDF50E66E0C013651030B436E24
:10520A00426AFD0EE3504226FE0EE350432260003E
:10521A000BF1E6FF60000FF1E6FFF6ECB0F0FE0ED0
:10522A00E350010F386EFE0E6000E3F0E3FF386AC8
:10523A00FF0EE3503820386EFF0E6000E3F0E3FF04
:10524A00FF0EE304D8A0C2D723EE3DF06F0078FF2B
:10525A0042F06F0074FF43F060000BF1E6FF60005C
:10526A000FF1E6FFFA0EE350E66E000EE66EF90E57
:10527A00E350E66E000EE66E2A0EE66EFE0EE66E4F
:10528A00AB0EE66E0B0EE66E0A0EE66E88ECAAF020
:10529A00FA0E6F008FFFE6FF6F008FFFE6FF070E23
:1052AA00E66E9CECB4F0020E6F00A0FF37FC23EE12
:1052BA003DF0DE2A000EDD226300DBF0E8FF010F7D
:1052CA006F00A0FF36FC23EE36F0020EDF6404D036
:1052DA00000E6F00A0FF36FCF80EE126FF0EE22258
:1052EA001200E652E652E652E65214A010D0FA0E26
:1052FA006F008FFFE6FF6F008FFFE6FFF60E6F006D
:10530A008FFFE6FF6F008FFFE6FFFAECAEF0F70EB5
:10531A00E3BE11D0F60E6F008CFF38F0FC0E600071
:10532A00E3F0E3FFF70E6F008CFF38F0FD0E60002C
:10533A00E3F0E3FF04D0FC0EE36AFD0EE36AFE0E1F
:10534A00E36AFF0EE36A1ED0FA0E6F008FFFE6FFD4
:10535A006F008FFFE6FF200EE66E000EE66E53EC3E
:10536A00A8F0FE0EE350010F386EFE0E6000E3F067
:10537A00E3FF386AFF0EE3503820386EFF0E6000F4
:10538A00E3F0E3FFE150FE0FD96EE250DA6EFF0E52
:10539A00DA22FC0EE350DE5CDE50800A386EFD0E27
:1053AA00E350800A3858D8A0CFD714B010D0FA0EDC
:1053BA006F008FFFE6FF6F008FFFE6FFF60E6F00AC
:1053CA008FFFE6FF6F008FFFE6FFFAECAEF0F80EF4
:1053DA006F008FFFE6FF6F008FFFE6FFA9ECAEF0CC
:1053EA00FC0EE3503826FD0EE3503922F60EE12674
:1053FA00FF0EE2221200FF0E6F008CFF38F0030E40
:10540A003816FF0E6000E3F0E3FF22EE00F1DFA0A2
:10541A0004D0FF0EE350D8B474D0FF0EE350800DD1
:10542A00100EF324D96E070EF420DA6E000EDF6E2A
:10543A00FF0EE350800D300EF324D96E070EF420D0
:10544A00DA6E000EDF6EFF0EE350800D500EF3246D
:10545A00D96E070EF420DA6E000EDF6E4DECB8F04E
:10546A00FF0EE350800D000E426E070E436EF3509E
:10547A004226F450432260000BF1E6FF60000FF170
:10548A00E6FF000EE66E000EE66EF3ECB4F04DECAD
:10549A00B8F0FF0EE350800D000E426E070E436E09
:1054AA00200E4226000E4322F3504226F450432295
:1054BA0060000BF1E6FF60000FF1E6FF000EE66EFA
:1054CA00010EE66EF3ECB4F04DECB8F0FF0EE350CB
:1054DA00800D000E426E070E436E400E4226000EED
:1054EA004322F3504226F450432260000BF1E6FFB8
:1054FA0060000FF1E6FF000EE66E020EE66EF3ECB8
:10550A00B4F0E5521200080EE126000EE222FE0E69
:10551A00426EFF0E436EF50EE124406EFF0EE2204E
:10552A00416E4250402643504122FF0E600007F16F
:10553A00E3FFFE0E600003F1E3FFF50E6F008CFF40
:10554A0042F0F60E6F008CFF43F0F90E60000FF187
:10555A00E3FFF80E60000BF1E3FFFA0EE124D96EC7
:10556A00FF0EE220DA6E000EDE6E000EDD6EFC0E1D
:10557A00E124D96EFF0EE220DA6E000EDE6E000E16
:10558A00DD6EFE0EE124386EFF0EE220396E6000F9
:10559A00E3F0E6FF6000E7F0E6FFF10E6F008FFF31
:1055AA00E6FF6F008FFFE6FFF40EE124386EFF0E70
:1055BA00E220396E6000E3F0E6FF6000E7F0E6FF04
:1055CA0056ECADF0FA0EE124D96EFF0EE220DA6E47
:1055DA006F0078FF42F06F0074FF43F0F50E6F0022
:1055EA008CFF40F0F60E6F008CFF41F042504024D1
:1055FA00D96E43504120DA6E000EDF6EF80EE126B6
:10560A00FF0EE222E552E750E15E000EE25A120076
:10561A00636F6D6D616E64732031000000000000DD
:10562A000000000000000000000000000000000070
:10563A00646973706C6179732031000000000000A6
:10564A000000000000000000000000000000000050
:10565A00636F6D6D616E647320320000000000009C
:10566A000000000000000000000000000000000030
:10567A00646973706C617973203200000000000065
:10568A000000000000000000000000000000000010
