:020000040000FA
:0400000057EF00F0C6
:10000800E40EE40EE40EE40EE40EE40EE40EE40E58
:10001800BC0EE40E620CB809E40EE40EE40EE40E25
:10002800C00EC90ECF0ECC0EE40EE40EE40EE40EA4
:10003800E40EE40EE40EC90DE40EE40EE40EE40E44
:10004800E40EE40EE40EE40E2B00E40EE40EE40EDF
:10005800350CE40EE40EE40EE40EE40EE40EE40EB9
:10006800E40EE40EDD0DD30DE40EE40EAE7EE40ED8
:10007800E40EE40E2B00E40EE40EE40E2B002B003D
:100088002B002B002B002B002B002B00927AE40E68
:10009800630EE40EE40EE40E2B002B002B002B0065
:1000A800E40EE40EFF0013EECDF0A6EF06F0070E07
:1000B800E126000EE222F90EE36AFA0EE36AA10EC7
:1000C800356E000E366EFD0E6000D7F0E3FFFE0EB3
:1000D8006000DBF0E3FF420E0201A76F020E2B6EF9
:1000E800FC0E6000AFF0E3FF070E2B6EFB0E600006
:1000F800AFF0E3FF190EA66F570EA56F4BEC10F08B
:10010800B6EC1DF0F90E6F008CFF35F0FA0E6F009B
:100118008CFF36F0FB0E6F008CFF33F0FC0E6F0087
:100128008CFF34F035503324D96E36503420DA6ED3
:10013800DF50E66EF80E6F008FFFE6FF6F008FFF4F
:10014800E6FFA5EC13F0F90E6F008CFF35F0FA0E00
:100158006F008CFF36F0FB0E6F008CFF33F0FC0E47
:100168006F008CFF34F035503324D96E365034206C
:10017800DA6EDF50E66E21EC1DF043EC1DF02B50DB
:10018800D8A4FBD7FD0E6F008CFF35F0FE0E6F0074
:100198008CFF36F0F90EE350010F2B6EF90E60005C
:1001A800AFF0E3FF2B6AFA0EE3502B202B6EFA0E0A
:1001B8006000AFF0E3FFF90E6F008CFF33F0FA0E2A
:1001C8006F008CFF34F03550335C36503458D8A06B
:1001D80099D7000EE66E000EE66E000EE66ED4ECC1
:1001E800F9F0FF0E6000AFF0E3FFFF0EE350E66E9C
:1001F800A00EE66E000EE66EA5EC13F0F90EE126F1
:10020800FF0EE2221200E652E652E652E652FE0ED7
:10021800E36AF90EE3AE09D0F80EE36CF90EE31EBB
:10022800D8B0E32AFE0EE36AE32AFB0EE3AE08D059
:10023800FA0EE36CFB0EE31ED8B0E32AFE0EE37061
:10024800FC0EE36AFD0EE36AF80E6F008CFF2BF0DC
:10025800F90EE3502B10D8B466D0FF0EE36A12D023
:10026800F80EE350D890E8342B6EF80E6000AFF02B
:10027800E3FFF90EE350E8342B6EF90E6000AFF09F
:10028800E3FFFF0EE32AF90EE3AEEAD7FC0EE350D4
:10029800D890E8342B6EFC0E6000AFF0E3FFFD0E43
:1002A800E350E8342B6EFD0E6000AFF0E3FFF80E6C
:1002B8006F008CFF35F0F90E6F008CFF36F0FA0EE8
:1002C8006F008CFF33F0FB0E6F008CFF34F035505D
:1002D800335C36503458D8A016D0FA0EE3502B6E43
:1002E800F80EE3502B5EFA0E6000AFF0E3FFFB0E52
:1002F800E3502B6EF90EE3502B5AFB0E6000AFF063
:10030800E3FFFC0EE380D890F90EE332F80EE332F7
:10031800FF0EE3502B6E010E2B5EFF0E6000AFF058
:10032800E3FFD8A4B3D7FE0EE350D8B406D0FC0E32
:10033800E36CFD0EE31ED8B0E32AFC0E6F008CFFC1
:100348002BF0FD0E6F008CFF2CF0F80EE126FF0E4F
:10035800E2221200E652EF0EE35016E1F00EE350EF
:1003680013E1F10EE35010E1F20EE3500DE1F30E4C
:10037800E3500AE1F40EE35007E1F50EE35004E11F
:10038800F60EE350D8B475D0FF0EE36A12D0D890B9
:10039800EF0EE336F00EE336F10EE336F20EE336F7
:1003A800F30EE336F40EE336F50EE336F60EE336D7
:1003B800FF0EE32AF60EE3AEEAD7E150F70FD96E47
:1003C800E250DA6EFF0EDA22EF0EE350DE5CF00E3A
:1003D800E350DE58F10EE350DE58F20EE350DE58DB
:1003E800F30EE350DE58F40EE350DE58F50EE350FA
:1003F800DE58F60EE350DE58D8A01FD0E150F70FB4
:10040800D96EE250DA6EFF0EDA22EF0EE350DE5EAE
:10041800F00EE350DE5AF10EE350DE5AF20EE350CE
:10042800DE5AF30EE350DE5AF40EE350DE5AF50EB0
:10043800E350DE5AF60EE350DE5AD890F60EE33259
:10044800F50EE332F40EE332F30EE332F20EE3324A
:10045800F10EE332F00EE332EF0EE332FF0EE3501B
:100468002B6E010E2B5EFF0E6000AFF0E3FFD8A4E9
:10047800A4D7F70EE124D96EFF0EE220DA6E080E3B
:100488002B6EF70E6F007BFFE3FFE8282B2EFAD7C1
:10049800E5521200020EE66E61EC1AF02B50D8B449
:1004A8002CD0FE0E6F008CFF35F0FF0E6F008CFF16
:1004B80036F0020E3524D96E000E3620DA6E000EA4
:1004C800DF6E020EE66E61EC1AF02B50D8B403D042
:1004D800366A362A01D0366AFE0E6F008CFF33F07A
:1004E800FF0E6F008CFF34F0030E3324D96E000E1C
:1004F8003420DA6E6000DBF0DFFF030EE66E61EC9D
:100508001AF02B50D8B42CD0FE0E6F008CFF35F0AB
:10051800FF0E6F008CFF36F0040E3524D96E000EE6
:100528003620DA6E000EDF6E030EE66E61EC1AF00E
:100538002B50D8B403D0366A362A01D0366AFE0E5C
:100548006F008CFF33F0FF0E6F008CFF34F0050E48
:100558003324D96E000E3420DA6E6000DBF0DFFF42
:10056800040EE66E61EC1AF02B50D8B42CD0FE0EB7
:100578006F008CFF35F0FF0E6F008CFF36F0060E13
:100588003524D96E000E3620DA6E000EDF6E040EAA
:10059800E66E61EC1AF02B50D8B403D0366A362ACE
:1005A80001D0366AFE0E6F008CFF33F0FF0E6F002D
:1005B8008CFF34F0070E3324D96E000E3420DA6E27
:1005C8006000DBF0DFFFE552E5521200FE0E6F001F
:1005D8008FFFD9FFFF0E6F008FFFDAFFFB0E6F0052
:1005E8008FFFDFFF0A0EE66EFC0EE350E66E8AEC24
:1005F8000EF0300E2B26FE0E6F008CFF2CF0010E35
:100608002C5EFE0E6000B3F0E3FFFF0E6F008CFF60
:100618002CF0000E2C5AFF0E6000B3F0E3FFFE0E24
:100628006F008FFFD9FFFF0E6F008FFFDAFF6000AA
:10063800AFF0DFFF0A0EE66E000EE66EFB0EE3502B
:10064800E66E000EE66E07EC01F0FD0E6000AFF0FE
:10065800E3FFFD0EE350D8B421D0FE0E6F008CFFEF
:100668002BF0010E2B5EFE0E6000AFF0E3FFFF0ED5
:100678006F008CFF2BF0000E2B5AFF0E6000AFF0BE
:10068800E3FFFE0E6F008FFFD9FFFF0E6F008FFF95
:10069800DAFFFD0EE350300FDF6E20D0FE0E6F0044
:1006A8008CFF2BF0010E2B5EFE0E6000AFF0E3FF17
:1006B800FF0E6F008CFF2BF0000E2B5AFF0E600010
:1006C800AFF0E3FFFE0E6F008FFFD9FFFF0E6F0044
:1006D8008FFFDAFFFC0E6F008FFFDFFFFB0EE126B6
:1006E800FF0EE22212006F0EE66E120EE66E830E09
:1006F800E66E3A0EE66EF80E6F008FFFE6FF6F00AB
:100708008FFFE6FF6F008FFFE6FF6F008FFFE6FFAA
:10071800F9ECFBF02BB018D06F0E336E120E346E5E
:10072800830E356E3A0E366EFC0E6000CFF0E3FF96
:10073800FD0E6000D3F0E3FFFE0E6000D7F0E3FF8C
:10074800FF0E6000DBF0E3FFFC0E6F008FFFE6FF9B
:100758006F008FFFE6FF6F008FFFE6FF6F008FFFD0
:10076800E6FF000EE66E000EE66E200EE66E410E07
:10077800E66EF9ECFBF02BB018D0000E336E000ECD
:10078800346E200E356E410E366EFC0E6000CFF0D2
:10079800E3FFFD0E6000D3F0E3FFFE0E6000D7F02C
:1007A800E3FFFF0E6000DBF0E3FFF60EE66E090ED6
:1007B800E66E200EE66E3B0EE66EF80E6F008FFFBB
:1007C800E6FF6F008FFFE6FF6F008FFFE6FF6F0009
:1007D8008FFFE6FF4CECC6F06000AFF0E6FF60006C
:1007E800B3F0E6FF6000B7F0E6FF6000BBF0E6FF9D
:1007F8008DECFAF0E552E552E552E5521200E65268
:10080800E652FE0EE36AFD0EE3AE09D0FC0EE36C81
:10081800FD0EE31ED8B0E32AFE0EE36AE32AFB0EC0
:10082800E3AE06D0FA0EE36CFB0EE31ED8B0E32A63
:10083800FA0E6F008CFF2BF0FB0EE3502B10D8B490
:1008480053D0FF0EE36A12D0FA0EE350D890E83482
:100858002B6EFA0E6000AFF0E3FFFB0EE350E834B6
:100868002B6EFB0E6000AFF0E3FFFF0EE32AFB0EDA
:10087800E3AEEAD7FA0E6F008CFF35F0FB0E6F007F
:100888008CFF36F0FC0E6F008CFF33F0FD0E6F000E
:100898008CFF34F03550335C36503458D8A014D01F
:1008A800FC0EE3502B6EFA0EE3502B5EFC0E60003C
:1008B800AFF0E3FFFD0EE3502B6EFB0EE3502B5A17
:1008C800FD0E6000AFF0E3FFD890FB0EE332FA0EA6
:1008D800E332FF0EE3502B6E010E2B5EFF0E60001D
:1008E800AFF0E3FFD8A4C6D7FE0EE350D8B406D0C5
:1008F800FC0EE36CFD0EE31ED8B0E32AFC0E6F007D
:100908008CFF2BF0FD0E6F008CFF2CF0FA0EE12609
:10091800FF0EE2221200E652E652E652E6524FA0DD
:1009280010D0FA0E6F008FFFE6FF6F008FFFE6FF13
:10093800F60E6F008FFFE6FF6F008FFFE6FF24ECD7
:100948000FF0F70EE3BE11D0F60E6F008CFF2BF000
:10095800FC0E6000AFF0E3FFF70E6F008CFF2BF08A
:10096800FD0E6000AFF0E3FF04D0FC0EE36AFD0E5D
:10097800E36AFE0EE36AFF0EE36A1ED0FA0E6F000A
:100988008FFFE6FF6F008FFFE6FF200EE66E000E7A
:10099800E66E6AECFFF0FE0EE350010F2B6EFE0EC2
:1009A8006000AFF0E3FF2B6AFF0EE3502B202B6EA5
:1009B800FF0E6000AFF0E3FFE150FE0FD96EE2508A
:1009C800DA6EFF0EDA22FC0EE350DE5CDE50800A9F
:1009D8002B6EFD0EE350800A2B58D8A0CFD74FB00E
:1009E80010D0FA0E6F008FFFE6FF6F008FFFE6FF53
:1009F800F60E6F008FFFE6FF6F008FFFE6FF24EC17
:100A08000FF0F80E6F008FFFE6FF6F008FFFE6FF15
:100A180039EC0EF0FC0EE3502B26FD0EE3502C2291
:100A2800F60EE126FF0EE2221200FB0EE3B604D01A
:100A38000101B651D8A411D0FC0E6F008CFF2BF029
:100A4800FD0E6F008CFF2CF0FE0E6F008CFF2DF05A
:100A5800FF0E6F008CFF2EF06CD0FB0EE3A04AD087
:100A6800CD0EE66ECC0EE66E4C0EE66E3D0EE66ED4
:100A7800F80E6F008FFFE6FF6F008FFFE6FF6F0035
:100A88008FFFE6FF6F008FFFE6FFF9ECFBF02BB05E
:100A980031D0FC0E6F008FFFE6FF6F008FFFE6FF7F
:100AA8006F008FFFE6FF6F008FFFE6FFCD0EE66E4B
:100AB800CC0EE66E4C0EE66EBD0EE66EF9ECFBF063
:100AC8002BB018D0000E336E000E346E000E356E4B
:100AD800000E366EFC0E6000CFF0E3FFFD0E6000E6
:100AE800D3F0E3FFFE0E6000D7F0E3FFFF0E6000D7
:100AF800DBF0E3FFFB0EE3A29FD7FF0EE3AE9CD72C
:100B0800000E336E000E346E000E356E000E366E1B
:100B1800FC0E6000CFF0E3FFFD0E6000D3F0E3FFB2
:100B2800FE0E6000D7F0E3FFFF0E6000DBF0E3FF8E
:100B380083D7FB0EE126FF0EE2221200080EE12603
:100B4800000EE222FE0E356EFF0E366EF50EE12423
:100B5800336EFF0EE220346E355033263650342281
:100B6800FF0E6000D3F0E3FFFE0E6000CFF0E3FF5E
:100B7800F50E6F008CFF35F0F60E6F008CFF36F027
:100B8800F90E6000DBF0E3FFF80E6000D7F0E3FF3A
:100B9800FA0EE124D96EFF0EE220DA6E000EDE6E48
:100BA800000EDD6EFC0EE124D96EFF0EE220DA6E37
:100BB800000EDE6E000EDD6EFE0EE1242B6EFF0EC3
:100BC800E2202C6E6000AFF0E6FF6000B3F0E6FFB5
:100BD800F10E6F008FFFE6FF6F008FFFE6FFF40E48
:100BE800E1242B6EFF0EE2202C6E6000AFF0E6FFD2
:100BF8006000B3F0E6FFE7EC0CF0FA0EE124D96EE2
:100C0800FF0EE220DA6E6F0078FF35F06F0074FF98
:100C180036F0F50E6F008CFF33F0F60E6F008CFF88
:100C280034F035503324D96E36503420DA6E000E45
:100C3800DF6EF80EE126FF0EE222E552E750E15E94
:100C4800000EE25A1200E652FF0EE36A0101B351A8
:100C5800D8B41BD0010EE66EFE0EE350E66E010E10
:100C6800E66EFC0EE350E66E69ECBCF06000AFF097
:100C7800E6FF6000B3F0E6FF6000B7F0E6FF600053
:100C8800BBF0E6FF45ECF4F03DD0FF0EE350D8B4DE
:100C980004D0FF0EE304D8A41BD0010EE66EFE0EAE
:100CA800E350E66E000EE66EFC0EE350E66E69EC6D
:100CB800BCF06000AFF0E6FF6000B3F0E6FF600054
:100CC800B7F0E6FF6000BBF0E6FF45ECF4F01AD0A1
:100CD800000EE66EFE0EE350E66E000EE66EFC0EAB
:100CE800E350E66E69ECBCF06000AFF0E6FF600030
:100CF800B3F0E6FF6000B7F0E6FF6000BBF0E6FF88
:100D080045ECF4F0FF0EE350040D810EF324D96E88
:100D18000B0EF420DA6E6000AFF0DEFF6000B3F077
:100D2800DEFF6000B7F0DEFF6000BBF0DEFFFF0E05
:100D3800E32AFF0E6F008CFF2BF00F0E2B6486D773
:100D4800E5521200CA0EF66E860EF76E010EF86EA8
:100D580001EEFFF221EECEF109006F00D7FFEEFFA2
:100D6800DD50D950F9E1DA50F7E1240EF66E1B0E8A
:100D7800F76E000EF86E00EE00F220EEA8F0090003
:100D88006F00D7FFEEFFDD50D950F9E1580EF66E2F
:100D9800150EF76E000EF86E00EE00F120EECCF0A6
:100DA80009006F00D7FFEEFFDD50D950F9E19A0E28
:100DB800F66E3B0EF76E000EF86E09006F00D4FF5A
:100DC8005FF001EE00F220EEFFF0EE6ADD50D95040
:100DD800FCE1DA50FAE101EE00F1A10EEE6AE80654
:100DE800FDE101EE00F0A30EEE6AE806FDE100EE7B
:100DF80000F3E30EEE6AE806FDE100EEA8F2530EFA
:100E0800EE6AE806FDE100EECCF1340EEE6AE80683
:100E1800FDE100EE60F07D0EEE6AE806FDE100EE11
:100E28004BF0140EEE6AE806FDE1080ED56E000ED2
:100E3800D66E000ED76E000100EF80F0FE0E6F0038
:100E48008CFF35F0FF0E6F008CFF36F0020E352454
:100E5800D96E000E3620DA6EDF50366E6000D8F09C
:100E68002FF0306A316A326A6000C4F032F06000F4
:100E7800C0F031F06000BCF030F02F6AFE0E6F0059
:100E88008CFF35F0FF0E6F008CFF36F0010E352415
:100E9800D96E000E3620DA6EDF50366E6000D8F05C
:100EA8002BF02C6A2D6A2E6A6000B0F02EF06000DC
:100EB800ACF02DF02C6A2B6AFE0E6F008FFFD9FF65
:100EC800FF0E6F008FFFDAFFDF50336E346A356A2A
:100ED800366A6000CCF036F0356A346A336A2B50D3
:100EE80033122C5034122D5035122E5036122F50EA
:100EF8003312305034123150351232503612FE0E41
:100F08006F008CFF31F0FF0E6F008CFF32F0030E84
:100F18003124D96E000E3220DA6EDF5033102B6E7A
:100F280034502C6E35502D6E36502E6EE552E552EB
:100F38001200E652FE0E6F008CFF2BF0050E2B649C
:100F480002D0FE0EE36AFD0EE350D8B40CD0FE0EBC
:100F5800E350356E366ACC0E3524D96E010E362034
:100F6800DA6E000EDF6EFE0EE350140D4F0E356E76
:100F7800F90E366EF3503526F4503622FE0EE35045
:100F8800336E346ACC0E3324D96E010E3420DA6EF7
:100F9800DF503526000E36226000D7F0F6FF6000DD
:100FA800DBF0F7FF000EF86E0800FF0E6F00D7FFAA
:100FB800E3FFFE0EE350140D4F0E356EF90E366E3C
:100FC800F3503526F45036226000D7F0E6FF600073
:100FD800DBF0E6FF39EC0EF0FE0EE350356E366AB4
:100FE800CC0E3524D96E010E3620DA6EDF2ADF509A
:100FF800356E366A2B50355C2C503658D8A00CD03C
:10100800FE0EE350356E366ACC0E3524D96E010ECD
:101018003620DA6E000EDF6EFF0E6F008CFF2BF0AD
:10102800E552E552E5521200E652E652FE0EE36A38
:10103800FF0EE36A43D0D00E356EFF0E366EFE0EFD
:101048006F008CFF33F0FF0E6F008CFF34F00A0E38
:1010580033026F00CCFF31F06F00D0FF32F0340262
:10106800F3503226FC0E6F008FFFD9FFFD0E6F0084
:101078008FFFDAFF6F007BFFF6FF6F0077FFF7FF48
:10108800000EF86E0800F5503126000E3222355059
:10109800312636503222FE0E6000C7F0E3FFFF0E05
:1010A8006000CBF0E3FFFC0E6F008FFFD9FFFD0E51
:1010B8006F008FFFDAFFDE2A000EDD22D00E356EBC
:1010C800FF0E366EFC0E6F008FFFD9FFFD0E6F000E
:1010D8008FFFDAFF6F007BFFF6FF6F0077FFF7FFE8
:1010E800000EF86E0800F550336E346A355033261A
:1010F80036503422345004E10A0E335CD8A09BD712
:10110800FE0E6F008CFF2BF0FF0E6F008CFF2CF093
:10111800E552E552E552E5521200E652E652E65231
:10112800E652FA0E6F008CFF35F0FB0E6F008CFF55
:1011380036F0D89035363636D89035363636630E92
:101148003524F66EF80E3620F76EF86A000EF8228F
:1011580009006F00D4FF33F009006F00D4FF34F0AA
:1011680009006F00D4FF35F009006F00D4FF36F096
:10117800FC0E6000CFF0E3FFFD0E6000D3F0E3FF4C
:10118800FE0E6000D7F0E3FFFF0E6000DBF0E3FF28
:10119800F80E6F008CFF2BF0F90EE3502B10D8B42B
:1011A8001DD0FB0EE3BE1AD0FB0EE35008E1FA0E89
:1011B8006F008CFF2BF0020E2B5ED8A00FD0E150F1
:1011C800FC0FD96EE250DA6EFF0EDA22800EDE26B0
:1011D800510EDE22010EDE22000EDE22FC0E6F0012
:1011E8008CFF2BF0FD0E6F008CFF2CF0FE0E6F00B5
:1011F8008CFF2DF0FF0E6F008CFF2EF0F80EE1260D
:10120800FF0EE2221200E652E652E652E652FC0EC9
:10121800E36AFD0EE36AFE0EE36AFF0EE36AF80E68
:10122800E3A028D0FC0EE3502B6EF40EE3502B26DF
:10123800FC0E6000AFF0E3FFFD0EE3502B6EF50EE1
:10124800E3502B22FD0E6000AFF0E3FFFE0EE350EB
:101258002B6EF60EE3502B22FE0E6000AFF0E3FF7C
:10126800FF0EE3502B6EF70EE3502B22FF0E6000AB
:10127800AFF0E3FFD890F40EE336F50EE336F60E42
:10128800E336F70EE336D890FB0EE332FA0EE3327C
:10129800F90EE332F80EE332F80EE350C0E1F90E2E
:1012A800E350BDE1FA0EE350BAE1FB0EE350D8A4D7
:1012B800B6D7FC0E6F008CFF2BF0FD0E6F008CFF75
:1012C8002CF0FE0E6F008CFF2DF0FF0E6F008CFFD0
:1012D8002EF0F40EE126FF0EE2221200E652E6524C
:1012E800E652E652F80E6F008CFF35F0F90E6F00EB
:1012F8008CFF36F0FF0E6000DBF0E3FFFE0E6000AF
:10130800D7F0E3FFFA0E6F008CFF35F0FB0E6F008D
:101318008CFF36F0FD0E6000DBF0E3FFFC0E600092
:10132800D7F0E3FFE150FE0FD96EE250DA6EFF0E00
:10133800DA226F007CFF35F0010EDE266F007CFF9D
:1013480036F0000EDD226000D7F0F6FF6000DBF01B
:10135800F7FF000EF86EE150FC0FD96EE250DA6E1E
:10136800FF0EDA226F007CFF35F0010EDE266F00DB
:101378007CFF36F0000EDD226000D7F0D9FF600058
:10138800DBF0DAFF1F0EF76403D00800F55007D032
:101398006F00DBFFE9FF6F00DFFFEAFFEF50DF6E52
:1013A800DF50D8A4BFD7F80EE126FF0EE2221200C4
:1013B800400E0001666F040E676F60009BF1E6FF48
:1013C80060009FF1E6FFA2EC1AF0BE843D01149F75
:1013D800200E156F030E166F040E196F020E1C6F88
:1013E800830E146F148F300EE66E570EE66E050EE0
:1013F800E66E000EE66E93EC15F0460EE66EC9EC4E
:1014080017F0410EE66EE9EC17F0500EE66E000E8E
:10141800E66E000EE66E000EE66E93EC15F0530EC7
:10142800E66EE9EC17F0020EE66ECEEC1BF0500EFD
:10143800E66E000EE66E000EE66E000EE66E93ECAB
:1014480015F0510EE66EC9EC17F03D01149F020E1F
:10145800166F148F1A933F0E3B01FD17FD9BFD512C
:10146800F90B0209FD6FE70EFD17FD81400EF96FBC
:10147800040EFA6F000EFB6FFC9B3D011A83BE94AD
:101488001200E652E652E652E652010E356E000EA2
:10149800366EFC0E6000D7F0E3FFFD0E6000DBF057
:1014A800E3FF60006CF336F0FF0E3626E150FC0FC8
:1014B800D96EE250DA6EFF0EDA22362803D0D890C1
:1014C800DE36DD36E82EFBD7FE0EE36AFF0EE36A52
:1014D80029D0FA0EE3A01CD0FC0E6F008CFF35F06B
:1014E800FD0E6F008CFF36F0FE0E6F008CFF2BF0A8
:1014F80035502B12FE0E6000AFF0E3FFFF0E6F00B9
:101508008CFF2BF036502B12FF0E6000AFF0E3FF7C
:10151800D890FD0EE332FC0EE332D890FB0EE33296
:10152800FA0EE332FA0E6F008CFF2BF0FB0EE3503D
:101538002B10D8A4CED7FE0E6F008CFF2BF0FF0E19
:101548006F008CFF2CF0FA0EE126FF0EE22212004B
:101558000000000000000000000000000000000083
:101568000000000000000000000000000000000073
:101578000000000000000000000000000000000063
:101588000000000000000000000000000000000053
:101598000000000000000000000000000000000043
:1015A8000000000000000000000000000000000033
:1015B8000000000000000000000000000000000023
:1015C8000000000000000000000000000000000013
:1015D8000094477D5E00000000000000000000004D
:1015E80000000000000000000000000000000000F3
:1015F80000000000000000000000000000000000E3
:101608002D000000000001000000000000000000A4
:10161800000000000001000100010000E652FF0E7A
:10162800E36AFE0EE350D8B40CD00101B951D8B426
:1016380052D05F50D8B44FD05F6AFF0EE36AE32AF6
:101648004AD00101B951D8A446D05F50D8A443D09C
:10165800B96B010E5F6E000EE66E000EE66E37EC9B
:1016680015F0E5526F009CFF42F0E5526F009CFFB9
:1016780041F0E5526F009CFF40F0E5526F009CFF7F
:101688003FF0E5526F009CFF3EF0E5526F009CFF73
:101698003DF0E5526F009CFF3CF0E5526F009CFF67
:1016A8003BF06000ECF033F06000F0F034F06000E4
:1016B800F4F035F06000F8F036F0580E33240101EC
:1016C800856F020E3420866F000E3520876F000E5E
:1016D8003620886FB2D7FF0E6F008CFF2BF0E552D3
:1016E800E5521200E150FC0FD96EE250DA6EFF0E9F
:1016F800DA22000EDE14336E000EDE14346E800E15
:10170800DE14356E7F0EDE14366E3350341035100D
:101718003610D8A408D0FC0EE36AFD0EE36AFE0E6C
:10172800E36AFF0EE36AE150F80FD96EE250DA6E11
:10173800FF0EDA22000EDE14336E000EDE14346E55
:10174800800EDE14356E7F0EDE14366E3350341084
:1017580035103610D8A408D0F80EE36AF90EE36AFB
:10176800FA0EE36AFB0EE36AE150FC0FD96EE25011
:10177800DA6EFF0EDA22F80EE350DE180DE1F90EEC
:10178800E350DE1809E1FA0EE350DE1805E1FB0E1E
:10179800E350DE18D8B402D02B9001D02B80F80E7D
:1017A800E126FF0EE2221200E652E652E652FD0E54
:1017B800E36AFE0EE36AFF0EE36AFF0EE350080DCC
:1017C800930EF324F66EF70EF420F76EF86A000E07
:1017D800F822F90EE3500900F55CFA0EE35009000F
:1017E800F558FB0EE3500900F558FC0EE3500900CC
:1017F800F558D8B020D0FF0EE350080D040EF3269C
:10180800000EF422930EF324F66EF70EF420F76E12
:10181800F86A000EF82209006F00D4FF35F00900BD
:101828006F00D4FF36F0FD0E6000D7F0E3FFFE0E28
:101838006000DBF0E3FFFF0EE32AFF0E6F008CFF72
:101848002BF0190E2B64B9D7FD0E6F008CFF2BF00F
:10185800FE0E6F008CFF2CF0F90EE126FF0EE2223F
:1018680012003D0117ABFDD7BC84BC80010EE66EAB
:101878001DEC12F027C22BF220EE27F26F0078FF42
:1018880035F06F0074FF36F06000D8F035F0366A36
:101898000F0E351602012C513518F00B35182C6F28
:1018A8002C510F0B40092C6FBF902C51E66E7CEC2D
:1018B8001CF002012B51E66E7CEC1CF0BF8029C2A3
:1018C8002BF220EE29F26F0078FF35F06F0074FFDD
:1018D80036F06000D8F035F0366A0F0E3516020182
:1018E8002C513518F00B35182C6F2C510F0B500953
:1018F8002C6FBF902C51E66E7CEC1CF002012B5132
:10190800E66E7CEC1CF03D0117ABFDD7BF80000EE6
:10191800E66E1DEC12F01200E652E652E652E6526E
:101928006000E0F133F06000E4F134F06000E8F1C9
:1019380035F06000ECF136F0FC0E6000CFF0E3FF0C
:10194800FD0E6000D3F0E3FFFE0E6000D7F0E3FF6A
:10195800FF0E6000DBF0E3FFF80E6F008CFF33F042
:10196800F90E6F008CFF34F0FA0E6F008CFF35F023
:10197800FB0E6F008CFF36F0FC0E6000CFF0E3FF2B
:10198800FD0E6000D3F0E3FFFE0E6000D7F0E3FF2A
:10199800FF0E6000DBF0E3FFFF0EE39EFC0E6F001E
:1019A8008CFF2BF0FD0E6F008CFF2CF0FE0E6F00ED
:1019B8008CFF2DF0FF0E6F008CFF2EF0F80EE12645
:1019C800FF0EE2221200E652E652FA0E6F008CFF7A
:1019D80035F0FB0E6F008CFF36F0FF0E6000DBF079
:1019E800E3FFFE0E6000D7F0E3FF0001B66BB76BB4
:1019F80021D0F80E6F008FFFE6FF6F008FFFE6FF24
:101A0800FC0EE1242B6EFF0EE2202C6E6000AFF07E
:101A1800E6FF6000B3F0E6FFF80E6F008FFFE6FF09
:101A28006F008FFFE6FF0EEC9EF02B500001B627EB
:101A38002C50B723E150FE0FD96EE250DA6EFF0E3C
:101A4800DA226F007BFFF6FF6F0077FFF7FF000ECB
:101A5800F86E0800F5500009D8A4CBD76000D8F27A
:101A68002BF06000DCF22CF0F80EE126FF0EE222EB
:101A78001200FE0E6F008CFF35F0FF0E6F008CFF1A
:101A880036F0420E3524D96E000E3620DA6E400E3E
:101A9800DF6040D0FE0E6F008CFF35F0FF0E6F0048
:101AA8008CFF36F0400E3524D96E000E3620DA6EE3
:101AB800DF50366EFE0E6F008CFF33F0FF0E6F00A6
:101AC8008CFF34F036503324D96E000E3420DA6E91
:101AD800FD0E6F008FFFDFFFFE0E6F008CFF35F0ED
:101AE800FF0E6F008CFF36F0400E3524D96E000EC5
:101AF8003620DA6EDF2AFE0E6F008CFF35F0FF0EFF
:101B08006F008CFF36F0420E3524D96E000E362059
:101B1800DA6EDF2AE552E552E5521200286E756C3E
:101B28006C29000000000000000000000000000018
:101B3800000000000000000000000000000000009D
:101B4800000000000000000000620FA40F9B0FA01F
:101B580089B03DA4DE133DA4DE133D000000000063
:101B6800000000000000000000000000000000006D
:101B7800000000000000000000000000000000005D
:101B8800000000000000000000000000000000004D
:101B9800000000000000000000000000000000003D
:101BA800000000000000000000000000000000002D
:101BB800000000000000000000000000000000001D
:101BC80000571942BCEC1DF0000EE66E60009BF158
:101BD800E6FF60009FF1E6FFB9EC0FF0BC94FE0E43
:101BE8006F008FFFE6FF6F008FFFE6FF39EC0EF006
:101BF8002C5004E1410E2B5CD8A010D0FE0E6F00D3
:101C08008CFF35F0FF0E6F008CFF36F0400E352448
:101C1800D96E000E3620DA6E000EDF6E3B01FC9F97
:101C2800FE0E6F008FFFE6FF6F008FFFE6FF39ECB7
:101C38000EF06000AFF0F7FB6000B3F0F8FB3B017B
:101C4800FC8FFE0E6F008FFFE6FF6F008FFFE6FF31
:101C5800FB0EE66EFF0EE66E040EE66EA5EC14F0C3
:101C6800BFEC1DF0E552E5521200E652E652FC0EBA
:101C78006F008CFF35F0FD0E6F008CFF36F0FF0E05
:101C88006000DBF0E3FFFE0E6000D7F0E3FF11D049
:101C9800FC0EE350010F2B6EFC0E6000AFF0E3FF6B
:101CA8002B6AFD0EE3502B202B6EFD0E6000AFF06B
:101CB800E3FFFC0E6F008FFFF6FFFD0E6F008FFF36
:101CC800F7FF000EF86E1F0EF76403D00800F550FA
:101CD80007D06F00DBFFE9FF6F00DFFFEAFFEF507F
:101CE8000009D8A4D5D7FC0E6F008CFF2BF0FD0E91
:101CF8006F008CFF2CF0FE0EE3502B5EFF0EE350BE
:101D08002C5AE552E552E552E5521200E652E652E7
:101D1800FF0EE36AE386FE0EE36AFD0E6F008CFF9A
:101D280036F0FE0E6F008CFF35F0D890363435341F
:101D3800366EFE0E6000DBF0E3FFE150FD0FD96E5A
:101D4800E250DA6EFF0EDA22D890DF36E150FE0F4D
:101D5800D96EE250DA6EFF0EDA22FC0EE350DE5C3A
:101D6800D8A00DD0FC0E6F008CFF36F0E150FE0FAE
:101D7800D96EE250DA6EFF0EDA223650DF5EFF0EC1
:101D8800E3502B6E010E2B5EFF0E6000AFF0E3FFF9
:101D9800D8A4C3D7FE0E6F008CFF2BF0E552E55296
:101DA800E552E5521200A00EE66E0F0EE66E640EC6
:101DB800E66E000EE66EF90E6F008FFFE6FF6F000D
:101DC8008FFFE6FF9FEC11F02B50D8A402D0000E35
:101DD80019D0A00EE66E0F0EE66E640EE66E000ECB
:101DE800E66EF70E6F008FFFE6FF6F008FFFE6FFCE
:101DF8009FEC11F02B50D8B4EAD7FF0EE350D8A4CB
:101E080003D0010E2B6E17D0FD0E6F008CFF2DF244
:101E1800FE0E6F008CFF2EF2FB0E6F008CFF2FF270
:101E2800FC0E6F008CFF30F20F0E0201326F9B0E1A
:101E3800316FA485E6D7FB0EE126FF0EE2221200E1
:101E4800E652E652E652FD0EE36AFE0EE36A1FD042
:101E5800F90E6F008FFFE6FF6F008FFFE6FFFD0EA4
:101E6800E350E66E000EE66E6AECFFF0FD0EE350FE
:101E7800010F2B6EFD0E6000AFF0E3FF2B6AFE0E24
:101E8800E3502B202B6EFE0E6000AFF0E3FFFD0E3B
:101E98006F008CFF35F0FE0E6F008CFF36F0FB0EE6
:101EA8006F008CFF33F0FC0E6F008CFF34F0355060
:101EB8003324D96E36503420DA6EDF50366EFF0E7A
:101EC8006000DBF0E3FFFF0EE350D8A4C1D7F90EA2
:101ED800E126FF0EE2221200E65213D0FF0EE36A5B
:101EE800E38C25D0FF0EE36AE384E38820D0540E08
:101EF800366EFF0E6000DBF0E3FF19D0FF0EE36AD9
:101F080016D0FE0EE350356E366A3650000AD8A455
:101F1800E5D73550000AD8B4E1D7010AD8B4E2D7DA
:101F2800030AD8B4E4D7010AD8B4E8D7D7D7450EFE
:101F3800E66E3AEC1CF0FD0E6F008CFF36F0FF0EDB
:101F4800E3503624E66E1DEC17F062EC1DF0FB0E34
:101F58006F008FFFE6FF6F008FFFE6FFE6EC0DF0E6
:101F6800FB0EE126FF0EE2221200FE0E6F008CFF30
:101F780035F0FF0E6F008CFF36F0420E3524D96E17
:101F8800000E3620DA6E000EDF6EFE0E6F008CFF3C
:101F980035F0FF0E6F008CFF36F0400E3524D96EF9
:101FA800000E3620DA6E000EDF6EFE0E6F008CFF1C
:101FB80035F0FF0E6F008CFF36F0410E3524D96ED8
:101FC800000E3620DA6E000EDF6EFD0EE350D8B438
:101FD80011D0400EE66E000EE66E000EE66E000EA4
:101FE800E66EFA0E6F008FFFE6FF6F008FFFE6FFC9
:101FF800C5ECDFF0E552E552E5521200070EBE6E61
:10200800BD6ABA6A230EBF6EBB6A070EBC6EC66A8B
:102018000C0EC76EC268BF0EC36E900EC46E0C0E57
:10202800C56E3A01706B606B3C0E506F806B906BA5
:1020380040690C0E716F0C0E916F816B830E516F9E
:10204800416B970E616F826B926B426B526B626B46
:10205800726B4369536963697369070E836F936988
:102068000F0EE86F130EDE6F160E0E6F1E0E136F37
:10207800080EC06F100E196F090EC16F1F0E156F75
:10208800130E166F170EE56F140EDF6F1200E6526F
:10209800E652E652E652800E3901686F070E696F04
:1020A800626B636B7C6B786B776B766B3F0E7B6FC9
:1020B8007A6979697D6BD50E356E000E366EFE0E27
:1020C8006000D7F0E3FFFF0E6000DBF0E3FFFF0ED8
:1020D800E124D96EFF0EE220DA6EDF50676FD50E6D
:1020E800666FFC0EE36AFD0EE36AFD0EE124D96E0D
:1020F800FF0EE220DA6EDF50636F626B69390F0BF7
:10210800366E36280001DA6F390169510F0B366EC9
:1021180036280001DB6FE552E552E552E552120020
:10212800E652E6524B504C10D8A409D0FE0E60007F
:102138002FF1E3FFFF0E600033F1E3FF16D0FF0E2F
:10214800356EFF0E366E60002CF133F0600030F112
:1021580034F03550332636503422FE0E6000CFF06E
:10216800E3FFFF0E6000D3F0E3FFFB0E6F008CFF70
:1021780060F30301616BFE0E6F008FFFE6FF6F00D7
:102188008FFFE6FF600EE66E030EE66EF80E6F0038
:102198008FFFE6FF6F008FFFE6FF8FEC04F0FB0E6A
:1021A800E126FF0EE22212003E01E6516F009CFB81
:1021B8002BF02C6A6000ACF02CF02B6A2B26000E5A
:1021C8002C2202013F51020D070EF324D96E020E94
:1021D800F420DA6E6000AFF0DEFF6000B3F0DDFFE0
:1021E80002013F2B0D0E3F6504D0010E426FBE92D7
:1021F80012006000FCF836F020EE40F26F0078FF25
:1022080033F06F0074FF34F0362A03D0D89034329C
:102218003332362EFBD733A0E3D7A3EC1DF00201EF
:102228003F510F0BE66E2AEC1DF0BE821200E652FB
:10223800E652FC0EE3509F0F356EFD0E6F008CFFCB
:1022480036F0FF0E3622365006E11A0E355CD8B04D
:1022580002D0010E01D0000E356E366AFE0E600007
:10226800D7F0E3FFFF0E6000DBF0E3FFFE0E6F0028
:102278008CFF2BF0FF0EE3502B10D8B40DD0FC0EC2
:102288006F008CFF2BF0FD0E6F008CFF2CF05F0EA3
:102298002B16000E2C1608D0FC0E6F008CFF2BF0AE
:1022A800FD0E6F008CFF2CF0E552E552E552E55229
:1022B8001200E652E652FC0EE350BF0F356EFD0EDB
:1022C8006F008CFF36F0FF0E3622365006E11A0EEC
:1022D800355CD8B002D0010E01D0000E356E366ADA
:1022E800FE0E6000D7F0E3FFFF0E6000DBF0E3FFB7
:1022F800FE0E6F008CFF2BF0FF0EE3502B10D8B4AE
:102308000DD0FC0E6F008CFF2BF0FD0E6F008CFFC4
:102318002CF0200E2B12000E2C1208D0FC0E6F0091
:102328008CFF2BF0FD0E6F008CFF2CF0E552E55270
:10233800E552E5521200FA0E6F008CFF35F0FB0EE5
:102348006F008CFF36F0FC0EE3503526FD0EE3508F
:102358003622FE0EE350355C3650800A2B6EFF0E97
:10236800E350800A2B58D8B002D0000E1ED0FA0EC7
:102378006F008CFF35F0FB0E6F008CFF36F0FC0E03
:10238800E350355EFD0EE350365AFE0E6F008CFFAB
:102398002BF035502B5CFF0EE350800A2B6E365025
:1023A800800A2B58D8A0E1D7010E2B6EFA0EE12631
:1023B800FF0EE2221200FD0E6F008CFF2BF0FE0EC6
:1023C800E3502B10D8A402D0000E1AD0FF0EE35011
:1023D800D8B418D00201A4A1F7D720EE43F2FD0E1D
:1023E8006F008FFFE9FFFE0E6F008FFFEAFF600EA0
:1023F8006F006FFFEBFFE806FBE2A4A3E5D7010E31
:102408002B6E13D0FD0E6F008FFFD9FFFE0E6F00ED
:102418008FFFDAFF00EE43F2600E6F006FFFEBFFF5
:10242800E806FBE20201A481CFD7E552E552E55266
:102438001200FF0EE350D8B422D03D01149F59502A
:10244800D8A411D0010E596E6F0050F458F06F00E7
:1024580054F457F06F0058F456F06F0070F455F0CC
:102468006F0064F454F0156B158D159B159F030EC2
:10247800166F0F0E196F1C6B830E146F14D0595002
:10248800D8B412D03D01149F60005FF115FD6000C3
:102498005BF116FD600057F11CFD600053F119FD5A
:1024A800600063F114FD148FE5521200FA0E6F00FC
:1024B8008FFFE6FF6F008FFFE6FF6F008FFFE6FFDD
:1024C8006F008FFFE6FFFA0E6F008FFFD9FFFB0E3C
:1024D8006F008FFFDAFF6F007BFFE6FF6F007BFF67
:1024E800E6FF6F007BFFE6FF6F007BFFE6FF8BECEC
:1024F800B8F0FE0E6F008FFFD9FFFF0E6F008FFF41
:10250800DAFF6000AFF0DEFF6000B3F0DEFF6000CE
:10251800B7F0DEFF6000BBF0DEFFFA0EE126FF0E2B
:10252800E2221200FE0E6F008CFF35F0FF0E6F00E6
:102538008CFF36F0040E3524D96E000E3620DA6E84
:10254800DF50D8A423D0FE0E6F008CFF35F0FF0EAD
:102558006F008CFF36F0050E3524D96E000E36203C
:10256800DA6EDF50D8A412D0FE0E6F008CFF35F063
:10257800FF0E6F008CFF36F0040E3524D96E000E66
:102588003620DA6E010EDF6E010E01D0000E2B6EC2
:10259800E552E552120021EE00F100EE07F2A00E1E
:1025A8006F007BFFEEFFE806FBE2A10ED95EE95E55
:1025B8000201A4B50CD00F0E2E6F620E2D6F0F0EF8
:1025C800306FA40E2F6F0F0E326F9B0E316FA4B7B2
:1025D8001200A00E336F890E346FB00E356F3D0EAA
:1025E800366FA40E376FDE0E386F130E396F3D0E3F
:1025F8003A6FA40E3B6FDE0E3C6F130E3D6F3D0E1F
:102608003E6F1200000E3B01F96F100EFA6F000EBC
:10261800FB6F3D0EF16F110EF06F030EFD6F000E94
:10262800F86F010EF76F000EEF6F010EEE6F150ECB
:10263800FF6FFE6B3901A293A291A297A295928394
:10264800928192879285F16B010EF26F040EF36FFF
:10265800020EF46F030EF76FD29E3901550EEF6F1D
:10266800AA0EEF6FEF81D28E3B01FC6B12003E0188
:10267800DE6BDF6BE06BE16BE46BE56BEA6B400EE6
:10268800EC6FF16BF36B010EF46FF56BF66BF76B98
:10269800F96B5B0EFA6F270EFB6FFC6B020EFD6F7A
:1026A800FE6B3F0EFF6F840EF86F3901A19591857F
:1026B800980EE66E3B0EE66E000EE66E7EEC1BF0A4
:1026C8003901A1979187980EE66E3B0EE66E000ED3
:1026D800E66E6AEC1BF012006000ACF002F06000DD
:1026E800B0F003F06000CCF004F06000D0F005F02A
:1026F8006000D8F006F014EE34F33901A197000118
:102708009D519E119F11D8B40CD001D80AD0050054
:10271800FA6E9D51FD6E9E51FE6E9F51FF6EFA50EE
:102728001200600018F036F0600014F034F0600019
:1027380010F033F060000CF02CF0600008F02BF083
:102748001100E652D2AE03D0366A362A01D0366A74
:10275800FF0E6000DBF0E3FFFE0EE124D96EFF0EF2
:10276800E220DA6EDF50030B3901E16FFD0E6F00D6
:102778008FFFE0F9FC0E6F008FFFE3F93F0EE517BE
:10278800E585D29E550EE66FAA0EE66FE583E5B3A2
:10279800FED7E595FF0EE3B002D0D29E01D0D28ECF
:1027A800E552E552E552E552120002014251D8A421
:1027B80012003F6B3A0140516E0040F92BF02C6A31
:1027C8006000ACF02CF02B6A2B26000E2C22770E22
:1027D8002B140201406F3C0E2C14416F520EE66E12
:1027E800390EE66E000EE66E7EEC1BF0B00EE66E5D
:1027F800210EE66E000EE66E6AEC1BF0A3EC1DF0EF
:1028080002013F510F0BE66E2AEC1DF0BE82BE841A
:102818001200FE0E6F008CFF35F0FF0E6F008CFF6C
:1028280036F0030E3524D96E000E3620DA6E000E0F
:10283800DF6EFE0E6F008CFF35F0FF0E6F008CFF11
:1028480036F0050E3524D96E000E3620DA6E000EED
:10285800DF6EFE0E6F008CFF35F0FF0E6F008CFFF1
:1028680036F0070E3524D96E000E3620DA6E000ECB
:10287800DF6EE552E5521200E652D28AD2AE03D09C
:10288800366A362A01D0366AFF0E6000DBF0E3FFB5
:10289800D29E550ED46EAA0ED46ED49038019F6B7A
:1028A8009E6B080E9D6F550ED46EAA0ED46ED48002
:1028B800FF0EE3B002D0D29E01D0D28E39018287BA
:1028C80082838281828586878685838781818591B7
:1028D8008981889D869D81858187E5521200FE0E3B
:1028E8006F008CFF2BF0020E2B180DE1FF0EE3504A
:1028F800D8A409D0FC0EE3501C0F2B6EFD0E6F0000
:102908008CFF2CF017D0FF0E366EFE0EE3503624E7
:10291800356ED50E2B6E0A0E2C6E352A03D02C344C
:102928002C322B32352EFBD7010E2B16000E2C160F
:102938001E0E2B26000E2C22E552E552E552E552DA
:102948001200E652E652FB0EE124356EFF0EE2203D
:10295800366EFF0E6000DBF0E3FFFE0E6000D7F07E
:10296800E3FFFE0EE1242B6EFF0EE2202C6E6000CA
:10297800AFF0E6FF6000B3F0E6FFF90E6F008FFFDF
:10298800E6FF6F008FFFE6FF000EE66E000EE66EB4
:10299800E7EC0CF0E552E552E552E750E15E000E37
:1029A800E25A1200E652E652E652E652FF0E336E43
:1029B800FF0E346EFF0E356E7F0E366EFC0E600015
:1029C800CFF0E3FFFD0E6000D3F0E3FFFE0E6000E2
:1029D800D7F0E3FFFF0E6000DBF0E3FFFC0E6F00B3
:1029E8008CFF2BF0FD0E6F008CFF2CF0FE0E6F009D
:1029F8008CFF2DF0FF0E6F008CFF2EF0FA0EE126F3
:102A0800FF0EE222120039019695D80EE66E380EB6
:102A1800E66E000EE66EDEEC1AF039019697EE0EC1
:102A2800E66E340EE66E000EE66ECAEC1AF03D0154
:102A3800D46BD66BD86BB00EDA6F800EDB6FDC6BA5
:102A4800820EDD6F060EDE6FDF6BE06BE16BE26B13
:102A58000001C76B5D6A400E5C6E5B6AC66BC56B36
:102A6800390196851200060EE126000EE222390190
:102A7800989D010181510001CA6F01018251000135
:102A8800CB6F010183510001CC6F0101845100011A
:102A9800CD6FCE6BCF6BD06BD16B3901988DF80EA3
:102AA8006F008CFF2BF0F90EE3502B1020EECAF0CC
:102AB800080E2B6EF80E6F007BFFE3FFE8282B2E25
:102AC800FAD71200780E6F00A0FF41FC000E6F00CD
:102AD800A0FF42FC640E6F00A0FF43FC000E6F00D5
:102AE800A0FF44FC23EE19F06F0078FF1DFC6F0077
:102AF80078FF1EFC6F0078FF1FFC6F0074FF20FC3E
:102B080023EE1DF06F0078FF29FC6F0078FF2AFC88
:102B18006F0078FF2BFC6F0074FF2CFC1200000183
:102B2800906B916B926B936B00F00400010E0001A7
:102B38009027000E912392239323FC0E6F008CFFA5
:102B48002BF090512B5CFD0E6F008CFF2BF09151F8
:102B58002B58FE0E6F008CFF2BF092512B58FF0E56
:102B68006F008CFF2BF093512B58D8B0DDD7E5526E
:102B7800E552E552E5521200000E3B01D96F100EE6
:102B8800DA6F000EDB6F3F0ED16FBB0ED06F030EF6
:102B9800DD6F000ED86F010ED76F000ECF6F010EDC
:102BA800CE6F1C0EDF6F3D0EDE6F3901A597A59520
:102BB800A59BA59995979595959B9599D29E390131
:102BC800550EEF6FAA0EEF6FEF81D28E3B01DC6BD3
:102BD8001200E652FF0EE36AE32AFD0E6F008CFF37
:102BE8002BF0200E2B1804E1FE0EE350D8B412D0BF
:102BF800FD0EE350F70F356EFE0E6F008CFF36F0BA
:102C0800FF0E3622365004E1050E355CD8A002D0FE
:102C1800FF0EE36AFF0EE3502B6E2C6AE552E55275
:102C2800E5521200FE0EE304FF0E6F008CFF2BF03E
:102C3800020E2B5AD8A00CD0000E356E020E366E3E
:102C4800FE0E6000D7F0E3FFFF0E6000DBF0E3FF4D
:102C58003B01DC9FFE0E6F008FFFD7FBFF0E6F005E
:102C68008FFFD8FB000ECF6F010ECE6FDC8FDC8D8F
:102C7800E552E552120040EC14F017EC1DF002EC9E
:102C880010F00CEC1DF0AFEC1DF04BEC10F03BEC31
:102C980013F001EC1DF0DFEC1CF0B7EC19F08DEC33
:102CA8001AF0F9EC16F0D5EC16F0B1EC16F007ECCA
:102CB80015F0F6EC1CF0C0EC15F006EC13F087EC00
:102CC8001DF01200E652FF0EE36AFF0EE350020DFC
:102CD800D10EF324D96E020EF420DA6EDE50DE1027
:102CE800D8B40CD0FF0EE350020DD10EF324D96EE8
:102CF800020EF420DA6EDE06000EDD5AFF0EE32A1D
:102D0800FF0E6F008CFF2BF00C0E2B64DED7E55204
:102D18001200FC0EE3500AE1FD0EE35007E1FE0E3F
:102D2800E35004E1FF0EE350D8B402D0FF0EE37E77
:102D3800FC0E6F008CFF2BF0FD0E6F008CFF2CF04B
:102D4800FE0E6F008CFF2DF0FF0E6F008CFF2EF033
:102D5800E552E552E552E552120039019397960E75
:102D6800E66E380EE66E000EE66EF2EC1AF03D01E5
:102D7800EC6BED6BEE6BEF6BF06BF16BB00EF26F13
:102D8800800EF36FF46B8A0EF56FF66BF76BF86BCA
:102D9800F96BFA6B5E6A0001C96BC86B39019387DE
:102DA80012009B6A9C6A010E9D6E630E996EC00E9E
:102DB800986E98506F0064FE2BF02C6A6000ACF09F
:102DC8002CF02B6A2B100001C26F2C50C36F3901F5
:102DD800A89D988DFA0EE66E310EE66E000EE66E30
:102DE8001AEC1BF0310E9A6E1200A76AA86A010E3F
:102DF800A96E3C0EA56EB00EA46EA4506F0094FE92
:102E08002BF02C6A6000ACF02CF02B6A2B10000120
:102E1800BE6F2C50BF6F3901A69D968D460EE66E8B
:102E2800EA0EE66E010EE66E2EEC1BF0310EA66E73
:102E38001200BCEC1DF0000EE66E60009BF1E6FF90
:102E480060009FF1E6FFB9EC0FF0BC943B01FC9FDA
:102E5800000EF86F010EF76FFC8FFF0EE350E66E61
:102E680060009BF1E6FF60009FF1E6FF3DEC0DF08E
:102E7800BFEC1DF0E5521200FF0EE3BE07D0FF0EB7
:102E8800E35012E1FE0EE304D8B00ED0FE0E6F0040
:102E98008CFF2BF02B1EFF0E6F008CFF2CF02C1ECE
:102EA8002B2AD8B42C2A08D0FE0E6F008CFF2BF0EA
:102EB800FF0E6F008CFF2CF0E552E5521200FB0E5E
:102EC800E37EF80E6F008FFFE6FF6F008FFFE6FFCF
:102ED8006F008FFFE6FF6F008FFFE6FFF80E6F00B1
:102EE8008FFFE6FF6F008FFFE6FF6F008FFFE6FFA3
:102EF8006F008FFFE6FF8BECB8F0F80EE126FF0EAF
:102F0800E22212009F0E356EFF0E366EFE0E6F0027
:102F18008CFF33F0FF0E6F008CFF34F0200E33125D
:102F2800000E34123550332636503422345006E120
:102F38001A0E335CD8B002D0010E01D0000E2B6EF1
:102F48002C6AE552E5521200FE0E6F008CFF35F038
:102F5800FF0E6F008CFF36F0D89036323532D8909D
:102F6800363235323550616EFE0E6F008CFF36F00A
:102F7800030E3616060E2B6ED89036362B2EFCD73F
:102F88003650606EE552E5521200BC94FE0EE66EB5
:102F98007CEC1CF0080EE66E000EE66E000EE66E87
:102FA800000EE66E93EC15F0FF0EE350E66E7CEC37
:102FB8001CF0200EE66E030EE66E000EE66E000EA6
:102FC800E66E93EC15F0E5521200BC94FE0EE66E28
:102FD8007CEC1CF0080EE66E000EE66E000EE66E47
:102FE800000EE66E93EC15F0FF0EE350E66E7CECF7
:102FF8001CF0080EE66E000EE66E000EE66E000E81
:10300800E66E93EC15F0E5521200FD0E6F008CFF92
:1030180035F0FE0E6F008CFF36F0D8903534336EE5
:103028003634346EFF0EE350020DD10EF324D96E00
:10303800020EF420DA6E6000CFF0DEFF6000D3F0FD
:10304800DDFFE552E552E55212009AA40FD09A909E
:10305800FF0EE124D96EFF0EE220DA6EDF50996E82
:10306800FE0E6F008FFF98FF9A800CD0FF0EE124B0
:10307800D96EFF0EE220DA6EDF50996EFE0E6F00F9
:103088008FFF98FFE552E5521200A6A40FD0A69034
:10309800FF0EE124D96EFF0EE220DA6EDF50A56E36
:1030A800FE0E6F008FFFA4FFA6800CD0FF0EE12458
:1030B800D96EFF0EE220DA6EDF50A56EFE0E6F00AD
:0A30C8008FFFA4FFE552E55212004D
:1030D4006F0060FF08F06000ACF009F06000D4F00D
:1030E4000AF06000D8F00BF016EE9AF13901A591C0
:1030F400E0EC1BF060002CF036F0600028F035F0B6
:10310400600024F02BF0600023F0D8FF1100F40ECF
:103114006F008CFF2BF0F50EE3502B10D8B40CD0BD
:10312400F40E6F008FFFD9FFF50E6F008FFFDAFFEB
:10313400000EDE6E000EDD6E000E2B6E000E2C6E89
:10314400F40EE126FF0EE222120002014251D8B42D
:103154001200B9EC1DF0D9EC13F0C80EE66E000EA7
:10316400E66E010EE66E09EC18F0010EE66EB6ECA2
:103174001AF02B50D8A41200FCECFFF02B50D8A46A
:103184001200F3D76000D8F001F014EE34F33901E3
:10319400A1950001A051A111A211D8B40CD001D85D
:1031A4000AD00500FA6EA051FD6EA151FE6EA25127
:1031B400FF6EFA501200600004F036F01100CBB03C
:1031C4000CD00101A185080EE66EB6EC1AF02B5066
:1031D400D8B403D0010E2B6E12000101A1B508D0A2
:1031E4002C0EE66E010EE66E080EE66E09EC18F083
:1031F400000E2B6E1200BEA002D0010E01D0000EF4
:10320400FF0A366EBE503618FE0B3618BE6E010E1F
:103214000101BF27000EC023C123C223010E812751
:10322400000E82238323842319ECCEF0120039018B
:10323400989DE150F80FD96EE250DA6EFF0EDA2253
:103244006F0078FF81F16F0078FF82F16F0078FFE3
:1032540083F16F0078FF84F1988DF80EE126FF0E5C
:10326400E2221200FE0E6F008FFFE6FF6F008FFF59
:10327400E6FF000EE66E09EC18F005D000F000F051
:1032840000F000F00400000EE66EB6EC1AF02B50CD
:10329400D8B4F4D7E552E5521200FE0EE350FF0F06
:1032A400356EFF0E6F008CFF36F0FF0E3622600085
:1032B400D4F0F3F26000D8F0F4F20201F56BF66B8F
:1032C400F76BF86BF96BFA6BE552E5521200FC0EE2
:1032D4006F008FFFE6FF6F008FFFE6FF6F008FFF29
:1032E400E6FF6F008FFFE6FF77EC03F06000ACF0C1
:1032F40029F26000B0F02AF2E552E552E552E552B7
:103304001200FC0E6F008FFFE6FF6F008FFFE6FFD9
:103314006F008FFFE6FF6F008FFFE6FF77EC03F08F
:103324006000ACF027F26000B0F028F2E552E552FC
:10333400E552E552120039019197FF0EE350020D58
:10334400070EF324D96E020EF420DA6E6F0078FFB4
:10335400B8F06F0074FFB9F091876000E0F22BF0D1
:103364006000E4F22CF0E55212003901A191D290F0
:10337400960EE66E3B0EE66E000EE66E56EC1BF005
:1033840039019181A591D292B60EE66EFA0EE66EDF
:10339400010EE66E42EC1BF0390195811200FF0E1E
:1033A400E124D96EFF0EE220DA6EDF50030B3901FF
:1033B400E16FFE0E6F008FFFE0F93F0EE517E58128
:1033C40000F000F06E008CF72BF0E552E55212008D
:1033D4003F0E3B01DD17DD9BDD51F90B0209DD6F6B
:1033E400E70EDD17DD81DC9D3D0ED16FEA0ED06F57
:1033F400810ED96F090EDA6F000EDB6FDC9B1200B1
:10340400FE0EE3509F0F356EFF0E6F008CFF36F0FB
:10341400FF0E3622365006E11A0E355CD8B002D0C3
:10342400010E01D0000E2B6E2C6AE552E5521200FB
:10343400FE0EE350BF0F356EFF0E6F008CFF36F0AB
:10344400FF0E3622365006E11A0E355CD8B002D093
:10345400010E01D0000E2B6E2C6AE552E5521200CB
:10346400FE0EE350D00F356EFF0E6F008CFF36F06A
:10347400FF0E3622365006E10A0E355CD8B002D073
:10348400010E01D0000E2B6E2C6AE552E55212009B
:10349400FE0EE350030BA00DFF0E2B6E060E2C6EDA
:1034A400F3502B26F4502C22FF0EE350030B280D6F
:1034B400F3502B26F4502C22E552E5521200FF0E55
:1034C4006F008CFF2BF0050E2B6402D0000E0AD087
:1034D400FF0EE350050DA80EF324D96E020EF4205E
:1034E400DA6EDF502B6EE5521200400E5C6010D095
:1034F400000E5D24D96EDA6A040EDA22DF503D0133
:10350400D26F5D2A3F0E5D6401D05D6A5C2A1200B1
:10351400390196971200010E966E956A976A7C0E91
:10352400936E926A3901A9919981CC0EE66E2C0EA4
:10353400E66E000EE66E06EC1BF0E00E946E1200D2
:10354400430EE66E000EE66E000EE66E000EE66EAC
:10355400FA0E6F008FFFE6FF6F008FFFE6FFC5ECEA
:10356400DFF0E552E55212000400FF0EE350020DB5
:10357400D10EF324D96E020EF420DA6EDE50DE1082
:10358400D8A402D0010E01D0000E2B6EE552120019
:10359400E150FD0FD96EE250DA6EFF0EDA226F00B1
:1035A40078FFA6F06F0078FFA7F06F0074FFA8F013
:1035B400E552E552E5521200E150FD0FD96EE2509A
:1035C400DA6EFF0EDA226F0078FFA9F06F0078FF41
:1035D400AAF06F0074FFABF0E552E552E552120019
:1035E400E150FD0FD96EE250DA6EFF0EDA226F0061
:1035F40078FFA3F06F0078FFA4F06F0074FFA5F0CC
:10360400E552E552E5521200E150FD0FD96EE25049
:10361400DA6EFF0EDA226F0078FF9AF06F0078FFFF
:103624009BF06F0074FF9CF0E552E552E5521200E6
:10363400E150FD0FD96EE250DA6EFF0EDA226F0010
:1036440078FF97F06F0078FF98F06F0074FF99F09F
:10365400E552E552E5521200E150FD0FD96EE250F9
:10366400DA6EFF0EDA226F0078FF94F06F0078FFB5
:1036740095F06F0074FF96F0E552E552E5521200A2
:10368400E150FD0FD96EE250DA6EFF0EDA226F00C0
:1036940078FFACF06F0078FFADF06F0074FFAEF010
:1036A400E552E552E5521200E150FD0FD96EE250A9
:1036B400DA6EFF0EDA226F0078FFAFF06F0078FF4A
:1036C400B0F06F0074FFB1F0E552E552E55212001C
:1036D400E150FD0FD96EE250DA6EFF0EDA226F0070
:1036E40078FF9DF06F0078FF9EF06F0074FF9FF0ED
:1036F400E552E552E5521200E150FD0FD96EE25059
:10370400DA6EFF0EDA226F0078FFA0F06F0078FF08
:10371400A1F06F0074FFA2F0E552E552E5521200E9
:1037240014EE34F30001A351A411A511D8B411006F
:1037340001D811000500FA6EA351FD6EA451FE6E6E
:10374400A551FF6EFA50120014EE34F30001A65195
:10375400A711A811D8B4110001D811000500FA6E00
:10376400A651FD6EA751FE6EA851FF6EFA501200CD
:1037740014EE34F30001A951AA11AB11D8B411000D
:1037840001D811000500FA6EA951FD6EAA51FE6E12
:10379400AB51FF6EFA501200BC94FF0EE350E66E7C
:1037A4007CEC1CF0080EE66E000EE66E000EE66E73
:1037B400000EE66E93EC15F0E55212000001AC51D8
:1037C400AD11AE11D8B4120001D812000500FA6E82
:1037D400AC51FD6EAD51FE6EAE51FF6EFA5012004B
:1037E4000001975198119911D8B4120001D8120010
:1037F4000500FA6E9751FD6E9851FE6E9951FF6E59
:10380400FA5012000001945195119611D8B4120087
:1038140001D812000500FA6E9451FD6E9551FE6EAA
:103824009651FF6EFA5012000001AF51B011B11160
:10383400D8B4120001D812000500FA6EAF51FD6E23
:10384400B051FE6EB151FF6EFA50120000019A5150
:103854009B119C11D8B4120001D812000500FA6E15
:103864009A51FD6E9B51FE6E9C51FF6EFA501200F0
:1038740062EC1DF0FE0EE66E1DEC17F062EC1DF01E
:10388400FF0EE350E66E1DEC17F062EC1DF0E552FE
:103894001200EB0E5E24D96EDA6A020EDA226F0091
:1038A400A3F7DFFF5E2A070E5E6401D05E6A0001A3
:1038B400C82B120039019591540EE66EF90EE66E8E
:1038C400010EE66E42EC1BF0020E0201CB6F3901D1
:1038D40095811200000E5B24D96EDA6A060EDA2294
:1038E4006F0043F7DFFF5B2A5B28D8B45B6A0001F3
:1038F400C52B1200010E3D01126FFF0E6F008FFFEA
:1039040011FD3901A2A9FDD76F0040F42BF0E55257
:103914001200FF0E6F008CFF36F0030E361622EEF7
:103924007FF1DF503618FE0B3618DF6EE5521200B9
:10393400070EE66EB6EC1AF02B50D8B406D001018F
:10394400AA51FF0E6F008CFFAAF1E5521200BEA42B
:1039540002D0010E01D0000EFF0A366E36463646FE
:10396400BE503618FB0B3618BE6E1200FF0EE35025
:10397400E66E60009BF1E6FF60009FF1E6FF3DEC20
:063984000DF0E5521200F7
:10398C006000ACF007F014EE34F33901A99128EC87
:10399C001CF060001CF02BF01100FE0E6F008FFF6E
:1039AC00E6FF6F008FFFE6FFA8EC17F0E552E5523B
:1039BC001200010EAE6EAD6AAF6A630EAB6EAA6AF0
:1039CC003901A495C00EAC6E1200CB0EE66E030E40
:1039DC00E66EFD0EE350E66EEBECECF0E5521200F9
:1039EC00400E3D01156F030E166F4F0E196F1C6BB9
:1039FC00830E146F1200800E626E616A400E606E50
:103A0C003F015F513F0B40095F6F1200200E3901DF
:103A1C00D96FDB6BDD6B020EDF6FDE6BDCB112007E
:103A2C00FDD73901C06BC16BC26BC36BC46BC56B6B
:103A3C00C66BC76B1200390168B104D0FF0E6F0062
:103A4C008FFF60F9E5521200FF0E6F008FFFF1FE41
:103A5C003E01F88FF881E5521200FF0EE3B002D060
:103A6C00BD9A01D0BD8AE5521200FF0EE3B002D020
:103A7C00BD9801D0BD88E5521200390168AB03D066
:103A8C002B6A2B2A12002B6A12000101AB51FF0E7C
:103A9C006F008CFFABF1E5521200FF0EE3B002D0C9
:103AAC00BD9C01D0BD8CE5521200FF0EE350E66EBA
:103ABC003AEC1CF0E5521200000160B7FDD73D0155
:103ACC0017BB1200FCD72C0EE66E010EE66EA8ECAE
:103ADC0017F01200BDAC03D02B6A2B2A12002B6AF4
:023AEC001200C6
:0E3AF00014EE34F33901A19116EC1CF0110014
:103B000014EE34F33901A2910001609711003C01D9
:103B1000E66B940EE56F1200810E2B6E090E2C6E73
:023B2000120091
:0A3B240014EE34F33901A2931100EE
:0A3B300014EE34F33901A2971100DE
:103B3C0014EE34F33901A29511003B0E3E01F16FE6
:103B4C0012006000A8F62BF012006000ACF62BF00F
:103B5C001200AF0E3E01C16F12000201A4831200CD
:103B6C003901688D12000201426B1200000160875E
:103B7C0012003B01FC8D12003901969D1200390197
:0F3B8C00968D120014EE34F31100120012000196
:10F7920000D859000005000000685B00000A000064
:10F7A20000305C000014000000385E000019000008
:10F7B20000885E00001E000000785F000028000044
:10F7C20000DC5F00002D0000001860000032000025
:10F7D2000046600000350000007C60000037000039
:10F7E20000AE60000039000000E06000003C000054
:10F7F20000126100003F0000005D61000043000054
:10F8020000A861000046000000BC61000048000042
:10F8120000D06100004B000000DA610000500000DF
:10F8220000E461000055000000F86100005A000089
:10F8320000086200005C000000226200005D00001F
:10F8420000346200005F00000048620000610000B6
:10F85200005C620000640000008467000062000037
:10F86200000000000080DE280080C84D0000A7765E
:10F872000000349E008012C700809FEE00007E17B9
:10F8820001805C400180E9670100C890010055B821
:10F89200011F1E1F1E1F1F1E1F1E1F1F1D636F6DB8
:10F8A2006D616E64732031000000000000000000F2
:10F8B200000000646973706C61797320310000008C
:10F8C200000000000000000000636F6D6D616E6457
:10F8D20073203200000000000000000000000064FD
:10F8E2006973706C617973203200000000000000BF
:10F8F2000000000000636F6D6D616E647320330061
:10F902000000000000000000000000646973706CD9
:10F912006179732033000000000000000000000045
:10F9220000636F6D6D616E6473203400000000002F
:10F9320000000000000000646973706C617973203C
:10F94200340000000000000000000000007C7C2F5A
:10F952002F2D2D000000000000000000000000001C
:10F96200007C7C2F2F2D2D5C5C000000000000002D
:10F9720000000000004F4F4F4F4F4F2D2D5F5F2D66
:10F9820000000000000000000076763C3C5E5E3E17
:10F992003E0000000000000000000000002E2E2AA1
:10F9A2002A7823782358587C7C2D2D0000000000F3
:10F9B200002E2E6F6F4F4F6F6F000000000000008F
:10F9C20000000000000000803F0000C03F474D548F
:10F9D2000000AAB83FC623F6B80040763F20256350
:10F9E200202C256C752C25342E34662C25342E348F
:10F9F200662C25342E34662C25342E34662C253480
:10FA02002E33662C25342E33662C25342E33662C69
:10FA120025342E33662C25342E33662C25342E3392
:10FA2200662C25342E33662C25342E33662C253451
:10FA32002E33662C25642C25642C25322E36662C1A
:10FA420025342E33662C25642C25642C256C752CCC
:10FA5200256C752C25342E33662C25342E33662CDA
:10FA620025342E33662C25640D0A004A616E4665E4
:10FA7200624D61724170724D61794A756E4A756C60
:10FA82004175675365704F63744E6F7644656300CA
:10FA9200532563432025642052554E202564205669
:10FAA20025322E32662020202020202020002564AE
:10FAB2002025642025642025642020202020202069
:10FAC200202020202020202020004C4F414420577D
:10FAD2002025332E3266204C412025322E326620DC
:10FAE20020202020200052312025322E336620256E
:10FAF200332E346620202020202020202020202089
:10FB02000052322025322E33662025332E346620D1
:10FB1200202020202020202020202000204D65733E
:10FB22006720256420537461636B202564202020A4
:10FB320020202020200042562025322E34662043E9
:10FB42004325642020202020202020202020200067
:10FB52005320532563432025642025322E3466200A
:10FB620020202020202020202000424154542057D1
:10FB72002025332E32662020202020202020202005
:10FB8200202000455352202025322E366620202088
:10FB92002020202020202020202000523120253229
:10FBA2002E33662025332E3466202020202020206C
:10FBB20020200052322025322E33662025332E3467
:10FBC200662020202020202020200042414820259D
:10FBD200332E3266205025332E32662020202020FC
:10FBE2002020002020202020202020202020202033
:10FBF2002020202020202020200045535220202594
:10FC0200322E366620202020202020202020202076
:10FC12000053746174696320534F4320256420208C
:10FC220020202020202020004241542049574820F3
:10FC320025342E3166202020202020202020004242
:10FC42004154204F57482025342E31662020202051
:10FC5200202020202000424154205457482025349F
:10FC62002E316620202020202020202000494E56C0
:10FC7200202057482025332E3266202020202020A5
:10FC8200202020004C4F41442057482025332E325B
:10FC9200662020202020202020200050562025638E
:10FCA2002057482025332E32662020202020202075
:10FCB20020004D50505420572025332E32662025E7
:10FCC2006420202020202020004261747465727913
:10FCD2002041682025332E3266202020202020005B
:10FCE20042562025322E32662042412025322E32C3
:10FCF2006620202020200043562025322E32662006
:10FD020043412025322E32662020202020005056EA
:10FD12002025322E32662050412025322E32662096
:10FD2200202020200053756E4D6F6E547565576507
:10FD320064546875467269536174002025642025F5
:10FD4200642020202020202020202020202020206D
:10FD52000020256C6420256C642020202020202097
:10FD620020202020202000546F20454550524F4D26
:10FD720020202020202020202020202000426174EA
:10FD820074657279204553522020202020202020A3
:10FD920020200043616C63756C6174696F6E202072
:10FDA20020202020202020200043616C69627261A3
:10FDB20074696F6E202020202020202020200053F4
:10FDC200656E736F72205A65726F2020202020208A
:10FDD20020202020005A65726F2043616C205365F9
:10FDE200742020202020202020200042617474658D
:10FDF200727920616E64205056202020202020201D
:10FE020000436865636B696E672025632025632064
:10FE1200202020202020002054696D6520256C754B
:10FE22002C20256C75202020202020200053656E78
:10FE3200736F722052656164696E6773202020209F
:10FE4200202000436865636B203330207365636F45
:10FE52006E64732020202020005A65726F204F7537
:10FE620074204F662052616E676520202020002595
:10FE7200642025322E34662C2025642020545249D9
:10FE82004D2020200053746162696C69747920638B
:10FE92006C6F636B20256420202000486973746FA7
:10FEA2007279204461746120205361766564202058
:10FEB2000048454C5020257320202020202020205F
:10FEC200202020202000444953504C4159202573C2
:10FED2002020202020202020202000204E5341538B
:10FEE200504F4F4B20202020202020202020200077
:10FEF2002056657273696F6E2025732020202020A2
:10FF02002020202000505620256320572025332E04
:10FF120032662020202020202000204D424D432008
:10FF2200534F4C41524D4F4E202020202020005252
:10FF320065616420454550524F4D20444154412053
:10FF42002020200052656C656173652062757474AF
:10FF52006F6E20256320202000496E76616C6964F3
:10FF620020454550524F4D204441544120004845C0
:10FF72004C502025732020202020202020202020CB
:10FF82000025642025322E34662C20256420202072
:10FF920023200025642025322E346620202025646B
:10FFA20020202000767465726D2025783A2578200D
:10FFB2002020004D6172203236203230323000254E
:10FFC20073202020202020200031383A31323A316B
:10FFD2003200312E333600494E46004E414E006902
:10FFE2006E66006E616E006C58006C64006C660098
:0DFFF2006C69006C75006C780025730000D0
:020000040001F9
:10000000130EE126000EE222FA0EE36AFD0EE36A09
:10001000FC0EE36AE32AFB0EE36AE3823FEC16F090
:10002000D28ED28C0101006B2C0EE66E010EE66EB4
:1000300034EC19F0CBA004D0FE0EE36AE32A04D01E
:10004000FE0EE36AE380E382FE0EE304D8A407D049
:10005000BD80000E01019C6F460E9B6F04D0BD90C9
:1000600001019B6B9C6B60006FF6E6FF600073F60E
:10007000E6FFD3EC1CF01FEF85F0EAEC19F0DCECA6
:1000800009F00C0EE66E5BEC1DF035EC0CF0010E89
:10009000E66E3BEC1DF0010EE66E33EC1DF0FE0E3D
:1000A0006F008CFF00F1A50EE66E070EE66E4FECBA
:1000B00019F0000EE66E8BEC1CF01C0EE66EFF0EC7
:1000C000E66E000EE66E000EE66E4AEC1AF0600078
:1000D000AFF0E6FF6000B3F0E6FF040EE66EA2ECC0
:1000E00005F0D40EE66EFF0EE66EF20EE66EFE0E24
:1000F000E66E000EE66E010EE66E4AEC1AF0600047
:10010000AFF0E6FF6000B3F0E6FF060EE66EA2EC8D
:1001100005F0DD0EE66EFE0EE66E000EE66E020ED9
:10012000E66E4AEC1AF06000AFF0E6FF6000B3F054
:10013000E6FF040EE66EA2EC05F0E70EE66EFB0E9F
:10014000E66E000EE66E030EE66E4AEC1AF06000F4
:10015000AFF0E6FF6000B3F0E6FF040EE66EA2EC3F
:1001600005F0E70EE66EFB0EE66E010EE66E000E83
:10017000E66E4AEC1AF06000AFF0E6FF6000B3F004
:10018000E6FF040EE66EA2EC05F0E70EE66EFB0E4F
:10019000E66E010EE66E010EE66E4AEC1AF06000A5
:1001A000AFF0E6FF6000B3F0E6FF040EE66EA2ECEF
:1001B00005F0E70EE66EFB0EE66E010EE66E020E31
:1001C000E66E4AEC1AF06000AFF0E6FF6000B3F0B4
:1001D000E6FF040EE66EA2EC05F0E70EE66EFB0EFF
:1001E000E66E010EE66E030EE66E4AEC1AF0600053
:1001F000AFF0E6FF6000B3F0E6FF040EE66EA2EC9F
:1002000005F0E70EE66EFB0EE66E020EE66E000EE1
:10021000E66E4AEC1AF06000AFF0E6FF6000B3F063
:10022000E6FF040EE66EA2EC05F0E70EE66EFB0EAE
:10023000E66E020EE66E010EE66E4AEC1AF0600003
:10024000AFF0E6FF6000B3F0E6FF040EE66EA2EC4E
:1002500005F0E70EE66EFB0EE66E020EE66E020E8F
:10026000E66E4AEC1AF06000AFF0E6FF6000B3F013
:10027000E6FF040EE66EA2EC05F0E70EE66EFB0E5E
:10028000E66E020EE66E030EE66E4AEC1AF06000B1
:10029000AFF0E6FF6000B3F0E6FF040EE66EA2ECFE
:1002A00005F0000EE66E0DECFEF0E80EE66E030EB5
:1002B000E66E34EC19F0FA0EE66E000EE66E0A0EEB
:1002C000E66E09EC18F0C80EE66E000EE66E010E42
:1002D000E66E09EC18F0B80EE66E0B0EE66E070E31
:1002E000E66E09EC18F0DC0EE66E050EE66E0B0EFF
:1002F000E66E09EC18F0B80EE66E0B0EE66E090E0F
:10030000E66E09EC18F0D9EC13F05CEC1CF0E80E8A
:10031000E66E030EE66E34EC19F060ECF3F02B5051
:10032000D8B47CD0CFEC12F0460EE66E0C0EE66E22
:10033000010EE66EDFEC11F02B50D8B45AD0000E4F
:10034000E66E000EE66E37EC15F0E5526F009CFF8E
:1003500042F0E5526F009CFF41F0E5526F009CFFB8
:1003600040F0E5526F009CFF3FF0E5526F009CFFAC
:100370003EF0E5526F009CFF3DF0E5526F009CFFA0
:100380003CF0E5526F009CFF3BF023EE56F0DE5050
:100390003B5CDE503C58DE503D58DE503E58DE504F
:1003A0003F58DE504058DE5041584250800A2B6E74
:1003B000DE50800A2B58D8B01CD023EE56F06F00C8
:1003C0007BFFE6FF6F007BFFE6FF6F007BFFE6FF32
:1003D0006F007BFFE6FF6F007BFFE6FF6F007BFF98
:1003E000E6FF6F007BFFE6FF6F007BFFE6FF19EC87
:1003F00019F0310EE66EFF0EE66E000EE66E020E8E
:10040000E66E4AEC1AF06000AFF0E6FF6000B3F071
:10041000E6FF040EE66EA2EC05F014D05B0EE66E6D
:10042000FF0EE66E000EE66E020EE66E4AEC1AF065
:100430006000AFF0E6FF6000B3F0E6FF040EE66E8A
:10044000A2EC05F0000EE66E0DECFEF0B9EC1DF02E
:10045000D9EC13F0D00EE66E070EE66E34EC19F010
:10046000000EE66E060EE66E69ECBCF06000AFF0C2
:10047000E6FF6000B3F0E6FF6000B7F0E6FF600063
:10048000BBF0E6FF28ECD7F02B500101B16FB15162
:10049000D8B406D0B129D8B403D0010EB76F01D0BB
:1004A000B76BFF0EE36AE32A51ECF8F00101B1519A
:1004B000E66E000EE66E000EE66E040EE66E69EC69
:1004C000BCF06000AFF0E6FF6000B3F0E6FF600054
:1004D000B7F0E6FF6000BBF0E6FF380EE66EFB0EFD
:1004E000E66E000EE66E010EE66E4AEC1AF0600053
:1004F000AFF0E6FF6000B3F0E6FF0A0EE66EA2EC96
:1005000005F022EEF5F36F007BFFE6FF6F007BFF47
:10051000E6FF6F007BFFE6FF6F007BFFE6FFFB0E51
:10052000E350E66E000EE66E000EE66E050EE66E19
:100530009DEC07F02B50E66E000EE66E520EE66E56
:10054000FB0EE66E000EE66E020EE66E4AEC1AF048
:100550006000AFF0E6FF6000B3F0E6FF0C0EE66E61
:10056000A2EC05F0000EE66E0DECFEF0B9EC1DF00D
:10057000D9EC13F0D00EE66E070EE66E34EC19F0EF
:10058000FF0E6F008CFF36F0362A6000DBF0E3FFD1
:1005900036061E0E36601AD022EEF5F36F007BFF92
:1005A000E6FF6F007BFFE6FF6F007BFFE6FF6F005B
:1005B0007BFFE6FF420EE66E600EE66E650EE66EAF
:1005C0003C0EE66EF9ECFBF02BA06ED766EC15F056
:1005D00076ECEAF0000EE66E3BEC1DF0000EE66EE7
:1005E00033EC1DF023EE43F06F0078FF35F06F0021
:1005F00074FF36F06000D7F0E6FF6000DBF0E6FF46
:10060000130EE66EFC0EE66E000EE66E000EE66E53
:100610004AEC1AF06000AFF0E6FF6000B3F0E6FFCE
:10062000060EE66EA2EC05F023EE1DF06F007BFFD8
:10063000E6FF6F007BFFE6FF6F007BFFE6FF6F00CA
:100640007BFFE6FFCB0EE66EFC0EE66E000EE66E5E
:10065000010EE66E4AEC1AF06000AFF0E6FF6000B3
:10066000B3F0E6FF080EE66EA2EC05F0E50EE66ECE
:10067000FB0EE66E000EE66E020EE66E4AEC1AF017
:100680006000AFF0E6FF6000B3F0E6FF040EE66E38
:10069000A2EC05F0000EE66E0DECFEF0D00EE66E5C
:1006A000070EE66E34EC19F07F0EE66EFD0EE66E78
:1006B000000EE66E000EE66E4AEC1AF06000AFF037
:1006C000E6FF6000B3F0E6FF040EE66EA2EC05F074
:1006D000950EE66EFD0EE66E000EE66E010EE66EFF
:1006E0004AEC1AF06000AFF0E6FF6000B3F0E6FFFE
:1006F000040EE66EA2EC05F0450EE66EFE0EE66E0A
:10070000000EE66E020EE66E4AEC1AF06000AFF0E4
:10071000E6FF6000B3F0E6FF040EE66EA2EC05F023
:10072000000EE66E0DECFEF0010E356E000E366E1C
:10073000F70E6000D7F0E3FFF80E6000DBF0E3FF98
:10074000F90EE36A6DD06E0EE66E000EE66E34ECC6
:1007500019F0F30E6F008FFFE6FF6F008FFFE6FFCB
:100760006F008FFFE6FF6F008FFFE6FF90EC0CF04D
:100770006000AFF0E6FF6000B3F0E6FF6000B7F0A6
:10078000E6FF6000BBF0E6FF8DECFAF06000ACF035
:1007900036F0F90E6000DBF0E3FF000EE66EF80EB7
:1007A000E350E66E9DEC07F02B50E66E000EE66E11
:1007B000000EE66E000EE66E9DEC07F02B50E66E26
:1007C000000EE66E030EE66EFE0EE66E000EE66EA0
:1007D000020EE66E4AEC1AF06000AFF0E6FF600031
:1007E000B3F0E6FF080EE66EA2EC05F0000EE66E32
:1007F0000DECFEF0E150F70FD96EE250DA6EFF0E0D
:10080000DA226F007CFF35F0010EDE266F007CFFE0
:1008100036F0000EDD223504020E3658D8B017D05F
:10082000000EE66EA8ECE2F0F30E6000AFF0E3FF1E
:10083000F40E6000B3F0E3FFF50E6000B7F0E3FFE5
:10084000F60E6000BBF0E3FFF60EE3BE7CD723EEAE
:1008500015F06F007BFFE6FF6F007BFFE6FF6F0088
:100860007BFFE6FF6F007BFFE6FFFC0EE66EFB0EF4
:10087000E66E000EE66E000EE66E4AEC1AF06000C0
:10088000AFF0E6FF6000B3F0E6FF080EE66EA2EC04
:1008900005F023EEA7F06F007BFFE6FF6F007BFF04
:1008A000E6FF6F007BFFE6FF6F007BFFE6FF23EEB6
:1008B000B3F06F007BFFE6FF6F007BFFE6FF6F008A
:1008C0007BFFE6FF6F007BFFE6FFE80EE66EFA0EA9
:1008D000E66E000EE66E010EE66E4AEC1AF060005F
:1008E000AFF0E6FF6000B3F0E6FF0C0EE66EA2ECA0
:1008F00005F023EEABF06F007BFFE6FF6F007BFFA0
:10090000E6FF6F007BFFE6FF6F007BFFE6FF23EE55
:10091000B7F06F007BFFE6FF6F007BFFE6FF6F0025
:100920007BFFE6FF6F007BFFE6FF030EE66EFB0E2C
:10093000E66E000EE66E020EE66E4AEC1AF06000FD
:10094000AFF0E6FF6000B3F0E6FF0C0EE66EA2EC3F
:1009500005F0000EE66E0DECFEF0A00EE66E0F0E3A
:10096000E66E34EC19F0040EE66E61EC1AF02B50D2
:10097000D8B402D0010E01D0000E0101B56FE80E0F
:10098000E66E030EE66E34EC19F00101B551D8B4F1
:100990000FD0040EE66E61EC1AF02B50D8B408D0DC
:1009A000C0ECD2F0A00EE66E0F0EE66E34EC19F03D
:1009B000000EE66E000EE66E37EC15F0E5526F00A5
:1009C0009CFF42F0E5526F009CFF41F0E5526F0042
:1009D0009CFF40F0E5526F009CFF3FF0E5526F0036
:1009E0009CFF3EF0E5526F009CFF3DF0E5526F002A
:1009F0009CFF3CF0E5526F009CFF3BF06000ECF088
:100A000033F06000F0F034F06000F4F035F0600096
:100A1000F8F036F0580E33240101856F020E3420B1
:100A2000866F000E3520876F000E3620886FB56BFD
:100A3000010EB86F1CD0DB811AD0006B18D00101F9
:100A40000051356E366A3650000AD8A4F6D73550B4
:100A5000000AD8B43DEF80F0010AD8B408D0020AE9
:100A6000D8B405D0070AD8B4E6D7010AE6D7010EF4
:100A7000E66EB6EC1AF02B50D8B413D0FCECFFF0B5
:100A80002B50D8B40ED027EC06F0B9EC1DF0D9EC01
:100A900013F0C80EE66E000EE66E010EE66E09EC6F
:100AA00018F00A0EE66EB6EC1AF02B50D8B4F8EF38
:100AB0008BF0090EE66EB6EC1AF02B50D8B404D0C9
:100AC000000EE66E9AEC1CF0000EE66E000EE66E6E
:100AD00037EC15F0E5526F009CFF42F0E5526F00D5
:100AE0009CFF41F0E5526F009CFF40F0E5526F0023
:100AF0009CFF3FF0E5526F009CFF3EF0E5526F0017
:100B00009CFF3DF0E5526F009CFF3CF0E5526F000A
:100B10009CFF3BF06000ECF0D2F06000F0F0D3F00E
:100B20006000F4F0D4F06000F8F0D5F06000FCF064
:100B3000D6F0600000F1D7F0600004F1D8F060005A
:100B400008F1D9F0D20EE66EEBEC1CF06000ACF0D0
:100B5000BAF06000B0F0BBF06000EBF2E6FF6000BE
:100B6000EFF2E6FF09ECC9F06000AFF0E6FF6000CD
:100B7000B3F0E6FF750EE66EFF0EE66E000EE66E53
:100B8000030EE66E4AEC1AF06000AFF0E6FF60007C
:100B9000B3F0E6FF060EE66EA2EC05F06000EBF2A5
:100BA000E6FF6000EFF2E6FF09ECC9F06000AFF08D
:100BB000E6FF6000B3F0E6FF750EE66EFF0EE66E30
:100BC000010EE66E030EE66E4AEC1AF06000AFF01E
:100BD000E6FF6000B3F0E6FF060EE66EA2EC05F05D
:100BE00094ECCBF022EEF1F36F007BFFE6FF6F0099
:100BF0007BFFE6FF6F007BFFE6FF6F007BFFE6FFFA
:100C000028ECD7F02B500101B16F23EEBCF0DF5080
:100C1000D8B4D7D0000E6F00A0FFBCFCB3EC1DF021
:100C2000010E356E000E366EF10E6000D7F0E3FF58
:100C3000F20E6000DBF0E3FF010EE66EA8ECE2F0DE
:100C40001CD06E0EE66E000EE66E34EC19F0E1502C
:100C5000F10FD96EE250DA6EFF0EDA226F007CFFE0
:100C600035F0010EDE266F007CFF36F0000EDD222F
:100C70003504020E3658D8B006D0000EE66EA8EC49
:100C8000E2F02EBEDED7FAECD4F0460EE66E0C0E85
:100C9000E66E000EE66EDFEC11F05BEC00F09D0EF0
:100CA000E66EFE0EE66E000EE66E000EE66E4AEC96
:100CB0001AF06000AFF0E6FF6000B3F0E6FF040E4C
:100CC000E66EA2EC05F0690EE66EFD0EE66E000E15
:100CD000E66E010EE66E4AEC1AF06000AFF0E6FF39
:100CE0006000B3F0E6FF040EE66EA2EC05F023EE22
:100CF00052F06F007BFFE6FF6F007BFFE6FF6F00A7
:100D00007BFFE6FF6F007BFFE6FF000EE66E000E46
:100D1000E66E37EC15F0E5526F009CFF42F0E552AD
:100D20006F009CFF41F0E5526F009CFF40F0E552E0
:100D30006F009CFF3FF0E5526F009CFF3EF0E552D4
:100D40006F009CFF3DF0E5526F009CFF3CF0E552C8
:100D50006F009CFF3BF06000EFF0E6FF6000F3F0F7
:100D6000E6FF6000F7F0E6FF6000FBF0E6FF6000E2
:100D7000FFF0E6FF600003F1E6FF600007F1E6FF29
:100D800060000BF1E6FF190EE66EFE0EE66E000E39
:100D9000E66E020EE66E4AEC1AF06000AFF0E6FF77
:100DA0006000B3F0E6FF100EE66EA2EC05F0000E58
:100DB000E66E0DECFEF0D00EE66E070EE66E34EC3D
:100DC00019F0000EE66E12EC0BF02B50D8B40AD0DE
:100DD000530EE66E3AEC1CF0050EE66E1DEC17F0B5
:100DE00062EC1DF0010EE66E12EC0BF02B50D8B445
:100DF0000AD0530EE66E3AEC1CF0010EE66E1DECC6
:100E000017F062EC1DF0C30EE66E010EE66E6FEC9D
:100E1000E5F08CEF8BF0B36B23EEBBF0DF50D8A482
:100E200002D0200E01D0440E356E000E366EEF0E4D
:100E30006000D7F0E3FFF00E6000DBF0E3FF23EE8D
:100E400005F06F007BFFE6FF6F007BFFE6FF6F00A2
:100E50007BFFE6FF6F007BFFE6FFEB0E6F008FFF6F
:100E6000E6FF6F008FFFE6FF070EE66EFF0EE66EF1
:100E7000000EE66E000EE66E4AEC1AF06000AFF06F
:100E8000E6FF6000B3F0E6FF0A0EE66EA2EC05F0A6
:100E900022EEC1F36F007BFFE6FF6F007BFFE6FFF2
:100EA0006F007BFFE6FF6F007BFFE6FF22EEFDF3A6
:100EB0006F007BFFE6FF6F007BFFE6FF6F007BFFAD
:100EC000E6FF6F007BFFE6FFCC0EE66EFA0EE66EE5
:100ED000000EE66E010EE66E4AEC1AF06000AFF00E
:100EE000E6FF6000B3F0E6FF0C0EE66EA2EC05F044
:100EF0000101B151E66E000EE66E23EE0DF06F00BB
:100F00007BFFE6FF6F007BFFE6FF6F007BFFE6FFE6
:100F10006F007BFFE6FFB40EE66EFC0EE66E000E81
:100F2000E66E020EE66E4AEC1AF06000AFF0E6FFE5
:100F30006000B3F0E6FF0A0EE66EA2EC05F023EEC9
:100F4000BBF0DF50D8A402D0200E01D0440E356E85
:100F5000000E366EED0E6000D7F0E3FFEE0E60007F
:100F6000DBF0E3FF23EE35F06F007BFFE6FF6F0061
:100F70007BFFE6FF6F007BFFE6FF6F007BFFE6FF76
:100F8000E90E6F008FFFE6FF6F008FFFE6FF9D0EFB
:100F9000E66EFC0EE66E010EE66E000EE66E4AECA4
:100FA0001AF06000AFF0E6FF6000B3F0E6FF0A0E53
:100FB000E66EA2EC05F023EE3DF06F007BFFE6FF4E
:100FC0006F007BFFE6FF6F007BFFE6FF6F007BFF9C
:100FD000E6FF860EE66EFC0EE66E010EE66E010E74
:100FE000E66E4AEC1AF06000AFF0E6FF6000B3F086
:100FF000E6FF080EE66EA2EC05F023EE39F06F0076
:101000007BFFE6FF6F007BFFE6FF6F007BFFE6FFE5
:101010006F007BFFE6FF6F0EE66EFC0EE66E010EC4
:10102000E66E020EE66E4AEC1AF06000AFF0E6FFE4
:101030006000B3F0E6FF080EE66EA2EC05F082D386
:10104000B36B030EE66E22EEADF36F007BFFE6FF9F
:101050006F007BFFE6FF6F007BFFE6FF6F007BFF0B
:10106000E6FF19EC05F06000AFF0E6FF6000B3F0BA
:10107000E6FF6000B7F0E6FF6000BBF0E6FF010EA0
:10108000E66E22EE95F36F007BFFE6FF6F007BFFBD
:10109000E6FF6F007BFFE6FF6F007BFFE6FF19ECCA
:1010A00005F06000AFF0E6FF6000B3F0E6FF60001F
:1010B000B7F0E6FF6000BBF0E6FF100EE66EFD0E37
:1010C000E66E000EE66E000EE66E4AEC1AF0600068
:1010D000AFF0E6FF6000B3F0E6FF0C0EE66EA2ECA8
:1010E00005F022EE81F36F007BFFE6FF6F007BFFD0
:1010F000E6FF6F007BFFE6FF6F007BFFE6FF010E60
:10110000E66E22EE91F36F007BFFE6FF6F007BFF40
:10111000E6FF6F007BFFE6FF6F007BFFE6FF19EC49
:1011200005F06000AFF0E6FF6000B3F0E6FF60009E
:10113000B7F0E6FF6000BBF0E6FFE20EE66EFC0EE5
:10114000E66E000EE66E010EE66E4AEC1AF06000E6
:10115000AFF0E6FF6000B3F0E6FF0C0EE66EA2EC27
:1011600005F022EE85F36F007BFFE6FF6F007BFF4B
:10117000E6FF6F007BFFE6FF6F007BFFE6FF010EDF
:10118000E66E22EE89F36F007BFFE6FF6F007BFFC8
:10119000E6FF6F007BFFE6FF6F007BFFE6FF19ECC9
:1011A00005F06000AFF0E6FF6000B3F0E6FF60001E
:1011B000B7F0E6FF6000BBF0E6FFF90EE66EFC0E4E
:1011C000E66E000EE66E020EE66E4AEC1AF0600065
:1011D000AFF0E6FF6000B3F0E6FF0C0EE66EA2ECA7
:1011E00005F023EE2DF06F007BFFE6FF6F007BFF25
:1011F000E6FF6F007BFFE6FF6F007BFFE6FF2A0E36
:10120000E66EFC0EE66E010EE66E000EE66E4AEC31
:101210001AF06000AFF0E6FF6000B3F0E6FF080EE2
:10122000E66EA2EC05F023EE31F06F007BFFE6FFE7
:101230006F007BFFE6FF6F007BFFE6FF6F007BFF29
:10124000E6FF410EE66EFC0EE66E010EE66E010E46
:10125000E66E4AEC1AF06000AFF0E6FF6000B3F013
:10126000E6FF080EE66EA2EC05F023EE31F06F000B
:101270007BFFE6FF6F007BFFE6FF6F007BFFE6FF73
:101280006F007BFFE6FF23EE2DF06F007BFFE6FF94
:101290006F007BFFE6FF6F007BFFE6FF6F007BFFC9
:1012A000E6FF8BECB8F06000AFF0E6FF6000B3F053
:1012B000E6FF6000B7F0E6FF6000BBF0E6FF580E07
:1012C000E66EFC0EE66E010EE66E020EE66E4AEC6F
:1012D0001AF06000AFF0E6FF6000B3F0E6FF080E22
:1012E000E66EA2EC05F02ED2B36B23EE09F06F0090
:1012F0007BFFE6FF6F007BFFE6FF6F007BFFE6FFF3
:101300006F007BFFE6FF6C0EE66EFB0EE66E000ED6
:10131000E66E000EE66E4AEC1AF06000AFF0E6FFF3
:101320006000B3F0E6FF080EE66EA2EC05F023EED7
:1013300021F06F007BFFE6FF6F007BFFE6FF6F0091
:101340007BFFE6FF6F007BFFE6FF23EE1DF06F00E3
:101350007BFFE6FF6F007BFFE6FF6F007BFFE6FF92
:101360006F007BFFE6FFCD0EE66EFB0EE66E000E15
:10137000E66E010EE66E4AEC1AF06000AFF0E6FF92
:101380006000B3F0E6FF0C0EE66EA2EC05F022EE74
:1013900091F36F007BFFE6FF6F007BFFE6FF6F00BE
:1013A0007BFFE6FF6F007BFFE6FF23EE41F06F005F
:1013B00078FF35F06F0074FF36F06000D7F0E6FF7D
:1013C0006000DBF0E6FF23EE43F06F0078FF35F0BE
:1013D0006F0074FF36F06000D7F0E6FF6000DBF0CE
:1013E000E6FF000EE66E050EE66E9DEC07F02B5054
:1013F000E66E000EE66E920EE66EFA0EE66E000ED9
:10140000E66E020EE66E4AEC1AF06000AFF0E6FF00
:101410006000B3F0E6FF0E0EE66EA2EC05F023EEE0
:1014200015F06F007BFFE6FF6F007BFFE6FF6F00AC
:101430007BFFE6FF6F007BFFE6FF850EE66EFB0E8F
:10144000E66E010EE66E000EE66E4AEC1AF06000E3
:10145000AFF0E6FF6000B3F0E6FF080EE66EA2EC28
:1014600005F023EEA7F06F007BFFE6FF6F007BFF28
:10147000E6FF6F007BFFE6FF6F007BFFE6FF23EEDA
:10148000B3F06F007BFFE6FF6F007BFFE6FF6F00AE
:101490007BFFE6FF6F007BFFE6FF9D0EE66EFB0E17
:1014A000E66E010EE66E010EE66E4AEC1AF0600082
:1014B000AFF0E6FF6000B3F0E6FF0C0EE66EA2ECC4
:1014C00005F023EEABF06F007BFFE6FF6F007BFFC4
:1014D000E6FF6F007BFFE6FF6F007BFFE6FF23EE7A
:1014E000B7F06F007BFFE6FF6F007BFFE6FF6F004A
:1014F0007BFFE6FF6F007BFFE6FFB50EE66EFB0E9F
:10150000E66E010EE66E020EE66E4AEC1AF0600020
:10151000AFF0E6FF6000B3F0E6FF0C0EE66EA2EC63
:1015200005F010D1B351D8A42DD0FF0EE66EFC0EFD
:10153000E350E66E000EE66E000EE66E000EE66EFE
:10154000000EE66E45ECF4F0FF0EE66EFB0EE35087
:10155000E66E000EE66E000EE66E000EE66E000E03
:10156000E66E45ECF4F0FF0EE66EFA0EE350E66E22
:10157000000EE66E000EE66E000EE66E000EE66EE3
:1015800045ECF4F0010E0101B36FFA0EE350356E35
:10159000366A010E3526000E36226000D7F0E6FFCF
:1015A0006000DBF0E6FFFB0EE350040D810EF32438
:1015B000D96E0B0EF420DA6E6F007BFFE6FF6F0032
:1015C0007BFFE6FF6F007BFFE6FF6F007BFFE6FF20
:1015D000F70EE350E66E9DEC19F06000AFF0E6FF09
:1015E0006000B3F0E6FF710EE66EFE0EE66E000ED2
:1015F000E66E000EE66E4AEC1AF06000AFF0E6FF11
:101600006000B3F0E6FF0C0EE66EA2EC05F0FA0EF9
:10161000E350356E366A020E3526000E3622600023
:10162000D7F0E6FF6000DBF0E6FFFA0EE350040DB2
:10163000810EF324D96E0B0EF420DA6E6F007BFF5F
:10164000E6FF6F007BFFE6FF6F007BFFE6FF6F00AA
:101650007BFFE6FFF60EE350E66E9DEC19F06000AE
:10166000AFF0E6FF6000B3F0E6FF710EE66EFE0E2F
:10167000E66E000EE66E010EE66E4AEC1AF06000B1
:10168000AFF0E6FF6000B3F0E6FF0C0EE66EA2ECF2
:1016900005F0FA0EE350356E366A030E3526000E5D
:1016A00036226000D7F0E6FF6000DBF0E6FFF90EBF
:1016B000E350040D810EF324D96E0B0EF420DA6E84
:1016C0006F007BFFE6FF6F007BFFE6FF6F007BFF95
