:020000040000FA
:0400000057EF00F0C6
:100008003D153D153D153D153D153D153D153D1558
:100018003D153D153D153D153D153D153D153D1548
:100028003D153D153D153D153D153D153D153D1538
:100038003D153D153D156B1462143D153D153D15D7
:100048003D153D153D153D152B003D153D153D153F
:100058003D153D153D153D153D153D153D153D1508
:100068003D153D1586147D143D153D153D153D1571
:100078003D153D152B003D153D153D152B002B005D
:100088002B002B002B002B002B002B00F2133D150F
:1000980046143D153D153D152B002B002B002B005C
:0A00A8003D153D15FF00D1EF24F0D7
:102000000020482025692C204D20256920202020F3
:1020100020002053636F72652025692025692020E8
:10202000202000535720257320506C617921003106
:102030002E30320052300D0054320D0043340D006A
:1020400046340D004D340D0058510D00257300002D
:10205000000E00019D6FC8EC27F0D28ED28C000ECE
:102060000101B36F000EB46F000EB66F000EB56FB6
:1020700010EC25F00C0E62EC2AF0000E076E630ED9
:10208000066EADEC27F0030E076EE80E066E010E2D
:10209000FFEC27F0C6EC20F0840E0001646F656B46
:1020A000230E666F2F0E676F6751D8A4200E686FDE
:1020B00050EC26F0000E0E6E840E0F6E106A000EAD
:1020C00042EC29F00101D251D45DD66FD351D559DC
:1020D000D76F000E376E000E386E7F0E396E430ECE
:1020E0003A6E20EED6F16F0078FF06F06F0074FFB5
:1020F00007F0000E07BEFF0E086E096E010EADEC74
:102100001DF0600018F03BF060001CF03CF0600037
:1021100020F03DF0600024F03EF07EEC19F060000D
:10212000DCF0D8F16000E0F0D9F16000E4F0DAF121
:102130006000E8F0DBF1010E0101DD6FFE0EDC6FE7
:1021400044EC24F0D4EC1AF00009D8A4A9A307D0D9
:10215000000E0F6E010E0E6EBA5176EC15F00101F5
:10216000A9B3C4D0AF510209AF6FB0A140D0040EE3
:10217000B2EC28F00009D8B43AD00101AF510409FB
:10218000AF6FCD0E066E010E076E77EC28F00009DA
:10219000D8B402D00101BB2B0101CA51D8B424D05C
:1021A000C4510001826F0101C5510001836F010E0E
:1021B0000101C45F000EC55B0001835115E1020EF1
:1021C000825DD8B011D0000E0101C56F0A0EC46F38
:1021D000010ECB6F020EBA6F000EC76F000EC66FF6
:1021E000BDC1BEF1010ECC6F000E0101CA6F01012D
:1021F000B0AF40D0040EB2EC28F00009D8B43AD009
:102200000101AF510109AF6FCE0E066E010E076ED0
:1022100077EC28F00009D8B402D00101BB2B0101F2
:10222000CA51D8B424D0C4510001826F0101C551F4
:102230000001836F010E0101C45F000EC55B000148
:10224000835115E1020E825DD8B011D0000E01015C
:10225000C56F0A0EC46F010ECB6F020EBA6F000E6F
:10226000C76F000EC66FBDC1BEF1010ECC6F000E70
:102270000101CA6F6000C0F682F07E0E0001821775
:10228000D8B45ED7050EB2EC28F00009D8B458D700
:10229000CF0E066E010E076E77EC28F00009D8B459
:1022A0004FD70101BC2BCA51D8B44AD720EEBCF19C
:1022B0006F007CFF82F0010EDF261A0E000182659E
:1022C0003FD720EEBDF16F007CFF82F0010EDF5E94
:1022D0000A0E826103D00A0E0101BD6F000E0101DA
:1022E000C76F0A0EC66F000ECA6F2AD7010E076E9F
:1022F000F40E066E040EFFEC27F0000E076E190EAA
:10230000066E050EFFEC27F00101BA51D8A409D0E2
:10231000AF51FD0BAF6FAF51FB0BAF6FAF51FE0B6A
:10232000AF6F030EBA19D8A437D0070EB2EC28F05D
:102330000009D8B431D00101AF51FD0BAF6FAF51DF
:10234000FB0BAF6FAF51FE0BAF6F600020F706F0D5
:10235000600024F707F0ADEC27F020EEBFF16F002E
:102360007CFF82F0010EDF26400E0001826514D052
:102370003FEC20F01E50D16FD151066E076A06BEA9
:102380000706000E096E040E086E8DEC24F0065050
:102390000101D16F000EBF6F010E0101CA6F010E66
:1023A000CD6F010ECE6F010ECF6F060EB2EC28F08E
:1023B0000009D8B4C5D60101DFBF16D0DF5103E153
:1023C000DE05D8A011D0BA51D8A40ED0000EC36F2C
:1023D000030EC26F750E076E300E066E080EFFEC10
:1023E00027F0010E0101CC6F080EB2EC28F00009B5
:1023F000D8B407D0000E0101C36F000EC26F010EEA
:10240000CC6FC2C1BAF10101CC51D8B499D6000E3B
:10241000CC6F000EBB6F000EBC6F320EBD6F90D63E
:102420001950800B226E19501924246E18BE248076
:102430002450D8B40DD02428D8A408D0000E166E8D
:10244000000E176E000E186E000E196E188E08D052
:10245000000E166E000E176E000E186E000E196E2E
:102460001D50800B221A1D501D24236E1CBE23807C
:102470002350D8B40DD02328D8A408D0000E1A6E4B
:10248000000E1B6E000E1C6E000E1D6E1C8E08D002
:10249000000E1A6E000E1B6E000E1C6E000E1D6EDE
:1024A0002350D8B403D02450D8A409D0000E166EFF
:1024B000000E176E000E186E000E196E12001C50E2
:1024C00016026F00CCFF2DF06F00D0FF2EF02D50C4
:1024D000256E266A276A286A2E50296E2A6A2B6A78
:1024E0002C6A1B5017026F00CCFF2DF06F00D0FF3D
:1024F0002EF02D502526000E2622272228222E508F
:102500002926000E2A222B222C221A5018026F0094
:10251000CCFF2DF06F00D0FF2EF02D502526000EA1
:102520002622272228222E502926000E2A222B225C
:102530002C2260009CF028F0600098F027F06000EA
:1025400094F026F0256A1A5017026F00CCFF2DF088
:102550006F00D0FF2EF02D5025262E502622000E83
:102560002722000E28221B5016026F00CCFF2DF0F0
:102570006F00D0FF2EF02D5025262E502622000E63
:102580002722000E282260009CF028F0600098F0BE
:1025900027F0600094F026F0256A1A5016026F00AA
:1025A000CCFF2DF06F00D0FF2EF02D5025262E50A1
:1025B0002622000E2722000E28221C5017026F0030
:1025C000CCFF2DF06F00D0FF2EF02D5029262E507D
:1025D0002A22000E2B22000E2C221B5018026F0004
:1025E000CCFF2DF06F00D0FF2EF02D5029262E505D
:1025F0002A22000E2B22000E2C221C5018026F00E3
:10260000CCFF2DF06F00D0FF2EF02D501E6E2E50FF
:102610001F6E206A216A600080F021F060007CF06B
:1026200020F0600078F01FF01E6A1E5029261F500F
:102630002A2220502B2221502C2228502926000EFD
:102640002A222B222C2260009CF028F0600098F0B7
:1026500027F0600094F026F0256A2350600090F087
:102660001EF01F6A1E26000E1F22820E1E242D6ED3
:10267000FF0E1F202E6E0FD0D89029362A362B360B
:102680002C3628BE2980D89025362636273628367F
:102690002D06D8A02E062BAEEFD7000E236E28AE47
:1026A00017D0FF0E25141E6EFF0E26141F6EFF0E90
:1026B0002714206E7F0E2814216E1E501F1020102C
:1026C0002110D8B403D0010E236E02D029B0FBD75D
:1026D0002350D8B427D0010E2926000E2A222B22FF
:1026E0002C222CA01FD06000A4F01EF06000A8F0E7
:1026F0001FF06000ACF020F06000B0F021F0213459
:10270000213220321F321E32600078F029F0600042
:102710007CF02AF0600080F02BF0600084F02CF058
:102720002D4A2E2A2EBE0DD02E5003E12D28D8A0E2
:1027300008D0000E296E000E2A6E800E2B6E7F0EC2
:1027400021D02EBE05D02E500EE12D04D8B00BD0D6
:10275000000E296E000E2A6E000E2B6E000E2C6EDF
:10276000000E226E10D06000B4F024F0FF0E291687
:10277000FF0E2A167F0E2B16000E2C1624B02B8E61
:10278000D89024302C6E22502C126000A4F016F049
:102790006000A8F017F06000ACF018F06000B0F036
:1027A00019F012000950800B126E09500924146EA2
:1027B00008BE14801450D8B40DD01428D8A408D062
:1027C000000E066E000E076E000E086E000E096EFB
:1027D000088E06D0000E066E000E076E000E086E04
:1027E000000E096E0D50800B136E12501318D8A4F2
:1027F000128C0D500D24136E0CBE13801350D8B4E0
:102800000DD01328D8A408D0000E0A6E000E0B6E4F
:10281000000E0C6E000E0D6E0C8E06D0000E0A6EB1
:10282000000E0B6E000E0C6E000E0D6E1450135C3D
:10283000D8B031D012AC02D0800E121A600050F025
:1028400015F060004CF014F0600054F013F06000DC
:1028500018F015F0600028F006F0600054F00AF05F
:1028600060001CF015F060002CF007F0600054F0E0
:102870000BF0600020F015F0600030F008F0600010
:1028800054F00CF0600024F015F0600034F009F012
:10289000600054F00DF0000E156E145060004CF006
:1028A0000EF00F6A0E5E000E0F5A0FBE2DD00F50A5
:1028B00004E11A0E0E5CD8A027D0065007100810AD
:1028C0000910D8B402D0010E01D0000E156E000E12
:1028D000066E000E076E000E086E000E096E600098
:1028E0004CF014F015D015A005D0D8901530010982
:1028F000156E02D0D890153206B0158E0934093203
:10290000083207320632142A1350145CD8A0EBD7D1
:1029100012BC28D01450D8A409D0000E066E000EA8
:10292000076E000E086E000E096E12000A50062691
:102930000B5007220C5008220D50092209A071D01B
:1029400015A005D0D89015300109156E02D0D89089
:10295000153206B0158E09340932083207320632B4
:10296000142A5FD00A50065C0B5007580C500858C8
:102970000950800A0E6E0D50800A0E58D8B025D02E
:1029800006500A5C0E6E07500B580F6E08500C581C
:10299000106E09500D58116EFF0E0E24066EFF0EBC
:1029A0000F20076EFF0E1020086EFF0E1120096E1B
:1029B000800E121A156C1550D8A40FD0010E0626E1
:1029C000000E07220822092208D00A50065E0B508A
:1029D000075A0C50085A0D50095A06500710081093
:1029E0000910D8A41CD01550D8A419D0000E066E1A
:1029F000000E076E000E086E000E096E1200D890D1
:102A0000063607360836093615BE068015A002D0F0
:102A1000D88001D0D89015361450D8A4140608AE2A
:102A2000EED7000E136E15AE0CD0600054F00EF011
:102A30007F0E0E16D8B403D0010E136E02D006B06E
:102A4000FBD71350D8B428D0010E0626000E07225B
:102A50000822092209A020D0600018F00EF06000C2
:102A60001CF00FF0600020F010F0600024F011F076
:102A70001134113210320F320E32600038F006F08D
:102A800060003CF007F0600040F008F0600044F0A7
:102A900009F01428D8A4142A1428D8B403D0145048
:102AA000D8A40DD0000E066E000E076E000E086E44
:102AB000000E096E1450D8A402D0000E126E14A09D
:102AC00002D0088E01D0089ED8901430096E12BE34
:102AD000098E600018F006F060001CF007F060003E
:102AE00020F008F0600024F009F01200126E1204C9
:102AF000D8A403D0A9C1B0F11200020E1218D8A4B4
:102B000010D00101CB51D8B409D0000ECB6F750E97
:102B1000076E300E066E060EFFEC27F00101B02B9B
:102B200012001250D8A45AD001018E51106E8F514C
:102B3000116E8E4B8F2B0E50105C0F501158D8A079
:102B40004DD0ADC0B0F10001AC51D8B40CD0A05103
:102B5000A111D8B408D0D890A035A06FA135A16F2D
:102B6000AD51AD2519D0A051A111D8B412D060003B
:102B700080F206F0600084F207F0000E096E020E8B
:102B8000086E8DEC24F0600018F0A0F060001CF0DE
:102B9000A1F00001D890AD31AD6FA1BF06D0A15119
:102BA0000AE1020EA05DD8B006D0000EA16F020EA1
:102BB000A06F010E0DD0A1BF0CD0A15104E1810E78
:102BC000A05DD8A006D0000EA16F800EA06F000EF1
:102BD000AC6F000E01018F6F000E8E6F030E121886
:102BE000D8A412000101DFAF0AD0890EDE5DFF0E0E
:102BF000DF59D8B004D0800EB06F000EB86FDFAFD1
:102C000006D0890EDE5DFF0EDF59D8A00CD0DFAFF5
:102C10000AD0B00EDE5DFF0EDF59D8B004D0400EF2
:102C2000B06F000EB86FDFAF06D0B00EDE5DFF0EE6
:102C3000DF59D8A00CD0DFAF0AD0E20EDE5DFF0E68
:102C4000DF59D8B004D0200EB06F000EB86FDFAFE0
:102C500006D0E20EDE5DFF0EDF59D8A01BD0DFAF3D
:102C600019D0FB0EDE5DFF0EDF59D8B013D0B8517E
:102C7000D8B40BD0AF510109AF6FBD07010E076E7D
:102C8000F40E066E070EFFEC27F0100E0101B06F78
:102C9000000EB86FDFAF06D0FB0EDE5DFF0EDF5912
:102CA000D8A025D0DFBF06D0DF5121E1060EDE5DC2
:102CB000D8B01DD0B805D8B415D0AF510209AF6F48
:102CC000070EB2EC28F00009D8B405D0320E01018D
:102CD000BD6101D0BD2B010E076EF40E066E070E0E
:102CE000FFEC27F0000E0101B06F010EB86FDFBFDF
:102CF00022D0DF5104E1060EDE5DD8A01CD0DFBF7C
:102D000006D0DF5118E11E0EDE5DD8B014D0020EE1
:102D1000B819D8B40CD0AF510409AF6F010E076ECB
:102D2000F40E066E070EFFEC27F00101BD07080E3A
:102D3000B06F020EB86FDFBF12D0DF5104E11E0E7C
:102D4000DE5DD8A00CD0DFBF06D0DF5108E1500E09
:102D5000DE5DD8B004D0040EB06F020EB86FDFBFD6
:102D600012D0DF5104E1500EDE5DD8A00CD0DFBFE1
:102D700006D0DF5108E1780EDE5DD8B004D0020E37
:102D8000B06F020EB86FDFBF1200DF5104E1780EA2
:102D9000DE5DD8A01200010EB06F020EB86F1200F7
:102DA000000165BF13D0655104E1080E645DD8A031
:102DB0000DD0600080F160F0600084F161F060008F
:102DC00088F162F060008CF163F0120066516711C7
:102DD000D8B408D00A0E6C6FD70E6D6F230E6E6FCD
:102DE0003C0E07D0000E6C6F000E6D6F800E6E6F84
:102DF0003E0E6F6F000E1A6E000E1B6EC80E1C6E1C
:102E0000420E1D6E000E506E010E516ED89064354C
:102E1000D96E6535DA6ED890D936DA365050D92663
:102E20005150DA226F0078FF16F06F0078FF17F02C
:102E30006F0078FF18F06F0078FF19F010EC12F0B7
:102E4000600058F033F060005CF034F0600060F037
:102E500035F0600064F036F0000E1A6E000E1B6E46
:102E6000C80E1C6E420E1D6E600080F116F06000F0
:102E700084F117F0600088F118F060008CF119F00F
:102E800010EC12F0600058F02FF060005CF030F0B1
:102E9000600060F031F0600064F032F077EC25F013
:102EA0006000BCF068F06000C0F069F06000C4F041
:102EB0006AF06000C8F06BF06000B0F11AF06000DA
:102EC000B4F11BF06000B8F11CF06000BCF11DF023
:102ED0006000A0F116F06000A4F117F06000A8F106
:102EE00018F06000ACF119F010EC12F0600058F02E
:102EF0000AF060005CF00BF0600060F00CF0600025
:102F000064F00DF0000E1A6E000E1B6EC80E1C6EE3
:102F1000420E1D6E000E506E010E516ED8900001D3
:102F20006435D96E6535DA6ED890D936DA365050B8
:102F3000D9265150DA226F0078FF16F06F0078FF23
:102F400017F06F0078FF18F06F0078FF19F010ECA1
:102F500012F0600058F006F060005CF007F06000CE
:102F600060F008F0600064F009F0D2EC13F060004B
:102F700018F037F060001CF038F0600020F039F0F5
:102F8000600024F03AF0000E3B6E000E3C6EC80E5E
:102F90003D6E420E3E6E7EEC19F06000DCF070F08B
:102FA0006000E0F071F06000E4F072F06000E8F0C2
:102FB00073F0000E506E010E516ED8900001643512
:102FC000D96E6535DA6ED890D936DA365050D926B2
:102FD0005150DA226000C3F1DEFF6000C7F1DEFF6E
:102FE0006000CBF1DEFF6000CFF1DEFF662923E158
:102FF0006729D8A420D0000E706F000E716F000EEC
:10300000726F000E736F000E506E010E516ED890ED
:103010006435D96E6535DA6ED890D936DA365050C7
:10302000D9265150DA22000EDE6E000EDE6E000E42
:10303000DE6E000EDD6E6000C0F160F06000C4F175
:1030400061F06000C8F162F06000CCF163F0120042
:10305000600094F03DF0600098F03EF060009CF05D
:103060003FF06000A0F040F06000A4F041F060008C
:10307000A8F042F06000ACF043F06000B0F044F023
:1030800044AE02D0010E01D0000E3B6E3C6A3B50B4
:103090003C10D8B410D0441E431E421E411E401E98
:1030A0003F1E3E1E3D6C000E3E223F22402241222A
:1030B0004222432244229FAF56929FBF05D09F5188
:1030C00008E19E05D8B005D0000E386E010E376EAF
:1030D00006D0600078F237F060007CF238F06000D3
:1030E00030F639F0600034F63AF03B503C10D8A48A
:1030F00002D056A403D03906D8A03A06000E466E78
:103100001F0E456E000E02019F6F9ED04506D8A08F
:103110004606800E4524D96E020E4620DA6E600007
:10312000F4F006F06000F8F007F06000FCF008F042
:10313000600000F109F0600004F10AF0600008F19D
:103140000BF060000CF10CF0600010F10DF00A0EB5
:103150000E6E000E0F6E000E106E000E116E000E41
:10316000126E000E136E000E146E000E156E0BEC38
:103170001FF0600018F02DF060001CF02EF06000D1
:1031800020F02FF0600024F030F0600028F031F0E3
:1031900060002CF032F0600030F033F0600034F06A
:1031A00034F06000B4F018F06000BCF019F01BECD3
:1031B00027F01850300FDF6E3706D8A038063906D2
:1031C000D8A03A066000F4F006F06000F8F007F0CE
:1031D0006000FCF008F0600000F109F0600004F10C
:1031E0000AF0600008F10BF060000CF10CF06000D8
:1031F00010F10DF00A0E0E6E000E0F6E000E106E26
:10320000000E116E000E126E000E136E000E146E84
:10321000000E156E5FEC1EF0600018F03DF06000CF
:103220001CF03EF0600020F03FF0600024F040F021
:10323000600028F041F060002CF042F0600030F0B7
:1032400043F0600034F044F046BE1FD0465003E126
:103250004504D8A01AD03D503E103F1040104110F8
:10326000421043104410D8A451D738BE05D038506E
:1032700002E13704D8B04AD73ABE07D03A5003E14A
:103280003904D8A002D056B241D73B503C10D8A444
:1032900002D056A418D04506D8A046063B503C1094
:1032A000D8A404D0000E366E2B0E03D0000E366E5E
:1032B0002D0E356E800E4524D96E020E4620DA6E34
:1032C0006000D7F0DFFF60008CF018F0600090F035
:1032D00019F0800E45241A6E020E46201B6E600007
:1032E000E4F01CF06000E8F01DF0FCEC21F0600060
:1032F00060F023F0600064F024F012003A50800B7C
:10330000476E3A503A244E6E39BE4E804E50D8B475
:103310000DD04E28D8A408D0000E376E000E386E9F
:10332000000E396E000E3A6E398E06D0000E376EE2
:10333000000E386E000E396E000E3A6E3E50800B55
:10334000471A3E503E244F6E3DBE4F804F50D8B47A
:103350000DD04F28D8A408D0000E3B6E000E3C6E56
:10336000000E3D6E000E3E6E3D8E06D0000E3B6E92
:10337000000E3C6E000E3D6E000E3E6E3B503C104B
:103380003D103E10D8A41BD0000E376E000E386ED4
:10339000000E396E000E3A6E800E39127F0E3A1210
:1033A00047503A126000DCF037F06000E0F038F08F
:1033B0006000E4F039F06000E8F03AF012004E509E
:1033C000D8A409D0000E376E000E386E000E396E8C
:1033D000000E3A6E12004F50600038F13FF0406A24
:1033E0003F5E000E405A7F0E3F24486E000E402084
:1033F000496E6000DCF043F06000E0F044F06000F3
:10340000E4F045F06000E8F046F0000E376E000E84
:10341000386E000E396E000E3A6E000E4A6E000EC7
:103420004B6E000E4C6E000E4D6E000E4F6E28D08F
:103430004F50D8B411D0D89043364436453646362E
:10344000D8903736383639363A364DBE3780D89030
:103450004A364B364C364D363B50435C3C50445814
:103460003D5045583E504658D8A009D04D8C3B5051
:10347000435E3C50445A3D50455A3E50465A4F2AAE
:10348000190E4F64D5D74350441045104610D8B498
:1034900011D04A800FD0D8903736383639363A3680
:1034A0004DBE3780D8904A364B364C364D3648069E
:1034B000D8A0490639AEEFD7000E4F6E4DAE17D0EB
:1034C000FF0E4A143F6EFF0E4B14406EFF0E4C145D
:1034D000416E7F0E4D14426E3F504010411042101D
:1034E000D8B403D0010E4F6E02D037B0FBD74F5087
:1034F000D8B427D0010E3726000E382239223A22BE
:103500003AA01FD06000DCF03FF06000E0F040F037
:103510006000E4F041F06000E8F042F042344232F2
:10352000413240323F326000FCF037F0600000F181
:1035300038F0600004F139F0600008F13AF0484AD0
:10354000492A49BE10D0495003E14828D8A00BD0E1
:10355000000E496E4868000E376E000E386E000E81
:10356000396E000E3A6E49BE05D0495011E148044B
:10357000D8B00ED0000E496E000E486E000E376EA9
:10358000000E386E000E396E000E3A6E000E476E59
:10359000600020F14EF04EA002D0398E01D0399E4D
:1035A000D8904E303A6EFCD6000E0001816F030EAB
:1035B000B2EC28F00009D8A405D0000E0101B56FC7
:1035C000000E12000101C651C42500017E6F0101E9
:1035D000C751C52100017F6F0A0E7E25066E000EC1
:1035E0007F21076E030EFFEC27F0000E53EC2AF04C
:1035F0005BEC2AF00009D8B4FBD749EC2AF0600054
:1036000018F0C0F160001CF0C1F1600000F77AF022
:10361000600004F77BF0A5EC1FF0000EB76F70ECB4
:103620002AF00009D8B440D098EC26F00001816F50
:1036300021D0530E8119D8A437D0010E18D0520EC4
:103640008119D8A431D0020E12D0510E8119D8A4FC
:103650002BD0030E0CD0200E8119D8A425D0040E37
:1036600006D0600004F2B9F1050E01D0000E010190
:10367000B76F1AD00101B75100017E6F7F6B7F5188
:10368000000AD8A4F3D77E51000AD8B4D2D7010AD1
:10369000D8B4D5D7030AD8B4D8D7010AD8B4DBD761
:1036A000070AD8B4DED7E2D7440EDBEC26F00101DE
:1036B000B251DBEC26F00101B151DBEC26F0010147
:1036C000B051DBEC26F00101AF51DBEC26F001013B
:1036D000AE51DBEC26F00D0EDBEC26F04C0E0001BB
:1036E000646F340E656F6551D8A4200E666F91EC3F
:1036F00029F0010EB46F020EB56F000E076EFA0EC0
:10370000066E020EFFEC27F015D0020EB2EC28F088
:103710000009D8B40FD0600088F206F0076A91EC77
:1037200027F00001A22B030EA26502D0000EA26FAB
:10373000060E44D770EC2AF00009D8B4E6D7000E84
:10374000806F000E076EFA0E066E020EFFEC27F079
:1037500015D070EC2AF00009D8B410D098EC26F0FF
:1037600000017E6F8051AD08D96E000ED8A0E82A06
:103770000108DA6E6000FBF1DFFF802B020EB2EC75
:1037800028F00009D8A404D0050E00018065E1D717
:10379000020EB2EC28F00009D8A404D0060E0001F5
:1037A00080610AD0600088F206F0076A91EC27F089
:1037B0000001A22B100EB8D770EC2AF00009D8A493
:1037C00098EC26F0010E0101B36F030EB56F020EE7
:1037D000B66F000E076EC70E066E91EC27F0050E51
:1037E0000101B56F010E12004950D96EDA6A6F00FF
:1037F0007FFFF6FF200EF76E000EF86E0800F55002
:10380000250AD8A4D5D04950D96EDA6ADF2A000E2D
:1038100001018D6F000E8C6F600030F656F0600075
:1038200034F657F000019E699F694950D96EDA6AF3
:103830006F007FFFF6FF200EF76E000EF86E080097
:10384000F550640AD8B40FD04950D96EDA6A6F00C7
:103850007FFFF6FF200EF76E000EF86E0800F550A1
:10386000690AD8A442D04950D96EDA6ADF2A4A5090
:10387000D96EDA6ADF50DF2ADF2AD96EDA6A6F0082
:1038800078FF4BF06F0074FF4CF0000E4CBEFF0E43
:103890004D6E4E6E4F6E506E516E526E60001CF14A
:1038A00023F0600020F124F060002CF125F060008E
:1038B00030F126F0600034F127F0600038F128F094
:1038C00060003CF129F0600040F12AF0600044F112
:1038D0002BF0600048F12CF028EC18F060008CF020
:1038E00047F0600090F048F012004950D96EDA6A53
:1038F0006F007FFFF6FF200EF76E000EF86E0800D7
:10390000F550730AD8A427D04950D96EDA6ADF2A55
:103910004A50D96EDA6A020EDF26DF5CD96EDA6AA7
:103920006F0078FF53F06F0078FF54F060001CF1D7
:1039300011F0600020F112F060004CF113F0600013
:1039400050F114F0F3EC1CF0600044F047F060001C
:1039500048F048F012004950D96EDA6A6F007FFFD4
:10396000F6FF200EF76E000EF86E0800F550250ADF
:10397000D8A415D04950D96EDA6ADF2A000E096E34
:10398000250E086E60001CF10AF0600020F10BF0BB
:10399000ACEC22F0000E486E010E476E120049504A
:1039A000D96EDA6ADF2A000E486E000E476E1200EA
:1039B0004950D96EDA6A6F007FFFF6FF200EF76E6E
:1039C000000EF86E0800F550086E096A60001CF1E0
:1039D0000AF0600020F10BF0ACEC22F04950D96EF7
:1039E000DA6ADF2AD7D720EE9EF110EE16F0060E27
:1039F0006F006FFFE3FFE806FBE260004CF021F090
:103A0000600050F022F021502210D8A403D0160EEE
:103A1000216E226A600084F006F0600088F007F0F2
:103A200002EC26F0600018F025F060001CF026F093
:103A3000600078F223F060007CF224F024BE10D005
:103A40002550235C2450800A156E2650800A155894
:103A5000D8B006D060008CF025F0600090F026F021
:103A6000600094F023F0600098F024F0600030F6DD
:103A70001FF0600034F620F056A00FD018D0000ED2
:103A8000096E200E086E600044F00AF0600048F0F5
:103A90000BF0ACEC22F0254A262A1F50255C26505C
:103AA000800A156E2050800A1558D8A0E8D7000E5D
:103AB0001E6E000E1D6E25D0600087F0F6FF6000C0
:103AC0008BF0F7FF000EF86E1F0EF76403D00800AE
:103AD000F55007D06F00DBFFE1FF6F00DFFFE2FF73
:103AE000E750156E1550086E096A600044F00AF040
:103AF000600048F00BF0ACEC22F0214A222A1D4A6B
:103B00001E2A23501D5C1E50800A156E2450800A08
:103B10001558D8A0D1D756B00FD018D0000E096EC6
:103B2000200E086E600044F00AF0600048F00BF0D0
:103B3000ACEC22F0254A262A1F50255C2650800A2C
:103B4000156E2050800A1558D8A0E8D7600094F070
:103B500011F0600098F012F012000E6E0E50D8A412
:103B600009AE22D0600018F00AF060001CF00BF0E3
:103B7000600020F00CF0600024F00DF00A1E0B1E17
:103B80000C1E0D1E0A2A000E0B220C220D226000B4
:103B900028F010F060002CF011F0600030F012F00E
:103BA000600034F013F00CD0600018F010F06000EA
:103BB0001CF011F0600020F012F0600024F013F00F
:103BC0000650071008100910D8A409D0000E066E80
:103BD000000E076E000E086E000E096E1200960EA3
:103BE0000F6E06D00F2AD8901332123211321032D3
:103BF000000E10140A6E000E11140B6E000E12143B
:103C00000C6EFE0E13140D6E0A500B100C100D10DE
:103C1000D8B40DD0E7D70F2A010E1026000E1122BE
:103C200012221322D8901332123211321032000EA7
:103C300010140A6E000E11140B6E000E12140C6E8E
:103C4000FF0E13140D6E0A500B100C100D10D8B48B
:103C500007D0E1D70F06D89010361136123613363A
:103C600012BE03D0020E0F60F5D70FA0129ED8909F
:103C70000F3260003CF00AF00B6A0C6A0D6A6000BB
:103C800028F00DF00C6A0B6A0A6A0A5010120B50E9
:103C900011120C5012120D5013120E50D8A409AE6E
:103CA00001D0138E600040F006F0600044F007F091
:103CB000600048F008F060004CF009F01200000EBF
:103CC000176E15AE12D0151E141E131E121E111ED5
:103CD000101E0F1E0E6C000E0F2210221122122237
:103CE000132214221522010E176E0DAE12D00D1ED6
:103CF0000C1E0B1E0A1E091E081E071E066C000E57
:103D00000722082209220A220B220C220D22010E70
:103D1000171A20EE18F0070EDE6AE806FDE20E50D4
:103D20000F10101011101210131014101510D8B419
:103D300046D0010E166E0AD0D8900E360F361036C9
:103D400011361236133614361536162A15AEF4D738
:103D5000D890183619361A361B361C361D361E36C4
:103D60001F360E50065C0F5007581050085811505F
:103D7000095812500A5813500B5814500C5815502B
:103D80000D58D8A011D00E50065E0F50075A105093
:103D9000085A1150095A12500A5A13500B5A14500B
:103DA0000C5A15500D5A1880D8901532143213320F
:103DB0001232113210320F320E32162EC9D717506E
:103DC000D8B410D01F1E1E1E1D1E1C1E1B1E1A1E28
:103DD000191E186C000E19221A221B221C221D22E9
:103DE0001E221F22600060F006F0600064F007F001
:103DF000600068F008F060006CF009F0600070F09E
:103E00000AF0600074F00BF0600078F00CF06000D5
:103E10007CF00DF01200000E176E0DAE12D00D1ECC
:103E20000C1E0B1E0A1E091E081E071E066C000E25
:103E30000722082209220A220B220C220D22010E3F
:103E4000176E15AE10D0151E141E131E121E111E55
:103E5000101E0F1E0E6C000E0F22102211221222B5
:103E60001322142215220E500F10101011101210D0
:103E7000131014101510D8B43CD0010E166E0AD0D1
:103E8000D8900E360F3610361136123613361436D9
:103E90001536162A15AEF4D70E50065C0F5007588B
:103EA000105008581150095812500A5813500B5806
:103EB00014500C5815500D58D8A010D00E50065E56
:103EC0000F50075A1050085A1150095A12500A5AE6
:103ED00013500B5A14500C5A15500D5AD8901532D5
:103EE000143213321232113210320F320E32162EB9
:103EF000D3D71750D8B410D00D1E0C1E0B1E0A1E9F
:103F0000091E081E071E066C000E07220822092241
:103F10000A220B220C220D22600018F006F060002D
:103F20001CF007F0600020F008F0600024F009F0B9
:103F3000600028F00AF060002CF00BF0600030F018
:103F40000CF0600034F00DF012000101D2510001BC
:103F50007A5D0101D35100017B59D8B006D06000D1
:103F600048F77AF060004CF77BF0600060F71AF0D9
:103F7000600064F71BF0600068F71CF060006CF7ED
:103F80001DF00101D25100017A5D7C6F0101D35116
:103F900000017B597D6F6000F0F106F06000F4F1E4
:103FA00007F0086A096A000EADEC1DF0600018F019
:103FB00016F060001CF017F0600020F018F06000B0
:103FC00024F019F010EC12F0600058F074F060006A
:103FD0005CF075F0600060F076F0600064F077F0FF
:103FE0003AEC21F06000D0F1DEF16000D4F1DFF1B5
:103FF000000E676F010E666F000E656F000E646F36
:104000000101D151066E000E06BEFF0E076E086E4E
:10401000096E010EADEC1DF0600018F060F060005C
:104020001CF061F0600020F062F0600024F063F0AA
:10403000D0EC16F0600080F174F0600084F175F04F
:10404000600088F176F060008CF177F03AEC21F0B6
:1040500074517C6F7D6B7CBF7D070101DE510001D7
:104060007C270101DF5100017D23810E7C250101A8
:10407000DE6FFF0E00017D210101DF6F1200600085
:1040800058F606F060005CF607F0600060F608F095
:10409000600064F609F0600068F60AF060006CF6F3
:1040A0000BF0600070F60CF0600074F60DF02D0E51
:1040B0000E6E7F0E0F6E950E106E4C0E116E2D0E45
:1040C000126EF40E136E510E146E580E156EF7EC40
:1040D00023F0600018F020F060001CF021F0600078
:1040E00020F022F0600024F023F0600028F024F09B
:1040F00060002CF025F0600030F026F0600034F015
:1041000027F0010E20240101966F000E2120976FE9
:10411000000E2220986F000E2320996F000E24209D
:104120009A6F000E25209B6F000E26209C6F000EBC
:1041300027209D6F600058F620F060005CF621F0AB
:10414000600060F622F0600064F623F0600068F61C
:1041500024F060006CF625F0600070F626F0600038
:1041600074F627F0320E09D0D89027322632253245
:1041700024322332223221322032E82EF5D7600059
:1041800080F01EF0600088F01FF012004C0E00015D
:10419000646F480E656F6551D8A4200E666F91EC70
:1041A00029F0000E0C6E050E0B6E61EC28F04C0E23
:1041B0000001646F380E656F6551D8A4200E666FDC
:1041C00091EC29F0030E0C6E200E0B6E61EC28F0C2
:1041D0004C0E0001646F3C0E656F6551D8A4200E33
:1041E000666F91EC29F0000E0C6E050E0B6E61EC03
:1041F00028F04C0E0001646F400E656F6551D8A425
:10420000200E666F91EC29F0000E0C6E050E0B6E01
:1042100061EC28F04C0E0001646F440E656F65512F
:10422000D8A4200E666F91EC29F0000E0C6E050EDE
:104230000B6E61EC28F0010E0101B66F70EC2AF0F4
:104240000009D8A498EC26F0010E0101B56F000E0C
:10425000B76F000EB96F000EC16F000EC06F3B0E3E
:1042600053EC2AF0000E076E0A0E066E030EFFECEA
:1042700027F01200000176357735796F7951D8A48F
:1042800009D0000E746F000E756F000E766F000E71
:10429000776F12006000D0F152F06000D4F153F05B
:1042A0006000D8F154F06000DCF155F0200E05D02C
:1042B000D8905532543253325232E82EF9D75250F8
:1042C000786F768FFF0E7417FF0E7517FF0E761737
:1042D000000E7717960E795F79AF0DD07951800A6D
:1042E000970FD8A0CED7D890773376337533743301
:1042F000793FF9D70DD01F0E796507D0C2D7D89076
:10430000743775377637773779077951D8A4F7D767
:104310007851D8B408D0771F761F751F746D000EC2
:104320007523762377236000D0F174F06000D4F118
:1043300075F06000D8F176F06000DCF177F01200E3
:104340009397B20E066E460E076E000E086E0DECC9
:104350002AF09399300E066E500E076E000E086E0E
:1043600003EC2AF0000E3D01EC6F000EED6F000E25
:10437000EE6F000EEF6F000EF06F000EF16F900EFB
:10438000F26F800EF36F000EF46F400EF56F030EA8
:10439000F66F000EF76F000EF86F000EF96F000E4B
:1043A000FA6FF80E066E540E076E000E086E21ECC2
:1043B0002AF0F60E066E540E076E000E086E17EC0D
:1043C0002AF0E60E066E540E076E000E086E2BECF9
:1043D0002AF0000E0101956F000E0001AB6F000E78
:1043E000AA6F080EA96F000E5A6E000EA86F000E7D
:1043F000A76F39019387120056A00ED0600068F0B5
:1044000011F060006CF012F0600060F013F06000DA
:1044100064F014F0FCEC26F01DBE07D0600070F0D4
:1044200021F0600074F022F004D0000E226E000E25
:10443000216E000E206E000E1F6E0ED0000E096E53
:10444000200E086E600060F00AF0600064F00BF06F
:10445000ACEC22F01F4A202A21501F5C2050800A19
:104460001E6E2250800A1E58D8A0E8D756B00ED033
:10447000600068F011F060006CF012F0600060F015
:1044800013F0600064F014F0FCEC26F0600068F0BB
:1044900006F060006CF007F002EC26F021500624D4
:1044A000186E22500720196E120039019695500E91
:1044B000066E470E076E000E086EDBEC29F096972D
:1044C000620E066E500E076E000E086ED1EC29F0DB
:1044D000000E3D01D46F000ED66F000ED86FB00EE7
:1044E000DA6F800EDB6F000EDC6F400EDD6F030EA7
:1044F000DE6F000EDF6F000EE06F000EE16F000E4A
:10450000E26FFC0E066E540E076E000E086EEFECA6
:1045100029F0FA0E066E540E076E000E086EE5ECDA
:1045200029F0EC0E066E540E076E000E086EF9ECC4
:1045300029F0000E0101946F000E0001A66F000E1D
:10454000A56F080EA46F000E596E000E586E000E77
:10455000A36F3901968512000A500B10D8B404D00D
:104560000A500B10D8A404D0085067EC2AF01200AF
:1045700020EE04F00A50D9260B50DA22DE50DE106D
:10458000D8B416D020EE04F00A50D9260B50DA2207
:1045900010EE02F00A50E1260B50E222DE50E65CFB
:1045A000E650800A106EDE50800A1058D8B0120013
:1045B00020EE02F00A50D9260B50DA226F0078FF65
:1045C0000CF06F0074FF0DF060002BF0D9FF60005D
:1045D0002FF0DAFF6F0078FF0EF06F0074FF0FF01E
:1045E0000C500E24D96E0D500F20DA6E600023F0AF
:1045F000DFFF20EE02F00A50D9260B50DA22DE2A25
:10460000000EDD221200010EBE6E020EBD6E000E07
:10461000BA6E000EBB6E060EBC6E060EC66EC2688B
:10462000BF0EC36E910EC46EFD0EC56EFD0E3A0137
:10463000706F000E606F3F0E506F060E806F406906
:10464000000E716F000E816F000E516F000E416FF2
:10465000000E616F000E5A6F000E5B6F000E6A6FE6
:10466000000E6B6F000E7A6F000E7B6F000E826F74
:10467000000E426F000E526F000E626F000E726FDE
:104680004369536963697369070E836F0F0EE86F9F
:10469000130EDE6F160E0E6F1E0E136F100E196FB7
:1046A0001F0E156F130E166F170EE56F140EDF6FCA
:1046B00012004A0E5A24D96EDA6A010EDA22000E6E
:1046C000DF6E3D01F9A714D04A0E5A24D96EDA6A7A
:1046D000010EDA220101DF8201D80AD00500FA6E4C
:1046E0007B51FD6E7C51FE6E7D51FF6EFA501200C3
:1046F0003D01F9A314D04A0E5A24D96EDA6A010E8C
:10470000DA220101DF8401D80AD00500FA6E78515F
:10471000FD6E7951FE6E7A51FF6EFA5012004A0E0C
:104720005A24D96EDA6A010EDA22DF50D8B40DD0DD
:1047300001D812000500FA6E01017551FD6E765127
:10474000FE6E7751FF6EFA501200E8EC28F012006E
:10475000320E5924D96EDA6A010EDA22000EDF6EAB
:104760003D01E1A714D0320E5924D96EDA6A010E48
:10477000DA220101DF8201D80AD00500FA6E7251F7
:10478000FD6E7351FE6E7451FF6EFA5012003D01C2
:10479000E1A314D0320E5924D96EDA6A010EDA225E
:1047A0000101DF8401D80AD00500FA6E6F51FD6E59
:1047B0007051FE6E7151FF6EFA501200320E592484
:1047C000D96EDA6A010EDA22DF50D8B40DD001D8E2
:1047D00012000500FA6E01016C51FD6E6D51FE6E06
:1047E0006E51FF6EFA5012001EEC29F0120020EEFE
:1047F00016F0070EDE6AE806FDE206A010D00E50A5
:1048000016260F501722105018221150192212503C
:104810001A2213501B2214501C2215501D22D8900E
:104820000E360F361036113612361336143615364C
:10483000D8900D320C320B320A320932083207326C
:10484000063206500710081009100A100B100C1041
:104850000D10D8A4D2D7600058F006F060005CF0CC
:1048600007F0600060F008F0600064F009F060009C
:1048700068F00AF060006CF00BF0600070F00CF073
:10488000600074F00DF01200010EB2EC28F0000987
:10489000D8B412000101C84BC92B000E0001646F8F
:1048A000020E656F010E666F6000ECF667F0686BD4
:1048B0006000F0F669F06A6B50EC26F0400E646F11
:1048C000020E656F120E666F6000F4F667F0686B9B
:1048D000600078F769F060007CF76AF050EC26F031
:1048E000000E0201506F000E0E6E000E0F6E020ED3
:1048F000106E010E42EC29F0000E0E6E400E0F6E8F
:10490000020E106E020E42EC29F0010E076EF40E3C
:10491000066E010EFFEC27F01200000E0B6E09AEC2
:1049200006D0086C091ED8B0092A010E0B6E07AE1E
:1049300006D0066C071ED8B0072A010E0B1A000E0F
:104940000D6E000E0C6E08500910D8B41CD0010E6C
:104950000A6E04D0D890083609360A2A09AEFAD76A
:10496000D8900C360D360850065C09500758D8A070
:1049700005D00850065E0950075A0C80D8900932BD
:1049800008320A2EEDD70B50D8B404D00C6C0D1E93
:10499000D8B00D2A600030F006F0600034F007F067
:1049A0001200740EF66E4D0EF76E000EF86E00EEED
:1049B0009EF110EE42F009006F00D7FFEEFFE550C8
:1049C000E150F9E1F20EF66E540EF76E000EF86E3D
:1049D00009006F00D4FFACF009006F00D4FFADF008
:1049E00000EE80F2200EEE6AE806FDE100EE00F136
:1049F0009E0EEE6AE806FDE100EE9EF00E0EEE6AF7
:104A0000E806FDE15A6A596A586A576A566A080EFA
:104A1000D56E000ED66E000ED76E000128EF10F096
:104A2000BC84300E066E570E076E050E086E000E23
:104A3000096E58EC27F0390E75EC27F01D0E75EC59
:104A400027F0500E75EC27F06C0E75EC27F0760E03
:104A500075EC27F0380EA0EC28F00F0E75EC27F05F
:104A6000010EA0EC28F0020E75EC27F0060E75EC96
:104A700027F0200E066E030E076E000E086E000E65
:104A8000096E58EC27F01200600028F006F0600074
:104A90002CF007F002EC26F006500C6E000E0D6EA6
:104AA000BC82BC94400E0C641DD020EE40F00A5035
:104AB000D9260B50DA22000EDF6E14D0090E066ED6
:104AC000000E076E000E086E000E096E58EC27F0FF
:104AD0000D500A24D96E000E0B20DA6EDF509FECC9
:104AE00029F00D2A0C500D5CD8B01200E7D7000E4B
:104AF000331A000E341A000E351A800E361A600072
:104B0000BCF006F06000C0F007F06000C4F008F0F0
:104B10006000C8F009F06000CCF00AF06000D0F04E
:104B20000BF06000D4F00CF06000D8F00DF0D2EC87
:104B300013F0600018F02FF060001CF030F06000FF
:104B400020F031F0600024F032F01200000E3E013F
:104B5000DE6F000EDF6F000EE06F000EE16F000EE3
:104B6000E46F000EE56F000EEA6F000EEC6F000EB2
:104B7000F16F000EF36F000EF46F000EF56F000E74
:104B8000F66F000EF76F000EF96FF40EFA6F200E3D
:104B9000FB6F000EFC6F000EFD6F000EFE6F3F0EF0
:104BA000FF6F840EF86F1200600088F155F0000E60
:104BB00001018B6F000E8A6F12D0600080F147F008
:104BC000600084F148F0550E496E60008CF14AF0A7
:104BD000F4EC1BF0475001018A2748508B236000FA
:104BE00057F1F6FF200EF76E000EF86E0800F55034
:104BF0000009D8A4E2D7600028F660F060002CF627
:104C000061F01200600018F008F060001CF009F07C
:104C100002D0064A072A60001BF0F6FF60001FF072
:104C2000F7FF000EF86E1F0EF76403D00800F55072
:104C300007D06F00DBFFE1FF6F00DFFFE2FFE7500F
:104C40000009D8A4E6D70850065C066E095007583C
:104C5000076E1200000E9B6E000E9C6E010E9D6E84
:104C6000630E996EC00E986E98506F0064FE09F046
:104C70000A6A600024F00AF0096A09100101926FC3
:104C80000A50936F3901A89D988D580E066E530EE9
:104C9000076E000E086E3FEC2AF0310E9A6E12007D
:104CA000670E6D6F600090F16EF0600094F16FF030
:104CB000000E716F000E706F000E736F000E726F3A
:104CC0006E0E606F616B600098F162F06D0E636F45
:104CD000D4EC25F0000170516425D96E7151652125
:104CE000DA6E000EDF6E1200D28A000ED2BE010E06
:104CF000066ED29E550ED46EAA0ED46ED490000EBF
:104D000038019F6F000E9E6F080E9D6F550ED46E7A
:104D1000AA0ED46ED48006B002D0D29E01D0D28E1C
:104D2000390186878685838983878981888D1200EA
:104D3000A351D8B4FDD7320E5824D96EDA6A010EC9
:104D4000DA22DF500101946F3A0E5824D96EDA6AE4
:104D5000010EDA22DF50066E582A070E586402D080
:104D6000000E586E390196950001A307390196850A
:104D700006501200286E756C6C2900AF01A9010065
:104D80000000000000000000000000000000020021
:104D9000000000320000000000000A0000000000D7
:104DA00001000001010100009001740E00000000EC
:104DB0000000000000FF066E0001A451D8B4FCD72B
:104DC000390196B704D060001BF0D2FD12D096973F
:104DD000420E0001A625D96EDA6A010EDA226000C1
:104DE0001BF0DFFFA62B070EA66502D0000EA66FF4
:104DF000A407390196871200000E176E000E166E7A
:104E00000ED0600054F008F0096A60004CF00AF01F
:104E1000600050F00BF0ACEC22F0164A172A165046
:104E20001124D96E17501220DA6EDF50156E15500E
:104E3000D8B41200E6D719BE05D0195014E11804F1
:104E4000D8B011D0600060F01AF0600064F01BF080
:104E50001A1E1B1E1A4A1B2A600068F018F0600018
:104E60006CF019F01200600060F018F0600064F05F
:104E700019F01200000E036E0350020D200EF324F1
:104E8000D96E010EF420DA6EDE50DE10D8B40BD0ED
:104E90000350020D200EF324D96E010EF420DA6EB9
:104EA000DE06000EDD5A032A080E0364E5D7120061
:104EB000000E0101626F000E636F000E646F000E42
:104EC000656F00F00400010E01016227000E6323EC
:104ED000642365236251065C635107586451085886
:104EE00065510958D8A01200ECD70A6EBC92BC9448
:104EF0000A0E066E000E076E000E086E000E096E9A
:104F000058EC27F00A509FEC29F00A0E066E000EAE
:104F1000076E000E086E000E096E58EC27F0BC827A
:104F20001200600018F008F060001CF009F0D89042
:104F300009320832D890093208320850616E600098
:104F400018F008F0030E0816060E096ED890083601
:104F5000092EFCD70850606E1200FF0E086EFF0E7F
:104F6000096E600018F00AF060001CF00BF00850A9
:104F70000A2609500B22600028F096F160002CF000
:104F800097F1986B996B9A6B9B6B9C6B9D6B120066
:104F900074EC26F053EC29F003EC23F083EC29F0B9
:104FA0006CEC2AF04AEC28F0A6EC25F02AEC26F06E
:104FB00075EC29F0C5EC29F055EC22F0A0EC21F0BD
:064FC000B9EC29F012001B
:104FC8003901A89D600048F604F060004CF605F031
:104FD80030EC29F00101904B912B915104E1320EF4
:104FE800905DD8A0110064EC29F0000E0101916FCA
:104FF800000E906F11000A6E600018F008F0600053
:105008001CF009F0D890083609360A50020D200E17
:10501800F324D96E010EF420DA6E600023F0DEFF6F
:10502800600027F0DDFF1200080E0001A96112D010
:105038005A0EAA25D96EDA6A010EDA22DF503D012E
:10504800EA6F0001AA2B070EAA6502D0000EAA6F0C
:10505800A92B1200390193991200080E0001A461CE
:1050680012D0420EA525D96EDA6A010EDA22DF5077
:105078003D01D26F0001A52B070EA56502D0000ED9
:10508800A56FA42B1200390196971200010E966E97
:10509800000E956E000E976E030E936E000E926EC4
:1050A8003901A9919981740E066E4E0E076E000E95
:1050B800086E35EC2AF09468120060002CF006F0B7
:1050C800600030F007F0000EFFEC27F005D000F08C
:1050D80000F000F000F00400000EB2EC28F0000927
:1050E800D8A41200F4D760001BF0D9FF60001FF0AD
:1050F800DAFFDF50D8B40AD060001BF0D9FF600097
:105108001FF0DAFF000EDF6E010E1200000E120013
:105118003901A991010169516A116B11D8B41100C3
:1051280001D811000500FA6E6951FD6E6A51FE6ED4
:105138006B51FF6EFA5012000A6EBC92BC940A5072
:105148009FEC29F0200E066E030E076E000E086E07
:10515800000E096E58EC27F0BC821200086E04009D
:105168000850020D200EF324D96E010EF420DA6ED9
:10517800DE50DE10D8A402D0010E1200000E12007C
:1051880001017E517F118011D8B4110001D811009E
:105198000500FA6E7E51FD6E7F51FE6E8051FF6EE6
:1051A800FA5012000101815182118311D8B4110003
:1051B80001D811000500FA6E8151FD6E8251FE6E14
:1051C8008351FF6EFA501200520E5A24D96EDA6AD1
:1051D800010EDA226F00A3F7DFFF5A2A070E5A647E
:1051E80002D0000E5A6E0001A72B12000101845153
:1051F80085118611D8B4110001D811000500FA6E86
:105208008451FD6E8551FE6E8651FF6EFA50120074
:105218000101875188118911D8B4110001D81100F2
:105228000500FA6E8751FD6E8851FE6E8951FF6E3A
:10523800FA5012003A0E5924D96EDA6A010EDA22AF
:105248006F0043F7DFFF592A070E596402D0000E9A
:10525800596E0001A32B12009AA409D09A906000FD
:1052680017F099FF600013F098FF9A801200600011
:1052780017F099FF600013F098FF1200116E11509B
:10528800100DF3500E24800F75EC27F060003CF0F1
:105298000AF0600040F00BF044EC25F01200000E1C
:1052A800C06F000EC16F000EC26F000EC36F000EFC
:1052B800C46F000EC56F000EC66F000EC76F1200D8
:1052C800665167116811D8B4120001D812000500A0
:1052D800FA6E6651FD6E6751FE6E6851FF6EFA50A8
:1052E8001200010EAE6E000EAD6E000EAF6E630EB4
:1052F800AB6E000EAA6EA495C00EAC6E1200200E06
:105308003901D96F000EDB6F000EDD6F080EDF6FFD
:10531800000EDE6FDCB11200FDD7650E696F000E5E
:10532800606F000E616F600090F162F0690E636F4C
:10533800D4EC25F01200066E010E3D01126F6000DC
:105348001BF011FD3901A2A9FDD73D011051120032
:10535800BEA002D0010E01D0000EFF0A046EBE509E
:105368000418FE0B0418BE6E1200400E3D01156FA6
:10537800030E166F0F0E196F000E1C6F820E146F3E
:105388001200800E626E310E616EC00E606E3F01BB
:105398005F513F0B40095F6F1200600018F084F105
:1053A80060001CF085F1600020F086F112006000BA
:1053B80018F087F160001CF088F1600020F089F196
:1053C8001200600018F06FF160001CF070F16000CE
:1053D80020F071F11200600018F072F160001CF00A
:1053E80073F1600020F074F11200600018F06CF1A5
:1053F80060001CF06DF1600020F06EF1120060009A
:1054080018F07EF160001CF07FF1600020F080F160
:105418001200600018F081F160001CF082F1600059
:1054280020F083F11200600018F078F160001CF0A1
:1054380079F1600020F07AF11200600018F07BF139
:1054480060001CF07CF1600020F07DF1120060002B
:1054580018F075F160001CF076F1600020F077F12B
:105468001200600018F069F160001CF06AF1600039
:1054780020F06BF11200600018F066F160001CF07B
:1054880067F1600020F068F11200F051096E086AB7
:10549800EF510824066E000E0920076E1200066EF2
:1054A80060001BF0F1FE3E01F88FF88112003E010A
:1054B800F8B102D0010E1200000E12000B6E0B5054
:1054C80075EC27F01200076E0750DBEC26F012008F
:1054D800AD0E3E01C16F12000001A3511200E8ECAD
:1054E80028F012001EEC29F0120001FF1100120032
:0654F80012001200120078
:020000040020DA
:10000000FF0FFF0FFF0FFF0FFF0FFF0FFF0FFF0F80
:020000040030CA
:0A000000AFFFFFFF9FFFFFFFFFFFB0
:00000001FF
