:020000040000FA
:0400000057EF00F0C6
:10000800D40BD40BD40BD40BD40BD40BD40BD40BF0
:10001800D40BD40BD40BD40BD40BD40BD40BD40BE0
:10002800D40BD40BD40BD40BD40BD40BD40BD40BD0
:10003800D40BD40BD40B340B2B0BD40BD40BD40B09
:10004800D40BD40BD40BD40B2B00D40BD40BD40B64
:10005800D40BD40BD40BD40BD40BD40BD40BD40BA0
:10006800D40BD40B460B3D0BD40BD40BD40BD40BB5
:10007800D40BD40B2B00D40BD40BD40B2B002B009C
:100088002B002B002B002B002B002B00B90AD40BC4
:10009800070BD40BD40BD40B2B002B002B002B00FD
:0A00A800D40BD40BFF0096EF14F008
:102000000052300D0054320D0043340D0046340DA3
:0D201000004D340D0058510D0025730000E7
:10201E0020EEF3F010EE16F0060E6F006FFFE3FFEA
:10202E00E806FBE260004CF021F0600050F022F078
:10203E0021502210D8A403D0160E216E226A600001
:10204E0084F006F0600088F007F06EEC14F060008B
:10205E0018F025F060001CF026F06000C4F323F0A9
:10206E006000C8F324F024BE10D02550235C245009
:10207E00800A156E2650800A1558D8B006D060001A
:10208E008CF025F0600090F026F0600094F023F0C4
:10209E00600098F024F06000BCF31FF06000C0F305
:1020AE0020F047A00FD018D0000E096E200E086E3B
:1020BE00600044F00AF0600048F00BF0E1EC13F021
:1020CE00254A262A1F50255C2650800A156E205060
:1020DE00800A1558D8A0E8D7000E1E6E000E1D6E91
:1020EE0025D0600087F0F6FF60008BF0F7FF000E42
:1020FE00F86E1F0EF76403D00800F55007D06F007E
:10210E00DBFFE1FF6F00DFFFE2FFE750156E1550BA
:10211E00086E096A600044F00AF0600048F00BF0A7
:10212E00E1EC13F0214A222A1D4A1E2A23501D5C7F
:10213E001E50800A156E2450800A1558D8A0D1D78B
:10214E0047B00FD018D0000E096E200E086E60003A
:10215E0044F00AF0600048F00BF0E1EC13F0254A71
:10216E00262A1F50255C2650800A156E2050800AA4
:10217E001558D8A0E8D7600094F011F0600098F0E0
:10218E0012F012002950D96EDA6A6F007FFFF6FF47
:10219E00200EF76E000EF86E0800F550250AD8A432
:1021AE0074D02950D96EDA6ADF2A000E0001F06F62
:1021BE00000EEF6F6000BCF347F06000C0F348F014
:1021CE00F169F2692950D96EDA6A6F007FFFF6FF66
:1021DE00200EF76E000EF86E0800F550730AD8A4A4
:1021EE0027D02950D96EDA6ADF2A2A50D96EDA6AD8
:1021FE00020EDF26DF5CD96EDA6A6F0078FF2BF0F5
:10220E006F0078FF2CF060009CF011F06000A0F0E1
:10221E0012F06000ACF013F06000B0F014F00FECB0
:10222E0010F0600044F027F0600048F028F0120033
:10223E002950D96EDA6A6F007FFFF6FF200EF76E17
:10224E00000EF86E0800F550250AD8A415D02950B6
:10225E00D96EDA6ADF2A000E096E250E086E60004E
:10226E009CF00AF06000A0F00BF0E1EC13F0000E11
:10227E00286E010E276E12002950D96EDA6ADF2AF7
:10228E00000E286E000E276E12002950D96EDA6AE3
:10229E006F007FFFF6FF200EF76E000EF86E08003F
:1022AE00F550086E096A60009CF00AF06000A0F01C
:1022BE000BF0E1EC13F02950D96EDA6ADF2AD7D78A
:1022CE00000E0001FB6FA5EC17F00009D8A43CEC42
:1022DE0015F0000E0C6E0A0E0B6EB8EC15F0000E1B
:1022EE0000019F6FA02BA169000EA26FA307440EE1
:1022FE0020EC15F000019F5120EC15F00001A051CB
:10230E0020EC15F00001A15120EC15F00001A251B6
:10231E0020EC15F00001A35120EC15F00D0E20EC71
:10232E0015F0000E0C6E050E0B6EB8EC15F0190EB6
:10233E00326E010E336E3350D8A4200E346EF5EC8F
:10234E0016F0010EA56F020EA66F000E076EFA0EA6
:10235E00066E020E8BEC15F0020E9DEC16F00009C7
:10236E00D8A405D0A5EC17F00009D8B4F5D7020E05
:10237E009DEC16F00009D8A41200000E076EFA0E9E
:10238E00066E020E8BEC15F011D0A5EC17F00009BD
:10239E00D8B40CD03CEC15F00001FA6FFB519A0F3B
:1023AE00D96EDA6A6000EBF3DFFFFB2B020E9DECB9
:1023BE0016F00009D8A404D0050E0001FB65E5D780
:1023CE00020E9DEC16F00009D8A41200060E0001B4
:1023DE00FB6101D01200010EA46F030EA66F020E58
:1023EE00A76F1200190E326E150E336E3350D8A42D
:1023FE00200E346EF5EC16F0000E0C6E050E0B6E04
:10240E00B8EC15F0190E326E050E336E3350D8A49B
:10241E00200E346EF5EC16F0030E0C6E200E0B6EC5
:10242E00B8EC15F0190E326E090E336E3350D8A477
:10243E00200E346EF5EC16F0000E0C6E050E0B6EC3
:10244E00B8EC15F0190E326E0D0E336E3350D8A453
:10245E00200E346EF5EC16F0000E0C6E050E0B6EA3
:10246E00B8EC15F0190E326E110E336E3350D8A42F
:10247E00200E346EF5EC16F0000E0C6E050E0B6E83
:10248E00B8EC15F0010E0001A76FA5EC17F00009CE
:10249E00D8A43CEC15F0010E0001A66F1200939724
:1024AE00A60E066E260E076E000E086E58EC17F07E
:1024BE009399C60E066E2B0E076E000E086E4EEC2E
:1024CE0017F0000E3D01EC6F000EED6F000EEE6F7B
:1024DE00000EEF6F000EF06F000EF16F900EF26FA8
:1024EE00800EF36F000EF46F400EF56F030EF66F55
:1024FE00000EF76F000EF86F000EF96F000EFA6FF8
:10250E00540E066E2F0E076E000E086E6CEC17F052
:10251E00520E066E2F0E076E000E086E62EC17F04E
:10252E003A0E066E2F0E076E000E086E76EC17F042
:10253E00000E546E000E5A6E000E596E080E586E36
:10254E00000E576E000E566E000E556E39019387B3
:10255E00120039019695340E066E270E076E000E88
:10256E00086E26EC17F09697F00E066E2B0E076E81
:10257E00000E086E1CEC17F0000E3D01D46F000E1D
:10258E00D66F000ED86FB00EDA6F800EDB6F000EB6
:10259E00DC6F400EDD6F030EDE6F000EDF6F000E80
:1025AE00E06F000EE16F000EE26F580E066E2F0EFA
:1025BE00076E000E086E3AEC17F0560E066E2F0ED2
:1025CE00076E000E086E30EC17F0400E066E2F0EE2
:1025DE00076E000E086E44EC17F0000E4D6E000EE6
:1025EE00536E000E526E080E516E000E506E000E9F
:1025FE004F6E000E4E6E390196851200010EBE6EA4
:10260E00020EBD6E000EBA6E000EBB6E000EBC6EDC
:10261E00060EC66EC268BF0EC36EBF0EC46EFD0E32
:10262E00C56EFD0E3A01706F3F0E606F3F0E506F1C
:10263E00060E806F4069000E716F000E816F000EE6
:10264E00516F000E416F000E616F000E5A6F000E3B
:10265E005B6F000E6A6F000E6B6F000E7A6F000ECE
:10266E007B6F000E826F000E426F000E526F000ED7
:10267E00626F000E726F4369536963697369070E67
:10268E00836F0F0EE86F160E0E6F100E196F130E6E
:10269E00166F170EE56F12005750C00FD96EDA6A1B
:1026AE00000EDF6E3D01F9A712D05750C00FD96E44
:1026BE00DA6A0001DF8201D80AD00500FA6EEA510B
:1026CE00FD6EEB51FE6EEC51FF6EFA5012003D01A5
:1026DE00F9A312D05750C00FD96EDA6A0001DF8409
:1026EE0001D80AD00500FA6EE751FD6EE851FE6E74
:1026FE00E951FF6EFA5012005750C00FD96EDA6AC8
:10270E00DF50D8B40DD001D812000500FA6E0001CA
:10271E00E451FD6EE551FE6EE651FF6EFA50120069
:10272E00ADEC16F012005050A80FD96EDA6A000EFA
:10273E00DF6E3D01E1A712D05050A80FD96EDA6AB4
:10274E000001DF8201D80AD00500FA6EE151FD6E5C
:10275E00E251FE6EE351FF6EFA5012003D01E1A30D
:10276E0012D05050A80FD96EDA6A0001DF8401D85A
:10277E000AD00500FA6EDE51FD6EDF51FE6EE0519D
:10278E00FF6EFA5012005050A80FD96EDA6ADF5061
:10279E00D8B40DD001D812000500FA6E0001DB513D
:1027AE00FD6EDC51FE6EDD51FF6EFA501200BCEC78
:1027BE0016F012000A500B10D8B404D00A500B10A9
:1027CE00D8A404D0085094EC17F0120020EE04F0B8
:1027DE000A50D9260B50DA22DE50DE10D8B416D0AD
:1027EE0020EE04F00A50D9260B50DA2210EE02F039
:1027FE000A50E1260B50E222DE50E65CE650800ADB
:10280E00106EDE50800A1058D8B0120020EE02F082
:10281E000A50D9260B50DA22DE2A000EDD221200D3
:10282E006000BCF031F0000E0001EE6F000EED6F97
:10283E0012D06000B4F027F06000B8F028F0310E2E
:10284E00296E6000C0F02AF0C9EC10F0275000018C
:10285E00ED272850EE236000C7F0F6FF200EF76E2E
:10286E00000EF86E0800F5500009D8A4E2D76000FB
:10287E00B4F32DF06000B8F32EF01200000E00013C
:10288E00FD6FCEEC15F0D28ED28C000E0001A46F2F
:10289E00000EA56F000EA76F000EA66F030E076E3B
:1028AE00E80E066E010E8BEC15F0F9EC11F0A3ECB0
:1028BE0017F00009D8B406D00001FD5104EC15F054
:1028CE000001FD2BCBEC16F067EC11F0F0D7600099
:1028DE0018F008F060001CF009F002D0064A072A32
:1028EE0060001BF0F6FF60001FF0F7FF000EF86EA1
:1028FE001F0EF76403D00800F55007D06F00DBFF02
:10290E00E1FF6F00DFFFE2FFE7500009D8A4E6D732
:10291E000850065C066E09500758076E1200320EFC
:10292E00F66E2F0EF76E000EF86E00EEF3F010EE50
:10293E0007F009006F00D7FFEEFFE550E150F9E117
:10294E0000EE60F0930EEE6AE806FDE100EE38F060
:10295E00230EEE6AE806FDE1080ED56E000ED66E69
:10296E00000ED76E000145EF14F0000E9B6E000EA8
:10297E009C6E010E9D6E630E996EC00E986E9850F1
:10298E006F0064FE09F00A6A600024F00AF0096A1A
:10299E0009104B6E0A504C6EA89D988D060E066E51
:1029AE002E0E076E000E086E8AEC17F0310E9A6E20
:1029BE001200D28A000ED2BE010E066ED29E550EA7
:1029CE00D46EAA0ED46ED490000E38019F6F000EF6
:1029DE009E6F080E9D6F550ED46EAA0ED46ED480C7
:1029EE0006B002D0D29E01D0D28E3901868786855E
:1029FE008981888D838983871200066E5850D8B4DA
:102A0E00FDD7390193B904D060001BF0EAFD0FD059
:102A1E0093995A50D00FD96EDA6A60001BF0DFFF1F
:102A2E005A2A070E5A6402D0000E5A6E580693891F
:102A3E001200066E5150D8B4FDD7390196B704D0A6
:102A4E0060001BF0D2FD0FD096975350B80FD96E81
:102A5E00DA6A60001BF0DFFF532A070E536402D0C0
:102A6E00000E536E5106968712004E50D8B4FDD705
:102A7E004F50A80FD96EDA6ADF504D6E4F50B00F1F
:102A8E00D96EDA6ADF50066E4F2A070E4F6402D0F7
:102A9E00000E4F6E390196954E0696850650120021
:102AAE00000E036E0350020DF350800FD96EDA6ADA
:102ABE00DE50DE10D8B409D00350020DF350800F53
:102ACE00D96EDA6ADE06000EDD5A032A0C0E036496
:042ADE00E9D7120022
:102AE4003901A89D60002CF104F0600030F105F07C
:102AF40021EC16F0494A4A2A4A5004E1320E495C54
:102B0400D8A0110033EC16F0000E4A6E000E496E88
:102B140011000A6E600018F008F060001CF009F063
:102B2400D890083609360A50020DF350800FD96E3A
:102B3400DA6A600023F0DEFF600027F0DDFF120098
:102B4400010E966E000E956E000E976E030E936E38
:102B5400000E926EA9919981AE0E066E2A0E076E32
:102B6400000E086E80EC17F09468120060002CF0E0
:102B740006F0600030F007F0000E8BEC15F005D085
:102B840000F000F000F000F00400000E9DEC16F0E0
:102B94000009D8A41200F4D7E0EC14F045EC16F0C8
:102BA40005EC13F0E7EC16F0A2EC15F0BCEC14F015
:102BB400D9EC16F010EC17F0B0EC12F056EC12F061
:102BC4001200080E58600FD05950D00FD96EDA6A2F
:102BD400DF503D01EA6F592A070E596402D0000EF6
:102BE400596E582A1200390193991200080E516047
:102BF4000FD05250B80FD96EDA6ADF503D01D26F50
:102C0400522A070E526402D0000E526E512A12004C
:062C140039019697120041
:102C1C003901A991385039103A10D8B4110001D8A3
:102C2C0011000500FA6E3850FD6E3950FE6E3A50A8
:102C3C00FF6EFA5012009AA409D09A90600017F017
:102C4C0099FF600013F098FF9A801200600017F053
:102C5C0099FF600013F098FF12000001D851D911B0
:102C6C00DA11D8B4120001D812000500FA6ED8514E
:102C7C00FD6ED951FE6EDA51FF6EFA501200000E45
:102C8C00C06F000EC16F000EC26F000EC36F000E3E
:102C9C00C46F000EC56F000EC66F000EC76F12001A
:102CAC003B503C103D10D8B4110001D81100050068
:102CBC00FA6E3B50FD6E3C50FE6E3D50FF6EFA506E
:022CCC001200F4
:102CD0003E503F104010D8B4110001D8110005003B
:102CE000FA6E3E50FD6E3F50FE6E4050FF6EFA5041
:022CF0001200D0
:102CF400415042104310D8B4110001D8110005000E
:102D0400FA6E4150FD6E4250FE6E4350FF6EFA5013
:022D14001200AB
:102D1800445045104610D8B4110001D811000500E0
:102D2800FA6E4450FD6E4550FE6E4650FF6EFA50E6
:102D38001200086E04000850020DF350800FD96E7F
:102D4800DA6ADE50DE10D8A402D0010E1200000E9E
:102D580012005750C80FD96EDA6A6F00A3F7DFFF69
:102D6800572A070E576402D0000E576E552A1200D4
:102D78005050B00FD96EDA6A6F0043F7DFFF502A60
:102D8800070E506402D0000E506E4E2A1200010E3B
:102D98009DEC16F00009D8B41200030E076EE80E79
:102DA800066E010E8BEC15F01200010EAE6E000ED1
:102DB800AD6E000EAF6E630EAB6E000EAA6EA495DC
:102DC800C00EAC6E1200200E3901D96F000EDB6FF9
:102DD800000EDD6F080EDF6F000EDE6FDCB1120033
:102DE800FDD7330E376E000E2D6E000E2E6E60006E
:102DF800C8F02FF0370E306E17EC14F01200BEA09A
:102E080002D0010E01D0000EFF0A046EBE50041855
:102E1800FE0B0418BE6E1200800E626E310E616EDB
:102E2800C00E606E3F015F513F0B40095F6F12009B
:102E3800600018F041F060001CF042F0600020F0E3
:102E480043F01200600018F044F060001CF045F0F8
:102E5800600020F046F01200600018F0DEF060001C
:102E68001CF0DFF0600020F0E0F01200600018F0C5
:102E7800E1F060001CF0E2F0600020F0E3F01200E6
:102E8800600018F0DBF060001CF0DCF0600020F05F
:102E9800DDF01200600018F03BF060001CF03CF020
:102EA800600020F03DF01200600018F03EF0600075
:102EB8001CF03FF0600020F040F01200600018F0B5
:102EC800E7F060001CF0E8F0600020F0E9F0120084
:102ED800600018F0EAF060001CF0EBF0600020F0F1
:102EE800ECF01200600018F0E4F060001CF0E5F06F
:102EF800600020F0E6F01200600018F038F0600082
:102F08001CF039F0600020F03AF01200600018F070
:102F1800D8F060001CF0D9F0600020F0DAF0120060
:102F2800076E075020EC15F01200286E756C6C299E
:012F38000098
:102F3A00ADEC16F01200BCEC16F01200585012005C
:042F4A004E501200D3
:0A2F5000110012001200120012001E
:020000040020DA
:10000000FF0FFF0FFF0FFF0FFF0FFF0FFF0FFF0F80
:020000040030CA
:0A000000AFFFFFFF9FFFFFFFFFFFB0
:00000001FF
