:020000040000FA
:0400000057EF00F0C6
:10000800AE12AE12AE12AE12AE12AE12AE12AE12E8
:10001800AE12AE12AE12AE12AE12AE12AE12AE12D8
:10002800AE12AE12AE12AE12AE12AE12AE12AE12C8
:10003800AE12AE12AE12DC11D311AE12AE12AE1267
:10004800AE12AE12AE12AE122B00AE12AE12AE123D
:10005800AE12AE12AE12AE12AE12AE12AE12AE1298
:10006800AE12AE12F711EE11AE12AE12AE12AE1201
:10007800AE12AE122B00AE12AE12AE122B002B0037
:100088002B002B002B002B002B002B006311AE1232
:10009800B711AE12AE12AE122B002B002B002B00A4
:0A00A800AE12AE12FF0005EF20F0CB
:10200000002053636F7265202569202569202569AA
:10201000202020200020482025692C204D202569E3
:10202000202020202000535720257320506C6179F8
:102030002100302E32340052300D0054320D004356
:10204000340D0046340D004D340D0058510D00255F
:032050007300001A
:102054001750800B206E17501724226E16BE228054
:102064002250D8B40DD02228D8A408D0000E146E63
:10207400000E156E000E166E000E176E168E08D02A
:10208400000E146E000E156E000E166E000E176E06
:102094001B50800B201A1B501B24216E1ABE21805A
:1020A4002150D8B40DD02128D8A408D0000E186E21
:1020B400000E196E000E1A6E000E1B6E1A8E08D0DA
:1020C400000E186E000E196E000E1A6E000E1B6EB6
:1020D4002150D8B403D02250D8A409D0000E146ED5
:1020E400000E156E000E166E000E176E12001A50BA
:1020F40014026F00CCFF2BF06F00D0FF2CF02B509C
:10210400236E246A256A266A2C50276E286A296A57
:102114002A6A195015026F00CCFF2BF06F00D0FF14
:102124002CF02B502326000E2422252226222C506C
:102134002726000E282229222A22185016026F0070
:10214400CCFF2BF06F00D0FF2CF02B502326000E79
:102154002422252226222C502726000E282229223A
:102164002A22600094F026F0600090F025F06000D0
:102174008CF024F0236A185015026F00CCFF2BF06A
:102184006F00D0FF2CF02B5023262C502422000E5D
:102194002522000E2622195014026F00CCFF2BF0CA
:1021A4006F00D0FF2CF02B5023262C502422000E3D
:1021B4002522000E2622600094F026F0600090F0A4
:1021C40025F060008CF024F0236A185014026F008C
:1021D400CCFF2BF06F00D0FF2CF02B5023262C507B
:1021E4002422000E2522000E26221A5015026F000A
:1021F400CCFF2BF06F00D0FF2CF02B5027262C5057
:102204002822000E2922000E2A22195016026F00DD
:10221400CCFF2BF06F00D0FF2CF02B5027262C5036
:102224002822000E2922000E2A221A5016026F00BC
:10223400CCFF2BF06F00D0FF2CF02B501C6E2C50D9
:102244001D6E1E6A1F6A600078F01FF0600074F053
:102254001EF0600070F01DF01C6A1C5027261D50F3
:1022640028221E5029221F502A2226502726000EDB
:10227400282229222A22600094F026F0600090F09F
:1022840025F060008CF024F0236A2150600088F06F
:102294001CF01D6A1C26000E1D22820E1C242B6EAF
:1022A400FF0E1D202C6E0FD0D890273628362936E5
:1022B4002A3626BE2780D89023362436253626365D
:1022C4002B06D8A02C0629AEEFD7000E216E26AE21
:1022D40017D0FF0E23141C6EFF0E24141D6EFF0E68
:1022E40025141E6E7F0E26141F6E1C501D101E100A
:1022F4001F10D8B403D0010E216E02D027B0FBD733
:102304002150D8B427D0010E2726000E28222922D6
:102314002A222AA01FD060009CF01CF06000A0F0CC
:102324001DF06000A4F01EF06000A8F01FF01F3440
:102334001F321E321D321C32600070F027F0600024
:1023440074F028F0600078F029F060007CF02AF046
:102354002B4A2C2A2CBE0DD02C5003E12B28D8A0BC
:1023640008D0000E276E000E286E800E296E7F0E98
:1023740021D02CBE05D02C500EE12B04D8B00BD0AC
:10238400000E276E000E286E000E296E000E2A6EB7
:10239400000E206E10D06000ACF022F0FF0E271665
:1023A400FF0E28167F0E2916000E2A1622B0298E3B
:1023B400D89022302A6E20502A1260009CF014F02B
:1023C4006000A0F015F06000A4F016F06000A8F022
:1023D40017F01200000E0001916FAAEC22F0D28EC9
:1023E400D28C000E0101A96F000EAA6F000EAC6F13
:1023F400000EAB6F3EEC20F00C0E44EC25F0030E07
:10240400076EE80E066E010EE1EC22F0F9EC1BF00B
:10241400780E0001646F656B260E666F320E676F6F
:102424006751D8A4200E686F4FEC21F0000E0E6E99
:10243400780E0F6E106A000E24EC24F00101C351D3
:10244400C55DC76FC451C659C86F000E146E000E27
:10245400156E7F0E166E430E176E20EEC7F16F00D9
:1024640078FF06F06F0074FF07F0000E07BEFF0E42
:10247400086E096E010E01EC1AF0600018F018F0F5
:1024840060001CF019F0600020F01AF0600024F0E5
:102494001BF06DEC13F0600050F0C9F1600054F0D3
:1024A400CAF1600058F0CBF160005CF0CCF1010E91
:1024B4000101CE6FFE0ECD6F8CEC1EF019EC16F000
:1024C4000009D8A49FA307D0000E0F6E010E0E6E54
:1024D400AF5139EC17F001019FB3C4D0A5510209E3
:1024E400A56FA6A140D0040E94EC23F00009D8B443
:1024F4003AD00101A5510409A56FBF0E066E010E65
:10250400076E59EC23F00009D8B402D00101B02BB6
:102514000101BC51D8B424D0B6510001766F010139
:10252400B7510001776F010E0101B65F000EB75B72
:102534000001775115E1020E765DD8B011D0000E7E
:102544000101B76F0A0EB66F010EBD6F020EAF6FB9
:10255400000EB96F000EB86FB2C1B3F1010EBE6FB9
:10256400000E0101BC6F0101A6AF40D0040E94EC33
:1025740023F00009D8B43AD00101A5510109A56F8F
:10258400C00E066E010E076E59EC23F00009D8B494
:1025940002D00101B02B0101BC51D8B424D0B651F2
:1025A4000001766F0101B7510001776F010E01013F
:1025B400B65F000EB75B0001775115E1020E765D40
:1025C400D8B011D0000E0101B76F0A0EB66F010E1C
:1025D400BD6F020EAF6F000EB96F000EB86FB2C1BF
:1025E400B3F1010EBE6F000E0101BC6F600098F6DE
:1025F40076F07E0E00017617D8B45ED7050E94EC03
:1026040023F00009D8B458D7C10E066E010E076E28
:1026140059EC23F00009D8B44FD70101B12BBC51B8
:10262400D8B44AD720EEB1F16F007CFF76F0010EEA
:10263400DF261A0E000176653FD720EEB2F16F0057
:102644007CFF76F0010EDF5E0A0E766103D00A0E7F
:102654000101B26F000E0101B96F0A0EB86F000ECE
:10266400BC6F2AD7010E076EF40E066E040EE1EC61
:1026740022F0000E076E190E066E050EE1EC22F034
:102684000101A551FD0BA56FA551FB0BA56FA5512C
:10269400FE0BA56F010EBC6F010EBF6F010EC06F64
:1026A400010EC16F060E94EC23F00009D8B404D7D0
:1026B400030E0101AF6FBE51D8B4FED6000EBE6F3B
:1026C400000EB06F000EB16F000EBB6F000EBA6F3C
:1026D400320EB26FF1D61750800B246E17501724A8
:1026E4002B6E16BE2B802B50D8B40DD02B28D8A41B
:1026F40008D0000E146E000E156E000E166E000E3D
:10270400176E168E06D0000E146E000E156E000E97
:10271400166E000E176E1B50800B241A1B501B24C0
:102724002C6E1ABE2C802C50D8B40DD02C28D8A4D2
:1027340008D0000E186E000E196E000E1A6E000EF0
:102744001B6E1A8E06D0000E186E000E196E000E47
:102754001A6E000E1B6E185019101A101B10D8A4F4
:102764001BD0000E146E000E156E000E166E000EB9
:10277400176E800E16127F0E171224501712600067
:1027840050F014F0600054F015F0600058F016F0AA
:1027940060005CF017F012002B50D8A409D0000E92
:1027A400146E000E156E000E166E000E176E1200DB
:1027B4002C506000ACF01CF01D6A1C5E000E1D5A0B
:1027C4007F0E1C24256E000E1D20266E600050F026
:1027D40020F0600054F021F0600058F022F0600016
:1027E4005CF023F0000E146E000E156E000E166ED3
:1027F400000E176E000E276E000E286E000E296E56
:10280400000E2A6E000E2C6E28D02C50D8B411D095
:10281400D8902036213622362336D89014361536F1
:10282400163617362ABE1480D8902736283629360D
:102834002A361850205C195021581A5022581B501F
:102844002358D8A009D02A8C1850205E1950215A38
:102854001A50225A1B50235A2C2A190E2C64D5D7ED
:102864002050211022102310D8B411D027800FD06B
:10287400D89014361536163617362ABE1480D890DA
:102884002736283629362A362506D8A0260616AE37
:10289400EFD7000E2C6E2AAE17D0FF0E27141C6E35
:1028A400FF0E28141D6EFF0E29141E6E7F0E2A14AF
:1028B4001F6E1C501D101E101F10D8B403D0010E23
:1028C4002C6E02D014B0FBD72C50D8B427D0010EF4
:1028D4001426000E15221622172217A01FD06000FE
:1028E40050F01CF0600054F01DF0600058F01EF031
:1028F40060005CF01FF01F341F321E321D321C3288
:10290400600070F014F0600074F015F0600078F06E
:1029140016F060007CF017F0254A262A26BE10D057
:10292400265003E12528D8A00BD0000E266E25687A
:10293400000E146E000E156E000E166E000E176E4D
:1029440026BE05D0265011E12504D8B00ED0000EC5
:10295400266E000E256E000E146E000E156E000E0F
:10296400166E000E176E000E246E600094F02BF0AD
:102974002BA002D0168E01D0169ED8902B30176E45
:10298400FCD6600094F03DF0600098F03EF06000EA
:102994009CF03FF06000A0F040F06000A4F041F033
:1029A4006000A8F042F06000ACF043F06000B0F0CA
:1029B40044F044AE02D0010E01D0000E3B6E3C6ADE
:1029C4003B503C10D8B410D0441E431E421E411E3E
:1029D400401E3F1E3E1E3D6C000E3E223F22402202
:1029E400412242224322442293AF569293BF05D000
:1029F400935108E19205D8B005D0000E386E010E4F
:102A0400376E06D0600048F237F060004CF238F0C0
:102A14006000A0F539F06000A4F53AF03B503C109A
:102A2400D8A402D056A403D03906D8A03A06000E82
:102A3400466E1F0E456E000E0101936F9ED0450633
:102A4400D8A04606740E4524D96E010E4620DA6ECF
:102A54006000F4F006F06000F8F007F06000FCF0AD
:102A640008F0600000F109F0600004F10AF0600071
:102A740008F10BF060000CF10CF0600010F10DF0A7
:102A84000A0E0E6E000E0F6E000E106E000E116E0A
:102A9400000E126E000E136E000E146E000E156EF4
:102AA4005FEC1BF0600018F02DF060001CF02EF0BD
:102AB400600020F02FF0600024F030F0600028F077
:102AC40031F060002CF032F0600030F033F0600040
:102AD40034F034F06000B4F018F06000BCF019F089
:102AE400F9EC21F01850300FDF6E3706D8A0380605
:102AF4003906D8A03A066000F4F006F06000F8F059
:102B040007F06000FCF008F0600000F109F06000DC
:102B140004F10AF0600008F10BF060000CF10CF015
:102B2400600010F10DF00A0E0E6E000E0F6E000E16
:102B3400106E000E116E000E126E000E136E000E5B
:102B4400146E000E156EB3EC1AF0600018F03DF030
:102B540060001CF03EF0600020F03FF0600024F0C4
:102B640040F0600028F041F060002CF042F060007A
:102B740030F043F0600034F044F046BE1FD04650BD
:102B840003E14504D8A01AD03D503E103F10401038
:102B94004110421043104410D8A451D738BE05D078
:102BA400385002E13704D8B04AD73ABE07D03A5079
:102BB40003E13904D8A002D056B241D73B503C10AF
:102BC400D8A402D056A418D04506D8A046063B5037
:102BD4003C10D8A404D0000E366E2B0E03D0000E89
:102BE400366E2D0E356E740E4524D96E010E4620B8
:102BF400DA6E6000D7F0DFFF60008CF018F0600040
:102C040090F019F0740E45241A6E010E46201B6EC6
:102C14006000E4F01CF06000E8F01DF02FEC1DF003
:102C2400600060F023F0600064F024F01200000EF5
:102C340000016D6F030E94EC23F00009D8A405D0B5
:102C4400000E0101AB6F000E12000101B851B62550
:102C540000016A6F0101B951B72100016B6F0A0EBF
:102C64006A25066E000E6B21076E030EE1EC22F05E
:102C7400000E35EC25F03DEC25F00009D8B4FBD767
:102C84002BEC25F0600018F0B4F160001CF0B5F1F5
:102C94006000D0F637F06000D4F638F079EC1FF01D
:102CA400000EAD6F52EC25F00009D8B440D097EC7B
:102CB40021F000016D6F21D0530E6D19D8A437D0C7
:102CC400010E18D0520E6D19D8A431D0020E12D0B4
:102CD400510E6D19D8A42BD0030E0CD0200E6D19F3
:102CE400D8A425D0040E06D06000B4F1AEF1050ED0
:102CF40001D0000E0101AD6F1AD00101AD510001E8
:102D04006A6F6B6B6B51000AD8A4F3D76A51000A3F
:102D1400D8B4D2D7010AD8B4D5D7030AD8B4D8D7EF
:102D2400010AD8B4DBD7070AD8B4DED7E2D7440EF9
:102D3400B9EC21F00101A851B9EC21F00101A7512E
:102D4400B9EC21F00101A651B9EC21F00101A55122
:102D5400B9EC21F00101A451B9EC21F00D0EB9EC4C
:102D640021F04F0E0001646F370E656F6551D8A4D2
:102D7400200E666F73EC24F0010EAA6F020EAB6F87
:102D8400000E076EFA0E066E020EE1EC22F015D06C
:102D9400020E94EC23F00009D8B40FD0600058F26E
:102DA40006F0076A8EEC22F00001962B030E96655E
:102DB40002D0000E966F060E44D752EC25F000099F
:102DC400D8B4E6D7000E6C6F000E076EFA0E066ECE
:102DD400020EE1EC22F015D052EC25F00009D8B433
:102DE40010D097EC21F000016A6F6C51A308D96EE2
:102DF400000ED8A0E82A0108DA6E6000ABF1DFFF0C
:102E04006C2B020E94EC23F00009D8A404D0050E18
:102E140000016C65E1D7020E94EC23F00009D8A4FC
:102E240004D0060E00016C610AD0600058F206F06E
:102E3400076A8EEC22F00001962B100EB8D752ECE4
:102E440025F00009D8A497EC21F0010E0101A96F27
:102E5400030EAB6F020EAC6F000E076EC70E066E4C
:102E64008EEC22F0050E0101AB6F010E1200126E02
:102E74001204D8A403D09FC1A6F11200020E1218A6
:102E8400D8A410D00101BD51D8B409D0000EBD6F33
:102E9400750E076E300E066E060EE1EC22F001018F
:102EA400A62B12001250D8A459D001016A51106EF9
:102EB4006B51116E6A4B6B2B0E50105C0F501158F6
:102EC400D8A04CD09FC0A6F100019E51D8B40CD01C
:102ED40094519511D8B408D0D8909435946F953501
:102EE400956F9F519F2518D094519511D8B412D045
:102EF400600050F206F0600054F207F0000E096E14
:102F0400020E086EC1EC1FF0600018F094F060002F
:102F14001CF095F0D8909F319F6F95BF06D09551C6
:102F24000AE1020E945DD8B006D0000E956F020E31
:102F3400946F010E0DD095BF0CD0955104E1810E14
:102F4400945DD8A006D0000E956F800E946F000E8D
:102F54009E6F000E01016B6F000E6A6F030E121854
:102F6400D8A412000101D0AF08D0890ECF5DFF0EA6
:102F7400D059D8B002D0800EA66FD0AF06D0890E3B
:102F8400CF5DFF0ED059D8A00AD0D0AF08D0B00E74
:102F9400CF5DFF0ED059D8B002D0400EA66FD0AF8F
:102FA40006D0B00ECF5DFF0ED059D8A00AD0D0AF56
:102FB40008D0E20ECF5DFF0ED059D8B002D0200E5B
:102FC400A66FD0AF06D0E20ECF5DFF0ED059D8A0C9
:102FD4000AD0D0AF08D0FB0ECF5DFF0ED059D8B0C9
:102FE40002D0100EA66FD0AF06D0FB0ECF5DFF0E41
:102FF400D059D8A00AD0D0BF06D0D05106E1060ED1
:10300400CF5DD8B002D0000EA66FD0BF10D0D05183
:1030140004E1060ECF5DD8A00AD0D0BF06D0D051AF
:1030240006E11E0ECF5DD8B002D0080EA66FD0BF49
:1030340010D0D05104E11E0ECF5DD8A00AD0D0BF6D
:1030440006D0D05106E1500ECF5DD8B002D0040EA8
:10305400A66FD0BF10D0D05104E1500ECF5DD8A0E0
:103064000AD0D0BF06D0D05106E1780ECF5DD8B0DB
:1030740002D0020EA66FD0BF1200D05104E1780E28
:10308400CF5DD8A01200010EA66F12004950D96E70
:10309400DA6A6F007FFFF6FF200EF76E000EF86EFF
:1030A4000800F550250AD8A4D5D04950D96EDA6A5B
:1030B400DF2A000E0101696F000E686F6000A0F541
:1030C40056F06000A4F557F00001926993694950E5
:1030D400D96EDA6A6F007FFFF6FF200EF76E000EDE
:1030E400F86E0800F550640AD8B40FD04950D96E70
:1030F400DA6A6F007FFFF6FF200EF76E000EF86E9F
:103104000800F550690AD8A442D04950D96EDA6A49
:10311400DF2A4A50D96EDA6ADF50DF2ADF2AD96EF5
:10312400DA6A6F0078FF4BF06F0074FF4CF0000E0A
:103134004CBEFF0E4D6E4E6E4F6E506E516E526E03
:1031440060001CF123F0600020F124F060002CF1F9
:1031540025F0600030F126F0600034F127F06000C3
:1031640038F128F060003CF129F0600040F12AF0C9
:10317400600044F12BF0600048F12CF0C3EC14F033
:1031840060008CF047F0600090F048F01200495065
:10319400D96EDA6A6F007FFFF6FF200EF76E000E1D
:1031A400F86E0800F550730AD8A427D04950D96E98
:1031B400DA6ADF2A4A50D96EDA6A020EDF26DF5C49
:1031C400D96EDA6A6F0078FF53F06F0078FF54F01D
:1031D40060001CF111F0600020F112F060004CF16D
:1031E40013F0600050F114F047EC19F0600044F063
:1031F40047F0600048F048F012004950D96EDA6A8E
:103204006F007FFFF6FF200EF76E000EF86E0800C9
:10321400F550250AD8A415D04950D96EDA6ADF2AA8
:10322400000E096E250E086E60001CF10AF06000A5
:1032340020F10BF0DFEC1DF0000E486E010E476E1E
:1032440012004950D96EDA6ADF2A000E486E000E69
:10325400476E12004950D96EDA6A6F007FFFF6FF9D
:10326400200EF76E000EF86E0800F550086E096A1D
:1032740060001CF10AF0600020F10BF0DFEC1DF09F
:103284004950D96EDA6ADF2AD7D720EE94F110EECE
:1032940016F0060E6F006FFFE3FFE806FBE2600026
:1032A4004CF021F0600050F022F021502210D8A4FC
:1032B40003D0160E216E226A600084F006F06000CE
:1032C40088F007F001EC21F0600018F025F06000B0
:1032D4001CF026F0600048F223F060004CF224F069
:1032E40024BE10D02550235C2450800A156E26502D
:1032F400800A1558D8B006D060008CF025F0600024
:1033040090F026F0600094F023F0600098F024F030
:103314006000A0F51FF06000A4F520F056A00FD0C7
:1033240018D0000E096E200E086E600044F00AF0FA
:10333400600048F00BF0DFEC1DF0254A262A1F50F0
:10334400255C2650800A156E2050800A1558D8A096
:10335400E8D7000E1E6E000E1D6E25D0600087F0AB
:10336400F6FF60008BF0F7FF000EF86E1F0EF76497
:1033740003D00800F55007D06F00DBFFE1FF6F00BA
:10338400DFFFE2FFE750156E1550086E096A600012
:1033940044F00AF0600048F00BF0DFEC1DF0214A25
:1033A400222A1D4A1E2A23501D5C1E50800A156EB7
:1033B4002450800A1558D8A0D1D756B00FD018D0B1
:1033C400000E096E200E086E600044F00AF06000E2
:1033D40048F00BF0DFEC1DF0254A262A1F50255C2F
:1033E4002650800A156E2050800A1558D8A0E8D7B8
:1033F400600094F011F0600098F012F012000E6E6C
:103404000E50D8A409AE22D0600018F00AF0600073
:103414001CF00BF0600020F00CF0600024F00DF0C4
:103424000A1E0B1E0C1E0D1E0A2A000E0B220C2255
:103434000D22600028F010F060002CF011F0600004
:1034440030F012F0600034F013F00CD0600018F08B
:1034540010F060001CF011F0600020F012F0600029
:1034640024F013F00650071008100910D8A409D04E
:10347400000E066E000E076E000E086E000E096E3A
:103484001200960E0F6E06D00F2AD8901332123205
:1034940011321032000E10140A6E000E11140B6E4D
:1034A400000E12140C6EFE0E13140D6E0A500B1047
:1034B4000C100D10D8B40DD0E7D70F2A010E10262A
:1034C400000E112212221322D8901332123211321A
:1034D4001032000E10140A6E000E11140B6E000E42
:1034E40012140C6EFF0E13140D6E0A500B100C10F8
:1034F4000D10D8B407D0E1D70F06D8901036113686
:103504001236133612BE03D0020E0F60F5D70FA089
:10351400129ED8900F3260003CF00AF00B6A0C6ADD
:103524000D6A600028F00DF00C6A0B6A0A6A0A50F2
:1035340010120B5011120C5012120D5013120E5087
:10354400D8A409AE01D0138E600040F006F06000EC
:1035540044F007F0600048F008F060004CF009F017
:103564001200000E176E15AE12D0151E141E131E77
:10357400121E111E101E0F1E0E6C000E0F221022A2
:1035840011221222132214221522010E176E0DAEDF
:1035940012D00D1E0C1E0B1E0A1E091E081E071E2D
:1035A400066C000E0722082209220A220B220C2292
:1035B4000D22010E171A20EE18F0070EDE6AE80637
:1035C400FDE20E500F1010101110121013101410F1
:1035D4001510D8B446D0010E166E0AD0D8900E3607
:1035E4000F36103611361236133614361536162A9F
:1035F40015AEF4D7D890183619361A361B361C3641
:103604001D361E361F360E50065C0F5007581050DC
:1036140008581150095812500A5813500B58145096
:103624000C5815500D58D8A011D00E50065E0F50EE
:10363400075A1050085A1150095A12500A5A135076
:103644000B5A14500C5A15500D5A1880D890153234
:10365400143213321232113210320F320E32162E4D
:10366400C9D71750D8B410D01F1E1E1E1D1E1C1EF5
:103674001B1E1A1E191E186C000E19221A221B2258
:103684001C221D221E221F22600060F006F0600032
:1036940064F007F0600068F008F060006CF009F076
:1036A400600070F00AF0600074F00BF0600078F0D5
:1036B4000CF060007CF00DF01200000E176E0DAEE1
:1036C40012D00D1E0C1E0B1E0A1E091E081E071EFC
:1036D400066C000E0722082209220A220B220C2261
:1036E4000D22010E176E15AE10D0151E141E131EDA
:1036F400121E111E101E0F1E0E6C000E0F22102221
:10370400112212221322142215220E500F1010100F
:1037140011101210131014101510D8B43CD0010E4F
:10372400166E0AD0D8900E360F3610361136123671
:10373400133614361536162A15AEF4D70E50065C19
:103744000F500758105008581150095812500A5871
:1037540013500B5814500C5815500D58D8A010D0B5
:103764000E50065E0F50075A1050085A1150095A4D
:1037740012500A5A13500B5A14500C5A15500D5A21
:10378400D8901532143213321232113210320F32F1
:103794000E32162ED3D71750D8B410D00D1E0C1ECF
:1037A4000B1E0A1E091E081E071E066C000E0722A9
:1037B400082209220A220B220C220D22600018F092
:1037C40006F060001CF007F0600020F008F06000D4
:1037D40024F009F0600028F00AF060002CF00BF0EF
:1037E400600030F00CF0600034F00DF012004F0E69
:1037F4000001646F4B0E656F6551D8A4200E666F8F
:1038040073EC24F0000E0C6E050E0B6E43EC23F0EB
:103814004F0E0001646F3B0E656F6551D8A4200EF6
:10382400666F73EC24F0030E0C6E200E0B6E43ECEB
:1038340023F04F0E0001646F3F0E656F6551D8A4ED
:10384400200E666F73EC24F0000E0C6E050E0B6EEA
:1038540043EC23F04F0E0001646F430E656F655116
:10386400D8A4200E666F73EC24F0000E0C6E050EC7
:103874000B6E43EC23F04F0E0001646F470E656F2F
:103884006551D8A4200E666F73EC24F0000E0C6E04
:10389400050E0B6E43EC23F0010E0101AC6F52ECEC
:1038A40025F00009D8A497EC21F0010E0101AB6FBB
:1038B400000EAD6F000EAE6F000EB56F000EB46F4C
:1038C4003B0E35EC25F0000E076E0A0E066E030E55
:1038D400E1EC22F012002F343034366E3650D8A486
:1038E40009D0000E2D6E000E2E6E000E2F6E000EEF
:1038F400306E12006000B4F031F06000B8F032F0C5
:103904006000BCF033F06000C0F034F0200E05D04D
:10391400D8903432333232323132E82EF9D7315042
:10392400356E2F8EFF0E2D16FF0E2E16FF0E2F1640
:10393400000E3016960E365E36AE0DD03650800A26
:10394400970FD8A0CED7D89030322F322E322D32C6
:10395400363EF9D70DD01F0E366407D0C2D7D890A3
:103964002D362E362F36303636063650D8A4F7D7B5
:103974003550D8B408D0301E2F1E2E1E2D6C000ECC
:103984002E222F2230226000B4F02DF06000B8F017
:103994002EF06000BCF02FF06000C0F030F0120098
:1039A4009397B60E066E3D0E076E000E086EEFEC92
:1039B40024F09399F40E066E450E076E000E086E01
:1039C400E5EC24F0000E3D01EC6F000EED6F000EEF
:1039D400EE6F000EEF6F000EF06F000EF16F900EA1
:1039E400F26F800EF36F000EF46F400EF56F030E4E
:1039F400F66F000EF76F000EF86F000EF96F000EF1
:103A0400FA6FBC0E066E4A0E076E000E086E03ECCB
:103A140025F0BA0E066E4A0E076E000E086EF9EC1B
:103A240024F0AA0E066E4A0E076E000E086E0DEC08
:103A340025F0000E0101716F000E00019D6F000E54
:103A44009C6F080E9B6F000E5A6E000E0101736F7F
:103A5400000E726F39019387120056A00ED06000D9
:103A640068F011F060006CF012F0600060F013F088
:103A7400600064F014F0DAEC21F01DBE07D06000A1
:103A840070F021F0600074F022F004D0000E226E79
:103A9400000E216E000E206E000E1F6E0ED0000E62
:103AA400096E200E086E600060F00AF0600064F099
:103AB4000BF0DFEC1DF01F4A202A21501F5C205020
:103AC400800A1E6E2250800A1E58D8A0E8D756B02D
:103AD4000ED0600068F011F060006CF012F060002D
:103AE40060F013F0600064F014F0DAEC21F0600090
:103AF40068F006F060006CF007F001EC21F0215052
:103B04000624186E22500720196E1200390196956A
:103B1400540E066E3E0E076E000E086EBDEC24F0C9
:103B24009697260E066E460E076E000E086EB3ECD0
:103B340024F0000E3D01D46F000ED66F000ED86F36
:103B4400B00EDA6F800EDB6F000EDC6F400EDD6F9F
:103B5400030EDE6F000EDF6F000EE06F000EE16FEC
:103B6400000EE26FC00E066E4A0E076E000E086E5F
:103B7400D1EC24F0BE0E066E4A0E076E000E086EDF
:103B8400C7EC24F0B00E066E4A0E076E000E086EE7
:103B9400DBEC24F0000E0101706F000E00019A6F3F
:103BA400000E996F080E986F000E596E000E586E35
:103BB400000E976F3901968512000A500B10D8B485
:103BC40004D00A500B10D8A404D0085049EC25F0B6
:103BD400120020EE04F00A50D9260B50DA22DE50EF
:103BE400DE10D8B416D020EE04F00A50D9260B50BB
:103BF400DA2210EE02F00A50E1260B50E222DE50E7
:103C0400E65CE650800A106EDE50800A1058D8B088
:103C1400120020EE02F00A50D9260B50DA226F006F
:103C240078FF0CF06F0074FF0DF060002BF0D9FFEB
:103C340060002FF0DAFF6F0078FF0EF06F0074FF62
:103C44000FF00C500E24D96E0D500F20DA6E600068
:103C540023F0DFFF20EE02F00A50D9260B50DA22BF
:103C6400DE2A000EDD221200010EBE6E020EBD6EB3
:103C7400000EBA6E000EBB6E060EBC6E060EC66E4D
:103C8400C268BF0EC36E910EC46EFD0EC56EFD0EEE
:103C94003A01706F000E606F3F0E506F060E806F1A
:103CA4004069000E716F000E816F000E516F000E9F
:103CB400416F000E616F000E5A6F000E5B6F000EB5
:103CC4006A6F000E6B6F000E7A6F000E7B6F000E32
:103CD400826F000E426F000E526F000E626F000E74
:103CE400726F4369536963697369070E836F0F0EBB
:103CF400E86F130EDE6F160E0E6F1E0E136F100E8E
:103D0400196F1F0E156F130E166F170EE56F140E35
:103D1400DF6F1200010E94EC23F00009D8B41200F6
:103D24000101BA4BBB2B000E0001646F020E656FDC
:103D3400150E666F6000C0F667F0686B6000C4F62D
:103D440069F06A6B4FEC21F0400E646F020E656FF0
:103D5400010E666F6000C8F667F0686B60003CF7A0
:103D640069F0600040F76AF06000E8F66BF060000C
:103D7400ECF66CF04FEC21F0000E0201506F000ED7
:103D84000E6E000E0F6E020E106E010E24EC24F067
:103D9400000E0E6E400E0F6E020E106E020E24EC1C
:103DA40024F0010E076EF40E066E010EE1EC22F013
:103DB4001200260E5A24D96EDA6A010EDA22000E97
:103DC400DF6E3D01F9A714D0260E5A24D96EDA6AA3
:103DD400010EDA220101DF8201D80AD00500FA6E51
:103DE4005751FD6E5851FE6E5951FF6EFA50120034
:103DF4003D01F9A314D0260E5A24D96EDA6A010EB5
:103E0400DA220101DF8401D80AD00500FA6E545188
:103E1400FD6E5551FE6E5651FF6EFA501200260E7D
:103E24005A24D96EDA6A010EDA22DF50D8B40DD0E2
:103E340001D812000500FA6E01015151FD6E525174
:103E4400FE6E5351FF6EFA501200CAEC23F01200BA
:103E54000E0E5924D96EDA6A010EDA22000EDF6ED4
:103E64003D01E1A714D00E0E5924D96EDA6A010E71
:103E7400DA220101DF8201D80AD00500FA6E4E5120
:103E8400FD6E4F51FE6E5051FF6EFA5012003D010F
:103E9400E1A314D00E0E5924D96EDA6A010EDA2287
:103EA4000101DF8401D80AD00500FA6E4B51FD6E82
:103EB4004C51FE6E4D51FF6EFA5012000E0E5924F5
:103EC400D96EDA6A010EDA22DF50D8B40DD001D8E7
:103ED40012000500FA6E01014851FD6E4951FE6E53
:103EE4004A51FF6EFA50120000EC24F012006000F8
:103EF40024F718F0600028F719F060002CF71AF086
:103F0400600030F71BF00101C351375C396EC451B6
:103F140038583A6E6000E4F006F06000E8F007F00C
:103F2400086A096A000E01EC1AF0600018F014F037
:103F340060001CF015F0600020F016F0600024F022
:103F440017F02AEC10F0600050F02DF0600054F0EF
:103F54002EF0600058F02FF060005CF030F06DEC53
:103F64001CF06000B4F0CFF16000B8F0D0F1810E25
:103F74000101CF25CF6FFF0ED021D06F1200000EAC
:103F84000B6E09AE06D0086C091ED8B0092A010EC2
:103F94000B6E07AE06D0066C071ED8B0072A010EBA
:103FA4000B1A000E0D6E000E0C6E08500910D8B4DA
:103FB4001CD0010E0A6E04D0D890083609360A2A9D
:103FC40009AEFAD7D8900C360D360850065C095065
:103FD4000758D8A005D00850065E0950075A0C802F
:103FE400D890093208320A2EEDD70B50D8B404D039
:103FF4000C6C0D1ED8B00D2A600030F006F0600085
:1040040034F007F01200300EF66E440EF76E000E18
:10401400F86E00EE94F110EE3DF009006F00D7FF4A
:10402400EEFFE550E150F9E1B60EF66E4A0EF76E7A
:10403400000EF86E09006F00D4FF9EF009006F00B7
:10404400D4FF9FF000EE00F1940EEE6AE806FDE165
:1040540000EE92F00C0EEE6AE806FDE15A6A596A27
:10406400586A576A566A080ED56E000ED66E000E50
:10407400D76E0001ECEF11F0BC84300E066E570EC3
:10408400076E050E086E000E096E55EC22F0390E0F
:1040940072EC22F01D0E72EC22F0500E72EC22F043
:1040A4006C0E72EC22F0760E72EC22F0380E82EC7A
:1040B40023F00F0E72EC22F0010E82EC23F0020EBC
:1040C40072EC22F0060E72EC22F0200E066E030E45
:1040D400076E000E086E000E096E55EC22F01200F9
:1040E400600028F006F060002CF007F001EC21F0ED
:1040F40006500C6E000E0D6EBC82BC94400E0C6417
:104104001DD020EE40F00A50D9260B50DA22000EC2
:10411400DF6E14D0090E066E000E076E000E086ED8
:10412400000E096E55EC22F00D500A24D96E000ED3
:104134000B20DA6EDF5081EC24F00D2A0C500D5C5C
:10414400D8B01200E7D7000E3E01DE6F000EDF6F1D
:10415400000EE06F000EE16F000EE46F000EE56FDD
:10416400000EEA6F000EEC6F000EF16F000EF36F9D
:10417400000EF46F000EF56F000EF66F000EF76F71
:10418400000EF96FF40EFA6F200EFB6F000EFC6F39
:10419400000EFD6F000EFE6F3F0EFF6F840EF86F72
:1041A4001200600088F155F0000E0101676F000EE7
:1041B400666F12D0600080F147F0600084F148F02F
:1041C400550E496E60008CF14AF048EC18F04750E7
:1041D4000101662748506723600057F1F6FF200E5F
:1041E400F76E000EF86E0800F5500009D8A4E2D767
:1041F400600098F560F060009CF561F012006000CA
:1042040018F008F060001CF009F002D0064A072AF2
:1042140060001BF0F6FF60001FF0F7FF000EF86E61
:104224001F0EF76403D00800F55007D06F00DBFFC2
:10423400E1FF6F00DFFFE2FFE7500009D8A4E6D7F3
:104244000850065C066E09500758076E1200000EEF
:104254009B6E000E9C6E010E9D6E630E996EC00ED9
:10426400986E98506F0064FE09F00A6A600024F0AA
:104274000AF0096A091001016E6F0A506F6F390163
:10428400A89D988D1C0E066E490E076E000E086ED2
:1042940021EC25F0310E9A6E1200670E6F6F6000EC
:1042A40090F170F0600094F171F0000E736F000EE5
:1042B400726F000E756F000E746F700E606F616B1D
:1042C400600098F162F06F0E636FD3EC20F0000190
:1042D40072516425D96E73516521DA6E000EDF6E5A
:1042E4001200D28A000ED2BE010E066ED29E550E68
:1042F400D46EAA0ED46ED490000E38019F6F000EB7
:104304009E6F080E9D6F550ED46EAA0ED46ED48087
:1043140006B002D0D29E01D0D28E3901868786851E
:10432400838983878981888D12009751D8B4FDD7FA
:104334000E0E5824D96EDA6A010EDA22DF5001011A
:10434400706F160E5824D96EDA6A010EDA22DF5025
:10435400066E582A070E586402D0000E586E3901B2
:104364009695000197073901968506501200066E4E
:1043740000019851D8B4FCD7390196B704D0600035
:104384001BF0D2FD12D096971E0E00019A25D96E0D
:10439400DA6A010EDA2260001BF0DFFF9A2B070EA7
:1043A4009A6502D0000E9A6F980739019687120019
:1043B400000E176E000E166E0ED0600054F008F05A
:1043C400096A60004CF00AF0600050F00BF0DFEC7A
:1043D4001DF0164A172A16501124D96E17501220B0
:1043E400DA6EDF50156E1550D8B41200E6D719BE38
:1043F40005D0195014E11804D8B011D0600060F051
:104404001AF0600064F01BF01A1E1B1E1A4A1B2AC5
:10441400600068F018F060006CF019F012006000A1
:1044240060F018F0600064F019F01200286E756CEA
:104434006C2900A5019F010000000000000000009D
:1044440000000000000000030000320000000A0029
:1044540000000000010000010101009001740E0041
:094464000000000000000000004F
:10446E00000E036E0350020D000EF324D96E010EE2
:10447E00F420DA6EDE50DE10D8B40BD00350020DED
:10448E00000EF324D96E010EF420DA6EDE06000E55
:10449E00DD5A032A060E0364E5D71200000E010151
:1044AE003E6F000E3F6F000E406F000E416F00F02A
:1044BE000400010E01013E27000E3F23402341233D
:1044CE003E51065C3F51075840510858415109581A
:1044DE00D8A01200ECD70A6EBC92BC940A0E066EDF
:1044EE00000E076E000E086E000E096E55EC22F0DF
:1044FE000A5081EC24F00A0E066E000E076E000EB6
:10450E00086E000E096E55EC22F0BC82120060009F
:10451E0018F008F060001CF009F0D890093208324B
:10452E00D890093208320850616E600018F008F019
:10453E00030E0816060E096ED8900836092EFCD703
:10454E000850606E120073EC21F035EC24F036EC5E
:10455E001EF065EC24F04EEC25F02CEC23F0A5ECCF
:10456E0020F029EC21F057EC24F0A7EC24F088EC95
:0C457E001DF0D2EC1CF09BEC24F01200AD
:10458C003901A89D6000B8F504F06000BCF505F099
:10459C0012EC24F001016C4B6D2B6D5104E1320EC9
:1045AC006C5DD8A0110046EC24F0000E01016D6F7B
:1045BC00000E6C6F11000A6E600018F008F06000BD
:1045CC001CF009F0D890083609360A50020D000E7E
:1045DC00F324D96E010EF420DA6E600023F0DEFFB6
:1045EC00600027F0DDFF1200080E00019B6112D065
:1045FC00360E9C25D96EDA6A010EDA22DF503D01A7
:10460C00EA6F00019C2B070E9C6502D0000E9C6F7C
:10461C009B2B1200390193991200080E000198612E
:10462C0012D01E0E9925D96EDA6A010EDA22DF50ED
:10463C003D01D26F0001992B070E996502D0000E37
:10464C00996F982B1200390196971200010E966EF5
:10465C00000E956E000E976E030E936E000E926E0A
:10466C003901A99199816E0E066E440E076E000EEB
:10467C00086E17EC25F09468120060002CF006F020
:10468C00600030F007F0000EE1EC22F005D000F0F5
:10469C0000F000F000F00400000E94EC23F0000990
:1046AC00D8A41200F4D760001BF0D9FF60001FF0F3
:1046BC00DAFFDF50D8B40AD060001BF0D9FF6000DD
:1046CC001FF0DAFF000EDF6E010E1200000E12005A
:1046DC003901A9910101455146114711D8B4110076
:1046EC0001D811000500FA6E4551FD6E4651FE6E63
:1046FC004751FF6EFA5012000A6EBC92BC940A50DD
:10470C0081EC24F0200E066E030E076E000E086E70
:10471C00000E096E55EC22F0BC821200086E0400EB
:10472C000850020D000EF324D96E010EF420DA6E3F
:10473C00DE50DE10D8A402D0010E1200000E1200C2
:10474C0001015A515B115C11D8B4110001D8110050
:10475C000500FA6E5A51FD6E5B51FE6E5C51FF6E98
:10476C00FA50120001015D515E115F11D8B41100B5
:10477C0001D811000500FA6E5D51FD6E5E51FE6EA2
:10478C005F51FF6EFA5012002E0E5A24D96EDA6A5F
:10479C00010EDA226F00A3F7DFFF5A2A070E5A64C4
:1047AC0002D0000E5A6E0101722B120001016051F1
:1047BC0061116211D8B4110001D811000500FA6E14
:1047CC006051FD6E6151FE6E6251FF6EFA50120027
:1047DC000101635164116511D8B4110001D81100A5
:1047EC000500FA6E6351FD6E6451FE6E6551FF6EED
:1047FC00FA501200160E5924D96EDA6A010EDA221A
:10480C006F0043F7DFFF592A070E596402D0000EE0
:10481C00596E0001972B12009AA409D09A9060004F
:10482C0017F099FF600013F098FF9A801200600057
:10483C0017F099FF600013F098FF1200116E1150E1
:10484C00100DF3500E24800F72EC22F060003CF03F
:10485C000AF0600040F00BF072EC20F01200000E39
:10486C00C06F000EC16F000EC26F000EC36F000E42
:10487C00C46F000EC56F000EC66F000EC76F12001E
:10488C00425143114411D8B4120001D81200050052
:10489C00FA6E4251FD6E4351FE6E4451FF6EFA505A
:1048AC001200010EAE6E000EAD6E000EAF6E630EFA
:1048BC00AB6E000EAA6EA495C00EAC6E1200200E4C
:1048CC003901D96F000EDB6F000EDD6F080EDF6F44
:1048DC00000EDE6FDCB11200FDD7650E696F000EA5
:1048EC00606F000E616F600090F162F0690E636F93
:1048FC00D3EC20F01200066E010E3D01126F600029
:10490C001BF011FD3901A2A9FDD73D011051120078
:10491C00BEA002D0010E01D0000EFF0A046EBE50E4
:10492C000418FE0B0418BE6E1200400E3D01156FEC
:10493C00030E166F0F0E196F000E1C6F820E146F84
:10494C001200800E626E310E616EC00E606E3F0101
:10495C005F513F0B40095F6F1200600018F060F16F
:10496C0060001CF061F1600020F062F11200600048
:10497C0018F063F160001CF064F1600020F065F148
:10498C001200600018F04BF160001CF04CF160005C
:10499C0020F04DF11200600018F04EF160001CF098
:1049AC004FF1600020F050F11200600018F048F157
:1049BC0060001CF049F1600020F04AF11200600028
:1049CC0018F05AF160001CF05BF1600020F05CF113
:1049DC001200600018F05DF160001CF05EF16000E8
:1049EC0020F05FF11200600018F054F160001CF030
:1049FC0055F1600020F056F11200600018F057F1EC
:104A0C0060001CF058F1600020F059F112006000B9
:104A1C0018F051F160001CF052F1600020F053F1DD
:104A2C001200600018F045F160001CF046F16000C7
:104A3C0020F047F11200600018F042F160001CF009
:104A4C0043F1600020F044F11200F051096E086A45
:104A5C00EF510824066E000E0920076E1200066E38
:104A6C0060001BF0F1FE3E01F88FF88112003E0150
:104A7C00F8B102D0010E1200000E12000B6E0B509A
:104A8C0072EC22F01200076E0750B9EC21F0120004
:104A9C00AD0E3E01C16F1200000197511200CAEC1D
:104AAC0023F0120000EC24F0120001FF11001200A0
:064ABC00120012001200BE
:020000040020DA
:10000000FF0FFF0FFF0FFF0FFF0FFF0FFF0FFF0F80
:020000040030CA
:0A000000AFFFFFFF9FFFFFFFFFFFB0
:00000001FF
